{
  "transactions": [
    {
      "hash": "0xebde6c945d4f74cae2e85017ddefee71118146e23fa76c19223bdaf2d33320c3",
      "transactionType": "CREATE",
      "contractName": "ScriptHub",
      "contractAddress": "0x429862f1fbd621d15c48f1e16e6301f322e7ccae",
      "function": null,
      "arguments": null,
      "transaction": {
        "from": "0x8de56f797ff4aa43224ac277f04d595a30f782d6",
        "gas": "0x1b75db",
        "value": "0x0",
        "input": "0x60806040523461037557604080519081016001600160401b0381118282101761028b576040908152601182527010db185dc8105c995b984814d8dc9a5c1d607a1b602083015280519081016001600160401b0381118282101761028b57604052600681526514d0d492541560d21b602082015281516001600160401b03811161028b575f54600181811c9116801561036b575b602082101461026d57601f8111610309575b50602092601f82116001146102aa57928192935f9261029f575b50508160011b915f199060031b1c1916175f555b80516001600160401b03811161028b57600154600181811c91168015610281575b602082101461026d57601f811161020a575b50602091601f82116001146101aa579181925f9261019f575b50508160011b915f199060031b1c1916176001555b331561018c5760068054336001600160a01b03198216811790925560405191906001600160a01b03167f8be0079c531659141344cd1fd0a4f28419497f9722a3daafe3b4186f6b6457e05f80a361168d908161037a8239f35b631e4fbdf760e01b5f525f60045260245ffd5b015190505f8061011e565b601f1982169260015f52805f20915f5b8581106101f2575083600195106101da575b505050811b01600155610133565b01515f1960f88460031b161c191690555f80806101cc565b919260206001819286850151815501940192016101ba565b60015f527fb10e2d527612073b26eecdfd717e6a320cf44b4afac2b0732d9fcbe2b7fa0cf6601f830160051c81019160208410610263575b601f0160051c01905b8181106102585750610105565b5f815560010161024b565b9091508190610242565b634e487b7160e01b5f52602260045260245ffd5b90607f16906100f3565b634e487b7160e01b5f52604160045260245ffd5b015190505f806100be565b601f198216935f8052805f20915f5b8681106102f157508360019596106102d9575b505050811b015f556100d2565b01515f1960f88460031b161c191690555f80806102cc565b919260206001819286850151815501940192016102b9565b5f80527f290decd9548b62a8d60345a988386fc84ba6bc95484008f6362f93160ef3e563601f830160051c81019160208410610361575b601f0160051c01905b81811061035657506100a4565b5f8155600101610349565b9091508190610340565b90607f1690610092565b5f80fdfe6080806040526004361015610012575f80fd5b5f905f3560e01c90816301ffc9a7146110485750806306fdde0314610fa6578063081812fc14610f6a578063095ea7b314610e80578063150b7a0214610e2a57806318160ddd14610b4657806323b872dd14610e135780633533fedf14610df657806342842e0e14610dcd5780634f586b8a14610c2c5780636352211e14610bfc57806370a0823114610bab578063715018a614610b6357806375794a3c14610b465780638da5cb5b14610b1e57806395d89b4114610a5457806399809499146108e95780639bb3a34514610700578063a22cb46514610665578063a2c8bc9814610556578063a959100414610520578063b88d4fde14610497578063c87b56dd1461043a578063cfa202311461020c578063e985e9c5146101b45763f2fde38b1461013c575f80fd5b346101b15760203660031901126101b1576101556110d7565b61015d611524565b6001600160a01b0316801561019d57600680546001600160a01b0319811683179091556001600160a01b03165f5160206116185f395f51905f525f80a380f35b631e4fbdf760e01b82526004829052602482fd5b80fd5b50346101b15760403660031901126101b15760406101d06110d7565b916101d96110ed565b9260018060a01b031681526005602052209060018060a01b03165f52602052602060ff60405f2054166040519015158152f35b50346101b15760203660031901126101b1576004356001600160401b0381116104365736602382011215610436576004810135906001600160401b038211610432573660248360051b8301011161043257610265611524565b600a546103f7573681900360421901835b838110156103ed5760095461028a8161138e565b60095560248260051b85010135838112156103e957840160248101356001600160401b0381116103e55780360360448301136103e557828852600760205260408820916102d783546111a8565b601f81116103a0575b508890601f831160011461032e57918061031a949260019796948c92610320575b50505f19600383901b1c191690861b1790555b3061154b565b01610276565b016044013590505f80610301565b838a5260208a2091601f1984168b5b8181106103855750926001979694919288938361031a989610610368575b505050811b019055610314565b6044910101355f19600384901b60f8161c191690555f808061035b565b6044848401013585556001909401936020928301920161033d565b838a5260208a20601f840160051c810191602085106103db575b601f0160051c01905b8181106103d057506102e0565b8a81556001016103c3565b90915081906103ba565b8780fd5b8680fd5b84600954600a5580f35b60405162461bcd60e51b8152602060048201526013602482015272105b1c9958591e481a5b9a5d1a585b1a5e9959606a1b6044820152606490fd5b8280fd5b5080fd5b34610493576020366003190112610493576104566004356114f0565b505f60405161046660208261116a565b5261048f60405161047860208261116a565b5f81526040519182916020835260208301906110b3565b0390f35b5f80fd5b34610493576080366003190112610493576104b06110d7565b6104b86110ed565b606435916001600160401b0383116104935736602384011215610493578260040135916104e48361118d565b926104f2604051948561116a565b8084523660248287010111610493576020815f92602461051e98018388013785010152604435916113b0565b005b34610493576020366003190112610493576004355f526008602052602060405f205460a01b6040519060018060a01b0319168152f35b3461049357602036600319011261049357600435600954811015610634575f52600760205260405f20604051905f90805490610591826111a8565b808552916001811690811561060d57506001146105cd575b61048f846105b98186038261116a565b6040519182916020835260208301906110b3565b5f90815260208120939250905b8082106105f3575090915081016020016105b9826105a9565b9192600181602092548385880101520191019092916105da565b60ff191660208087019190915292151560051b850190920192506105b991508390506105a9565b60405162461bcd60e51b8152602060048201526009602482015268139bdd08195e1a5cdd60ba1b6044820152606490fd5b346104935760403660031901126104935761067e6110d7565b60243590811515809203610493576001600160a01b03169081156106ed57335f52600560205260405f20825f5260205260405f2060ff1981541660ff83161790556040519081527f17307eab39ab6107e8899845ad3d59bd9653f200f220920489ca2b5937696c3160203392a3005b50630b61174360e31b5f5260045260245ffd5b34610493576040366003190112610493576004356024356001600160401b03811161049357610733903690600401611103565b909161073e816114f0565b336001600160a01b03909116036108b857600a54811061088257610763821515611353565b5f908152600760205260409020906001600160401b03811161086e5761078982546111a8565b601f8111610829575b505f601f82116001146107cb578192935f926107c0575b50505f19600383901b1c191660019190911b179055005b0135905083806107a9565b601f19821693835f5260205f20915f5b86811061081157508360019596106107f8575b505050811b019055005b01355f19600384901b60f8161c191690558380806107ee565b909260206001819286860135815501940191016107db565b825f5260205f20601f830160051c81019160208410610864575b601f0160051c01905b8181106108595750610792565b5f815560010161084c565b9091508190610843565b634e487b7160e01b5f52604160045260245ffd5b60405162461bcd60e51b815260206004820152600e60248201526d111959985d5b1d081cd8dc9a5c1d60921b6044820152606490fd5b60405162461bcd60e51b81526020600482015260096024820152682737ba1037bbb732b960b91b6044820152606490fd5b34610493576020366003190112610493576004356001600160401b03811161049357610919903690600401611103565b90610925821515611353565b6009546109318161138e565b6009555f8181526007602052604090206001600160401b03841161086e5761095981546111a8565b93601f8511610a0f575b602094505f601f82116001146109af57819293945f926109a4575b50508160011b915f199060031b1c19161790555b61099c813361154b565b604051908152f35b01359050858061097e565b601f19821694835f52865f20915f5b8781106109f85750836001959697106109df575b505050811b019055610992565b01355f19600384901b60f8161c191690558580806109d2565b9092886001819286860135815501940191016109be565b815f5260205f20601f820160051c81019560208310610a4a575b601f0160051c01945b858110610a3f5750610963565b5f8155600101610a32565b9095508590610a29565b34610493575f366003190112610493576040515f600154610a74816111a8565b8084529060018116908115610afa5750600114610a9c575b61048f836105b98185038261116a565b60015f9081527fb10e2d527612073b26eecdfd717e6a320cf44b4afac2b0732d9fcbe2b7fa0cf6939250905b808210610ae0575090915081016020016105b9610a8c565b919260018160209254838588010152019101909291610ac8565b60ff191660208086019190915291151560051b840190910191506105b99050610a8c565b34610493575f366003190112610493576006546040516001600160a01b039091168152602090f35b34610493575f366003190112610493576020600954604051908152f35b34610493575f36600319011261049357610b7b611524565b600680546001600160a01b031981169091555f906001600160a01b03165f5160206116185f395f51905f528280a3005b34610493576020366003190112610493576001600160a01b03610bcc6110d7565b168015610be9575f526003602052602060405f2054604051908152f35b6322718ad960e21b5f525f60045260245ffd5b34610493576020366003190112610493576020610c1a6004356114f0565b6040516001600160a01b039091168152f35b34610493576040366003190112610493576004356001600160a01b031981168103610493576024356001600160401b03811161049357610c70903690600401611103565b9091610c7a611524565b610c85821515611353565b60095491610c928361138e565b6009555f838152600760205260409020906001600160401b03811161086e57610cbb82546111a8565b601f8111610d88575b50806020955f90601f8311600114610d23575f92610d18575b50508160011b915f199060031b1c19161790555b815f526008835260405f209060a01c60018060601b031982541617905561099c813061154b565b013590508680610cdd565b909150601f19831691845f52875f20925f5b818110610d715750908460019594939210610d58575b505050811b019055610cf1565b01355f19600384901b60f8161c19169055868080610d4b565b919389600181928787013581550195019201610d35565b825f5260205f20601f830160051c81019160208410610dc3575b601f0160051c01905b818110610db85750610cc4565b5f8155600101610dab565b9091508190610da2565b346104935761051e610dde36611130565b9060405192610dee60208561116a565b5f84526113b0565b34610493575f366003190112610493576020600a54604051908152f35b346104935761051e610e2436611130565b916111e0565b3461049357608036600319011261049357610e436110d7565b50610e4c6110ed565b506064356001600160401b03811161049357610e6c903690600401611103565b5050604051630a85bd0160e11b8152602090f35b3461049357604036600319011261049357610e996110d7565b602435610ea5816114f0565b33151580610f57575b80610f2a575b610f175781906001600160a01b0384811691167f8c5be1e5ebec7d5bd14f71427d1e84f3dd0314c0f7b2291e5b200ac8c7c3b9255f80a45f90815260046020526040902080546001600160a01b0319166001600160a01b03909216919091179055005b63a9fbf51f60e01b5f523360045260245ffd5b506001600160a01b0381165f90815260056020908152604080832033845290915290205460ff1615610eb4565b506001600160a01b038116331415610eae565b3461049357602036600319011261049357600435610f87816114f0565b505f526004602052602060018060a01b0360405f205416604051908152f35b34610493575f366003190112610493576040515f5f54610fc5816111a8565b8084529060018116908115610afa5750600114610fec5761048f836105b98185038261116a565b5f8080527f290decd9548b62a8d60345a988386fc84ba6bc95484008f6362f93160ef3e563939250905b80821061102e575090915081016020016105b9610a8c565b919260018160209254838588010152019101909291611016565b34610493576020366003190112610493576004359063ffffffff60e01b8216809203610493576020916380ac58cd60e01b81149081156110a2575b8115611091575b5015158152f35b6301ffc9a760e01b1490508361108a565b635b5e139f60e01b81149150611083565b805180835260209291819084018484015e5f828201840152601f01601f1916010190565b600435906001600160a01b038216820361049357565b602435906001600160a01b038216820361049357565b9181601f84011215610493578235916001600160401b038311610493576020838186019501011161049357565b6060906003190112610493576004356001600160a01b038116810361049357906024356001600160a01b0381168103610493579060443590565b601f909101601f19168101906001600160401b0382119082101761086e57604052565b6001600160401b03811161086e57601f01601f191660200190565b90600182811c921680156111d6575b60208310146111c257565b634e487b7160e01b5f52602260045260245ffd5b91607f16916111b7565b6001600160a01b0390911691908215611340575f828152600260205260409020546001600160a01b0316928290331515806112ab575b508461128a575b805f52600360205260405f2060018154019055815f52600260205260405f208160018060a01b0319825416179055845f5160206116385f395f51905f525f80a46001600160a01b031680830361127257505050565b6364283d7b60e01b5f5260045260245260445260645ffd5b611293826115fa565b845f52600360205260405f205f19815401905561121d565b909150806112ef575b156112c15782905f611216565b82846112d957637e27328960e01b5f5260045260245ffd5b63177e802f60e01b5f523360045260245260445ffd5b50338414801561131e575b806112b457505f838152600460205260409020546001600160a01b031633146112b4565b505f84815260056020908152604080832033845290915290205460ff166112fa565b633250574960e11b5f525f60045260245ffd5b1561135a57565b60405162461bcd60e51b815260206004820152600c60248201526b115b5c1d1e481cd8dc9a5c1d60a21b6044820152606490fd5b5f19811461139c5760010190565b634e487b7160e01b5f52601160045260245ffd5b92916113bd8183866111e0565b813b6113ca575b50505050565b604051630a85bd0160e11b81523360048201526001600160a01b03948516602482015260448101919091526080606482015292169190602090829081906114159060848301906110b3565b03815f865af15f91816114ab575b5061147857503d15611471573d6114398161118d565b90611447604051928361116a565b81523d5f602083013e5b8051908161146c5782633250574960e11b5f5260045260245ffd5b602001fd5b6060611451565b6001600160e01b03191663757a42ff60e11b0161149957505f8080806113c4565b633250574960e11b5f5260045260245ffd5b9091506020813d6020116114e8575b816114c76020938361116a565b8101031261049357516001600160e01b03198116810361049357905f611423565b3d91506114ba565b5f818152600260205260409020546001600160a01b0316908115611512575090565b637e27328960e01b5f5260045260245ffd5b6006546001600160a01b0316330361153857565b63118cdaa760e01b5f523360045260245ffd5b6001600160a01b0316908115611340575f818152600260205260409020546001600160a01b031680151592909190836115d9575b805f52600360205260405f2060018154019055815f52600260205260405f208160018060a01b0319825416179055825f5160206116385f395f51905f525f80a4506115c657565b6339e3563760e11b5f525f60045260245ffd5b6115e2826115fa565b825f52600360205260405f205f19815401905561157f565b5f90815260046020526040902080546001600160a01b031916905556fe8be0079c531659141344cd1fd0a4f28419497f9722a3daafe3b4186f6b6457e0ddf252ad1be2c89b69c2b068fc378daa952ba7f163c4a11628f55a4df523b3efa2646970667358221220386d115ae7f95cc92d0b7007ede473985cc2f41cd11b4b94a065b9dccb597d5164736f6c634300081b0033",
        "nonce": "0x18c",
        "chainId": "0x13882"
      },
      "additionalContracts": [],
      "isFixedGasLimit": false
    },
    {
      "hash": "0x8e05cbbf4a67c3cedac30a6ea9d531e2cfdb9eb625600db1f654bbe556058737",
      "transactionType": "CREATE",
      "contractName": "LobsterHub",
      "contractAddress": "0x72eea00e0b9652db2d8d2eb4b72eadeba76440bd",
      "function": null,
      "arguments": null,
      "transaction": {
        "from": "0x8de56f797ff4aa43224ac277f04d595a30f782d6",
        "gas": "0x24d744",
        "value": "0x0",
        "input": "0x60806040523461044a57610013604061046d565b601281527121b630bb9020b932b730902637b139ba32b960711b602082015261003c604061046d565b60078152662627a129aa22a960c91b602082015281516001600160401b038111610375575f54600181811c91168015610440575b602082101461035757601f81116103f3575b50602092601f821160011461039457928192935f92610389575b50508160011b915f199060031b1c1916175f555b80516001600160401b03811161037557600154600181811c9116801561036b575b602082101461035757601f81116102fe575b50602091601f821160011461029e579181925f92610293575b50508160011b915f199060031b1c1916176001555b33156102805760068054336001600160a01b0319821681179092556001600160a01b03167f8be0079c531659141344cd1fd0a4f28419497f9722a3daafe3b4186f6b6457e05f80a361016161044e565b600a815260016020820152600160408201525f606082015260036080820152600160a08201525f905f5b60068110610261578260075561019f61044e565b601e8152600a6020820152600360408201526005606082015260036080820152600960a08201525f905f5b6006811061024257826008556101de61044e565b600181526001602082015260036040820152600160608201525f196080820152600160a08201525f905f5b600681106102245782600955604051611dbe90816104bd8239f35b909160206102396001928486515f0b916104a8565b93019101610209565b909160206102586001928460ff875116916104a8565b930191016101ca565b909160206102776001928460ff875116916104a8565b9301910161018b565b631e4fbdf760e01b5f525f60045260245ffd5b015190505f806100fc565b601f1982169260015f52805f20915f5b8581106102e6575083600195106102ce575b505050811b01600155610111565b01515f1960f88460031b161c191690555f80806102c0565b919260206001819286850151815501940192016102ae565b60015f52610347907fb10e2d527612073b26eecdfd717e6a320cf44b4afac2b0732d9fcbe2b7fa0cf6601f840160051c8101916020851061034d575b601f0160051c0190610492565b5f6100e3565b909150819061033a565b634e487b7160e01b5f52602260045260245ffd5b90607f16906100d1565b634e487b7160e01b5f52604160045260245ffd5b015190505f8061009c565b601f198216935f8052805f20915f5b8681106103db57508360019596106103c3575b505050811b015f556100b0565b01515f1960f88460031b161c191690555f80806103b6565b919260206001819286850151815501940192016103a3565b5f805261043a907f290decd9548b62a8d60345a988386fc84ba6bc95484008f6362f93160ef3e563601f840160051c8101916020851061034d57601f0160051c0190610492565b5f610082565b90607f1690610070565b5f80fd5b6040519060c082016001600160401b0381118382101761037557604052565b6040519190601f01601f191682016001600160401b0381118382101761037557604052565b81811061049d575050565b5f8155600101610492565b9060ff809160031b9316831b921b1916179056fe6080806040526004361015610012575f80fd5b5f905f3560e01c90816301ffc9a7146113a85750806306fdde03146112f0578063081812fc146112b4578063095ea7b3146111ca578063150b7a021461115b57806318160ddd14610f765780631ced1de51461112457806323b872dd1461110d57806342842e0e146110e45780634fd00c43146110bc5780636352211e1461108c578063668c5c1a146110495780636dfd80721461102c57806370a0823114610fdb578063715018a614610f9357806375794a3c14610f765780638da5cb5b14610f4e57806395d89b4114610e46578063a1b1037314610db9578063a22cb46514610d1e578063b82e563114610b76578063b88d4fde14610aed578063bb3b63ed14610ab7578063c112dcdc14610a8d578063c5c22e3e14610a56578063c87b56dd14610666578063e88851b0146102b0578063e985e9c514610258578063f2fde38b146101e2578063f5bcb562146101b85763f6c64dc314610173575f80fd5b346101b55760203660031901126101b5576040602091600435610199600d548210611536565b8152600c8352205460a01b6040519060018060a01b0319168152f35b80fd5b50346101b55760203660031901126101b55760406020916004358152600b83522054604051908152f35b50346101b55760203660031901126101b5576101fc611437565b6102046118d1565b6001600160a01b0316801561024457600680546001600160a01b0319811683179091556001600160a01b03165f516020611d495f395f51905f528380a380f35b631e4fbdf760e01b82526004829052602482fd5b50346101b55760403660031901126101b5576040610274611437565b9161027d61144d565b9260018060a01b031681526005602052209060018060a01b03165f52602052602060ff60405f2054166040519015158152f35b5034610662576020366003190112610662576102ca61149d565b906102e06001600160a01b0319831615156116e1565b600f546001600160a01b0316803b15610662575f8091604460405180948193634bc6a73f60e11b8352336004840152610bb860248401525af1801561065757610644575b505f194301904382116106305763ffffffff600d549260405160208101914483524060408201524260608201528460808201526080815261036660a0826114e4565b5190201680610627575061037a6001611d26565b9260c0928360405161038c82826114e4565b36903784926040519461039f81876114e4565b368637805b60ff811660068110156103db57816001916103d360ff6103c48196611cdd565b90549060031b1c16918a61188c565b5201166103a4565b5050848685600c5b848160010b1361050c575091839284905b601560ff8316106104c357602087896040898989896104128761171a565b600d5560ff81511688820151868301519060608401519261ff0062ff000063ff0000008d60a060808a0151990151908c528f600a905260ff60381b9060381b1698600161ffff600d818060281b941606161b60281b16978f60ff901b9060201b169660181b169460101b169260081b1617171717171783832055848252600b865282822055838152600c8552209060a01c60018060601b03198254161790556104bb81336118f8565b604051908152f35b6104cf90949194611d26565b908460031b6107f860f88216911681036104f85760ff91600191838516901b17950116906103f4565b634e487b7160e01b87526011600452602487fd5b9061051690611d26565b90600660ff831606855b600660ff821610610533575b50506103e3565b600660ff6105418385611cf5565b160660ff811660ff610553828a61188c565b511660ff61056084611cdd565b90549060031b1c16916006841015610613578360051c9160ff61059984600801958260f8601f8a1698549960031b1698891c1690611cf5565b16116105ae575050505060010160ff16610520565b91935091935060ff6105d56105ce826105c7858d61188c565b51166119a7565b928a61188c565b91169052600901905054901c850b9060010b03617fff8113617fff198212176105ff57878061052c565b634e487b7160e01b85526011600452602485fd5b634e487b7160e01b8b52603260045260248bfd5b61037a90611d26565b634e487b7160e01b81526011600452602490fd5b61065091505f906114e4565b5f5f610324565b6040513d5f823e3d90fd5b5f80fd5b3461066257602036600319011261066257600435610687600d548210611536565b805f52600a60205260405f2054905f52600c60205260405f205460a01b5f905f915b60ff8316600c811015610a4a5782901a60f81b6001600160f81b031916156106e15760016106d860ff926119a7565b930116916106a9565b60ff919392505b16906106f3826119b8565b5f5b60ff81168481101561073957600c8110156107255760ff918161071d886001941a91866119ea565b5301166106f5565b634e487b7160e01b5f52603260045260245ffd5b505060ff8216610748906119fb565b918060081c60ff16610759906119fb565b908060101c60ff1661076a906119fb565b8160181c60ff1661077a906119fb565b908260201c60ff1661078b906119fb565b9260381c60ff1661079b906119fb565b93604051968796683d913730b6b2911d1160b91b60208901528051602081920160298a015e7f222c226465736372697074696f6e223a22436c6177204172656e61204c6f6273602991890191820152681d195c88139195088b60ba1b60498201526d2261747472696275746573223a5b60901b60528201527a3d913a3930b4ba2fba3cb832911d1124281116113b30b63ab2911d60291b60608201528151918290602001607b83015e0160290160528101611f4b60f21b90527b3d913a3930b4ba2fba3cb832911d1120aa259116113b30b63ab2911d60211b605482015281516020819301607083015e01605201601e8101611f4b60f21b9052602081017f7b2274726169745f74797065223a2252616e6765222c2276616c7565223a0000905281516020819301603e83015e01601e0160208101611f4b60f21b9052602281017f7b2274726169745f74797065223a225370656564222c2276616c7565223a0000905281516020819301604083015e0160200160208101611f4b60f21b9052602281017f7b2274726169745f74797065223a224d616e61222c2276616c7565223a000000905281516020819301603f83015e01602001601f8101611f4b60f21b9052602181017f7b2274726169745f74797065223a22536b696c6c20506f776572222c2276616c9052633ab2911d60e11b604182015281516020819301604583015e01601f0160268101607d60f81b905260278101615d7d60f01b905203602601601c19810182526003016109d190826114e4565b6109da90611a96565b6040518091602082017f646174613a6170706c69636174696f6e2f6a736f6e3b6261736536342c000000905280516020819201603d84015e8101603d81015f905203603d01601f1981018252610a3090826114e4565b60405180916020825260208201610a4691611413565b0390f35b5060ff919392506106e8565b3461066257602036600319011261066257600435610a77600d548210611536565b5f52600a602052602060405f2054604051908152f35b34610662576020366003190112610662576004355f52600a602052602060405f2054604051908152f35b34610662576020366003190112610662576004355f52600c602052602060405f205460a01b6040519060018060a01b0319168152f35b3461066257608036600319011261066257610b06611437565b610b0e61144d565b606435916001600160401b038311610662573660238401121561066257826004013591610b3a8361151b565b92610b4860405194856114e4565b8084523660248287010111610662576020815f926024610b74980183880137850101526044359161174c565b005b34610662576060366003190112610662576004356001600160401b03811161066257610ba69036906004016114b4565b6024356001600160401b03811161066257610bc59036906004016114b4565b906044356001600160401b03811161066257610be59036906004016114b4565b90610bee6118d1565b600e54610ce35783851480610cda575b15610ca3575f5b858110610c1457600d54600e55005b600d5490610c218261171a565b600d55610c2f81888a61173c565b35825f52600a60205260405f2055610c4881878761173c565b35825f52600b60205260405f2055610c6181858561173c565b356001600160a01b0319811681036106625782610c9d916001945f52600c60205260405f209060a01c858060601b0319825416179055306118f8565b01610c05565b60405162461bcd60e51b815260206004820152600f60248201526e098cadccee8d040dad2e6dac2e8c6d608b1b6044820152606490fd5b50818514610bfe565b60405162461bcd60e51b8152602060048201526013602482015272105b1c9958591e481a5b9a5d1a585b1a5e9959606a1b6044820152606490fd5b3461066257604036600319011261066257610d37611437565b60243590811515809203610662576001600160a01b0316908115610da657335f52600560205260405f20825f5260205260405f2060ff1981541660ff83161790556040519081527f17307eab39ab6107e8899845ad3d59bd9653f200f220920489ca2b5937696c3160203392a3005b50630b61174360e31b5f5260045260245ffd5b34610662576060366003190112610662576020610dd461149d565b610ddc6118d1565b610df16001600160a01b0319821615156116e1565b600d5490610dfe8261171a565b600d55815f52600a835260243560405f2055815f52600b835260443560405f2055815f52600c835260405f209060a01c60018060601b03198254161790556104bb81306118f8565b34610662575f366003190112610662576040515f6001548060011c90600181168015610f44575b602083108114610f3057828552908115610f0c5750600114610eae575b610a4683610e9a818503826114e4565b604051918291602083526020830190611413565b60015f9081527fb10e2d527612073b26eecdfd717e6a320cf44b4afac2b0732d9fcbe2b7fa0cf6939250905b808210610ef257509091508101602001610e9a610e8a565b919260018160209254838588010152019101909291610eda565b60ff191660208086019190915291151560051b84019091019150610e9a9050610e8a565b634e487b7160e01b5f52602260045260245ffd5b91607f1691610e6d565b34610662575f366003190112610662576006546040516001600160a01b039091168152602090f35b34610662575f366003190112610662576020600d54604051908152f35b34610662575f36600319011261066257610fab6118d1565b600680546001600160a01b031981169091555f906001600160a01b03165f516020611d495f395f51905f528280a3005b34610662576020366003190112610662576001600160a01b03610ffc611437565b168015611019575f526003602052602060405f2054604051908152f35b6322718ad960e21b5f525f60045260245ffd5b34610662575f366003190112610662576020600e54604051908152f35b3461066257602036600319011261066257611062611437565b61106a6118d1565b600f80546001600160a01b0319166001600160a01b0392909216919091179055005b346106625760203660031901126106625760206110aa60043561189d565b6040516001600160a01b039091168152f35b34610662575f36600319011261066257600f546040516001600160a01b039091168152602090f35b3461066257610b746110f536611463565b90604051926111056020856114e4565b5f845261174c565b3461066257610b7461111e36611463565b9161156e565b3461066257602036600319011261066257600435611145600d548210611536565b5f52600b602052602060405f2054604051908152f35b3461066257608036600319011261066257611174611437565b5061117d61144d565b506064356001600160401b03811161066257366023820112156106625760048101356001600160401b038111610662573691016024011161066257604051630a85bd0160e11b8152602090f35b34610662576040366003190112610662576111e3611437565b6024356111ef8161189d565b331515806112a1575b80611274575b6112615781906001600160a01b0384811691167f8c5be1e5ebec7d5bd14f71427d1e84f3dd0314c0f7b2291e5b200ac8c7c3b9255f80a45f90815260046020526040902080546001600160a01b0319166001600160a01b03909216919091179055005b63a9fbf51f60e01b5f523360045260245ffd5b506001600160a01b0381165f90815260056020908152604080832033845290915290205460ff16156111fe565b506001600160a01b0381163314156111f8565b34610662576020366003190112610662576004356112d18161189d565b505f526004602052602060018060a01b0360405f205416604051908152f35b34610662575f366003190112610662576040515f5f548060011c9060018116801561139e575b602083108114610f3057828552908115610f0c575060011461134257610a4683610e9a818503826114e4565b5f8080527f290decd9548b62a8d60345a988386fc84ba6bc95484008f6362f93160ef3e563939250905b80821061138457509091508101602001610e9a610e8a565b91926001816020925483858801015201910190929161136c565b91607f1691611316565b34610662576020366003190112610662576004359063ffffffff60e01b8216809203610662576020916380ac58cd60e01b8114908115611402575b81156113f1575b5015158152f35b6301ffc9a760e01b149050836113ea565b635b5e139f60e01b811491506113e3565b805180835260209291819084018484015e5f828201840152601f01601f1916010190565b600435906001600160a01b038216820361066257565b602435906001600160a01b038216820361066257565b6060906003190112610662576004356001600160a01b038116810361066257906024356001600160a01b0381168103610662579060443590565b600435906001600160a01b03198216820361066257565b9181601f84011215610662578235916001600160401b038311610662576020808501948460051b01011161066257565b601f909101601f19168101906001600160401b0382119082101761150757604052565b634e487b7160e01b5f52604160045260245ffd5b6001600160401b03811161150757601f01601f191660200190565b1561153d57565b60405162461bcd60e51b8152602060048201526009602482015268139bdd08195e1a5cdd60ba1b6044820152606490fd5b6001600160a01b03909116919082156116ce575f828152600260205260409020546001600160a01b031692829033151580611639575b5084611618575b805f52600360205260405f2060018154019055815f52600260205260405f208160018060a01b0319825416179055845f516020611d695f395f51905f525f80a46001600160a01b031680830361160057505050565b6364283d7b60e01b5f5260045260245260445260645ffd5b61162182611d09565b845f52600360205260405f205f1981540190556115ab565b9091508061167d575b1561164f5782905f6115a4565b828461166757637e27328960e01b5f5260045260245ffd5b63177e802f60e01b5f523360045260245260445ffd5b5033841480156116ac575b8061164257505f838152600460205260409020546001600160a01b03163314611642565b505f84815260056020908152604080832033845290915290205460ff16611688565b633250574960e11b5f525f60045260245ffd5b156116e857565b60405162461bcd60e51b815260206004820152600a602482015269456d707479206e616d6560b01b6044820152606490fd5b5f1981146117285760010190565b634e487b7160e01b5f52601160045260245ffd5b91908110156107255760051b0190565b929161175981838661156e565b813b611766575b50505050565b604051630a85bd0160e11b81523360048201526001600160a01b03948516602482015260448101919091526080606482015292169190602090829081906117b1906084830190611413565b03815f865af15f9181611847575b5061181457503d1561180d573d6117d58161151b565b906117e360405192836114e4565b81523d5f602083013e5b805190816118085782633250574960e11b5f5260045260245ffd5b602001fd5b60606117ed565b6001600160e01b03191663757a42ff60e11b0161183557505f808080611760565b633250574960e11b5f5260045260245ffd5b9091506020813d602011611884575b81611863602093836114e4565b8101031261066257516001600160e01b03198116810361066257905f6117bf565b3d9150611856565b9060068110156107255760051b0190565b5f818152600260205260409020546001600160a01b03169081156118bf575090565b637e27328960e01b5f5260045260245ffd5b6006546001600160a01b031633036118e557565b63118cdaa760e01b5f523360045260245ffd5b6001600160a01b03169081156116ce575f818152600260205260409020546001600160a01b03168015159290919083611986575b805f52600360205260405f2060018154019055815f52600260205260405f208160018060a01b0319825416179055825f516020611d695f395f51905f525f80a45061197357565b6339e3563760e11b5f525f60045260245ffd5b61198f82611d09565b825f52600360205260405f205f19815401905561192c565b60ff1660ff81146117285760010190565b906119c28261151b565b6119cf60405191826114e4565b82815280926119e0601f199161151b565b0190602036910137565b908151811015610725570160200190565b8015611a7657805f81805b611a5e5750611a14816119b8565b925b611a1f57505090565b8015611728575f190190600a8106603001908160301161172857600a9160f81b6001600160f81b0319165f1a611a5584866119ea565b53049081611a16565b9150611a6b600a9161171a565b910480839291611a06565b50604051611a856040826114e4565b60018152600360fc1b602082015290565b604051611aa46060826114e4565b604081527f4142434445464748494a4b4c4d4e4f505152535455565758595a61626364656660208201527f6768696a6b6c6d6e6f707172737475767778797a303132333435363738392b2f604082015281518015611cc6576002810180821161172857600390046001600160fe1b038116810361172857611b279060021b6119b8565b925f905f5b838110611b3b57505050505090565b611b4581836119ea565b51600182018083118061172857868210908115611cbe5750611b685f92866119ea565b5160f81c915b6002850191828611938461172857898410948515611cb55750611b925f94896119ea565b5160f81c955b60e81c62ff00001660089190911b61ff00161760ff861617918b611be46001600160f81b0319611bcf601287901c603f168f6119ea565b51169a611bdb8161171a565b9b5f1a926119ea565b538b611c036001600160f81b0319611bcf600c87901c603f168f6119ea565b536117285715611ca9576001600160f81b031990611c279060061c603f168a6119ea565b5116955b611c41611c378261171a565b975f1a918b6119ea565b536117285715611c9d576001600160f81b031990611c6290603f16876119ea565b5116925b611c7c611c728261171a565b945f1a91886119ea565b536003810180911115611b2c57634e487b7160e01b5f52601160045260245ffd5b50603d60f81b92611c66565b50603d60f81b95611c2b565b93505f95611b98565b5f9250611b6e565b505050604051611cd76020826114e4565b5f815290565b90600682101561072557601f8260051c600701921690565b9060ff8091169116019060ff821161172857565b5f90815260046020526040902080546001600160a01b0319169055565b63ffffe00081600d1b1618617fff8160111c161863ffffffe08160051b16189056fe8be0079c531659141344cd1fd0a4f28419497f9722a3daafe3b4186f6b6457e0ddf252ad1be2c89b69c2b068fc378daa952ba7f163c4a11628f55a4df523b3efa2646970667358221220529675b5b4ecee6b43f7b3190faceff66082dcad0343db3e92ecceca443aa13b64736f6c634300081b0033",
        "nonce": "0x18d",
        "chainId": "0x13882"
      },
      "additionalContracts": [],
      "isFixedGasLimit": false
    },
    {
      "hash": "0x39cd8043bac5776afbf78c19689ab5e0dc276755d26b63be5e464230db191d7d",
      "transactionType": "CREATE",
      "contractName": "ClawArena",
      "contractAddress": "0xda5b47f758f19bb02cc9bd8aac3dc0b9e7e7ffc7",
      "function": null,
      "arguments": [
        "0x72eEA00e0b9652Db2D8d2Eb4b72eadEBA76440Bd",
        "0x429862F1fBd621D15C48f1E16E6301f322e7CCAe"
      ],
      "transaction": {
        "from": "0x8de56f797ff4aa43224ac277f04d595a30f782d6",
        "gas": "0x3f56d4",
        "value": "0x0",
        "input": "0x6080346100fd57601f61382938819003918201601f19168301916001600160401b038311848410176101015780849260409485528339810103126100fd57610052602061004b83610115565b9201610115565b33156100ea575f8054336001600160a01b0319821681178355604051946001949390926001600160a01b0316907f8be0079c531659141344cd1fd0a4f28419497f9722a3daafe3b4186f6b6457e09080a382805560025491838060a01b0316838060a01b03196003541617600355620100008360b01b039060101b169061ff018360b01b03191617176002556136ff908161012a8239f35b631e4fbdf760e01b5f525f60045260245ffd5b5f80fd5b634e487b7160e01b5f52604160045260245ffd5b51906001600160a01b03821682036100fd5756fe6101e0806040526004361015610013575f80fd5b5f3560e01c9081630251838414612c18575080630339887314612991578063072ea61c1461296f5780630800e3a21461292b5780632752398d1461288f578063334d8de31461286757806334cb68c81461282c5780633a7fb595146127e85780633e04bf15146127c45780633f4ba83a1461279f5780634b34d1b4146126945780635a5c69d61461264a5780635c12cd4b1461244f5780635c975abb1461242a5780636d763a6e14612127578063715018a6146120e357806379c4264b146120c05780637eef78fc14612086578063809d38201461204357806383bc8d75146120005780638456cb5914611fd75780638da5cb5b14611fb0578063978d4e7e14611efa5780639943c3a514611ebc5780639ce67bdd14611e81578063a5951aa014611d55578063aa3491b714611d2d578063af137ca814611cf7578063ba3823a614610902578063bcb39621146108e2578063be5957d71461084d578063bebd607a14610821578063c5886fbd14610775578063ccd793821461061b578063d73f3b39146104b9578063d8fa273814610491578063e18d38ce1461044d578063e2eb41ff14610362578063f2fde38b146102f0578063f4381364146102015763f60cdcf6146101e0575f80fd5b346101fd575f3660031901126101fd576020600654604051908152f35b5f80fd5b346101fd5760403660031901126101fd5761021a612c41565b610222612c82565b6004546001600160a01b0316331415806102d5575b806102c1575b6102b35760ff811661027257506001600160a01b03165f90815260056020526040902060090180546001600160f81b03169055005b6001600160a01b039091165f908152600560205260409020600901805460f89290921b6001600160f81b0319166001600160f81b0392909216919091179055005b6282b42960e81b5f5260045ffd5b505f546001600160a01b031633141561023d565b506002543360109190911c6001600160a01b03161415610237565b346101fd5760203660031901126101fd57610309612c41565b610311613070565b6001600160a01b0316801561034f575f80546001600160a01b03198116831782556001600160a01b0316905f5160206136aa5f395f51905f529080a3005b631e4fbdf760e01b5f525f60045260245ffd5b346101fd5760203660031901126101fd576001600160a01b03610383612c41565b165f5260056020526101c060405f20805460801b906001810154906002810154600382015463ffffffff60ff600485015416600585015460068601545f0b600787015491600888015493600989015496600a8a01549866ffffffffffffff600c600b8d01549c0154169b60206040519e8f9060018060801b0319168152015260408d015260608c015260808b015260a08a015260c089015260e088015281811661010088015260201c166101208601526101408501526101608401526101808301526101a0820152f35b346101fd5760203660031901126101fd576001600160a01b0361046e612c41565b165f526005602052602060405f205460801b6040519060018060801b0319168152f35b346101fd575f3660031901126101fd57604b546040516001600160a01b039091168152602090f35b346101fd5760603660031901126101fd576104d2612c41565b6024359063ffffffff8216908183036101fd576104ed612c92565b9291156105f6575b505f9063ffffffff815b1691821515806105e7575b156105345761051890612e04565b915f52600860205263ffffffff8060405f205460201c166104ff565b60ff1661054081612e4b565b9061054a81612e7d565b92905f915b60ff8316828110156105d4578063ffffffff61056e6105b19388612ed8565b9316809352825f52600860205260405f2063ffffffff6040519161059183612d5f565b54818116835260201c1660208201526105aa8289612ed8565b5286612ed8565b505f52600860205260ff600163ffffffff60405f205460201c169301169161054f565b604051806105e3888883612ca2565b0390f35b5060ff841660ff82161061050a565b6001600160a01b03165f9081526009602052604090205463ffffffff169050826104f5565b346101fd5760203660031901126101fd5760043560ff811681036101fd5760ff61064482613047565b90549060031b1c1690600781101590816107045760081b604c019160ff9161066d60ff85613060565b905460039190911b1c6001600160a01b03161561076c5761ffff6101005b169361069685612e34565b916106a46040519384612d95565b8583526106b086612e34565b602084019490601f19013686375f5b61ffff811688811015610718578361070457816001916106fc6106e78b61ffff961689613060565b858060a01b0391549060031b1c169189612ed8565b5201166106bf565b634e487b7160e01b5f52603260045260245ffd5b858388604051916040830193604084525180945260608301915f945b80861061074957505082935060208301520390f35b81516001600160a01b031684526001959095019460209384019390910190610734565b61ffff8261068b565b346101fd5760403660031901126101fd5761078e612c41565b602435906001600160801b0319821682036101fd576004546001600160a01b031633141580610806575b806107f2575b6102b3576001600160a01b03165f90815260056020526040902080546001600160801b03191660809290921c919091179055005b505f546001600160a01b03163314156107be565b506002543360109190911c6001600160a01b031614156107b8565b346101fd575f3660031901126101fd5760025460405160109190911c6001600160a01b03168152602090f35b346101fd5760403660031901126101fd57610866612c41565b61086e612c82565b9060018060a01b0360045416331415806108c7575b806108b3575b6102b35760018060a01b03165f526005602052600160ff600560405f200192161b81541790555f80f35b505f546001600160a01b0316331415610889565b506002543360109190911c6001600160a01b03161415610883565b346101fd575f3660031901126101fd57602060ff60025416604051908152f35b60603660031901126101fd57610916612c92565b600260015414611ce857600260015560025460ff8160081c16611cd957335f52600560205260405f209060018060a01b038160101c166040516331a9108f60e11b81526004356004820152602081602481855afa908115610f54575f91611cba575b506001600160a01b0316908114159081611caf575b50611ca05760018060a01b03600354166040516331a9108f60e11b81526024356004820152602081602481855afa908115610f54575f91611c71575b506001600160a01b0316908114159081611c66575b50611c5857600482019060ff80835416911611611c35575b5060018216151580611c22575b15611bc25734611bb357600581018054600160401b191690555b600282161515918280611ba1575b611b6e57600481161515908180611b8f575b611b6e576008161515908180611b7d575b611b6e5763ffffffff600784015460405160208101914483524260408301523360601b6060830152607482015260748152610a8a609482612d95565b519020168015611b66575b60646001850154045f608052600760805260ff610ab3608051612f30565b16811015611b5157925b60405160a052610ad060e060a051612d95565b60e03660a0513760ff5f9416955f6101c05260ff6101c0525b610af287613047565b6101c05191549060031b1c1660805188101561070457610b1b6101c0518960081b604c01613060565b905460039190911b1c6001600160a01b031615611b4c57506101005b600861ffff821610611a915761ffff60071991160161ffff81116115685761ffff600291160161ffff81116115685761ffff811615611a7d57610b8f61ffff80921663ffffffff861606607f60805160011c16613307565b1695607f60805160011c16870361ffff8111611568575b60805161ffff60019190911c607f168901116115685761ffff607f60805160011c1689011661ffff8216111580611a68575b15610c41576080518910156107045780610bfb610c1b928b60081b604c01613060565b905460039190911b1c6001600160a01b0316338103610c20575b506132f4565b610ba6565b610c3a610c2c8a612e04565b996101c0511660a051612fb5565b528a610c15565b509550955b6101c051608051166101c051861610801590611a5b575b610c7057610c6a90613321565b95610ae9565b5085856101009060405160c052610c898260c051612d95565b813660c0513760405160e052610ca18260e051612d95565b813660e0513760405161014052610cbb8261014051612d95565b8136610140513760405161010052610cd68261010051612d95565b813661010051376040516101a052610cf1826101a051612d95565b5f5b828110611a4957503360c0515260043560e05152602435610140515260018060a01b0360025460101c16610120526040516362e1171f60e11b81526004356004820152602081602481610120515afa908115610f54575f91611a17575b50610100515260018060a01b036003541661016052604051631459179360e31b815260243560048201525f81602481610160515afa908115610f54575f916119fd575b506101a051525f610180525b6101c051608051166101c05161018051161015610f90576101c0516101805160a0516001600160a01b0392610dd5921690612fb5565b511680610df46101c051610deb61018051612fc6565b1660c051612f42565b52805f526005602052600a60405f200154610e216101c051610e1861018051612fc6565b1660e051612f42565b525f526005602052600b60405f200154610e4e6101c051610e4461018051612fc6565b1661014051612f42565b52610e626101c051610e1861018051612fc6565b51604051906362e1171f60e11b82526004820152602081602481610120515afa908115610f54575f91610f5f575b50610eae6101c051610ea461018051612fc6565b1661010051612f42565b52610ec26101c051610e4461018051612fc6565b5160405190631459179360e31b825260048201525f81602481610160515afa8015610f5457610f1c915f91610f32575b506101c051610f0361018051612fc6565b1690610f12826101a051612f42565b526101a051612f42565b506101c051600161018051011661018052610d9f565b610f4e91503d805f833e610f468183612d95565b810190612f53565b88610ef2565b6040513d5f823e3d90fd5b90506020813d8211610f88575b81610f7960209383612d95565b810103126101fd575187610e90565b3d9150610f6c565b604051632ee04c5d60e21b81526101005190949085906101448201905f600484015b600882106119e3575050610140610104840152506101a0516102448301915f5b6008811061199e5750505090806105009263ffffffff8a1661012483015203817389c022ccd1086ccba07e4f83b79312369b28eb485af4948515610f54575f956118b8575b505f9660405161102681612d7a565b5f81525f60208201525f60408201525f60608201525f60808201525f5b6101c051811660088110156118a8576101c051611060828b612f42565b51511615611077575060016101c051910116611043565b915061108b92939495969798995097612f42565b51935b6001840154945f966001975b60086101c0518a161015611110576110d19060018060a01b036110c46101c0518c1660c051612f42565b51166110e1578890612dd4565b9760016101c0519101169761109a565b60018060a01b036110f96101c0518c1660c051612f42565b51165f526005602052600160405f20015490612dd4565b8a97506111268a916101c0516080511690612f26565b91335f52600560205260405f20946001860192835492611145826135df565b60010b60808801978851611888575b606001966101c0518851166002811015611856575b5061117c61117687612dc6565b91612dc6565b915f8113156117f157606483029280840460641490151715611568576111a76111be92606494612f26565b90609682116117e8575b601482106117df57613330565b0580156117d7575b8099806117ce575b61179e575b5080611795575b61177e575b5f881392831561170b57506111f5888554612dd4565b84555b61ffff61120482613649565b16986116de575b6002870161121a8a8254612dd4565b90556101c05185511692156116b2576008870163ffffffff61123e8183541661300d565b825463ffffffff191691161790556003870180545f811290811590826116a75760010191600183129081151691161761156857905b555b608051870194855415611694575b61128d8654612db8565b86556112b06112aa60088a019563ffffffff875460201c16613307565b85613024565b6009600389019889545f8113908161167e575b5061163b575b0196875460018117975490606482101561162e575b506103e81115611624575b5161161a575b6101c051905116600381101561160f575b60051115611605575b6101c051169586156115fb575b5490600a8212156115f1575b5060328112156115e5575b606413156115da575b5463ffffffff8160201c1660648110156115cf575b6101f48110156115c3575b6103e811156115b7575b63ffffffff16600a8110156115ab575b606481101561159e575b6103e81115611592575b549560648704806101c05161139a608051612f30565b161061157c575b60018101809111611568576001901b5f1981019081116115685761ffff976064946001946113d59360c81b17905533613352565b600435600a820155602435600b8201550154046101c0516113f7608051612f30565b1681101561154f5761140f905b6101c05116336131f4565b63ffffffff60405195168552602085015260010b60408401521660608201526080810160c051905f905b6008821061152f5783611452610180820160e051612fe6565b611463610280820161014051612fe6565b7f3052d80a3839b2c5f144988a5cc0935093ca5d2c04d48ff371f73ebd3cca81fb6103803392a26114fe6080515463ffffffff6114a181831661300d565b16809163ffffffff19161760805155335f52600960205263ffffffff8060405f205416604051926114d184612d5f565b8243168452602084019182525f526008602052818060405f20945116168219845416178355511690613024565b63ffffffff6080515416335f52600960205263ffffffff60405f20911663ffffffff19825416179055600180555f80f35b82516001600160a01b031681526020928301926001929092019101611439565b5061140f6101c051611562608051612f30565b16611404565b634e487b7160e01b5f52601160045260245ffd5b506101c05161158c608051612f30565b166113a1565b90620400001790611384565b620200009092179161137a565b91620100001791611370565b61800090921791611360565b61400090931792611356565b92612000179261134b565b916104001791611336565b6102009093179261132d565b909317928a611322565b9360401793611316565b9360201793611309565b601090951794611300565b94600817946112ef565b95600417956112e9565b60031797506103e86112de565b604b80546001600160a01b031981163390811783558c546001600160b01b031990921661ffff60a01b199091161760a09190911b61ffff60a01b161790556112c9565b905061ffff80604b5460a01c169116118f6112c3565b61169f600654612db8565b600655611283565b505050600190611273565b6003870180545f81136116d5575f19810190811360011661156857905b55611275565b505f19906116cf565b9760968102908082046096149015171561156857600587018054600160431b19169055606490049761120b565b5f8912611719575b506111f8565b600160ff1b891461156857885f03606482049160648302928084046064149015171561156857818111611753575050505f84555b8b611713565b8261175e8383612e15565b101561176d575050845561174d565b6117779250612e15565b845561174d565b600587018054600160411b191690555f97506111df565b505f88126111da565b90985060968102908082056096149015171561156857600588018054600160421b1916905560649005978c6111d3565b505f81136111ce565b5060016111c6565b60149150613330565b609691506111b1565b915f8312611801575b50506111c6565b90916064830292808404606414901517156115685761182561183c92606494612f26565b9060c8821161184d575b6032821061184457613330565b058d806117fa565b60329150613330565b60c8915061182f565b9091600582029180830560051490151715611568575f828201928312911290801582169115161761156857908e611169565b90600a8101905f600a831291129080158216911516176115685790611154565b505094955090919296959661108e565b9094506105003d8111611997575b6118d08183612d95565b8101610500828203126101fd5780601f830112156101fd57604051916118f68584612d95565b82916105008201918183116101fd57925b82841061191957505050509387611017565b60a0848303126101fd576040519061193082612d7a565b61193985612fd8565b825261194760208601612fd8565b6020830152604085015161ffff811681036101fd57604083015261196d60608601612fd8565b606083015260808501519081151582036101fd5782602092608060a0950152815201930192611907565b503d6118c6565b9193509160208080600193610143198d82030187528188518051918291828552018484015e5f838284010152601f801991011601019501930191019088939291610fd2565b825181528994506020928301926001929092019101610fb2565b611a1191503d805f833e610f468183612d95565b87610d93565b90506020813d602011611a41575b81611a3260209383612d95565b810103126101fd575187610d50565b3d9150611a25565b8060606020926101a051015201610cf3565b506101c051811615610c5d565b506101c051608051166101c051881610610bd8565b634e487b7160e01b5f52601260045260245ffd5b61ffff8198929816611aa4575b50610c46565b909690955f5b61ffff881661ffff82161080611b37575b15611b2d5760805189101561070457611b0561ffff91611ae66101c05182168c60081b604c01613060565b905460039190911b1c6001600160a01b0316338103611b0c57506132f4565b9050611aaa565b611b26611b188b612e04565b9a6101c0511660a051612fb5565b528b610c15565b5095509587611a9e565b506101c051608051166101c051881610611abb565b610b37565b5060ff611b5f608051612f30565b1692610abd565b506001610a95565b630d5efa9960e01b5f5260045ffd5b506005830154600160431b1615610a4e565b506005830154600160421b1615610a3d565b506005820154600160411b1615610a2b565b634d0419db60e11b5f5260045ffd5b670de0b6b3a76400003403611bb3575f8080803460018060a01b038254165af13d15611c1d573d611bf281612f0b565b90611c006040519283612d95565b81525f60203d92013e5b610a1d576312171d8360e31b5f5260045ffd5b611c0a565b506005810154600160401b161515610a03565b5f60018301555f600383015560ff80600254161660ff19825416179055826109f6565b622d261b60e31b5f5260045ffd5b9050331415846109de565b611c93915060203d602011611c99575b611c8b8183612d95565b810190612eec565b856109c9565b503d611c81565b63164f80dd60e11b5f5260045ffd5b90503314158461098d565b611cd3915060203d602011611c9957611c8b8183612d95565b85610978565b6313d0ff5960e31b5f5260045ffd5b633ee5aeb560e01b5f5260045ffd5b346101fd5760203660031901126101fd5760043560208110156101fd57600a01546040516001600160a01b039091168152602090f35b346101fd575f3660031901126101fd576003546040516001600160a01b039091168152602090f35b346101fd5760403660031901126101fd57611d6e612c57565b611d76612c82565b63ffffffff82168015908115611e6f575b50611e5f575b815f5b63ffffffff8416151580611e50575b15611dbc57611db0611db691612e04565b93612e22565b92611d90565b60ff16611dc881612e4b565b90611dd281612e7d565b92905f915b60ff831690828210156105d457611e47600191611e4184611dfa60ff968a612ed8565b63ffffffff84168091525f52600860205260405f2063ffffffff60405191611e2183612d5f565b54818116835260201c166020820152611e3a828c612ed8565b5289612ed8565b50612e22565b93011691611dd7565b5060ff831660ff821610611d9f565b60075463ffffffff169150611d8d565b905063ffffffff600754161083611d87565b346101fd5760203660031901126101fd576001600160a01b03611ea2612c41565b165f5260056020526020600960405f200154604051908152f35b346101fd5760203660031901126101fd576001600160a01b03611edd612c41565b165f526009602052602063ffffffff60405f205416604051908152f35b346101fd5760403660031901126101fd57611f13612c41565b6024359060018060a01b036004541633141580611f95575b80611f81575b6102b3576001600160a01b03165f818152600560205260409020600201548211611f72575f526005602052611f6e600260405f2001918254612e15565b9055005b6376208d7360e11b5f5260045ffd5b505f546001600160a01b0316331415611f31565b506002543360109190911c6001600160a01b03161415611f2b565b346101fd575f3660031901126101fd575f546040516001600160a01b039091168152602090f35b346101fd575f3660031901126101fd57611fef613070565b6002805461ff001916610100179055005b346101fd5760203660031901126101fd57612019612c41565b612021613070565b600380546001600160a01b0319166001600160a01b0392909216919091179055005b346101fd5760203660031901126101fd5761205c612c41565b612064613070565b600480546001600160a01b0319166001600160a01b0392909216919091179055005b346101fd5760203660031901126101fd5760043560208110156101fd5760ff6120b0602092612c6a565b90549060031b1c16604051908152f35b346101fd575f3660031901126101fd57602063ffffffff60075416604051908152f35b346101fd575f3660031901126101fd576120fb613070565b5f80546001600160a01b0319811682556001600160a01b03165f5160206136aa5f395f51905f528280a3005b346101fd575f3660031901126101fd57610400806040516121488282612d95565b369037806040516121598282612d95565b3690378060405161216a8282612d95565b36903760405190600a5f835b6020821061240a5750505061218b8183612d95565b604051602a5f825b602082106123f4575050506121a88282612d95565b60405191604a5f82855b6020601f840110612252575090506121cb915084612d95565b604051935f855b602082106122325750505083015f905b6020821061221c5750505061080082015f905b6020821061220357610c0084f35b60208060019260ff8651168152019301910190916121f5565b60208060019285518152019301910190916121e2565b82516001600160a01b0316815260209283019260019290920191016121d2565b602091600191855460ff8116825260ff8160081c168583015260ff8160101c16604083015260ff8160181c16606083015260ff81861c16608083015260ff8160281c1660a083015260ff8160301c1660c083015260ff8160381c1660e083015260ff8160401c1661010083015260ff8160481c1661012083015260ff8160501c1661014083015260ff8160581c1661016083015260ff8160601c1661018083015260ff8160681c166101a083015260ff8160701c166101c083015260ff8160781c166101e083015260ff8160801c1661020083015260ff8160881c1661022083015260ff8160901c1661024083015260ff8160981c1661026083015260ff8160a01c1661028083015260ff8160a81c166102a083015260ff8160b01c166102c083015260ff8160b81c166102e083015260ff8160c01c1661030083015260ff8160c81c1661032083015260ff8160d01c1661034083015260ff8160d81c1661036083015260ff8160e01c1661038083015260ff8160e81c166103a083015260ff8160f01c166103c083015260f81c6103e08201520193019101909183906121b2565b6001602081928554815201930191019091612193565b82546001600160a01b031681526001928301929190910190602001612176565b346101fd575f3660031901126101fd57602060ff60025460081c166040519015158152f35b346101fd5760203660031901126101fd57612468612c41565b60405161247481612d2f565b5f8152602081015f9052604081015f9052606081015f9052608081015f905260a081015f905260c081015f905260e081015f905261010081015f905261012081015f905261014081015f905261016081015f905261018081015f90526101a0015f9052600160a01b60019003165f52600560205260405f206040516124f881612d2f565b80600160801b6001900319835460801b16928382526001810154936020830194855260028201546040840190815260038301549060608501918252600484015460ff1660808601908152600585015460a0870190815260068601545f0b9060c0880191825260078701549260e089019384526008880154956101008a019563ffffffff881687526101208b019760201c63ffffffff16885260098a0154986101408c01998a52600a8b01549a6101608d019b8c52600b8101549c610180019c8d52600c015466ffffffffffffff169c6101a0019c8d526040519d8e9182525190602001525160408d01525160608c01525160ff1660808b01525160a08a0152515f0b60c08901525160e08801525163ffffffff166101008701525163ffffffff166101208601525161014085015251610160840152516101808301525166ffffffffffffff166101a08201526101c090f35b346101fd5760203660031901126101fd57612663612c41565b61266b613070565b6002805462010000600160b01b03191660109290921b62010000600160b01b0316919091179055005b346101fd575f3660031901126101fd576004546001600160a01b031633141580612784575b80612770575b6102b3575f5b602060ff8216106127275760018060b01b0319604b5416604b5560025460ff6127198183167f3bfcc3e41aa03b7575bc15e72aa39826ec3640d8d71058400d3e72cbd34ca7506020604051838152a1612e04565b60ff19909216911617600255005b602081101561070457600a810180546001600160a01b03191690555f602a82015560ff9060019061276961275a82612c6a565b60ff82549160031b1b19169055565b01166126c5565b505f546001600160a01b03163314156126bf565b506002543360109190911c6001600160a01b031614156126b9565b346101fd575f3660031901126101fd576127b7613070565b6002805461ff0019169055005b346101fd575f3660031901126101fd57602061ffff604b5460a01c16604051908152f35b346101fd5760203660031901126101fd5763ffffffff612806612c57565b165f5260086020526040805f205463ffffffff825191818116835260201c166020820152f35b346101fd5760203660031901126101fd576001600160a01b0361284d612c41565b165f5260056020526020600560405f200154604051908152f35b346101fd575f3660031901126101fd576004546040516001600160a01b039091168152602090f35b346101fd5760403660031901126101fd576128a8612c41565b60243590815f0b82036101fd576004546001600160a01b031633141580612910575b806128fc575b6102b35760018060a01b03165f526005602052600660405f20019060ff198254169060ff161790555f80f35b505f546001600160a01b03163314156128d0565b506002543360109190911c6001600160a01b031614156128ca565b346101fd5760403660031901126101fd57612944612c41565b61294c613070565b60018060a01b03165f526005602052600260405f2001611f6e6024358254612dd4565b346101fd575f3660031901126101fd576020604051670de0b6b3a76400008152f35b346101fd5760603660031901126101fd576004356001600160a01b03198116908190036101fd57602435906044356129c7613070565b8115612be657600254604051631d5e528f60e21b8152906020908290600490829060101c6001600160a01b03165afa908115610f54575f91612bb4575b50831015612b7e57600354604051631d5e528f60e21b815290602090829060049082906001600160a01b03165afa908115610f54575f91612b4c575b50811015612b14576040516020810161414960f01b8152836022830152600e8252612a6c602e83612d95565b60018060a01b03915190201691825f52600560205260405f209160078301908154612ade57612adc9560019360801c848060801b0319865416178555600a850155600b8401555560ff600481600254169201911660ff19825416179055612ad4600654612db8565b6006556130bf565b005b60405162461bcd60e51b815260206004820152600e60248201526d416c72656164792065786973747360901b6044820152606490fd5b60405162461bcd60e51b815260206004820152601060248201526f14d8dc9a5c1d081b9bdd08195e1a5cdd60821b6044820152606490fd5b90506020813d602011612b76575b81612b6760209383612d95565b810103126101fd575184612a40565b3d9150612b5a565b60405162461bcd60e51b815260206004820152600e60248201526d12195c9bc81b9bdd08195e1a5cdd60921b6044820152606490fd5b90506020813d602011612bde575b81612bcf60209383612d95565b810103126101fd575184612a04565b3d9150612bc2565b60405162461bcd60e51b815260206004820152600a602482015269456d707479206e616d6560b01b6044820152606490fd5b346101fd5760203660031901126101fd576004359060208210156101fd57602091602a01548152f35b600435906001600160a01b03821682036101fd57565b6004359063ffffffff821682036101fd57565b90602082101561070457601f8260051c604a01921690565b6024359060ff821682036101fd57565b6044359060ff821682036101fd57565b604081016040825282518091526020606083019301905f5b818110612d13575050506020818303910152602080835192838152019201905f5b818110612ce85750505090565b8251805163ffffffff9081168652602091820151168186015260409094019390920191600101612cdb565b825163ffffffff16855260209485019490920191600101612cba565b6101c081019081106001600160401b03821117612d4b57604052565b634e487b7160e01b5f52604160045260245ffd5b604081019081106001600160401b03821117612d4b57604052565b60a081019081106001600160401b03821117612d4b57604052565b601f909101601f19168101906001600160401b03821190821017612d4b57604052565b5f1981146115685760010190565b906032820180921161156857565b9190820180921161156857565b80546001600160a01b0360039390931b83811b199091169290931690921b179055565b60ff1660ff81146115685760010190565b9190820391821161156857565b63ffffffff168015611568575f190190565b6001600160401b038111612d4b5760051b60200190565b90612e5582612e34565b612e626040519182612d95565b8281528092612e73601f1991612e34565b0190602036910137565b90612e8782612e34565b612e946040519182612d95565b8281528092612ea5601f1991612e34565b01905f5b828110612eb557505050565b602090604051612ec481612d5f565b5f81525f8382015282828501015201612ea9565b80518210156107045760209160051b010190565b908160209103126101fd57516001600160a01b03811681036101fd5790565b6001600160401b038111612d4b57601f01601f191660200190565b8115611a7d570490565b60ff5f199116019060ff821161156857565b9060088110156107045760051b0190565b6020818303126101fd578051906001600160401b0382116101fd570181601f820112156101fd57805190612f8682612f0b565b92612f946040519485612d95565b828452602083830101116101fd57815f9260208093018386015e8301015290565b9060078110156107045760051b0190565b60ff60019116019060ff821161156857565b519060ff821682036101fd57565b905f905b60088210612ff757505050565b6020806001928551815201930191019091612fea565b63ffffffff1663ffffffff81146115685760010190565b805463ffffffff60201b191660209290921b63ffffffff60201b16919091179055565b90600782101561070457601f8260051c61074c01921690565b6101008210156107045701905f90565b5f546001600160a01b0316330361308357565b63118cdaa760e01b5f523360045260245ffd5b60031b906107f860f883169216820361156857565b61ffff60019116019061ffff821161156857565b5f9060018060a01b03811690815f526005602052600c60405f20019160ff66ffffffffffffff845416816130f25f613096565b161c1660ff81141591826131d0575b50506131cb578260ff61311382613047565b90549060031b1c16936131b75750610100831015610704578260ff92613143613192935f6131b597604c01612de1565b66ffffffffffffff84806131565f613096565b161b1666ffffffffffffff8254911982161666ffffffffffffff848761317b5f613096565b161b16179066ffffffffffffff19161790556130ab565b1661319c5f613047565b90919060ff8084549260031b9316831b921b1916179055565b565b634e487b7160e01b81526032600452602490fd5b505050565b5f9550915061010081101561070457604c01546001600160a01b0316145f80613101565b9060018060a01b038216805f526005602052600c60405f20019060ff66ffffffffffffff8354168161322586613096565b161c169060ff82141591826132be575b50506131cb5760ff61324683613047565b90549060031b1c16906007831015610704576132b78260ff9261327f6131b59761327961319c978960081b604c01613060565b90612de1565b66ffffffffffffff848061329289613096565b161b1666ffffffffffffff8254911982161666ffffffffffffff848761317b8b613096565b1691613047565b9091506007841015610704576132da908460081b604c01613060565b905460039190911b1c6001600160a01b0316145f80613235565b61ffff1661ffff81146115685760010190565b9063ffffffff8091169116019063ffffffff821161156857565b60ff168015611568575f190190565b81810292915f8212600160ff1b82141661156857818405149015171561156857565b5f199291905f5b60ff811660208110156135d557602082101561070457600a8201546001600160a01b03848116911614613392575060010160ff16613359565b9192939450505b5f81126135ab57601f90819060ff165b8160ff82161061352a575050602081101561070457600a810180546001600160a01b03191690555f602a8201556133e39061275a90612c6a565b5f5b602060ff8216108061350b575b806134f4575b1561340b5761340690612e04565b6133e5565b9091601f5b60ff831660ff82161161345a57506020821015610704576131b59282600a019060018060a01b031660018060a01b031982541617905581602a015561319c60ff6002541691612c6a565b61346381612f30565b602081101561070457600a01546001600160a01b0316602082101561070457600a820180546001600160a01b0319166001600160a01b039092169190911790556134ac81612f30565b906020821015610704576134ef91602a015481602a01556134ea60ff6134d96134d484612f30565b612c6a565b90549060031b1c1661319c83612c6a565b613321565b613410565b506020811015610704578281602a015410156133f8565b50602081101561070457600a8101546001600160a01b031615156133f2565b61353381612fc6565b602081101561070457600a01546001600160a01b0316602082101561070457600a820180546001600160a01b0319166001600160a01b0390921691909117905561357c81612fc6565b60208110156107045760ff91600191602a015481602a01556135a4836134d96134d484612fc6565b01166133a9565b506029546001600160a01b03161515806135c9575b156133e3575050565b506049548211156135c0565b5050909192613399565b60ff168015613643576001811461363d57600281146136375760038114613631576004811461362a57600581146136235760061461361d57602c1990565b601d1990565b50600e1990565b5060041990565b50600590565b50600f90565b50601e90565b50602d90565b60ff1680156136a3576001811461369d57600281146136975760038114613691576004811461368b57600581146136435760061461368657601990565b602390565b50603790565b50604690565b50605590565b50606490565b5060789056fe8be0079c531659141344cd1fd0a4f28419497f9722a3daafe3b4186f6b6457e0a26469706673582212200461938985a3838cd9db117a58cb0c8d57e7f0096624cb2a966f7cb9281bb67364736f6c634300081b003300000000000000000000000072eea00e0b9652db2d8d2eb4b72eadeba76440bd000000000000000000000000429862f1fbd621d15c48f1e16e6301f322e7ccae",
        "nonce": "0x18e",
        "chainId": "0x13882"
      },
      "additionalContracts": [],
      "isFixedGasLimit": false
    },
    {
      "hash": "0x35e0089a378d9f1850ec227a7bf08d7f6442af37f617c513f308f400d7e959f7",
      "transactionType": "CREATE",
      "contractName": "ClawUtility",
      "contractAddress": "0xd2825bbcd0b0bb734006e3040572ee625ce12c43",
      "function": null,
      "arguments": [
        "0xdA5b47f758f19bB02CC9Bd8AaC3Dc0b9e7E7fFC7"
      ],
      "transaction": {
        "from": "0x8de56f797ff4aa43224ac277f04d595a30f782d6",
        "gas": "0x162841",
        "value": "0x0",
        "input": "0x60803460cd57601f61133738819003918201601f19168301916001600160401b0383118484101760d15780849260209460405283398101031260cd57516001600160a01b0381169081900360cd57331560ba575f8054336001600160a01b0319821681178355604051939290916001600160a01b0316907f8be0079c531659141344cd1fd0a4f28419497f9722a3daafe3b4186f6b6457e09080a3600180546001600160a01b03191691909117905561125190816100e68239f35b631e4fbdf760e01b5f525f60045260245ffd5b5f80fd5b634e487b7160e01b5f52604160045260245ffdfe6080806040526004361015610012575f80fd5b5f905f3560e01c90816304c5d43014610b1d575080633dcdb672146107c05780634fd00c4314610797578063668c5c1a14610751578063715018a61461070a5780638da5cb5b146106e3578063a10f956d146106b7578063a65d7a5a14610568578063ac3edc8614610444578063ecb4da5a14610281578063efaca1931461011d5763f2fde38b146100a2575f80fd5b3461011a57602036600319011261011a576004356001600160a01b03811690819003610118576100d06111d5565b80156101045781546001600160a01b03198116821783556001600160a01b03165f5160206111fc5f395f51905f528380a380f35b631e4fbdf760e01b82526004829052602482fd5b505b80fd5b503461011a57602036600319011261011a578060043580820b8082036102365782126101a957506001546001600160a01b0316803b156101a657818091604460405180948193632752398d60e01b83523360048401528160248401525af1801561019b5761018a57505080f35b8161019491610ec7565b61011a5780f35b6040513d84823e3d90fd5b50fd5b6001546040516306996d1960e31b81523360048201526001600160a01b0390911690602081602481855afa90811561027657849161023a575b506101f690600160ff85161b161515611040565b803b1561023657604051632752398d60e01b81529183918391829084908290610223903360048401611078565b03925af1801561019b5761018a57505080f35b5050fd5b9350506020833d60201161026e575b8161025660209383610ec7565b8101031261026a576101f6849351906101e2565b5f80fd5b3d9150610249565b6040513d86823e3d90fd5b503461011a57602036600319011261011a5761029b610eb7565b6102a481611144565b908115610410576001546040516306996d1960e31b81523360048201526001600160a01b0390911690602081602481855afa9081156104055785916103d3575b50600160ff84161b1661039e578392813b15610399578391604483926040519485938492634bc6a73f60e11b845233600485015260248401525af190811561038e578391610379575b50506001546001600160a01b0316803b156102365760405163be5957d760e01b815291839183918290849082906103689033600484016110f4565b03925af1801561019b5761018a5750f35b8161038391610ec7565b6101a657815f61032d565b6040513d85823e3d90fd5b505050fd5b60405162461bcd60e51b815260206004820152600d60248201526c105b1c9958591e481bdddb9959609a1b6044820152606490fd5b90506020813d6020116103fd575b816103ee60209383610ec7565b8101031261026a57515f6102e4565b3d91506103e1565b6040513d87823e3d90fd5b60405162461bcd60e51b815260206004820152600c60248201526b496e76616c6964206974656d60a01b6044820152606490fd5b503461011a57602036600319011261011a578061045f610eb7565b60ff81166104ae57506001546001600160a01b0316803b156101a657818091604460405180948193633d0e04d960e21b83523360048401528160248401525af1801561019b5761018a57505080f35b600154604051639ce67bdd60e01b81523360048201526001600160a01b0390911690602081602481855afa908115610276578491610530575b5061050390600160ff6104f986611095565b161b1615156110bb565b803b1561023657604051633d0e04d960e21b815291839183918290849082906102239033600484016110f4565b9350506020833d602011610560575b8161054c60209383610ec7565b8101031261026a57610503849351906104e7565b3d915061053f565b50602036600319011261011a5761057d610ea0565b6001600160801b0319811615610685576001546040516370c69c6760e11b8152336004820152839291602090829060249082906001600160a01b03165afa90811561038e578391610656575b506001600160801b03191615610647576105ec678ac7230489e800003414610f5f565b61060e828080803460018060a01b038254165af1610608610fa0565b50610fde565b6001546001600160a01b0316803b156102365760405163c5886fbd60e01b8152918391839182908490829061036890336004840161101c565b6106513415610f1e565b61060e565b610678915060203d60201161067e575b6106708183610ec7565b810190610efe565b5f6105c9565b503d610666565b60405162461bcd60e51b815260206004820152600a602482015269456d707479206e616d6560b01b6044820152606490fd5b503461011a57602036600319011261011a5760206106db6106d6610eb7565b611144565b604051908152f35b503461011a578060031936011261011a57546040516001600160a01b039091168152602090f35b503461011a578060031936011261011a576107236111d5565b80546001600160a01b03198116825581906001600160a01b03165f5160206111fc5f395f51905f528280a380f35b503461011a57602036600319011261011a576004356001600160a01b03811690819003610118576107806111d5565b600180546001600160a01b03191691909117905580f35b503461011a578060031936011261011a576001546040516001600160a01b039091168152602090f35b503461011a578060031936011261011a576107d96111d5565b6001546040516336bb1d3760e11b815291906001600160a01b0316610c0083600481845afa92831561019b5782936109f7575b5060206004916040519283809263bcb3962160e01b82525afa801561019b5782906109bc575b61083c9150611095565b60021b6103fc60fc8216911681036109a8576001019160ff83116109a85760ff829316925b60ff8116602081101561099e576001600160a01b03610880828561111f565b51161561095e57806109365783905b6001546001600160a01b039081169160ff91906108ac908761111f565b5116921686019160ff831161092257813b1561091e579185916108e6938360405180968195829463be5957d760e01b8452600484016110f4565b03925af1801561027657908491610905575b505060010160ff16610861565b8161090f91610ec7565b61091a57825f6108f8565b8280fd5b8580fd5b634e487b7160e01b86526011600452602486fd5b600181036109465760019061088f565b600281036109565760029061088f565b60039061088f565b50505090505b60015481906001600160a01b0316803b156101a6578180916004604051809481936312cd346d60e21b83525af1801561019b5761018a5750f35b5050509050610964565b634e487b7160e01b82526011600452602482fd5b506020813d6020116109ef575b816109d660209383610ec7565b81010312610118576109ea61083c91611111565b610832565b3d91506109c9565b909250610c003d8111610b16575b610a0f8183610ec7565b8101610c008282031261091a5780601f8301121561091a5760405191610400610a388185610ec7565b8181019084848311610b125783905b838210610aee5750508361041f8401121561091e57604051610a698282610ec7565b610800840192858411610aea57905b838210610ada5750508361081f8401121561091e57610c0090610a9e6040519182610ec7565b9201928311610ad657905b828210610abe5750919391506020905061080c565b60208091610acb84611111565b815201910190610aa9565b8480fd5b8151815260209182019101610a78565b8780fd5b81516001600160a01b0381168103610b0e57815260209182019101610a47565b8880fd5b8680fd5b503d610a05565b82606036600319011261026a57610b32610ea0565b60243592835f0b80850361026a576044359260ff84169283850361026a576001600160801b031982169081610d80575b505050938385818097125f14610c8a5750506001546001600160a01b03169050803b1561039957838091604460405180948193632752398d60e01b83523360048401528160248401525af1908115610276578491610c75575b50505b610bc55750f35b600154604051639ce67bdd60e01b81523360048201526001600160a01b0390911690602081602481855afa908115610276578491610c3d575b50610c1090600160ff6104f986611095565b803b1561023657604051633d0e04d960e21b815291839183918290849082906103689033600484016110f4565b9350506020833d602011610c6d575b81610c5960209383610ec7565b8101031261026a57610c1084935190610bfe565b3d9150610c4c565b81610c7f91610ec7565b610236578285610bbb565b13610c96575b50610bbe565b6001546040516306996d1960e31b81523360048201526001600160a01b0390911690602081602481855afa908115610d75578691610d3d575b50610ce390600160ff85161b161515611040565b803b15610ad657604051632752398d60e01b81529185918391829084908290610d10903360048401611078565b03925af1908115610276578491610d28575b50610c90565b81610d3291610ec7565b610236578285610d22565b9550506020853d602011610d6d575b81610d5960209383610ec7565b8101031261026a57610ce386955190610ccf565b3d9150610d4c565b6040513d88823e3d90fd5b6001546370c69c6760e11b8252336004830152602090829060249082906001600160a01b03165afa908115610e67575f91610e81575b506001600160801b03191690819003610dd0575b80610b62565b15610e7257610de8678ac7230489e800003414610f5f565b610e045f8080803460018060a01b038254165af1610608610fa0565b6001546001600160a01b0316803b1561026a5760405163c5886fbd60e01b8152915f918391829084908290610e3d90336004840161101c565b03925af18015610e6757610e52575b80610dca565b610e5f9194505f90610ec7565b5f9285610e4c565b6040513d5f823e3d90fd5b610e7c3415610f1e565b610e04565b610e9a915060203d60201161067e576106708183610ec7565b88610db6565b600435906001600160801b03198216820361026a57565b6004359060ff8216820361026a57565b601f909101601f19168101906001600160401b03821190821017610eea57604052565b634e487b7160e01b5f52604160045260245ffd5b9081602091031261026a57516001600160801b03198116810361026a5790565b15610f2557565b60405162461bcd60e51b81526020600482015260126024820152714669727374206e616d65206973206672656560701b6044820152606490fd5b15610f6657565b60405162461bcd60e51b8152602060048201526012602482015271115e1858dd08199959481c995c5d5a5c995960721b6044820152606490fd5b3d15610fd9573d906001600160401b038211610eea5760405191610fce601f8201601f191660200184610ec7565b82523d5f602084013e565b606090565b15610fe557565b60405162461bcd60e51b815260206004820152600f60248201526e151c985b9cd9995c8819985a5b1959608a1b6044820152606490fd5b6001600160a01b0390911681526001600160801b0319909116602082015260400190565b1561104757565b60405162461bcd60e51b8152602060048201526009602482015268139bdd081bdddb995960ba1b6044820152606490fd5b6001600160a01b0390911681525f9190910b602082015260400190565b60ff5f199116019060ff82116110a757565b634e487b7160e01b5f52601160045260245ffd5b156110c257565b60405162461bcd60e51b815260206004820152600a602482015269139bdd0819585c9b995960b21b6044820152606490fd5b6001600160a01b03909116815260ff909116602082015260400190565b519060ff8216820361026a57565b9060208110156111305760051b0190565b634e487b7160e01b5f52603260045260245ffd5b60ff16604081146111ce57604181146111c757604281146111c057604381146111ba576021811015806111af575b61117b57505f90565b6020190160ff81116110a75760ff1661012c81029080820461012c14901517156110a7576101f401806101f4116110a75790565b50602a811115611172565b50603290565b506103e890565b5061032090565b506107d090565b5f546001600160a01b031633036111e857565b63118cdaa760e01b5f523360045260245ffdfe8be0079c531659141344cd1fd0a4f28419497f9722a3daafe3b4186f6b6457e0a26469706673582212203933afb62670a5dc98f6e2c553ff00a33a54a9ee5c07560db11531b65b394a7564736f6c634300081b0033000000000000000000000000da5b47f758f19bb02cc9bd8aac3dc0b9e7e7ffc7",
        "nonce": "0x18f",
        "chainId": "0x13882"
      },
      "additionalContracts": [],
      "isFixedGasLimit": false
    },
    {
      "hash": "0x688bca7ee391e6a409bea85ddf96fbcbac31c10deecc4115e3894c0afe382de2",
      "transactionType": "CALL",
      "contractName": "LobsterHub",
      "contractAddress": "0x72eea00e0b9652db2d8d2eb4b72eadeba76440bd",
      "function": "setClawArena(address)",
      "arguments": [
        "0xdA5b47f758f19bB02CC9Bd8AaC3Dc0b9e7E7fFC7"
      ],
      "transaction": {
        "from": "0x8de56f797ff4aa43224ac277f04d595a30f782d6",
        "to": "0x72eea00e0b9652db2d8d2eb4b72eadeba76440bd",
        "gas": "0xf958",
        "value": "0x0",
        "input": "0x668c5c1a000000000000000000000000da5b47f758f19bb02cc9bd8aac3dc0b9e7e7ffc7",
        "nonce": "0x190",
        "chainId": "0x13882"
      },
      "additionalContracts": [],
      "isFixedGasLimit": false
    },
    {
      "hash": "0x722e10aa6229a71b7c6fa0d883bd449eac53fb930f96d0e6db6fb315d90f28de",
      "transactionType": "CALL",
      "contractName": "ClawArena",
      "contractAddress": "0xda5b47f758f19bb02cc9bd8aac3dc0b9e7e7ffc7",
      "function": "setClawUtility(address)",
      "arguments": [
        "0xD2825bBCd0B0bb734006E3040572eE625ce12C43"
      ],
      "transaction": {
        "from": "0x8de56f797ff4aa43224ac277f04d595a30f782d6",
        "to": "0xda5b47f758f19bb02cc9bd8aac3dc0b9e7e7ffc7",
        "gas": "0x108dc",
        "value": "0x0",
        "input": "0x809d3820000000000000000000000000d2825bbcd0b0bb734006e3040572ee625ce12c43",
        "nonce": "0x191",
        "chainId": "0x13882"
      },
      "additionalContracts": [],
      "isFixedGasLimit": false
    },
    {
      "hash": "0x8e22522d515823528fc0159284b945a40d87d1843a7a1e14c9b7079771763302",
      "transactionType": "CALL",
      "contractName": "LobsterHub",
      "contractAddress": "0x72eea00e0b9652db2d8d2eb4b72eadeba76440bd",
      "function": "initDefaultHeroes(uint256[],uint256[],bytes12[])",
      "arguments": [
        "[144116300489294862, 72059810241118741, 144396675987932427, 288247985534534922, 288300757814478090, 216735744968950545, 217298694955992585, 216313536799048202, 288234787100164872, 288239189424800523, 146367000808063506, 292733988697670667]",
        "[198655067491466862436933318370387072980229314047, 212806209585870565245141964569255050443598643761548, 51239213124321301690891424087437130525607514606160, 29232268061825575082690118148935538943481140352220, 117148512899075367595778726141703016068363242083860, 14901143713571181182906251417983235912381468538965, 43903492803940533730290700227684317641039429645040, 87804411820402843492520159358781220395876720332830, 366721504605047302163009909866317639705484522342540, 102334460149542141921176169777849296495897257582170, 44275458780277762311351929157020828228758686627995, 73992987583100774503691456724739438605841582045670]",
        "[0x49726f6e20436c6177000000, 0x526f636b204c6f6273000000, 0x47686f737420536872000000, 0x426c6f6f6420436c61000000, 0x457865637574720000000000, 0x54686f726e20536872000000, 0x43726974204c6f6273000000, 0x426c756520466c616d000000, 0x417263746963205368000000, 0x56656e742053687200000000, 0x4865726d6974205368000000, 0x4c75636b7920536872000000]"
      ],
      "transaction": {
        "from": "0x8de56f797ff4aa43224ac277f04d595a30f782d6",
        "to": "0x72eea00e0b9652db2d8d2eb4b72eadeba76440bd",
        "gas": "0x1ad757",
        "value": "0x0",
        "input": "0xb82e56310000000000000000000000000000000000000000000000000000000000000060000000000000000000000000000000000000000000000000000000000000020000000000000000000000000000000000000000000000000000000000000003a0000000000000000000000000000000000000000000000000000000000000000c000000000000000000000000000000000000000000000000020001030102040e0000000000000000000000000000000000000000000000000100020400010215000000000000000000000000000000000000000000000000020100030302050b000000000000000000000000000000000000000000000000040010040102050a000000000000000000000000000000000000000000000000040040030202050a00000000000000000000000000000000000000000000000003020003010103110000000000000000000000000000000000000000000000000304000303020609000000000000000000000000000000000000000000000000030080040104020a0000000000000000000000000000000000000000000000000400040301040308000000000000000000000000000000000000000000000000040008040003030b0000000000000000000000000000000000000000000000000208000302010212000000000000000000000000000000000000000000000000041000030202040b000000000000000000000000000000000000000000000000000000000000000c00000000000000000000000022cc0055ff0055fffff30000aaff0033ff0055ff0000000000000000000000919ba0785a3c878078b4ff005f55507d6e6496918c0000000000000000000000230f2dc8008c1900323214ff0f001e1e053c140a5000000000000000000000001400643c28ff320fc8003cff19008c280ab41e14dc0000000000000000000000502800ffc83cc8781effff00823c00be640ae6961400000000000000000000000a321e64c83c23694b3cffb40f4632328c6e28785500000000000000000000001e0a3cb496ff6428d23cf0ff3c14aa461edc5a32f000000000000000000000003c1405ff8c64a04619ffdcc864280a963c14b4501e0000000000000000000000faebc8ffe6b4dcbe82fff5dcbe965af0dcaae6c88c0000000000000000000000460523e63c96961950ff78dc640a32c83278aa1e5a00000000000000000000001e4b643c96b432698c50d2e623506e418caf37789b000000000000000000000032a0c850dcff1ec3ebb4faff0a96be28d2fa14b9e6000000000000000000000000000000000000000000000000000000000000000c49726f6e20436c61770000000000000000000000000000000000000000000000526f636b204c6f6273000000000000000000000000000000000000000000000047686f7374205368720000000000000000000000000000000000000000000000426c6f6f6420436c610000000000000000000000000000000000000000000000457865637574720000000000000000000000000000000000000000000000000054686f726e20536872000000000000000000000000000000000000000000000043726974204c6f62730000000000000000000000000000000000000000000000426c756520466c616d0000000000000000000000000000000000000000000000417263746963205368000000000000000000000000000000000000000000000056656e74205368720000000000000000000000000000000000000000000000004865726d697420536800000000000000000000000000000000000000000000004c75636b79205368720000000000000000000000000000000000000000000000",
        "nonce": "0x192",
        "chainId": "0x13882"
      },
      "additionalContracts": [],
      "isFixedGasLimit": false
    },
    {
      "hash": "0xfbf290fc386fa715093f87c0e7474c4fbe92896981acdc84f9871894caaca986",
      "transactionType": "CALL",
      "contractName": "ScriptHub",
      "contractAddress": "0x429862f1fbd621d15c48f1e16e6301f322e7ccae",
      "function": "initDefaultScripts(bytes[])",
      "arguments": [
        "[0x0307000000ff00000012000000ff00000000000000ff00000009000800000006ff00000001000000000000000000000000000000000000000000000000000000000000000000030600000f00000006ff00000001001700000001ff00000000040700000003000400000000000000000000000000000400040c0700000006000400000000000000000000000000000000000000000000000000000000000000000000000002000c000b00000004ff00000002000000000000000000000000000000000000000000000000000000000000000000010002031200000006ff000000010307000000060004000000000000000000000000000000000000000000000000000200030207000000060004000000000000000000000000000000000000000000000000000000000000000000000000020002001300000006ff00000002001700000001ff00000000001900000004ff000000010000000000000000000000040102020700000006ff000000050000000000000000000000000000000000000000000000000000000000000000000300020000000000000000000000000000000000000000000000000000000000000000000000000000000000000000030600, 0x0207000000ff00000012000000ff00000009000800000006ff00000001000000000000000000000000000000000000000000000000000000000000000000030600000200000006ff00000019001900000004ff0000000100000000000000000000000000000000000000000000030102010000000005ff0000000a0000000000000000000000000000000000000000000000000000000000000000000100020c0700000006000400000000000000000000000000000000000000000000000000000000000000000000000002000c031200000006ff00000001030700000006000400000000000000000000000000000000000000000000000000020003001900000004ff000000020000000000000000000000000000000000000000000000000000000000000000000100020207000000060004000000000000000000000000000000000000000000000000000000000000000000000000020002020700000006ff000000030000000000000000000000000000000000000000000000000000000000000000000300020000000000000000000000000000000000000000000000000000000000000000000000000000000000000000030600, 0x0307000000ff00000012001206ff00000112001206ff0000020a000800000006ff00000001000000000000000000000000000000000000000000000000000000000000000000030600001300000006ff00000002001700000001ff00000000001900000004ff000000010000000000000000000000040102000200000006ff00000028001900000004ff000000010000000000000000000000000000000000000000000003010203070000000600040000000000000000000000000000000000000000000000000000000000000000000000000200030407000000060004000000000000000000000000000000000000000000000000000000000000000000000000020004001700000001ff00000000030700000006ff00000005000000000000000000000000000000000000000000000400030207000000060004000000000000000000000000000000000000000000000000000000000000000000000000020002001900000004ff00000002000000000000000000000000000000000000000000000000000000000000000000030102040700000006ff000000040000000000000000000000000000000000000000000000000000000000000000000300040000000000000000000000000000000000000000000000000000000000000000000000000000000000000000030600, 0x0307000000ff00000012000000ff00000002000000ff0000000a000800000006ff00000001000000000000000000000000000000000000000000000000000000000000000000030600001300000006ff00000001001700000001ff0000000002070000000300040000000000000000000000000000040102000f00000006ff00000001040700000006000400000000000000000000000000000000000000000000000000020004031200000006ff000000010307000000060004000000000000000000000000000000000000000000000000000200030c0700000006000400000000000000000000000000000000000000000000000000000000000000000000000002000c0207000000060004000000000000000000000000000000000000000000000000000000000000000000000000020002001700000001ff00000000030700000006ff0000000500000000000000000000000000000000000000000000040003030700000006ff00000005000000000000000000000000000000000000000000000000000000000000000000030003020700000006ff000000050000000000000000000000000000000000000000000000000000000000000000000300020000000000000000000000000000000000000000000000000000000000000000000000000000000000000000030600, 0x0307000000ff00000012001206ff00000102000000ff00000009000800000006ff00000001000000000000000000000000000000000000000000000000000000000000000000030600001300000006ff00000002001700000001ff00000000001900000004ff000000010000000000000000000000040102001700000001ff00000000040200000006ff00000028040700000003000400000000000000000000000000000400040307000000060004000000000000000000000000000000000000000000000000000000000000000000000000020003040200000006ff000000320407000000060004000000000000000000000000000000000000000000000000000200040207000000060004000000000000000000000000000000000000000000000000000000000000000000000000020002001700000001ff00000000030700000006ff0000000500000000000000000000000000000000000000000000040003040700000006ff000000060000000000000000000000000000000000000000000000000000000000000000000300040000000000000000000000000000000000000000000000000000000000000000000000000000000000000000030600, 0x0207000000ff00000012000000ff00000009000800000006ff00000001000000000000000000000000000000000000000000000000000000000000000000030600000200000006ff00000014000000000000000000000000000000000000000000000000000000000000000000010002031200000006ff000000010307000000060004000000000000000000000000000000000000000000000000000200030c0700000006000400000000000000000000000000000000000000000000000000000000000000000000000002000c0207000000060004000000000000000000000000000000000000000000000000000000000000000000000000020002001700000001ff00000000020700000006ff0000000400000000000000000000000000000000000000000000040002020700000006ff00000005000000000000000000000000000000000000000000000000000000000000000000030002030700000006ff000000060000000000000000000000000000000000000000000000000000000000000000000300030000000000000000000000000000000000000000000000000000000000000000000000000000000000000000030600, 0x0307000000ff00000010010000ff00000012000000ff00000009000800000006ff00000001000000000000000000000000000000000000000000000000000000000000000000030600001300000006ff00000002001700000001ff00000000001900000004ff000000010000000000000000000000040102000f00000006ff00000001001700000001ff0000000003070000000300040000000000000000000000000000040003041200000006ff00000001040700000006000400000000000000000000000000000000000000000000000000020004000f00000006ff000000010307000000060004000000000000000000000000000000000000000000000000000200030207000000060004000000000000000000000000000000000000000000000000000000000000000000000000020002001700000001ff00000000030700000006ff0000000500000000000000000000000000000000000000000000040003030700000006ff000000060000000000000000000000000000000000000000000000000000000000000000000300030000000000000000000000000000000000000000000000000000000000000000000000000000000000000000030600, 0x0307000000ff00000012000000ff00000010010000ff00000009000800000006ff00000001000000000000000000000000000000000000000000000000000000000000000000030600020700000006ff00000001001700000001ff0000000000000000000000000000000000000000000000000000040102020700000006ff00000002000000000000000000000000000000000000000000000000000000000000000000030102031200000006ff00000001030700000006000400000000000000000000000000000000000000000000000000020003000f00000006ff000000010407000000060004000000000000000000000000000000000000000000000000000200040207000000060004000000000000000000000000000000000000000000000000000000000000000000000000020002000b00000004ff00000002000000000000000000000000000000000000000000000000000000000000000000010002030700000006ff000000070000000000000000000000000000000000000000000000000000000000000000000300030000000000000000000000000000000000000000000000000000000000000000000000000000000000000000030600, 0x0307000000ff00000003010000ff00000012001206ff00000109000800000006ff00000001000000000000000000000000000000000000000000000000000000000000000000030600010000000006ff00000000001700000001ff0000000000000000000000000000000000000000000000000000040600020700000006ff00000001001700000001ff0000000000000000000000000000000000000000000000000000040102020700000006ff000000020000000000000000000000000000000000000000000000000000000000000000000301020407000000060004000000000000000000000000000000000000000000000000000000000000000000000000020004000f00000006ff000000010307000000060004000000000000000000000000000000000000000000000000000200030207000000060004000000000000000000000000000000000000000000000000000000000000000000000000020002020700000006ff000000070000000000000000000000000000000000000000000000000000000000000000000300020000000000000000000000000000000000000000000000000000000000000000000000000000000000000000030600, 0x0307000000ff0000001a010000ff00000014010000ff00000009000800000006ff00000001000000000000000000000000000000000000000000000000000000000000000000030600001300000006ff00000002001700000001ff00000000001900000004ff000000010000000000000000000000040102000f00000006ff00000001030700000006000400000000000000000000000000000000000000000000000000020003021200000006ff000000010207000000060004000000000000000000000000000000000000000000000000000200020407000000060004000000000000000000000000000000000000000000000000000000000000000000000000020004000b00000004ff000000020000000000000000000000000000000000000000000000000000000000000000000100020207000000060004000000000000000000000000000000000000000000000000000000000000000000000000020002020700000006ff000000060000000000000000000000000000000000000000000000000000000000000000000300020000000000000000000000000000000000000000000000000000000000000000000000000000000000000000030600, 0x0207000000ff00000012000000ff0000000a000800000006ff00000001000000000000000000000000000000000000000000000000000000000000000000030600001300000006ff00000002001700000001ff00000000001900000004ff000000010000000000000000000000040102010000000005ff0000000a020700000006ff00000002001700000001ff000000000000000000000000000000040102010000000005ff0000000a000000000000000000000000000000000000000000000000000000000000000000010002001900000004ff00000002000000000000000000000000000000000000000000000000000000000000000000030102031200000006ff00000001030700000006000400000000000000000000000000000000000000000000000000020003001900000006ff00000001020700000006000400000000000000000000000000000000000000000000000000020002001900000004ff00000001000000000000000000000000000000000000000000000000000000000000000000010002030700000006ff000000040000000000000000000000000000000000000000000000000000000000000000000300030000000000000000000000000000000000000000000000000000000000000000000000000000000000000000030600, 0x0307000000ff00000012001206ff00000110010000ff00000009000800000006ff00000001000000000000000000000000000000000000000000000000000000000000000000030600010000000005ff00000005001700000001ff00000000030700000006ff0000000700000000000000000000000400030307000000060004000000000000000000000000000000000000000000000000000000000000000000000000020003000f00000006ff00000001040700000006000400000000000000000000000000000000000000000000000000020004001700000001ff000000000307000000030004000000030700000006ff0000000500000000000000000000000400030207000000060004000000000000000000000000000000000000000000000000000000000000000000000000020002001700000001ff00000000020700000003ff0000000300000000000000000000000000000000000000000000040002020700000006ff000000060000000000000000000000000000000000000000000000000000000000000000000300020000000000000000000000000000000000000000000000000000000000000000000000000000000000000000030600]"
      ],
      "transaction": {
        "from": "0x8de56f797ff4aa43224ac277f04d595a30f782d6",
        "to": "0x429862f1fbd621d15c48f1e16e6301f322e7ccae",
        "gas": "0x5bdc4a",
        "value": "0x0",
        "input": "0xcfa202310000000000000000000000000000000000000000000000000000000000000020000000000000000000000000000000000000000000000000000000000000000c000000000000000000000000000000000000000000000000000000000000018000000000000000000000000000000000000000000000000000000000000003800000000000000000000000000000000000000000000000000000000000000560000000000000000000000000000000000000000000000000000000000000078000000000000000000000000000000000000000000000000000000000000009a00000000000000000000000000000000000000000000000000000000000000ba00000000000000000000000000000000000000000000000000000000000000d800000000000000000000000000000000000000000000000000000000000000f8000000000000000000000000000000000000000000000000000000000000011800000000000000000000000000000000000000000000000000000000000001380000000000000000000000000000000000000000000000000000000000000158000000000000000000000000000000000000000000000000000000000000017a000000000000000000000000000000000000000000000000000000000000001c10307000000ff00000012000000ff00000000000000ff00000009000800000006ff00000001000000000000000000000000000000000000000000000000000000000000000000030600000f00000006ff00000001001700000001ff00000000040700000003000400000000000000000000000000000400040c0700000006000400000000000000000000000000000000000000000000000000000000000000000000000002000c000b00000004ff00000002000000000000000000000000000000000000000000000000000000000000000000010002031200000006ff000000010307000000060004000000000000000000000000000000000000000000000000000200030207000000060004000000000000000000000000000000000000000000000000000000000000000000000000020002001300000006ff00000002001700000001ff00000000001900000004ff000000010000000000000000000000040102020700000006ff0000000500000000000000000000000000000000000000000000000000000000000000000003000200000000000000000000000000000000000000000000000000000000000000000000000000000000000000000306000000000000000000000000000000000000000000000000000000000000000000000000000000000000000000000000000000000000000000000000000001b90207000000ff00000012000000ff00000009000800000006ff00000001000000000000000000000000000000000000000000000000000000000000000000030600000200000006ff00000019001900000004ff0000000100000000000000000000000000000000000000000000030102010000000005ff0000000a0000000000000000000000000000000000000000000000000000000000000000000100020c0700000006000400000000000000000000000000000000000000000000000000000000000000000000000002000c031200000006ff00000001030700000006000400000000000000000000000000000000000000000000000000020003001900000004ff000000020000000000000000000000000000000000000000000000000000000000000000000100020207000000060004000000000000000000000000000000000000000000000000000000000000000000000000020002020700000006ff0000000300000000000000000000000000000000000000000000000000000000000000000003000200000000000000000000000000000000000000000000000000000000000000000000000000000000000000000306000000000000000000000000000000000000000000000000000000000000000000000000000001f00307000000ff00000012001206ff00000112001206ff0000020a000800000006ff00000001000000000000000000000000000000000000000000000000000000000000000000030600001300000006ff00000002001700000001ff00000000001900000004ff000000010000000000000000000000040102000200000006ff00000028001900000004ff000000010000000000000000000000000000000000000000000003010203070000000600040000000000000000000000000000000000000000000000000000000000000000000000000200030407000000060004000000000000000000000000000000000000000000000000000000000000000000000000020004001700000001ff00000000030700000006ff00000005000000000000000000000000000000000000000000000400030207000000060004000000000000000000000000000000000000000000000000000000000000000000000000020002001900000004ff00000002000000000000000000000000000000000000000000000000000000000000000000030102040700000006ff0000000400000000000000000000000000000000000000000000000000000000000000000003000400000000000000000000000000000000000000000000000000000000000000000000000000000000000000000306000000000000000000000000000000000000000000000000000000000000000000000000000000000000000000000001f00307000000ff00000012000000ff00000002000000ff0000000a000800000006ff00000001000000000000000000000000000000000000000000000000000000000000000000030600001300000006ff00000001001700000001ff0000000002070000000300040000000000000000000000000000040102000f00000006ff00000001040700000006000400000000000000000000000000000000000000000000000000020004031200000006ff000000010307000000060004000000000000000000000000000000000000000000000000000200030c0700000006000400000000000000000000000000000000000000000000000000000000000000000000000002000c0207000000060004000000000000000000000000000000000000000000000000000000000000000000000000020002001700000001ff00000000030700000006ff0000000500000000000000000000000000000000000000000000040003030700000006ff00000005000000000000000000000000000000000000000000000000000000000000000000030003020700000006ff0000000500000000000000000000000000000000000000000000000000000000000000000003000200000000000000000000000000000000000000000000000000000000000000000000000000000000000000000306000000000000000000000000000000000000000000000000000000000000000000000000000000000000000000000001c10307000000ff00000012001206ff00000102000000ff00000009000800000006ff00000001000000000000000000000000000000000000000000000000000000000000000000030600001300000006ff00000002001700000001ff00000000001900000004ff000000010000000000000000000000040102001700000001ff00000000040200000006ff00000028040700000003000400000000000000000000000000000400040307000000060004000000000000000000000000000000000000000000000000000000000000000000000000020003040200000006ff000000320407000000060004000000000000000000000000000000000000000000000000000200040207000000060004000000000000000000000000000000000000000000000000000000000000000000000000020002001700000001ff00000000030700000006ff0000000500000000000000000000000000000000000000000000040003040700000006ff0000000600000000000000000000000000000000000000000000000000000000000000000003000400000000000000000000000000000000000000000000000000000000000000000000000000000000000000000306000000000000000000000000000000000000000000000000000000000000000000000000000000000000000000000000000000000000000000000000000001b90207000000ff00000012000000ff00000009000800000006ff00000001000000000000000000000000000000000000000000000000000000000000000000030600000200000006ff00000014000000000000000000000000000000000000000000000000000000000000000000010002031200000006ff000000010307000000060004000000000000000000000000000000000000000000000000000200030c0700000006000400000000000000000000000000000000000000000000000000000000000000000000000002000c0207000000060004000000000000000000000000000000000000000000000000000000000000000000000000020002001700000001ff00000000020700000006ff0000000400000000000000000000000000000000000000000000040002020700000006ff00000005000000000000000000000000000000000000000000000000000000000000000000030002030700000006ff0000000600000000000000000000000000000000000000000000000000000000000000000003000300000000000000000000000000000000000000000000000000000000000000000000000000000000000000000306000000000000000000000000000000000000000000000000000000000000000000000000000001c10307000000ff00000010010000ff00000012000000ff00000009000800000006ff00000001000000000000000000000000000000000000000000000000000000000000000000030600001300000006ff00000002001700000001ff00000000001900000004ff000000010000000000000000000000040102000f00000006ff00000001001700000001ff0000000003070000000300040000000000000000000000000000040003041200000006ff00000001040700000006000400000000000000000000000000000000000000000000000000020004000f00000006ff000000010307000000060004000000000000000000000000000000000000000000000000000200030207000000060004000000000000000000000000000000000000000000000000000000000000000000000000020002001700000001ff00000000030700000006ff0000000500000000000000000000000000000000000000000000040003030700000006ff0000000600000000000000000000000000000000000000000000000000000000000000000003000300000000000000000000000000000000000000000000000000000000000000000000000000000000000000000306000000000000000000000000000000000000000000000000000000000000000000000000000000000000000000000000000000000000000000000000000001c10307000000ff00000012000000ff00000010010000ff00000009000800000006ff00000001000000000000000000000000000000000000000000000000000000000000000000030600020700000006ff00000001001700000001ff0000000000000000000000000000000000000000000000000000040102020700000006ff00000002000000000000000000000000000000000000000000000000000000000000000000030102031200000006ff00000001030700000006000400000000000000000000000000000000000000000000000000020003000f00000006ff000000010407000000060004000000000000000000000000000000000000000000000000000200040207000000060004000000000000000000000000000000000000000000000000000000000000000000000000020002000b00000004ff00000002000000000000000000000000000000000000000000000000000000000000000000010002030700000006ff0000000700000000000000000000000000000000000000000000000000000000000000000003000300000000000000000000000000000000000000000000000000000000000000000000000000000000000000000306000000000000000000000000000000000000000000000000000000000000000000000000000000000000000000000000000000000000000000000000000001c10307000000ff00000003010000ff00000012001206ff00000109000800000006ff00000001000000000000000000000000000000000000000000000000000000000000000000030600010000000006ff00000000001700000001ff0000000000000000000000000000000000000000000000000000040600020700000006ff00000001001700000001ff0000000000000000000000000000000000000000000000000000040102020700000006ff000000020000000000000000000000000000000000000000000000000000000000000000000301020407000000060004000000000000000000000000000000000000000000000000000000000000000000000000020004000f00000006ff000000010307000000060004000000000000000000000000000000000000000000000000000200030207000000060004000000000000000000000000000000000000000000000000000000000000000000000000020002020700000006ff0000000700000000000000000000000000000000000000000000000000000000000000000003000200000000000000000000000000000000000000000000000000000000000000000000000000000000000000000306000000000000000000000000000000000000000000000000000000000000000000000000000000000000000000000000000000000000000000000000000001c10307000000ff0000001a010000ff00000014010000ff00000009000800000006ff00000001000000000000000000000000000000000000000000000000000000000000000000030600001300000006ff00000002001700000001ff00000000001900000004ff000000010000000000000000000000040102000f00000006ff00000001030700000006000400000000000000000000000000000000000000000000000000020003021200000006ff000000010207000000060004000000000000000000000000000000000000000000000000000200020407000000060004000000000000000000000000000000000000000000000000000000000000000000000000020004000b00000004ff000000020000000000000000000000000000000000000000000000000000000000000000000100020207000000060004000000000000000000000000000000000000000000000000000000000000000000000000020002020700000006ff0000000600000000000000000000000000000000000000000000000000000000000000000003000200000000000000000000000000000000000000000000000000000000000000000000000000000000000000000306000000000000000000000000000000000000000000000000000000000000000000000000000000000000000000000000000000000000000000000000000001e80207000000ff00000012000000ff0000000a000800000006ff00000001000000000000000000000000000000000000000000000000000000000000000000030600001300000006ff00000002001700000001ff00000000001900000004ff000000010000000000000000000000040102010000000005ff0000000a020700000006ff00000002001700000001ff000000000000000000000000000000040102010000000005ff0000000a000000000000000000000000000000000000000000000000000000000000000000010002001900000004ff00000002000000000000000000000000000000000000000000000000000000000000000000030102031200000006ff00000001030700000006000400000000000000000000000000000000000000000000000000020003001900000006ff00000001020700000006000400000000000000000000000000000000000000000000000000020002001900000004ff00000001000000000000000000000000000000000000000000000000000000000000000000010002030700000006ff00000004000000000000000000000000000000000000000000000000000000000000000000030003000000000000000000000000000000000000000000000000000000000000000000000000000000000000000003060000000000000000000000000000000000000000000000000000000000000000000000000000000000000000000000000000000000000001c10307000000ff00000012001206ff00000110010000ff00000009000800000006ff00000001000000000000000000000000000000000000000000000000000000000000000000030600010000000005ff00000005001700000001ff00000000030700000006ff0000000700000000000000000000000400030307000000060004000000000000000000000000000000000000000000000000000000000000000000000000020003000f00000006ff00000001040700000006000400000000000000000000000000000000000000000000000000020004001700000001ff000000000307000000030004000000030700000006ff0000000500000000000000000000000400030207000000060004000000000000000000000000000000000000000000000000000000000000000000000000020002001700000001ff00000000020700000003ff0000000300000000000000000000000000000000000000000000040002020700000006ff00000006000000000000000000000000000000000000000000000000000000000000000000030002000000000000000000000000000000000000000000000000000000000000000000000000000000000000000003060000000000000000000000000000000000000000000000000000000000000000",
        "nonce": "0x193",
        "chainId": "0x13882"
      },
      "additionalContracts": [],
      "isFixedGasLimit": false
    },
    {
      "hash": "0x696767fcfa13131e698f876e1e415a7cdf80940bdc36acd329f7a372e3d1835e",
      "transactionType": "CALL",
      "contractName": "ClawArena",
      "contractAddress": "0xda5b47f758f19bb02cc9bd8aac3dc0b9e7e7ffc7",
      "function": "addDefaultPlayer(bytes12,uint256,uint256)",
      "arguments": [
        "0x49726f6e20436c6177000000",
        "0",
        "0"
      ],
      "transaction": {
        "from": "0x8de56f797ff4aa43224ac277f04d595a30f782d6",
        "to": "0xda5b47f758f19bb02cc9bd8aac3dc0b9e7e7ffc7",
        "gas": "0x3cd3c",
        "value": "0x0",
        "input": "0x0339887349726f6e20436c6177000000000000000000000000000000000000000000000000000000000000000000000000000000000000000000000000000000000000000000000000000000000000000000000000000000000000000000000000000000",
        "nonce": "0x194",
        "chainId": "0x13882"
      },
      "additionalContracts": [],
      "isFixedGasLimit": false
    },
    {
      "hash": "0x472b29e3ee9326e670740a235a6be8593acd6a7558785596ef79d80b1f796b43",
      "transactionType": "CALL",
      "contractName": "ClawArena",
      "contractAddress": "0xda5b47f758f19bb02cc9bd8aac3dc0b9e7e7ffc7",
      "function": "addDefaultPlayer(bytes12,uint256,uint256)",
      "arguments": [
        "0x526f636b204c6f6273000000",
        "1",
        "1"
      ],
      "transaction": {
        "from": "0x8de56f797ff4aa43224ac277f04d595a30f782d6",
        "to": "0xda5b47f758f19bb02cc9bd8aac3dc0b9e7e7ffc7",
        "gas": "0x461bf",
        "value": "0x0",
        "input": "0x03398873526f636b204c6f6273000000000000000000000000000000000000000000000000000000000000000000000000000000000000000000000000000000000000010000000000000000000000000000000000000000000000000000000000000001",
        "nonce": "0x195",
        "chainId": "0x13882"
      },
      "additionalContracts": [],
      "isFixedGasLimit": false
    },
    {
      "hash": "0xdbd016ab45f48c0b6ecadaba4956e185ee2a47c469fafeb2580fbbddc9153f24",
      "transactionType": "CALL",
      "contractName": "ClawArena",
      "contractAddress": "0xda5b47f758f19bb02cc9bd8aac3dc0b9e7e7ffc7",
      "function": "addDefaultPlayer(bytes12,uint256,uint256)",
      "arguments": [
        "0x47686f737420536872000000",
        "2",
        "2"
      ],
      "transaction": {
        "from": "0x8de56f797ff4aa43224ac277f04d595a30f782d6",
        "to": "0xda5b47f758f19bb02cc9bd8aac3dc0b9e7e7ffc7",
        "gas": "0x461bf",
        "value": "0x0",
        "input": "0x0339887347686f737420536872000000000000000000000000000000000000000000000000000000000000000000000000000000000000000000000000000000000000020000000000000000000000000000000000000000000000000000000000000002",
        "nonce": "0x196",
        "chainId": "0x13882"
      },
      "additionalContracts": [],
      "isFixedGasLimit": false
    },
    {
      "hash": "0x9d5c450d443c931492bef0a20d7b1430319b43f921c57810b5862641332e1218",
      "transactionType": "CALL",
      "contractName": "ClawArena",
      "contractAddress": "0xda5b47f758f19bb02cc9bd8aac3dc0b9e7e7ffc7",
      "function": "addDefaultPlayer(bytes12,uint256,uint256)",
      "arguments": [
        "0x426c6f6f6420436c61000000",
        "3",
        "3"
      ],
      "transaction": {
        "from": "0x8de56f797ff4aa43224ac277f04d595a30f782d6",
        "to": "0xda5b47f758f19bb02cc9bd8aac3dc0b9e7e7ffc7",
        "gas": "0x461bf",
        "value": "0x0",
        "input": "0x03398873426c6f6f6420436c61000000000000000000000000000000000000000000000000000000000000000000000000000000000000000000000000000000000000030000000000000000000000000000000000000000000000000000000000000003",
        "nonce": "0x197",
        "chainId": "0x13882"
      },
      "additionalContracts": [],
      "isFixedGasLimit": false
    },
    {
      "hash": "0xff43df481f115babda8359546d4b186968def829b2d21ba472a244b2a46d0427",
      "transactionType": "CALL",
      "contractName": "ClawArena",
      "contractAddress": "0xda5b47f758f19bb02cc9bd8aac3dc0b9e7e7ffc7",
      "function": "addDefaultPlayer(bytes12,uint256,uint256)",
      "arguments": [
        "0x457865637574720000000000",
        "4",
        "4"
      ],
      "transaction": {
        "from": "0x8de56f797ff4aa43224ac277f04d595a30f782d6",
        "to": "0xda5b47f758f19bb02cc9bd8aac3dc0b9e7e7ffc7",
        "gas": "0x4619d",
        "value": "0x0",
        "input": "0x03398873457865637574720000000000000000000000000000000000000000000000000000000000000000000000000000000000000000000000000000000000000000040000000000000000000000000000000000000000000000000000000000000004",
        "nonce": "0x198",
        "chainId": "0x13882"
      },
      "additionalContracts": [],
      "isFixedGasLimit": false
    },
    {
      "hash": "0x81a2b26f0c059de2b73676ccce90e13560b6daa69a26ee74c56097d5a119e329",
      "transactionType": "CALL",
      "contractName": "ClawArena",
      "contractAddress": "0xda5b47f758f19bb02cc9bd8aac3dc0b9e7e7ffc7",
      "function": "addDefaultPlayer(bytes12,uint256,uint256)",
      "arguments": [
        "0x54686f726e20536872000000",
        "5",
        "5"
      ],
      "transaction": {
        "from": "0x8de56f797ff4aa43224ac277f04d595a30f782d6",
        "to": "0xda5b47f758f19bb02cc9bd8aac3dc0b9e7e7ffc7",
        "gas": "0x461bf",
        "value": "0x0",
        "input": "0x0339887354686f726e20536872000000000000000000000000000000000000000000000000000000000000000000000000000000000000000000000000000000000000050000000000000000000000000000000000000000000000000000000000000005",
        "nonce": "0x199",
        "chainId": "0x13882"
      },
      "additionalContracts": [],
      "isFixedGasLimit": false
    },
    {
      "hash": "0x2a8b41b779335f05d274604cd22e8876f35e4cb841eff9f43180b98888c23fc2",
      "transactionType": "CALL",
      "contractName": "ClawArena",
      "contractAddress": "0xda5b47f758f19bb02cc9bd8aac3dc0b9e7e7ffc7",
      "function": "addDefaultPlayer(bytes12,uint256,uint256)",
      "arguments": [
        "0x43726974204c6f6273000000",
        "6",
        "6"
      ],
      "transaction": {
        "from": "0x8de56f797ff4aa43224ac277f04d595a30f782d6",
        "to": "0xda5b47f758f19bb02cc9bd8aac3dc0b9e7e7ffc7",
        "gas": "0x461bf",
        "value": "0x0",
        "input": "0x0339887343726974204c6f6273000000000000000000000000000000000000000000000000000000000000000000000000000000000000000000000000000000000000060000000000000000000000000000000000000000000000000000000000000006",
        "nonce": "0x19a",
        "chainId": "0x13882"
      },
      "additionalContracts": [],
      "isFixedGasLimit": false
    },
    {
      "hash": "0x2879db7c4cf05054cbb241a4bfdc19f2b41f5a001e2b5b5e9eff93d69cc53107",
      "transactionType": "CALL",
      "contractName": "ClawArena",
      "contractAddress": "0xda5b47f758f19bb02cc9bd8aac3dc0b9e7e7ffc7",
      "function": "addDefaultPlayer(bytes12,uint256,uint256)",
      "arguments": [
        "0x426c756520466c616d000000",
        "7",
        "7"
      ],
      "transaction": {
        "from": "0x8de56f797ff4aa43224ac277f04d595a30f782d6",
        "to": "0xda5b47f758f19bb02cc9bd8aac3dc0b9e7e7ffc7",
        "gas": "0x461bf",
        "value": "0x0",
        "input": "0x03398873426c756520466c616d000000000000000000000000000000000000000000000000000000000000000000000000000000000000000000000000000000000000070000000000000000000000000000000000000000000000000000000000000007",
        "nonce": "0x19b",
        "chainId": "0x13882"
      },
      "additionalContracts": [],
      "isFixedGasLimit": false
    },
    {
      "hash": "0xb35f4976f80b92186e902b2585e4073b0e4fc043107a431dbecd0fad5ef458a7",
      "transactionType": "CALL",
      "contractName": "ClawArena",
      "contractAddress": "0xda5b47f758f19bb02cc9bd8aac3dc0b9e7e7ffc7",
      "function": "addDefaultPlayer(bytes12,uint256,uint256)",
      "arguments": [
        "0x417263746963205368000000",
        "8",
        "8"
      ],
      "transaction": {
        "from": "0x8de56f797ff4aa43224ac277f04d595a30f782d6",
        "to": "0xda5b47f758f19bb02cc9bd8aac3dc0b9e7e7ffc7",
        "gas": "0x461bf",
        "value": "0x0",
        "input": "0x03398873417263746963205368000000000000000000000000000000000000000000000000000000000000000000000000000000000000000000000000000000000000080000000000000000000000000000000000000000000000000000000000000008",
        "nonce": "0x19c",
        "chainId": "0x13882"
      },
      "additionalContracts": [],
      "isFixedGasLimit": false
    },
    {
      "hash": "0x27c2873dee4a5941ef8749540a16b4776edce79d3dc57abe26497045ce76e565",
      "transactionType": "CALL",
      "contractName": "ClawArena",
      "contractAddress": "0xda5b47f758f19bb02cc9bd8aac3dc0b9e7e7ffc7",
      "function": "addDefaultPlayer(bytes12,uint256,uint256)",
      "arguments": [
        "0x56656e742053687200000000",
        "9",
        "9"
      ],
      "transaction": {
        "from": "0x8de56f797ff4aa43224ac277f04d595a30f782d6",
        "to": "0xda5b47f758f19bb02cc9bd8aac3dc0b9e7e7ffc7",
        "gas": "0x461ae",
        "value": "0x0",
        "input": "0x0339887356656e742053687200000000000000000000000000000000000000000000000000000000000000000000000000000000000000000000000000000000000000090000000000000000000000000000000000000000000000000000000000000009",
        "nonce": "0x19d",
        "chainId": "0x13882"
      },
      "additionalContracts": [],
      "isFixedGasLimit": false
    },
    {
      "hash": "0x42135a027731849aea3a057f0f962b25bcd6d6be5213618e3bec91ebdb831463",
      "transactionType": "CALL",
      "contractName": "ClawArena",
      "contractAddress": "0xda5b47f758f19bb02cc9bd8aac3dc0b9e7e7ffc7",
      "function": "addDefaultPlayer(bytes12,uint256,uint256)",
      "arguments": [
        "0x4865726d6974205368000000",
        "10",
        "10"
      ],
      "transaction": {
        "from": "0x8de56f797ff4aa43224ac277f04d595a30f782d6",
        "to": "0xda5b47f758f19bb02cc9bd8aac3dc0b9e7e7ffc7",
        "gas": "0x461bf",
        "value": "0x0",
        "input": "0x033988734865726d69742053680000000000000000000000000000000000000000000000000000000000000000000000000000000000000000000000000000000000000a000000000000000000000000000000000000000000000000000000000000000a",
        "nonce": "0x19e",
        "chainId": "0x13882"
      },
      "additionalContracts": [],
      "isFixedGasLimit": false
    },
    {
      "hash": "0x5611531f6d94e211ea0f6ef291cb511ccf8387e24d130466fdbb48c507794363",
      "transactionType": "CALL",
      "contractName": "ClawArena",
      "contractAddress": "0xda5b47f758f19bb02cc9bd8aac3dc0b9e7e7ffc7",
      "function": "addDefaultPlayer(bytes12,uint256,uint256)",
      "arguments": [
        "0x4c75636b7920536872000000",
        "11",
        "11"
      ],
      "transaction": {
        "from": "0x8de56f797ff4aa43224ac277f04d595a30f782d6",
        "to": "0xda5b47f758f19bb02cc9bd8aac3dc0b9e7e7ffc7",
        "gas": "0x461bf",
        "value": "0x0",
        "input": "0x033988734c75636b79205368720000000000000000000000000000000000000000000000000000000000000000000000000000000000000000000000000000000000000b000000000000000000000000000000000000000000000000000000000000000b",
        "nonce": "0x19f",
        "chainId": "0x13882"
      },
      "additionalContracts": [],
      "isFixedGasLimit": false
    }
  ],
  "receipts": [
    {
      "status": "0x1",
      "cumulativeGasUsed": "0x170e2b",
      "logs": [
        {
          "address": "0x429862f1fbd621d15c48f1e16e6301f322e7ccae",
          "topics": [
            "0x8be0079c531659141344cd1fd0a4f28419497f9722a3daafe3b4186f6b6457e0",
            "0x0000000000000000000000000000000000000000000000000000000000000000",
            "0x0000000000000000000000008de56f797ff4aa43224ac277f04d595a30f782d6"
          ],
          "data": "0x",
          "blockHash": "0xe36871114bc4979e916012ba8d653acb5a39b9da01ac4e767c453f9d56ce28f3",
          "blockNumber": "0x21fe725",
          "blockTimestamp": "0x69c37845",
          "transactionHash": "0xebde6c945d4f74cae2e85017ddefee71118146e23fa76c19223bdaf2d33320c3",
          "transactionIndex": "0x1",
          "logIndex": "0x3",
          "removed": false
        },
        {
          "address": "0x0000000000000000000000000000000000001010",
          "topics": [
            "0x4dfe1bbbcf077ddc3e01291eea2d5c70c2b422b415d95645b9adcfd678cb1d63",
            "0x0000000000000000000000000000000000000000000000000000000000001010",
            "0x0000000000000000000000008de56f797ff4aa43224ac277f04d595a30f782d6",
            "0x0000000000000000000000007ee41d8a25641000661b1ef5e6ae8a00400466b0"
          ],
          "data": "0x00000000000000000000000000000000000000000000000001ae71a07406a851000000000000000000000000000000000000000000000004b01d98fba70ccbf90000000000000000000000000000000000000000000031bfd56e47669cc046dc000000000000000000000000000000000000000000000004ae6f275b330623a80000000000000000000000000000000000000000000031bfd71cb90710c6ef2d",
          "blockHash": "0xe36871114bc4979e916012ba8d653acb5a39b9da01ac4e767c453f9d56ce28f3",
          "blockNumber": "0x21fe725",
          "blockTimestamp": "0x69c37845",
          "transactionHash": "0xebde6c945d4f74cae2e85017ddefee71118146e23fa76c19223bdaf2d33320c3",
          "transactionIndex": "0x1",
          "logIndex": "0x4",
          "removed": false
        }
      ],
      "logsBloom": "0x00000000000000000000000000000000000000000000000000800000004000000000000000000000000000000000000000108000000000000000000000000000000000000000000000000000000000800001000000000000000100000000000000000000020000000400000000000800000000020000000080000000000000400000000000000000020000000400000000000000000000000000000000000000200000000000000000000000000000000000000000000000000000000000004000000000000000000001000000000000000000400000000000100000004020000000000000000000000000000000000000000000000000000000000000100000",
      "type": "0x0",
      "transactionHash": "0xebde6c945d4f74cae2e85017ddefee71118146e23fa76c19223bdaf2d33320c3",
      "transactionIndex": "0x1",
      "blockHash": "0xe36871114bc4979e916012ba8d653acb5a39b9da01ac4e767c453f9d56ce28f3",
      "blockNumber": "0x21fe725",
      "gasUsed": "0x151f95",
      "effectiveGasPrice": "0x1460ab670c",
      "from": "0x8de56f797ff4aa43224ac277f04d595a30f782d6",
      "to": null,
      "contractAddress": "0x429862f1fbd621d15c48f1e16e6301f322e7ccae"
    },
    {
      "status": "0x1",
      "cumulativeGasUsed": "0x3364fd",
      "logs": [
        {
          "address": "0x72eea00e0b9652db2d8d2eb4b72eadeba76440bd",
          "topics": [
            "0x8be0079c531659141344cd1fd0a4f28419497f9722a3daafe3b4186f6b6457e0",
            "0x0000000000000000000000000000000000000000000000000000000000000000",
            "0x0000000000000000000000008de56f797ff4aa43224ac277f04d595a30f782d6"
          ],
          "data": "0x",
          "blockHash": "0xe36871114bc4979e916012ba8d653acb5a39b9da01ac4e767c453f9d56ce28f3",
          "blockNumber": "0x21fe725",
          "blockTimestamp": "0x69c37845",
          "transactionHash": "0x8e05cbbf4a67c3cedac30a6ea9d531e2cfdb9eb625600db1f654bbe556058737",
          "transactionIndex": "0x2",
          "logIndex": "0x5",
          "removed": false
        },
        {
          "address": "0x0000000000000000000000000000000000001010",
          "topics": [
            "0x4dfe1bbbcf077ddc3e01291eea2d5c70c2b422b415d95645b9adcfd678cb1d63",
            "0x0000000000000000000000000000000000000000000000000000000000001010",
            "0x0000000000000000000000008de56f797ff4aa43224ac277f04d595a30f782d6",
            "0x0000000000000000000000007ee41d8a25641000661b1ef5e6ae8a00400466b0"
          ],
          "data": "0x00000000000000000000000000000000000000000000000002417bf01f8f322a000000000000000000000000000000000000000000000004ae6f275b2dd35dfd0000000000000000000000000000000000000000000031bfd71cb90710c6ef2d000000000000000000000000000000000000000000000004ac2dab6b0e442bd30000000000000000000000000000000000000000000031bfd95e34f730562157",
          "blockHash": "0xe36871114bc4979e916012ba8d653acb5a39b9da01ac4e767c453f9d56ce28f3",
          "blockNumber": "0x21fe725",
          "blockTimestamp": "0x69c37845",
          "transactionHash": "0x8e05cbbf4a67c3cedac30a6ea9d531e2cfdb9eb625600db1f654bbe556058737",
          "transactionIndex": "0x2",
          "logIndex": "0x6",
          "removed": false
        }
      ],
      "logsBloom": "0x00000040000000000000000000000000000000000000000000800000004000000000000000000000000000000000000000008000000000000000010000000000000000000000000000000000000000800001000000000000000100000000000000000000020000000400000000000800000000000000000080000000000000400000000000000000020000000400000000000000000000000000000000000000200000000000000000000000000000000000000000000000000000000000004000000000000000000001000000000000000000400000000000100000004020000000000000000000000000000000000000000000000000000000000000108000",
      "type": "0x0",
      "transactionHash": "0x8e05cbbf4a67c3cedac30a6ea9d531e2cfdb9eb625600db1f654bbe556058737",
      "transactionIndex": "0x2",
      "blockHash": "0xe36871114bc4979e916012ba8d653acb5a39b9da01ac4e767c453f9d56ce28f3",
      "blockNumber": "0x21fe725",
      "gasUsed": "0x1c56d2",
      "effectiveGasPrice": "0x1460ab670c",
      "from": "0x8de56f797ff4aa43224ac277f04d595a30f782d6",
      "to": null,
      "contractAddress": "0x72eea00e0b9652db2d8d2eb4b72eadeba76440bd"
    },
    {
      "status": "0x1",
      "cumulativeGasUsed": "0x30b8f2",
      "logs": [
        {
          "address": "0xda5b47f758f19bb02cc9bd8aac3dc0b9e7e7ffc7",
          "topics": [
            "0x8be0079c531659141344cd1fd0a4f28419497f9722a3daafe3b4186f6b6457e0",
            "0x0000000000000000000000000000000000000000000000000000000000000000",
            "0x0000000000000000000000008de56f797ff4aa43224ac277f04d595a30f782d6"
          ],
          "data": "0x",
          "blockHash": "0x99035c760884be865f4b2ec133d4cc4d27d86a03078b2163cb9cf6d91ae8f1d8",
          "blockNumber": "0x21fe726",
          "blockTimestamp": "0x69c37847",
          "transactionHash": "0x5611531f6d94e211ea0f6ef291cb511ccf8387e24d130466fdbb48c507794363",
          "transactionIndex": "0x0",
          "logIndex": "0x0",
          "removed": false
        },
        {
          "address": "0x0000000000000000000000000000000000001010",
          "topics": [
            "0x4dfe1bbbcf077ddc3e01291eea2d5c70c2b422b415d95645b9adcfd678cb1d63",
            "0x0000000000000000000000000000000000000000000000000000000000001010",
            "0x0000000000000000000000008de56f797ff4aa43224ac277f04d595a30f782d6",
            "0x0000000000000000000000007ee41d8a25641000661b1ef5e6ae8a00400466b0"
          ],
          "data": "0x00000000000000000000000000000000000000000000000003e0d8e1da5a85ca000000000000000000000000000000000000000000000004ac2dab6b074ace250000000000000000000000000000000000000000000031bfd95e34f730562157000000000000000000000000000000000000000000000004a84cd2892cf0485b0000000000000000000000000000000000000000000031bfdd3f0dd90ab0a721",
          "blockHash": "0x99035c760884be865f4b2ec133d4cc4d27d86a03078b2163cb9cf6d91ae8f1d8",
          "blockNumber": "0x21fe726",
          "blockTimestamp": "0x69c37847",
          "transactionHash": "0x5611531f6d94e211ea0f6ef291cb511ccf8387e24d130466fdbb48c507794363",
          "transactionIndex": "0x0",
          "logIndex": "0x1",
          "removed": false
        }
      ],
      "logsBloom": "0x00000000000000000000000000000000000000000000000000800000004000000000000000000000000000000000000000008000000000000000000000000000000000000000000000000000000000800001000000000000000100000000000000000000020000000400000000000800000000000000000080000000000000400000000000000000020000000400000000000000000000000000000000000000200000000000040000000000000000000040000000000000800000000000004000000000000000000001000000000000000000400000000000100000004020000000000000000000000000000000000000000000000000000000000000100000",
      "type": "0x0",
      "transactionHash": "0x5611531f6d94e211ea0f6ef291cb511ccf8387e24d130466fdbb48c507794363",
      "transactionIndex": "0x0",
      "blockHash": "0x99035c760884be865f4b2ec133d4cc4d27d86a03078b2163cb9cf6d91ae8f1d8",
      "blockNumber": "0x21fe726",
      "gasUsed": "0x30b8f2",
      "effectiveGasPrice": "0x1460ab670c",
      "from": "0x8de56f797ff4aa43224ac277f04d595a30f782d6",
      "to": null,
      "contractAddress": "0xda5b47f758f19bb02cc9bd8aac3dc0b9e7e7ffc7"
    },
    {
      "status": "0x1",
      "cumulativeGasUsed": "0x41c438",
      "logs": [
        {
          "address": "0xd2825bbcd0b0bb734006e3040572ee625ce12c43",
          "topics": [
            "0x8be0079c531659141344cd1fd0a4f28419497f9722a3daafe3b4186f6b6457e0",
            "0x0000000000000000000000000000000000000000000000000000000000000000",
            "0x0000000000000000000000008de56f797ff4aa43224ac277f04d595a30f782d6"
          ],
          "data": "0x",
          "blockHash": "0x99035c760884be865f4b2ec133d4cc4d27d86a03078b2163cb9cf6d91ae8f1d8",
          "blockNumber": "0x21fe726",
          "blockTimestamp": "0x69c37847",
          "transactionHash": "0x39cd8043bac5776afbf78c19689ab5e0dc276755d26b63be5e464230db191d7d",
          "transactionIndex": "0x1",
          "logIndex": "0x2",
          "removed": false
        },
        {
          "address": "0x0000000000000000000000000000000000001010",
          "topics": [
            "0x4dfe1bbbcf077ddc3e01291eea2d5c70c2b422b415d95645b9adcfd678cb1d63",
            "0x0000000000000000000000000000000000000000000000000000000000001010",
            "0x0000000000000000000000008de56f797ff4aa43224ac277f04d595a30f782d6",
            "0x0000000000000000000000007ee41d8a25641000661b1ef5e6ae8a00400466b0"
          ],
          "data": "0x000000000000000000000000000000000000000000000000015b511b9fe5eb0e000000000000000000000000000000000000000000000004a84cd28920f2c4cd0000000000000000000000000000000000000000000031bfdd3f0dd90ab0a721000000000000000000000000000000000000000000000004a6f1816d810cd9bf0000000000000000000000000000000000000000000031bfde9a5ef4aa96922f",
          "blockHash": "0x99035c760884be865f4b2ec133d4cc4d27d86a03078b2163cb9cf6d91ae8f1d8",
          "blockNumber": "0x21fe726",
          "blockTimestamp": "0x69c37847",
          "transactionHash": "0x39cd8043bac5776afbf78c19689ab5e0dc276755d26b63be5e464230db191d7d",
          "transactionIndex": "0x1",
          "logIndex": "0x3",
          "removed": false
        }
      ],
      "logsBloom": "0x00000000000004000000000000000000000000000000000000800000004000000000000000000000000000000000000000008000000000000000000000000000000000000000000000000000000000800001000000000000000100000000000000000000020000000400000000000800000000000000000080000000000000400000000000000000020000000400000000000000000000000000000000000000200000000000000000000000000000000000000000000000000000000000004000000000000000000001000000000000000000400000000000100000004020000000000000000000000000000000000000000000080400000000000000100000",
      "type": "0x0",
      "transactionHash": "0x39cd8043bac5776afbf78c19689ab5e0dc276755d26b63be5e464230db191d7d",
      "transactionIndex": "0x1",
      "blockHash": "0x99035c760884be865f4b2ec133d4cc4d27d86a03078b2163cb9cf6d91ae8f1d8",
      "blockNumber": "0x21fe726",
      "gasUsed": "0x110b46",
      "effectiveGasPrice": "0x1460ab670c",
      "from": "0x8de56f797ff4aa43224ac277f04d595a30f782d6",
      "to": null,
      "contractAddress": "0xd2825bbcd0b0bb734006e3040572ee625ce12c43"
    },
    {
      "status": "0x1",
      "cumulativeGasUsed": "0x4278be",
      "logs": [
        {
          "address": "0x0000000000000000000000000000000000001010",
          "topics": [
            "0x4dfe1bbbcf077ddc3e01291eea2d5c70c2b422b415d95645b9adcfd678cb1d63",
            "0x0000000000000000000000000000000000000000000000000000000000001010",
            "0x0000000000000000000000008de56f797ff4aa43224ac277f04d595a30f782d6",
            "0x0000000000000000000000007ee41d8a25641000661b1ef5e6ae8a00400466b0"
          ],
          "data": "0x000000000000000000000000000000000000000000000000000e5ea31dfff34e000000000000000000000000000000000000000000000004a6f1816d7cdb13850000000000000000000000000000000000000000000031bfde9a5ef4aa96922f000000000000000000000000000000000000000000000004a6e322ca5edb20370000000000000000000000000000000000000000000031bfdea8bd97c896857d",
          "blockHash": "0x99035c760884be865f4b2ec133d4cc4d27d86a03078b2163cb9cf6d91ae8f1d8",
          "blockNumber": "0x21fe726",
          "blockTimestamp": "0x69c37847",
          "transactionHash": "0x35e0089a378d9f1850ec227a7bf08d7f6442af37f617c513f308f400d7e959f7",
          "transactionIndex": "0x2",
          "logIndex": "0x4",
          "removed": false
        }
      ],
      "logsBloom": "0x00000000000000000000000000000000000000000000000000000000004000000000000000000000000000000000000000008000000000000000000000000000000000000000000000000000000000800000000000000000000100000000000000000000000000000400000000000000000000000000000080000000000000000000000000000000020000000400000000000000000000000000000000000000200000000000000000000000000000000000000000000000000000000000004000000000000000000001000000000000000000400000000000100000004000000000000000000000000000000000000000000000000000000000000000100000",
      "type": "0x0",
      "transactionHash": "0x35e0089a378d9f1850ec227a7bf08d7f6442af37f617c513f308f400d7e959f7",
      "transactionIndex": "0x2",
      "blockHash": "0x99035c760884be865f4b2ec133d4cc4d27d86a03078b2163cb9cf6d91ae8f1d8",
      "blockNumber": "0x21fe726",
      "gasUsed": "0xb486",
      "effectiveGasPrice": "0x1460ab670c",
      "from": "0x8de56f797ff4aa43224ac277f04d595a30f782d6",
      "to": "0x72eea00e0b9652db2d8d2eb4b72eadeba76440bd",
      "contractAddress": null
    },
    {
      "status": "0x1",
      "cumulativeGasUsed": "0x432dd8",
      "logs": [
        {
          "address": "0x0000000000000000000000000000000000001010",
          "topics": [
            "0x4dfe1bbbcf077ddc3e01291eea2d5c70c2b422b415d95645b9adcfd678cb1d63",
            "0x0000000000000000000000000000000000000000000000000000000000001010",
            "0x0000000000000000000000008de56f797ff4aa43224ac277f04d595a30f782d6",
            "0x0000000000000000000000007ee41d8a25641000661b1ef5e6ae8a00400466b0"
          ],
          "data": "0x000000000000000000000000000000000000000000000000000e6a6b011761d2000000000000000000000000000000000000000000000004a6e322ca5eaeb33d0000000000000000000000000000000000000000000031bfdea8bd97c896857d000000000000000000000000000000000000000000000004a6d4b85f5d97516b0000000000000000000000000000000000000000000031bfdeb72802c9ade74f",
          "blockHash": "0x99035c760884be865f4b2ec133d4cc4d27d86a03078b2163cb9cf6d91ae8f1d8",
          "blockNumber": "0x21fe726",
          "blockTimestamp": "0x69c37847",
          "transactionHash": "0x9d5c450d443c931492bef0a20d7b1430319b43f921c57810b5862641332e1218",
          "transactionIndex": "0x3",
          "logIndex": "0x5",
          "removed": false
        }
      ],
      "logsBloom": "0x00000000000000000000000000000000000000000000000000000000004000000000000000000000000000000000000000008000000000000000000000000000000000000000000000000000000000800000000000000000000100000000000000000000000000000400000000000000000000000000000080000000000000000000000000000000020000000400000000000000000000000000000000000000200000000000000000000000000000000000000000000000000000000000004000000000000000000001000000000000000000400000000000100000004000000000000000000000000000000000000000000000000000000000000000100000",
      "type": "0x0",
      "transactionHash": "0x9d5c450d443c931492bef0a20d7b1430319b43f921c57810b5862641332e1218",
      "transactionIndex": "0x3",
      "blockHash": "0x99035c760884be865f4b2ec133d4cc4d27d86a03078b2163cb9cf6d91ae8f1d8",
      "blockNumber": "0x21fe726",
      "gasUsed": "0xb51a",
      "effectiveGasPrice": "0x1460ab670c",
      "from": "0x8de56f797ff4aa43224ac277f04d595a30f782d6",
      "to": "0xda5b47f758f19bb02cc9bd8aac3dc0b9e7e7ffc7",
      "contractAddress": null
    },
    {
      "status": "0x1",
      "cumulativeGasUsed": "0x558833",
      "logs": [
        {
          "address": "0x72eea00e0b9652db2d8d2eb4b72eadeba76440bd",
          "topics": [
            "0xddf252ad1be2c89b69c2b068fc378daa952ba7f163c4a11628f55a4df523b3ef",
            "0x0000000000000000000000000000000000000000000000000000000000000000",
            "0x00000000000000000000000072eea00e0b9652db2d8d2eb4b72eadeba76440bd",
            "0x0000000000000000000000000000000000000000000000000000000000000000"
          ],
          "data": "0x",
          "blockHash": "0x99035c760884be865f4b2ec133d4cc4d27d86a03078b2163cb9cf6d91ae8f1d8",
          "blockNumber": "0x21fe726",
          "blockTimestamp": "0x69c37847",
          "transactionHash": "0xdbd016ab45f48c0b6ecadaba4956e185ee2a47c469fafeb2580fbbddc9153f24",
          "transactionIndex": "0x4",
          "logIndex": "0x6",
          "removed": false
        },
        {
          "address": "0x72eea00e0b9652db2d8d2eb4b72eadeba76440bd",
          "topics": [
            "0xddf252ad1be2c89b69c2b068fc378daa952ba7f163c4a11628f55a4df523b3ef",
            "0x0000000000000000000000000000000000000000000000000000000000000000",
            "0x00000000000000000000000072eea00e0b9652db2d8d2eb4b72eadeba76440bd",
            "0x0000000000000000000000000000000000000000000000000000000000000001"
          ],
          "data": "0x",
          "blockHash": "0x99035c760884be865f4b2ec133d4cc4d27d86a03078b2163cb9cf6d91ae8f1d8",
          "blockNumber": "0x21fe726",
          "blockTimestamp": "0x69c37847",
          "transactionHash": "0xdbd016ab45f48c0b6ecadaba4956e185ee2a47c469fafeb2580fbbddc9153f24",
          "transactionIndex": "0x4",
          "logIndex": "0x7",
          "removed": false
        },
        {
          "address": "0x72eea00e0b9652db2d8d2eb4b72eadeba76440bd",
          "topics": [
            "0xddf252ad1be2c89b69c2b068fc378daa952ba7f163c4a11628f55a4df523b3ef",
            "0x0000000000000000000000000000000000000000000000000000000000000000",
            "0x00000000000000000000000072eea00e0b9652db2d8d2eb4b72eadeba76440bd",
            "0x0000000000000000000000000000000000000000000000000000000000000002"
          ],
          "data": "0x",
          "blockHash": "0x99035c760884be865f4b2ec133d4cc4d27d86a03078b2163cb9cf6d91ae8f1d8",
          "blockNumber": "0x21fe726",
          "blockTimestamp": "0x69c37847",
          "transactionHash": "0xdbd016ab45f48c0b6ecadaba4956e185ee2a47c469fafeb2580fbbddc9153f24",
          "transactionIndex": "0x4",
          "logIndex": "0x8",
          "removed": false
        },
        {
          "address": "0x72eea00e0b9652db2d8d2eb4b72eadeba76440bd",
          "topics": [
            "0xddf252ad1be2c89b69c2b068fc378daa952ba7f163c4a11628f55a4df523b3ef",
            "0x0000000000000000000000000000000000000000000000000000000000000000",
            "0x00000000000000000000000072eea00e0b9652db2d8d2eb4b72eadeba76440bd",
            "0x0000000000000000000000000000000000000000000000000000000000000003"
          ],
          "data": "0x",
          "blockHash": "0x99035c760884be865f4b2ec133d4cc4d27d86a03078b2163cb9cf6d91ae8f1d8",
          "blockNumber": "0x21fe726",
          "blockTimestamp": "0x69c37847",
          "transactionHash": "0xdbd016ab45f48c0b6ecadaba4956e185ee2a47c469fafeb2580fbbddc9153f24",
          "transactionIndex": "0x4",
          "logIndex": "0x9",
          "removed": false
        },
        {
          "address": "0x72eea00e0b9652db2d8d2eb4b72eadeba76440bd",
          "topics": [
            "0xddf252ad1be2c89b69c2b068fc378daa952ba7f163c4a11628f55a4df523b3ef",
            "0x0000000000000000000000000000000000000000000000000000000000000000",
            "0x00000000000000000000000072eea00e0b9652db2d8d2eb4b72eadeba76440bd",
            "0x0000000000000000000000000000000000000000000000000000000000000004"
          ],
          "data": "0x",
          "blockHash": "0x99035c760884be865f4b2ec133d4cc4d27d86a03078b2163cb9cf6d91ae8f1d8",
          "blockNumber": "0x21fe726",
          "blockTimestamp": "0x69c37847",
          "transactionHash": "0xdbd016ab45f48c0b6ecadaba4956e185ee2a47c469fafeb2580fbbddc9153f24",
          "transactionIndex": "0x4",
          "logIndex": "0xa",
          "removed": false
        },
        {
          "address": "0x72eea00e0b9652db2d8d2eb4b72eadeba76440bd",
          "topics": [
            "0xddf252ad1be2c89b69c2b068fc378daa952ba7f163c4a11628f55a4df523b3ef",
            "0x0000000000000000000000000000000000000000000000000000000000000000",
            "0x00000000000000000000000072eea00e0b9652db2d8d2eb4b72eadeba76440bd",
            "0x0000000000000000000000000000000000000000000000000000000000000005"
          ],
          "data": "0x",
          "blockHash": "0x99035c760884be865f4b2ec133d4cc4d27d86a03078b2163cb9cf6d91ae8f1d8",
          "blockNumber": "0x21fe726",
          "blockTimestamp": "0x69c37847",
          "transactionHash": "0xdbd016ab45f48c0b6ecadaba4956e185ee2a47c469fafeb2580fbbddc9153f24",
          "transactionIndex": "0x4",
          "logIndex": "0xb",
          "removed": false
        },
        {
          "address": "0x72eea00e0b9652db2d8d2eb4b72eadeba76440bd",
          "topics": [
            "0xddf252ad1be2c89b69c2b068fc378daa952ba7f163c4a11628f55a4df523b3ef",
            "0x0000000000000000000000000000000000000000000000000000000000000000",
            "0x00000000000000000000000072eea00e0b9652db2d8d2eb4b72eadeba76440bd",
            "0x0000000000000000000000000000000000000000000000000000000000000006"
          ],
          "data": "0x",
          "blockHash": "0x99035c760884be865f4b2ec133d4cc4d27d86a03078b2163cb9cf6d91ae8f1d8",
          "blockNumber": "0x21fe726",
          "blockTimestamp": "0x69c37847",
          "transactionHash": "0xdbd016ab45f48c0b6ecadaba4956e185ee2a47c469fafeb2580fbbddc9153f24",
          "transactionIndex": "0x4",
          "logIndex": "0xc",
          "removed": false
        },
        {
          "address": "0x72eea00e0b9652db2d8d2eb4b72eadeba76440bd",
          "topics": [
            "0xddf252ad1be2c89b69c2b068fc378daa952ba7f163c4a11628f55a4df523b3ef",
            "0x0000000000000000000000000000000000000000000000000000000000000000",
            "0x00000000000000000000000072eea00e0b9652db2d8d2eb4b72eadeba76440bd",
            "0x0000000000000000000000000000000000000000000000000000000000000007"
          ],
          "data": "0x",
          "blockHash": "0x99035c760884be865f4b2ec133d4cc4d27d86a03078b2163cb9cf6d91ae8f1d8",
          "blockNumber": "0x21fe726",
          "blockTimestamp": "0x69c37847",
          "transactionHash": "0xdbd016ab45f48c0b6ecadaba4956e185ee2a47c469fafeb2580fbbddc9153f24",
          "transactionIndex": "0x4",
          "logIndex": "0xd",
          "removed": false
        },
        {
          "address": "0x72eea00e0b9652db2d8d2eb4b72eadeba76440bd",
          "topics": [
            "0xddf252ad1be2c89b69c2b068fc378daa952ba7f163c4a11628f55a4df523b3ef",
            "0x0000000000000000000000000000000000000000000000000000000000000000",
            "0x00000000000000000000000072eea00e0b9652db2d8d2eb4b72eadeba76440bd",
            "0x0000000000000000000000000000000000000000000000000000000000000008"
          ],
          "data": "0x",
          "blockHash": "0x99035c760884be865f4b2ec133d4cc4d27d86a03078b2163cb9cf6d91ae8f1d8",
          "blockNumber": "0x21fe726",
          "blockTimestamp": "0x69c37847",
          "transactionHash": "0xdbd016ab45f48c0b6ecadaba4956e185ee2a47c469fafeb2580fbbddc9153f24",
          "transactionIndex": "0x4",
          "logIndex": "0xe",
          "removed": false
        },
        {
          "address": "0x72eea00e0b9652db2d8d2eb4b72eadeba76440bd",
          "topics": [
            "0xddf252ad1be2c89b69c2b068fc378daa952ba7f163c4a11628f55a4df523b3ef",
            "0x0000000000000000000000000000000000000000000000000000000000000000",
            "0x00000000000000000000000072eea00e0b9652db2d8d2eb4b72eadeba76440bd",
            "0x0000000000000000000000000000000000000000000000000000000000000009"
          ],
          "data": "0x",
          "blockHash": "0x99035c760884be865f4b2ec133d4cc4d27d86a03078b2163cb9cf6d91ae8f1d8",
          "blockNumber": "0x21fe726",
          "blockTimestamp": "0x69c37847",
          "transactionHash": "0xdbd016ab45f48c0b6ecadaba4956e185ee2a47c469fafeb2580fbbddc9153f24",
          "transactionIndex": "0x4",
          "logIndex": "0xf",
          "removed": false
        },
        {
          "address": "0x72eea00e0b9652db2d8d2eb4b72eadeba76440bd",
          "topics": [
            "0xddf252ad1be2c89b69c2b068fc378daa952ba7f163c4a11628f55a4df523b3ef",
            "0x0000000000000000000000000000000000000000000000000000000000000000",
            "0x00000000000000000000000072eea00e0b9652db2d8d2eb4b72eadeba76440bd",
            "0x000000000000000000000000000000000000000000000000000000000000000a"
          ],
          "data": "0x",
          "blockHash": "0x99035c760884be865f4b2ec133d4cc4d27d86a03078b2163cb9cf6d91ae8f1d8",
          "blockNumber": "0x21fe726",
          "blockTimestamp": "0x69c37847",
          "transactionHash": "0xdbd016ab45f48c0b6ecadaba4956e185ee2a47c469fafeb2580fbbddc9153f24",
          "transactionIndex": "0x4",
          "logIndex": "0x10",
          "removed": false
        },
        {
          "address": "0x72eea00e0b9652db2d8d2eb4b72eadeba76440bd",
          "topics": [
            "0xddf252ad1be2c89b69c2b068fc378daa952ba7f163c4a11628f55a4df523b3ef",
            "0x0000000000000000000000000000000000000000000000000000000000000000",
            "0x00000000000000000000000072eea00e0b9652db2d8d2eb4b72eadeba76440bd",
            "0x000000000000000000000000000000000000000000000000000000000000000b"
          ],
          "data": "0x",
          "blockHash": "0x99035c760884be865f4b2ec133d4cc4d27d86a03078b2163cb9cf6d91ae8f1d8",
          "blockNumber": "0x21fe726",
          "blockTimestamp": "0x69c37847",
          "transactionHash": "0xdbd016ab45f48c0b6ecadaba4956e185ee2a47c469fafeb2580fbbddc9153f24",
          "transactionIndex": "0x4",
          "logIndex": "0x11",
          "removed": false
        },
        {
          "address": "0x0000000000000000000000000000000000001010",
          "topics": [
            "0x4dfe1bbbcf077ddc3e01291eea2d5c70c2b422b415d95645b9adcfd678cb1d63",
            "0x0000000000000000000000000000000000000000000000000000000000001010",
            "0x0000000000000000000000008de56f797ff4aa43224ac277f04d595a30f782d6",
            "0x0000000000000000000000007ee41d8a25641000661b1ef5e6ae8a00400466b0"
          ],
          "data": "0x0000000000000000000000000000000000000000000000000175fd47d97b9cdf000000000000000000000000000000000000000000000004a6d4b85f5d6ac0050000000000000000000000000000000000000000000031bfdeb72802c9ade74f000000000000000000000000000000000000000000000004a55ebb1783ef23260000000000000000000000000000000000000000000031bfe02d254aa329842e",
          "blockHash": "0x99035c760884be865f4b2ec133d4cc4d27d86a03078b2163cb9cf6d91ae8f1d8",
          "blockNumber": "0x21fe726",
          "blockTimestamp": "0x69c37847",
          "transactionHash": "0xdbd016ab45f48c0b6ecadaba4956e185ee2a47c469fafeb2580fbbddc9153f24",
          "transactionIndex": "0x4",
          "logIndex": "0x12",
          "removed": false
        }
      ],
      "logsBloom": "0x04200040000000000000004000000000000000000000000000000000004000000400000000000080000000000000000000009000060480000020010000240000000030000000000000000008000000800000000000040000000100000000000008000000020000000400000000000800000000000000000080000010000000000080000400000000030000000400001000001800000000000000000000000000200000000000000000000100000000000000000000800000002000080000404040000002000000000001000000000000002000408000000000100100004060000000000000000000000000000000000000000000008000040000000000908000",
      "type": "0x0",
      "transactionHash": "0xdbd016ab45f48c0b6ecadaba4956e185ee2a47c469fafeb2580fbbddc9153f24",
      "transactionIndex": "0x4",
      "blockHash": "0x99035c760884be865f4b2ec133d4cc4d27d86a03078b2163cb9cf6d91ae8f1d8",
      "blockNumber": "0x21fe726",
      "gasUsed": "0x125a5b",
      "effectiveGasPrice": "0x1460ab670c",
      "from": "0x8de56f797ff4aa43224ac277f04d595a30f782d6",
      "to": "0x72eea00e0b9652db2d8d2eb4b72eadeba76440bd",
      "contractAddress": null
    },
    {
      "status": "0x1",
      "cumulativeGasUsed": "0x980992",
      "logs": [
        {
          "address": "0x429862f1fbd621d15c48f1e16e6301f322e7ccae",
          "topics": [
            "0xddf252ad1be2c89b69c2b068fc378daa952ba7f163c4a11628f55a4df523b3ef",
            "0x0000000000000000000000000000000000000000000000000000000000000000",
            "0x000000000000000000000000429862f1fbd621d15c48f1e16e6301f322e7ccae",
            "0x0000000000000000000000000000000000000000000000000000000000000000"
          ],
          "data": "0x",
          "blockHash": "0x99035c760884be865f4b2ec133d4cc4d27d86a03078b2163cb9cf6d91ae8f1d8",
          "blockNumber": "0x21fe726",
          "blockTimestamp": "0x69c37847",
          "transactionHash": "0x688bca7ee391e6a409bea85ddf96fbcbac31c10deecc4115e3894c0afe382de2",
          "transactionIndex": "0x5",
          "logIndex": "0x13",
          "removed": false
        },
        {
          "address": "0x429862f1fbd621d15c48f1e16e6301f322e7ccae",
          "topics": [
            "0xddf252ad1be2c89b69c2b068fc378daa952ba7f163c4a11628f55a4df523b3ef",
            "0x0000000000000000000000000000000000000000000000000000000000000000",
            "0x000000000000000000000000429862f1fbd621d15c48f1e16e6301f322e7ccae",
            "0x0000000000000000000000000000000000000000000000000000000000000001"
          ],
          "data": "0x",
          "blockHash": "0x99035c760884be865f4b2ec133d4cc4d27d86a03078b2163cb9cf6d91ae8f1d8",
          "blockNumber": "0x21fe726",
          "blockTimestamp": "0x69c37847",
          "transactionHash": "0x688bca7ee391e6a409bea85ddf96fbcbac31c10deecc4115e3894c0afe382de2",
          "transactionIndex": "0x5",
          "logIndex": "0x14",
          "removed": false
        },
        {
          "address": "0x429862f1fbd621d15c48f1e16e6301f322e7ccae",
          "topics": [
            "0xddf252ad1be2c89b69c2b068fc378daa952ba7f163c4a11628f55a4df523b3ef",
            "0x0000000000000000000000000000000000000000000000000000000000000000",
            "0x000000000000000000000000429862f1fbd621d15c48f1e16e6301f322e7ccae",
            "0x0000000000000000000000000000000000000000000000000000000000000002"
          ],
          "data": "0x",
          "blockHash": "0x99035c760884be865f4b2ec133d4cc4d27d86a03078b2163cb9cf6d91ae8f1d8",
          "blockNumber": "0x21fe726",
          "blockTimestamp": "0x69c37847",
          "transactionHash": "0x688bca7ee391e6a409bea85ddf96fbcbac31c10deecc4115e3894c0afe382de2",
          "transactionIndex": "0x5",
          "logIndex": "0x15",
          "removed": false
        },
        {
          "address": "0x429862f1fbd621d15c48f1e16e6301f322e7ccae",
          "topics": [
            "0xddf252ad1be2c89b69c2b068fc378daa952ba7f163c4a11628f55a4df523b3ef",
            "0x0000000000000000000000000000000000000000000000000000000000000000",
            "0x000000000000000000000000429862f1fbd621d15c48f1e16e6301f322e7ccae",
            "0x0000000000000000000000000000000000000000000000000000000000000003"
          ],
          "data": "0x",
          "blockHash": "0x99035c760884be865f4b2ec133d4cc4d27d86a03078b2163cb9cf6d91ae8f1d8",
          "blockNumber": "0x21fe726",
          "blockTimestamp": "0x69c37847",
          "transactionHash": "0x688bca7ee391e6a409bea85ddf96fbcbac31c10deecc4115e3894c0afe382de2",
          "transactionIndex": "0x5",
          "logIndex": "0x16",
          "removed": false
        },
        {
          "address": "0x429862f1fbd621d15c48f1e16e6301f322e7ccae",
          "topics": [
            "0xddf252ad1be2c89b69c2b068fc378daa952ba7f163c4a11628f55a4df523b3ef",
            "0x0000000000000000000000000000000000000000000000000000000000000000",
            "0x000000000000000000000000429862f1fbd621d15c48f1e16e6301f322e7ccae",
            "0x0000000000000000000000000000000000000000000000000000000000000004"
          ],
          "data": "0x",
          "blockHash": "0x99035c760884be865f4b2ec133d4cc4d27d86a03078b2163cb9cf6d91ae8f1d8",
          "blockNumber": "0x21fe726",
          "blockTimestamp": "0x69c37847",
          "transactionHash": "0x688bca7ee391e6a409bea85ddf96fbcbac31c10deecc4115e3894c0afe382de2",
          "transactionIndex": "0x5",
          "logIndex": "0x17",
          "removed": false
        },
        {
          "address": "0x429862f1fbd621d15c48f1e16e6301f322e7ccae",
          "topics": [
            "0xddf252ad1be2c89b69c2b068fc378daa952ba7f163c4a11628f55a4df523b3ef",
            "0x0000000000000000000000000000000000000000000000000000000000000000",
            "0x000000000000000000000000429862f1fbd621d15c48f1e16e6301f322e7ccae",
            "0x0000000000000000000000000000000000000000000000000000000000000005"
          ],
          "data": "0x",
          "blockHash": "0x99035c760884be865f4b2ec133d4cc4d27d86a03078b2163cb9cf6d91ae8f1d8",
          "blockNumber": "0x21fe726",
          "blockTimestamp": "0x69c37847",
          "transactionHash": "0x688bca7ee391e6a409bea85ddf96fbcbac31c10deecc4115e3894c0afe382de2",
          "transactionIndex": "0x5",
          "logIndex": "0x18",
          "removed": false
        },
        {
          "address": "0x429862f1fbd621d15c48f1e16e6301f322e7ccae",
          "topics": [
            "0xddf252ad1be2c89b69c2b068fc378daa952ba7f163c4a11628f55a4df523b3ef",
            "0x0000000000000000000000000000000000000000000000000000000000000000",
            "0x000000000000000000000000429862f1fbd621d15c48f1e16e6301f322e7ccae",
            "0x0000000000000000000000000000000000000000000000000000000000000006"
          ],
          "data": "0x",
          "blockHash": "0x99035c760884be865f4b2ec133d4cc4d27d86a03078b2163cb9cf6d91ae8f1d8",
          "blockNumber": "0x21fe726",
          "blockTimestamp": "0x69c37847",
          "transactionHash": "0x688bca7ee391e6a409bea85ddf96fbcbac31c10deecc4115e3894c0afe382de2",
          "transactionIndex": "0x5",
          "logIndex": "0x19",
          "removed": false
        },
        {
          "address": "0x429862f1fbd621d15c48f1e16e6301f322e7ccae",
          "topics": [
            "0xddf252ad1be2c89b69c2b068fc378daa952ba7f163c4a11628f55a4df523b3ef",
            "0x0000000000000000000000000000000000000000000000000000000000000000",
            "0x000000000000000000000000429862f1fbd621d15c48f1e16e6301f322e7ccae",
            "0x0000000000000000000000000000000000000000000000000000000000000007"
          ],
          "data": "0x",
          "blockHash": "0x99035c760884be865f4b2ec133d4cc4d27d86a03078b2163cb9cf6d91ae8f1d8",
          "blockNumber": "0x21fe726",
          "blockTimestamp": "0x69c37847",
          "transactionHash": "0x688bca7ee391e6a409bea85ddf96fbcbac31c10deecc4115e3894c0afe382de2",
          "transactionIndex": "0x5",
          "logIndex": "0x1a",
          "removed": false
        },
        {
          "address": "0x429862f1fbd621d15c48f1e16e6301f322e7ccae",
          "topics": [
            "0xddf252ad1be2c89b69c2b068fc378daa952ba7f163c4a11628f55a4df523b3ef",
            "0x0000000000000000000000000000000000000000000000000000000000000000",
            "0x000000000000000000000000429862f1fbd621d15c48f1e16e6301f322e7ccae",
            "0x0000000000000000000000000000000000000000000000000000000000000008"
          ],
          "data": "0x",
          "blockHash": "0x99035c760884be865f4b2ec133d4cc4d27d86a03078b2163cb9cf6d91ae8f1d8",
          "blockNumber": "0x21fe726",
          "blockTimestamp": "0x69c37847",
          "transactionHash": "0x688bca7ee391e6a409bea85ddf96fbcbac31c10deecc4115e3894c0afe382de2",
          "transactionIndex": "0x5",
          "logIndex": "0x1b",
          "removed": false
        },
        {
          "address": "0x429862f1fbd621d15c48f1e16e6301f322e7ccae",
          "topics": [
            "0xddf252ad1be2c89b69c2b068fc378daa952ba7f163c4a11628f55a4df523b3ef",
            "0x0000000000000000000000000000000000000000000000000000000000000000",
            "0x000000000000000000000000429862f1fbd621d15c48f1e16e6301f322e7ccae",
            "0x0000000000000000000000000000000000000000000000000000000000000009"
          ],
          "data": "0x",
          "blockHash": "0x99035c760884be865f4b2ec133d4cc4d27d86a03078b2163cb9cf6d91ae8f1d8",
          "blockNumber": "0x21fe726",
          "blockTimestamp": "0x69c37847",
          "transactionHash": "0x688bca7ee391e6a409bea85ddf96fbcbac31c10deecc4115e3894c0afe382de2",
          "transactionIndex": "0x5",
          "logIndex": "0x1c",
          "removed": false
        },
        {
          "address": "0x429862f1fbd621d15c48f1e16e6301f322e7ccae",
          "topics": [
            "0xddf252ad1be2c89b69c2b068fc378daa952ba7f163c4a11628f55a4df523b3ef",
            "0x0000000000000000000000000000000000000000000000000000000000000000",
            "0x000000000000000000000000429862f1fbd621d15c48f1e16e6301f322e7ccae",
            "0x000000000000000000000000000000000000000000000000000000000000000a"
          ],
          "data": "0x",
          "blockHash": "0x99035c760884be865f4b2ec133d4cc4d27d86a03078b2163cb9cf6d91ae8f1d8",
          "blockNumber": "0x21fe726",
          "blockTimestamp": "0x69c37847",
          "transactionHash": "0x688bca7ee391e6a409bea85ddf96fbcbac31c10deecc4115e3894c0afe382de2",
          "transactionIndex": "0x5",
          "logIndex": "0x1d",
          "removed": false
        },
        {
          "address": "0x429862f1fbd621d15c48f1e16e6301f322e7ccae",
          "topics": [
            "0xddf252ad1be2c89b69c2b068fc378daa952ba7f163c4a11628f55a4df523b3ef",
            "0x0000000000000000000000000000000000000000000000000000000000000000",
            "0x000000000000000000000000429862f1fbd621d15c48f1e16e6301f322e7ccae",
            "0x000000000000000000000000000000000000000000000000000000000000000b"
          ],
          "data": "0x",
          "blockHash": "0x99035c760884be865f4b2ec133d4cc4d27d86a03078b2163cb9cf6d91ae8f1d8",
          "blockNumber": "0x21fe726",
          "blockTimestamp": "0x69c37847",
          "transactionHash": "0x688bca7ee391e6a409bea85ddf96fbcbac31c10deecc4115e3894c0afe382de2",
          "transactionIndex": "0x5",
          "logIndex": "0x1e",
          "removed": false
        },
        {
          "address": "0x0000000000000000000000000000000000001010",
          "topics": [
            "0x4dfe1bbbcf077ddc3e01291eea2d5c70c2b422b415d95645b9adcfd678cb1d63",
            "0x0000000000000000000000000000000000000000000000000000000000001010",
            "0x0000000000000000000000008de56f797ff4aa43224ac277f04d595a30f782d6",
            "0x0000000000000000000000007ee41d8a25641000661b1ef5e6ae8a00400466b0"
          ],
          "data": "0x000000000000000000000000000000000000000000000000054b3876bf427313000000000000000000000000000000000000000000000004a55ebb177f6ae6c10000000000000000000000000000000000000000000031bfe02d254aa329842e000000000000000000000000000000000000000000000004a01382a0c02873ae0000000000000000000000000000000000000000000031bfe5785dc1626bf741",
          "blockHash": "0x99035c760884be865f4b2ec133d4cc4d27d86a03078b2163cb9cf6d91ae8f1d8",
          "blockNumber": "0x21fe726",
          "blockTimestamp": "0x69c37847",
          "transactionHash": "0x688bca7ee391e6a409bea85ddf96fbcbac31c10deecc4115e3894c0afe382de2",
          "transactionIndex": "0x5",
          "logIndex": "0x1f",
          "removed": false
        }
      ],
      "logsBloom": "0x04000000000000000000004000000000000000000000000000004000004000000000000000000000000000000000400000109000060480000020000000240000000030000000000000000008000000800000000000040000000100000000000008000000020000000400000000000800000000020000000080000010000000000080000400000000030000000400001000001800000000000000000000000000200000000000000000000100000000000000000000800000002000080000404040000002000000000001000000000000002000408000000000100100004060000000000000000000000000000000000000000000008000040000000000902000",
      "type": "0x0",
      "transactionHash": "0x688bca7ee391e6a409bea85ddf96fbcbac31c10deecc4115e3894c0afe382de2",
      "transactionIndex": "0x5",
      "blockHash": "0x99035c760884be865f4b2ec133d4cc4d27d86a03078b2163cb9cf6d91ae8f1d8",
      "blockNumber": "0x21fe726",
      "gasUsed": "0x42815f",
      "effectiveGasPrice": "0x1460ab670c",
      "from": "0x8de56f797ff4aa43224ac277f04d595a30f782d6",
      "to": "0x429862f1fbd621d15c48f1e16e6301f322e7ccae",
      "contractAddress": null
    },
    {
      "status": "0x1",
      "cumulativeGasUsed": "0x9aca2e",
      "logs": [
        {
          "address": "0x0000000000000000000000000000000000001010",
          "topics": [
            "0x4dfe1bbbcf077ddc3e01291eea2d5c70c2b422b415d95645b9adcfd678cb1d63",
            "0x0000000000000000000000000000000000000000000000000000000000001010",
            "0x0000000000000000000000008de56f797ff4aa43224ac277f04d595a30f782d6",
            "0x0000000000000000000000007ee41d8a25641000661b1ef5e6ae8a00400466b0"
          ],
          "data": "0x00000000000000000000000000000000000000000000000000381642432664ec000000000000000000000000000000000000000000000004a01382a0afca9d4d0000000000000000000000000000000000000000000031bfe5785dc1626bf7410000000000000000000000000000000000000000000000049fdb6c5e6ca438610000000000000000000000000000000000000000000031bfe5b07403a5925c2d",
          "blockHash": "0x99035c760884be865f4b2ec133d4cc4d27d86a03078b2163cb9cf6d91ae8f1d8",
          "blockNumber": "0x21fe726",
          "blockTimestamp": "0x69c37847",
          "transactionHash": "0x722e10aa6229a71b7c6fa0d883bd449eac53fb930f96d0e6db6fb315d90f28de",
          "transactionIndex": "0x6",
          "logIndex": "0x20",
          "removed": false
        }
      ],
      "logsBloom": "0x00000000000000000000000000000000000000000000000000000000004000000000000000000000000000000000000000008000000000000000000000000000000000000000000000000000000000800000000000000000000100000000000000000000000000000400000000000000000000000000000080000000000000000000000000000000020000000400000000000000000000000000000000000000200000000000000000000000000000000000000000000000000000000000004000000000000000000001000000000000000000400000000000100000004000000000000000000000000000000000000000000000000000000000000000100000",
      "type": "0x0",
      "transactionHash": "0x722e10aa6229a71b7c6fa0d883bd449eac53fb930f96d0e6db6fb315d90f28de",
      "transactionIndex": "0x6",
      "blockHash": "0x99035c760884be865f4b2ec133d4cc4d27d86a03078b2163cb9cf6d91ae8f1d8",
      "blockNumber": "0x21fe726",
      "gasUsed": "0x2c09c",
      "effectiveGasPrice": "0x1460ab670c",
      "from": "0x8de56f797ff4aa43224ac277f04d595a30f782d6",
      "to": "0xda5b47f758f19bb02cc9bd8aac3dc0b9e7e7ffc7",
      "contractAddress": null
    },
    {
      "status": "0x1",
      "cumulativeGasUsed": "0x9df64e",
      "logs": [
        {
          "address": "0x0000000000000000000000000000000000001010",
          "topics": [
            "0x4dfe1bbbcf077ddc3e01291eea2d5c70c2b422b415d95645b9adcfd678cb1d63",
            "0x0000000000000000000000000000000000000000000000000000000000001010",
            "0x0000000000000000000000008de56f797ff4aa43224ac277f04d595a30f782d6",
            "0x0000000000000000000000007ee41d8a25641000661b1ef5e6ae8a00400466b0"
          ],
          "data": "0x0000000000000000000000000000000000000000000000000040a52bbf7f15a00000000000000000000000000000000000000000000000049fdb6c5e6bf6d1fd0000000000000000000000000000000000000000000031bfe5b07403a5925c2d0000000000000000000000000000000000000000000000049f9ac732ac77bc5d0000000000000000000000000000000000000000000031bfe5f1192f651171cd",
          "blockHash": "0x99035c760884be865f4b2ec133d4cc4d27d86a03078b2163cb9cf6d91ae8f1d8",
          "blockNumber": "0x21fe726",
          "blockTimestamp": "0x69c37847",
          "transactionHash": "0x2879db7c4cf05054cbb241a4bfdc19f2b41f5a001e2b5b5e9eff93d69cc53107",
          "transactionIndex": "0x7",
          "logIndex": "0x21",
          "removed": false
        }
      ],
      "logsBloom": "0x00000000000000000000000000000000000000000000000000000000004000000000000000000000000000000000000000008000000000000000000000000000000000000000000000000000000000800000000000000000000100000000000000000000000000000400000000000000000000000000000080000000000000000000000000000000020000000400000000000000000000000000000000000000200000000000000000000000000000000000000000000000000000000000004000000000000000000001000000000000000000400000000000100000004000000000000000000000000000000000000000000000000000000000000000100000",
      "type": "0x0",
      "transactionHash": "0x2879db7c4cf05054cbb241a4bfdc19f2b41f5a001e2b5b5e9eff93d69cc53107",
      "transactionIndex": "0x7",
      "blockHash": "0x99035c760884be865f4b2ec133d4cc4d27d86a03078b2163cb9cf6d91ae8f1d8",
      "blockNumber": "0x21fe726",
      "gasUsed": "0x32c20",
      "effectiveGasPrice": "0x1460ab670c",
      "from": "0x8de56f797ff4aa43224ac277f04d595a30f782d6",
      "to": "0xda5b47f758f19bb02cc9bd8aac3dc0b9e7e7ffc7",
      "contractAddress": null
    },
    {
      "status": "0x1",
      "cumulativeGasUsed": "0xa1226e",
      "logs": [
        {
          "address": "0x0000000000000000000000000000000000001010",
          "topics": [
            "0x4dfe1bbbcf077ddc3e01291eea2d5c70c2b422b415d95645b9adcfd678cb1d63",
            "0x0000000000000000000000000000000000000000000000000000000000001010",
            "0x0000000000000000000000008de56f797ff4aa43224ac277f04d595a30f782d6",
            "0x0000000000000000000000007ee41d8a25641000661b1ef5e6ae8a00400466b0"
          ],
          "data": "0x0000000000000000000000000000000000000000000000000040a52bbf7f15a00000000000000000000000000000000000000000000000049f9ac732abafe07d0000000000000000000000000000000000000000000031bfe5f1192f651171cd0000000000000000000000000000000000000000000000049f5a2206ec30cadd0000000000000000000000000000000000000000000031bfe631be5b2490876d",
          "blockHash": "0x99035c760884be865f4b2ec133d4cc4d27d86a03078b2163cb9cf6d91ae8f1d8",
          "blockNumber": "0x21fe726",
          "blockTimestamp": "0x69c37847",
          "transactionHash": "0xff43df481f115babda8359546d4b186968def829b2d21ba472a244b2a46d0427",
          "transactionIndex": "0x8",
          "logIndex": "0x22",
          "removed": false
        }
      ],
      "logsBloom": "0x00000000000000000000000000000000000000000000000000000000004000000000000000000000000000000000000000008000000000000000000000000000000000000000000000000000000000800000000000000000000100000000000000000000000000000400000000000000000000000000000080000000000000000000000000000000020000000400000000000000000000000000000000000000200000000000000000000000000000000000000000000000000000000000004000000000000000000001000000000000000000400000000000100000004000000000000000000000000000000000000000000000000000000000000000100000",
      "type": "0x0",
      "transactionHash": "0xff43df481f115babda8359546d4b186968def829b2d21ba472a244b2a46d0427",
      "transactionIndex": "0x8",
      "blockHash": "0x99035c760884be865f4b2ec133d4cc4d27d86a03078b2163cb9cf6d91ae8f1d8",
      "blockNumber": "0x21fe726",
      "gasUsed": "0x32c20",
      "effectiveGasPrice": "0x1460ab670c",
      "from": "0x8de56f797ff4aa43224ac277f04d595a30f782d6",
      "to": "0xda5b47f758f19bb02cc9bd8aac3dc0b9e7e7ffc7",
      "contractAddress": null
    },
    {
      "status": "0x1",
      "cumulativeGasUsed": "0xa44e8e",
      "logs": [
        {
          "address": "0x0000000000000000000000000000000000001010",
          "topics": [
            "0x4dfe1bbbcf077ddc3e01291eea2d5c70c2b422b415d95645b9adcfd678cb1d63",
            "0x0000000000000000000000000000000000000000000000000000000000001010",
            "0x0000000000000000000000008de56f797ff4aa43224ac277f04d595a30f782d6",
            "0x0000000000000000000000007ee41d8a25641000661b1ef5e6ae8a00400466b0"
          ],
          "data": "0x0000000000000000000000000000000000000000000000000040a52bbf7f15a00000000000000000000000000000000000000000000000049f5a2206eb68eefd0000000000000000000000000000000000000000000031bfe631be5b2490876d0000000000000000000000000000000000000000000000049f197cdb2be9d95d0000000000000000000000000000000000000000000031bfe6726386e40f9d0d",
          "blockHash": "0x99035c760884be865f4b2ec133d4cc4d27d86a03078b2163cb9cf6d91ae8f1d8",
          "blockNumber": "0x21fe726",
          "blockTimestamp": "0x69c37847",
          "transactionHash": "0x42135a027731849aea3a057f0f962b25bcd6d6be5213618e3bec91ebdb831463",
          "transactionIndex": "0x9",
          "logIndex": "0x23",
          "removed": false
        }
      ],
      "logsBloom": "0x00000000000000000000000000000000000000000000000000000000004000000000000000000000000000000000000000008000000000000000000000000000000000000000000000000000000000800000000000000000000100000000000000000000000000000400000000000000000000000000000080000000000000000000000000000000020000000400000000000000000000000000000000000000200000000000000000000000000000000000000000000000000000000000004000000000000000000001000000000000000000400000000000100000004000000000000000000000000000000000000000000000000000000000000000100000",
      "type": "0x0",
      "transactionHash": "0x42135a027731849aea3a057f0f962b25bcd6d6be5213618e3bec91ebdb831463",
      "transactionIndex": "0x9",
      "blockHash": "0x99035c760884be865f4b2ec133d4cc4d27d86a03078b2163cb9cf6d91ae8f1d8",
      "blockNumber": "0x21fe726",
      "gasUsed": "0x32c20",
      "effectiveGasPrice": "0x1460ab670c",
      "from": "0x8de56f797ff4aa43224ac277f04d595a30f782d6",
      "to": "0xda5b47f758f19bb02cc9bd8aac3dc0b9e7e7ffc7",
      "contractAddress": null
    },
    {
      "status": "0x1",
      "cumulativeGasUsed": "0xa77a96",
      "logs": [
        {
          "address": "0x0000000000000000000000000000000000001010",
          "topics": [
            "0x4dfe1bbbcf077ddc3e01291eea2d5c70c2b422b415d95645b9adcfd678cb1d63",
            "0x0000000000000000000000000000000000000000000000000000000000001010",
            "0x0000000000000000000000008de56f797ff4aa43224ac277f04d595a30f782d6",
            "0x0000000000000000000000007ee41d8a25641000661b1ef5e6ae8a00400466b0"
          ],
          "data": "0x0000000000000000000000000000000000000000000000000040a342af6d72680000000000000000000000000000000000000000000000049f197cdb2b21fd7d0000000000000000000000000000000000000000000031bfe6726386e40f9d0d0000000000000000000000000000000000000000000000049ed8d9987bb48b150000000000000000000000000000000000000000000031bfe6b306c9937d0f75",
          "blockHash": "0x99035c760884be865f4b2ec133d4cc4d27d86a03078b2163cb9cf6d91ae8f1d8",
          "blockNumber": "0x21fe726",
          "blockTimestamp": "0x69c37847",
          "transactionHash": "0x27c2873dee4a5941ef8749540a16b4776edce79d3dc57abe26497045ce76e565",
          "transactionIndex": "0xa",
          "logIndex": "0x24",
          "removed": false
        }
      ],
      "logsBloom": "0x00000000000000000000000000000000000000000000000000000000004000000000000000000000000000000000000000008000000000000000000000000000000000000000000000000000000000800000000000000000000100000000000000000000000000000400000000000000000000000000000080000000000000000000000000000000020000000400000000000000000000000000000000000000200000000000000000000000000000000000000000000000000000000000004000000000000000000001000000000000000000400000000000100000004000000000000000000000000000000000000000000000000000000000000000100000",
      "type": "0x0",
      "transactionHash": "0x27c2873dee4a5941ef8749540a16b4776edce79d3dc57abe26497045ce76e565",
      "transactionIndex": "0xa",
      "blockHash": "0x99035c760884be865f4b2ec133d4cc4d27d86a03078b2163cb9cf6d91ae8f1d8",
      "blockNumber": "0x21fe726",
      "gasUsed": "0x32c08",
      "effectiveGasPrice": "0x1460ab670c",
      "from": "0x8de56f797ff4aa43224ac277f04d595a30f782d6",
      "to": "0xda5b47f758f19bb02cc9bd8aac3dc0b9e7e7ffc7",
      "contractAddress": null
    },
    {
      "status": "0x1",
      "cumulativeGasUsed": "0xaaa6b6",
      "logs": [
        {
          "address": "0x0000000000000000000000000000000000001010",
          "topics": [
            "0x4dfe1bbbcf077ddc3e01291eea2d5c70c2b422b415d95645b9adcfd678cb1d63",
            "0x0000000000000000000000000000000000000000000000000000000000001010",
            "0x0000000000000000000000008de56f797ff4aa43224ac277f04d595a30f782d6",
            "0x0000000000000000000000007ee41d8a25641000661b1ef5e6ae8a00400466b0"
          ],
          "data": "0x0000000000000000000000000000000000000000000000000040a52bbf7f15a00000000000000000000000000000000000000000000000049ed8d9987aecb51d0000000000000000000000000000000000000000000031bfe6b306c9937d0f750000000000000000000000000000000000000000000000049e98346cbb6d9f7d0000000000000000000000000000000000000000000031bfe6f3abf552fc2515",
          "blockHash": "0x99035c760884be865f4b2ec133d4cc4d27d86a03078b2163cb9cf6d91ae8f1d8",
          "blockNumber": "0x21fe726",
          "blockTimestamp": "0x69c37847",
          "transactionHash": "0x81a2b26f0c059de2b73676ccce90e13560b6daa69a26ee74c56097d5a119e329",
          "transactionIndex": "0xb",
          "logIndex": "0x25",
          "removed": false
        }
      ],
      "logsBloom": "0x00000000000000000000000000000000000000000000000000000000004000000000000000000000000000000000000000008000000000000000000000000000000000000000000000000000000000800000000000000000000100000000000000000000000000000400000000000000000000000000000080000000000000000000000000000000020000000400000000000000000000000000000000000000200000000000000000000000000000000000000000000000000000000000004000000000000000000001000000000000000000400000000000100000004000000000000000000000000000000000000000000000000000000000000000100000",
      "type": "0x0",
      "transactionHash": "0x81a2b26f0c059de2b73676ccce90e13560b6daa69a26ee74c56097d5a119e329",
      "transactionIndex": "0xb",
      "blockHash": "0x99035c760884be865f4b2ec133d4cc4d27d86a03078b2163cb9cf6d91ae8f1d8",
      "blockNumber": "0x21fe726",
      "gasUsed": "0x32c20",
      "effectiveGasPrice": "0x1460ab670c",
      "from": "0x8de56f797ff4aa43224ac277f04d595a30f782d6",
      "to": "0xda5b47f758f19bb02cc9bd8aac3dc0b9e7e7ffc7",
      "contractAddress": null
    },
    {
      "status": "0x1",
      "cumulativeGasUsed": "0xadd2d6",
      "logs": [
        {
          "address": "0x0000000000000000000000000000000000001010",
          "topics": [
            "0x4dfe1bbbcf077ddc3e01291eea2d5c70c2b422b415d95645b9adcfd678cb1d63",
            "0x0000000000000000000000000000000000000000000000000000000000001010",
            "0x0000000000000000000000008de56f797ff4aa43224ac277f04d595a30f782d6",
            "0x0000000000000000000000007ee41d8a25641000661b1ef5e6ae8a00400466b0"
          ],
          "data": "0x0000000000000000000000000000000000000000000000000040a52bbf7f15a00000000000000000000000000000000000000000000000049e98346cbaa5c39d0000000000000000000000000000000000000000000031bfe6f3abf552fc25150000000000000000000000000000000000000000000000049e578f40fb26adfd0000000000000000000000000000000000000000000031bfe7345121127b3ab5",
          "blockHash": "0x99035c760884be865f4b2ec133d4cc4d27d86a03078b2163cb9cf6d91ae8f1d8",
          "blockNumber": "0x21fe726",
          "blockTimestamp": "0x69c37847",
          "transactionHash": "0xfbf290fc386fa715093f87c0e7474c4fbe92896981acdc84f9871894caaca986",
          "transactionIndex": "0xc",
          "logIndex": "0x26",
          "removed": false
        }
      ],
      "logsBloom": "0x00000000000000000000000000000000000000000000000000000000004000000000000000000000000000000000000000008000000000000000000000000000000000000000000000000000000000800000000000000000000100000000000000000000000000000400000000000000000000000000000080000000000000000000000000000000020000000400000000000000000000000000000000000000200000000000000000000000000000000000000000000000000000000000004000000000000000000001000000000000000000400000000000100000004000000000000000000000000000000000000000000000000000000000000000100000",
      "type": "0x0",
      "transactionHash": "0xfbf290fc386fa715093f87c0e7474c4fbe92896981acdc84f9871894caaca986",
      "transactionIndex": "0xc",
      "blockHash": "0x99035c760884be865f4b2ec133d4cc4d27d86a03078b2163cb9cf6d91ae8f1d8",
      "blockNumber": "0x21fe726",
      "gasUsed": "0x32c20",
      "effectiveGasPrice": "0x1460ab670c",
      "from": "0x8de56f797ff4aa43224ac277f04d595a30f782d6",
      "to": "0xda5b47f758f19bb02cc9bd8aac3dc0b9e7e7ffc7",
      "contractAddress": null
    },
    {
      "status": "0x1",
      "cumulativeGasUsed": "0xb0fef6",
      "logs": [
        {
          "address": "0x0000000000000000000000000000000000001010",
          "topics": [
            "0x4dfe1bbbcf077ddc3e01291eea2d5c70c2b422b415d95645b9adcfd678cb1d63",
            "0x0000000000000000000000000000000000000000000000000000000000001010",
            "0x0000000000000000000000008de56f797ff4aa43224ac277f04d595a30f782d6",
            "0x0000000000000000000000007ee41d8a25641000661b1ef5e6ae8a00400466b0"
          ],
          "data": "0x0000000000000000000000000000000000000000000000000040a52bbf7f15a00000000000000000000000000000000000000000000000049e578f40fa5ed21d0000000000000000000000000000000000000000000031bfe7345121127b3ab50000000000000000000000000000000000000000000000049e16ea153adfbc7d0000000000000000000000000000000000000000000031bfe774f64cd1fa5055",
          "blockHash": "0x99035c760884be865f4b2ec133d4cc4d27d86a03078b2163cb9cf6d91ae8f1d8",
          "blockNumber": "0x21fe726",
          "blockTimestamp": "0x69c37847",
          "transactionHash": "0x8e22522d515823528fc0159284b945a40d87d1843a7a1e14c9b7079771763302",
          "transactionIndex": "0xd",
          "logIndex": "0x27",
          "removed": false
        }
      ],
      "logsBloom": "0x00000000000000000000000000000000000000000000000000000000004000000000000000000000000000000000000000008000000000000000000000000000000000000000000000000000000000800000000000000000000100000000000000000000000000000400000000000000000000000000000080000000000000000000000000000000020000000400000000000000000000000000000000000000200000000000000000000000000000000000000000000000000000000000004000000000000000000001000000000000000000400000000000100000004000000000000000000000000000000000000000000000000000000000000000100000",
      "type": "0x0",
      "transactionHash": "0x8e22522d515823528fc0159284b945a40d87d1843a7a1e14c9b7079771763302",
      "transactionIndex": "0xd",
      "blockHash": "0x99035c760884be865f4b2ec133d4cc4d27d86a03078b2163cb9cf6d91ae8f1d8",
      "blockNumber": "0x21fe726",
      "gasUsed": "0x32c20",
      "effectiveGasPrice": "0x1460ab670c",
      "from": "0x8de56f797ff4aa43224ac277f04d595a30f782d6",
      "to": "0xda5b47f758f19bb02cc9bd8aac3dc0b9e7e7ffc7",
      "contractAddress": null
    },
    {
      "status": "0x1",
      "cumulativeGasUsed": "0xb42b16",
      "logs": [
        {
          "address": "0x0000000000000000000000000000000000001010",
          "topics": [
            "0x4dfe1bbbcf077ddc3e01291eea2d5c70c2b422b415d95645b9adcfd678cb1d63",
            "0x0000000000000000000000000000000000000000000000000000000000001010",
            "0x0000000000000000000000008de56f797ff4aa43224ac277f04d595a30f782d6",
            "0x0000000000000000000000007ee41d8a25641000661b1ef5e6ae8a00400466b0"
          ],
          "data": "0x0000000000000000000000000000000000000000000000000040a52bbf7f15a00000000000000000000000000000000000000000000000049e16ea153a17e09d0000000000000000000000000000000000000000000031bfe774f64cd1fa50550000000000000000000000000000000000000000000000049dd644e97a98cafd0000000000000000000000000000000000000000000031bfe7b59b78917965f5",
          "blockHash": "0x99035c760884be865f4b2ec133d4cc4d27d86a03078b2163cb9cf6d91ae8f1d8",
          "blockNumber": "0x21fe726",
          "blockTimestamp": "0x69c37847",
          "transactionHash": "0x2a8b41b779335f05d274604cd22e8876f35e4cb841eff9f43180b98888c23fc2",
          "transactionIndex": "0xe",
          "logIndex": "0x28",
          "removed": false
        }
      ],
      "logsBloom": "0x00000000000000000000000000000000000000000000000000000000004000000000000000000000000000000000000000008000000000000000000000000000000000000000000000000000000000800000000000000000000100000000000000000000000000000400000000000000000000000000000080000000000000000000000000000000020000000400000000000000000000000000000000000000200000000000000000000000000000000000000000000000000000000000004000000000000000000001000000000000000000400000000000100000004000000000000000000000000000000000000000000000000000000000000000100000",
      "type": "0x0",
      "transactionHash": "0x2a8b41b779335f05d274604cd22e8876f35e4cb841eff9f43180b98888c23fc2",
      "transactionIndex": "0xe",
      "blockHash": "0x99035c760884be865f4b2ec133d4cc4d27d86a03078b2163cb9cf6d91ae8f1d8",
      "blockNumber": "0x21fe726",
      "gasUsed": "0x32c20",
      "effectiveGasPrice": "0x1460ab670c",
      "from": "0x8de56f797ff4aa43224ac277f04d595a30f782d6",
      "to": "0xda5b47f758f19bb02cc9bd8aac3dc0b9e7e7ffc7",
      "contractAddress": null
    },
    {
      "status": "0x1",
      "cumulativeGasUsed": "0xb7572a",
      "logs": [
        {
          "address": "0x0000000000000000000000000000000000001010",
          "topics": [
            "0x4dfe1bbbcf077ddc3e01291eea2d5c70c2b422b415d95645b9adcfd678cb1d63",
            "0x0000000000000000000000000000000000000000000000000000000000001010",
            "0x0000000000000000000000008de56f797ff4aa43224ac277f04d595a30f782d6",
            "0x0000000000000000000000007ee41d8a25641000661b1ef5e6ae8a00400466b0"
          ],
          "data": "0x0000000000000000000000000000000000000000000000000040a437377644040000000000000000000000000000000000000000000000049dd644e979d0ef1d0000000000000000000000000000000000000000000031bfe7b59b78917965f50000000000000000000000000000000000000000000000049d95a0b2425aab190000000000000000000000000000000000000000000031bfe7f63fafc8efa9f9",
          "blockHash": "0x99035c760884be865f4b2ec133d4cc4d27d86a03078b2163cb9cf6d91ae8f1d8",
          "blockNumber": "0x21fe726",
          "blockTimestamp": "0x69c37847",
          "transactionHash": "0xb35f4976f80b92186e902b2585e4073b0e4fc043107a431dbecd0fad5ef458a7",
          "transactionIndex": "0xf",
          "logIndex": "0x29",
          "removed": false
        }
      ],
      "logsBloom": "0x00000000000000000000000000000000000000000000000000000000004000000000000000000000000000000000000000008000000000000000000000000000000000000000000000000000000000800000000000000000000100000000000000000000000000000400000000000000000000000000000080000000000000000000000000000000020000000400000000000000000000000000000000000000200000000000000000000000000000000000000000000000000000000000004000000000000000000001000000000000000000400000000000100000004000000000000000000000000000000000000000000000000000000000000000100000",
      "type": "0x0",
      "transactionHash": "0xb35f4976f80b92186e902b2585e4073b0e4fc043107a431dbecd0fad5ef458a7",
      "transactionIndex": "0xf",
      "blockHash": "0x99035c760884be865f4b2ec133d4cc4d27d86a03078b2163cb9cf6d91ae8f1d8",
      "blockNumber": "0x21fe726",
      "gasUsed": "0x32c14",
      "effectiveGasPrice": "0x1460ab670c",
      "from": "0x8de56f797ff4aa43224ac277f04d595a30f782d6",
      "to": "0xda5b47f758f19bb02cc9bd8aac3dc0b9e7e7ffc7",
      "contractAddress": null
    },
    {
      "status": "0x1",
      "cumulativeGasUsed": "0xba834a",
      "logs": [
        {
          "address": "0x0000000000000000000000000000000000001010",
          "topics": [
            "0x4dfe1bbbcf077ddc3e01291eea2d5c70c2b422b415d95645b9adcfd678cb1d63",
            "0x0000000000000000000000000000000000000000000000000000000000001010",
            "0x0000000000000000000000008de56f797ff4aa43224ac277f04d595a30f782d6",
            "0x0000000000000000000000007ee41d8a25641000661b1ef5e6ae8a00400466b0"
          ],
          "data": "0x0000000000000000000000000000000000000000000000000040a52bbf7f15a00000000000000000000000000000000000000000000000049d95a0b24192d22d0000000000000000000000000000000000000000000031bfe7f63fafc8efa9f90000000000000000000000000000000000000000000000049d54fb868213bc8d0000000000000000000000000000000000000000000031bfe836e4db886ebf99",
          "blockHash": "0x99035c760884be865f4b2ec133d4cc4d27d86a03078b2163cb9cf6d91ae8f1d8",
          "blockNumber": "0x21fe726",
          "blockTimestamp": "0x69c37847",
          "transactionHash": "0x472b29e3ee9326e670740a235a6be8593acd6a7558785596ef79d80b1f796b43",
          "transactionIndex": "0x10",
          "logIndex": "0x2a",
          "removed": false
        }
      ],
      "logsBloom": "0x00000000000000000000000000000000000000000000000000000000004000000000000000000000000000000000000000008000000000000000000000000000000000000000000000000000000000800000000000000000000100000000000000000000000000000400000000000000000000000000000080000000000000000000000000000000020000000400000000000000000000000000000000000000200000000000000000000000000000000000000000000000000000000000004000000000000000000001000000000000000000400000000000100000004000000000000000000000000000000000000000000000000000000000000000100000",
      "type": "0x0",
      "transactionHash": "0x472b29e3ee9326e670740a235a6be8593acd6a7558785596ef79d80b1f796b43",
      "transactionIndex": "0x10",
      "blockHash": "0x99035c760884be865f4b2ec133d4cc4d27d86a03078b2163cb9cf6d91ae8f1d8",
      "blockNumber": "0x21fe726",
      "gasUsed": "0x32c20",
      "effectiveGasPrice": "0x1460ab670c",
      "from": "0x8de56f797ff4aa43224ac277f04d595a30f782d6",
      "to": "0xda5b47f758f19bb02cc9bd8aac3dc0b9e7e7ffc7",
      "contractAddress": null
    },
    {
      "status": "0x1",
      "cumulativeGasUsed": "0xbdaf6a",
      "logs": [
        {
          "address": "0x0000000000000000000000000000000000001010",
          "topics": [
            "0x4dfe1bbbcf077ddc3e01291eea2d5c70c2b422b415d95645b9adcfd678cb1d63",
            "0x0000000000000000000000000000000000000000000000000000000000001010",
            "0x0000000000000000000000008de56f797ff4aa43224ac277f04d595a30f782d6",
            "0x0000000000000000000000007ee41d8a25641000661b1ef5e6ae8a00400466b0"
          ],
          "data": "0x0000000000000000000000000000000000000000000000000040a52bbf7f15a00000000000000000000000000000000000000000000000049d54fb86814be0ad0000000000000000000000000000000000000000000031bfe836e4db886ebf990000000000000000000000000000000000000000000000049d14565ac1cccb0d0000000000000000000000000000000000000000000031bfe8778a0747edd539",
          "blockHash": "0x99035c760884be865f4b2ec133d4cc4d27d86a03078b2163cb9cf6d91ae8f1d8",
          "blockNumber": "0x21fe726",
          "blockTimestamp": "0x69c37847",
          "transactionHash": "0x696767fcfa13131e698f876e1e415a7cdf80940bdc36acd329f7a372e3d1835e",
          "transactionIndex": "0x11",
          "logIndex": "0x2b",
          "removed": false
        }
      ],
      "logsBloom": "0x00000000000000000000000000000000000000000000000000000000004000000000000000000000000000000000000000008000000000000000000000000000000000000000000000000000000000800000000000000000000100000000000000000000000000000400000000000000000000000000000080000000000000000000000000000000020000000400000000000000000000000000000000000000200000000000000000000000000000000000000000000000000000000000004000000000000000000001000000000000000000400000000000100000004000000000000000000000000000000000000000000000000000000000000000100000",
      "type": "0x0",
      "transactionHash": "0x696767fcfa13131e698f876e1e415a7cdf80940bdc36acd329f7a372e3d1835e",
      "transactionIndex": "0x11",
      "blockHash": "0x99035c760884be865f4b2ec133d4cc4d27d86a03078b2163cb9cf6d91ae8f1d8",
      "blockNumber": "0x21fe726",
      "gasUsed": "0x32c20",
      "effectiveGasPrice": "0x1460ab670c",
      "from": "0x8de56f797ff4aa43224ac277f04d595a30f782d6",
      "to": "0xda5b47f758f19bb02cc9bd8aac3dc0b9e7e7ffc7",
      "contractAddress": null
    }
  ],
  "libraries": [
    "src/GameLib.sol:GameLib:0x89c022ccd1086ccBa07E4F83b79312369B28EB48"
  ],
  "pending": [],
  "returns": {},
  "timestamp": 1774417991470,
  "chain": 80002,
  "commit": "8ef0dd2"
}