{
  "transactions": [
    {
      "hash": "0xa3f3e0a9116b308736ff845c59cc12ff3c6a0d934f99e0e1c7215919311654ac",
      "transactionType": "CALL",
      "contractName": null,
      "contractAddress": "0x3c3d2552bbdfeea59c85b619a24afe2472c69945",
      "function": "joinMatch(uint256,uint256,uint8)",
      "arguments": [
        "0",
        "0",
        "0"
      ],
      "transaction": {
        "from": "0x8de56f797ff4aa43224ac277f04d595a30f782d6",
        "to": "0x3c3d2552bbdfeea59c85b619a24afe2472c69945",
        "gas": "0x2595c",
        "value": "0x6f05b59d3b200000",
        "input": "0xbff89c2a000000000000000000000000000000000000000000000000000000000000000000000000000000000000000000000000000000000000000000000000000000000000000000000000000000000000000000000000000000000000000000000000",
        "nonce": "0xd0",
        "chainId": "0x13882"
      },
      "additionalContracts": [],
      "isFixedGasLimit": false
    },
    {
      "hash": "0x48c68eb6ca9fc0c2659a4ae87432ad64785ca474729837f318b667e08f0fd666",
      "transactionType": "CALL",
      "contractName": null,
      "contractAddress": "0x3c3d2552bbdfeea59c85b619a24afe2472c69945",
      "function": "joinMatch(uint256,uint256,uint8)",
      "arguments": [
        "1",
        "1",
        "0"
      ],
      "transaction": {
        "from": "0xc15bd2eae18fca607c7a0446ff646cbd1055ab67",
        "to": "0x3c3d2552bbdfeea59c85b619a24afe2472c69945",
        "gas": "0x2ed5d",
        "value": "0x6f05b59d3b200000",
        "input": "0xbff89c2a000000000000000000000000000000000000000000000000000000000000000100000000000000000000000000000000000000000000000000000000000000010000000000000000000000000000000000000000000000000000000000000000",
        "nonce": "0x20",
        "chainId": "0x13882"
      },
      "additionalContracts": [],
      "isFixedGasLimit": false
    },
    {
      "hash": "0xb515d93870b70e9459e594f7aafc87d98aad2980f32fb60c16464778aaac284f",
      "transactionType": "CALL",
      "contractName": null,
      "contractAddress": "0x3c3d2552bbdfeea59c85b619a24afe2472c69945",
      "function": "joinMatch(uint256,uint256,uint8)",
      "arguments": [
        "2",
        "2",
        "0"
      ],
      "transaction": {
        "from": "0x0ec7f965127e4c57db223956b6b8f44ae57df704",
        "to": "0x3c3d2552bbdfeea59c85b619a24afe2472c69945",
        "gas": "0x2ed5d",
        "value": "0x6f05b59d3b200000",
        "input": "0xbff89c2a000000000000000000000000000000000000000000000000000000000000000200000000000000000000000000000000000000000000000000000000000000020000000000000000000000000000000000000000000000000000000000000000",
        "nonce": "0x23",
        "chainId": "0x13882"
      },
      "additionalContracts": [],
      "isFixedGasLimit": false
    },
    {
      "hash": "0x92959336b0bb89ab710fce9c46158a02852a90e3416a29a658249401473f7c66",
      "transactionType": "CALL",
      "contractName": null,
      "contractAddress": "0x3c3d2552bbdfeea59c85b619a24afe2472c69945",
      "function": "joinMatch(uint256,uint256,uint8)",
      "arguments": [
        "3",
        "3",
        "0"
      ],
      "transaction": {
        "from": "0xd58f3f6fff4e15caa04bedafe664b1c65803183b",
        "to": "0x3c3d2552bbdfeea59c85b619a24afe2472c69945",
        "gas": "0x2ed5d",
        "value": "0x6f05b59d3b200000",
        "input": "0xbff89c2a000000000000000000000000000000000000000000000000000000000000000300000000000000000000000000000000000000000000000000000000000000030000000000000000000000000000000000000000000000000000000000000000",
        "nonce": "0x22",
        "chainId": "0x13882"
      },
      "additionalContracts": [],
      "isFixedGasLimit": false
    },
    {
      "hash": "0xfb620800ddc934091cc9c8c56a17aad39888238ce98f6e331cf94ade70939f93",
      "transactionType": "CALL",
      "contractName": null,
      "contractAddress": "0x3c3d2552bbdfeea59c85b619a24afe2472c69945",
      "function": "joinMatch(uint256,uint256,uint8)",
      "arguments": [
        "4",
        "4",
        "0"
      ],
      "transaction": {
        "from": "0xc0ddfaf6c73c06f5ccc36670deb59a2ee0dfc19c",
        "to": "0x3c3d2552bbdfeea59c85b619a24afe2472c69945",
        "gas": "0x2ed5d",
        "value": "0x6f05b59d3b200000",
        "input": "0xbff89c2a000000000000000000000000000000000000000000000000000000000000000400000000000000000000000000000000000000000000000000000000000000040000000000000000000000000000000000000000000000000000000000000000",
        "nonce": "0x26",
        "chainId": "0x13882"
      },
      "additionalContracts": [],
      "isFixedGasLimit": false
    },
    {
      "hash": "0x11649549cfcf997572f2eef826abfc3e0f04bbedaaaeec9958e519d506bc73dd",
      "transactionType": "CALL",
      "contractName": null,
      "contractAddress": "0x3c3d2552bbdfeea59c85b619a24afe2472c69945",
      "function": "joinMatch(uint256,uint256,uint8)",
      "arguments": [
        "5",
        "5",
        "0"
      ],
      "transaction": {
        "from": "0x0cefb748b5afebc47dbe7ea934916cb14ac8e678",
        "to": "0x3c3d2552bbdfeea59c85b619a24afe2472c69945",
        "gas": "0x2ed5d",
        "value": "0x6f05b59d3b200000",
        "input": "0xbff89c2a000000000000000000000000000000000000000000000000000000000000000500000000000000000000000000000000000000000000000000000000000000050000000000000000000000000000000000000000000000000000000000000000",
        "nonce": "0x1d",
        "chainId": "0x13882"
      },
      "additionalContracts": [],
      "isFixedGasLimit": false
    },
    {
      "hash": "0x1594b372cc2999ad1123127719a5d3137388fb36fbe793497de8f45b045254a4",
      "transactionType": "CALL",
      "contractName": null,
      "contractAddress": "0x3c3d2552bbdfeea59c85b619a24afe2472c69945",
      "function": "joinMatch(uint256,uint256,uint8)",
      "arguments": [
        "6",
        "6",
        "0"
      ],
      "transaction": {
        "from": "0xfa0e503051f60c5e1c4a712c84d53961195eb96a",
        "to": "0x3c3d2552bbdfeea59c85b619a24afe2472c69945",
        "gas": "0x2ed5d",
        "value": "0x6f05b59d3b200000",
        "input": "0xbff89c2a000000000000000000000000000000000000000000000000000000000000000600000000000000000000000000000000000000000000000000000000000000060000000000000000000000000000000000000000000000000000000000000000",
        "nonce": "0x20",
        "chainId": "0x13882"
      },
      "additionalContracts": [],
      "isFixedGasLimit": false
    },
    {
      "hash": "0xf731037d2e1dadaba641d016107fdb6e2233338cd326db85fe2360aa27837fe6",
      "transactionType": "CALL",
      "contractName": null,
      "contractAddress": "0x3c3d2552bbdfeea59c85b619a24afe2472c69945",
      "function": "joinMatch(uint256,uint256,uint8)",
      "arguments": [
        "7",
        "7",
        "0"
      ],
      "transaction": {
        "from": "0x0b00144644ba73e8f83ccdcad5c838ccf9fdc581",
        "to": "0x3c3d2552bbdfeea59c85b619a24afe2472c69945",
        "gas": "0x2ed5d",
        "value": "0x6f05b59d3b200000",
        "input": "0xbff89c2a000000000000000000000000000000000000000000000000000000000000000700000000000000000000000000000000000000000000000000000000000000070000000000000000000000000000000000000000000000000000000000000000",
        "nonce": "0x1e",
        "chainId": "0x13882"
      },
      "additionalContracts": [],
      "isFixedGasLimit": false
    },
    {
      "hash": "0xbff96db182d0d161d6ae97cc4664de9ee64cc212f54f1f23cf305ba176b464a9",
      "transactionType": "CALL",
      "contractName": null,
      "contractAddress": "0x0cd7c44903b6d09b1e910a0c625be8fe8746d3c3",
      "function": "manualExecute(uint256)",
      "arguments": [
        "7"
      ],
      "transaction": {
        "from": "0x8de56f797ff4aa43224ac277f04d595a30f782d6",
        "to": "0x0cd7c44903b6d09b1e910a0c625be8fe8746d3c3",
        "gas": "0xb767b4",
        "value": "0x0",
        "input": "0x5740f5800000000000000000000000000000000000000000000000000000000000000007",
        "nonce": "0xd1",
        "chainId": "0x13882"
      },
      "additionalContracts": [],
      "isFixedGasLimit": false
    }
  ],
  "receipts": [
    {
      "status": "0x1",
      "cumulativeGasUsed": "0x5e8de",
      "logs": [
        {
          "address": "0x0000000000000000000000000000000000001010",
          "topics": [
            "0xe6497e3ee548a3372136af2fcb0696db31fc6cf20260707645068bd3fe97f3c4",
            "0x0000000000000000000000000000000000000000000000000000000000001010",
            "0x0000000000000000000000008de56f797ff4aa43224ac277f04d595a30f782d6",
            "0x0000000000000000000000003c3d2552bbdfeea59c85b619a24afe2472c69945"
          ],
          "data": "0x0000000000000000000000000000000000000000000000006f05b59d3b200000000000000000000000000000000000000000000000000002f7b0c6819bc652f700000000000000000000000000000000000000000000000de0b6b3a76400000000000000000000000000000000000000000000000000000288ab10e460a652f700000000000000000000000000000000000000000000000e4fbc69449f200000",
          "blockHash": "0x03449170b94b7c58813ed05d49e367cef630e379fc06ab5992e6001574395182",
          "blockNumber": "0x21c40f0",
          "blockTimestamp": "0x69bc2bcd",
          "transactionHash": "0xa3f3e0a9116b308736ff845c59cc12ff3c6a0d934f99e0e1c7215919311654ac",
          "transactionIndex": "0x1",
          "logIndex": "0x3",
          "removed": false
        },
        {
          "address": "0x0000000000000000000000000000000000001010",
          "topics": [
            "0x4dfe1bbbcf077ddc3e01291eea2d5c70c2b422b415d95645b9adcfd678cb1d63",
            "0x0000000000000000000000000000000000000000000000000000000000001010",
            "0x0000000000000000000000008de56f797ff4aa43224ac277f04d595a30f782d6",
            "0x0000000000000000000000007ee41d8a25641000661b1ef5e6ae8a00400466b0"
          ],
          "data": "0x000000000000000000000000000000000000000000000000001ea1f8366c2d80000000000000000000000000000000000000000000000002f7db162f3f48520b000000000000000000000000000000000000000000002f532475f684f5335ba3000000000000000000000000000000000000000000000002f7bc743708dc248b000000000000000000000000000000000000000000002f532494987d2b9f8923",
          "blockHash": "0x03449170b94b7c58813ed05d49e367cef630e379fc06ab5992e6001574395182",
          "blockNumber": "0x21c40f0",
          "blockTimestamp": "0x69bc2bcd",
          "transactionHash": "0xa3f3e0a9116b308736ff845c59cc12ff3c6a0d934f99e0e1c7215919311654ac",
          "transactionIndex": "0x1",
          "logIndex": "0x4",
          "removed": false
        }
      ],
      "logsBloom": "0x00000000000000000000000000000000000000000000000000000000004000000000000000000000000000100000000000008000000000000000000000000000000000000000000000000000000000800000000000000000000100000000000000000000000000000400000000000000000000000000000080000000000000000000000000000000020000000400000000000000000000000000000000000000200000000000000000000000000000000000200000000000000000000000004000000000000000000001000000000000000000400000800000108000004000000000000000008000000000000000000000000000000800000000000000100000",
      "type": "0x2",
      "transactionHash": "0xa3f3e0a9116b308736ff845c59cc12ff3c6a0d934f99e0e1c7215919311654ac",
      "transactionIndex": "0x1",
      "blockHash": "0x03449170b94b7c58813ed05d49e367cef630e379fc06ab5992e6001574395182",
      "blockNumber": "0x21c40f0",
      "gasUsed": "0x1b360",
      "effectiveGasPrice": "0x120311b143",
      "from": "0x8de56f797ff4aa43224ac277f04d595a30f782d6",
      "to": "0x3c3d2552bbdfeea59c85b619a24afe2472c69945",
      "contractAddress": null
    },
    {
      "status": "0x1",
      "cumulativeGasUsed": "0x20063",
      "logs": [
        {
          "address": "0x0000000000000000000000000000000000001010",
          "topics": [
            "0xe6497e3ee548a3372136af2fcb0696db31fc6cf20260707645068bd3fe97f3c4",
            "0x0000000000000000000000000000000000000000000000000000000000001010",
            "0x000000000000000000000000c15bd2eae18fca607c7a0446ff646cbd1055ab67",
            "0x0000000000000000000000003c3d2552bbdfeea59c85b619a24afe2472c69945"
          ],
          "data": "0x0000000000000000000000000000000000000000000000006f05b59d3b2000000000000000000000000000000000000000000000000000012e5cc03716ed2bf100000000000000000000000000000000000000000000000e4fbc69449f200000000000000000000000000000000000000000000000000000bf570a99dbcd2bf100000000000000000000000000000000000000000000000ebec21ee1da400000",
          "blockHash": "0xeeb08bd016e381b52f89d11bec769b03ff809a32c0aa0c1986c2a75a2b35ae55",
          "blockNumber": "0x21c40f2",
          "blockTimestamp": "0x69bc2bd1",
          "transactionHash": "0x48c68eb6ca9fc0c2659a4ae87432ad64785ca474729837f318b667e08f0fd666",
          "transactionIndex": "0x0",
          "logIndex": "0x0",
          "removed": false
        },
        {
          "address": "0x0000000000000000000000000000000000001010",
          "topics": [
            "0x4dfe1bbbcf077ddc3e01291eea2d5c70c2b422b415d95645b9adcfd678cb1d63",
            "0x0000000000000000000000000000000000000000000000000000000000001010",
            "0x000000000000000000000000c15bd2eae18fca607c7a0446ff646cbd1055ab67",
            "0x0000000000000000000000007ee41d8a25641000661b1ef5e6ae8a00400466b0"
          ],
          "data": "0x00000000000000000000000000000000000000000000000000240d1a91df748c0000000000000000000000000000000000000000000000012e9179bcf7fb9848000000000000000000000000000000000000000000002f5325251a25449a8e5e0000000000000000000000000000000000000000000000012e6d6ca2661c23bc000000000000000000000000000000000000000000002f532549273fd67a02ea",
          "blockHash": "0xeeb08bd016e381b52f89d11bec769b03ff809a32c0aa0c1986c2a75a2b35ae55",
          "blockNumber": "0x21c40f2",
          "blockTimestamp": "0x69bc2bd1",
          "transactionHash": "0x48c68eb6ca9fc0c2659a4ae87432ad64785ca474729837f318b667e08f0fd666",
          "transactionIndex": "0x0",
          "logIndex": "0x1",
          "removed": false
        }
      ],
      "logsBloom": "0x00000000000000000000000000000000000000000000000000000000000000000800000000000000000000100000000000008000000000000000000000000000000000000000000000000000000000800000000000000000000100000000000000800000000000000000000000000010000000000000000080000000000000000000000000000000020000000400000000000000000000000000000000000000200000000000000000000000000000000000200000000000000000000000004000000000000000000001000000000000000000400000800000108000000000000000000000008000000000000000000000000000000800000000000000100000",
      "type": "0x2",
      "transactionHash": "0x48c68eb6ca9fc0c2659a4ae87432ad64785ca474729837f318b667e08f0fd666",
      "transactionIndex": "0x0",
      "blockHash": "0xeeb08bd016e381b52f89d11bec769b03ff809a32c0aa0c1986c2a75a2b35ae55",
      "blockNumber": "0x21c40f2",
      "gasUsed": "0x20063",
      "effectiveGasPrice": "0x120311b143",
      "from": "0xc15bd2eae18fca607c7a0446ff646cbd1055ab67",
      "to": "0x3c3d2552bbdfeea59c85b619a24afe2472c69945",
      "contractAddress": null
    },
    {
      "status": "0x1",
      "cumulativeGasUsed": "0x7d6a5",
      "logs": [
        {
          "address": "0x0000000000000000000000000000000000001010",
          "topics": [
            "0xe6497e3ee548a3372136af2fcb0696db31fc6cf20260707645068bd3fe97f3c4",
            "0x0000000000000000000000000000000000000000000000000000000000001010",
            "0x0000000000000000000000000ec7f965127e4c57db223956b6b8f44ae57df704",
            "0x0000000000000000000000003c3d2552bbdfeea59c85b619a24afe2472c69945"
          ],
          "data": "0x0000000000000000000000000000000000000000000000006f05b59d3b200000000000000000000000000000000000000000000000000000a1827e1d87eda9fd00000000000000000000000000000000000000000000000ebec21ee1da400000000000000000000000000000000000000000000000000000327cc8804ccda9fd00000000000000000000000000000000000000000000000f2dc7d47f15600000",
          "blockHash": "0x30d032c875b1566ea5de5bd4327861bdf8f2e36c5a179b4623563576ad965bed",
          "blockNumber": "0x21c40f5",
          "blockTimestamp": "0x69bc2bd7",
          "transactionHash": "0xb515d93870b70e9459e594f7aafc87d98aad2980f32fb60c16464778aaac284f",
          "transactionIndex": "0x5",
          "logIndex": "0x7",
          "removed": false
        },
        {
          "address": "0x0000000000000000000000000000000000001010",
          "topics": [
            "0x4dfe1bbbcf077ddc3e01291eea2d5c70c2b422b415d95645b9adcfd678cb1d63",
            "0x0000000000000000000000000000000000000000000000000000000000001010",
            "0x0000000000000000000000000ec7f965127e4c57db223956b6b8f44ae57df704",
            "0x0000000000000000000000007ee41d8a25641000661b1ef5e6ae8a00400466b0"
          ],
          "data": "0x00000000000000000000000000000000000000000000000000240d1a91df748c000000000000000000000000000000000000000000000000a1b737a368fc1654000000000000000000000000000000000000000000002f5328889148fe23b66c000000000000000000000000000000000000000000000000a1932a88d71ca1c8000000000000000000000000000000000000000000002f5328ac9e6390032af8",
          "blockHash": "0x30d032c875b1566ea5de5bd4327861bdf8f2e36c5a179b4623563576ad965bed",
          "blockNumber": "0x21c40f5",
          "blockTimestamp": "0x69bc2bd7",
          "transactionHash": "0xb515d93870b70e9459e594f7aafc87d98aad2980f32fb60c16464778aaac284f",
          "transactionIndex": "0x5",
          "logIndex": "0x8",
          "removed": false
        }
      ],
      "logsBloom": "0x00000000000000000000000000000000000000000000000000000000000000000000000000000000000000100000000000008000000000000000000000000000000000000000000000000000000000800000000000000000000100000000000000000000000000000000000000000000400000001000000080000000000000000000000000000000020000000400000000000000000000000000000000000000200000000000000000000000000010000000200000000000000000000000004000000000000000000001000000000000000000400000800000108000000000000000000000008000000000000000000000000000000800000000000000100000",
      "type": "0x2",
      "transactionHash": "0xb515d93870b70e9459e594f7aafc87d98aad2980f32fb60c16464778aaac284f",
      "transactionIndex": "0x5",
      "blockHash": "0x30d032c875b1566ea5de5bd4327861bdf8f2e36c5a179b4623563576ad965bed",
      "blockNumber": "0x21c40f5",
      "gasUsed": "0x20063",
      "effectiveGasPrice": "0x120311b143",
      "from": "0x0ec7f965127e4c57db223956b6b8f44ae57df704",
      "to": "0x3c3d2552bbdfeea59c85b619a24afe2472c69945",
      "contractAddress": null
    },
    {
      "status": "0x1",
      "cumulativeGasUsed": "0x52221",
      "logs": [
        {
          "address": "0x0000000000000000000000000000000000001010",
          "topics": [
            "0xe6497e3ee548a3372136af2fcb0696db31fc6cf20260707645068bd3fe97f3c4",
            "0x0000000000000000000000000000000000000000000000000000000000001010",
            "0x000000000000000000000000d58f3f6fff4e15caa04bedafe664b1c65803183b",
            "0x0000000000000000000000003c3d2552bbdfeea59c85b619a24afe2472c69945"
          ],
          "data": "0x0000000000000000000000000000000000000000000000006f05b59d3b200000000000000000000000000000000000000000000000000000981d5b7163d5bbaa00000000000000000000000000000000000000000000000f2dc7d47f156000000000000000000000000000000000000000000000000000002917a5d428b5bbaa00000000000000000000000000000000000000000000000f9ccd8a1c50800000",
          "blockHash": "0xf43dfccfa52c533a174a204aad93f5a61974be95cd754b8ac5594c37f9373e26",
          "blockNumber": "0x21c40f7",
          "blockTimestamp": "0x69bc2bdb",
          "transactionHash": "0x92959336b0bb89ab710fce9c46158a02852a90e3416a29a658249401473f7c66",
          "transactionIndex": "0x4",
          "logIndex": "0x4",
          "removed": false
        },
        {
          "address": "0x0000000000000000000000000000000000001010",
          "topics": [
            "0x4dfe1bbbcf077ddc3e01291eea2d5c70c2b422b415d95645b9adcfd678cb1d63",
            "0x0000000000000000000000000000000000000000000000000000000000001010",
            "0x000000000000000000000000d58f3f6fff4e15caa04bedafe664b1c65803183b",
            "0x0000000000000000000000007ee41d8a25641000661b1ef5e6ae8a00400466b0"
          ],
          "data": "0x00000000000000000000000000000000000000000000000000240d1a91df748c000000000000000000000000000000000000000000000000985214f744e42801000000000000000000000000000000000000000000002f5329ae22959a72c240000000000000000000000000000000000000000000000000982e07dcb304b375000000000000000000000000000000000000000000002f5329d22fb02c5236cc",
          "blockHash": "0xf43dfccfa52c533a174a204aad93f5a61974be95cd754b8ac5594c37f9373e26",
          "blockNumber": "0x21c40f7",
          "blockTimestamp": "0x69bc2bdb",
          "transactionHash": "0x92959336b0bb89ab710fce9c46158a02852a90e3416a29a658249401473f7c66",
          "transactionIndex": "0x4",
          "logIndex": "0x5",
          "removed": false
        }
      ],
      "logsBloom": "0x00000000000000000000000000000000000000000000000000000000000000000000000000000000000000100000000000008000000000000000000000000000000000000000000000000000000000800000000000000000000100000000000000000000000000000000000000000000000000000000000080020010000000000000000000000000020000000400000000000000000000000000000000000000200000000000000000000000000004000000200000000000000000000000004000000000000000000001000000000000000000400000800000108000000000000000000000008000000000000000000000000000000800000000000000100000",
      "type": "0x2",
      "transactionHash": "0x92959336b0bb89ab710fce9c46158a02852a90e3416a29a658249401473f7c66",
      "transactionIndex": "0x4",
      "blockHash": "0xf43dfccfa52c533a174a204aad93f5a61974be95cd754b8ac5594c37f9373e26",
      "blockNumber": "0x21c40f7",
      "gasUsed": "0x20063",
      "effectiveGasPrice": "0x120311b143",
      "from": "0xd58f3f6fff4e15caa04bedafe664b1c65803183b",
      "to": "0x3c3d2552bbdfeea59c85b619a24afe2472c69945",
      "contractAddress": null
    },
    {
      "status": "0x1",
      "cumulativeGasUsed": "0x6fd7b",
      "logs": [
        {
          "address": "0x0000000000000000000000000000000000001010",
          "topics": [
            "0xe6497e3ee548a3372136af2fcb0696db31fc6cf20260707645068bd3fe97f3c4",
            "0x0000000000000000000000000000000000000000000000000000000000001010",
            "0x000000000000000000000000c0ddfaf6c73c06f5ccc36670deb59a2ee0dfc19c",
            "0x0000000000000000000000003c3d2552bbdfeea59c85b619a24afe2472c69945"
          ],
          "data": "0x0000000000000000000000000000000000000000000000006f05b59d3b200000000000000000000000000000000000000000000000000000a138f3b399fa7be700000000000000000000000000000000000000000000000f9ccd8a1c5080000000000000000000000000000000000000000000000000000032333e165eda7be70000000000000000000000000000000000000000000000100bd33fb98ba00000",
          "blockHash": "0x574792afda458ca896e0bb28cbdb57ec0c85526306d4c4014671500528ed6cff",
          "blockNumber": "0x21c40f9",
          "blockTimestamp": "0x69bc2bdf",
          "transactionHash": "0xfb620800ddc934091cc9c8c56a17aad39888238ce98f6e331cf94ade70939f93",
          "transactionIndex": "0x6",
          "logIndex": "0x6",
          "removed": false
        },
        {
          "address": "0x0000000000000000000000000000000000001010",
          "topics": [
            "0x4dfe1bbbcf077ddc3e01291eea2d5c70c2b422b415d95645b9adcfd678cb1d63",
            "0x0000000000000000000000000000000000000000000000000000000000001010",
            "0x000000000000000000000000c0ddfaf6c73c06f5ccc36670deb59a2ee0dfc19c",
            "0x0000000000000000000000007ee41d8a25641000661b1ef5e6ae8a00400466b0"
          ],
          "data": "0x00000000000000000000000000000000000000000000000000240d1a91df748c000000000000000000000000000000000000000000000000a16dad397b08e83e000000000000000000000000000000000000000000002f532a982338bab09eec000000000000000000000000000000000000000000000000a149a01ee92973b2000000000000000000000000000000000000000000002f532abc30534c901378",
          "blockHash": "0x574792afda458ca896e0bb28cbdb57ec0c85526306d4c4014671500528ed6cff",
          "blockNumber": "0x21c40f9",
          "blockTimestamp": "0x69bc2bdf",
          "transactionHash": "0xfb620800ddc934091cc9c8c56a17aad39888238ce98f6e331cf94ade70939f93",
          "transactionIndex": "0x6",
          "logIndex": "0x7",
          "removed": false
        }
      ],
      "logsBloom": "0x00000000000000000000000000000000000000000000000000000000000000000000000000000000000000140000000000008000000000000000000000000000000000000000000000000000000000800000000000000000000100000000000100000000000000000000000000000000000000000000000080000000000000000000000000000000020000000400000000000000001000000000000000000000200000000000000000000000000000000000200000000000000000000000004000000000000000000001000000000000000000400000800000108000000000000000000000008000000000000000000000000000000800000000000000100000",
      "type": "0x2",
      "transactionHash": "0xfb620800ddc934091cc9c8c56a17aad39888238ce98f6e331cf94ade70939f93",
      "transactionIndex": "0x6",
      "blockHash": "0x574792afda458ca896e0bb28cbdb57ec0c85526306d4c4014671500528ed6cff",
      "blockNumber": "0x21c40f9",
      "gasUsed": "0x20063",
      "effectiveGasPrice": "0x120311b143",
      "from": "0xc0ddfaf6c73c06f5ccc36670deb59a2ee0dfc19c",
      "to": "0x3c3d2552bbdfeea59c85b619a24afe2472c69945",
      "contractAddress": null
    },
    {
      "status": "0x1",
      "cumulativeGasUsed": "0x35dcb",
      "logs": [
        {
          "address": "0x0000000000000000000000000000000000001010",
          "topics": [
            "0xe6497e3ee548a3372136af2fcb0696db31fc6cf20260707645068bd3fe97f3c4",
            "0x0000000000000000000000000000000000000000000000000000000000001010",
            "0x0000000000000000000000000cefb748b5afebc47dbe7ea934916cb14ac8e678",
            "0x0000000000000000000000003c3d2552bbdfeea59c85b619a24afe2472c69945"
          ],
          "data": "0x0000000000000000000000000000000000000000000000006f05b59d3b200000000000000000000000000000000000000000000000000000898edc5da62773190000000000000000000000000000000000000000000000100bd33fb98ba000000000000000000000000000000000000000000000000000001a8926c06b0773190000000000000000000000000000000000000000000000107ad8f556c6c00000",
          "blockHash": "0x0a76d9dfead8e84a082fb424bb64d1a40a5f06378f565fc6172e0948fc553875",
          "blockNumber": "0x21c40fb",
          "blockTimestamp": "0x69bc2be3",
          "transactionHash": "0x11649549cfcf997572f2eef826abfc3e0f04bbedaaaeec9958e519d506bc73dd",
          "transactionIndex": "0x3",
          "logIndex": "0x4",
          "removed": false
        },
        {
          "address": "0x0000000000000000000000000000000000001010",
          "topics": [
            "0x4dfe1bbbcf077ddc3e01291eea2d5c70c2b422b415d95645b9adcfd678cb1d63",
            "0x0000000000000000000000000000000000000000000000000000000000001010",
            "0x0000000000000000000000000cefb748b5afebc47dbe7ea934916cb14ac8e678",
            "0x0000000000000000000000007ee41d8a25641000661b1ef5e6ae8a00400466b0"
          ],
          "data": "0x00000000000000000000000000000000000000000000000000240d1a91df748c00000000000000000000000000000000000000000000000089c395e38735df70000000000000000000000000000000000000000000002f532b6304dce50700f4000000000000000000000000000000000000000000000000899f88c8f5566ae4000000000000000000000000000000000000000000002f532b8711f776e67580",
          "blockHash": "0x0a76d9dfead8e84a082fb424bb64d1a40a5f06378f565fc6172e0948fc553875",
          "blockNumber": "0x21c40fb",
          "blockTimestamp": "0x69bc2be3",
          "transactionHash": "0x11649549cfcf997572f2eef826abfc3e0f04bbedaaaeec9958e519d506bc73dd",
          "transactionIndex": "0x3",
          "logIndex": "0x5",
          "removed": false
        }
      ],
      "logsBloom": "0x00000000000000000000000000000000000000000000000000000000000000000000000000000000000000100000000000008000000000000000000000000000000000000000000000000000000000800000000000000000000100000000000000000000000000000000000000000000000000000000000080000000000000000000000000000000020000000400000000000000040000000000000000000000200000000000000000000000000000000000200000000000000000000000004000000000000000000001000000000000000000400000800000108000001000000000000000008000000000000000000000000000000800000040000000100000",
      "type": "0x2",
      "transactionHash": "0x11649549cfcf997572f2eef826abfc3e0f04bbedaaaeec9958e519d506bc73dd",
      "transactionIndex": "0x3",
      "blockHash": "0x0a76d9dfead8e84a082fb424bb64d1a40a5f06378f565fc6172e0948fc553875",
      "blockNumber": "0x21c40fb",
      "gasUsed": "0x20063",
      "effectiveGasPrice": "0x120311b143",
      "from": "0x0cefb748b5afebc47dbe7ea934916cb14ac8e678",
      "to": "0x3c3d2552bbdfeea59c85b619a24afe2472c69945",
      "contractAddress": null
    },
    {
      "status": "0x1",
      "cumulativeGasUsed": "0xb367b",
      "logs": [
        {
          "address": "0x0000000000000000000000000000000000001010",
          "topics": [
            "0xe6497e3ee548a3372136af2fcb0696db31fc6cf20260707645068bd3fe97f3c4",
            "0x0000000000000000000000000000000000000000000000000000000000001010",
            "0x000000000000000000000000fa0e503051f60c5e1c4a712c84d53961195eb96a",
            "0x0000000000000000000000003c3d2552bbdfeea59c85b619a24afe2472c69945"
          ],
          "data": "0x0000000000000000000000000000000000000000000000006f05b59d3b20000000000000000000000000000000000000000000000000000092a45a2d0bf08f020000000000000000000000000000000000000000000000107ad8f556c6c00000000000000000000000000000000000000000000000000000239ea48fd0d08f02000000000000000000000000000000000000000000000010e9deaaf401e00000",
          "blockHash": "0xb25c5ad805fd261a4e04cc269013a545f48ffde850fed54d5c1e91d4e3c8fdaf",
          "blockNumber": "0x21c40fd",
          "blockTimestamp": "0x69bc2be7",
          "transactionHash": "0x1594b372cc2999ad1123127719a5d3137388fb36fbe793497de8f45b045254a4",
          "transactionIndex": "0x9",
          "logIndex": "0xc",
          "removed": false
        },
        {
          "address": "0x0000000000000000000000000000000000001010",
          "topics": [
            "0x4dfe1bbbcf077ddc3e01291eea2d5c70c2b422b415d95645b9adcfd678cb1d63",
            "0x0000000000000000000000000000000000000000000000000000000000001010",
            "0x000000000000000000000000fa0e503051f60c5e1c4a712c84d53961195eb96a",
            "0x0000000000000000000000007ee41d8a25641000661b1ef5e6ae8a00400466b0"
          ],
          "data": "0x00000000000000000000000000000000000000000000000000240d1a91df748c00000000000000000000000000000000000000000000000092d913b2ecfefb59000000000000000000000000000000000000000000002f532c7ca5c35c90451000000000000000000000000000000000000000000000000092b506985b1f86cd000000000000000000000000000000000000000000002f532ca0b2ddee6fb99c",
          "blockHash": "0xb25c5ad805fd261a4e04cc269013a545f48ffde850fed54d5c1e91d4e3c8fdaf",
          "blockNumber": "0x21c40fd",
          "blockTimestamp": "0x69bc2be7",
          "transactionHash": "0x1594b372cc2999ad1123127719a5d3137388fb36fbe793497de8f45b045254a4",
          "transactionIndex": "0x9",
          "logIndex": "0xd",
          "removed": false
        }
      ],
      "logsBloom": "0x00000000000000000000000000000000000000000000000000000000000000000000000000000000000000100000000000008000000000000000000000000000000000000000000000000000000000800000000000000000000100000000000000000000000000000000000000000000000000000000000080000000000000000000000000100000020000000400000000000000000000000000000000000000200000000000000000000000000000000000200000000000000000000000004000000000000000000001000000000000800000400000800000108000000000000000000000008000000000000000000000001000000800000000000000100000",
      "type": "0x2",
      "transactionHash": "0x1594b372cc2999ad1123127719a5d3137388fb36fbe793497de8f45b045254a4",
      "transactionIndex": "0x9",
      "blockHash": "0xb25c5ad805fd261a4e04cc269013a545f48ffde850fed54d5c1e91d4e3c8fdaf",
      "blockNumber": "0x21c40fd",
      "gasUsed": "0x20063",
      "effectiveGasPrice": "0x120311b143",
      "from": "0xfa0e503051f60c5e1c4a712c84d53961195eb96a",
      "to": "0x3c3d2552bbdfeea59c85b619a24afe2472c69945",
      "contractAddress": null
    },
    {
      "status": "0x1",
      "cumulativeGasUsed": "0x30977",
      "logs": [
        {
          "address": "0x0000000000000000000000000000000000001010",
          "topics": [
            "0xe6497e3ee548a3372136af2fcb0696db31fc6cf20260707645068bd3fe97f3c4",
            "0x0000000000000000000000000000000000000000000000000000000000001010",
            "0x0000000000000000000000000b00144644ba73e8f83ccdcad5c838ccf9fdc581",
            "0x0000000000000000000000003c3d2552bbdfeea59c85b619a24afe2472c69945"
          ],
          "data": "0x0000000000000000000000000000000000000000000000006f05b59d3b200000000000000000000000000000000000000000000000000001292c1d95f6af30f8000000000000000000000000000000000000000000000010e9deaaf401e00000000000000000000000000000000000000000000000000000ba2667f8bb8f30f800000000000000000000000000000000000000000000001158e460913d000000",
          "blockHash": "0x6c2fb2909af1ef79ec594594e41d2fd7e043c8e10e141cbecde7045cfb9e7db9",
          "blockNumber": "0x21c4100",
          "blockTimestamp": "0x69bc2bed",
          "transactionHash": "0xf731037d2e1dadaba641d016107fdb6e2233338cd326db85fe2360aa27837fe6",
          "transactionIndex": "0x2",
          "logIndex": "0x2",
          "removed": false
        },
        {
          "address": "0x0000000000000000000000000000000000001010",
          "topics": [
            "0x4dfe1bbbcf077ddc3e01291eea2d5c70c2b422b415d95645b9adcfd678cb1d63",
            "0x0000000000000000000000000000000000000000000000000000000000001010",
            "0x0000000000000000000000000b00144644ba73e8f83ccdcad5c838ccf9fdc581",
            "0x0000000000000000000000007ee41d8a25641000661b1ef5e6ae8a00400466b0"
          ],
          "data": "0x00000000000000000000000000000000000000000000000000240d1a91df748c0000000000000000000000000000000000000000000000012960d71bd7bd9d4f000000000000000000000000000000000000000000002f532e24b9dfd33eb551000000000000000000000000000000000000000000000001293cca0145de28c3000000000000000000000000000000000000000000002f532e48c6fa651e29dd",
          "blockHash": "0x6c2fb2909af1ef79ec594594e41d2fd7e043c8e10e141cbecde7045cfb9e7db9",
          "blockNumber": "0x21c4100",
          "blockTimestamp": "0x69bc2bed",
          "transactionHash": "0xf731037d2e1dadaba641d016107fdb6e2233338cd326db85fe2360aa27837fe6",
          "transactionIndex": "0x2",
          "logIndex": "0x3",
          "removed": false
        }
      ],
      "logsBloom": "0x00000000000000000000000000000000000000000000000800000000000000000000000000000000000000100000000000008000000000000000000000000000000000000000000000000000000000800000000000000000000100200000000000000000000000000000000000000000000000000000000080000000000000000000000000000000020000000400000000000000000000000000000000000000200000000000000000000000000000000000200000000000000000010000004000000000000000000001000000000000000000400000800000108000000000000000000000008000000000000000000000000000000800000000000000100000",
      "type": "0x2",
      "transactionHash": "0xf731037d2e1dadaba641d016107fdb6e2233338cd326db85fe2360aa27837fe6",
      "transactionIndex": "0x2",
      "blockHash": "0x6c2fb2909af1ef79ec594594e41d2fd7e043c8e10e141cbecde7045cfb9e7db9",
      "blockNumber": "0x21c4100",
      "gasUsed": "0x20063",
      "effectiveGasPrice": "0x120311b143",
      "from": "0x0b00144644ba73e8f83ccdcad5c838ccf9fdc581",
      "to": "0x3c3d2552bbdfeea59c85b619a24afe2472c69945",
      "contractAddress": null
    },
    {
      "status": "0x1",
      "cumulativeGasUsed": "0x7fa5df",
      "logs": [
        {
          "address": "0x3c3d2552bbdfeea59c85b619a24afe2472c69945",
          "topics": [
            "0x760f85c8f46eac1ffec67d69fed68b85b1370c34dff479d15afcd53437b9291f",
            "0x0000000000000000000000000000000000000000000000000000000000000007",
            "0x0000000000000000000000008de56f797ff4aa43224ac277f04d595a30f782d6"
          ],
          "data": "0x",
          "blockHash": "0xa63d95e97da630b929cb451a0bbf121df3896552269d1c00318f487d301e8617",
          "blockNumber": "0x21c4102",
          "blockTimestamp": "0x69bc2bf1",
          "transactionHash": "0xbff96db182d0d161d6ae97cc4664de9ee64cc212f54f1f23cf305ba176b464a9",
          "transactionIndex": "0x4",
          "logIndex": "0x4",
          "removed": false
        },
        {
          "address": "0x3c3d2552bbdfeea59c85b619a24afe2472c69945",
          "topics": [
            "0x760f85c8f46eac1ffec67d69fed68b85b1370c34dff479d15afcd53437b9291f",
            "0x0000000000000000000000000000000000000000000000000000000000000007",
            "0x000000000000000000000000c15bd2eae18fca607c7a0446ff646cbd1055ab67"
          ],
          "data": "0x",
          "blockHash": "0xa63d95e97da630b929cb451a0bbf121df3896552269d1c00318f487d301e8617",
          "blockNumber": "0x21c4102",
          "blockTimestamp": "0x69bc2bf1",
          "transactionHash": "0xbff96db182d0d161d6ae97cc4664de9ee64cc212f54f1f23cf305ba176b464a9",
          "transactionIndex": "0x4",
          "logIndex": "0x5",
          "removed": false
        },
        {
          "address": "0x3c3d2552bbdfeea59c85b619a24afe2472c69945",
          "topics": [
            "0x760f85c8f46eac1ffec67d69fed68b85b1370c34dff479d15afcd53437b9291f",
            "0x0000000000000000000000000000000000000000000000000000000000000007",
            "0x0000000000000000000000000ec7f965127e4c57db223956b6b8f44ae57df704"
          ],
          "data": "0x",
          "blockHash": "0xa63d95e97da630b929cb451a0bbf121df3896552269d1c00318f487d301e8617",
          "blockNumber": "0x21c4102",
          "blockTimestamp": "0x69bc2bf1",
          "transactionHash": "0xbff96db182d0d161d6ae97cc4664de9ee64cc212f54f1f23cf305ba176b464a9",
          "transactionIndex": "0x4",
          "logIndex": "0x6",
          "removed": false
        },
        {
          "address": "0x3c3d2552bbdfeea59c85b619a24afe2472c69945",
          "topics": [
            "0x760f85c8f46eac1ffec67d69fed68b85b1370c34dff479d15afcd53437b9291f",
            "0x0000000000000000000000000000000000000000000000000000000000000007",
            "0x000000000000000000000000d58f3f6fff4e15caa04bedafe664b1c65803183b"
          ],
          "data": "0x",
          "blockHash": "0xa63d95e97da630b929cb451a0bbf121df3896552269d1c00318f487d301e8617",
          "blockNumber": "0x21c4102",
          "blockTimestamp": "0x69bc2bf1",
          "transactionHash": "0xbff96db182d0d161d6ae97cc4664de9ee64cc212f54f1f23cf305ba176b464a9",
          "transactionIndex": "0x4",
          "logIndex": "0x7",
          "removed": false
        },
        {
          "address": "0x3c3d2552bbdfeea59c85b619a24afe2472c69945",
          "topics": [
            "0x760f85c8f46eac1ffec67d69fed68b85b1370c34dff479d15afcd53437b9291f",
            "0x0000000000000000000000000000000000000000000000000000000000000007",
            "0x000000000000000000000000c0ddfaf6c73c06f5ccc36670deb59a2ee0dfc19c"
          ],
          "data": "0x",
          "blockHash": "0xa63d95e97da630b929cb451a0bbf121df3896552269d1c00318f487d301e8617",
          "blockNumber": "0x21c4102",
          "blockTimestamp": "0x69bc2bf1",
          "transactionHash": "0xbff96db182d0d161d6ae97cc4664de9ee64cc212f54f1f23cf305ba176b464a9",
          "transactionIndex": "0x4",
          "logIndex": "0x8",
          "removed": false
        },
        {
          "address": "0x3c3d2552bbdfeea59c85b619a24afe2472c69945",
          "topics": [
            "0x760f85c8f46eac1ffec67d69fed68b85b1370c34dff479d15afcd53437b9291f",
            "0x0000000000000000000000000000000000000000000000000000000000000007",
            "0x0000000000000000000000000cefb748b5afebc47dbe7ea934916cb14ac8e678"
          ],
          "data": "0x",
          "blockHash": "0xa63d95e97da630b929cb451a0bbf121df3896552269d1c00318f487d301e8617",
          "blockNumber": "0x21c4102",
          "blockTimestamp": "0x69bc2bf1",
          "transactionHash": "0xbff96db182d0d161d6ae97cc4664de9ee64cc212f54f1f23cf305ba176b464a9",
          "transactionIndex": "0x4",
          "logIndex": "0x9",
          "removed": false
        },
        {
          "address": "0x3c3d2552bbdfeea59c85b619a24afe2472c69945",
          "topics": [
            "0x760f85c8f46eac1ffec67d69fed68b85b1370c34dff479d15afcd53437b9291f",
            "0x0000000000000000000000000000000000000000000000000000000000000007",
            "0x000000000000000000000000fa0e503051f60c5e1c4a712c84d53961195eb96a"
          ],
          "data": "0x",
          "blockHash": "0xa63d95e97da630b929cb451a0bbf121df3896552269d1c00318f487d301e8617",
          "blockNumber": "0x21c4102",
          "blockTimestamp": "0x69bc2bf1",
          "transactionHash": "0xbff96db182d0d161d6ae97cc4664de9ee64cc212f54f1f23cf305ba176b464a9",
          "transactionIndex": "0x4",
          "logIndex": "0xa",
          "removed": false
        },
        {
          "address": "0x3c3d2552bbdfeea59c85b619a24afe2472c69945",
          "topics": [
            "0x760f85c8f46eac1ffec67d69fed68b85b1370c34dff479d15afcd53437b9291f",
            "0x0000000000000000000000000000000000000000000000000000000000000007",
            "0x0000000000000000000000000b00144644ba73e8f83ccdcad5c838ccf9fdc581"
          ],
          "data": "0x",
          "blockHash": "0xa63d95e97da630b929cb451a0bbf121df3896552269d1c00318f487d301e8617",
          "blockNumber": "0x21c4102",
          "blockTimestamp": "0x69bc2bf1",
          "transactionHash": "0xbff96db182d0d161d6ae97cc4664de9ee64cc212f54f1f23cf305ba176b464a9",
          "transactionIndex": "0x4",
          "logIndex": "0xb",
          "removed": false
        },
        {
          "address": "0x0000000000000000000000000000000000001010",
          "topics": [
            "0x4dfe1bbbcf077ddc3e01291eea2d5c70c2b422b415d95645b9adcfd678cb1d63",
            "0x0000000000000000000000000000000000000000000000000000000000001010",
            "0x0000000000000000000000008de56f797ff4aa43224ac277f04d595a30f782d6",
            "0x0000000000000000000000007ee41d8a25641000661b1ef5e6ae8a00400466b0"
          ],
          "data": "0x00000000000000000000000000000000000000000000000008d471338ec6097400000000000000000000000000000000000000000000000288b6be99cd50ffeb000000000000000000000000000000000000000000002f532f796139e4ef0f860000000000000000000000000000000000000000000000027fe24d663e8af677000000000000000000000000000000000000000000002f53384dd26d73b518fa",
          "blockHash": "0xa63d95e97da630b929cb451a0bbf121df3896552269d1c00318f487d301e8617",
          "blockNumber": "0x21c4102",
          "blockTimestamp": "0x69bc2bf1",
          "transactionHash": "0xbff96db182d0d161d6ae97cc4664de9ee64cc212f54f1f23cf305ba176b464a9",
          "transactionIndex": "0x4",
          "logIndex": "0xc",
          "removed": false
        }
      ],
      "logsBloom": "0x00008000000000000000000000000000001000000000000800000000004000000800000000000000000000040000000000009000000000000000000000000000000020000000000400000000000000800000000000000004000100201000000100800000000000000400000000000010400000001000000080020010000000000000000000102000020000000400000000000000041000000000000000000000200000000000000000000000000014000000000000000000000000010000004000000000000000000001000000000000800000400000000000100100005000000000000000000000000000000000000000001000000000000040000000100000",
      "type": "0x2",
      "transactionHash": "0xbff96db182d0d161d6ae97cc4664de9ee64cc212f54f1f23cf305ba176b464a9",
      "transactionIndex": "0x4",
      "blockHash": "0xa63d95e97da630b929cb451a0bbf121df3896552269d1c00318f487d301e8617",
      "blockNumber": "0x21c4102",
      "gasUsed": "0x7d7f1d",
      "effectiveGasPrice": "0x120311b143",
      "from": "0x8de56f797ff4aa43224ac277f04d595a30f782d6",
      "to": "0x0cd7c44903b6d09b1e910a0c625be8fe8746d3c3",
      "contractAddress": null
    }
  ],
  "libraries": [],
  "pending": [],
  "returns": {},
  "timestamp": 1773939698278,
  "chain": 80002,
  "commit": "d9c2b41"
}