{
  "transactions": [
    {
      "hash": "0x2d0afe12d757b6da8b34c3f3612363c863c959e62bda3f32f4c70f6f3cf6100c",
      "transactionType": "CALL",
      "contractName": null,
      "contractAddress": "0xac9ff649d7a7440f823587a132bfc0b0104cfaaf",
      "function": "setName(bytes16)",
      "arguments": [
        "0x54657374506c61796572000000000000"
      ],
      "transaction": {
        "from": "0x8de56f797ff4aa43224ac277f04d595a30f782d6",
        "to": "0xac9ff649d7a7440f823587a132bfc0b0104cfaaf",
        "gas": "0x1b21a",
        "value": "0x0",
        "input": "0xa65d7a5a54657374506c6179657200000000000000000000000000000000000000000000",
        "nonce": "0xb9",
        "chainId": "0x13882"
      },
      "additionalContracts": [],
      "isFixedGasLimit": false
    },
    {
      "hash": "0x5b2d9201992f0951ad3de1daac2fc3c0f1e3b25d7f3d8856e8cd0a06625e01cd",
      "transactionType": "CALL",
      "contractName": null,
      "contractAddress": "0xac9ff649d7a7440f823587a132bfc0b0104cfaaf",
      "function": "buyItem(uint8)",
      "arguments": [
        "67"
      ],
      "transaction": {
        "from": "0x8de56f797ff4aa43224ac277f04d595a30f782d6",
        "to": "0xac9ff649d7a7440f823587a132bfc0b0104cfaaf",
        "gas": "0x1cd1a",
        "value": "0x0",
        "input": "0xecb4da5a0000000000000000000000000000000000000000000000000000000000000043",
        "nonce": "0xba",
        "chainId": "0x13882"
      },
      "additionalContracts": [],
      "isFixedGasLimit": false
    },
    {
      "hash": "0xa32e434bc09d6e57b9ec642050ebf202c58124df2c13232992e5730e5946ef06",
      "transactionType": "CALL",
      "contractName": null,
      "contractAddress": "0xac9ff649d7a7440f823587a132bfc0b0104cfaaf",
      "function": "equipBadge(uint8)",
      "arguments": [
        "1"
      ],
      "transaction": {
        "from": "0x8de56f797ff4aa43224ac277f04d595a30f782d6",
        "to": "0xac9ff649d7a7440f823587a132bfc0b0104cfaaf",
        "gas": "0x15112",
        "value": "0x0",
        "input": "0xac3edc860000000000000000000000000000000000000000000000000000000000000001",
        "nonce": "0xbb",
        "chainId": "0x13882"
      },
      "additionalContracts": [],
      "isFixedGasLimit": false
    },
    {
      "hash": "0xb87a957c750a12a1ee182560e481f31338b02edd5479b45f610169254070259c",
      "transactionType": "CALL",
      "contractName": null,
      "contractAddress": "0xac9ff649d7a7440f823587a132bfc0b0104cfaaf",
      "function": "equipBadge(uint8)",
      "arguments": [
        "0"
      ],
      "transaction": {
        "from": "0x8de56f797ff4aa43224ac277f04d595a30f782d6",
        "to": "0xac9ff649d7a7440f823587a132bfc0b0104cfaaf",
        "gas": "0xc7d4",
        "value": "0x0",
        "input": "0xac3edc860000000000000000000000000000000000000000000000000000000000000000",
        "nonce": "0xbc",
        "chainId": "0x13882"
      },
      "additionalContracts": [],
      "isFixedGasLimit": false
    },
    {
      "hash": "0xc1265276c0a0c89c147ef75c059cc71c1a4982415070810382ebaa39af9f0c01",
      "transactionType": "CALL",
      "contractName": null,
      "contractAddress": "0xe3e94cc5c142fd383dc2ee378fa5a61072b57df9",
      "function": "mintFree(bytes12)",
      "arguments": [
        "0x436861696e54657374000000"
      ],
      "transaction": {
        "from": "0x8de56f797ff4aa43224ac277f04d595a30f782d6",
        "to": "0xe3e94cc5c142fd383dc2ee378fa5a61072b57df9",
        "gas": "0x3188d",
        "value": "0x0",
        "input": "0x4157e6b1436861696e546573740000000000000000000000000000000000000000000000",
        "nonce": "0xbd",
        "chainId": "0x13882"
      },
      "additionalContracts": [],
      "isFixedGasLimit": false
    },
    {
      "hash": "0x4f5fee17a209f491c1035e1130f8c91db1cfeb4942cdc897ac778a47e8047d31",
      "transactionType": "CALL",
      "contractName": null,
      "contractAddress": "0x501dabac8cc2800cfe819bc3ed005b8e39d223f3",
      "function": "mintScript(bytes)",
      "arguments": [
        "0x01070000000000000001020000000000000000000000000000000000000000000000000000000000000000000000000000000000000000000202"
      ],
      "transaction": {
        "from": "0x8de56f797ff4aa43224ac277f04d595a30f782d6",
        "to": "0x501dabac8cc2800cfe819bc3ed005b8e39d223f3",
        "gas": "0x2c35c",
        "value": "0x0",
        "input": "0x998094990000000000000000000000000000000000000000000000000000000000000020000000000000000000000000000000000000000000000000000000000000003a01070000000000000001020000000000000000000000000000000000000000000000000000000000000000000000000000000000000000000202000000000000",
        "nonce": "0xbe",
        "chainId": "0x13882"
      },
      "additionalContracts": [],
      "isFixedGasLimit": false
    },
    {
      "hash": "0x039eb33db148383246b881552dbf71d49ad6cc5d5b46d2baa3af6f63a339d217",
      "transactionType": "CALL",
      "contractName": null,
      "contractAddress": "0x3c3d2552bbdfeea59c85b619a24afe2472c69945",
      "function": "joinMatch(uint256,uint256,uint8)",
      "arguments": [
        "0",
        "0",
        "0"
      ],
      "transaction": {
        "from": "0xc15bd2eae18fca607c7a0446ff646cbd1055ab67",
        "to": "0x3c3d2552bbdfeea59c85b619a24afe2472c69945",
        "gas": "0x2595c",
        "value": "0x6f05b59d3b200000",
        "input": "0xbff89c2a000000000000000000000000000000000000000000000000000000000000000000000000000000000000000000000000000000000000000000000000000000000000000000000000000000000000000000000000000000000000000000000000",
        "nonce": "0x1d",
        "chainId": "0x13882"
      },
      "additionalContracts": [],
      "isFixedGasLimit": false
    },
    {
      "hash": "0x5b16d6cfa51b983278411deaf0360ea6742fd1dd5608b8bc99add0b4e65d2ab3",
      "transactionType": "CALL",
      "contractName": null,
      "contractAddress": "0x3c3d2552bbdfeea59c85b619a24afe2472c69945",
      "function": "cancelRoom(uint256)",
      "arguments": [
        "4"
      ],
      "transaction": {
        "from": "0x8de56f797ff4aa43224ac277f04d595a30f782d6",
        "to": "0x3c3d2552bbdfeea59c85b619a24afe2472c69945",
        "gas": "0xe736",
        "value": "0x0",
        "input": "0x2d172edf0000000000000000000000000000000000000000000000000000000000000004",
        "nonce": "0xbf",
        "chainId": "0x13882"
      },
      "additionalContracts": [],
      "isFixedGasLimit": false
    },
    {
      "hash": "0xed93bccbcb7374ea2e8a24bcdbc07f509ac3000ce57cbc0de5a9be217aca4f73",
      "transactionType": "CALL",
      "contractName": null,
      "contractAddress": "0x3c3d2552bbdfeea59c85b619a24afe2472c69945",
      "function": "joinMatch(uint256,uint256,uint8)",
      "arguments": [
        "0",
        "0",
        "8"
      ],
      "transaction": {
        "from": "0x8de56f797ff4aa43224ac277f04d595a30f782d6",
        "to": "0x3c3d2552bbdfeea59c85b619a24afe2472c69945",
        "gas": "0x3065d",
        "value": "0x6f05b59d3b200000",
        "input": "0xbff89c2a000000000000000000000000000000000000000000000000000000000000000000000000000000000000000000000000000000000000000000000000000000000000000000000000000000000000000000000000000000000000000000000008",
        "nonce": "0xc0",
        "chainId": "0x13882"
      },
      "additionalContracts": [],
      "isFixedGasLimit": false
    },
    {
      "hash": "0xfd47d85b20e7ffe0db2c6e0bc498f3821460c554028713ed20b327507f8259bc",
      "transactionType": "CALL",
      "contractName": null,
      "contractAddress": "0x3c3d2552bbdfeea59c85b619a24afe2472c69945",
      "function": "joinMatch(uint256,uint256,uint8)",
      "arguments": [
        "1",
        "1",
        "0"
      ],
      "transaction": {
        "from": "0xc15bd2eae18fca607c7a0446ff646cbd1055ab67",
        "to": "0x3c3d2552bbdfeea59c85b619a24afe2472c69945",
        "gas": "0x2c3eb",
        "value": "0x6f05b59d3b200000",
        "input": "0xbff89c2a000000000000000000000000000000000000000000000000000000000000000100000000000000000000000000000000000000000000000000000000000000010000000000000000000000000000000000000000000000000000000000000000",
        "nonce": "0x1e",
        "chainId": "0x13882"
      },
      "additionalContracts": [],
      "isFixedGasLimit": false
    },
    {
      "hash": "0x9507d2417f8c8ea5809bfe88b24cb49cfc1e7a2296eccc517e7ae34208c1223c",
      "transactionType": "CALL",
      "contractName": null,
      "contractAddress": "0x3c3d2552bbdfeea59c85b619a24afe2472c69945",
      "function": "joinMatch(uint256,uint256,uint8)",
      "arguments": [
        "2",
        "2",
        "0"
      ],
      "transaction": {
        "from": "0x0ec7f965127e4c57db223956b6b8f44ae57df704",
        "to": "0x3c3d2552bbdfeea59c85b619a24afe2472c69945",
        "gas": "0x2ed5d",
        "value": "0x6f05b59d3b200000",
        "input": "0xbff89c2a000000000000000000000000000000000000000000000000000000000000000200000000000000000000000000000000000000000000000000000000000000020000000000000000000000000000000000000000000000000000000000000000",
        "nonce": "0x21",
        "chainId": "0x13882"
      },
      "additionalContracts": [],
      "isFixedGasLimit": false
    },
    {
      "hash": "0x0ff00505d410cdc46541d4f665738cefbf60430db2d5ae8fa96c1dc7b6a0a3fe",
      "transactionType": "CALL",
      "contractName": null,
      "contractAddress": "0x3c3d2552bbdfeea59c85b619a24afe2472c69945",
      "function": "joinMatch(uint256,uint256,uint8)",
      "arguments": [
        "3",
        "0",
        "0"
      ],
      "transaction": {
        "from": "0xd58f3f6fff4e15caa04bedafe664b1c65803183b",
        "to": "0x3c3d2552bbdfeea59c85b619a24afe2472c69945",
        "gas": "0x27b9b",
        "value": "0x6f05b59d3b200000",
        "input": "0xbff89c2a000000000000000000000000000000000000000000000000000000000000000300000000000000000000000000000000000000000000000000000000000000000000000000000000000000000000000000000000000000000000000000000000",
        "nonce": "0x20",
        "chainId": "0x13882"
      },
      "additionalContracts": [],
      "isFixedGasLimit": false
    },
    {
      "hash": "0x32097af436f558a5a8641c58853b569591dc9304b07dc9a1b907d1e552346d27",
      "transactionType": "CALL",
      "contractName": null,
      "contractAddress": "0x3c3d2552bbdfeea59c85b619a24afe2472c69945",
      "function": "joinMatch(uint256,uint256,uint8)",
      "arguments": [
        "4",
        "1",
        "0"
      ],
      "transaction": {
        "from": "0xc0ddfaf6c73c06f5ccc36670deb59a2ee0dfc19c",
        "to": "0x3c3d2552bbdfeea59c85b619a24afe2472c69945",
        "gas": "0x2ed5d",
        "value": "0x6f05b59d3b200000",
        "input": "0xbff89c2a000000000000000000000000000000000000000000000000000000000000000400000000000000000000000000000000000000000000000000000000000000010000000000000000000000000000000000000000000000000000000000000000",
        "nonce": "0x24",
        "chainId": "0x13882"
      },
      "additionalContracts": [],
      "isFixedGasLimit": false
    },
    {
      "hash": "0xc2fffd385ee2e0a3c00e2c2f297898807cae7b13d437fe92d9bd1116884ffcac",
      "transactionType": "CALL",
      "contractName": null,
      "contractAddress": "0x3c3d2552bbdfeea59c85b619a24afe2472c69945",
      "function": "joinMatch(uint256,uint256,uint8)",
      "arguments": [
        "5",
        "2",
        "0"
      ],
      "transaction": {
        "from": "0x0cefb748b5afebc47dbe7ea934916cb14ac8e678",
        "to": "0x3c3d2552bbdfeea59c85b619a24afe2472c69945",
        "gas": "0x2ed5d",
        "value": "0x6f05b59d3b200000",
        "input": "0xbff89c2a000000000000000000000000000000000000000000000000000000000000000500000000000000000000000000000000000000000000000000000000000000020000000000000000000000000000000000000000000000000000000000000000",
        "nonce": "0x1b",
        "chainId": "0x13882"
      },
      "additionalContracts": [],
      "isFixedGasLimit": false
    },
    {
      "hash": "0xb8688966d6982aea27cc5c8f5514ab15c7c7e34f43bc097527d5a738545f0561",
      "transactionType": "CALL",
      "contractName": null,
      "contractAddress": "0x3c3d2552bbdfeea59c85b619a24afe2472c69945",
      "function": "joinMatch(uint256,uint256,uint8)",
      "arguments": [
        "6",
        "0",
        "0"
      ],
      "transaction": {
        "from": "0xfa0e503051f60c5e1c4a712c84d53961195eb96a",
        "to": "0x3c3d2552bbdfeea59c85b619a24afe2472c69945",
        "gas": "0x27b9b",
        "value": "0x6f05b59d3b200000",
        "input": "0xbff89c2a000000000000000000000000000000000000000000000000000000000000000600000000000000000000000000000000000000000000000000000000000000000000000000000000000000000000000000000000000000000000000000000000",
        "nonce": "0x1e",
        "chainId": "0x13882"
      },
      "additionalContracts": [],
      "isFixedGasLimit": false
    },
    {
      "hash": "0x29bbd8505de1f40fcfe51749fe5bfb4f8a24ae8e662785ab416a591714d86c5a",
      "transactionType": "CALL",
      "contractName": null,
      "contractAddress": "0x3c3d2552bbdfeea59c85b619a24afe2472c69945",
      "function": "joinMatch(uint256,uint256,uint8)",
      "arguments": [
        "7",
        "1",
        "0"
      ],
      "transaction": {
        "from": "0x0b00144644ba73e8f83ccdcad5c838ccf9fdc581",
        "to": "0x3c3d2552bbdfeea59c85b619a24afe2472c69945",
        "gas": "0x2ed5d",
        "value": "0x6f05b59d3b200000",
        "input": "0xbff89c2a000000000000000000000000000000000000000000000000000000000000000700000000000000000000000000000000000000000000000000000000000000010000000000000000000000000000000000000000000000000000000000000000",
        "nonce": "0x1c",
        "chainId": "0x13882"
      },
      "additionalContracts": [],
      "isFixedGasLimit": false
    },
    {
      "hash": "0x5b931ef7217d49a886427613c7111ba0393d03699b776989b887820a78f99fee",
      "transactionType": "CALL",
      "contractName": null,
      "contractAddress": "0x0cd7c44903b6d09b1e910a0c625be8fe8746d3c3",
      "function": "manualExecute(uint256)",
      "arguments": [
        "5"
      ],
      "transaction": {
        "from": "0x8de56f797ff4aa43224ac277f04d595a30f782d6",
        "to": "0x0cd7c44903b6d09b1e910a0c625be8fe8746d3c3",
        "gas": "0x5b8d8a",
        "value": "0x0",
        "input": "0x5740f5800000000000000000000000000000000000000000000000000000000000000005",
        "nonce": "0xc1",
        "chainId": "0x13882"
      },
      "additionalContracts": [],
      "isFixedGasLimit": false
    },
    {
      "hash": "0x7ed048fa509524efaef6a132756a8f0f8ce34b8256f6a658eaf8ba0898b2cdf0",
      "transactionType": "CALL",
      "contractName": null,
      "contractAddress": "0xac9ff649d7a7440f823587a132bfc0b0104cfaaf",
      "function": "endSeason()",
      "arguments": [],
      "transaction": {
        "from": "0x8de56f797ff4aa43224ac277f04d595a30f782d6",
        "to": "0xac9ff649d7a7440f823587a132bfc0b0104cfaaf",
        "gas": "0x85c95",
        "value": "0x0",
        "input": "0x3dcdb672",
        "nonce": "0xc2",
        "chainId": "0x13882"
      },
      "additionalContracts": [],
      "isFixedGasLimit": false
    }
  ],
  "receipts": [
    {
      "status": "0x1",
      "cumulativeGasUsed": "0x7ac5b",
      "logs": [
        {
          "address": "0x0000000000000000000000000000000000001010",
          "topics": [
            "0x4dfe1bbbcf077ddc3e01291eea2d5c70c2b422b415d95645b9adcfd678cb1d63",
            "0x0000000000000000000000000000000000000000000000000000000000001010",
            "0x0000000000000000000000008de56f797ff4aa43224ac277f04d595a30f782d6",
            "0x0000000000000000000000007ee41d8a25641000661b1ef5e6ae8a00400466b0"
          ],
          "data": "0x0000000000000000000000000000000000000000000000000008194b1046c4000000000000000000000000000000000000000000000000053c02b7cee1f1aae8000000000000000000000000000000000000000000002f250963466f2f317b720000000000000000000000000000000000000000000000053bfa9e83d1aae6e8000000000000000000000000000000000000000000002f25096b5fba3f783f72",
          "blockHash": "0xd25a174d1423b2ed906449720b4d2d695bb76b6ef531b5780627f1565d04896e",
          "blockNumber": "0x21bf294",
          "blockTimestamp": "0x69bb8f15",
          "transactionHash": "0x2d0afe12d757b6da8b34c3f3612363c863c959e62bda3f32f4c70f6f3cf6100c",
          "transactionIndex": "0x3",
          "logIndex": "0x9",
          "removed": false
        }
      ],
      "logsBloom": "0x00000000000000000000000000000000000000000000000000000000004000000000000000000000000000000000000000008000000000000000000000000000000000000000000000000000000000800000000000000000000100000000000000000000000000000400000000000000000000000000000080000000000000000000000000000000020000000400000000000000000000000000000000000000200000000000000000000000000000000000000000000000000000000000004000000000000000000001000000000000000000400000000000100000004000000000000000000000000000000000000000000000000000000000000000100000",
      "type": "0x2",
      "transactionHash": "0x2d0afe12d757b6da8b34c3f3612363c863c959e62bda3f32f4c70f6f3cf6100c",
      "transactionIndex": "0x3",
      "blockHash": "0xd25a174d1423b2ed906449720b4d2d695bb76b6ef531b5780627f1565d04896e",
      "blockNumber": "0x21bf294",
      "gasUsed": "0x128d3",
      "effectiveGasPrice": "0x6fc23ac3f",
      "from": "0x8de56f797ff4aa43224ac277f04d595a30f782d6",
      "to": "0xac9ff649d7a7440f823587a132bfc0b0104cfaaf",
      "contractAddress": null
    },
    {
      "status": "0x1",
      "cumulativeGasUsed": "0x48d97",
      "logs": [
        {
          "address": "0x0000000000000000000000000000000000001010",
          "topics": [
            "0x4dfe1bbbcf077ddc3e01291eea2d5c70c2b422b415d95645b9adcfd678cb1d63",
            "0x0000000000000000000000000000000000000000000000000000000000001010",
            "0x0000000000000000000000008de56f797ff4aa43224ac277f04d595a30f782d6",
            "0x0000000000000000000000007ee41d8a25641000661b1ef5e6ae8a00400466b0"
          ],
          "data": "0x00000000000000000000000000000000000000000000000000089a3dcad00c000000000000000000000000000000000000000000000000053bfa9e83d161dafb000000000000000000000000000000000000000000002f250a187c98112fbb970000000000000000000000000000000000000000000000053bf204460691cefb000000000000000000000000000000000000000000002f250a2116d5dbffc797",
          "blockHash": "0xff0068de84dd74fb04ea69ab900678f3b0984e92b8aa6318b8449e698416f79d",
          "blockNumber": "0x21bf296",
          "blockTimestamp": "0x69bb8f19",
          "transactionHash": "0x5b2d9201992f0951ad3de1daac2fc3c0f1e3b25d7f3d8856e8cd0a06625e01cd",
          "transactionIndex": "0x2",
          "logIndex": "0x5",
          "removed": false
        }
      ],
      "logsBloom": "0x00000000000000000000000000000000000000000000000000000000004000000000000000000000000000000000000000008000000000000000000000000000000000000000000000000000000000800000000000000000000100000000000000000000000000000400000000000000000000000000000080000000000000000000000000000000020000000400000000000000000000000000000000000000200000000000000000000000000000000000000000000000000000000000004000000000000000000001000000000000000000400000000000100000004000000000000000000000000000000000000000000000000000000000000000100000",
      "type": "0x2",
      "transactionHash": "0x5b2d9201992f0951ad3de1daac2fc3c0f1e3b25d7f3d8856e8cd0a06625e01cd",
      "transactionIndex": "0x2",
      "blockHash": "0xff0068de84dd74fb04ea69ab900678f3b0984e92b8aa6318b8449e698416f79d",
      "blockNumber": "0x21bf296",
      "gasUsed": "0x13b49",
      "effectiveGasPrice": "0x6fc23ac3f",
      "from": "0x8de56f797ff4aa43224ac277f04d595a30f782d6",
      "to": "0xac9ff649d7a7440f823587a132bfc0b0104cfaaf",
      "contractAddress": null
    },
    {
      "status": "0x1",
      "cumulativeGasUsed": "0xca878",
      "logs": [
        {
          "address": "0x0000000000000000000000000000000000001010",
          "topics": [
            "0x4dfe1bbbcf077ddc3e01291eea2d5c70c2b422b415d95645b9adcfd678cb1d63",
            "0x0000000000000000000000000000000000000000000000000000000000001010",
            "0x0000000000000000000000008de56f797ff4aa43224ac277f04d595a30f782d6",
            "0x0000000000000000000000007ee41d8a25641000661b1ef5e6ae8a00400466b0"
          ],
          "data": "0x000000000000000000000000000000000000000000000000000649dc3587f8000000000000000000000000000000000000000000000000053bf2044606443804000000000000000000000000000000000000000000002f250b8cf680ee111ad70000000000000000000000000000000000000000000000053bebba69d0bc4004000000000000000000000000000000000000000000002f250b93405d239912d7",
          "blockHash": "0x42f566806f0262bf54df794890da50e6b51331127f1c7eceda2eb2431c8105a9",
          "blockNumber": "0x21bf299",
          "blockTimestamp": "0x69bb8f1f",
          "transactionHash": "0xa32e434bc09d6e57b9ec642050ebf202c58124df2c13232992e5730e5946ef06",
          "transactionIndex": "0x9",
          "logIndex": "0x10",
          "removed": false
        }
      ],
      "logsBloom": "0x00000000000000000000000000000000000000000000000000000000004000000000000000000000000000000000000000008000000000000000000000000000000000000000000000000000000000800000000000000000000100000000000000000000000000000400000000000000000000000000000080000000000000000000000000000000020000000400000000000000000000000000000000000000200000000000000000000000000000000000000000000000000000000000004000000000000000000001000000000000000000400000000000100000004000000000000000000000000000000000000000000000000000000000000000100000",
      "type": "0x2",
      "transactionHash": "0xa32e434bc09d6e57b9ec642050ebf202c58124df2c13232992e5730e5946ef06",
      "transactionIndex": "0x9",
      "blockHash": "0x42f566806f0262bf54df794890da50e6b51331127f1c7eceda2eb2431c8105a9",
      "blockNumber": "0x21bf299",
      "gasUsed": "0xe67a",
      "effectiveGasPrice": "0x6fc23ac3f",
      "from": "0x8de56f797ff4aa43224ac277f04d595a30f782d6",
      "to": "0xac9ff649d7a7440f823587a132bfc0b0104cfaaf",
      "contractAddress": null
    },
    {
      "status": "0x1",
      "cumulativeGasUsed": "0x88a3",
      "logs": [
        {
          "address": "0x0000000000000000000000000000000000001010",
          "topics": [
            "0x4dfe1bbbcf077ddc3e01291eea2d5c70c2b422b415d95645b9adcfd678cb1d63",
            "0x0000000000000000000000000000000000000000000000000000000000001010",
            "0x0000000000000000000000008de56f797ff4aa43224ac277f04d595a30f782d6",
            "0x0000000000000000000000007ee41d8a25641000661b1ef5e6ae8a00400466b0"
          ],
          "data": "0x0000000000000000000000000000000000000000000000000003ba657e1684000000000000000000000000000000000000000000000000053bebba69d08387fe000000000000000000000000000000000000000000002f250b93405d239912d70000000000000000000000000000000000000000000000053be80004526d03fe000000000000000000000000000000000000000000002f250b96fac2a1af96d7",
          "blockHash": "0x83d477d742b0c52638785f3a04bb9bbc872c53315ad015068f2013c60853d958",
          "blockNumber": "0x21bf29b",
          "blockTimestamp": "0x69bb8f23",
          "transactionHash": "0xb87a957c750a12a1ee182560e481f31338b02edd5479b45f610169254070259c",
          "transactionIndex": "0x0",
          "logIndex": "0x0",
          "removed": false
        }
      ],
      "logsBloom": "0x00000000000000000000000000000000000000000000000000000000004000000000000000000000000000000000000000008000000000000000000000000000000000000000000000000000000000800000000000000000000100000000000000000000000000000400000000000000000000000000000080000000000000000000000000000000020000000400000000000000000000000000000000000000200000000000000000000000000000000000000000000000000000000000004000000000000000000001000000000000000000400000000000100000004000000000000000000000000000000000000000000000000000000000000000100000",
      "type": "0x2",
      "transactionHash": "0xb87a957c750a12a1ee182560e481f31338b02edd5479b45f610169254070259c",
      "transactionIndex": "0x0",
      "blockHash": "0x83d477d742b0c52638785f3a04bb9bbc872c53315ad015068f2013c60853d958",
      "blockNumber": "0x21bf29b",
      "gasUsed": "0x88a3",
      "effectiveGasPrice": "0x6fc23ac3f",
      "from": "0x8de56f797ff4aa43224ac277f04d595a30f782d6",
      "to": "0xac9ff649d7a7440f823587a132bfc0b0104cfaaf",
      "contractAddress": null
    },
    {
      "status": "0x1",
      "cumulativeGasUsed": "0x21deb",
      "logs": [
        {
          "address": "0xe3e94cc5c142fd383dc2ee378fa5a61072b57df9",
          "topics": [
            "0xddf252ad1be2c89b69c2b068fc378daa952ba7f163c4a11628f55a4df523b3ef",
            "0x0000000000000000000000000000000000000000000000000000000000000000",
            "0x0000000000000000000000008de56f797ff4aa43224ac277f04d595a30f782d6",
            "0x0000000000000000000000000000000000000000000000000000000000000008"
          ],
          "data": "0x",
          "blockHash": "0xc49b8d7e3932807d1118308eb3a9061adfa8bc05c4e19024df025462ce048d67",
          "blockNumber": "0x21bf29d",
          "blockTimestamp": "0x69bb8f27",
          "transactionHash": "0xc1265276c0a0c89c147ef75c059cc71c1a4982415070810382ebaa39af9f0c01",
          "transactionIndex": "0x0",
          "logIndex": "0x0",
          "removed": false
        },
        {
          "address": "0x0000000000000000000000000000000000001010",
          "topics": [
            "0x4dfe1bbbcf077ddc3e01291eea2d5c70c2b422b415d95645b9adcfd678cb1d63",
            "0x0000000000000000000000000000000000000000000000000000000000001010",
            "0x0000000000000000000000008de56f797ff4aa43224ac277f04d595a30f782d6",
            "0x0000000000000000000000007ee41d8a25641000661b1ef5e6ae8a00400466b0"
          ],
          "data": "0x000000000000000000000000000000000000000000000000000ec940d73ae4000000000000000000000000000000000000000000000000053be80004524b63e1000000000000000000000000000000000000000000002f250bb60a4ec7c6fc1c0000000000000000000000000000000000000000000000053bd936c37b107fe1000000000000000000000000000000000000000000002f250bc4d38f9f01e01c",
          "blockHash": "0xc49b8d7e3932807d1118308eb3a9061adfa8bc05c4e19024df025462ce048d67",
          "blockNumber": "0x21bf29d",
          "blockTimestamp": "0x69bb8f27",
          "transactionHash": "0xc1265276c0a0c89c147ef75c059cc71c1a4982415070810382ebaa39af9f0c01",
          "transactionIndex": "0x0",
          "logIndex": "0x1",
          "removed": false
        }
      ],
      "logsBloom": "0x00000000000000000000000000000000000000000000000000000000004020000000000000000000000000000000000000008000000080000000000000000000000000000000000000000008000000800000000000000000000100000000000000400000020000000400000000000800000000000000000080000010020000000080000000000000020000000400000000000000000000000000000000000000200000000000000000000000000000000000000000000000000000000000004040000002000000000001000000000000000000400000000000100000004020000000000000000000000000000000000000000000000000000000000000100000",
      "type": "0x2",
      "transactionHash": "0xc1265276c0a0c89c147ef75c059cc71c1a4982415070810382ebaa39af9f0c01",
      "transactionIndex": "0x0",
      "blockHash": "0xc49b8d7e3932807d1118308eb3a9061adfa8bc05c4e19024df025462ce048d67",
      "blockNumber": "0x21bf29d",
      "gasUsed": "0x21deb",
      "effectiveGasPrice": "0x6fc23ac3f",
      "from": "0x8de56f797ff4aa43224ac277f04d595a30f782d6",
      "to": "0xe3e94cc5c142fd383dc2ee378fa5a61072b57df9",
      "contractAddress": null
    },
    {
      "status": "0x1",
      "cumulativeGasUsed": "0x1e3ab",
      "logs": [
        {
          "address": "0x501dabac8cc2800cfe819bc3ed005b8e39d223f3",
          "topics": [
            "0xddf252ad1be2c89b69c2b068fc378daa952ba7f163c4a11628f55a4df523b3ef",
            "0x0000000000000000000000000000000000000000000000000000000000000000",
            "0x0000000000000000000000008de56f797ff4aa43224ac277f04d595a30f782d6",
            "0x000000000000000000000000000000000000000000000000000000000000000b"
          ],
          "data": "0x",
          "blockHash": "0xa9d20b39f2dd1e3609d9f7f35e109d1d89079432782111a7486107ea9fcc857e",
          "blockNumber": "0x21bf29f",
          "blockTimestamp": "0x69bb8f2b",
          "transactionHash": "0x4f5fee17a209f491c1035e1130f8c91db1cfeb4942cdc897ac778a47e8047d31",
          "transactionIndex": "0x0",
          "logIndex": "0x0",
          "removed": false
        },
        {
          "address": "0x0000000000000000000000000000000000001010",
          "topics": [
            "0x4dfe1bbbcf077ddc3e01291eea2d5c70c2b422b415d95645b9adcfd678cb1d63",
            "0x0000000000000000000000000000000000000000000000000000000000001010",
            "0x0000000000000000000000008de56f797ff4aa43224ac277f04d595a30f782d6",
            "0x0000000000000000000000007ee41d8a25641000661b1ef5e6ae8a00400466b0"
          ],
          "data": "0x000000000000000000000000000000000000000000000000000d3261b957e4000000000000000000000000000000000000000000000000053bd936c37a8b230c000000000000000000000000000000000000000000002f250bc4d38f9f01e01c0000000000000000000000000000000000000000000000053bcc0461c1333f0c000000000000000000000000000000000000000000002f250bd205f15859c41c",
          "blockHash": "0xa9d20b39f2dd1e3609d9f7f35e109d1d89079432782111a7486107ea9fcc857e",
          "blockNumber": "0x21bf29f",
          "blockTimestamp": "0x69bb8f2b",
          "transactionHash": "0x4f5fee17a209f491c1035e1130f8c91db1cfeb4942cdc897ac778a47e8047d31",
          "transactionIndex": "0x0",
          "logIndex": "0x1",
          "removed": false
        }
      ],
      "logsBloom": "0x00000000000000000000004000000000000000000000000000000000004000000000000000000000000000000000000000008000000000000000000000000000000000000000000000000008000000800000000000000000000100000000000000000000020000000400000000000800000000000000000080000010000000000000000000000000020000000400000000000000000000000000000000000000280000000000000000000000000000000000100000000000000000000000204000000002000000000001000000000000002000400000000000100000004020000000000000000000000000000000000000000000000000040000000000100000",
      "type": "0x2",
      "transactionHash": "0x4f5fee17a209f491c1035e1130f8c91db1cfeb4942cdc897ac778a47e8047d31",
      "transactionIndex": "0x0",
      "blockHash": "0xa9d20b39f2dd1e3609d9f7f35e109d1d89079432782111a7486107ea9fcc857e",
      "blockNumber": "0x21bf29f",
      "gasUsed": "0x1e3ab",
      "effectiveGasPrice": "0x6fc23ac3f",
      "from": "0x8de56f797ff4aa43224ac277f04d595a30f782d6",
      "to": "0x501dabac8cc2800cfe819bc3ed005b8e39d223f3",
      "contractAddress": null
    },
    {
      "status": "0x1",
      "cumulativeGasUsed": "0x1b360",
      "logs": [
        {
          "address": "0x0000000000000000000000000000000000001010",
          "topics": [
            "0xe6497e3ee548a3372136af2fcb0696db31fc6cf20260707645068bd3fe97f3c4",
            "0x0000000000000000000000000000000000000000000000000000000000001010",
            "0x000000000000000000000000c15bd2eae18fca607c7a0446ff646cbd1055ab67",
            "0x0000000000000000000000003c3d2552bbdfeea59c85b619a24afe2472c69945"
          ],
          "data": "0x0000000000000000000000000000000000000000000000006f05b59d3b2000000000000000000000000000000000000000000000000000020cb296fca74b2263000000000000000000000000000000000000000000000006f05b59d3b20000000000000000000000000000000000000000000000000000019dace15f6c2b22630000000000000000000000000000000000000000000000075f610f70ed200000",
          "blockHash": "0x0fe2e60da4811d48cce11316115c22344e081d6944f10bbe74e5ff16cd4b50fe",
          "blockNumber": "0x21bf2a1",
          "blockTimestamp": "0x69bb8f2f",
          "transactionHash": "0x039eb33db148383246b881552dbf71d49ad6cc5d5b46d2baa3af6f63a339d217",
          "transactionIndex": "0x0",
          "logIndex": "0x0",
          "removed": false
        },
        {
          "address": "0x0000000000000000000000000000000000001010",
          "topics": [
            "0x4dfe1bbbcf077ddc3e01291eea2d5c70c2b422b415d95645b9adcfd678cb1d63",
            "0x0000000000000000000000000000000000000000000000000000000000001010",
            "0x000000000000000000000000c15bd2eae18fca607c7a0446ff646cbd1055ab67",
            "0x0000000000000000000000007ee41d8a25641000661b1ef5e6ae8a00400466b0"
          ],
          "data": "0x000000000000000000000000000000000000000000000000000be10f2aa480000000000000000000000000000000000000000000000000020cc2ff6f037cf007000000000000000000000000000000000000000000002f250bd205f15859c41c0000000000000000000000000000000000000000000000020cb71e5fd8d87007000000000000000000000000000000000000000000002f250bdde70082fe441c",
          "blockHash": "0x0fe2e60da4811d48cce11316115c22344e081d6944f10bbe74e5ff16cd4b50fe",
          "blockNumber": "0x21bf2a1",
          "blockTimestamp": "0x69bb8f2f",
          "transactionHash": "0x039eb33db148383246b881552dbf71d49ad6cc5d5b46d2baa3af6f63a339d217",
          "transactionIndex": "0x0",
          "logIndex": "0x1",
          "removed": false
        }
      ],
      "logsBloom": "0x00000000000000000000000000000000000000000000000000000000000000000800000000000000000000100000000000008000000000000000000000000000000000000000000000000000000000800000000000000000000100000000000000800000000000000000000000000010000000000000000080000000000000000000000000000000020000000400000000000000000000000000000000000000200000000000000000000000000000000000200000000000000000000000004000000000000000000001000000000000000000400000800000108000000000000000000000008000000000000000000000000000000800000000000000100000",
      "type": "0x2",
      "transactionHash": "0x039eb33db148383246b881552dbf71d49ad6cc5d5b46d2baa3af6f63a339d217",
      "transactionIndex": "0x0",
      "blockHash": "0x0fe2e60da4811d48cce11316115c22344e081d6944f10bbe74e5ff16cd4b50fe",
      "blockNumber": "0x21bf2a1",
      "gasUsed": "0x1b360",
      "effectiveGasPrice": "0x6fc23ac3f",
      "from": "0xc15bd2eae18fca607c7a0446ff646cbd1055ab67",
      "to": "0x3c3d2552bbdfeea59c85b619a24afe2472c69945",
      "contractAddress": null
    },
    {
      "status": "0x1",
      "cumulativeGasUsed": "0xab309",
      "logs": [
        {
          "address": "0x0000000000000000000000000000000000001010",
          "topics": [
            "0xe6497e3ee548a3372136af2fcb0696db31fc6cf20260707645068bd3fe97f3c4",
            "0x0000000000000000000000000000000000000000000000000000000000001010",
            "0x0000000000000000000000003c3d2552bbdfeea59c85b619a24afe2472c69945",
            "0x000000000000000000000000c15bd2eae18fca607c7a0446ff646cbd1055ab67"
          ],
          "data": "0x0000000000000000000000000000000000000000000000006f05b59d3b2000000000000000000000000000000000000000000000000000075f610f70ed2000000000000000000000000000000000000000000000000000019db168c29d4d4b67000000000000000000000000000000000000000000000006f05b59d3b20000000000000000000000000000000000000000000000000000020cb71e5fd86d4b67",
          "blockHash": "0x22dc3f8cc12d454da854879b073df1d34eca78428c3ca5bcd484183fcffb06e7",
          "blockNumber": "0x21bf2a3",
          "blockTimestamp": "0x69bb8f33",
          "transactionHash": "0x5b16d6cfa51b983278411deaf0360ea6742fd1dd5608b8bc99add0b4e65d2ab3",
          "transactionIndex": "0x8",
          "logIndex": "0xe",
          "removed": false
        },
        {
          "address": "0x0000000000000000000000000000000000001010",
          "topics": [
            "0x4dfe1bbbcf077ddc3e01291eea2d5c70c2b422b415d95645b9adcfd678cb1d63",
            "0x0000000000000000000000000000000000000000000000000000000000001010",
            "0x0000000000000000000000008de56f797ff4aa43224ac277f04d595a30f782d6",
            "0x0000000000000000000000007ee41d8a25641000661b1ef5e6ae8a00400466b0"
          ],
          "data": "0x0000000000000000000000000000000000000000000000000004913cbf46dc000000000000000000000000000000000000000000000000053bcc0461c0bc37f7000000000000000000000000000000000000000000002f250ca2d2cc019bdf600000000000000000000000000000000000000000000000053bc7732501755bf7000000000000000000000000000000000000000000002f250ca76408c0e2bb60",
          "blockHash": "0x22dc3f8cc12d454da854879b073df1d34eca78428c3ca5bcd484183fcffb06e7",
          "blockNumber": "0x21bf2a3",
          "blockTimestamp": "0x69bb8f33",
          "transactionHash": "0x5b16d6cfa51b983278411deaf0360ea6742fd1dd5608b8bc99add0b4e65d2ab3",
          "transactionIndex": "0x8",
          "logIndex": "0xf",
          "removed": false
        }
      ],
      "logsBloom": "0x00000000000000000000000000000000000000000000000000000000004000000800000000000000000000100000000000008000000000000000000000000000000000000000000000000000000000800000000000000000000100000000000000800000000000000400000000000010000000000000000080000000000000000000000000000000020000000400000000000000000000000000000000000000200000000000000000000000000000000000200000000000000000000000004000000000000000000001000000000000000000400000800000108000004000000000000000008000000000000000000000000000000800000000000000100000",
      "type": "0x2",
      "transactionHash": "0x5b16d6cfa51b983278411deaf0360ea6742fd1dd5608b8bc99add0b4e65d2ab3",
      "transactionIndex": "0x8",
      "blockHash": "0x22dc3f8cc12d454da854879b073df1d34eca78428c3ca5bcd484183fcffb06e7",
      "blockNumber": "0x21bf2a3",
      "gasUsed": "0xa765",
      "effectiveGasPrice": "0x6fc23ac3f",
      "from": "0x8de56f797ff4aa43224ac277f04d595a30f782d6",
      "to": "0x3c3d2552bbdfeea59c85b619a24afe2472c69945",
      "contractAddress": null
    },
    {
      "status": "0x1",
      "cumulativeGasUsed": "0x2ffd5",
      "logs": [
        {
          "address": "0x0000000000000000000000000000000000001010",
          "topics": [
            "0xe6497e3ee548a3372136af2fcb0696db31fc6cf20260707645068bd3fe97f3c4",
            "0x0000000000000000000000000000000000000000000000000000000000001010",
            "0x0000000000000000000000008de56f797ff4aa43224ac277f04d595a30f782d6",
            "0x0000000000000000000000003c3d2552bbdfeea59c85b619a24afe2472c69945"
          ],
          "data": "0x0000000000000000000000000000000000000000000000006f05b59d3b2000000000000000000000000000000000000000000000000000053bb252478d901d39000000000000000000000000000000000000000000000006f05b59d3b2000000000000000000000000000000000000000000000000000004ccac9caa52701d390000000000000000000000000000000000000000000000075f610f70ed200000",
          "blockHash": "0xc35b6d5fce22e507f4e31a3efbf430f8cdf79b0fe2e550d4893f359b814cb484",
          "blockNumber": "0x21bf2a5",
          "blockTimestamp": "0x69bb8f37",
          "transactionHash": "0xed93bccbcb7374ea2e8a24bcdbc07f509ac3000ce57cbc0de5a9be217aca4f73",
          "transactionIndex": "0x1",
          "logIndex": "0x2",
          "removed": false
        },
        {
          "address": "0x0000000000000000000000000000000000001010",
          "topics": [
            "0x4dfe1bbbcf077ddc3e01291eea2d5c70c2b422b415d95645b9adcfd678cb1d63",
            "0x0000000000000000000000000000000000000000000000000000000000001010",
            "0x0000000000000000000000008de56f797ff4aa43224ac277f04d595a30f782d6",
            "0x0000000000000000000000007ee41d8a25641000661b1ef5e6ae8a00400466b0"
          ],
          "data": "0x000000000000000000000000000000000000000000000000000e7260db8fa4000000000000000000000000000000000000000000000000053bc77325014c2a1c000000000000000000000000000000000000000000002f250cc2c4a1d1e49f520000000000000000000000000000000000000000000000053bb900c425bc861c000000000000000000000000000000000000000000002f250cd13702ad744352",
          "blockHash": "0xc35b6d5fce22e507f4e31a3efbf430f8cdf79b0fe2e550d4893f359b814cb484",
          "blockNumber": "0x21bf2a5",
          "blockTimestamp": "0x69bb8f37",
          "transactionHash": "0xed93bccbcb7374ea2e8a24bcdbc07f509ac3000ce57cbc0de5a9be217aca4f73",
          "transactionIndex": "0x1",
          "logIndex": "0x3",
          "removed": false
        }
      ],
      "logsBloom": "0x00000000000000000000000000000000000000000000000000000000004000000000000000000000000000100000000000008000000000000000000000000000000000000000000000000000000000800000000000000000000100000000000000000000000000000400000000000000000000000000000080000000000000000000000000000000020000000400000000000000000000000000000000000000200000000000000000000000000000000000200000000000000000000000004000000000000000000001000000000000000000400000800000108000004000000000000000008000000000000000000000000000000800000000000000100000",
      "type": "0x2",
      "transactionHash": "0xed93bccbcb7374ea2e8a24bcdbc07f509ac3000ce57cbc0de5a9be217aca4f73",
      "transactionIndex": "0x1",
      "blockHash": "0xc35b6d5fce22e507f4e31a3efbf430f8cdf79b0fe2e550d4893f359b814cb484",
      "blockNumber": "0x21bf2a5",
      "gasUsed": "0x2117b",
      "effectiveGasPrice": "0x6fc23ac3f",
      "from": "0x8de56f797ff4aa43224ac277f04d595a30f782d6",
      "to": "0x3c3d2552bbdfeea59c85b619a24afe2472c69945",
      "contractAddress": null
    },
    {
      "status": "0x1",
      "cumulativeGasUsed": "0x20086",
      "logs": [
        {
          "address": "0x0000000000000000000000000000000000001010",
          "topics": [
            "0xe6497e3ee548a3372136af2fcb0696db31fc6cf20260707645068bd3fe97f3c4",
            "0x0000000000000000000000000000000000000000000000000000000000001010",
            "0x000000000000000000000000c15bd2eae18fca607c7a0446ff646cbd1055ab67",
            "0x0000000000000000000000003c3d2552bbdfeea59c85b619a24afe2472c69945"
          ],
          "data": "0x0000000000000000000000000000000000000000000000006f05b59d3b2000000000000000000000000000000000000000000000000000020ca3cd9fdefc30920000000000000000000000000000000000000000000000075f610f70ed2000000000000000000000000000000000000000000000000000019d9e1802a3dc3092000000000000000000000000000000000000000000000007ce66c50e28400000",
          "blockHash": "0xbbbf0f4f67d1b1d268f89796d0544f409628254f7c456dd574acbce94c5bc6c2",
          "blockNumber": "0x21bf2a8",
          "blockTimestamp": "0x69bb8f3d",
          "transactionHash": "0xfd47d85b20e7ffe0db2c6e0bc498f3821460c554028713ed20b327507f8259bc",
          "transactionIndex": "0x0",
          "logIndex": "0x0",
          "removed": false
        },
        {
          "address": "0x0000000000000000000000000000000000001010",
          "topics": [
            "0x4dfe1bbbcf077ddc3e01291eea2d5c70c2b422b415d95645b9adcfd678cb1d63",
            "0x0000000000000000000000000000000000000000000000000000000000001010",
            "0x000000000000000000000000c15bd2eae18fca607c7a0446ff646cbd1055ab67",
            "0x0000000000000000000000007ee41d8a25641000661b1ef5e6ae8a00400466b0"
          ],
          "data": "0x000000000000000000000000000000000000000000000000000dfbef52ac08000000000000000000000000000000000000000000000000020cb71e5fd86d4b67000000000000000000000000000000000000000000002f250dfc1e12e2afc30d0000000000000000000000000000000000000000000000020ca9227085c14367000000000000000000000000000000000000000000002f250e0a1a02355bcb0d",
          "blockHash": "0xbbbf0f4f67d1b1d268f89796d0544f409628254f7c456dd574acbce94c5bc6c2",
          "blockNumber": "0x21bf2a8",
          "blockTimestamp": "0x69bb8f3d",
          "transactionHash": "0xfd47d85b20e7ffe0db2c6e0bc498f3821460c554028713ed20b327507f8259bc",
          "transactionIndex": "0x0",
          "logIndex": "0x1",
          "removed": false
        }
      ],
      "logsBloom": "0x00000000000000000000000000000000000000000000000000000000000000000800000000000000000000100000000000008000000000000000000000000000000000000000000000000000000000800000000000000000000100000000000000800000000000000000000000000010000000000000000080000000000000000000000000000000020000000400000000000000000000000000000000000000200000000000000000000000000000000000200000000000000000000000004000000000000000000001000000000000000000400000800000108000000000000000000000008000000000000000000000000000000800000000000000100000",
      "type": "0x2",
      "transactionHash": "0xfd47d85b20e7ffe0db2c6e0bc498f3821460c554028713ed20b327507f8259bc",
      "transactionIndex": "0x0",
      "blockHash": "0xbbbf0f4f67d1b1d268f89796d0544f409628254f7c456dd574acbce94c5bc6c2",
      "blockNumber": "0x21bf2a8",
      "gasUsed": "0x20086",
      "effectiveGasPrice": "0x6fc23ac3f",
      "from": "0xc15bd2eae18fca607c7a0446ff646cbd1055ab67",
      "to": "0x3c3d2552bbdfeea59c85b619a24afe2472c69945",
      "contractAddress": null
    },
    {
      "status": "0x1",
      "cumulativeGasUsed": "0x3e3fb",
      "logs": [
        {
          "address": "0x0000000000000000000000000000000000001010",
          "topics": [
            "0xe6497e3ee548a3372136af2fcb0696db31fc6cf20260707645068bd3fe97f3c4",
            "0x0000000000000000000000000000000000000000000000000000000000001010",
            "0x0000000000000000000000000ec7f965127e4c57db223956b6b8f44ae57df704",
            "0x0000000000000000000000003c3d2552bbdfeea59c85b619a24afe2472c69945"
          ],
          "data": "0x0000000000000000000000000000000000000000000000006f05b59d3b2000000000000000000000000000000000000000000000000000017fcabef16602875b000000000000000000000000000000000000000000000007ce66c50e2840000000000000000000000000000000000000000000000000000110c509542ae2875b0000000000000000000000000000000000000000000000083d6c7aab63600000",
          "blockHash": "0xce1ec742a43f48f1601f728d24826b689f1447fd7de8f191a4eef2925cc15908",
          "blockNumber": "0x21bf2aa",
          "blockTimestamp": "0x69bb8f41",
          "transactionHash": "0x9507d2417f8c8ea5809bfe88b24cb49cfc1e7a2296eccc517e7ae34208c1223c",
          "transactionIndex": "0x1",
          "logIndex": "0x4",
          "removed": false
        },
        {
          "address": "0x0000000000000000000000000000000000001010",
          "topics": [
            "0x4dfe1bbbcf077ddc3e01291eea2d5c70c2b422b415d95645b9adcfd678cb1d63",
            "0x0000000000000000000000000000000000000000000000000000000000001010",
            "0x0000000000000000000000000ec7f965127e4c57db223956b6b8f44ae57df704",
            "0x0000000000000000000000007ee41d8a25641000661b1ef5e6ae8a00400466b0"
          ],
          "data": "0x000000000000000000000000000000000000000000000000000dfafad9cb84000000000000000000000000000000000000000000000000017fdf312f5dec6d3e000000000000000000000000000000000000000000002f250e7859d3f775a97a0000000000000000000000000000000000000000000000017fd136348420e93e000000000000000000000000000000000000000000002f250e8654ced1412d7a",
          "blockHash": "0xce1ec742a43f48f1601f728d24826b689f1447fd7de8f191a4eef2925cc15908",
          "blockNumber": "0x21bf2aa",
          "blockTimestamp": "0x69bb8f41",
          "transactionHash": "0x9507d2417f8c8ea5809bfe88b24cb49cfc1e7a2296eccc517e7ae34208c1223c",
          "transactionIndex": "0x1",
          "logIndex": "0x5",
          "removed": false
        }
      ],
      "logsBloom": "0x00000000000000000000000000000000000000000000000000000000000000000000000000000000000000100000000000008000000000000000000000000000000000000000000000000000000000800000000000000000000100000000000000000000000000000000000000000000400000001000000080000000000000000000000000000000020000000400000000000000000000000000000000000000200000000000000000000000000010000000200000000000000000000000004000000000000000000001000000000000000000400000800000108000000000000000000000008000000000000000000000000000000800000000000000100000",
      "type": "0x2",
      "transactionHash": "0x9507d2417f8c8ea5809bfe88b24cb49cfc1e7a2296eccc517e7ae34208c1223c",
      "transactionIndex": "0x1",
      "blockHash": "0xce1ec742a43f48f1601f728d24826b689f1447fd7de8f191a4eef2925cc15908",
      "blockNumber": "0x21bf2aa",
      "gasUsed": "0x20063",
      "effectiveGasPrice": "0x6fc23ac3f",
      "from": "0x0ec7f965127e4c57db223956b6b8f44ae57df704",
      "to": "0x3c3d2552bbdfeea59c85b619a24afe2472c69945",
      "contractAddress": null
    },
    {
      "status": "0x1",
      "cumulativeGasUsed": "0x1b29b",
      "logs": [
        {
          "address": "0x0000000000000000000000000000000000001010",
          "topics": [
            "0xe6497e3ee548a3372136af2fcb0696db31fc6cf20260707645068bd3fe97f3c4",
            "0x0000000000000000000000000000000000000000000000000000000000001010",
            "0x000000000000000000000000d58f3f6fff4e15caa04bedafe664b1c65803183b",
            "0x0000000000000000000000003c3d2552bbdfeea59c85b619a24afe2472c69945"
          ],
          "data": "0x0000000000000000000000000000000000000000000000006f05b59d3b200000000000000000000000000000000000000000000000000000eb9f3df9fcb3bf5e0000000000000000000000000000000000000000000000083d6c7aab636000000000000000000000000000000000000000000000000000007c99885cc193bf5e000000000000000000000000000000000000000000000008ac7230489e800000",
          "blockHash": "0x798a0a57d316c63b87a329e4d1c4cfb7350586a0a0803d573599f1d0a0cdfccc",
          "blockNumber": "0x21bf2ad",
          "blockTimestamp": "0x69bb8f47",
          "transactionHash": "0x0ff00505d410cdc46541d4f665738cefbf60430db2d5ae8fa96c1dc7b6a0a3fe",
          "transactionIndex": "0x0",
          "logIndex": "0x0",
          "removed": false
        },
        {
          "address": "0x0000000000000000000000000000000000001010",
          "topics": [
            "0x4dfe1bbbcf077ddc3e01291eea2d5c70c2b422b415d95645b9adcfd678cb1d63",
            "0x0000000000000000000000000000000000000000000000000000000000001010",
            "0x000000000000000000000000d58f3f6fff4e15caa04bedafe664b1c65803183b",
            "0x0000000000000000000000007ee41d8a25641000661b1ef5e6ae8a00400466b0"
          ],
          "data": "0x000000000000000000000000000000000000000000000000000bdbaf23312400000000000000000000000000000000000000000000000000ebb095a1228d4e83000000000000000000000000000000000000000000002f250f2646831e4e543a000000000000000000000000000000000000000000000000eba4b9f1ff5c2a83000000000000000000000000000000000000000000002f250f322232417f783a",
          "blockHash": "0x798a0a57d316c63b87a329e4d1c4cfb7350586a0a0803d573599f1d0a0cdfccc",
          "blockNumber": "0x21bf2ad",
          "blockTimestamp": "0x69bb8f47",
          "transactionHash": "0x0ff00505d410cdc46541d4f665738cefbf60430db2d5ae8fa96c1dc7b6a0a3fe",
          "transactionIndex": "0x0",
          "logIndex": "0x1",
          "removed": false
        }
      ],
      "logsBloom": "0x00000000000000000000000000000000000000000000000000000000000000000000000000000000000000100000000000008000000000000000000000000000000000000000000000000000000000800000000000000000000100000000000000000000000000000000000000000000000000000000000080020010000000000000000000000000020000000400000000000000000000000000000000000000200000000000000000000000000004000000200000000000000000000000004000000000000000000001000000000000000000400000800000108000000000000000000000008000000000000000000000000000000800000000000000100000",
      "type": "0x2",
      "transactionHash": "0x0ff00505d410cdc46541d4f665738cefbf60430db2d5ae8fa96c1dc7b6a0a3fe",
      "transactionIndex": "0x0",
      "blockHash": "0x798a0a57d316c63b87a329e4d1c4cfb7350586a0a0803d573599f1d0a0cdfccc",
      "blockNumber": "0x21bf2ad",
      "gasUsed": "0x1b29b",
      "effectiveGasPrice": "0x6fc23ac3f",
      "from": "0xd58f3f6fff4e15caa04bedafe664b1c65803183b",
      "to": "0x3c3d2552bbdfeea59c85b619a24afe2472c69945",
      "contractAddress": null
    },
    {
      "status": "0x1",
      "cumulativeGasUsed": "0x20063",
      "logs": [
        {
          "address": "0x0000000000000000000000000000000000001010",
          "topics": [
            "0xe6497e3ee548a3372136af2fcb0696db31fc6cf20260707645068bd3fe97f3c4",
            "0x0000000000000000000000000000000000000000000000000000000000001010",
            "0x000000000000000000000000c0ddfaf6c73c06f5ccc36670deb59a2ee0dfc19c",
            "0x0000000000000000000000003c3d2552bbdfeea59c85b619a24afe2472c69945"
          ],
          "data": "0x0000000000000000000000000000000000000000000000006f05b59d3b2000000000000000000000000000000000000000000000000000017f7edea9eab028dd000000000000000000000000000000000000000000000008ac7230489e8000000000000000000000000000000000000000000000000000011079290caf9028dd0000000000000000000000000000000000000000000000091b77e5e5d9a00000",
          "blockHash": "0x6e7dd37b232355530d56c97d2a3a7cee8a07f4b7fd654f84ec3d475b76dd8b94",
          "blockNumber": "0x21bf2af",
          "blockTimestamp": "0x69bb8f4b",
          "transactionHash": "0x32097af436f558a5a8641c58853b569591dc9304b07dc9a1b907d1e552346d27",
          "transactionIndex": "0x0",
          "logIndex": "0x0",
          "removed": false
        },
        {
          "address": "0x0000000000000000000000000000000000001010",
          "topics": [
            "0x4dfe1bbbcf077ddc3e01291eea2d5c70c2b422b415d95645b9adcfd678cb1d63",
            "0x0000000000000000000000000000000000000000000000000000000000001010",
            "0x000000000000000000000000c0ddfaf6c73c06f5ccc36670deb59a2ee0dfc19c",
            "0x0000000000000000000000007ee41d8a25641000661b1ef5e6ae8a00400466b0"
          ],
          "data": "0x000000000000000000000000000000000000000000000000000dfafad9cb84000000000000000000000000000000000000000000000000017f9350e7e29a0ec0000000000000000000000000000000000000000000002f250fd220c3db1905e20000000000000000000000000000000000000000000000017f8555ed08ce8ac0000000000000000000000000000000000000000000002f250fe01bbeb4e489e2",
          "blockHash": "0x6e7dd37b232355530d56c97d2a3a7cee8a07f4b7fd654f84ec3d475b76dd8b94",
          "blockNumber": "0x21bf2af",
          "blockTimestamp": "0x69bb8f4b",
          "transactionHash": "0x32097af436f558a5a8641c58853b569591dc9304b07dc9a1b907d1e552346d27",
          "transactionIndex": "0x0",
          "logIndex": "0x1",
          "removed": false
        }
      ],
      "logsBloom": "0x00000000000000000000000000000000000000000000000000000000000000000000000000000000000000140000000000008000000000000000000000000000000000000000000000000000000000800000000000000000000100000000000100000000000000000000000000000000000000000000000080000000000000000000000000000000020000000400000000000000001000000000000000000000200000000000000000000000000000000000200000000000000000000000004000000000000000000001000000000000000000400000800000108000000000000000000000008000000000000000000000000000000800000000000000100000",
      "type": "0x2",
      "transactionHash": "0x32097af436f558a5a8641c58853b569591dc9304b07dc9a1b907d1e552346d27",
      "transactionIndex": "0x0",
      "blockHash": "0x6e7dd37b232355530d56c97d2a3a7cee8a07f4b7fd654f84ec3d475b76dd8b94",
      "blockNumber": "0x21bf2af",
      "gasUsed": "0x20063",
      "effectiveGasPrice": "0x6fc23ac3f",
      "from": "0xc0ddfaf6c73c06f5ccc36670deb59a2ee0dfc19c",
      "to": "0x3c3d2552bbdfeea59c85b619a24afe2472c69945",
      "contractAddress": null
    },
    {
      "status": "0x1",
      "cumulativeGasUsed": "0x20063",
      "logs": [
        {
          "address": "0x0000000000000000000000000000000000001010",
          "topics": [
            "0xe6497e3ee548a3372136af2fcb0696db31fc6cf20260707645068bd3fe97f3c4",
            "0x0000000000000000000000000000000000000000000000000000000000001010",
            "0x0000000000000000000000000cefb748b5afebc47dbe7ea934916cb14ac8e678",
            "0x0000000000000000000000003c3d2552bbdfeea59c85b619a24afe2472c69945"
          ],
          "data": "0x0000000000000000000000000000000000000000000000006f05b59d3b20000000000000000000000000000000000000000000000000000122738baf3f4850770000000000000000000000000000000000000000000000091b77e5e5d9a00000000000000000000000000000000000000000000000000000b36dd612042850770000000000000000000000000000000000000000000000098a7d9b8314c00000",
          "blockHash": "0x39b5dbe0ca61f289bdb85ba06bd7ca69233bda683a92098d024e5f7690db591c",
          "blockNumber": "0x21bf2b1",
          "blockTimestamp": "0x69bb8f4f",
          "transactionHash": "0xc2fffd385ee2e0a3c00e2c2f297898807cae7b13d437fe92d9bd1116884ffcac",
          "transactionIndex": "0x0",
          "logIndex": "0x0",
          "removed": false
        },
        {
          "address": "0x0000000000000000000000000000000000001010",
          "topics": [
            "0x4dfe1bbbcf077ddc3e01291eea2d5c70c2b422b415d95645b9adcfd678cb1d63",
            "0x0000000000000000000000000000000000000000000000000000000000001010",
            "0x0000000000000000000000000cefb748b5afebc47dbe7ea934916cb14ac8e678",
            "0x0000000000000000000000007ee41d8a25641000661b1ef5e6ae8a00400466b0"
          ],
          "data": "0x000000000000000000000000000000000000000000000000000dfafad9cb84000000000000000000000000000000000000000000000000012287fded3732365a000000000000000000000000000000000000000000002f250fe01bbeb4e489e2000000000000000000000000000000000000000000000001227a02f25d66b25a000000000000000000000000000000000000000000002f250fee16b98eb00de2",
          "blockHash": "0x39b5dbe0ca61f289bdb85ba06bd7ca69233bda683a92098d024e5f7690db591c",
          "blockNumber": "0x21bf2b1",
          "blockTimestamp": "0x69bb8f4f",
          "transactionHash": "0xc2fffd385ee2e0a3c00e2c2f297898807cae7b13d437fe92d9bd1116884ffcac",
          "transactionIndex": "0x0",
          "logIndex": "0x1",
          "removed": false
        }
      ],
      "logsBloom": "0x00000000000000000000000000000000000000000000000000000000000000000000000000000000000000100000000000008000000000000000000000000000000000000000000000000000000000800000000000000000000100000000000000000000000000000000000000000000000000000000000080000000000000000000000000000000020000000400000000000000040000000000000000000000200000000000000000000000000000000000200000000000000000000000004000000000000000000001000000000000000000400000800000108000001000000000000000008000000000000000000000000000000800000040000000100000",
      "type": "0x2",
      "transactionHash": "0xc2fffd385ee2e0a3c00e2c2f297898807cae7b13d437fe92d9bd1116884ffcac",
      "transactionIndex": "0x0",
      "blockHash": "0x39b5dbe0ca61f289bdb85ba06bd7ca69233bda683a92098d024e5f7690db591c",
      "blockNumber": "0x21bf2b1",
      "gasUsed": "0x20063",
      "effectiveGasPrice": "0x6fc23ac3f",
      "from": "0x0cefb748b5afebc47dbe7ea934916cb14ac8e678",
      "to": "0x3c3d2552bbdfeea59c85b619a24afe2472c69945",
      "contractAddress": null
    },
    {
      "status": "0x1",
      "cumulativeGasUsed": "0x1b29b",
      "logs": [
        {
          "address": "0x0000000000000000000000000000000000001010",
          "topics": [
            "0xe6497e3ee548a3372136af2fcb0696db31fc6cf20260707645068bd3fe97f3c4",
            "0x0000000000000000000000000000000000000000000000000000000000001010",
            "0x000000000000000000000000fa0e503051f60c5e1c4a712c84d53961195eb96a",
            "0x0000000000000000000000003c3d2552bbdfeea59c85b619a24afe2472c69945"
          ],
          "data": "0x0000000000000000000000000000000000000000000000006f05b59d3b2000000000000000000000000000000000000000000000000000012b8a04c9c0743ee60000000000000000000000000000000000000000000000098a7d9b8314c00000000000000000000000000000000000000000000000000000bc844f2c85543ee6000000000000000000000000000000000000000000000009f98351204fe00000",
          "blockHash": "0xcba6add2355eea0a854901211cf61e92e39ef930c4c79aba9a793446de6f2764",
          "blockNumber": "0x21bf2b3",
          "blockTimestamp": "0x69bb8f53",
          "transactionHash": "0xb8688966d6982aea27cc5c8f5514ab15c7c7e34f43bc097527d5a738545f0561",
          "transactionIndex": "0x0",
          "logIndex": "0x0",
          "removed": false
        },
        {
          "address": "0x0000000000000000000000000000000000001010",
          "topics": [
            "0x4dfe1bbbcf077ddc3e01291eea2d5c70c2b422b415d95645b9adcfd678cb1d63",
            "0x0000000000000000000000000000000000000000000000000000000000001010",
            "0x000000000000000000000000fa0e503051f60c5e1c4a712c84d53961195eb96a",
            "0x0000000000000000000000007ee41d8a25641000661b1ef5e6ae8a00400466b0"
          ],
          "data": "0x000000000000000000000000000000000000000000000000000bdbaf233124000000000000000000000000000000000000000000000000012b9b5c70e64dce0b000000000000000000000000000000000000000000002f250fee16b98eb00de20000000000000000000000000000000000000000000000012b8f80c1c31caa0b000000000000000000000000000000000000000000002f250ff9f268b1e131e2",
          "blockHash": "0xcba6add2355eea0a854901211cf61e92e39ef930c4c79aba9a793446de6f2764",
          "blockNumber": "0x21bf2b3",
          "blockTimestamp": "0x69bb8f53",
          "transactionHash": "0xb8688966d6982aea27cc5c8f5514ab15c7c7e34f43bc097527d5a738545f0561",
          "transactionIndex": "0x0",
          "logIndex": "0x1",
          "removed": false
        }
      ],
      "logsBloom": "0x00000000000000000000000000000000000000000000000000000000000000000000000000000000000000100000000000008000000000000000000000000000000000000000000000000000000000800000000000000000000100000000000000000000000000000000000000000000000000000000000080000000000000000000000000100000020000000400000000000000000000000000000000000000200000000000000000000000000000000000200000000000000000000000004000000000000000000001000000000000800000400000800000108000000000000000000000008000000000000000000000001000000800000000000000100000",
      "type": "0x2",
      "transactionHash": "0xb8688966d6982aea27cc5c8f5514ab15c7c7e34f43bc097527d5a738545f0561",
      "transactionIndex": "0x0",
      "blockHash": "0xcba6add2355eea0a854901211cf61e92e39ef930c4c79aba9a793446de6f2764",
      "blockNumber": "0x21bf2b3",
      "gasUsed": "0x1b29b",
      "effectiveGasPrice": "0x6fc23ac3f",
      "from": "0xfa0e503051f60c5e1c4a712c84d53961195eb96a",
      "to": "0x3c3d2552bbdfeea59c85b619a24afe2472c69945",
      "contractAddress": null
    },
    {
      "status": "0x1",
      "cumulativeGasUsed": "0x3cd5c",
      "logs": [
        {
          "address": "0x0000000000000000000000000000000000001010",
          "topics": [
            "0xe6497e3ee548a3372136af2fcb0696db31fc6cf20260707645068bd3fe97f3c4",
            "0x0000000000000000000000000000000000000000000000000000000000001010",
            "0x0000000000000000000000000b00144644ba73e8f83ccdcad5c838ccf9fdc581",
            "0x0000000000000000000000003c3d2552bbdfeea59c85b619a24afe2472c69945"
          ],
          "data": "0x0000000000000000000000000000000000000000000000006f05b59d3b200000000000000000000000000000000000000000000000000001c20e770a0270ddee000000000000000000000000000000000000000000000009f98351204fe000000000000000000000000000000000000000000000000000015308c16cc750ddee00000000000000000000000000000000000000000000000a688906bd8b000000",
          "blockHash": "0x65083d7c042b45463785de02b4b3f1bb51589a0d9274dc01004ff26822559e9e",
          "blockNumber": "0x21bf2b5",
          "blockTimestamp": "0x69bb8f57",
          "transactionHash": "0x29bbd8505de1f40fcfe51749fe5bfb4f8a24ae8e662785ab416a591714d86c5a",
          "transactionIndex": "0x1",
          "logIndex": "0x3",
          "removed": false
        },
        {
          "address": "0x0000000000000000000000000000000000001010",
          "topics": [
            "0x4dfe1bbbcf077ddc3e01291eea2d5c70c2b422b415d95645b9adcfd678cb1d63",
            "0x0000000000000000000000000000000000000000000000000000000000001010",
            "0x0000000000000000000000000b00144644ba73e8f83ccdcad5c838ccf9fdc581",
            "0x0000000000000000000000007ee41d8a25641000661b1ef5e6ae8a00400466b0"
          ],
          "data": "0x000000000000000000000000000000000000000000000000000dfafad9cb8400000000000000000000000000000000000000000000000001c222e947fa5ac3d1000000000000000000000000000000000000000000002f25101eb7fada46661f000000000000000000000000000000000000000000000001c214ee4d208f3fd1000000000000000000000000000000000000000000002f25102cb2f5b411ea1f",
          "blockHash": "0x65083d7c042b45463785de02b4b3f1bb51589a0d9274dc01004ff26822559e9e",
          "blockNumber": "0x21bf2b5",
          "blockTimestamp": "0x69bb8f57",
          "transactionHash": "0x29bbd8505de1f40fcfe51749fe5bfb4f8a24ae8e662785ab416a591714d86c5a",
          "transactionIndex": "0x1",
          "logIndex": "0x4",
          "removed": false
        }
      ],
      "logsBloom": "0x00000000000000000000000000000000000000000000000800000000000000000000000000000000000000100000000000008000000000000000000000000000000000000000000000000000000000800000000000000000000100200000000000000000000000000000000000000000000000000000000080000000000000000000000000000000020000000400000000000000000000000000000000000000200000000000000000000000000000000000200000000000000000010000004000000000000000000001000000000000000000400000800000108000000000000000000000008000000000000000000000000000000800000000000000100000",
      "type": "0x2",
      "transactionHash": "0x29bbd8505de1f40fcfe51749fe5bfb4f8a24ae8e662785ab416a591714d86c5a",
      "transactionIndex": "0x1",
      "blockHash": "0x65083d7c042b45463785de02b4b3f1bb51589a0d9274dc01004ff26822559e9e",
      "blockNumber": "0x21bf2b5",
      "gasUsed": "0x20063",
      "effectiveGasPrice": "0x6fc23ac3f",
      "from": "0x0b00144644ba73e8f83ccdcad5c838ccf9fdc581",
      "to": "0x3c3d2552bbdfeea59c85b619a24afe2472c69945",
      "contractAddress": null
    },
    {
      "status": "0x1",
      "cumulativeGasUsed": "0x47eca1",
      "logs": [
        {
          "address": "0x3c3d2552bbdfeea59c85b619a24afe2472c69945",
          "topics": [
            "0x760f85c8f46eac1ffec67d69fed68b85b1370c34dff479d15afcd53437b9291f",
            "0x0000000000000000000000000000000000000000000000000000000000000005",
            "0x0000000000000000000000008de56f797ff4aa43224ac277f04d595a30f782d6"
          ],
          "data": "0x",
          "blockHash": "0x13c30b76f623b4df2e44a7186b2ba23a5318438048878e992e95b099e11b2439",
          "blockNumber": "0x21bf2b7",
          "blockTimestamp": "0x69bb8f5b",
          "transactionHash": "0x5b931ef7217d49a886427613c7111ba0393d03699b776989b887820a78f99fee",
          "transactionIndex": "0x3",
          "logIndex": "0x3",
          "removed": false
        },
        {
          "address": "0x3c3d2552bbdfeea59c85b619a24afe2472c69945",
          "topics": [
            "0x760f85c8f46eac1ffec67d69fed68b85b1370c34dff479d15afcd53437b9291f",
            "0x0000000000000000000000000000000000000000000000000000000000000005",
            "0x000000000000000000000000c15bd2eae18fca607c7a0446ff646cbd1055ab67"
          ],
          "data": "0x",
          "blockHash": "0x13c30b76f623b4df2e44a7186b2ba23a5318438048878e992e95b099e11b2439",
          "blockNumber": "0x21bf2b7",
          "blockTimestamp": "0x69bb8f5b",
          "transactionHash": "0x5b931ef7217d49a886427613c7111ba0393d03699b776989b887820a78f99fee",
          "transactionIndex": "0x3",
          "logIndex": "0x4",
          "removed": false
        },
        {
          "address": "0x3c3d2552bbdfeea59c85b619a24afe2472c69945",
          "topics": [
            "0x760f85c8f46eac1ffec67d69fed68b85b1370c34dff479d15afcd53437b9291f",
            "0x0000000000000000000000000000000000000000000000000000000000000005",
            "0x0000000000000000000000000ec7f965127e4c57db223956b6b8f44ae57df704"
          ],
          "data": "0x",
          "blockHash": "0x13c30b76f623b4df2e44a7186b2ba23a5318438048878e992e95b099e11b2439",
          "blockNumber": "0x21bf2b7",
          "blockTimestamp": "0x69bb8f5b",
          "transactionHash": "0x5b931ef7217d49a886427613c7111ba0393d03699b776989b887820a78f99fee",
          "transactionIndex": "0x3",
          "logIndex": "0x5",
          "removed": false
        },
        {
          "address": "0x3c3d2552bbdfeea59c85b619a24afe2472c69945",
          "topics": [
            "0x760f85c8f46eac1ffec67d69fed68b85b1370c34dff479d15afcd53437b9291f",
            "0x0000000000000000000000000000000000000000000000000000000000000005",
            "0x000000000000000000000000d58f3f6fff4e15caa04bedafe664b1c65803183b"
          ],
          "data": "0x",
          "blockHash": "0x13c30b76f623b4df2e44a7186b2ba23a5318438048878e992e95b099e11b2439",
          "blockNumber": "0x21bf2b7",
          "blockTimestamp": "0x69bb8f5b",
          "transactionHash": "0x5b931ef7217d49a886427613c7111ba0393d03699b776989b887820a78f99fee",
          "transactionIndex": "0x3",
          "logIndex": "0x6",
          "removed": false
        },
        {
          "address": "0x3c3d2552bbdfeea59c85b619a24afe2472c69945",
          "topics": [
            "0x760f85c8f46eac1ffec67d69fed68b85b1370c34dff479d15afcd53437b9291f",
            "0x0000000000000000000000000000000000000000000000000000000000000005",
            "0x000000000000000000000000c0ddfaf6c73c06f5ccc36670deb59a2ee0dfc19c"
          ],
          "data": "0x",
          "blockHash": "0x13c30b76f623b4df2e44a7186b2ba23a5318438048878e992e95b099e11b2439",
          "blockNumber": "0x21bf2b7",
          "blockTimestamp": "0x69bb8f5b",
          "transactionHash": "0x5b931ef7217d49a886427613c7111ba0393d03699b776989b887820a78f99fee",
          "transactionIndex": "0x3",
          "logIndex": "0x7",
          "removed": false
        },
        {
          "address": "0x3c3d2552bbdfeea59c85b619a24afe2472c69945",
          "topics": [
            "0x760f85c8f46eac1ffec67d69fed68b85b1370c34dff479d15afcd53437b9291f",
            "0x0000000000000000000000000000000000000000000000000000000000000005",
            "0x0000000000000000000000000cefb748b5afebc47dbe7ea934916cb14ac8e678"
          ],
          "data": "0x",
          "blockHash": "0x13c30b76f623b4df2e44a7186b2ba23a5318438048878e992e95b099e11b2439",
          "blockNumber": "0x21bf2b7",
          "blockTimestamp": "0x69bb8f5b",
          "transactionHash": "0x5b931ef7217d49a886427613c7111ba0393d03699b776989b887820a78f99fee",
          "transactionIndex": "0x3",
          "logIndex": "0x8",
          "removed": false
        },
        {
          "address": "0x3c3d2552bbdfeea59c85b619a24afe2472c69945",
          "topics": [
            "0x760f85c8f46eac1ffec67d69fed68b85b1370c34dff479d15afcd53437b9291f",
            "0x0000000000000000000000000000000000000000000000000000000000000005",
            "0x000000000000000000000000fa0e503051f60c5e1c4a712c84d53961195eb96a"
          ],
          "data": "0x",
          "blockHash": "0x13c30b76f623b4df2e44a7186b2ba23a5318438048878e992e95b099e11b2439",
          "blockNumber": "0x21bf2b7",
          "blockTimestamp": "0x69bb8f5b",
          "transactionHash": "0x5b931ef7217d49a886427613c7111ba0393d03699b776989b887820a78f99fee",
          "transactionIndex": "0x3",
          "logIndex": "0x9",
          "removed": false
        },
        {
          "address": "0x3c3d2552bbdfeea59c85b619a24afe2472c69945",
          "topics": [
            "0x760f85c8f46eac1ffec67d69fed68b85b1370c34dff479d15afcd53437b9291f",
            "0x0000000000000000000000000000000000000000000000000000000000000005",
            "0x0000000000000000000000000b00144644ba73e8f83ccdcad5c838ccf9fdc581"
          ],
          "data": "0x",
          "blockHash": "0x13c30b76f623b4df2e44a7186b2ba23a5318438048878e992e95b099e11b2439",
          "blockNumber": "0x21bf2b7",
          "blockTimestamp": "0x69bb8f5b",
          "transactionHash": "0x5b931ef7217d49a886427613c7111ba0393d03699b776989b887820a78f99fee",
          "transactionIndex": "0x3",
          "logIndex": "0xa",
          "removed": false
        },
        {
          "address": "0x0000000000000000000000000000000000001010",
          "topics": [
            "0x4dfe1bbbcf077ddc3e01291eea2d5c70c2b422b415d95645b9adcfd678cb1d63",
            "0x0000000000000000000000000000000000000000000000000000000000001010",
            "0x0000000000000000000000008de56f797ff4aa43224ac277f04d595a30f782d6",
            "0x0000000000000000000000007ee41d8a25641000661b1ef5e6ae8a00400466b0"
          ],
          "data": "0x00000000000000000000000000000000000000000000000001e0404416778400000000000000000000000000000000000000000000000004ccb34b26ea1a38d7000000000000000000000000000000000000000000002f251106e9497beca4df000000000000000000000000000000000000000000000004cad30ae2d3a2b4d7000000000000000000000000000000000000000000002f2512e7298d926428df",
          "blockHash": "0x13c30b76f623b4df2e44a7186b2ba23a5318438048878e992e95b099e11b2439",
          "blockNumber": "0x21bf2b7",
          "blockTimestamp": "0x69bb8f5b",
          "transactionHash": "0x5b931ef7217d49a886427613c7111ba0393d03699b776989b887820a78f99fee",
          "transactionIndex": "0x3",
          "logIndex": "0xb",
          "removed": false
        }
      ],
      "logsBloom": "0x00008000000000000000000000000000001000000000000800000000004000000800000000000000000000040000000000008000000000000000000000000000000010000000000400000000000000800000000000000004000100201000000100800000000000000400000000000010400000001000000080020010000000000000000000102000020000000400001000000800041000000000000000000000200000000000000000000000000014000000000000000000000000010000004000000000000000000001000000000000800000400000000000100000005000000000000000000000000000000000000000001000000000000040000000100000",
      "type": "0x2",
      "transactionHash": "0x5b931ef7217d49a886427613c7111ba0393d03699b776989b887820a78f99fee",
      "transactionIndex": "0x3",
      "blockHash": "0x13c30b76f623b4df2e44a7186b2ba23a5318438048878e992e95b099e11b2439",
      "blockNumber": "0x21bf2b7",
      "gasUsed": "0x44c163",
      "effectiveGasPrice": "0x6fc23ac3f",
      "from": "0x8de56f797ff4aa43224ac277f04d595a30f782d6",
      "to": "0x0cd7c44903b6d09b1e910a0c625be8fe8746d3c3",
      "contractAddress": null
    },
    {
      "status": "0x1",
      "cumulativeGasUsed": "0xa5dab",
      "logs": [
        {
          "address": "0x3c3d2552bbdfeea59c85b619a24afe2472c69945",
          "topics": [
            "0x3bfcc3e41aa03b7575bc15e72aa39826ec3640d8d71058400d3e72cbd34ca750"
          ],
          "data": "0x0000000000000000000000000000000000000000000000000000000000000001",
          "blockHash": "0x2d06ab4559d5da1cfebf2755d262bc0ecea08dc0897b6dfc54466083ebe2665f",
          "blockNumber": "0x21bf2ba",
          "blockTimestamp": "0x69bb8f61",
          "transactionHash": "0x7ed048fa509524efaef6a132756a8f0f8ce34b8256f6a658eaf8ba0898b2cdf0",
          "transactionIndex": "0x2",
          "logIndex": "0x8",
          "removed": false
        },
        {
          "address": "0x0000000000000000000000000000000000001010",
          "topics": [
            "0x4dfe1bbbcf077ddc3e01291eea2d5c70c2b422b415d95645b9adcfd678cb1d63",
            "0x0000000000000000000000000000000000000000000000000000000000001010",
            "0x0000000000000000000000008de56f797ff4aa43224ac277f04d595a30f782d6",
            "0x0000000000000000000000007ee41d8a25641000661b1ef5e6ae8a00400466b0"
          ],
          "data": "0x000000000000000000000000000000000000000000000000002a12481fa99400000000000000000000000000000000000000000000000004cad30ae2c2b71d7a000000000000000000000000000000000000000000002f251372fef5f83ddaed000000000000000000000000000000000000000000000004caa8f89aa30d897a000000000000000000000000000000000000000000002f25139d113e17e76eed",
          "blockHash": "0x2d06ab4559d5da1cfebf2755d262bc0ecea08dc0897b6dfc54466083ebe2665f",
          "blockNumber": "0x21bf2ba",
          "blockTimestamp": "0x69bb8f61",
          "transactionHash": "0x7ed048fa509524efaef6a132756a8f0f8ce34b8256f6a658eaf8ba0898b2cdf0",
          "transactionIndex": "0x2",
          "logIndex": "0x9",
          "removed": false
        }
      ],
      "logsBloom": "0x00000000000000000000000000000000001000000000000000000000004000800000000000000000000000000000000000008000000000000000000000000000000000000000000000000000000000800000000000000000000100001000000200000000000000000400008000000000000000000000000080000000000000000000000000002000020000000400000000000000000000000000000000000000200000000000000000000000000000000000000000000000000000000000004000000000000000000001000000000000000000400000000000100000004000000000000000000000000000000000000000000000000000000000000000100000",
      "type": "0x2",
      "transactionHash": "0x7ed048fa509524efaef6a132756a8f0f8ce34b8256f6a658eaf8ba0898b2cdf0",
      "transactionIndex": "0x2",
      "blockHash": "0x2d06ab4559d5da1cfebf2755d262bc0ecea08dc0897b6dfc54466083ebe2665f",
      "blockNumber": "0x21bf2ba",
      "gasUsed": "0x605ef",
      "effectiveGasPrice": "0x6fc23ac3f",
      "from": "0x8de56f797ff4aa43224ac277f04d595a30f782d6",
      "to": "0xac9ff649d7a7440f823587a132bfc0b0104cfaaf",
      "contractAddress": null
    }
  ],
  "libraries": [],
  "pending": [],
  "returns": {},
  "timestamp": 1773899617713,
  "chain": 80002,
  "commit": "85a58ae"
}