{
  "transactions": [
    {
      "hash": "0xcc607eb189cbf7dd8a531c0ff689c8939e50630b0f800c66e5316cb6d856bea0",
      "transactionType": "CALL",
      "contractName": null,
      "contractAddress": "0xbabe41bafd25c80995a2096a793da67d79067aa6",
      "function": "joinMatch(uint256,uint256,uint8)",
      "arguments": [
        "0",
        "0",
        "0"
      ],
      "transaction": {
        "from": "0x8de56f797ff4aa43224ac277f04d595a30f782d6",
        "to": "0xbabe41bafd25c80995a2096a793da67d79067aa6",
        "gas": "0x27f97",
        "value": "0x6f05b59d3b200000",
        "input": "0xbff89c2a000000000000000000000000000000000000000000000000000000000000000000000000000000000000000000000000000000000000000000000000000000000000000000000000000000000000000000000000000000000000000000000000",
        "nonce": "0x92",
        "chainId": "0x13882"
      },
      "additionalContracts": [],
      "isFixedGasLimit": false
    },
    {
      "hash": "0x08480b6550f689ee27f7a3a6a4ffa43b30670bd7df2fe73fc517dd873c2a82f0",
      "transactionType": "CALL",
      "contractName": null,
      "contractAddress": "0xbabe41bafd25c80995a2096a793da67d79067aa6",
      "function": "joinMatch(uint256,uint256,uint8)",
      "arguments": [
        "1",
        "1",
        "0"
      ],
      "transaction": {
        "from": "0xc15bd2eae18fca607c7a0446ff646cbd1055ab67",
        "to": "0xbabe41bafd25c80995a2096a793da67d79067aa6",
        "gas": "0x32709",
        "value": "0x6f05b59d3b200000",
        "input": "0xbff89c2a000000000000000000000000000000000000000000000000000000000000000100000000000000000000000000000000000000000000000000000000000000010000000000000000000000000000000000000000000000000000000000000000",
        "nonce": "0x19",
        "chainId": "0x13882"
      },
      "additionalContracts": [],
      "isFixedGasLimit": false
    },
    {
      "hash": "0x3a5e0e8213fb0875f48e673a17aaa6933572a0f96d9878db4ff18b26a63e4814",
      "transactionType": "CALL",
      "contractName": null,
      "contractAddress": "0xbabe41bafd25c80995a2096a793da67d79067aa6",
      "function": "joinMatch(uint256,uint256,uint8)",
      "arguments": [
        "2",
        "2",
        "0"
      ],
      "transaction": {
        "from": "0x0ec7f965127e4c57db223956b6b8f44ae57df704",
        "to": "0xbabe41bafd25c80995a2096a793da67d79067aa6",
        "gas": "0x32709",
        "value": "0x6f05b59d3b200000",
        "input": "0xbff89c2a000000000000000000000000000000000000000000000000000000000000000200000000000000000000000000000000000000000000000000000000000000020000000000000000000000000000000000000000000000000000000000000000",
        "nonce": "0x1d",
        "chainId": "0x13882"
      },
      "additionalContracts": [],
      "isFixedGasLimit": false
    },
    {
      "hash": "0x0f67ef96e4d0ea0c74d20ac5eba2ce2187fd7d9c6a73a56e2839822504791306",
      "transactionType": "CALL",
      "contractName": null,
      "contractAddress": "0xbabe41bafd25c80995a2096a793da67d79067aa6",
      "function": "joinMatch(uint256,uint256,uint8)",
      "arguments": [
        "3",
        "0",
        "0"
      ],
      "transaction": {
        "from": "0xd58f3f6fff4e15caa04bedafe664b1c65803183b",
        "to": "0xbabe41bafd25c80995a2096a793da67d79067aa6",
        "gas": "0x2b547",
        "value": "0x6f05b59d3b200000",
        "input": "0xbff89c2a000000000000000000000000000000000000000000000000000000000000000300000000000000000000000000000000000000000000000000000000000000000000000000000000000000000000000000000000000000000000000000000000",
        "nonce": "0x1c",
        "chainId": "0x13882"
      },
      "additionalContracts": [],
      "isFixedGasLimit": false
    },
    {
      "hash": "0xae507baac166ff0e423f020e10548edab797a0cd95dd63747cc67bbacff42aeb",
      "transactionType": "CALL",
      "contractName": null,
      "contractAddress": "0xbabe41bafd25c80995a2096a793da67d79067aa6",
      "function": "joinMatch(uint256,uint256,uint8)",
      "arguments": [
        "4",
        "1",
        "0"
      ],
      "transaction": {
        "from": "0xc0ddfaf6c73c06f5ccc36670deb59a2ee0dfc19c",
        "to": "0xbabe41bafd25c80995a2096a793da67d79067aa6",
        "gas": "0x32709",
        "value": "0x6f05b59d3b200000",
        "input": "0xbff89c2a000000000000000000000000000000000000000000000000000000000000000400000000000000000000000000000000000000000000000000000000000000010000000000000000000000000000000000000000000000000000000000000000",
        "nonce": "0x1f",
        "chainId": "0x13882"
      },
      "additionalContracts": [],
      "isFixedGasLimit": false
    },
    {
      "hash": "0x0f38852de43f1ec178f3d201deab1a1a0a26350cfd3cbb6b3e8f9dd16222f41b",
      "transactionType": "CALL",
      "contractName": null,
      "contractAddress": "0xbabe41bafd25c80995a2096a793da67d79067aa6",
      "function": "joinMatch(uint256,uint256,uint8)",
      "arguments": [
        "5",
        "2",
        "0"
      ],
      "transaction": {
        "from": "0x0cefb748b5afebc47dbe7ea934916cb14ac8e678",
        "to": "0xbabe41bafd25c80995a2096a793da67d79067aa6",
        "gas": "0x32709",
        "value": "0x6f05b59d3b200000",
        "input": "0xbff89c2a000000000000000000000000000000000000000000000000000000000000000500000000000000000000000000000000000000000000000000000000000000020000000000000000000000000000000000000000000000000000000000000000",
        "nonce": "0x16",
        "chainId": "0x13882"
      },
      "additionalContracts": [],
      "isFixedGasLimit": false
    },
    {
      "hash": "0x6456bee5ab47643c07798d819d1e5f6820ec151733a23832cfb4d6b70c1bafa6",
      "transactionType": "CALL",
      "contractName": null,
      "contractAddress": "0xbabe41bafd25c80995a2096a793da67d79067aa6",
      "function": "joinMatch(uint256,uint256,uint8)",
      "arguments": [
        "6",
        "0",
        "0"
      ],
      "transaction": {
        "from": "0xfa0e503051f60c5e1c4a712c84d53961195eb96a",
        "to": "0xbabe41bafd25c80995a2096a793da67d79067aa6",
        "gas": "0x2b547",
        "value": "0x6f05b59d3b200000",
        "input": "0xbff89c2a000000000000000000000000000000000000000000000000000000000000000600000000000000000000000000000000000000000000000000000000000000000000000000000000000000000000000000000000000000000000000000000000",
        "nonce": "0x19",
        "chainId": "0x13882"
      },
      "additionalContracts": [],
      "isFixedGasLimit": false
    },
    {
      "hash": "0xe8d4b6b413a7fa64b226930fc3f64ebf6e8d9e47355934e92b52d4ede7a0f2a8",
      "transactionType": "CALL",
      "contractName": null,
      "contractAddress": "0xbabe41bafd25c80995a2096a793da67d79067aa6",
      "function": "joinMatch(uint256,uint256,uint8)",
      "arguments": [
        "7",
        "1",
        "0"
      ],
      "transaction": {
        "from": "0x0b00144644ba73e8f83ccdcad5c838ccf9fdc581",
        "to": "0xbabe41bafd25c80995a2096a793da67d79067aa6",
        "gas": "0x32709",
        "value": "0x6f05b59d3b200000",
        "input": "0xbff89c2a000000000000000000000000000000000000000000000000000000000000000700000000000000000000000000000000000000000000000000000000000000010000000000000000000000000000000000000000000000000000000000000000",
        "nonce": "0x17",
        "chainId": "0x13882"
      },
      "additionalContracts": [],
      "isFixedGasLimit": false
    },
    {
      "hash": "0x6475653d1847fad3ad2b1e48e7f193b35e0960a004f627a19d19e14d2c8dd5ed",
      "transactionType": "CALL",
      "contractName": null,
      "contractAddress": "0xbabe41bafd25c80995a2096a793da67d79067aa6",
      "function": "executeMatch()",
      "arguments": [],
      "transaction": {
        "from": "0x8de56f797ff4aa43224ac277f04d595a30f782d6",
        "to": "0xbabe41bafd25c80995a2096a793da67d79067aa6",
        "gas": "0x6f1f52",
        "value": "0x0",
        "input": "0x3c936fbe",
        "nonce": "0x93",
        "chainId": "0x13882"
      },
      "additionalContracts": [],
      "isFixedGasLimit": false
    }
  ],
  "receipts": [
    {
      "status": "0x1",
      "cumulativeGasUsed": "0x3b2e2",
      "logs": [
        {
          "address": "0x0000000000000000000000000000000000001010",
          "topics": [
            "0xe6497e3ee548a3372136af2fcb0696db31fc6cf20260707645068bd3fe97f3c4",
            "0x0000000000000000000000000000000000000000000000000000000000001010",
            "0x0000000000000000000000008de56f797ff4aa43224ac277f04d595a30f782d6",
            "0x000000000000000000000000babe41bafd25c80995a2096a793da67d79067aa6"
          ],
          "data": "0x0000000000000000000000000000000000000000000000006f05b59d3b20000000000000000000000000000000000000000000000000000c1644cc51cd0933c6000000000000000000000000000000000000000000000000000000000000000000000000000000000000000000000000000000000000000ba73f16b491e933c60000000000000000000000000000000000000000000000006f05b59d3b200000",
          "blockHash": "0x5b7c2249b30b530278f1098c4491bac7c00e2a0147cbc9423e3562d4942d98e3",
          "blockNumber": "0x21bd625",
          "blockTimestamp": "0x69bb5637",
          "transactionHash": "0xcc607eb189cbf7dd8a531c0ff689c8939e50630b0f800c66e5316cb6d856bea0",
          "transactionIndex": "0x1",
          "logIndex": "0x4",
          "removed": false
        },
        {
          "address": "0x0000000000000000000000000000000000001010",
          "topics": [
            "0x4dfe1bbbcf077ddc3e01291eea2d5c70c2b422b415d95645b9adcfd678cb1d63",
            "0x0000000000000000000000000000000000000000000000000000000000001010",
            "0x0000000000000000000000008de56f797ff4aa43224ac277f04d595a30f782d6",
            "0x0000000000000000000000007ee41d8a25641000661b1ef5e6ae8a00400466b0"
          ],
          "data": "0x00000000000000000000000000000000000000000000000000150eaa820c580000000000000000000000000000000000000000000000000c1661e220134405ef000000000000000000000000000000000000000000002f1c2e61104b5822074f00000000000000000000000000000000000000000000000c164cd3759137adef000000000000000000000000000000000000000000002f1c2e761ef5da2e5f4f",
          "blockHash": "0x5b7c2249b30b530278f1098c4491bac7c00e2a0147cbc9423e3562d4942d98e3",
          "blockNumber": "0x21bd625",
          "blockTimestamp": "0x69bb5637",
          "transactionHash": "0xcc607eb189cbf7dd8a531c0ff689c8939e50630b0f800c66e5316cb6d856bea0",
          "transactionIndex": "0x1",
          "logIndex": "0x5",
          "removed": false
        }
      ],
      "logsBloom": "0x00000000000000000000000000000000000000000000000000000000004000000000000000000000000000100000000000008000000000000000000000000000000200000000000000000000000000800000000000000000000100000000000000000000000000000400000000000000000000000000000080000004000000000000000000000000020000000400000000000000000000000000000000000000200000000000000000000000000000000000000000000000000080000000004000000000000000000001000000000000000000400000800000108000004000000000000000000000000000000000000000000000000000000000000000100000",
      "type": "0x2",
      "transactionHash": "0xcc607eb189cbf7dd8a531c0ff689c8939e50630b0f800c66e5316cb6d856bea0",
      "transactionIndex": "0x1",
      "blockHash": "0x5b7c2249b30b530278f1098c4491bac7c00e2a0147cbc9423e3562d4942d98e3",
      "blockNumber": "0x21bd625",
      "gasUsed": "0x1cf0e",
      "effectiveGasPrice": "0xba43b743f",
      "from": "0x8de56f797ff4aa43224ac277f04d595a30f782d6",
      "to": "0xbabe41bafd25c80995a2096a793da67d79067aa6",
      "contractAddress": null
    },
    {
      "status": "0x1",
      "cumulativeGasUsed": "0x227d2",
      "logs": [
        {
          "address": "0x0000000000000000000000000000000000001010",
          "topics": [
            "0xe6497e3ee548a3372136af2fcb0696db31fc6cf20260707645068bd3fe97f3c4",
            "0x0000000000000000000000000000000000000000000000000000000000001010",
            "0x000000000000000000000000c15bd2eae18fca607c7a0446ff646cbd1055ab67",
            "0x000000000000000000000000babe41bafd25c80995a2096a793da67d79067aa6"
          ],
          "data": "0x0000000000000000000000000000000000000000000000006f05b59d3b2000000000000000000000000000000000000000000000000000035a30711ae0c535ba0000000000000000000000000000000000000000000000006f05b59d3b200000000000000000000000000000000000000000000000000002eb2abb7da5a535ba000000000000000000000000000000000000000000000000de0b6b3a76400000",
          "blockHash": "0x3ecf5cc83a0f7ab3b2ccb170ebe36f677a7abc11c37b2a855639ac2d6159151d",
          "blockNumber": "0x21bd627",
          "blockTimestamp": "0x69bb563b",
          "transactionHash": "0x08480b6550f689ee27f7a3a6a4ffa43b30670bd7df2fe73fc517dd873c2a82f0",
          "transactionIndex": "0x0",
          "logIndex": "0x0",
          "removed": false
        },
        {
          "address": "0x0000000000000000000000000000000000001010",
          "topics": [
            "0x4dfe1bbbcf077ddc3e01291eea2d5c70c2b422b415d95645b9adcfd678cb1d63",
            "0x0000000000000000000000000000000000000000000000000000000000001010",
            "0x000000000000000000000000c15bd2eae18fca607c7a0446ff646cbd1055ab67",
            "0x0000000000000000000000007ee41d8a25641000661b1ef5e6ae8a00400466b0"
          ],
          "data": "0x00000000000000000000000000000000000000000000000000191808af7128000000000000000000000000000000000000000000000000035a55243b124ee4f1000000000000000000000000000000000000000000002f1c2e8d0b2816f7fb4f0000000000000000000000000000000000000000000000035a3c0c3262ddbcf1000000000000000000000000000000000000000000002f1c2ea62330c669234f",
          "blockHash": "0x3ecf5cc83a0f7ab3b2ccb170ebe36f677a7abc11c37b2a855639ac2d6159151d",
          "blockNumber": "0x21bd627",
          "blockTimestamp": "0x69bb563b",
          "transactionHash": "0x08480b6550f689ee27f7a3a6a4ffa43b30670bd7df2fe73fc517dd873c2a82f0",
          "transactionIndex": "0x0",
          "logIndex": "0x1",
          "removed": false
        }
      ],
      "logsBloom": "0x00000000000000000000000000000000000000000000000000000000000000000800000000000000000000100000000000008000000000000000000000000000000200000000000000000000000000800000000000000000000100000000000000800000000000000000000000000010000000000000000080000004000000000000000000000000020000000400000000000000000000000000000000000000200000000000000000000000000000000000000000000000000080000000004000000000000000000001000000000000000000400000800000108000000000000000000000000000000000000000000000000000000000000000000000100000",
      "type": "0x2",
      "transactionHash": "0x08480b6550f689ee27f7a3a6a4ffa43b30670bd7df2fe73fc517dd873c2a82f0",
      "transactionIndex": "0x0",
      "blockHash": "0x3ecf5cc83a0f7ab3b2ccb170ebe36f677a7abc11c37b2a855639ac2d6159151d",
      "blockNumber": "0x21bd627",
      "gasUsed": "0x227d2",
      "effectiveGasPrice": "0xba43b743f",
      "from": "0xc15bd2eae18fca607c7a0446ff646cbd1055ab67",
      "to": "0xbabe41bafd25c80995a2096a793da67d79067aa6",
      "contractAddress": null
    },
    {
      "status": "0x1",
      "cumulativeGasUsed": "0xaf41e",
      "logs": [
        {
          "address": "0x0000000000000000000000000000000000001010",
          "topics": [
            "0xe6497e3ee548a3372136af2fcb0696db31fc6cf20260707645068bd3fe97f3c4",
            "0x0000000000000000000000000000000000000000000000000000000000001010",
            "0x0000000000000000000000000ec7f965127e4c57db223956b6b8f44ae57df704",
            "0x000000000000000000000000babe41bafd25c80995a2096a793da67d79067aa6"
          ],
          "data": "0x0000000000000000000000000000000000000000000000006f05b59d3b200000000000000000000000000000000000000000000000000002cd4cd96d11e65f21000000000000000000000000000000000000000000000000de0b6b3a764000000000000000000000000000000000000000000000000000025e4723cfd6c65f210000000000000000000000000000000000000000000000014d1120d7b1600000",
          "blockHash": "0x42cac83055da8fec107f3eaa6b9839290e3dcb393001ac79788d34faa0d35491",
          "blockNumber": "0x21bd629",
          "blockTimestamp": "0x69bb563f",
          "transactionHash": "0x3a5e0e8213fb0875f48e673a17aaa6933572a0f96d9878db4ff18b26a63e4814",
          "transactionIndex": "0x9",
          "logIndex": "0xe",
          "removed": false
        },
        {
          "address": "0x0000000000000000000000000000000000001010",
          "topics": [
            "0x4dfe1bbbcf077ddc3e01291eea2d5c70c2b422b415d95645b9adcfd678cb1d63",
            "0x0000000000000000000000000000000000000000000000000000000000001010",
            "0x0000000000000000000000000ec7f965127e4c57db223956b6b8f44ae57df704",
            "0x0000000000000000000000007ee41d8a25641000661b1ef5e6ae8a00400466b0"
          ],
          "data": "0x00000000000000000000000000000000000000000000000000191808af712800000000000000000000000000000000000000000000000002cd718c8d43700e58000000000000000000000000000000000000000000002f1c2fd4cdd5117b4789000000000000000000000000000000000000000000000002cd58748493fee658000000000000000000000000000000000000000000002f1c2fede5ddc0ec6f89",
          "blockHash": "0x42cac83055da8fec107f3eaa6b9839290e3dcb393001ac79788d34faa0d35491",
          "blockNumber": "0x21bd629",
          "blockTimestamp": "0x69bb563f",
          "transactionHash": "0x3a5e0e8213fb0875f48e673a17aaa6933572a0f96d9878db4ff18b26a63e4814",
          "transactionIndex": "0x9",
          "logIndex": "0xf",
          "removed": false
        }
      ],
      "logsBloom": "0x00000000000000000000000000000000000000000000000000000000000000000000000000000000000000100000000000008000000000000000000000000000000200000000000000000000000000800000000000000000000100000000000000000000000000000000000000000000400000001000000080000004000000000000000000000000020000000400000000000000000000000000000000000000200000000000000000000000000010000000000000000000000080000000004000000000000000000001000000000000000000400000800000108000000000000000000000000000000000000000000000000000000000000000000000100000",
      "type": "0x2",
      "transactionHash": "0x3a5e0e8213fb0875f48e673a17aaa6933572a0f96d9878db4ff18b26a63e4814",
      "transactionIndex": "0x9",
      "blockHash": "0x42cac83055da8fec107f3eaa6b9839290e3dcb393001ac79788d34faa0d35491",
      "blockNumber": "0x21bd629",
      "gasUsed": "0x227d2",
      "effectiveGasPrice": "0xba43b743f",
      "from": "0x0ec7f965127e4c57db223956b6b8f44ae57df704",
      "to": "0xbabe41bafd25c80995a2096a793da67d79067aa6",
      "contractAddress": null
    },
    {
      "status": "0x1",
      "cumulativeGasUsed": "0x1da0a",
      "logs": [
        {
          "address": "0x0000000000000000000000000000000000001010",
          "topics": [
            "0xe6497e3ee548a3372136af2fcb0696db31fc6cf20260707645068bd3fe97f3c4",
            "0x0000000000000000000000000000000000000000000000000000000000001010",
            "0x000000000000000000000000d58f3f6fff4e15caa04bedafe664b1c65803183b",
            "0x000000000000000000000000babe41bafd25c80995a2096a793da67d79067aa6"
          ],
          "data": "0x0000000000000000000000000000000000000000000000006f05b59d3b200000000000000000000000000000000000000000000000000001238f7b5c8efddeb40000000000000000000000000000000000000000000000014d1120d7b1600000000000000000000000000000000000000000000000000000b489c5bf53dddeb4000000000000000000000000000000000000000000000001bc16d674ec800000",
          "blockHash": "0xcddd7c0c169fd4af5bcb9d321adcf970f43af35ca7882f7cb153fe39785b2304",
          "blockNumber": "0x21bd62b",
          "blockTimestamp": "0x69bb5643",
          "transactionHash": "0x0f67ef96e4d0ea0c74d20ac5eba2ce2187fd7d9c6a73a56e2839822504791306",
          "transactionIndex": "0x0",
          "logIndex": "0x0",
          "removed": false
        },
        {
          "address": "0x0000000000000000000000000000000000001010",
          "topics": [
            "0x4dfe1bbbcf077ddc3e01291eea2d5c70c2b422b415d95645b9adcfd678cb1d63",
            "0x0000000000000000000000000000000000000000000000000000000000001010",
            "0x000000000000000000000000d58f3f6fff4e15caa04bedafe664b1c65803183b",
            "0x0000000000000000000000007ee41d8a25641000661b1ef5e6ae8a00400466b0"
          ],
          "data": "0x00000000000000000000000000000000000000000000000000158e8a7f1a880000000000000000000000000000000000000000000000000123af022c0d29a72d000000000000000000000000000000000000000000002f1c301b36ea1e4c4a89000000000000000000000000000000000000000000000001239973a18e0f1f2d000000000000000000000000000000000000000000002f1c3030c5749d66d289",
          "blockHash": "0xcddd7c0c169fd4af5bcb9d321adcf970f43af35ca7882f7cb153fe39785b2304",
          "blockNumber": "0x21bd62b",
          "blockTimestamp": "0x69bb5643",
          "transactionHash": "0x0f67ef96e4d0ea0c74d20ac5eba2ce2187fd7d9c6a73a56e2839822504791306",
          "transactionIndex": "0x0",
          "logIndex": "0x1",
          "removed": false
        }
      ],
      "logsBloom": "0x00000000000000000000000000000000000000000000000000000000000000000000000000000000000000100000000000008000000000000000000000000000000200000000000000000000000000800000000000000000000100000000000000000000000000000000000000000000000000000000000080020014000000000000000000000000020000000400000000000000000000000000000000000000200000000000000000000000000004000000000000000000000080000000004000000000000000000001000000000000000000400000800000108000000000000000000000000000000000000000000000000000000000000000000000100000",
      "type": "0x2",
      "transactionHash": "0x0f67ef96e4d0ea0c74d20ac5eba2ce2187fd7d9c6a73a56e2839822504791306",
      "transactionIndex": "0x0",
      "blockHash": "0xcddd7c0c169fd4af5bcb9d321adcf970f43af35ca7882f7cb153fe39785b2304",
      "blockNumber": "0x21bd62b",
      "gasUsed": "0x1da0a",
      "effectiveGasPrice": "0xba43b743f",
      "from": "0xd58f3f6fff4e15caa04bedafe664b1c65803183b",
      "to": "0xbabe41bafd25c80995a2096a793da67d79067aa6",
      "contractAddress": null
    },
    {
      "status": "0x1",
      "cumulativeGasUsed": "0x227d2",
      "logs": [
        {
          "address": "0x0000000000000000000000000000000000001010",
          "topics": [
            "0xe6497e3ee548a3372136af2fcb0696db31fc6cf20260707645068bd3fe97f3c4",
            "0x0000000000000000000000000000000000000000000000000000000000001010",
            "0x000000000000000000000000c0ddfaf6c73c06f5ccc36670deb59a2ee0dfc19c",
            "0x000000000000000000000000babe41bafd25c80995a2096a793da67d79067aa6"
          ],
          "data": "0x0000000000000000000000000000000000000000000000006f05b59d3b200000000000000000000000000000000000000000000000000000a1ff3a95fd1eafca000000000000000000000000000000000000000000000001bc16d674ec80000000000000000000000000000000000000000000000000000032f984f8c1feafca0000000000000000000000000000000000000000000000022b1c8c1227a00000",
          "blockHash": "0x40835b2e1b762fed98b93f98185f9353f2adaea4527ce3204bf4167b5e6bd845",
          "blockNumber": "0x21bd62d",
          "blockTimestamp": "0x69bb5647",
          "transactionHash": "0xae507baac166ff0e423f020e10548edab797a0cd95dd63747cc67bbacff42aeb",
          "transactionIndex": "0x0",
          "logIndex": "0x0",
          "removed": false
        },
        {
          "address": "0x0000000000000000000000000000000000001010",
          "topics": [
            "0x4dfe1bbbcf077ddc3e01291eea2d5c70c2b422b415d95645b9adcfd678cb1d63",
            "0x0000000000000000000000000000000000000000000000000000000000001010",
            "0x000000000000000000000000c0ddfaf6c73c06f5ccc36670deb59a2ee0dfc19c",
            "0x0000000000000000000000007ee41d8a25641000661b1ef5e6ae8a00400466b0"
          ],
          "data": "0x00000000000000000000000000000000000000000000000000191808af712800000000000000000000000000000000000000000000000000a223edb62ea85f01000000000000000000000000000000000000000000002f1c3030c5749d66d289000000000000000000000000000000000000000000000000a20ad5ad7f373701000000000000000000000000000000000000000000002f1c3049dd7d4cd7fa89",
          "blockHash": "0x40835b2e1b762fed98b93f98185f9353f2adaea4527ce3204bf4167b5e6bd845",
          "blockNumber": "0x21bd62d",
          "blockTimestamp": "0x69bb5647",
          "transactionHash": "0xae507baac166ff0e423f020e10548edab797a0cd95dd63747cc67bbacff42aeb",
          "transactionIndex": "0x0",
          "logIndex": "0x1",
          "removed": false
        }
      ],
      "logsBloom": "0x00000000000000000000000000000000000000000000000000000000000000000000000000000000000000140000000000008000000000000000000000000000000200000000000000000000000000800000000000000000000100000000000100000000000000000000000000000000000000000000000080000004000000000000000000000000020000000400000000000000001000000000000000000000200000000000000000000000000000000000000000000000000080000000004000000000000000000001000000000000000000400000800000108000000000000000000000000000000000000000000000000000000000000000000000100000",
      "type": "0x2",
      "transactionHash": "0xae507baac166ff0e423f020e10548edab797a0cd95dd63747cc67bbacff42aeb",
      "transactionIndex": "0x0",
      "blockHash": "0x40835b2e1b762fed98b93f98185f9353f2adaea4527ce3204bf4167b5e6bd845",
      "blockNumber": "0x21bd62d",
      "gasUsed": "0x227d2",
      "effectiveGasPrice": "0xba43b743f",
      "from": "0xc0ddfaf6c73c06f5ccc36670deb59a2ee0dfc19c",
      "to": "0xbabe41bafd25c80995a2096a793da67d79067aa6",
      "contractAddress": null
    },
    {
      "status": "0x1",
      "cumulativeGasUsed": "0x46ac8",
      "logs": [
        {
          "address": "0x0000000000000000000000000000000000001010",
          "topics": [
            "0xe6497e3ee548a3372136af2fcb0696db31fc6cf20260707645068bd3fe97f3c4",
            "0x0000000000000000000000000000000000000000000000000000000000001010",
            "0x0000000000000000000000000cefb748b5afebc47dbe7ea934916cb14ac8e678",
            "0x000000000000000000000000babe41bafd25c80995a2096a793da67d79067aa6"
          ],
          "data": "0x0000000000000000000000000000000000000000000000006f05b59d3b2000000000000000000000000000000000000000000000000000015a7f5a9808dfa3600000000000000000000000000000000000000000000000022b1c8c1227a00000000000000000000000000000000000000000000000000000eb79a4facdbfa3600000000000000000000000000000000000000000000000029a2241af62c00000",
          "blockHash": "0x1071cce9eff8188a4be3be0a464a29dd6b2705340b637c44ad9f804229b36e8e",
          "blockNumber": "0x21bd630",
          "blockTimestamp": "0x69bb564d",
          "transactionHash": "0x0f38852de43f1ec178f3d201deab1a1a0a26350cfd3cbb6b3e8f9dd16222f41b",
          "transactionIndex": "0x1",
          "logIndex": "0x4",
          "removed": false
        },
        {
          "address": "0x0000000000000000000000000000000000001010",
          "topics": [
            "0x4dfe1bbbcf077ddc3e01291eea2d5c70c2b422b415d95645b9adcfd678cb1d63",
            "0x0000000000000000000000000000000000000000000000000000000000001010",
            "0x0000000000000000000000000cefb748b5afebc47dbe7ea934916cb14ac8e678",
            "0x0000000000000000000000007ee41d8a25641000661b1ef5e6ae8a00400466b0"
          ],
          "data": "0x00000000000000000000000000000000000000000000000000191808af7128000000000000000000000000000000000000000000000000015aa40db83a695297000000000000000000000000000000000000000000002f1c324f1917f3a7895f0000000000000000000000000000000000000000000000015a8af5af8af82a97000000000000000000000000000000000000000000002f1c32683120a318b15f",
          "blockHash": "0x1071cce9eff8188a4be3be0a464a29dd6b2705340b637c44ad9f804229b36e8e",
          "blockNumber": "0x21bd630",
          "blockTimestamp": "0x69bb564d",
          "transactionHash": "0x0f38852de43f1ec178f3d201deab1a1a0a26350cfd3cbb6b3e8f9dd16222f41b",
          "transactionIndex": "0x1",
          "logIndex": "0x5",
          "removed": false
        }
      ],
      "logsBloom": "0x00000000000000000000000000000000000000000000000000000000000000000000000000000000000000100000000000008000000000000000000000000000000200000000000000000000000000800000000000000000000100000000000000000000000000000000000000000000000000000000000080000004000000000000000000000000020000000400000000000000040000000000000000000000200000000000000000000000000000000000000000000000000080000000004000000000000000000001000000000000000000400000800000108000001000000000000000000000000000000000000000000000000000000040000000100000",
      "type": "0x2",
      "transactionHash": "0x0f38852de43f1ec178f3d201deab1a1a0a26350cfd3cbb6b3e8f9dd16222f41b",
      "transactionIndex": "0x1",
      "blockHash": "0x1071cce9eff8188a4be3be0a464a29dd6b2705340b637c44ad9f804229b36e8e",
      "blockNumber": "0x21bd630",
      "gasUsed": "0x227d2",
      "effectiveGasPrice": "0xba43b743f",
      "from": "0x0cefb748b5afebc47dbe7ea934916cb14ac8e678",
      "to": "0xbabe41bafd25c80995a2096a793da67d79067aa6",
      "contractAddress": null
    },
    {
      "status": "0x1",
      "cumulativeGasUsed": "0x313edb",
      "logs": [
        {
          "address": "0x0000000000000000000000000000000000001010",
          "topics": [
            "0xe6497e3ee548a3372136af2fcb0696db31fc6cf20260707645068bd3fe97f3c4",
            "0x0000000000000000000000000000000000000000000000000000000000001010",
            "0x000000000000000000000000fa0e503051f60c5e1c4a712c84d53961195eb96a",
            "0x000000000000000000000000babe41bafd25c80995a2096a793da67d79067aa6"
          ],
          "data": "0x0000000000000000000000000000000000000000000000006f05b59d3b200000000000000000000000000000000000000000000000000001638eb32453d815270000000000000000000000000000000000000000000000029a2241af62c00000000000000000000000000000000000000000000000000000f488fd8718b815270000000000000000000000000000000000000000000000030927f74c9de00000",
          "blockHash": "0x7eb2505c1fb9a0c31468d6349070ca884ffeb46eb2f7c15862ef448344cac2b5",
          "blockNumber": "0x21bd632",
          "blockTimestamp": "0x69bb5651",
          "transactionHash": "0x6456bee5ab47643c07798d819d1e5f6820ec151733a23832cfb4d6b70c1bafa6",
          "transactionIndex": "0x1",
          "logIndex": "0x4",
          "removed": false
        },
        {
          "address": "0x0000000000000000000000000000000000001010",
          "topics": [
            "0x4dfe1bbbcf077ddc3e01291eea2d5c70c2b422b415d95645b9adcfd678cb1d63",
            "0x0000000000000000000000000000000000000000000000000000000000001010",
            "0x000000000000000000000000fa0e503051f60c5e1c4a712c84d53961195eb96a",
            "0x0000000000000000000000007ee41d8a25641000661b1ef5e6ae8a00400466b0"
          ],
          "data": "0x00000000000000000000000000000000000000000000000000158e8a7f1a880000000000000000000000000000000000000000000000000163ae39f3d203dda0000000000000000000000000000000000000000000002f1c3b9b7a85f0278e880000000000000000000000000000000000000000000000016398ab6952e955a0000000000000000000000000000000000000000000002f1c3bb109106f421688",
          "blockHash": "0x7eb2505c1fb9a0c31468d6349070ca884ffeb46eb2f7c15862ef448344cac2b5",
          "blockNumber": "0x21bd632",
          "blockTimestamp": "0x69bb5651",
          "transactionHash": "0x6456bee5ab47643c07798d819d1e5f6820ec151733a23832cfb4d6b70c1bafa6",
          "transactionIndex": "0x1",
          "logIndex": "0x5",
          "removed": false
        }
      ],
      "logsBloom": "0x00000000000000000000000000000000000000000000000000000000000000000000000000000000000000100000000000008000000000000000000000000000000200000000000000000000000000800000000000000000000100000000000000000000000000000000000000000000000000000000000080000004000000000000000000100000020000000400000000000000000000000000000000000000200000000000000000000000000000000000000000000000000080000000004000000000000000000001000000000000800000400000800000108000000000000000000000000000000000000000000000001000000000000000000000100000",
      "type": "0x2",
      "transactionHash": "0x6456bee5ab47643c07798d819d1e5f6820ec151733a23832cfb4d6b70c1bafa6",
      "transactionIndex": "0x1",
      "blockHash": "0x7eb2505c1fb9a0c31468d6349070ca884ffeb46eb2f7c15862ef448344cac2b5",
      "blockNumber": "0x21bd632",
      "gasUsed": "0x1da0a",
      "effectiveGasPrice": "0xba43b743f",
      "from": "0xfa0e503051f60c5e1c4a712c84d53961195eb96a",
      "to": "0xbabe41bafd25c80995a2096a793da67d79067aa6",
      "contractAddress": null
    },
    {
      "status": "0x1",
      "cumulativeGasUsed": "0x227d2",
      "logs": [
        {
          "address": "0x0000000000000000000000000000000000001010",
          "topics": [
            "0xe6497e3ee548a3372136af2fcb0696db31fc6cf20260707645068bd3fe97f3c4",
            "0x0000000000000000000000000000000000000000000000000000000000001010",
            "0x0000000000000000000000000b00144644ba73e8f83ccdcad5c838ccf9fdc581",
            "0x000000000000000000000000babe41bafd25c80995a2096a793da67d79067aa6"
          ],
          "data": "0x0000000000000000000000000000000000000000000000006f05b59d3b2000000000000000000000000000000000000000000000000000030fa8556a092684a70000000000000000000000000000000000000000000000030927f74c9de00000000000000000000000000000000000000000000000000002a0a29fccce0684a7000000000000000000000000000000000000000000000003782dace9d9000000",
          "blockHash": "0xcd78b531023ccee79b55c5bbb7f720925a37cba77801c04ef98737e6efbb60ba",
          "blockNumber": "0x21bd634",
          "blockTimestamp": "0x69bb5655",
          "transactionHash": "0xe8d4b6b413a7fa64b226930fc3f64ebf6e8d9e47355934e92b52d4ede7a0f2a8",
          "transactionIndex": "0x0",
          "logIndex": "0x0",
          "removed": false
        },
        {
          "address": "0x0000000000000000000000000000000000001010",
          "topics": [
            "0x4dfe1bbbcf077ddc3e01291eea2d5c70c2b422b415d95645b9adcfd678cb1d63",
            "0x0000000000000000000000000000000000000000000000000000000000001010",
            "0x0000000000000000000000000b00144644ba73e8f83ccdcad5c838ccf9fdc581",
            "0x0000000000000000000000007ee41d8a25641000661b1ef5e6ae8a00400466b0"
          ],
          "data": "0x00000000000000000000000000000000000000000000000000191808af7128000000000000000000000000000000000000000000000000030fcd088a3ab033de000000000000000000000000000000000000000000002f1c3c85e6aac33d0d000000000000000000000000000000000000000000000000030fb3f0818b3f0bde000000000000000000000000000000000000000000002f1c3c9efeb372ae3500",
          "blockHash": "0xcd78b531023ccee79b55c5bbb7f720925a37cba77801c04ef98737e6efbb60ba",
          "blockNumber": "0x21bd634",
          "blockTimestamp": "0x69bb5655",
          "transactionHash": "0xe8d4b6b413a7fa64b226930fc3f64ebf6e8d9e47355934e92b52d4ede7a0f2a8",
          "transactionIndex": "0x0",
          "logIndex": "0x1",
          "removed": false
        }
      ],
      "logsBloom": "0x00000000000000000000000000000000000000000000000800000000000000000000000000000000000000100000000000008000000000000000000000000000000200000000000000000000000000800000000000000000000100200000000000000000000000000000000000000000000000000000000080000004000000000000000000000000020000000400000000000000000000000000000000000000200000000000000000000000000000000000000000000000000080010000004000000000000000000001000000000000000000400000800000108000000000000000000000000000000000000000000000000000000000000000000000100000",
      "type": "0x2",
      "transactionHash": "0xe8d4b6b413a7fa64b226930fc3f64ebf6e8d9e47355934e92b52d4ede7a0f2a8",
      "transactionIndex": "0x0",
      "blockHash": "0xcd78b531023ccee79b55c5bbb7f720925a37cba77801c04ef98737e6efbb60ba",
      "blockNumber": "0x21bd634",
      "gasUsed": "0x227d2",
      "effectiveGasPrice": "0xba43b743f",
      "from": "0x0b00144644ba73e8f83ccdcad5c838ccf9fdc581",
      "to": "0xbabe41bafd25c80995a2096a793da67d79067aa6",
      "contractAddress": null
    },
    {
      "status": "0x1",
      "cumulativeGasUsed": "0x4b12f4",
      "logs": [
        {
          "address": "0xbabe41bafd25c80995a2096a793da67d79067aa6",
          "topics": [
            "0x2d16d316de83975ed2544621a95d728e2c04646d3b5aa34f0842034eb065e2e1",
            "0x0000000000000000000000008de56f797ff4aa43224ac277f04d595a30f782d6"
          ],
          "data": "0x0000000000000000000000000000000000000000000000000000000000000006ffffffffffffffffffffffffffffffffffffffffffffffffffffffffffffffe2000000000000000000000000000000000000000000000000000000000000002300000000000000000000000000000000000000000000000000000000000000000000000000000000000000000000000000000000000000000000000000000000",
          "blockHash": "0xa4cd7c3b9443b28b3456b5ab712dc62a50009d7592d51e6134a87fd8a74719de",
          "blockNumber": "0x21bd636",
          "blockTimestamp": "0x69bb5659",
          "transactionHash": "0x6475653d1847fad3ad2b1e48e7f193b35e0960a004f627a19d19e14d2c8dd5ed",
          "transactionIndex": "0x0",
          "logIndex": "0x0",
          "removed": false
        },
        {
          "address": "0xbabe41bafd25c80995a2096a793da67d79067aa6",
          "topics": [
            "0x2d16d316de83975ed2544621a95d728e2c04646d3b5aa34f0842034eb065e2e1",
            "0x000000000000000000000000c15bd2eae18fca607c7a0446ff646cbd1055ab67"
          ],
          "data": "0x0000000000000000000000000000000000000000000000000000000000000000000000000000000000000000000000000000000000000000000000000000002d000000000000000000000000000000000000000000000000000000000000007800000000000000000000000000000000000000000000000000000000000000000000000000000000000000000000000000000000000000000000000000000000",
          "blockHash": "0xa4cd7c3b9443b28b3456b5ab712dc62a50009d7592d51e6134a87fd8a74719de",
          "blockNumber": "0x21bd636",
          "blockTimestamp": "0x69bb5659",
          "transactionHash": "0x6475653d1847fad3ad2b1e48e7f193b35e0960a004f627a19d19e14d2c8dd5ed",
          "transactionIndex": "0x0",
          "logIndex": "0x1",
          "removed": false
        },
        {
          "address": "0xbabe41bafd25c80995a2096a793da67d79067aa6",
          "topics": [
            "0x2d16d316de83975ed2544621a95d728e2c04646d3b5aa34f0842034eb065e2e1",
            "0x0000000000000000000000000ec7f965127e4c57db223956b6b8f44ae57df704"
          ],
          "data": "0x0000000000000000000000000000000000000000000000000000000000000001000000000000000000000000000000000000000000000000000000000000001e000000000000000000000000000000000000000000000000000000000000006400000000000000000000000000000000000000000000000000000000000000000000000000000000000000000000000000000000000000000000000000000000",
          "blockHash": "0xa4cd7c3b9443b28b3456b5ab712dc62a50009d7592d51e6134a87fd8a74719de",
          "blockNumber": "0x21bd636",
          "blockTimestamp": "0x69bb5659",
          "transactionHash": "0x6475653d1847fad3ad2b1e48e7f193b35e0960a004f627a19d19e14d2c8dd5ed",
          "transactionIndex": "0x0",
          "logIndex": "0x2",
          "removed": false
        },
        {
          "address": "0xbabe41bafd25c80995a2096a793da67d79067aa6",
          "topics": [
            "0x2d16d316de83975ed2544621a95d728e2c04646d3b5aa34f0842034eb065e2e1",
            "0x000000000000000000000000d58f3f6fff4e15caa04bedafe664b1c65803183b"
          ],
          "data": "0x0000000000000000000000000000000000000000000000000000000000000004fffffffffffffffffffffffffffffffffffffffffffffffffffffffffffffffb000000000000000000000000000000000000000000000000000000000000003700000000000000000000000000000000000000000000000000000000000000000000000000000000000000000000000000000000000000000000000000000000",
          "blockHash": "0xa4cd7c3b9443b28b3456b5ab712dc62a50009d7592d51e6134a87fd8a74719de",
          "blockNumber": "0x21bd636",
          "blockTimestamp": "0x69bb5659",
          "transactionHash": "0x6475653d1847fad3ad2b1e48e7f193b35e0960a004f627a19d19e14d2c8dd5ed",
          "transactionIndex": "0x0",
          "logIndex": "0x3",
          "removed": false
        },
        {
          "address": "0xbabe41bafd25c80995a2096a793da67d79067aa6",
          "topics": [
            "0x2d16d316de83975ed2544621a95d728e2c04646d3b5aa34f0842034eb065e2e1",
            "0x000000000000000000000000c0ddfaf6c73c06f5ccc36670deb59a2ee0dfc19c"
          ],
          "data": "0x0000000000000000000000000000000000000000000000000000000000000002000000000000000000000000000000000000000000000000000000000000000f000000000000000000000000000000000000000000000000000000000000005500000000000000000000000000000000000000000000000000000000000000000000000000000000000000000000000000000000000000000000000000000000",
          "blockHash": "0xa4cd7c3b9443b28b3456b5ab712dc62a50009d7592d51e6134a87fd8a74719de",
          "blockNumber": "0x21bd636",
          "blockTimestamp": "0x69bb5659",
          "transactionHash": "0x6475653d1847fad3ad2b1e48e7f193b35e0960a004f627a19d19e14d2c8dd5ed",
          "transactionIndex": "0x0",
          "logIndex": "0x4",
          "removed": false
        },
        {
          "address": "0xbabe41bafd25c80995a2096a793da67d79067aa6",
          "topics": [
            "0x2d16d316de83975ed2544621a95d728e2c04646d3b5aa34f0842034eb065e2e1",
            "0x0000000000000000000000000cefb748b5afebc47dbe7ea934916cb14ac8e678"
          ],
          "data": "0x0000000000000000000000000000000000000000000000000000000000000005fffffffffffffffffffffffffffffffffffffffffffffffffffffffffffffff1000000000000000000000000000000000000000000000000000000000000002d00000000000000000000000000000000000000000000000000000000000000000000000000000000000000000000000000000000000000000000000000000000",
          "blockHash": "0xa4cd7c3b9443b28b3456b5ab712dc62a50009d7592d51e6134a87fd8a74719de",
          "blockNumber": "0x21bd636",
          "blockTimestamp": "0x69bb5659",
          "transactionHash": "0x6475653d1847fad3ad2b1e48e7f193b35e0960a004f627a19d19e14d2c8dd5ed",
          "transactionIndex": "0x0",
          "logIndex": "0x5",
          "removed": false
        },
        {
          "address": "0xbabe41bafd25c80995a2096a793da67d79067aa6",
          "topics": [
            "0x2d16d316de83975ed2544621a95d728e2c04646d3b5aa34f0842034eb065e2e1",
            "0x000000000000000000000000fa0e503051f60c5e1c4a712c84d53961195eb96a"
          ],
          "data": "0x0000000000000000000000000000000000000000000000000000000000000007ffffffffffffffffffffffffffffffffffffffffffffffffffffffffffffffd3000000000000000000000000000000000000000000000000000000000000001900000000000000000000000000000000000000000000000000000000000000000000000000000000000000000000000000000000000000000000000000000000",
          "blockHash": "0xa4cd7c3b9443b28b3456b5ab712dc62a50009d7592d51e6134a87fd8a74719de",
          "blockNumber": "0x21bd636",
          "blockTimestamp": "0x69bb5659",
          "transactionHash": "0x6475653d1847fad3ad2b1e48e7f193b35e0960a004f627a19d19e14d2c8dd5ed",
          "transactionIndex": "0x0",
          "logIndex": "0x6",
          "removed": false
        },
        {
          "address": "0xbabe41bafd25c80995a2096a793da67d79067aa6",
          "topics": [
            "0x2d16d316de83975ed2544621a95d728e2c04646d3b5aa34f0842034eb065e2e1",
            "0x0000000000000000000000000b00144644ba73e8f83ccdcad5c838ccf9fdc581"
          ],
          "data": "0x0000000000000000000000000000000000000000000000000000000000000003000000000000000000000000000000000000000000000000000000000000000f000000000000000000000000000000000000000000000000000000000000004600000000000000000000000000000000000000000000000000000000000000010000000000000000000000000000000000000000000000000000000000000001",
          "blockHash": "0xa4cd7c3b9443b28b3456b5ab712dc62a50009d7592d51e6134a87fd8a74719de",
          "blockNumber": "0x21bd636",
          "blockTimestamp": "0x69bb5659",
          "transactionHash": "0x6475653d1847fad3ad2b1e48e7f193b35e0960a004f627a19d19e14d2c8dd5ed",
          "transactionIndex": "0x0",
          "logIndex": "0x7",
          "removed": false
        },
        {
          "address": "0xbabe41bafd25c80995a2096a793da67d79067aa6",
          "topics": [
            "0x7d96cbc6226a15621e22ecea9e746658ab7ac126ed4598208366bbc6106c5a1b"
          ],
          "data": "0x00000000000000000000000000000000000000000000000000000000000000020000000000000000000000000000000000000000000000000000000000f3877c00000000000000000000000000000000000000000000000000000000000000000000000000000000000000000000000000000000000000000000000000000001000000000000000000000000000000000000000000000000000000000000000200000000000000000000000000000000000000000000000000000000000000030000000000000000000000000000000000000000000000000000000000000004000000000000000000000000000000000000000000000000000000000000000500000000000000000000000000000000000000000000000000000000000000060000000000000000000000000000000000000000000000000000000000000007000000000000000000000000000000000000000000000000000000000000000000000000000000000000000000000000000000000000000000000000000000010000000000000000000000000000000000000000000000000000000000000002000000000000000000000000000000000000000000000000000000000000000000000000000000000000000000000000000000000000000000000000000000010000000000000000000000000000000000000000000000000000000000000002000000000000000000000000000000000000000000000000000000000000000000000000000000000000000000000000000000000000000000000000000000010000000000000000000000008de56f797ff4aa43224ac277f04d595a30f782d6000000000000000000000000c15bd2eae18fca607c7a0446ff646cbd1055ab670000000000000000000000000ec7f965127e4c57db223956b6b8f44ae57df704000000000000000000000000d58f3f6fff4e15caa04bedafe664b1c65803183b000000000000000000000000c0ddfaf6c73c06f5ccc36670deb59a2ee0dfc19c0000000000000000000000000cefb748b5afebc47dbe7ea934916cb14ac8e678000000000000000000000000fa0e503051f60c5e1c4a712c84d53961195eb96a0000000000000000000000000b00144644ba73e8f83ccdcad5c838ccf9fdc581",
          "blockHash": "0xa4cd7c3b9443b28b3456b5ab712dc62a50009d7592d51e6134a87fd8a74719de",
          "blockNumber": "0x21bd636",
          "blockTimestamp": "0x69bb5659",
          "transactionHash": "0x6475653d1847fad3ad2b1e48e7f193b35e0960a004f627a19d19e14d2c8dd5ed",
          "transactionIndex": "0x0",
          "logIndex": "0x8",
          "removed": false
        },
        {
          "address": "0x0000000000000000000000000000000000001010",
          "topics": [
            "0x4dfe1bbbcf077ddc3e01291eea2d5c70c2b422b415d95645b9adcfd678cb1d63",
            "0x0000000000000000000000000000000000000000000000000000000000001010",
            "0x0000000000000000000000008de56f797ff4aa43224ac277f04d595a30f782d6",
            "0x0000000000000000000000007ee41d8a25641000661b1ef5e6ae8a00400466b0"
          ],
          "data": "0x0000000000000000000000000000000000000000000000000369fa0fb2d2900000000000000000000000000000000000000000000000000ba7471dd855a5b97d000000000000000000000000000000000000000000002f1c3d5cee787183456000000000000000000000000000000000000000000000000ba3dd23c8a2d3297d000000000000000000000000000000000000000000002f1c40c6e8882455d560",
          "blockHash": "0xa4cd7c3b9443b28b3456b5ab712dc62a50009d7592d51e6134a87fd8a74719de",
          "blockNumber": "0x21bd636",
          "blockTimestamp": "0x69bb5659",
          "transactionHash": "0x6475653d1847fad3ad2b1e48e7f193b35e0960a004f627a19d19e14d2c8dd5ed",
          "transactionIndex": "0x0",
          "logIndex": "0x9",
          "removed": false
        }
      ],
      "logsBloom": "0x00000000000000000000000000000000000000000000000800000000004000000800000000000000000000040000000000008000000000000000000000000000000000000000000000000000000000800000000000000000000100200000000100800000000000000400000040000010400000001000000182020010000000000000000000100000020000000400000000000000041000000000800000000000200020000000000000000000000014000000000000000000000000010000004000000000000000200001000000400000800000400000000000100000005000000000200000000000000000000000000000001002000000000040000000100000",
      "type": "0x2",
      "transactionHash": "0x6475653d1847fad3ad2b1e48e7f193b35e0960a004f627a19d19e14d2c8dd5ed",
      "transactionIndex": "0x0",
      "blockHash": "0xa4cd7c3b9443b28b3456b5ab712dc62a50009d7592d51e6134a87fd8a74719de",
      "blockNumber": "0x21bd636",
      "gasUsed": "0x4b12f4",
      "effectiveGasPrice": "0xba43b743f",
      "from": "0x8de56f797ff4aa43224ac277f04d595a30f782d6",
      "to": "0xbabe41bafd25c80995a2096a793da67d79067aa6",
      "contractAddress": null
    }
  ],
  "libraries": [],
  "pending": [],
  "returns": {},
  "timestamp": 1773885017450,
  "chain": 80002,
  "commit": "362a618"
}