{
  "transactions": [
    {
      "hash": "0xf9c2a4b60f7b03297f56b09c5f1e0375de6f91f50b1782696d675251b2c9300f",
      "transactionType": "CALL",
      "contractName": null,
      "contractAddress": "0x6523130e39f43cc1261ccff3bd3208295c41c11d",
      "function": "joinMatch(uint256,uint256,uint8)",
      "arguments": [
        "0",
        "0",
        "0"
      ],
      "transaction": {
        "from": "0x8de56f797ff4aa43224ac277f04d595a30f782d6",
        "to": "0x6523130e39f43cc1261ccff3bd3208295c41c11d",
        "gas": "0x27f8f",
        "value": "0x6f05b59d3b200000",
        "input": "0xbff89c2a000000000000000000000000000000000000000000000000000000000000000000000000000000000000000000000000000000000000000000000000000000000000000000000000000000000000000000000000000000000000000000000000",
        "nonce": "0x81",
        "chainId": "0x13882"
      },
      "additionalContracts": [],
      "isFixedGasLimit": false
    },
    {
      "hash": "0x43f8d0fe6b9a260f07a6ce2ecc9b668942139383940bfa18da77c48f71858e97",
      "transactionType": "CALL",
      "contractName": null,
      "contractAddress": "0x6523130e39f43cc1261ccff3bd3208295c41c11d",
      "function": "joinMatch(uint256,uint256,uint8)",
      "arguments": [
        "1",
        "1",
        "0"
      ],
      "transaction": {
        "from": "0xc15bd2eae18fca607c7a0446ff646cbd1055ab67",
        "to": "0x6523130e39f43cc1261ccff3bd3208295c41c11d",
        "gas": "0x2fa2a",
        "value": "0x6f05b59d3b200000",
        "input": "0xbff89c2a000000000000000000000000000000000000000000000000000000000000000100000000000000000000000000000000000000000000000000000000000000010000000000000000000000000000000000000000000000000000000000000000",
        "nonce": "0x18",
        "chainId": "0x13882"
      },
      "additionalContracts": [],
      "isFixedGasLimit": false
    },
    {
      "hash": "0x2e7564ef6fec4d311282daad8e4aa3c6f5f7496c6735c33f77281cdaf3c7e828",
      "transactionType": "CALL",
      "contractName": null,
      "contractAddress": "0x6523130e39f43cc1261ccff3bd3208295c41c11d",
      "function": "joinMatch(uint256,uint256,uint8)",
      "arguments": [
        "2",
        "2",
        "0"
      ],
      "transaction": {
        "from": "0x0ec7f965127e4c57db223956b6b8f44ae57df704",
        "to": "0x6523130e39f43cc1261ccff3bd3208295c41c11d",
        "gas": "0x2fa2a",
        "value": "0x6f05b59d3b200000",
        "input": "0xbff89c2a000000000000000000000000000000000000000000000000000000000000000200000000000000000000000000000000000000000000000000000000000000020000000000000000000000000000000000000000000000000000000000000000",
        "nonce": "0x1c",
        "chainId": "0x13882"
      },
      "additionalContracts": [],
      "isFixedGasLimit": false
    },
    {
      "hash": "0x2859407108be02cfd30547fd6f89e50955c31c7471c3e06c3cd95d1308859100",
      "transactionType": "CALL",
      "contractName": null,
      "contractAddress": "0x6523130e39f43cc1261ccff3bd3208295c41c11d",
      "function": "joinMatch(uint256,uint256,uint8)",
      "arguments": [
        "3",
        "0",
        "0"
      ],
      "transaction": {
        "from": "0xd58f3f6fff4e15caa04bedafe664b1c65803183b",
        "to": "0x6523130e39f43cc1261ccff3bd3208295c41c11d",
        "gas": "0x28ebb",
        "value": "0x6f05b59d3b200000",
        "input": "0xbff89c2a000000000000000000000000000000000000000000000000000000000000000300000000000000000000000000000000000000000000000000000000000000000000000000000000000000000000000000000000000000000000000000000000",
        "nonce": "0x1b",
        "chainId": "0x13882"
      },
      "additionalContracts": [],
      "isFixedGasLimit": false
    },
    {
      "hash": "0xe68a9ffc63a53d6232dd70ca6bfc021d19bcd0b1e8279b9118ea263b1a17e62d",
      "transactionType": "CALL",
      "contractName": null,
      "contractAddress": "0x6523130e39f43cc1261ccff3bd3208295c41c11d",
      "function": "joinMatch(uint256,uint256,uint8)",
      "arguments": [
        "4",
        "1",
        "0"
      ],
      "transaction": {
        "from": "0xc0ddfaf6c73c06f5ccc36670deb59a2ee0dfc19c",
        "to": "0x6523130e39f43cc1261ccff3bd3208295c41c11d",
        "gas": "0x2fa2a",
        "value": "0x6f05b59d3b200000",
        "input": "0xbff89c2a000000000000000000000000000000000000000000000000000000000000000400000000000000000000000000000000000000000000000000000000000000010000000000000000000000000000000000000000000000000000000000000000",
        "nonce": "0x1e",
        "chainId": "0x13882"
      },
      "additionalContracts": [],
      "isFixedGasLimit": false
    },
    {
      "hash": "0xb8eafcf08d317c234172176fb324b2c99315ca2561ee873def6230128b8edb3d",
      "transactionType": "CALL",
      "contractName": null,
      "contractAddress": "0x6523130e39f43cc1261ccff3bd3208295c41c11d",
      "function": "joinMatch(uint256,uint256,uint8)",
      "arguments": [
        "5",
        "2",
        "0"
      ],
      "transaction": {
        "from": "0x0cefb748b5afebc47dbe7ea934916cb14ac8e678",
        "to": "0x6523130e39f43cc1261ccff3bd3208295c41c11d",
        "gas": "0x2fa2a",
        "value": "0x6f05b59d3b200000",
        "input": "0xbff89c2a000000000000000000000000000000000000000000000000000000000000000500000000000000000000000000000000000000000000000000000000000000020000000000000000000000000000000000000000000000000000000000000000",
        "nonce": "0x15",
        "chainId": "0x13882"
      },
      "additionalContracts": [],
      "isFixedGasLimit": false
    },
    {
      "hash": "0x0607d46ebb214ec7a16f638b60d8a19934397d1b9ee4d2103b51b8f3e5b49465",
      "transactionType": "CALL",
      "contractName": null,
      "contractAddress": "0x6523130e39f43cc1261ccff3bd3208295c41c11d",
      "function": "joinMatch(uint256,uint256,uint8)",
      "arguments": [
        "6",
        "0",
        "0"
      ],
      "transaction": {
        "from": "0xfa0e503051f60c5e1c4a712c84d53961195eb96a",
        "to": "0x6523130e39f43cc1261ccff3bd3208295c41c11d",
        "gas": "0x28ebb",
        "value": "0x6f05b59d3b200000",
        "input": "0xbff89c2a000000000000000000000000000000000000000000000000000000000000000600000000000000000000000000000000000000000000000000000000000000000000000000000000000000000000000000000000000000000000000000000000",
        "nonce": "0x18",
        "chainId": "0x13882"
      },
      "additionalContracts": [],
      "isFixedGasLimit": false
    },
    {
      "hash": "0x52007b170d356c095213d5cd5dc21073a42014400d917af7faef20736b9540c7",
      "transactionType": "CALL",
      "contractName": null,
      "contractAddress": "0x6523130e39f43cc1261ccff3bd3208295c41c11d",
      "function": "joinMatch(uint256,uint256,uint8)",
      "arguments": [
        "7",
        "1",
        "0"
      ],
      "transaction": {
        "from": "0x0b00144644ba73e8f83ccdcad5c838ccf9fdc581",
        "to": "0x6523130e39f43cc1261ccff3bd3208295c41c11d",
        "gas": "0x2fa2a",
        "value": "0x6f05b59d3b200000",
        "input": "0xbff89c2a000000000000000000000000000000000000000000000000000000000000000700000000000000000000000000000000000000000000000000000000000000010000000000000000000000000000000000000000000000000000000000000000",
        "nonce": "0x16",
        "chainId": "0x13882"
      },
      "additionalContracts": [],
      "isFixedGasLimit": false
    },
    {
      "hash": "0x1977742a555424b0c289158d41ee549735a49f8e90a015074153a7ea8a0d4202",
      "transactionType": "CALL",
      "contractName": null,
      "contractAddress": "0x6523130e39f43cc1261ccff3bd3208295c41c11d",
      "function": "executeMatch()",
      "arguments": [],
      "transaction": {
        "from": "0x8de56f797ff4aa43224ac277f04d595a30f782d6",
        "to": "0x6523130e39f43cc1261ccff3bd3208295c41c11d",
        "gas": "0x34aa3d",
        "value": "0x0",
        "input": "0x3c936fbe",
        "nonce": "0x82",
        "chainId": "0x13882"
      },
      "additionalContracts": [],
      "isFixedGasLimit": false
    }
  ],
  "receipts": [
    {
      "status": "0x1",
      "cumulativeGasUsed": "0x1cf08",
      "logs": [
        {
          "address": "0x0000000000000000000000000000000000001010",
          "topics": [
            "0xe6497e3ee548a3372136af2fcb0696db31fc6cf20260707645068bd3fe97f3c4",
            "0x0000000000000000000000000000000000000000000000000000000000001010",
            "0x0000000000000000000000008de56f797ff4aa43224ac277f04d595a30f782d6",
            "0x0000000000000000000000006523130e39f43cc1261ccff3bd3208295c41c11d"
          ],
          "data": "0x0000000000000000000000000000000000000000000000006f05b59d3b20000000000000000000000000000000000000000000000000000fd4468a58f79aac68000000000000000000000000000000000000000000000000000000000000000000000000000000000000000000000000000000000000000f6540d4bbbc7aac680000000000000000000000000000000000000000000000006f05b59d3b200000",
          "blockHash": "0xf54acc37d2bbdcc629acff899edf034c8e992f038303b4a6ef1fcb59939adc5b",
          "blockNumber": "0x21bd27f",
          "blockTimestamp": "0x69bb4eeb",
          "transactionHash": "0xf9c2a4b60f7b03297f56b09c5f1e0375de6f91f50b1782696d675251b2c9300f",
          "transactionIndex": "0x0",
          "logIndex": "0x0",
          "removed": false
        },
        {
          "address": "0x0000000000000000000000000000000000001010",
          "topics": [
            "0x4dfe1bbbcf077ddc3e01291eea2d5c70c2b422b415d95645b9adcfd678cb1d63",
            "0x0000000000000000000000000000000000000000000000000000000000001010",
            "0x0000000000000000000000008de56f797ff4aa43224ac277f04d595a30f782d6",
            "0x0000000000000000000000007ee41d8a25641000661b1ef5e6ae8a00400466b0"
          ],
          "data": "0x00000000000000000000000000000000000000000000000000150e64a8a7a00000000000000000000000000000000000000000000000000fd4639fca1bf9dc99000000000000000000000000000000000000000000002f1b4730e7e669316b3800000000000000000000000000000000000000000000000fd44e916573523c99000000000000000000000000000000000000000000002f1b4745f64b11d90b38",
          "blockHash": "0xf54acc37d2bbdcc629acff899edf034c8e992f038303b4a6ef1fcb59939adc5b",
          "blockNumber": "0x21bd27f",
          "blockTimestamp": "0x69bb4eeb",
          "transactionHash": "0xf9c2a4b60f7b03297f56b09c5f1e0375de6f91f50b1782696d675251b2c9300f",
          "transactionIndex": "0x0",
          "logIndex": "0x1",
          "removed": false
        }
      ],
      "logsBloom": "0x00000000000000000000000000000000000000000000000000000000004000000000000000000000000000100000000000008000000000000000000000000000000000000000000000000000008000800000000000000000000100000000000000000000000000000400000000000000000000000400000080000000000000000000000000000000020000000400000000000000000000000000000000000000200000000000000000000000000000000000000000000000000000000000004000000000000000000001000000000000004000400000800000108000004000000000000000000000000000000000000000000000000000000000000000100000",
      "type": "0x2",
      "transactionHash": "0xf9c2a4b60f7b03297f56b09c5f1e0375de6f91f50b1782696d675251b2c9300f",
      "transactionIndex": "0x0",
      "blockHash": "0xf54acc37d2bbdcc629acff899edf034c8e992f038303b4a6ef1fcb59939adc5b",
      "blockNumber": "0x21bd27f",
      "gasUsed": "0x1cf08",
      "effectiveGasPrice": "0xba43b743f",
      "from": "0x8de56f797ff4aa43224ac277f04d595a30f782d6",
      "to": "0x6523130e39f43cc1261ccff3bd3208295c41c11d",
      "contractAddress": null
    },
    {
      "status": "0x1",
      "cumulativeGasUsed": "0x227cc",
      "logs": [
        {
          "address": "0x0000000000000000000000000000000000001010",
          "topics": [
            "0xe6497e3ee548a3372136af2fcb0696db31fc6cf20260707645068bd3fe97f3c4",
            "0x0000000000000000000000000000000000000000000000000000000000001010",
            "0x000000000000000000000000c15bd2eae18fca607c7a0446ff646cbd1055ab67",
            "0x0000000000000000000000006523130e39f43cc1261ccff3bd3208295c41c11d"
          ],
          "data": "0x0000000000000000000000000000000000000000000000006f05b59d3b200000000000000000000000000000000000000000000000000003c95148d93a3e87cf0000000000000000000000000000000000000000000000006f05b59d3b2000000000000000000000000000000000000000000000000000035a4b933bff1e87cf000000000000000000000000000000000000000000000000de0b6b3a76400000",
          "blockHash": "0xc280d9301a38f4664f2a739b158f564358b9fad3dbb7467a7a89f934a97be82e",
          "blockNumber": "0x21bd281",
          "blockTimestamp": "0x69bb4eef",
          "transactionHash": "0x43f8d0fe6b9a260f07a6ce2ecc9b668942139383940bfa18da77c48f71858e97",
          "transactionIndex": "0x0",
          "logIndex": "0x0",
          "removed": false
        },
        {
          "address": "0x0000000000000000000000000000000000001010",
          "topics": [
            "0x4dfe1bbbcf077ddc3e01291eea2d5c70c2b422b415d95645b9adcfd678cb1d63",
            "0x0000000000000000000000000000000000000000000000000000000000001010",
            "0x000000000000000000000000c15bd2eae18fca607c7a0446ff646cbd1055ab67",
            "0x0000000000000000000000007ee41d8a25641000661b1ef5e6ae8a00400466b0"
          ],
          "data": "0x000000000000000000000000000000000000000000000000001917c2d60c7000000000000000000000000000000000000000000000000003c973f19b24032025000000000000000000000000000000000000000000002f1b4745f64b11d90b38000000000000000000000000000000000000000000000003c95ad9d84df6b025000000000000000000000000000000000000000000002f1b475f0e0de7e57b38",
          "blockHash": "0xc280d9301a38f4664f2a739b158f564358b9fad3dbb7467a7a89f934a97be82e",
          "blockNumber": "0x21bd281",
          "blockTimestamp": "0x69bb4eef",
          "transactionHash": "0x43f8d0fe6b9a260f07a6ce2ecc9b668942139383940bfa18da77c48f71858e97",
          "transactionIndex": "0x0",
          "logIndex": "0x1",
          "removed": false
        }
      ],
      "logsBloom": "0x00000000000000000000000000000000000000000000000000000000000000000800000000000000000000100000000000008000000000000000000000000000000000000000000000000000008000800000000000000000000100000000000000800000000000000000000000000010000000000400000080000000000000000000000000000000020000000400000000000000000000000000000000000000200000000000000000000000000000000000000000000000000000000000004000000000000000000001000000000000004000400000800000108000000000000000000000000000000000000000000000000000000000000000000000100000",
      "type": "0x2",
      "transactionHash": "0x43f8d0fe6b9a260f07a6ce2ecc9b668942139383940bfa18da77c48f71858e97",
      "transactionIndex": "0x0",
      "blockHash": "0xc280d9301a38f4664f2a739b158f564358b9fad3dbb7467a7a89f934a97be82e",
      "blockNumber": "0x21bd281",
      "gasUsed": "0x227cc",
      "effectiveGasPrice": "0xba43b743f",
      "from": "0xc15bd2eae18fca607c7a0446ff646cbd1055ab67",
      "to": "0x6523130e39f43cc1261ccff3bd3208295c41c11d",
      "contractAddress": null
    },
    {
      "status": "0x1",
      "cumulativeGasUsed": "0x40ba0",
      "logs": [
        {
          "address": "0x0000000000000000000000000000000000001010",
          "topics": [
            "0xe6497e3ee548a3372136af2fcb0696db31fc6cf20260707645068bd3fe97f3c4",
            "0x0000000000000000000000000000000000000000000000000000000000001010",
            "0x0000000000000000000000000ec7f965127e4c57db223956b6b8f44ae57df704",
            "0x0000000000000000000000006523130e39f43cc1261ccff3bd3208295c41c11d"
          ],
          "data": "0x0000000000000000000000000000000000000000000000006f05b59d3b2000000000000000000000000000000000000000000000000000033c6db12b6b5fb136000000000000000000000000000000000000000000000000de0b6b3a76400000000000000000000000000000000000000000000000000002cd67fb8e303fb1360000000000000000000000000000000000000000000000014d1120d7b1600000",
          "blockHash": "0x1174e2a657a9df7e1c0050c40107eacc87f07776f86650771b3dcd382665fe18",
          "blockNumber": "0x21bd283",
          "blockTimestamp": "0x69bb4ef3",
          "transactionHash": "0x2e7564ef6fec4d311282daad8e4aa3c6f5f7496c6735c33f77281cdaf3c7e828",
          "transactionIndex": "0x1",
          "logIndex": "0x4",
          "removed": false
        },
        {
          "address": "0x0000000000000000000000000000000000001010",
          "topics": [
            "0x4dfe1bbbcf077ddc3e01291eea2d5c70c2b422b415d95645b9adcfd678cb1d63",
            "0x0000000000000000000000000000000000000000000000000000000000001010",
            "0x0000000000000000000000000ec7f965127e4c57db223956b6b8f44ae57df704",
            "0x0000000000000000000000007ee41d8a25641000661b1ef5e6ae8a00400466b0"
          ],
          "data": "0x000000000000000000000000000000000000000000000000001917c2d60c70000000000000000000000000000000000000000000000000033c9059ed5524498c000000000000000000000000000000000000000000002f1b47be4b7b91dfdb380000000000000000000000000000000000000000000000033c77422a7f17d98c000000000000000000000000000000000000000000002f1b47d7633e67ec4b38",
          "blockHash": "0x1174e2a657a9df7e1c0050c40107eacc87f07776f86650771b3dcd382665fe18",
          "blockNumber": "0x21bd283",
          "blockTimestamp": "0x69bb4ef3",
          "transactionHash": "0x2e7564ef6fec4d311282daad8e4aa3c6f5f7496c6735c33f77281cdaf3c7e828",
          "transactionIndex": "0x1",
          "logIndex": "0x5",
          "removed": false
        }
      ],
      "logsBloom": "0x00000000000000000000000000000000000000000000000000000000000000000000000000000000000000100000000000008000000000000000000000000000000000000000000000000000008000800000000000000000000100000000000000000000000000000000000000000000400000001400000080000000000000000000000000000000020000000400000000000000000000000000000000000000200000000000000000000000000010000000000000000000000000000000004000000000000000000001000000000000004000400000800000108000000000000000000000000000000000000000000000000000000000000000000000100000",
      "type": "0x2",
      "transactionHash": "0x2e7564ef6fec4d311282daad8e4aa3c6f5f7496c6735c33f77281cdaf3c7e828",
      "transactionIndex": "0x1",
      "blockHash": "0x1174e2a657a9df7e1c0050c40107eacc87f07776f86650771b3dcd382665fe18",
      "blockNumber": "0x21bd283",
      "gasUsed": "0x227cc",
      "effectiveGasPrice": "0xba43b743f",
      "from": "0x0ec7f965127e4c57db223956b6b8f44ae57df704",
      "to": "0x6523130e39f43cc1261ccff3bd3208295c41c11d",
      "contractAddress": null
    },
    {
      "status": "0x1",
      "cumulativeGasUsed": "0x3bdb4",
      "logs": [
        {
          "address": "0x0000000000000000000000000000000000001010",
          "topics": [
            "0xe6497e3ee548a3372136af2fcb0696db31fc6cf20260707645068bd3fe97f3c4",
            "0x0000000000000000000000000000000000000000000000000000000000001010",
            "0x000000000000000000000000d58f3f6fff4e15caa04bedafe664b1c65803183b",
            "0x0000000000000000000000006523130e39f43cc1261ccff3bd3208295c41c11d"
          ],
          "data": "0x0000000000000000000000000000000000000000000000006f05b59d3b2000000000000000000000000000000000000000000000000000007d1e39f4003d42240000000000000000000000000000000000000000000000014d1120d7b16000000000000000000000000000000000000000000000000000000e188456c51d4224000000000000000000000000000000000000000000000001bc16d674ec800000",
          "blockHash": "0x612ee69b84b73e77cd31fc9a3cf997bbcd7d0bea1270d7083f24cee7fead07e6",
          "blockNumber": "0x21bd285",
          "blockTimestamp": "0x69bb4ef7",
          "transactionHash": "0x2859407108be02cfd30547fd6f89e50955c31c7471c3e06c3cd95d1308859100",
          "transactionIndex": "0x1",
          "logIndex": "0x4",
          "removed": false
        },
        {
          "address": "0x0000000000000000000000000000000000001010",
          "topics": [
            "0x4dfe1bbbcf077ddc3e01291eea2d5c70c2b422b415d95645b9adcfd678cb1d63",
            "0x0000000000000000000000000000000000000000000000000000000000001010",
            "0x000000000000000000000000d58f3f6fff4e15caa04bedafe664b1c65803183b",
            "0x0000000000000000000000007ee41d8a25641000661b1ef5e6ae8a00400466b0"
          ],
          "data": "0x00000000000000000000000000000000000000000000000000158e44a5b5d0000000000000000000000000000000000000000000000000007d3c0004daa41e29000000000000000000000000000000000000000000002f1b47f9b36417a08b380000000000000000000000000000000000000000000000007d2671c034ee4e29000000000000000000000000000000000000000000002f1b480f41a8bd565b38",
          "blockHash": "0x612ee69b84b73e77cd31fc9a3cf997bbcd7d0bea1270d7083f24cee7fead07e6",
          "blockNumber": "0x21bd285",
          "blockTimestamp": "0x69bb4ef7",
          "transactionHash": "0x2859407108be02cfd30547fd6f89e50955c31c7471c3e06c3cd95d1308859100",
          "transactionIndex": "0x1",
          "logIndex": "0x5",
          "removed": false
        }
      ],
      "logsBloom": "0x00000000000000000000000000000000000000000000000000000000000000000000000000000000000000100000000000008000000000000000000000000000000000000000000000000000008000800000000000000000000100000000000000000000000000000000000000000000000000000400000080020010000000000000000000000000020000000400000000000000000000000000000000000000200000000000000000000000000004000000000000000000000000000000004000000000000000000001000000000000004000400000800000108000000000000000000000000000000000000000000000000000000000000000000000100000",
      "type": "0x2",
      "transactionHash": "0x2859407108be02cfd30547fd6f89e50955c31c7471c3e06c3cd95d1308859100",
      "transactionIndex": "0x1",
      "blockHash": "0x612ee69b84b73e77cd31fc9a3cf997bbcd7d0bea1270d7083f24cee7fead07e6",
      "blockNumber": "0x21bd285",
      "gasUsed": "0x1da04",
      "effectiveGasPrice": "0xba43b743f",
      "from": "0xd58f3f6fff4e15caa04bedafe664b1c65803183b",
      "to": "0x6523130e39f43cc1261ccff3bd3208295c41c11d",
      "contractAddress": null
    },
    {
      "status": "0x1",
      "cumulativeGasUsed": "0x5d7ce",
      "logs": [
        {
          "address": "0x0000000000000000000000000000000000001010",
          "topics": [
            "0xe6497e3ee548a3372136af2fcb0696db31fc6cf20260707645068bd3fe97f3c4",
            "0x0000000000000000000000000000000000000000000000000000000000001010",
            "0x000000000000000000000000c0ddfaf6c73c06f5ccc36670deb59a2ee0dfc19c",
            "0x0000000000000000000000006523130e39f43cc1261ccff3bd3208295c41c11d"
          ],
          "data": "0x0000000000000000000000000000000000000000000000006f05b59d3b20000000000000000000000000000000000000000000000000000111201254569801df000000000000000000000000000000000000000000000001bc16d674ec800000000000000000000000000000000000000000000000000000a21a5cb71b7801df0000000000000000000000000000000000000000000000022b1c8c1227a00000",
          "blockHash": "0xe1c3ee5ef5b5d5bbb05550db9e7f0bd9e9a1ce7f529874d02953cd9f99a89b37",
          "blockNumber": "0x21bd287",
          "blockTimestamp": "0x69bb4efb",
          "transactionHash": "0xe68a9ffc63a53d6232dd70ca6bfc021d19bcd0b1e8279b9118ea263b1a17e62d",
          "transactionIndex": "0x1",
          "logIndex": "0x9",
          "removed": false
        },
        {
          "address": "0x0000000000000000000000000000000000001010",
          "topics": [
            "0x4dfe1bbbcf077ddc3e01291eea2d5c70c2b422b415d95645b9adcfd678cb1d63",
            "0x0000000000000000000000000000000000000000000000000000000000001010",
            "0x000000000000000000000000c0ddfaf6c73c06f5ccc36670deb59a2ee0dfc19c",
            "0x0000000000000000000000007ee41d8a25641000661b1ef5e6ae8a00400466b0"
          ],
          "data": "0x000000000000000000000000000000000000000000000000001917c2d60c70000000000000000000000000000000000000000000000000011142bb16405c9a35000000000000000000000000000000000000000000002f1b4844347c79a13f380000000000000000000000000000000000000000000000011129a3536a502a35000000000000000000000000000000000000000000002f1b485d4c3f4fadaf38",
          "blockHash": "0xe1c3ee5ef5b5d5bbb05550db9e7f0bd9e9a1ce7f529874d02953cd9f99a89b37",
          "blockNumber": "0x21bd287",
          "blockTimestamp": "0x69bb4efb",
          "transactionHash": "0xe68a9ffc63a53d6232dd70ca6bfc021d19bcd0b1e8279b9118ea263b1a17e62d",
          "transactionIndex": "0x1",
          "logIndex": "0xa",
          "removed": false
        }
      ],
      "logsBloom": "0x00000000000000000000000000000000000000000000000000000000000000000000000000000000000000140000000000008000000000000000000000000000000000000000000000000000008000800000000000000000000100000000000100000000000000000000000000000000000000000400000080000000000000000000000000000000020000000400000000000000001000000000000000000000200000000000000000000000000000000000000000000000000000000000004000000000000000000001000000000000004000400000800000108000000000000000000000000000000000000000000000000000000000000000000000100000",
      "type": "0x2",
      "transactionHash": "0xe68a9ffc63a53d6232dd70ca6bfc021d19bcd0b1e8279b9118ea263b1a17e62d",
      "transactionIndex": "0x1",
      "blockHash": "0xe1c3ee5ef5b5d5bbb05550db9e7f0bd9e9a1ce7f529874d02953cd9f99a89b37",
      "blockNumber": "0x21bd287",
      "gasUsed": "0x227cc",
      "effectiveGasPrice": "0xba43b743f",
      "from": "0xc0ddfaf6c73c06f5ccc36670deb59a2ee0dfc19c",
      "to": "0x6523130e39f43cc1261ccff3bd3208295c41c11d",
      "contractAddress": null
    },
    {
      "status": "0x1",
      "cumulativeGasUsed": "0x227cc",
      "logs": [
        {
          "address": "0x0000000000000000000000000000000000001010",
          "topics": [
            "0xe6497e3ee548a3372136af2fcb0696db31fc6cf20260707645068bd3fe97f3c4",
            "0x0000000000000000000000000000000000000000000000000000000000001010",
            "0x0000000000000000000000000cefb748b5afebc47dbe7ea934916cb14ac8e678",
            "0x0000000000000000000000006523130e39f43cc1261ccff3bd3208295c41c11d"
          ],
          "data": "0x0000000000000000000000000000000000000000000000006f05b59d3b200000000000000000000000000000000000000000000000000001c9a032566258f5750000000000000000000000000000000000000000000000022b1c8c1227a000000000000000000000000000000000000000000000000000015a9a7cb92738f5750000000000000000000000000000000000000000000000029a2241af62c00000",
          "blockHash": "0xdcd8801bca5b1a9c6f78100b5182c06c2fd734de303adf8066a7d2c309e0cfc5",
          "blockNumber": "0x21bd289",
          "blockTimestamp": "0x69bb4eff",
          "transactionHash": "0xb8eafcf08d317c234172176fb324b2c99315ca2561ee873def6230128b8edb3d",
          "transactionIndex": "0x0",
          "logIndex": "0x0",
          "removed": false
        },
        {
          "address": "0x0000000000000000000000000000000000001010",
          "topics": [
            "0x4dfe1bbbcf077ddc3e01291eea2d5c70c2b422b415d95645b9adcfd678cb1d63",
            "0x0000000000000000000000000000000000000000000000000000000000001010",
            "0x0000000000000000000000000cefb748b5afebc47dbe7ea934916cb14ac8e678",
            "0x0000000000000000000000007ee41d8a25641000661b1ef5e6ae8a00400466b0"
          ],
          "data": "0x000000000000000000000000000000000000000000000000001917c2d60c7000000000000000000000000000000000000000000000000001c9c2db184c1d8dcb000000000000000000000000000000000000000000002f1b49306e94a5e55338000000000000000000000000000000000000000000000001c9a9c35576111dcb000000000000000000000000000000000000000000002f1b494986577bf1c338",
          "blockHash": "0xdcd8801bca5b1a9c6f78100b5182c06c2fd734de303adf8066a7d2c309e0cfc5",
          "blockNumber": "0x21bd289",
          "blockTimestamp": "0x69bb4eff",
          "transactionHash": "0xb8eafcf08d317c234172176fb324b2c99315ca2561ee873def6230128b8edb3d",
          "transactionIndex": "0x0",
          "logIndex": "0x1",
          "removed": false
        }
      ],
      "logsBloom": "0x00000000000000000000000000000000000000000000000000000000000000000000000000000000000000100000000000008000000000000000000000000000000000000000000000000000008000800000000000000000000100000000000000000000000000000000000000000000000000000400000080000000000000000000000000000000020000000400000000000000040000000000000000000000200000000000000000000000000000000000000000000000000000000000004000000000000000000001000000000000004000400000800000108000001000000000000000000000000000000000000000000000000000000040000000100000",
      "type": "0x2",
      "transactionHash": "0xb8eafcf08d317c234172176fb324b2c99315ca2561ee873def6230128b8edb3d",
      "transactionIndex": "0x0",
      "blockHash": "0xdcd8801bca5b1a9c6f78100b5182c06c2fd734de303adf8066a7d2c309e0cfc5",
      "blockNumber": "0x21bd289",
      "gasUsed": "0x227cc",
      "effectiveGasPrice": "0xba43b743f",
      "from": "0x0cefb748b5afebc47dbe7ea934916cb14ac8e678",
      "to": "0x6523130e39f43cc1261ccff3bd3208295c41c11d",
      "contractAddress": null
    },
    {
      "status": "0x1",
      "cumulativeGasUsed": "0x4dfcb",
      "logs": [
        {
          "address": "0x0000000000000000000000000000000000001010",
          "topics": [
            "0xe6497e3ee548a3372136af2fcb0696db31fc6cf20260707645068bd3fe97f3c4",
            "0x0000000000000000000000000000000000000000000000000000000000001010",
            "0x000000000000000000000000fa0e503051f60c5e1c4a712c84d53961195eb96a",
            "0x0000000000000000000000006523130e39f43cc1261ccff3bd3208295c41c11d"
          ],
          "data": "0x0000000000000000000000000000000000000000000000006f05b59d3b200000000000000000000000000000000000000000000000000000bd1d71bbc51778970000000000000000000000000000000000000000000000029a2241af62c000000000000000000000000000000000000000000000000000004e17bc1e89f778970000000000000000000000000000000000000000000000030927f74c9de00000",
          "blockHash": "0x99b5c68b52820b8c5ad15d61d243f95878f06263467100b0fea06ebc4a582b7a",
          "blockNumber": "0x21bd28b",
          "blockTimestamp": "0x69bb4f03",
          "transactionHash": "0x0607d46ebb214ec7a16f638b60d8a19934397d1b9ee4d2103b51b8f3e5b49465",
          "transactionIndex": "0x1",
          "logIndex": "0x9",
          "removed": false
        },
        {
          "address": "0x0000000000000000000000000000000000001010",
          "topics": [
            "0x4dfe1bbbcf077ddc3e01291eea2d5c70c2b422b415d95645b9adcfd678cb1d63",
            "0x0000000000000000000000000000000000000000000000000000000000001010",
            "0x000000000000000000000000fa0e503051f60c5e1c4a712c84d53961195eb96a",
            "0x0000000000000000000000007ee41d8a25641000661b1ef5e6ae8a00400466b0"
          ],
          "data": "0x00000000000000000000000000000000000000000000000000158e44a5b5d000000000000000000000000000000000000000000000000000bd3b37cc9f7e549c000000000000000000000000000000000000000000002f1b496cb64bab6cef38000000000000000000000000000000000000000000000000bd25a987f9c8849c000000000000000000000000000000000000000000002f1b498244905122bf38",
          "blockHash": "0x99b5c68b52820b8c5ad15d61d243f95878f06263467100b0fea06ebc4a582b7a",
          "blockNumber": "0x21bd28b",
          "blockTimestamp": "0x69bb4f03",
          "transactionHash": "0x0607d46ebb214ec7a16f638b60d8a19934397d1b9ee4d2103b51b8f3e5b49465",
          "transactionIndex": "0x1",
          "logIndex": "0xa",
          "removed": false
        }
      ],
      "logsBloom": "0x00000000000000000000000000000000000000000000000000000000000000000000000000000000000000100000000000008000000000000000000000000000000000000000000000000000008000800000000000000000000100000000000000000000000000000000000000000000000000000400000080000000000000000000000000100000020000000400000000000000000000000000000000000000200000000000000000000000000000000000000000000000000000000000004000000000000000000001000000000000804000400000800000108000000000000000000000000000000000000000000000001000000000000000000000100000",
      "type": "0x2",
      "transactionHash": "0x0607d46ebb214ec7a16f638b60d8a19934397d1b9ee4d2103b51b8f3e5b49465",
      "transactionIndex": "0x1",
      "blockHash": "0x99b5c68b52820b8c5ad15d61d243f95878f06263467100b0fea06ebc4a582b7a",
      "blockNumber": "0x21bd28b",
      "gasUsed": "0x1da04",
      "effectiveGasPrice": "0xba43b743f",
      "from": "0xfa0e503051f60c5e1c4a712c84d53961195eb96a",
      "to": "0x6523130e39f43cc1261ccff3bd3208295c41c11d",
      "contractAddress": null
    },
    {
      "status": "0x1",
      "cumulativeGasUsed": "0x10172c",
      "logs": [
        {
          "address": "0x0000000000000000000000000000000000001010",
          "topics": [
            "0xe6497e3ee548a3372136af2fcb0696db31fc6cf20260707645068bd3fe97f3c4",
            "0x0000000000000000000000000000000000000000000000000000000000001010",
            "0x0000000000000000000000000b00144644ba73e8f83ccdcad5c838ccf9fdc581",
            "0x0000000000000000000000006523130e39f43cc1261ccff3bd3208295c41c11d"
          ],
          "data": "0x0000000000000000000000000000000000000000000000006f05b59d3b200000000000000000000000000000000000000000000000000002693ae71f4ecfd6bc0000000000000000000000000000000000000000000000030927f74c9de00000000000000000000000000000000000000000000000000001fa35318213afd6bc000000000000000000000000000000000000000000000003782dace9d9000000",
          "blockHash": "0x18cd4d5a1d3875bb8faf4432e56c86309ca346f5ccf5283f0c96328210ceed7b",
          "blockNumber": "0x21bd28d",
          "blockTimestamp": "0x69bb4f07",
          "transactionHash": "0x52007b170d356c095213d5cd5dc21073a42014400d917af7faef20736b9540c7",
          "transactionIndex": "0x1",
          "logIndex": "0xe",
          "removed": false
        },
        {
          "address": "0x0000000000000000000000000000000000001010",
          "topics": [
            "0x4dfe1bbbcf077ddc3e01291eea2d5c70c2b422b415d95645b9adcfd678cb1d63",
            "0x0000000000000000000000000000000000000000000000000000000000001010",
            "0x0000000000000000000000000b00144644ba73e8f83ccdcad5c838ccf9fdc581",
            "0x0000000000000000000000007ee41d8a25641000661b1ef5e6ae8a00400466b0"
          ],
          "data": "0x000000000000000000000000000000000000000000000000001917c2d60c7000000000000000000000000000000000000000000000000002695d8fe138946f12000000000000000000000000000000000000000000002f1b4abe9b7ffc8e65d80000000000000000000000000000000000000000000000026944781e6287ff12000000000000000000000000000000000000000000002f1b4ad7b342d29ad5d8",
          "blockHash": "0x18cd4d5a1d3875bb8faf4432e56c86309ca346f5ccf5283f0c96328210ceed7b",
          "blockNumber": "0x21bd28d",
          "blockTimestamp": "0x69bb4f07",
          "transactionHash": "0x52007b170d356c095213d5cd5dc21073a42014400d917af7faef20736b9540c7",
          "transactionIndex": "0x1",
          "logIndex": "0xf",
          "removed": false
        }
      ],
      "logsBloom": "0x00000000000000000000000000000000000000000000000800000000000000000000000000000000000000100000000000008000000000000000000000000000000000000000000000000000008000800000000000000000000100200000000000000000000000000000000000000000000000000400000080000000000000000000000000000000020000000400000000000000000000000000000000000000200000000000000000000000000000000000000000000000000000010000004000000000000000000001000000000000004000400000800000108000000000000000000000000000000000000000000000000000000000000000000000100000",
      "type": "0x2",
      "transactionHash": "0x52007b170d356c095213d5cd5dc21073a42014400d917af7faef20736b9540c7",
      "transactionIndex": "0x1",
      "blockHash": "0x18cd4d5a1d3875bb8faf4432e56c86309ca346f5ccf5283f0c96328210ceed7b",
      "blockNumber": "0x21bd28d",
      "gasUsed": "0x227cc",
      "effectiveGasPrice": "0xba43b743f",
      "from": "0x0b00144644ba73e8f83ccdcad5c838ccf9fdc581",
      "to": "0x6523130e39f43cc1261ccff3bd3208295c41c11d",
      "contractAddress": null
    },
    {
      "status": "0x1",
      "cumulativeGasUsed": "0x25bdd0",
      "logs": [
        {
          "address": "0x6523130e39f43cc1261ccff3bd3208295c41c11d",
          "topics": [
            "0x2d16d316de83975ed2544621a95d728e2c04646d3b5aa34f0842034eb065e2e1",
            "0x0000000000000000000000008de56f797ff4aa43224ac277f04d595a30f782d6"
          ],
          "data": "0x0000000000000000000000000000000000000000000000000000000000000001000000000000000000000000000000000000000000000000000000000000001e000000000000000000000000000000000000000000000000000000000000006400000000000000000000000000000000000000000000000000000000000000000000000000000000000000000000000000000000000000000000000000000000",
          "blockHash": "0x0c62038453bf6678fed657ba29ac5ad56b1a9f6a59ca140902fa5d1191aaa17b",
          "blockNumber": "0x21bd28f",
          "blockTimestamp": "0x69bb4f0b",
          "transactionHash": "0x1977742a555424b0c289158d41ee549735a49f8e90a015074153a7ea8a0d4202",
          "transactionIndex": "0x0",
          "logIndex": "0x0",
          "removed": false
        },
        {
          "address": "0x6523130e39f43cc1261ccff3bd3208295c41c11d",
          "topics": [
            "0x2d16d316de83975ed2544621a95d728e2c04646d3b5aa34f0842034eb065e2e1",
            "0x000000000000000000000000c15bd2eae18fca607c7a0446ff646cbd1055ab67"
          ],
          "data": "0x0000000000000000000000000000000000000000000000000000000000000002000000000000000000000000000000000000000000000000000000000000000f000000000000000000000000000000000000000000000000000000000000005500000000000000000000000000000000000000000000000000000000000000000000000000000000000000000000000000000000000000000000000000000000",
          "blockHash": "0x0c62038453bf6678fed657ba29ac5ad56b1a9f6a59ca140902fa5d1191aaa17b",
          "blockNumber": "0x21bd28f",
          "blockTimestamp": "0x69bb4f0b",
          "transactionHash": "0x1977742a555424b0c289158d41ee549735a49f8e90a015074153a7ea8a0d4202",
          "transactionIndex": "0x0",
          "logIndex": "0x1",
          "removed": false
        },
        {
          "address": "0x6523130e39f43cc1261ccff3bd3208295c41c11d",
          "topics": [
            "0x2d16d316de83975ed2544621a95d728e2c04646d3b5aa34f0842034eb065e2e1",
            "0x0000000000000000000000000ec7f965127e4c57db223956b6b8f44ae57df704"
          ],
          "data": "0x0000000000000000000000000000000000000000000000000000000000000004fffffffffffffffffffffffffffffffffffffffffffffffffffffffffffffffb000000000000000000000000000000000000000000000000000000000000003700000000000000000000000000000000000000000000000000000000000000000000000000000000000000000000000000000000000000000000000000000000",
          "blockHash": "0x0c62038453bf6678fed657ba29ac5ad56b1a9f6a59ca140902fa5d1191aaa17b",
          "blockNumber": "0x21bd28f",
          "blockTimestamp": "0x69bb4f0b",
          "transactionHash": "0x1977742a555424b0c289158d41ee549735a49f8e90a015074153a7ea8a0d4202",
          "transactionIndex": "0x0",
          "logIndex": "0x2",
          "removed": false
        },
        {
          "address": "0x6523130e39f43cc1261ccff3bd3208295c41c11d",
          "topics": [
            "0x2d16d316de83975ed2544621a95d728e2c04646d3b5aa34f0842034eb065e2e1",
            "0x000000000000000000000000d58f3f6fff4e15caa04bedafe664b1c65803183b"
          ],
          "data": "0x0000000000000000000000000000000000000000000000000000000000000000000000000000000000000000000000000000000000000000000000000000002d000000000000000000000000000000000000000000000000000000000000007800000000000000000000000000000000000000000000000000000000000000000000000000000000000000000000000000000000000000000000000000000000",
          "blockHash": "0x0c62038453bf6678fed657ba29ac5ad56b1a9f6a59ca140902fa5d1191aaa17b",
          "blockNumber": "0x21bd28f",
          "blockTimestamp": "0x69bb4f0b",
          "transactionHash": "0x1977742a555424b0c289158d41ee549735a49f8e90a015074153a7ea8a0d4202",
          "transactionIndex": "0x0",
          "logIndex": "0x3",
          "removed": false
        },
        {
          "address": "0x6523130e39f43cc1261ccff3bd3208295c41c11d",
          "topics": [
            "0x2d16d316de83975ed2544621a95d728e2c04646d3b5aa34f0842034eb065e2e1",
            "0x000000000000000000000000c0ddfaf6c73c06f5ccc36670deb59a2ee0dfc19c"
          ],
          "data": "0x00000000000000000000000000000000000000000000000000000000000000030000000000000000000000000000000000000000000000000000000000000005000000000000000000000000000000000000000000000000000000000000004600000000000000000000000000000000000000000000000000000000000000000000000000000000000000000000000000000000000000000000000000000000",
          "blockHash": "0x0c62038453bf6678fed657ba29ac5ad56b1a9f6a59ca140902fa5d1191aaa17b",
          "blockNumber": "0x21bd28f",
          "blockTimestamp": "0x69bb4f0b",
          "transactionHash": "0x1977742a555424b0c289158d41ee549735a49f8e90a015074153a7ea8a0d4202",
          "transactionIndex": "0x0",
          "logIndex": "0x4",
          "removed": false
        },
        {
          "address": "0x6523130e39f43cc1261ccff3bd3208295c41c11d",
          "topics": [
            "0x2d16d316de83975ed2544621a95d728e2c04646d3b5aa34f0842034eb065e2e1",
            "0x0000000000000000000000000cefb748b5afebc47dbe7ea934916cb14ac8e678"
          ],
          "data": "0x0000000000000000000000000000000000000000000000000000000000000005fffffffffffffffffffffffffffffffffffffffffffffffffffffffffffffff1000000000000000000000000000000000000000000000000000000000000002d00000000000000000000000000000000000000000000000000000000000000000000000000000000000000000000000000000000000000000000000000000000",
          "blockHash": "0x0c62038453bf6678fed657ba29ac5ad56b1a9f6a59ca140902fa5d1191aaa17b",
          "blockNumber": "0x21bd28f",
          "blockTimestamp": "0x69bb4f0b",
          "transactionHash": "0x1977742a555424b0c289158d41ee549735a49f8e90a015074153a7ea8a0d4202",
          "transactionIndex": "0x0",
          "logIndex": "0x5",
          "removed": false
        },
        {
          "address": "0x6523130e39f43cc1261ccff3bd3208295c41c11d",
          "topics": [
            "0x2d16d316de83975ed2544621a95d728e2c04646d3b5aa34f0842034eb065e2e1",
            "0x000000000000000000000000fa0e503051f60c5e1c4a712c84d53961195eb96a"
          ],
          "data": "0x0000000000000000000000000000000000000000000000000000000000000007ffffffffffffffffffffffffffffffffffffffffffffffffffffffffffffffd3000000000000000000000000000000000000000000000000000000000000001900000000000000000000000000000000000000000000000000000000000000000000000000000000000000000000000000000000000000000000000000000000",
          "blockHash": "0x0c62038453bf6678fed657ba29ac5ad56b1a9f6a59ca140902fa5d1191aaa17b",
          "blockNumber": "0x21bd28f",
          "blockTimestamp": "0x69bb4f0b",
          "transactionHash": "0x1977742a555424b0c289158d41ee549735a49f8e90a015074153a7ea8a0d4202",
          "transactionIndex": "0x0",
          "logIndex": "0x6",
          "removed": false
        },
        {
          "address": "0x6523130e39f43cc1261ccff3bd3208295c41c11d",
          "topics": [
            "0x2d16d316de83975ed2544621a95d728e2c04646d3b5aa34f0842034eb065e2e1",
            "0x0000000000000000000000000b00144644ba73e8f83ccdcad5c838ccf9fdc581"
          ],
          "data": "0x0000000000000000000000000000000000000000000000000000000000000006ffffffffffffffffffffffffffffffffffffffffffffffffffffffffffffffe2000000000000000000000000000000000000000000000000000000000000002300000000000000000000000000000000000000000000000000000000000000000000000000000000000000000000000000000000000000000000000000000000",
          "blockHash": "0x0c62038453bf6678fed657ba29ac5ad56b1a9f6a59ca140902fa5d1191aaa17b",
          "blockNumber": "0x21bd28f",
          "blockTimestamp": "0x69bb4f0b",
          "transactionHash": "0x1977742a555424b0c289158d41ee549735a49f8e90a015074153a7ea8a0d4202",
          "transactionIndex": "0x0",
          "logIndex": "0x7",
          "removed": false
        },
        {
          "address": "0x6523130e39f43cc1261ccff3bd3208295c41c11d",
          "topics": [
            "0x7d96cbc6226a15621e22ecea9e746658ab7ac126ed4598208366bbc6106c5a1b"
          ],
          "data": "0x000000000000000000000000000000000000000000000000000000000000000200000000000000000000000000000000000000000000000000000000ce91249f00000000000000000000000000000000000000000000000000000000000000000000000000000000000000000000000000000000000000000000000000000001000000000000000000000000000000000000000000000000000000000000000200000000000000000000000000000000000000000000000000000000000000030000000000000000000000000000000000000000000000000000000000000004000000000000000000000000000000000000000000000000000000000000000500000000000000000000000000000000000000000000000000000000000000060000000000000000000000000000000000000000000000000000000000000007000000000000000000000000000000000000000000000000000000000000000000000000000000000000000000000000000000000000000000000000000000010000000000000000000000000000000000000000000000000000000000000002000000000000000000000000000000000000000000000000000000000000000000000000000000000000000000000000000000000000000000000000000000010000000000000000000000000000000000000000000000000000000000000002000000000000000000000000000000000000000000000000000000000000000000000000000000000000000000000000000000000000000000000000000000010000000000000000000000008de56f797ff4aa43224ac277f04d595a30f782d6000000000000000000000000c15bd2eae18fca607c7a0446ff646cbd1055ab670000000000000000000000000ec7f965127e4c57db223956b6b8f44ae57df704000000000000000000000000d58f3f6fff4e15caa04bedafe664b1c65803183b000000000000000000000000c0ddfaf6c73c06f5ccc36670deb59a2ee0dfc19c0000000000000000000000000cefb748b5afebc47dbe7ea934916cb14ac8e678000000000000000000000000fa0e503051f60c5e1c4a712c84d53961195eb96a0000000000000000000000000b00144644ba73e8f83ccdcad5c838ccf9fdc581",
          "blockHash": "0x0c62038453bf6678fed657ba29ac5ad56b1a9f6a59ca140902fa5d1191aaa17b",
          "blockNumber": "0x21bd28f",
          "blockTimestamp": "0x69bb4f0b",
          "transactionHash": "0x1977742a555424b0c289158d41ee549735a49f8e90a015074153a7ea8a0d4202",
          "transactionIndex": "0x0",
          "logIndex": "0x8",
          "removed": false
        },
        {
          "address": "0x0000000000000000000000000000000000001010",
          "topics": [
            "0x4dfe1bbbcf077ddc3e01291eea2d5c70c2b422b415d95645b9adcfd678cb1d63",
            "0x0000000000000000000000000000000000000000000000000000000000001010",
            "0x0000000000000000000000008de56f797ff4aa43224ac277f04d595a30f782d6",
            "0x0000000000000000000000007ee41d8a25641000661b1ef5e6ae8a00400466b0"
          ],
          "data": "0x00000000000000000000000000000000000000000000000001b75e4d18f2400000000000000000000000000000000000000000000000000f6548dbc837c049a1000000000000000000000000000000000000000000002f1b4ae1b730b48d41d800000000000000000000000000000000000000000000000f63917d7b1ece09a1000000000000000000000000000000000000000000002f1b4c99157dcd7f81d8",
          "blockHash": "0x0c62038453bf6678fed657ba29ac5ad56b1a9f6a59ca140902fa5d1191aaa17b",
          "blockNumber": "0x21bd28f",
          "blockTimestamp": "0x69bb4f0b",
          "transactionHash": "0x1977742a555424b0c289158d41ee549735a49f8e90a015074153a7ea8a0d4202",
          "transactionIndex": "0x0",
          "logIndex": "0x9",
          "removed": false
        }
      ],
      "logsBloom": "0x000000000000000000000000000000000000000000000008000000000040000008000000000000000000000400000000000080000000000000000000000000000000000000000000000000000000008000000000000000000001002000000001008000000000000084000000000000104000000010000000820200100000000000000000001000000a0000000400000000000000041000000000800000000000200020000000000000000000000014000000000200000000000000010000004000000000000000200001000000400000800000400000000000100000005000000000200000000000000000000000000000001000000000000040000000100000",
      "type": "0x2",
      "transactionHash": "0x1977742a555424b0c289158d41ee549735a49f8e90a015074153a7ea8a0d4202",
      "transactionIndex": "0x0",
      "blockHash": "0x0c62038453bf6678fed657ba29ac5ad56b1a9f6a59ca140902fa5d1191aaa17b",
      "blockNumber": "0x21bd28f",
      "gasUsed": "0x25bdd0",
      "effectiveGasPrice": "0xba43b743f",
      "from": "0x8de56f797ff4aa43224ac277f04d595a30f782d6",
      "to": "0x6523130e39f43cc1261ccff3bd3208295c41c11d",
      "contractAddress": null
    }
  ],
  "libraries": [],
  "pending": [],
  "returns": {},
  "timestamp": 1773883148957,
  "chain": 80002,
  "commit": "14aaaaf"
}