{
  "transactions": [
    {
      "hash": "0x784c174c313e2c4cbfc0c40a0518019b8a2dcd54a47718e32c1a30e1926084e5",
      "transactionType": "CREATE",
      "contractName": "ScriptHub",
      "contractAddress": "0x0ef55f486e186c250a2b7cdc2c27ed4e2eea09e1",
      "function": null,
      "arguments": null,
      "transaction": {
        "from": "0x8de56f797ff4aa43224ac277f04d595a30f782d6",
        "gas": "0x198322",
        "value": "0x0",
        "input": "0x60806040523461037557604080519081016001600160401b0381118282101761028b576040908152601182527010db185dc8105c995b984814d8dc9a5c1d607a1b602083015280519081016001600160401b0381118282101761028b57604052600681526514d0d492541560d21b602082015281516001600160401b03811161028b575f54600181811c9116801561036b575b602082101461026d57601f8111610309575b50602092601f82116001146102aa57928192935f9261029f575b50508160011b915f199060031b1c1916175f555b80516001600160401b03811161028b57600154600181811c91168015610281575b602082101461026d57601f811161020a575b50602091601f82116001146101aa579181925f9261019f575b50508160011b915f199060031b1c1916176001555b331561018c5760068054336001600160a01b03198216811790925560405191906001600160a01b03167f8be0079c531659141344cd1fd0a4f28419497f9722a3daafe3b4186f6b6457e05f80a36114c7908161037a8239f35b631e4fbdf760e01b5f525f60045260245ffd5b015190505f8061011e565b601f1982169260015f52805f20915f5b8581106101f2575083600195106101da575b505050811b01600155610133565b01515f1960f88460031b161c191690555f80806101cc565b919260206001819286850151815501940192016101ba565b60015f527fb10e2d527612073b26eecdfd717e6a320cf44b4afac2b0732d9fcbe2b7fa0cf6601f830160051c81019160208410610263575b601f0160051c01905b8181106102585750610105565b5f815560010161024b565b9091508190610242565b634e487b7160e01b5f52602260045260245ffd5b90607f16906100f3565b634e487b7160e01b5f52604160045260245ffd5b015190505f806100be565b601f198216935f8052805f20915f5b8681106102f157508360019596106102d9575b505050811b015f556100d2565b01515f1960f88460031b161c191690555f80806102cc565b919260206001819286850151815501940192016102b9565b5f80527f290decd9548b62a8d60345a988386fc84ba6bc95484008f6362f93160ef3e563601f830160051c81019160208410610361575b601f0160051c01905b81811061035657506100a4565b5f8155600101610349565b9091508190610340565b90607f1690610092565b5f80fdfe6080806040526004361015610012575f80fd5b5f905f3560e01c90816301ffc9a714610e975750806306fdde0314610df5578063081812fc14610db9578063095ea7b314610ccf578063150b7a0214610c7957806318160ddd14610b2357806323b872dd14610c625780633533fedf14610c4557806342842e0e14610c1c5780636352211e14610bec57806370a0823114610b9b578063715018a614610b4057806375794a3c14610b235780638da5cb5b14610afb57806395d89b4114610a3157806399809499146108c75780639bb3a345146106e0578063a22cb4651461062c578063a2c8bc981461051d578063b88d4fde14610494578063c87b56dd14610437578063cfa2023114610209578063e985e9c5146101b15763f2fde38b14610126575f80fd5b346101ae5760203660031901126101ae5761013f610f26565b610147611396565b6001600160a01b0316801561019a57600680546001600160a01b0319811683179091556001600160a01b03167f8be0079c531659141344cd1fd0a4f28419497f9722a3daafe3b4186f6b6457e05f80a380f35b631e4fbdf760e01b82526004829052602482fd5b80fd5b50346101ae5760403660031901126101ae5760406101cd610f26565b916101d6610f3c565b9260018060a01b031681526005602052209060018060a01b03165f52602052602060ff60405f2054166040519015158152f35b50346101ae5760203660031901126101ae576004356001600160401b0381116104335736602382011215610433578060040135906001600160401b03821161042f573660248360051b8301011161042f57610262611396565b6009546103f4573681900360421901835b838110156103ea5760085461028781611200565b60085560248260051b85010135838112156103e657840160248101356001600160401b0381116103e25780360360448301136103e257828852600760205260408820916102d48354610ff5565b601f811161039d575b508890601f831160011461032b579180610317949260019796948c9261031d575b50505f19600383901b1c191690861b1790555b306113bd565b01610273565b016044013590505f806102fe565b838a5260208a2091601f1984168b5b81811061038257509260019796949192889383610317989610610365575b505050811b019055610311565b6044910101355f19600384901b60f8161c191690555f8080610358565b6044848401013585556001909401936020928301920161033a565b838a5260208a20601f840160051c810191602085106103d8575b601f0160051c01905b8181106103cd57506102dd565b8a81556001016103c0565b90915081906103b7565b8780fd5b8680fd5b8460085460095580f35b60405162461bcd60e51b8152602060048201526013602482015272105b1c9958591e481a5b9a5d1a585b1a5e9959606a1b6044820152606490fd5b8280fd5b5080fd5b3461049057602036600319011261049057610453600435611362565b505f604051610463602082610fb9565b5261048c604051610475602082610fb9565b5f8152604051918291602083526020830190610f02565b0390f35b5f80fd5b34610490576080366003190112610490576104ad610f26565b6104b5610f3c565b606435916001600160401b0383116104905736602384011215610490578260040135916104e183610fda565b926104ef6040519485610fb9565b8084523660248287010111610490576020815f92602461051b9801838801378501015260443591611222565b005b34610490576020366003190112610490576004356008548110156105fb575f52600760205260405f20604051905f9080549061055882610ff5565b80855291600181169081156105d45750600114610594575b61048c8461058081860382610fb9565b604051918291602083526020830190610f02565b5f90815260208120939250905b8082106105ba5750909150810160200161058082610570565b9192600181602092548385880101520191019092916105a1565b60ff191660208087019190915292151560051b850190920192506105809150839050610570565b60405162461bcd60e51b8152602060048201526009602482015268139bdd08195e1a5cdd60ba1b6044820152606490fd5b3461049057604036600319011261049057610645610f26565b602435908115158092036104905733156106cd576001600160a01b03169081156106ba57335f52600560205260405f20825f5260205260405f2060ff1981541660ff83161790556040519081527f17307eab39ab6107e8899845ad3d59bd9653f200f220920489ca2b5937696c3160203392a3005b50630b61174360e31b5f5260045260245ffd5b63a9fbf51f60e01b5f525f60045260245ffd5b34610490576040366003190112610490576004356024356001600160401b03811161049057610713903690600401610f52565b909161071e81611362565b336001600160a01b0390911603610896576009548110610860576107438215156111c5565b5f52600760205260405f20906001600160401b03811161084c576107678254610ff5565b601f8111610807575b505f601f82116001146107a9578192935f9261079e575b50505f19600383901b1c191660019190911b179055005b013590508380610787565b601f19821693835f5260205f20915f5b8681106107ef57508360019596106107d6575b505050811b019055005b01355f19600384901b60f8161c191690558380806107cc565b909260206001819286860135815501940191016107b9565b825f5260205f20601f830160051c81019160208410610842575b601f0160051c01905b8181106108375750610770565b5f815560010161082a565b9091508190610821565b634e487b7160e01b5f52604160045260245ffd5b60405162461bcd60e51b815260206004820152600e60248201526d111959985d5b1d081cd8dc9a5c1d60921b6044820152606490fd5b60405162461bcd60e51b81526020600482015260096024820152682737ba1037bbb732b960b91b6044820152606490fd5b34610490576020366003190112610490576004356001600160401b038111610490576108f7903690600401610f52565b906109038215156111c5565b60085461090f81611200565b600855805f52600760205260405f206001600160401b03841161084c576109368154610ff5565b93601f85116109ec575b602094505f601f821160011461098c57819293945f92610981575b50508160011b915f199060031b1c19161790555b61097981336113bd565b604051908152f35b01359050858061095b565b601f19821694835f52865f20915f5b8781106109d55750836001959697106109bc575b505050811b01905561096f565b01355f19600384901b60f8161c191690558580806109af565b90928860018192868601358155019401910161099b565b815f5260205f20601f820160051c81019560208310610a27575b601f0160051c01945b858110610a1c5750610940565b5f8155600101610a0f565b9095508590610a06565b34610490575f366003190112610490576040515f600154610a5181610ff5565b8084529060018116908115610ad75750600114610a79575b61048c8361058081850382610fb9565b60015f9081527fb10e2d527612073b26eecdfd717e6a320cf44b4afac2b0732d9fcbe2b7fa0cf6939250905b808210610abd57509091508101602001610580610a69565b919260018160209254838588010152019101909291610aa5565b60ff191660208086019190915291151560051b840190910191506105809050610a69565b34610490575f366003190112610490576006546040516001600160a01b039091168152602090f35b34610490575f366003190112610490576020600854604051908152f35b34610490575f36600319011261049057610b58611396565b600680546001600160a01b031981169091555f906001600160a01b03167f8be0079c531659141344cd1fd0a4f28419497f9722a3daafe3b4186f6b6457e08280a3005b34610490576020366003190112610490576001600160a01b03610bbc610f26565b168015610bd9575f526003602052602060405f2054604051908152f35b6322718ad960e21b5f525f60045260245ffd5b34610490576020366003190112610490576020610c0a600435611362565b6040516001600160a01b039091168152f35b346104905761051b610c2d36610f7f565b9060405192610c3d602085610fb9565b5f8452611222565b34610490575f366003190112610490576020600954604051908152f35b346104905761051b610c7336610f7f565b9161102d565b3461049057608036600319011261049057610c92610f26565b50610c9b610f3c565b506064356001600160401b03811161049057610cbb903690600401610f52565b5050604051630a85bd0160e11b8152602090f35b3461049057604036600319011261049057610ce8610f26565b602435610cf481611362565b33151580610da6575b80610d79575b610d665781906001600160a01b0384811691167f8c5be1e5ebec7d5bd14f71427d1e84f3dd0314c0f7b2291e5b200ac8c7c3b9255f80a45f90815260046020526040902080546001600160a01b0319166001600160a01b03909216919091179055005b63a9fbf51f60e01b5f523360045260245ffd5b506001600160a01b0381165f90815260056020908152604080832033845290915290205460ff1615610d03565b506001600160a01b038116331415610cfd565b3461049057602036600319011261049057600435610dd681611362565b505f526004602052602060018060a01b0360405f205416604051908152f35b34610490575f366003190112610490576040515f5f54610e1481610ff5565b8084529060018116908115610ad75750600114610e3b5761048c8361058081850382610fb9565b5f8080527f290decd9548b62a8d60345a988386fc84ba6bc95484008f6362f93160ef3e563939250905b808210610e7d57509091508101602001610580610a69565b919260018160209254838588010152019101909291610e65565b34610490576020366003190112610490576004359063ffffffff60e01b8216809203610490576020916380ac58cd60e01b8114908115610ef1575b8115610ee0575b5015158152f35b6301ffc9a760e01b14905083610ed9565b635b5e139f60e01b81149150610ed2565b805180835260209291819084018484015e5f828201840152601f01601f1916010190565b600435906001600160a01b038216820361049057565b602435906001600160a01b038216820361049057565b9181601f84011215610490578235916001600160401b038311610490576020838186019501011161049057565b6060906003190112610490576004356001600160a01b038116810361049057906024356001600160a01b0381168103610490579060443590565b90601f801991011681019081106001600160401b0382111761084c57604052565b6001600160401b03811161084c57601f01601f191660200190565b90600182811c92168015611023575b602083101461100f57565b634e487b7160e01b5f52602260045260245ffd5b91607f1691611004565b6001600160a01b03909116919082156111b2575f828152600260205260409020546001600160a01b03169282903315158061111d575b50846110ea575b805f52600360205260405f2060018154019055815f52600260205260405f208160018060a01b0319825416179055847fddf252ad1be2c89b69c2b068fc378daa952ba7f163c4a11628f55a4df523b3ef5f80a46001600160a01b03168083036110d257505050565b6364283d7b60e01b5f5260045260245260445260645ffd5b5f82815260046020526040902080546001600160a01b0319169055845f52600360205260405f205f19815401905561106a565b90915080611161575b156111335782905f611063565b828461114b57637e27328960e01b5f5260045260245ffd5b63177e802f60e01b5f523360045260245260445ffd5b503384148015611190575b8061112657505f838152600460205260409020546001600160a01b03163314611126565b505f84815260056020908152604080832033845290915290205460ff1661116c565b633250574960e11b5f525f60045260245ffd5b156111cc57565b60405162461bcd60e51b815260206004820152600c60248201526b115b5c1d1e481cd8dc9a5c1d60a21b6044820152606490fd5b5f19811461120e5760010190565b634e487b7160e01b5f52601160045260245ffd5b929161122f81838661102d565b813b61123c575b50505050565b604051630a85bd0160e11b81523360048201526001600160a01b0394851660248201526044810191909152608060648201529216919060209082908190611287906084830190610f02565b03815f865af15f918161131d575b506112ea57503d156112e3573d6112ab81610fda565b906112b96040519283610fb9565b81523d5f602083013e5b805190816112de5782633250574960e11b5f5260045260245ffd5b602001fd5b60606112c3565b6001600160e01b03191663757a42ff60e11b0161130b57505f808080611236565b633250574960e11b5f5260045260245ffd5b9091506020813d60201161135a575b8161133960209383610fb9565b8101031261049057516001600160e01b03198116810361049057905f611295565b3d915061132c565b5f818152600260205260409020546001600160a01b0316908115611384575090565b637e27328960e01b5f5260045260245ffd5b6006546001600160a01b031633036113aa57565b63118cdaa760e01b5f523360045260245ffd5b6001600160a01b03169081156111b2575f818152600260205260409020546001600160a01b0316801515929091908361145e575b805f52600360205260405f2060018154019055815f52600260205260405f208160018060a01b0319825416179055827fddf252ad1be2c89b69c2b068fc378daa952ba7f163c4a11628f55a4df523b3ef5f80a45061144b57565b6339e3563760e11b5f525f60045260245ffd5b5f82815260046020526040902080546001600160a01b0319169055825f52600360205260405f205f1981540190556113f156fea2646970667358221220d397005b2348a9e61051db2e2663aae8fdbac679703d3f6c42e74fb193d9a56f64736f6c634300081b0033",
        "nonce": "0xc5",
        "chainId": "0x13882"
      },
      "additionalContracts": [],
      "isFixedGasLimit": false
    },
    {
      "hash": "0x61b1ed0bdf19be6c226631e935d432dc4ce244f3036a2f89694a23d8c1570df0",
      "transactionType": "CALL",
      "contractName": "ScriptHub",
      "contractAddress": "0x0ef55f486e186c250a2b7cdc2c27ed4e2eea09e1",
      "function": "initDefaultScripts(bytes[])",
      "arguments": [
        "[0x0307000000ff00000012001206ff00000212001206ff0000010a000800000006ff00000001000000000000000000000000000000000000000000000000000000000000000000030600001300000006ff00000002001700000001ff00000000001900000004ff000000010000000000000000000000040102001300000006ff00000002001900000004ff000000020000000000000000000000000000000000000000000003010204070000000600040000000000000000000000000000000000000000000000000000000000000000000000000200040307000000060004000000000000000000000000000000000000000000000000000000000000000000000000020003000b00000004ff000000020000000000000000000000000000000000000000000000000000000000000000000100020207000000060004000000000000000000000000000000000000000000000000000000000000000000000000020002001700000001ff00000000040700000006ff0000000500000000000000000000000000000000000000000000040004030700000006ff000000050000000000000000000000000000000000000000000000000000000000000000000300030000000000000000000000000000000000000000000000000000000000000000000000000000000000000000030600, 0x0407000000ff00000012000000ff00000012001206ff00000110010000ff00000009000800000006ff00000001000000000000000000000000000000000000000000000000000000000000000000030600001900000004ff00000003000b00000004ff00000002000000000000000000000000000000000000000000000100020407000000060004000000000000000000000000000000000000000000000000000000000000000000000000020004000f00000006ff000000010507000000060004000000000000000000000000000000000000000000000000000200050307000000060004000000000000000000000000000000000000000000000000000000000000000000000000020003001700000001ff00000000040700000006ff0000000500000000000000000000000000000000000000000000040004030700000006ff0000000700000000000000000000000000000000000000000000000000000000000000000003000300000000000000000000000000000000000000000000000000000000000000000000000000000000000000000306000000000000000000000000000000000000000000000000000000000000000000000000000000000000000000000000, 0x0207000000ff00000012000000ff00000007000800000006ff000000010000000000000000000000000000000000000000000000000000000000000000000306000c0700000006000400000000000000000000000000000000000000000000000000000000000000000000000002000c0307000000060004000000031200000006ff0000000200000000000000000000000000000000000000000000020003001900000004ff00000003000b00000004ff00000001000000000000000000000000000000000000000000000100020207000000060004000000000000000000000000000000000000000000000000000000000000000000000000020002020700000006ff000000070000000000000000000000000000000000000000000000000000000000000000000300020000000000000000000000000000000000000000000000000000000000000000000000000000000000000000030600, 0x0407000000ff00000012000000ff00000010010000ff00000012001206ff00000109000800000006ff00000001000000000000000000000000000000000000000000000000000000000000000000030600020700000006ff00000001001700000001ff00000000001300000006ff0000000200000000000000000000000401020507000000060004000000000000000000000000000000000000000000000000000000000000000000000000020005020700000006ff0000000100000000000000000000000000000000000000000000000000000000000000000003010204070000000600040000000000000000000000000000000000000000000000000000000000000000000000000200040307000000060004000000000000000000000000000000000000000000000000000000000000000000000000020003000b00000004ff00000003001900000004ff0000000200000000000000000000000000000000000000000000010002030700000006ff000000070000000000000000000000000000000000000000000000000000000000000000000300030000000000000000000000000000000000000000000000000000000000000000000000000000000000000000030600, 0x0307000000ff00000012000000ff00000012001206ff00000109000800000006ff00000001000000000000000000000000000000000000000000000000000000000000000000030600010000000005ff0000000f020700000006ff00000003001700000001ff000000000000000000000000000000040102010000000005ff0000000f040700000006000400000000000000000000000000000000000000000000000000020004010000000005ff0000000f000000000000000000000000000000000000000000000000000000000000000000010002000b00000004ff00000002001900000004ff000000020000000000000000000000000000000000000000000001000204070000000600040000000000000000000000000000000000000000000000000000000000000000000000000200040307000000060004000000000000000000000000000000000000000000000000000000000000000000000000020003030700000006ff000000060000000000000000000000000000000000000000000000000000000000000000000300030000000000000000000000000000000000000000000000000000000000000000000000000000000000000000030600, 0x0207000000ff00000012001206ff00000107000800000006ff0000000100000000000000000000000000000000000000000000000000000000000000000003060003070000000600040000000000000000000000000000000000000000000000000000000000000000000000000200030c0700000006000400000000000000000000000000000000000000000000000000000000000000000000000002000c000b00000004ff000000020000000000000000000000000000000000000000000000000000000000000000000100020207000000060004000000000000000000000000000000000000000000000000000000000000000000000000020002020700000006ff000000040000000000000000000000000000000000000000000000000000000000000000000300020000000000000000000000000000000000000000000000000000000000000000000000000000000000000000030600, 0x0307000000ff00000012001206ff00000214010000ff0000000a000800000006ff00000001000000000000000000000000000000000000000000000000000000000000000000030600001300000006ff00000002001900000004ff00000002001700000001ff000000000000000000000000000000040102001300000006ff00000002001900000004ff000000020000000000000000000000000000000000000000000003010203070000000600040000000000000000000000000000000000000000000000000000000000000000000000000200030407000000060004000000000f00000006ff0000000100000000000000000000000000000000000000000000020004000b00000004ff00000002001900000004ff00000002000000000000000000000000000000000000000000000100020207000000060004000000000000000000000000000000000000000000000000000000000000000000000000020002001700000001ff00000000030700000006ff0000000500000000000000000000000000000000000000000000040003030700000006ff000000050000000000000000000000000000000000000000000000000000000000000000000300030000000000000000000000000000000000000000000000000000000000000000000000000000000000000000030600, 0x0407000000ff00000010010000ff00000012000000ff00000012001206ff00000109000800000006ff00000001000000000000000000000000000000000000000000000000000000000000000000030600020700000006ff00000001001700000001ff00000000001300000006ff0000000200000000000000000000000401020507000000060004000000000000000000000000000000000000000000000000000000000000000000000000020005020700000006ff0000000100000000000000000000000000000000000000000000000000000000000000000003010203070000000600040000000000000000000000000000000000000000000000000000000000000000000000000200030407000000060004000000000000000000000000000000000000000000000000000000000000000000000000020004000b00000004ff00000003001900000004ff0000000200000000000000000000000000000000000000000000010002040700000006ff000000070000000000000000000000000000000000000000000000000000000000000000000300040000000000000000000000000000000000000000000000000000000000000000000000000000000000000000030600, 0x0407000000ff00000012000000ff00000012001206ff00000110010000ff00000008000800000006ff000000010000000000000000000000000000000000000000000000000000000000000000000306000407000000060004000000000000000000000000000000000000000000000000000000000000000000000000020004001900000004ff00000003000b00000004ff0000000100000000000000000000000000000000000000000000010002000f00000006ff00000001050700000006000400000000000000000000000000000000000000000000000000020005000f00000004ff00000003000b00000004ff00000002000000000000000000000000000000000000000000000100020307000000060004000000000000000000000000000000000000000000000000000000000000000000000000020003030700000006ff000000060000000000000000000000000000000000000000000000000000000000000000000300030000000000000000000000000000000000000000000000000000000000000000000000000000000000000000030600, 0x0207000000ff00000012000000ff00000008000800000006ff00000001000000000000000000000000000000000000000000000000000000000000000000030600010000000005ff0000000c020700000006ff00000002001700000001ff000000000000000000000000000000040102010000000005ff0000000c000000000000000000000000000000000000000000000000000000000000000000010002001300000006ff00000002001900000004ff000000020000000000000000000000000000000000000000000003010203070000000600040000000000000000000000000000000000000000000000000000000000000000000000000200030207000000060004000000000000000000000000000000000000000000000000000000000000000000000000020002030700000006ff000000060000000000000000000000000000000000000000000000000000000000000000000300030000000000000000000000000000000000000000000000000000000000000000000000000000000000000000030600]"
      ],
      "transaction": {
        "from": "0x8de56f797ff4aa43224ac277f04d595a30f782d6",
        "to": "0x0ef55f486e186c250a2b7cdc2c27ed4e2eea09e1",
        "gas": "0x4e2fb1",
        "value": "0x0",
        "input": "0xcfa202310000000000000000000000000000000000000000000000000000000000000020000000000000000000000000000000000000000000000000000000000000000a00000000000000000000000000000000000000000000000000000000000001400000000000000000000000000000000000000000000000000000000000000360000000000000000000000000000000000000000000000000000000000000056000000000000000000000000000000000000000000000000000000000000006e000000000000000000000000000000000000000000000000000000000000008e00000000000000000000000000000000000000000000000000000000000000ae00000000000000000000000000000000000000000000000000000000000000c600000000000000000000000000000000000000000000000000000000000000e800000000000000000000000000000000000000000000000000000000000001080000000000000000000000000000000000000000000000000000000000000124000000000000000000000000000000000000000000000000000000000000001f00307000000ff00000012001206ff00000212001206ff0000010a000800000006ff00000001000000000000000000000000000000000000000000000000000000000000000000030600001300000006ff00000002001700000001ff00000000001900000004ff000000010000000000000000000000040102001300000006ff00000002001900000004ff000000020000000000000000000000000000000000000000000003010204070000000600040000000000000000000000000000000000000000000000000000000000000000000000000200040307000000060004000000000000000000000000000000000000000000000000000000000000000000000000020003000b00000004ff000000020000000000000000000000000000000000000000000000000000000000000000000100020207000000060004000000000000000000000000000000000000000000000000000000000000000000000000020002001700000001ff00000000040700000006ff0000000500000000000000000000000000000000000000000000040004030700000006ff0000000500000000000000000000000000000000000000000000000000000000000000000003000300000000000000000000000000000000000000000000000000000000000000000000000000000000000000000306000000000000000000000000000000000000000000000000000000000000000000000000000000000000000000000001c90407000000ff00000012000000ff00000012001206ff00000110010000ff00000009000800000006ff00000001000000000000000000000000000000000000000000000000000000000000000000030600001900000004ff00000003000b00000004ff00000002000000000000000000000000000000000000000000000100020407000000060004000000000000000000000000000000000000000000000000000000000000000000000000020004000f00000006ff000000010507000000060004000000000000000000000000000000000000000000000000000200050307000000060004000000000000000000000000000000000000000000000000000000000000000000000000020003001700000001ff00000000040700000006ff0000000500000000000000000000000000000000000000000000040004030700000006ff00000007000000000000000000000000000000000000000000000000000000000000000000030003000000000000000000000000000000000000000000000000000000000000000000000000000000000000000003060000000000000000000000000000000000000000000000000000000000000000000000000000000000000000000000000000000000000000000000000000000000000000000000000000000000000000000000000000000000000000000000000000000000015b0207000000ff00000012000000ff00000007000800000006ff000000010000000000000000000000000000000000000000000000000000000000000000000306000c0700000006000400000000000000000000000000000000000000000000000000000000000000000000000002000c0307000000060004000000031200000006ff0000000200000000000000000000000000000000000000000000020003001900000004ff00000003000b00000004ff00000001000000000000000000000000000000000000000000000100020207000000060004000000000000000000000000000000000000000000000000000000000000000000000000020002020700000006ff000000070000000000000000000000000000000000000000000000000000000000000000000300020000000000000000000000000000000000000000000000000000000000000000000000000000000000000000030600000000000000000000000000000000000000000000000000000000000000000000000001c90407000000ff00000012000000ff00000010010000ff00000012001206ff00000109000800000006ff00000001000000000000000000000000000000000000000000000000000000000000000000030600020700000006ff00000001001700000001ff00000000001300000006ff0000000200000000000000000000000401020507000000060004000000000000000000000000000000000000000000000000000000000000000000000000020005020700000006ff0000000100000000000000000000000000000000000000000000000000000000000000000003010204070000000600040000000000000000000000000000000000000000000000000000000000000000000000000200040307000000060004000000000000000000000000000000000000000000000000000000000000000000000000020003000b00000004ff00000003001900000004ff0000000200000000000000000000000000000000000000000000010002030700000006ff000000070000000000000000000000000000000000000000000000000000000000000000000300030000000000000000000000000000000000000000000000000000000000000000000000000000000000000000030600000000000000000000000000000000000000000000000000000000000000000000000000000000000000000000000000000000000001c10307000000ff00000012000000ff00000012001206ff00000109000800000006ff00000001000000000000000000000000000000000000000000000000000000000000000000030600010000000005ff0000000f020700000006ff00000003001700000001ff000000000000000000000000000000040102010000000005ff0000000f040700000006000400000000000000000000000000000000000000000000000000020004010000000005ff0000000f000000000000000000000000000000000000000000000000000000000000000000010002000b00000004ff00000002001900000004ff000000020000000000000000000000000000000000000000000001000204070000000600040000000000000000000000000000000000000000000000000000000000000000000000000200040307000000060004000000000000000000000000000000000000000000000000000000000000000000000000020003030700000006ff00000006000000000000000000000000000000000000000000000000000000000000000000030003000000000000000000000000000000000000000000000000000000000000000000000000000000000000000003060000000000000000000000000000000000000000000000000000000000000000000000000000000000000000000000000000000000000000000000000000015b0207000000ff00000012001206ff00000107000800000006ff0000000100000000000000000000000000000000000000000000000000000000000000000003060003070000000600040000000000000000000000000000000000000000000000000000000000000000000000000200030c0700000006000400000000000000000000000000000000000000000000000000000000000000000000000002000c000b00000004ff000000020000000000000000000000000000000000000000000000000000000000000000000100020207000000060004000000000000000000000000000000000000000000000000000000000000000000000000020002020700000006ff000000040000000000000000000000000000000000000000000000000000000000000000000300020000000000000000000000000000000000000000000000000000000000000000000000000000000000000000030600000000000000000000000000000000000000000000000000000000000000000000000001f00307000000ff00000012001206ff00000214010000ff0000000a000800000006ff00000001000000000000000000000000000000000000000000000000000000000000000000030600001300000006ff00000002001900000004ff00000002001700000001ff000000000000000000000000000000040102001300000006ff00000002001900000004ff000000020000000000000000000000000000000000000000000003010203070000000600040000000000000000000000000000000000000000000000000000000000000000000000000200030407000000060004000000000f00000006ff0000000100000000000000000000000000000000000000000000020004000b00000004ff00000002001900000004ff00000002000000000000000000000000000000000000000000000100020207000000060004000000000000000000000000000000000000000000000000000000000000000000000000020002001700000001ff00000000030700000006ff0000000500000000000000000000000000000000000000000000040003030700000006ff0000000500000000000000000000000000000000000000000000000000000000000000000003000300000000000000000000000000000000000000000000000000000000000000000000000000000000000000000306000000000000000000000000000000000000000000000000000000000000000000000000000000000000000000000001c90407000000ff00000010010000ff00000012000000ff00000012001206ff00000109000800000006ff00000001000000000000000000000000000000000000000000000000000000000000000000030600020700000006ff00000001001700000001ff00000000001300000006ff0000000200000000000000000000000401020507000000060004000000000000000000000000000000000000000000000000000000000000000000000000020005020700000006ff0000000100000000000000000000000000000000000000000000000000000000000000000003010203070000000600040000000000000000000000000000000000000000000000000000000000000000000000000200030407000000060004000000000000000000000000000000000000000000000000000000000000000000000000020004000b00000004ff00000003001900000004ff0000000200000000000000000000000000000000000000000000010002040700000006ff0000000700000000000000000000000000000000000000000000000000000000000000000003000400000000000000000000000000000000000000000000000000000000000000000000000000000000000000000306000000000000000000000000000000000000000000000000000000000000000000000000000000000000000000000000000000000000019a0407000000ff00000012000000ff00000012001206ff00000110010000ff00000008000800000006ff000000010000000000000000000000000000000000000000000000000000000000000000000306000407000000060004000000000000000000000000000000000000000000000000000000000000000000000000020004001900000004ff00000003000b00000004ff0000000100000000000000000000000000000000000000000000010002000f00000006ff00000001050700000006000400000000000000000000000000000000000000000000000000020005000f00000004ff00000003000b00000004ff00000002000000000000000000000000000000000000000000000100020307000000060004000000000000000000000000000000000000000000000000000000000000000000000000020003030700000006ff000000060000000000000000000000000000000000000000000000000000000000000000000300030000000000000000000000000000000000000000000000000000000000000000000000000000000000000000030600000000000000000000000000000000000000000000000000000000000000000000000000018a0207000000ff00000012000000ff00000008000800000006ff00000001000000000000000000000000000000000000000000000000000000000000000000030600010000000005ff0000000c020700000006ff00000002001700000001ff000000000000000000000000000000040102010000000005ff0000000c000000000000000000000000000000000000000000000000000000000000000000010002001300000006ff00000002001900000004ff000000020000000000000000000000000000000000000000000003010203070000000600040000000000000000000000000000000000000000000000000000000000000000000000000200030207000000060004000000000000000000000000000000000000000000000000000000000000000000000000020002030700000006ff00000006000000000000000000000000000000000000000000000000000000000000000000030003000000000000000000000000000000000000000000000000000000000000000000000000000000000000000003060000000000000000000000000000000000000000000000",
        "nonce": "0xc6",
        "chainId": "0x13882"
      },
      "additionalContracts": [],
      "isFixedGasLimit": false
    },
    {
      "hash": "0x60ba3291ed02cdca417b70fb2af4a9c4e99294253ab3cbc42d3d70bcb7a9f1cb",
      "transactionType": "CREATE",
      "contractName": "LobsterHub",
      "contractAddress": "0xe4b69fe41761050b662c56bb75e045fd9621f22f",
      "function": null,
      "arguments": null,
      "transaction": {
        "from": "0x8de56f797ff4aa43224ac277f04d595a30f782d6",
        "gas": "0x295956",
        "value": "0x0",
        "input": "0x60806040523461040b57610013604061042e565b601281527121b630bb9020b932b730902637b139ba32b960711b602082015261003c604061042e565b60078152662627a129aa22a960c91b602082015281516001600160401b038111610336575f54600181811c91168015610401575b602082101461031857601f81116103b4575b50602092601f821160011461035557928192935f9261034a575b50508160011b915f199060031b1c1916175f555b80516001600160401b03811161033657600154600181811c9116801561032c575b602082101461031857601f81116102bf575b50602091601f821160011461025f579181925f92610254575b50508160011b915f199060031b1c1916176001555b33156102415760068054336001600160a01b0319821681179092556001600160a01b03167f8be0079c531659141344cd1fd0a4f28419497f9722a3daafe3b4186f6b6457e05f80a361016161040f565b600a815260016020820152600160408201525f606082015260036080820152600160a08201525f905f5b60068110610213578260075561019f61040f565b601e8152600a6020820152600360408201526005606082015260036080820152600960a08201525f905f5b600681106101e5578260085560405161224c908161046a8239f35b9091602061020a6001928460ff875116919060ff809160031b9316831b921b19161790565b930191016101ca565b909160206102386001928460ff875116919060ff809160031b9316831b921b19161790565b9301910161018b565b631e4fbdf760e01b5f525f60045260245ffd5b015190505f806100fc565b601f1982169260015f52805f20915f5b8581106102a75750836001951061028f575b505050811b01600155610111565b01515f1960f88460031b161c191690555f8080610281565b9192602060018192868501518155019401920161026f565b60015f52610308907fb10e2d527612073b26eecdfd717e6a320cf44b4afac2b0732d9fcbe2b7fa0cf6601f840160051c8101916020851061030e575b601f0160051c0190610453565b5f6100e3565b90915081906102fb565b634e487b7160e01b5f52602260045260245ffd5b90607f16906100d1565b634e487b7160e01b5f52604160045260245ffd5b015190505f8061009c565b601f198216935f8052805f20915f5b86811061039c5750836001959610610384575b505050811b015f556100b0565b01515f1960f88460031b161c191690555f8080610377565b91926020600181928685015181550194019201610364565b5f80526103fb907f290decd9548b62a8d60345a988386fc84ba6bc95484008f6362f93160ef3e563601f840160051c8101916020851061030e57601f0160051c0190610453565b5f610082565b90607f1690610070565b5f80fd5b6040519060c082016001600160401b0381118382101761033657604052565b6040519190601f01601f191682016001600160401b0381118382101761033657604052565b81811061045e575050565b5f815560010161045356fe6080806040526004361015610012575f80fd5b5f905f3560e01c90816301ffc9a71461169a5750806306fdde03146115e2578063081812fc146115a6578063095ea7b3146114bc578063150b7a021461144d57806318160ddd1461101f5780631ced1de51461141657806323b872dd146113ff5780634157e6b11461130757806342842e0e146112de5780634fd00c43146112b65780635f7baa1a146111785780636352211e14611148578063668c5c1a146111055780636dfd8072146110e857806370a0823114611097578063715018a61461103c57806375794a3c1461101f5780638da5cb5b14610ff757806395d89b4114610eef578063a22cb46514610e3b578063b88d4fde14610db2578063c112dcdc14610d88578063c5c22e3e14610d51578063c87b56dd146103fc578063e88851b01461026a578063e985e9c514610212578063f2fde38b146101895763f5bcb5621461015d575f80fd5b346101865760203660031901126101865760406020916004358152600a83522054604051908152f35b80fd5b5034610186576020366003190112610186576101a3611729565b6101ab611eca565b6001600160a01b031680156101fe57600680546001600160a01b0319811683179091556001600160a01b03167f8be0079c531659141344cd1fd0a4f28419497f9722a3daafe3b4186f6b6457e08380a380f35b631e4fbdf760e01b82526004829052602482fd5b503461018657604036600319011261018657604061022e611729565b9161023761173f565b9260018060a01b031681526005602052209060018060a01b03165f52602052602060ff60405f2054166040519015158152f35b50346103f85760203660031901126103f8576004356001600160a01b031981168082036103f85761029c9015156119df565b600d546001600160a01b031691823b156103f8575f8093604460405180968193634bc6a73f60e11b8352336004840152610bb860248401525af19283156103ed576020936103da575b5060406103be600b549361036060ff6103676103ad61034861034363ffffffff8b8a5161033a8f61032c839182019442448791606093918352602083015260408201520190565b03601f1981018352826117bf565b51902016611bbb565b611bcf565b949060c0895161035882826117bf565b369037611c28565b9290611d5e565b918361037284611d5e565b169461037d8b611a18565b600b558482511691858d82015116868b8301511687606084015116918860a0816080870151169501511695611d80565b88885260098a528688205516611dd3565b91838152600a855220556103d28133611df6565b604051908152f35b6103e691505f906117bf565b5f5f6102e5565b6040513d5f823e3d90fd5b5f80fd5b346103f85760203660031901126103f85760043561041d600b54821061180f565b5f90815260096020908152604080832054600a909252822054600882811c60ff9081169493609084901b6001600160a01b0319169390928282169291901c8116908316855b60ff8716600c811015610d415786901a60f81b6001600160f81b0319161561049a57600161049160ff92611c17565b97011695610462565b60ff91939597929496505b16946104b086611ef1565b935f5b60ff8116888110156104f757600c8110156104e35760ff91816104db8c6001941a918a611f23565b5301166104b3565b634e487b7160e01b5f52603260045260245ffd5b5050909192946101688102908082046101681490151715610d2d5761051e9060081c61217b565b90604051906105686009602484602080820197630d0e6d8560e31b89528051918291018484015e8101682c3730252c3530252960b81b8382015203016016198101855201836117bf565b6101688102908082046101681490151715610d2d576105899060081c61217b565b90604051926105d36009602486602080820197630d0e6d8560e31b89528051918291018484015e8101682c3730252c3430252960b81b8382015203016016198101875201856117bf565b607f8560011c169283601e019485601e11610d2d5787600a019586600a11610d2d5760286106008261217b565b9601809111610d2d576106129061217b565b9561061c8161217b565b906106269061217b565b906106308c61217b565b9461063a8b61217b565b96604051998a9960208b017f3c73766720786d6c6e733d22687474703a2f2f7777772e77332e6f72672f3230905260408b017f30302f737667222077696474683d2234303022206865696768743d2234303022905276103b34b2bba137bc1e91181018101a1818101a1818111f60491b60608c015260778b017f3c726563742077696474683d2234303022206865696768743d2234303022206690526b34b6361e911198989891179f60a11b60978c015260a38b017f3c656c6c697073652063783d22323030222063793d22323230222072783d220090528051602081920160c28d015e8a01651110393c9e9160d11b60c28201528151602081930160c883015e0160c201906711103334b6361e9160c11b6006830152518092600e83015e016006016211179f60e91b6008820152600b81017f3c636972636c652063783d22313630222063793d223137302220723d22000000905281516020819301602883015e016008016711103334b6361e9160c11b60208201528251908185602883015e016020016211179f60e91b6008820152600b81017f3c636972636c652063783d22323430222063793d223137302220723d22000000905281516020819301602883015e01600801906711103334b6361e9160c11b6020830152518092602883015e6211179f60e91b602892909101918201527f3c636972636c652063783d22313930222063793d223230302220723d22352220602b8201526c3334b6361e911198333311179f60991b604b82018190527f3c636972636c652063783d22323130222063793d223230302220723d22352220605883015260788201527f3c7465787420783d223230302220793d223335302220746578742d616e63686f60858201527f723d226d6964646c65222066696c6c3d22236666662220666f6e742d73697a6560a5820152681e91189b111f24281d60b91b60c582015281519160208083019284929091019060ce015e0160080160a68101641020aa259d60d91b90528151602081930160ab83015e0160a60160058101661e17ba32bc3a1f60c91b9052600c8101651e17b9bb339f60d11b90520360050160121981018252600d0161096390826117bf565b61096c90611f34565b936109769061217b565b916109809061217b565b8160101c60ff166109909061217b565b8260181c60ff166109a09061217b565b908360201c60ff166109b19061217b565b928460381c60ff166109c29061217b565b9460281c61ffff166109d39061217b565b95604051988998683d913730b6b2911d1160b91b60208b01528051602081920160298c015e7f222c226465736372697074696f6e223a22436c6177204172656e61204c6f62736029918b0191820152681d195c88139195088b60ba1b60498201527f22696d616765223a22646174613a696d6167652f7376672b786d6c3b626173656052820152620d8d0b60ea1b60728201528151918290602001607583015e0160290161088b60f21b604c8201526d2261747472696275746573223a5b60901b604e8201527a3d913a3930b4ba2fba3cb832911d1124281116113b30b63ab2911d60291b605c82015281516020819301607783015e01604c01602b8101611f4b60f21b9052602d81017f7b2274726169745f74797065223a2241544b222c2276616c7565223a00000000905281516020819301604983015e01602b01601e8101611f4b60f21b9052602081017f7b2274726169745f74797065223a2252616e6765222c2276616c7565223a0000905281516020819301603e83015e01601e0160208101611f4b60f21b9052602281017f7b2274726169745f74797065223a225370656564222c2276616c7565223a0000905281516020819301604083015e0160200160208101611f4b60f21b9052602281017f7b2274726169745f74797065223a224d616e61204d6178222c2276616c756522905260428101601d60f91b905281516020819301604383015e0160200160238101611f4b60f21b9052602581017f7b2274726169745f74797065223a22536b696c6c20506f776572222c2276616c9052633ab2911d60e11b604582015281516020819301604983015e0160230160268101611f4b60f21b9052602881017f7b2274726169745f74797065223a22536b696c6c20456666656374222c227661905264363ab2911d60d91b604882015281516020819301604d83015e0160260160278101607d60f81b905260288101615d7d60f01b905203602701601c1981018252600301610cb490826117bf565b610cbd90611f34565b6040518091602082017f646174613a6170706c69636174696f6e2f6a736f6e3b6261736536342c000000905280516020819201603d84015e8101603d81015f905203603d01601f1981018252610d1390826117bf565b60405180916020825260208201610d2991611705565b0390f35b634e487b7160e01b5f52601160045260245ffd5b5060ff91939597929496506104a5565b346103f85760203660031901126103f857600435610d72600b54821061180f565b5f526009602052602060405f2054604051908152f35b346103f85760203660031901126103f8576004355f526009602052602060405f2054604051908152f35b346103f85760803660031901126103f857610dcb611729565b610dd361173f565b606435916001600160401b0383116103f857366023840112156103f857826004013591610dff836117f4565b92610e0d60405194856117bf565b80845236602482870101116103f8576020815f926024610e399801838801378501015260443591611a47565b005b346103f85760403660031901126103f857610e54611729565b602435908115158092036103f8573315610edc576001600160a01b0316908115610ec957335f52600560205260405f20825f5260205260405f2060ff1981541660ff83161790556040519081527f17307eab39ab6107e8899845ad3d59bd9653f200f220920489ca2b5937696c3160203392a3005b50630b61174360e31b5f5260045260245ffd5b63a9fbf51f60e01b5f525f60045260245ffd5b346103f8575f3660031901126103f8576040515f6001548060011c90600181168015610fed575b602083108114610fd957828552908115610fb55750600114610f57575b610d2983610f43818503826117bf565b604051918291602083526020830190611705565b60015f9081527fb10e2d527612073b26eecdfd717e6a320cf44b4afac2b0732d9fcbe2b7fa0cf6939250905b808210610f9b57509091508101602001610f43610f33565b919260018160209254838588010152019101909291610f83565b60ff191660208086019190915291151560051b84019091019150610f439050610f33565b634e487b7160e01b5f52602260045260245ffd5b91607f1691610f16565b346103f8575f3660031901126103f8576006546040516001600160a01b039091168152602090f35b346103f8575f3660031901126103f8576020600b54604051908152f35b346103f8575f3660031901126103f857611054611eca565b600680546001600160a01b031981169091555f906001600160a01b03167f8be0079c531659141344cd1fd0a4f28419497f9722a3daafe3b4186f6b6457e08280a3005b346103f85760203660031901126103f8576001600160a01b036110b8611729565b1680156110d5575f526003602052602060405f2054604051908152f35b6322718ad960e21b5f525f60045260245ffd5b346103f8575f3660031901126103f8576020600c54604051908152f35b346103f85760203660031901126103f85761111e611729565b611126611eca565b600d80546001600160a01b0319166001600160a01b0392909216919091179055005b346103f85760203660031901126103f8576020611166600435611b87565b6040516001600160a01b039091168152f35b346103f85760403660031901126103f8576004356001600160401b0381116103f8576111a890369060040161178f565b906024356001600160401b0381116103f8576111c890369060040161178f565b90916111d2611eca565b600c5461127b57818403611244575f5b8481106111f157600b54600c55005b60019061123e600b5461120381611a18565b600b55611211838987611a37565b35815f52600960205260405f205561122a838789611a37565b35815f52600a60205260405f205530611df6565b016111e2565b60405162461bcd60e51b815260206004820152600f60248201526e098cadccee8d040dad2e6dac2e8c6d608b1b6044820152606490fd5b60405162461bcd60e51b8152602060048201526013602482015272105b1c9958591e481a5b9a5d1a585b1a5e9959606a1b6044820152606490fd5b346103f8575f3660031901126103f857600d546040516001600160a01b039091168152602090f35b346103f857610e396112ef36611755565b90604051926112ff6020856117bf565b5f8452611a47565b346103f85760203660031901126103f8576004356001600160a01b03198116908181036103f85761133b60209215156119df565b6113e9600b549161036060ff6113906113d761137f61034363ffffffff8960405161033a8161032c8f82019442448791606093918352602083015260408201520190565b949060c060405161035882826117bf565b918361139b84611d5e565b16946113a689611a18565b600b558482511691858b820151168660408301511687606084015116918860a0816080870151169501511695611d80565b865f526009885260405f205516611dd3565b815f52600a835260405f20556103d28133611df6565b346103f857610e3961141036611755565b91611847565b346103f85760203660031901126103f857600435611437600b54821061180f565b5f52600a602052602060405f2054604051908152f35b346103f85760803660031901126103f857611466611729565b5061146f61173f565b506064356001600160401b0381116103f857366023820112156103f85780600401356001600160401b0381116103f857369101602401116103f857604051630a85bd0160e11b8152602090f35b346103f85760403660031901126103f8576114d5611729565b6024356114e181611b87565b33151580611593575b80611566575b6115535781906001600160a01b0384811691167f8c5be1e5ebec7d5bd14f71427d1e84f3dd0314c0f7b2291e5b200ac8c7c3b9255f80a45f90815260046020526040902080546001600160a01b0319166001600160a01b03909216919091179055005b63a9fbf51f60e01b5f523360045260245ffd5b506001600160a01b0381165f90815260056020908152604080832033845290915290205460ff16156114f0565b506001600160a01b0381163314156114ea565b346103f85760203660031901126103f8576004356115c381611b87565b505f526004602052602060018060a01b0360405f205416604051908152f35b346103f8575f3660031901126103f8576040515f5f548060011c90600181168015611690575b602083108114610fd957828552908115610fb5575060011461163457610d2983610f43818503826117bf565b5f8080527f290decd9548b62a8d60345a988386fc84ba6bc95484008f6362f93160ef3e563939250905b80821061167657509091508101602001610f43610f33565b91926001816020925483858801015201910190929161165e565b91607f1691611608565b346103f85760203660031901126103f8576004359063ffffffff60e01b82168092036103f8576020916380ac58cd60e01b81149081156116f4575b81156116e3575b5015158152f35b6301ffc9a760e01b149050836116dc565b635b5e139f60e01b811491506116d5565b805180835260209291819084018484015e5f828201840152601f01601f1916010190565b600435906001600160a01b03821682036103f857565b602435906001600160a01b03821682036103f857565b60609060031901126103f8576004356001600160a01b03811681036103f857906024356001600160a01b03811681036103f8579060443590565b9181601f840112156103f8578235916001600160401b0383116103f8576020808501948460051b0101116103f857565b90601f801991011681019081106001600160401b038211176117e057604052565b634e487b7160e01b5f52604160045260245ffd5b6001600160401b0381116117e057601f01601f191660200190565b1561181657565b60405162461bcd60e51b8152602060048201526009602482015268139bdd08195e1a5cdd60ba1b6044820152606490fd5b6001600160a01b03909116919082156119cc575f828152600260205260409020546001600160a01b031692829033151580611937575b5084611904575b805f52600360205260405f2060018154019055815f52600260205260405f208160018060a01b0319825416179055847fddf252ad1be2c89b69c2b068fc378daa952ba7f163c4a11628f55a4df523b3ef5f80a46001600160a01b03168083036118ec57505050565b6364283d7b60e01b5f5260045260245260445260645ffd5b5f82815260046020526040902080546001600160a01b0319169055845f52600360205260405f205f198154019055611884565b9091508061197b575b1561194d5782905f61187d565b828461196557637e27328960e01b5f5260045260245ffd5b63177e802f60e01b5f523360045260245260445ffd5b5033841480156119aa575b8061194057505f838152600460205260409020546001600160a01b03163314611940565b505f84815260056020908152604080832033845290915290205460ff16611986565b633250574960e11b5f525f60045260245ffd5b156119e657565b60405162461bcd60e51b815260206004820152600a602482015269456d707479206e616d6560b01b6044820152606490fd5b5f198114610d2d5760010190565b9060068110156104e35760051b0190565b91908110156104e35760051b0190565b9291611a54818386611847565b813b611a61575b50505050565b604051630a85bd0160e11b81523360048201526001600160a01b0394851660248201526044810191909152608060648201529216919060209082908190611aac906084830190611705565b03815f865af15f9181611b42575b50611b0f57503d15611b08573d611ad0816117f4565b90611ade60405192836117bf565b81523d5f602083013e5b80519081611b035782633250574960e11b5f5260045260245ffd5b602001fd5b6060611ae8565b6001600160e01b03191663757a42ff60e11b01611b3057505f808080611a5b565b633250574960e11b5f5260045260245ffd5b9091506020813d602011611b7f575b81611b5e602093836117bf565b810103126103f857516001600160e01b0319811681036103f857905f611aba565b3d9150611b51565b5f818152600260205260409020546001600160a01b0316908115611ba9575090565b637e27328960e01b5f5260045260245ffd5b63ffffffff8116611bcc5750600190565b90565b611bd890611d5e565b9061ffff600181600d81861606161b1690565b9060068210156104e357601f8260051c600701921690565b9060ff8091169116019060ff8211610d2d57565b60ff1660ff8114610d2d5760010190565b9060405191611c3860c0846117bf565b60c03684375f5b60ff81166006811015611c765781600191611c6e60ff611c5f8196611beb565b90549060031b1c169188611a26565b520116611c3f565b50505f5b600c60ff821610611c8a57509190565b90611c9490611d5e565b90600660ff8316065f5b600660ff821610611cb7575b505060010160ff16611c7a565b600660ff611cc58385611c03565b160660ff81169060ff611cd8838a611a26565b51169060ff611ce682611beb565b90549060031b1c169060068110156104e35760ff918282601f611d199460051c600801911690549060031b1c1690611c03565b1611611d2b575060010160ff16611c9e565b6001925060ff80949250611d54611d4d82611d46858c611a26565b5116611c17565b9289611a26565b9116905291611caa565b63ffffe00081600d1b1618617fff8160111c161863ffffffe08160051b161890565b60ff1660089190911b61ff00161760109190911b62ff0000161760189190911b63ff000000161760209190911b64ff00000000161760289190911b61ffff60281b161760389190911b60ff60381b161790565b60ff1660089190911b61ff00161760909190911c62010000600160701b03161790565b6001600160a01b03169081156119cc575f818152600260205260409020546001600160a01b03168015159290919083611e97575b805f52600360205260405f2060018154019055815f52600260205260405f208160018060a01b0319825416179055827fddf252ad1be2c89b69c2b068fc378daa952ba7f163c4a11628f55a4df523b3ef5f80a450611e8457565b6339e3563760e11b5f525f60045260245ffd5b5f82815260046020526040902080546001600160a01b0319169055825f52600360205260405f205f198154019055611e2a565b6006546001600160a01b03163303611ede57565b63118cdaa760e01b5f523360045260245ffd5b90611efb826117f4565b611f0860405191826117bf565b8281528092611f19601f19916117f4565b0190602036910137565b9081518110156104e3570160200190565b604051611f426060826117bf565b604081527f4142434445464748494a4b4c4d4e4f505152535455565758595a61626364656660208201527f6768696a6b6c6d6e6f707172737475767778797a303132333435363738392b2f6040820152815180156121645760028101808211610d2d57600390046001600160fe1b0381168103610d2d57611fc59060021b611ef1565b925f905f5b838110611fd957505050505090565b611fe38183611f23565b516001820180831180610d2d5786821090811561215c57506120065f9286611f23565b5160f81c915b60028501918286119384610d2d5789841094851561215357506120305f9489611f23565b5160f81c955b60e81c62ff00001660089190911b61ff00161760ff861617918b6120826001600160f81b031961206d601287901c603f168f611f23565b51169a61207981611a18565b9b5f1a92611f23565b538b6120a16001600160f81b031961206d600c87901c603f168f611f23565b53610d2d5715612147576001600160f81b0319906120c59060061c603f168a611f23565b5116955b6120df6120d582611a18565b975f1a918b611f23565b53610d2d571561213b576001600160f81b03199061210090603f1687611f23565b5116925b61211a61211082611a18565b945f1a9188611f23565b536003810180911115611fca57634e487b7160e01b5f52601160045260245ffd5b50603d60f81b92612104565b50603d60f81b956120c9565b93505f95612036565b5f925061200c565b5050506040516121756020826117bf565b5f815290565b80156121f657805f81805b6121de575061219481611ef1565b925b61219f57505090565b8015610d2d575f190190600a81066030019081603011610d2d57600a9160f81b6001600160f81b0319165f1a6121d58486611f23565b53049081612196565b91506121eb600a91611a18565b910480839291612186565b506040516122056040826117bf565b60018152600360fc1b60208201529056fea26469706673582212201f44c750db87a83730bf7fba7154ab093af68d37559551789019327a57e010a164736f6c634300081b0033",
        "nonce": "0xc7",
        "chainId": "0x13882"
      },
      "additionalContracts": [],
      "isFixedGasLimit": false
    },
    {
      "hash": "0x9dcb81ce0ea01f3136fc03cf8b35e293a437a58ba8c91aac69948d6e5ee704a0",
      "transactionType": "CALL",
      "contractName": "LobsterHub",
      "contractAddress": "0xe4b69fe41761050b662c56bb75e045fd9621f22f",
      "function": "initDefaultHeroes(uint256[],uint256[])",
      "arguments": [
        "[144116300489294864, 72059810241118740, 288511864080565514, 288247985534534414, 288300757814478092, 144678150931022355, 217298694955992587, 216313536799048461]",
        "[1489682397563487871304488930248974, 1671982682062081034269043768462456, 1448325303171702334197251556039880, 1347230162892238745429162055436800, 1409025020377989992837834233363496, 1711996626781914031196718776738896, 1367986090285240075524690552075424, 1347232007392622484071272696314608]"
      ],
      "transaction": {
        "from": "0x8de56f797ff4aa43224ac277f04d595a30f782d6",
        "to": "0xe4b69fe41761050b662c56bb75e045fd9621f22f",
        "gas": "0xdb32a",
        "value": "0x0",
        "input": "0x5f7baa1a00000000000000000000000000000000000000000000000000000000000000400000000000000000000000000000000000000000000000000000000000000160000000000000000000000000000000000000000000000000000000000000000800000000000000000000000000000000000000000000000002000103010204100000000000000000000000000000000000000000000000000100020400010214000000000000000000000000000000000000000000000000040100030402050a000000000000000000000000000000000000000000000000040010040102030e000000000000000000000000000000000000000000000000040040030202050c0000000000000000000000000000000000000000000000000202000301010213000000000000000000000000000000000000000000000000030400030302060b000000000000000000000000000000000000000000000000030080040104030d000000000000000000000000000000000000000000000000000000000000000800000000000000000000000000000000000049726f6e20436c6177000000090e000000000000000000000000000000000000526f636b204c6f62730000008c7800000000000000000000000000000000000047686f737420536872000000dcc8000000000000000000000000000000000000426c6f6f6420436c610000000a000000000000000000000000000000000000004578656375747200000000003c2800000000000000000000000000000000000054686f726e20536872000000645000000000000000000000000000000000000043726974204c6f6273000000b4a0000000000000000000000000000000000000426c756520466c616d000000faf0",
        "nonce": "0xc8",
        "chainId": "0x13882"
      },
      "additionalContracts": [],
      "isFixedGasLimit": false
    },
    {
      "hash": "0x3425e42ffca6c03e2a55839f3e9992fd6384af4e42528842eccc4ebc2f039683",
      "transactionType": "CALL",
      "contractName": "LobsterHub",
      "contractAddress": "0xe4b69fe41761050b662c56bb75e045fd9621f22f",
      "function": "setClawArena(address)",
      "arguments": [
        "0x3C3D2552bbdFeEa59C85b619A24afE2472c69945"
      ],
      "transaction": {
        "from": "0x8de56f797ff4aa43224ac277f04d595a30f782d6",
        "to": "0xe4b69fe41761050b662c56bb75e045fd9621f22f",
        "gas": "0x10844",
        "value": "0x0",
        "input": "0x668c5c1a0000000000000000000000003c3d2552bbdfeea59c85b619a24afe2472c69945",
        "nonce": "0xc9",
        "chainId": "0x13882"
      },
      "additionalContracts": [],
      "isFixedGasLimit": false
    },
    {
      "hash": "0x9035e696638765c91e2d42a2366122ae11ab928fac2225036fbfed71eea85274",
      "transactionType": "CALL",
      "contractName": null,
      "contractAddress": "0x3c3d2552bbdfeea59c85b619a24afe2472c69945",
      "function": "setScriptHub(address)",
      "arguments": [
        "0x0eF55F486e186C250a2B7CdC2c27eD4e2eeA09e1"
      ],
      "transaction": {
        "from": "0x8de56f797ff4aa43224ac277f04d595a30f782d6",
        "to": "0x3c3d2552bbdfeea59c85b619a24afe2472c69945",
        "gas": "0x9de1",
        "value": "0x0",
        "input": "0x83bc8d750000000000000000000000000ef55f486e186c250a2b7cdc2c27ed4e2eea09e1",
        "nonce": "0xca",
        "chainId": "0x13882"
      },
      "additionalContracts": [],
      "isFixedGasLimit": false
    },
    {
      "hash": "0xff62edfe4ad916a40a970776235e5e677f10ffa23c71b7e1450759dfab68e8b3",
      "transactionType": "CALL",
      "contractName": null,
      "contractAddress": "0x3c3d2552bbdfeea59c85b619a24afe2472c69945",
      "function": "setLobsterHub(address)",
      "arguments": [
        "0xE4b69FE41761050B662C56bb75E045fd9621f22F"
      ],
      "transaction": {
        "from": "0x8de56f797ff4aa43224ac277f04d595a30f782d6",
        "to": "0x3c3d2552bbdfeea59c85b619a24afe2472c69945",
        "gas": "0x9cd0",
        "value": "0x0",
        "input": "0x5a5c69d6000000000000000000000000e4b69fe41761050b662c56bb75e045fd9621f22f",
        "nonce": "0xcb",
        "chainId": "0x13882"
      },
      "additionalContracts": [],
      "isFixedGasLimit": false
    }
  ],
  "receipts": [
    {
      "status": "0x1",
      "cumulativeGasUsed": "0x142510",
      "logs": [
        {
          "address": "0x0ef55f486e186c250a2b7cdc2c27ed4e2eea09e1",
          "topics": [
            "0x8be0079c531659141344cd1fd0a4f28419497f9722a3daafe3b4186f6b6457e0",
            "0x0000000000000000000000000000000000000000000000000000000000000000",
            "0x0000000000000000000000008de56f797ff4aa43224ac277f04d595a30f782d6"
          ],
          "data": "0x",
          "blockHash": "0x8ad1a01fb1965d2a2cdf7848065009b68c0c2bc2422e93b309d4c3d2a6df960a",
          "blockNumber": "0x21c3fc5",
          "blockTimestamp": "0x69bc2977",
          "transactionHash": "0x784c174c313e2c4cbfc0c40a0518019b8a2dcd54a47718e32c1a30e1926084e5",
          "transactionIndex": "0x1",
          "logIndex": "0x1",
          "removed": false
        },
        {
          "address": "0x0000000000000000000000000000000000001010",
          "topics": [
            "0x4dfe1bbbcf077ddc3e01291eea2d5c70c2b422b415d95645b9adcfd678cb1d63",
            "0x0000000000000000000000000000000000000000000000000000000000001010",
            "0x0000000000000000000000008de56f797ff4aa43224ac277f04d595a30f782d6",
            "0x0000000000000000000000007ee41d8a25641000661b1ef5e6ae8a00400466b0"
          ],
          "data": "0x000000000000000000000000000000000000000000000000015d689571d2e6c90000000000000000000000000000000000000000000000045afd7edfe93a67ff000000000000000000000000000000000000000000002f52bd3e08ddff57318100000000000000000000000000000000000000000000000459a0164a77678136000000000000000000000000000000000000000000002f52be9b7173712a184a",
          "blockHash": "0x8ad1a01fb1965d2a2cdf7848065009b68c0c2bc2422e93b309d4c3d2a6df960a",
          "blockNumber": "0x21c3fc5",
          "blockTimestamp": "0x69bc2977",
          "transactionHash": "0x784c174c313e2c4cbfc0c40a0518019b8a2dcd54a47718e32c1a30e1926084e5",
          "transactionIndex": "0x1",
          "logIndex": "0x2",
          "removed": false
        }
      ],
      "logsBloom": "0x00000000000000000000000000000000000000000000000000800000004000000000000000001000000000000000000000008000000000000000000000000000000000000000000000000000000000800001000000000000000100000000000000000000020000000400000000000800000000000000000080000800000000400000000000000000020000000400000000000000000000000000000000000000200000000000000000000000000000000000000000000000000000000000004000000000000000000001000000000000000000400000000000100000004020000000000000000000000000000000000000000000000000000000000000100020",
      "type": "0x2",
      "transactionHash": "0x784c174c313e2c4cbfc0c40a0518019b8a2dcd54a47718e32c1a30e1926084e5",
      "transactionIndex": "0x1",
      "blockHash": "0x8ad1a01fb1965d2a2cdf7848065009b68c0c2bc2422e93b309d4c3d2a6df960a",
      "blockNumber": "0x21c3fc5",
      "gasUsed": "0x139ff3",
      "effectiveGasPrice": "0x11cdef8992",
      "from": "0x8de56f797ff4aa43224ac277f04d595a30f782d6",
      "to": null,
      "contractAddress": "0x0ef55f486e186c250a2b7cdc2c27ed4e2eea09e1"
    },
    {
      "status": "0x1",
      "cumulativeGasUsed": "0x3575f2",
      "logs": [
        {
          "address": "0x0ef55f486e186c250a2b7cdc2c27ed4e2eea09e1",
          "topics": [
            "0xddf252ad1be2c89b69c2b068fc378daa952ba7f163c4a11628f55a4df523b3ef",
            "0x0000000000000000000000000000000000000000000000000000000000000000",
            "0x0000000000000000000000000ef55f486e186c250a2b7cdc2c27ed4e2eea09e1",
            "0x0000000000000000000000000000000000000000000000000000000000000000"
          ],
          "data": "0x",
          "blockHash": "0x7c891f7eeee4dc559604dce8043e94cd8c7ba9a5c9e07207076e4e6f50062130",
          "blockNumber": "0x21c3fc6",
          "blockTimestamp": "0x69bc2979",
          "transactionHash": "0x9035e696638765c91e2d42a2366122ae11ab928fac2225036fbfed71eea85274",
          "transactionIndex": "0x0",
          "logIndex": "0x0",
          "removed": false
        },
        {
          "address": "0x0ef55f486e186c250a2b7cdc2c27ed4e2eea09e1",
          "topics": [
            "0xddf252ad1be2c89b69c2b068fc378daa952ba7f163c4a11628f55a4df523b3ef",
            "0x0000000000000000000000000000000000000000000000000000000000000000",
            "0x0000000000000000000000000ef55f486e186c250a2b7cdc2c27ed4e2eea09e1",
            "0x0000000000000000000000000000000000000000000000000000000000000001"
          ],
          "data": "0x",
          "blockHash": "0x7c891f7eeee4dc559604dce8043e94cd8c7ba9a5c9e07207076e4e6f50062130",
          "blockNumber": "0x21c3fc6",
          "blockTimestamp": "0x69bc2979",
          "transactionHash": "0x9035e696638765c91e2d42a2366122ae11ab928fac2225036fbfed71eea85274",
          "transactionIndex": "0x0",
          "logIndex": "0x1",
          "removed": false
        },
        {
          "address": "0x0ef55f486e186c250a2b7cdc2c27ed4e2eea09e1",
          "topics": [
            "0xddf252ad1be2c89b69c2b068fc378daa952ba7f163c4a11628f55a4df523b3ef",
            "0x0000000000000000000000000000000000000000000000000000000000000000",
            "0x0000000000000000000000000ef55f486e186c250a2b7cdc2c27ed4e2eea09e1",
            "0x0000000000000000000000000000000000000000000000000000000000000002"
          ],
          "data": "0x",
          "blockHash": "0x7c891f7eeee4dc559604dce8043e94cd8c7ba9a5c9e07207076e4e6f50062130",
          "blockNumber": "0x21c3fc6",
          "blockTimestamp": "0x69bc2979",
          "transactionHash": "0x9035e696638765c91e2d42a2366122ae11ab928fac2225036fbfed71eea85274",
          "transactionIndex": "0x0",
          "logIndex": "0x2",
          "removed": false
        },
        {
          "address": "0x0ef55f486e186c250a2b7cdc2c27ed4e2eea09e1",
          "topics": [
            "0xddf252ad1be2c89b69c2b068fc378daa952ba7f163c4a11628f55a4df523b3ef",
            "0x0000000000000000000000000000000000000000000000000000000000000000",
            "0x0000000000000000000000000ef55f486e186c250a2b7cdc2c27ed4e2eea09e1",
            "0x0000000000000000000000000000000000000000000000000000000000000003"
          ],
          "data": "0x",
          "blockHash": "0x7c891f7eeee4dc559604dce8043e94cd8c7ba9a5c9e07207076e4e6f50062130",
          "blockNumber": "0x21c3fc6",
          "blockTimestamp": "0x69bc2979",
          "transactionHash": "0x9035e696638765c91e2d42a2366122ae11ab928fac2225036fbfed71eea85274",
          "transactionIndex": "0x0",
          "logIndex": "0x3",
          "removed": false
        },
        {
          "address": "0x0ef55f486e186c250a2b7cdc2c27ed4e2eea09e1",
          "topics": [
            "0xddf252ad1be2c89b69c2b068fc378daa952ba7f163c4a11628f55a4df523b3ef",
            "0x0000000000000000000000000000000000000000000000000000000000000000",
            "0x0000000000000000000000000ef55f486e186c250a2b7cdc2c27ed4e2eea09e1",
            "0x0000000000000000000000000000000000000000000000000000000000000004"
          ],
          "data": "0x",
          "blockHash": "0x7c891f7eeee4dc559604dce8043e94cd8c7ba9a5c9e07207076e4e6f50062130",
          "blockNumber": "0x21c3fc6",
          "blockTimestamp": "0x69bc2979",
          "transactionHash": "0x9035e696638765c91e2d42a2366122ae11ab928fac2225036fbfed71eea85274",
          "transactionIndex": "0x0",
          "logIndex": "0x4",
          "removed": false
        },
        {
          "address": "0x0ef55f486e186c250a2b7cdc2c27ed4e2eea09e1",
          "topics": [
            "0xddf252ad1be2c89b69c2b068fc378daa952ba7f163c4a11628f55a4df523b3ef",
            "0x0000000000000000000000000000000000000000000000000000000000000000",
            "0x0000000000000000000000000ef55f486e186c250a2b7cdc2c27ed4e2eea09e1",
            "0x0000000000000000000000000000000000000000000000000000000000000005"
          ],
          "data": "0x",
          "blockHash": "0x7c891f7eeee4dc559604dce8043e94cd8c7ba9a5c9e07207076e4e6f50062130",
          "blockNumber": "0x21c3fc6",
          "blockTimestamp": "0x69bc2979",
          "transactionHash": "0x9035e696638765c91e2d42a2366122ae11ab928fac2225036fbfed71eea85274",
          "transactionIndex": "0x0",
          "logIndex": "0x5",
          "removed": false
        },
        {
          "address": "0x0ef55f486e186c250a2b7cdc2c27ed4e2eea09e1",
          "topics": [
            "0xddf252ad1be2c89b69c2b068fc378daa952ba7f163c4a11628f55a4df523b3ef",
            "0x0000000000000000000000000000000000000000000000000000000000000000",
            "0x0000000000000000000000000ef55f486e186c250a2b7cdc2c27ed4e2eea09e1",
            "0x0000000000000000000000000000000000000000000000000000000000000006"
          ],
          "data": "0x",
          "blockHash": "0x7c891f7eeee4dc559604dce8043e94cd8c7ba9a5c9e07207076e4e6f50062130",
          "blockNumber": "0x21c3fc6",
          "blockTimestamp": "0x69bc2979",
          "transactionHash": "0x9035e696638765c91e2d42a2366122ae11ab928fac2225036fbfed71eea85274",
          "transactionIndex": "0x0",
          "logIndex": "0x6",
          "removed": false
        },
        {
          "address": "0x0ef55f486e186c250a2b7cdc2c27ed4e2eea09e1",
          "topics": [
            "0xddf252ad1be2c89b69c2b068fc378daa952ba7f163c4a11628f55a4df523b3ef",
            "0x0000000000000000000000000000000000000000000000000000000000000000",
            "0x0000000000000000000000000ef55f486e186c250a2b7cdc2c27ed4e2eea09e1",
            "0x0000000000000000000000000000000000000000000000000000000000000007"
          ],
          "data": "0x",
          "blockHash": "0x7c891f7eeee4dc559604dce8043e94cd8c7ba9a5c9e07207076e4e6f50062130",
          "blockNumber": "0x21c3fc6",
          "blockTimestamp": "0x69bc2979",
          "transactionHash": "0x9035e696638765c91e2d42a2366122ae11ab928fac2225036fbfed71eea85274",
          "transactionIndex": "0x0",
          "logIndex": "0x7",
          "removed": false
        },
        {
          "address": "0x0ef55f486e186c250a2b7cdc2c27ed4e2eea09e1",
          "topics": [
            "0xddf252ad1be2c89b69c2b068fc378daa952ba7f163c4a11628f55a4df523b3ef",
            "0x0000000000000000000000000000000000000000000000000000000000000000",
            "0x0000000000000000000000000ef55f486e186c250a2b7cdc2c27ed4e2eea09e1",
            "0x0000000000000000000000000000000000000000000000000000000000000008"
          ],
          "data": "0x",
          "blockHash": "0x7c891f7eeee4dc559604dce8043e94cd8c7ba9a5c9e07207076e4e6f50062130",
          "blockNumber": "0x21c3fc6",
          "blockTimestamp": "0x69bc2979",
          "transactionHash": "0x9035e696638765c91e2d42a2366122ae11ab928fac2225036fbfed71eea85274",
          "transactionIndex": "0x0",
          "logIndex": "0x8",
          "removed": false
        },
        {
          "address": "0x0ef55f486e186c250a2b7cdc2c27ed4e2eea09e1",
          "topics": [
            "0xddf252ad1be2c89b69c2b068fc378daa952ba7f163c4a11628f55a4df523b3ef",
            "0x0000000000000000000000000000000000000000000000000000000000000000",
            "0x0000000000000000000000000ef55f486e186c250a2b7cdc2c27ed4e2eea09e1",
            "0x0000000000000000000000000000000000000000000000000000000000000009"
          ],
          "data": "0x",
          "blockHash": "0x7c891f7eeee4dc559604dce8043e94cd8c7ba9a5c9e07207076e4e6f50062130",
          "blockNumber": "0x21c3fc6",
          "blockTimestamp": "0x69bc2979",
          "transactionHash": "0x9035e696638765c91e2d42a2366122ae11ab928fac2225036fbfed71eea85274",
          "transactionIndex": "0x0",
          "logIndex": "0x9",
          "removed": false
        },
        {
          "address": "0x0000000000000000000000000000000000001010",
          "topics": [
            "0x4dfe1bbbcf077ddc3e01291eea2d5c70c2b422b415d95645b9adcfd678cb1d63",
            "0x0000000000000000000000000000000000000000000000000000000000001010",
            "0x0000000000000000000000008de56f797ff4aa43224ac277f04d595a30f782d6",
            "0x0000000000000000000000007ee41d8a25641000661b1ef5e6ae8a00400466b0"
          ],
          "data": "0x00000000000000000000000000000000000000000000000003b7d68a9461bf7600000000000000000000000000000000000000000000000459a0164a72932469000000000000000000000000000000000000000000002f52bea4a93bf718eb0800000000000000000000000000000000000000000000000455e83fbfde3164f3000000000000000000000000000000000000000000002f52c25c7fc68b7aaa7e",
          "blockHash": "0x7c891f7eeee4dc559604dce8043e94cd8c7ba9a5c9e07207076e4e6f50062130",
          "blockNumber": "0x21c3fc6",
          "blockTimestamp": "0x69bc2979",
          "transactionHash": "0x9035e696638765c91e2d42a2366122ae11ab928fac2225036fbfed71eea85274",
          "transactionIndex": "0x0",
          "logIndex": "0xa",
          "removed": false
        }
      ],
      "logsBloom": "0x04000000000000000000000000000000000000000000000000000000004000000000000000001000000000000000000000009000020480000000000000240000000030000000000000000008000000800000000000040000000100000000000008000000020000000400000000000800000000000000800080000810000000000080000400000000020000000400001000001800000000000000000000000000200000000000000000000100000000000000000000800000002000080000404040000002000000000001000000000000000000408000000000100100004060080000000000000000000000000000000000000000008000040000000000900020",
      "type": "0x2",
      "transactionHash": "0x9035e696638765c91e2d42a2366122ae11ab928fac2225036fbfed71eea85274",
      "transactionIndex": "0x0",
      "blockHash": "0x7c891f7eeee4dc559604dce8043e94cd8c7ba9a5c9e07207076e4e6f50062130",
      "blockNumber": "0x21c3fc6",
      "gasUsed": "0x3575f2",
      "effectiveGasPrice": "0x11cdef8992",
      "from": "0x8de56f797ff4aa43224ac277f04d595a30f782d6",
      "to": "0x0ef55f486e186c250a2b7cdc2c27ed4e2eea09e1",
      "contractAddress": null
    },
    {
      "status": "0x1",
      "cumulativeGasUsed": "0x554483",
      "logs": [
        {
          "address": "0xe4b69fe41761050b662c56bb75e045fd9621f22f",
          "topics": [
            "0x8be0079c531659141344cd1fd0a4f28419497f9722a3daafe3b4186f6b6457e0",
            "0x0000000000000000000000000000000000000000000000000000000000000000",
            "0x0000000000000000000000008de56f797ff4aa43224ac277f04d595a30f782d6"
          ],
          "data": "0x",
          "blockHash": "0x7c891f7eeee4dc559604dce8043e94cd8c7ba9a5c9e07207076e4e6f50062130",
          "blockNumber": "0x21c3fc6",
          "blockTimestamp": "0x69bc2979",
          "transactionHash": "0x61b1ed0bdf19be6c226631e935d432dc4ce244f3036a2f89694a23d8c1570df0",
          "transactionIndex": "0x1",
          "logIndex": "0xb",
          "removed": false
        },
        {
          "address": "0x0000000000000000000000000000000000001010",
          "topics": [
            "0x4dfe1bbbcf077ddc3e01291eea2d5c70c2b422b415d95645b9adcfd678cb1d63",
            "0x0000000000000000000000000000000000000000000000000000000000001010",
            "0x0000000000000000000000008de56f797ff4aa43224ac277f04d595a30f782d6",
            "0x0000000000000000000000007ee41d8a25641000661b1ef5e6ae8a00400466b0"
          ],
          "data": "0x00000000000000000000000000000000000000000000000002364dce063a920300000000000000000000000000000000000000000000000455e83fbfd1095e65000000000000000000000000000000000000000000002f52c25c7fc68b7aaa7e00000000000000000000000000000000000000000000000453b1f1f1cacecc62000000000000000000000000000000000000000000002f52c492cd9491b53c81",
          "blockHash": "0x7c891f7eeee4dc559604dce8043e94cd8c7ba9a5c9e07207076e4e6f50062130",
          "blockNumber": "0x21c3fc6",
          "blockTimestamp": "0x69bc2979",
          "transactionHash": "0x61b1ed0bdf19be6c226631e935d432dc4ce244f3036a2f89694a23d8c1570df0",
          "transactionIndex": "0x1",
          "logIndex": "0xc",
          "removed": false
        }
      ],
      "logsBloom": "0x00000000000000000000000000000000000000000000000000800000004000000000000000000000000000000000000000008000000000000000000000000000000000000000000000000000000000800001000000000000000100000000000000000000020000000400000200000800000000000000000080000000000000400000000000000000020000000400000000000000000000000000000000000000200000000000000000000000000000000000000000000000000000000000004000000000000000000001000000000000002000400000000000100000004020000000000000000000000000000000000000000000000000000000000000100004",
      "type": "0x2",
      "transactionHash": "0x61b1ed0bdf19be6c226631e935d432dc4ce244f3036a2f89694a23d8c1570df0",
      "transactionIndex": "0x1",
      "blockHash": "0x7c891f7eeee4dc559604dce8043e94cd8c7ba9a5c9e07207076e4e6f50062130",
      "blockNumber": "0x21c3fc6",
      "gasUsed": "0x1fce91",
      "effectiveGasPrice": "0x11cdef8992",
      "from": "0x8de56f797ff4aa43224ac277f04d595a30f782d6",
      "to": null,
      "contractAddress": "0xe4b69fe41761050b662c56bb75e045fd9621f22f"
    },
    {
      "status": "0x1",
      "cumulativeGasUsed": "0x5f2fa3",
      "logs": [
        {
          "address": "0xe4b69fe41761050b662c56bb75e045fd9621f22f",
          "topics": [
            "0xddf252ad1be2c89b69c2b068fc378daa952ba7f163c4a11628f55a4df523b3ef",
            "0x0000000000000000000000000000000000000000000000000000000000000000",
            "0x000000000000000000000000e4b69fe41761050b662c56bb75e045fd9621f22f",
            "0x0000000000000000000000000000000000000000000000000000000000000000"
          ],
          "data": "0x",
          "blockHash": "0x7c891f7eeee4dc559604dce8043e94cd8c7ba9a5c9e07207076e4e6f50062130",
          "blockNumber": "0x21c3fc6",
          "blockTimestamp": "0x69bc2979",
          "transactionHash": "0x9dcb81ce0ea01f3136fc03cf8b35e293a437a58ba8c91aac69948d6e5ee704a0",
          "transactionIndex": "0x2",
          "logIndex": "0xd",
          "removed": false
        },
        {
          "address": "0xe4b69fe41761050b662c56bb75e045fd9621f22f",
          "topics": [
            "0xddf252ad1be2c89b69c2b068fc378daa952ba7f163c4a11628f55a4df523b3ef",
            "0x0000000000000000000000000000000000000000000000000000000000000000",
            "0x000000000000000000000000e4b69fe41761050b662c56bb75e045fd9621f22f",
            "0x0000000000000000000000000000000000000000000000000000000000000001"
          ],
          "data": "0x",
          "blockHash": "0x7c891f7eeee4dc559604dce8043e94cd8c7ba9a5c9e07207076e4e6f50062130",
          "blockNumber": "0x21c3fc6",
          "blockTimestamp": "0x69bc2979",
          "transactionHash": "0x9dcb81ce0ea01f3136fc03cf8b35e293a437a58ba8c91aac69948d6e5ee704a0",
          "transactionIndex": "0x2",
          "logIndex": "0xe",
          "removed": false
        },
        {
          "address": "0xe4b69fe41761050b662c56bb75e045fd9621f22f",
          "topics": [
            "0xddf252ad1be2c89b69c2b068fc378daa952ba7f163c4a11628f55a4df523b3ef",
            "0x0000000000000000000000000000000000000000000000000000000000000000",
            "0x000000000000000000000000e4b69fe41761050b662c56bb75e045fd9621f22f",
            "0x0000000000000000000000000000000000000000000000000000000000000002"
          ],
          "data": "0x",
          "blockHash": "0x7c891f7eeee4dc559604dce8043e94cd8c7ba9a5c9e07207076e4e6f50062130",
          "blockNumber": "0x21c3fc6",
          "blockTimestamp": "0x69bc2979",
          "transactionHash": "0x9dcb81ce0ea01f3136fc03cf8b35e293a437a58ba8c91aac69948d6e5ee704a0",
          "transactionIndex": "0x2",
          "logIndex": "0xf",
          "removed": false
        },
        {
          "address": "0xe4b69fe41761050b662c56bb75e045fd9621f22f",
          "topics": [
            "0xddf252ad1be2c89b69c2b068fc378daa952ba7f163c4a11628f55a4df523b3ef",
            "0x0000000000000000000000000000000000000000000000000000000000000000",
            "0x000000000000000000000000e4b69fe41761050b662c56bb75e045fd9621f22f",
            "0x0000000000000000000000000000000000000000000000000000000000000003"
          ],
          "data": "0x",
          "blockHash": "0x7c891f7eeee4dc559604dce8043e94cd8c7ba9a5c9e07207076e4e6f50062130",
          "blockNumber": "0x21c3fc6",
          "blockTimestamp": "0x69bc2979",
          "transactionHash": "0x9dcb81ce0ea01f3136fc03cf8b35e293a437a58ba8c91aac69948d6e5ee704a0",
          "transactionIndex": "0x2",
          "logIndex": "0x10",
          "removed": false
        },
        {
          "address": "0xe4b69fe41761050b662c56bb75e045fd9621f22f",
          "topics": [
            "0xddf252ad1be2c89b69c2b068fc378daa952ba7f163c4a11628f55a4df523b3ef",
            "0x0000000000000000000000000000000000000000000000000000000000000000",
            "0x000000000000000000000000e4b69fe41761050b662c56bb75e045fd9621f22f",
            "0x0000000000000000000000000000000000000000000000000000000000000004"
          ],
          "data": "0x",
          "blockHash": "0x7c891f7eeee4dc559604dce8043e94cd8c7ba9a5c9e07207076e4e6f50062130",
          "blockNumber": "0x21c3fc6",
          "blockTimestamp": "0x69bc2979",
          "transactionHash": "0x9dcb81ce0ea01f3136fc03cf8b35e293a437a58ba8c91aac69948d6e5ee704a0",
          "transactionIndex": "0x2",
          "logIndex": "0x11",
          "removed": false
        },
        {
          "address": "0xe4b69fe41761050b662c56bb75e045fd9621f22f",
          "topics": [
            "0xddf252ad1be2c89b69c2b068fc378daa952ba7f163c4a11628f55a4df523b3ef",
            "0x0000000000000000000000000000000000000000000000000000000000000000",
            "0x000000000000000000000000e4b69fe41761050b662c56bb75e045fd9621f22f",
            "0x0000000000000000000000000000000000000000000000000000000000000005"
          ],
          "data": "0x",
          "blockHash": "0x7c891f7eeee4dc559604dce8043e94cd8c7ba9a5c9e07207076e4e6f50062130",
          "blockNumber": "0x21c3fc6",
          "blockTimestamp": "0x69bc2979",
          "transactionHash": "0x9dcb81ce0ea01f3136fc03cf8b35e293a437a58ba8c91aac69948d6e5ee704a0",
          "transactionIndex": "0x2",
          "logIndex": "0x12",
          "removed": false
        },
        {
          "address": "0xe4b69fe41761050b662c56bb75e045fd9621f22f",
          "topics": [
            "0xddf252ad1be2c89b69c2b068fc378daa952ba7f163c4a11628f55a4df523b3ef",
            "0x0000000000000000000000000000000000000000000000000000000000000000",
            "0x000000000000000000000000e4b69fe41761050b662c56bb75e045fd9621f22f",
            "0x0000000000000000000000000000000000000000000000000000000000000006"
          ],
          "data": "0x",
          "blockHash": "0x7c891f7eeee4dc559604dce8043e94cd8c7ba9a5c9e07207076e4e6f50062130",
          "blockNumber": "0x21c3fc6",
          "blockTimestamp": "0x69bc2979",
          "transactionHash": "0x9dcb81ce0ea01f3136fc03cf8b35e293a437a58ba8c91aac69948d6e5ee704a0",
          "transactionIndex": "0x2",
          "logIndex": "0x13",
          "removed": false
        },
        {
          "address": "0xe4b69fe41761050b662c56bb75e045fd9621f22f",
          "topics": [
            "0xddf252ad1be2c89b69c2b068fc378daa952ba7f163c4a11628f55a4df523b3ef",
            "0x0000000000000000000000000000000000000000000000000000000000000000",
            "0x000000000000000000000000e4b69fe41761050b662c56bb75e045fd9621f22f",
            "0x0000000000000000000000000000000000000000000000000000000000000007"
          ],
          "data": "0x",
          "blockHash": "0x7c891f7eeee4dc559604dce8043e94cd8c7ba9a5c9e07207076e4e6f50062130",
          "blockNumber": "0x21c3fc6",
          "blockTimestamp": "0x69bc2979",
          "transactionHash": "0x9dcb81ce0ea01f3136fc03cf8b35e293a437a58ba8c91aac69948d6e5ee704a0",
          "transactionIndex": "0x2",
          "logIndex": "0x14",
          "removed": false
        },
        {
          "address": "0x0000000000000000000000000000000000001010",
          "topics": [
            "0x4dfe1bbbcf077ddc3e01291eea2d5c70c2b422b415d95645b9adcfd678cb1d63",
            "0x0000000000000000000000000000000000000000000000000000000000001010",
            "0x0000000000000000000000008de56f797ff4aa43224ac277f04d595a30f782d6",
            "0x0000000000000000000000007ee41d8a25641000661b1ef5e6ae8a00400466b0"
          ],
          "data": "0x00000000000000000000000000000000000000000000000000b097b074eb5b6000000000000000000000000000000000000000000000000453b1f1f1c2faf6b3000000000000000000000000000000000000000000002f52c492cd9491b53c8100000000000000000000000000000000000000000000000453015a414e0f9b53000000000000000000000000000000000000000000002f52c543654506a097e1",
          "blockHash": "0x7c891f7eeee4dc559604dce8043e94cd8c7ba9a5c9e07207076e4e6f50062130",
          "blockNumber": "0x21c3fc6",
          "blockTimestamp": "0x69bc2979",
          "transactionHash": "0x9dcb81ce0ea01f3136fc03cf8b35e293a437a58ba8c91aac69948d6e5ee704a0",
          "transactionIndex": "0x2",
          "logIndex": "0x15",
          "removed": false
        }
      ],
      "logsBloom": "0x04000000000000000000000000000000000000000000000000000000004000000000080000000000000000000000000000009000020400000000000000040000000030000000000000000008000000800000000000042000000100000000000008000000020000000400000200000800000000004000000080000010000000000000000400000000020000000400001000000800000000000000000000000000200000000000000000000100000000000000000000800000002000080000404000000002000000000001000000000000002000408000000000100100004060000000000000000000000000000000000000000000008000000000000000100004",
      "type": "0x2",
      "transactionHash": "0x9dcb81ce0ea01f3136fc03cf8b35e293a437a58ba8c91aac69948d6e5ee704a0",
      "transactionIndex": "0x2",
      "blockHash": "0x7c891f7eeee4dc559604dce8043e94cd8c7ba9a5c9e07207076e4e6f50062130",
      "blockNumber": "0x21c3fc6",
      "gasUsed": "0x9eb20",
      "effectiveGasPrice": "0x11cdef8992",
      "from": "0x8de56f797ff4aa43224ac277f04d595a30f782d6",
      "to": "0xe4b69fe41761050b662c56bb75e045fd9621f22f",
      "contractAddress": null
    },
    {
      "status": "0x1",
      "cumulativeGasUsed": "0x5fe455",
      "logs": [
        {
          "address": "0x0000000000000000000000000000000000001010",
          "topics": [
            "0x4dfe1bbbcf077ddc3e01291eea2d5c70c2b422b415d95645b9adcfd678cb1d63",
            "0x0000000000000000000000000000000000000000000000000000000000001010",
            "0x0000000000000000000000008de56f797ff4aa43224ac277f04d595a30f782d6",
            "0x0000000000000000000000007ee41d8a25641000661b1ef5e6ae8a00400466b0"
          ],
          "data": "0x000000000000000000000000000000000000000000000000000c912d9d1bd7b600000000000000000000000000000000000000000000000453015a414b9ebe73000000000000000000000000000000000000000000002f52c543654506a097e100000000000000000000000000000000000000000000000452f4c913ae82e6bd000000000000000000000000000000000000000000002f52c54ff672a3bc6f97",
          "blockHash": "0x7c891f7eeee4dc559604dce8043e94cd8c7ba9a5c9e07207076e4e6f50062130",
          "blockNumber": "0x21c3fc6",
          "blockTimestamp": "0x69bc2979",
          "transactionHash": "0x3425e42ffca6c03e2a55839f3e9992fd6384af4e42528842eccc4ebc2f039683",
          "transactionIndex": "0x3",
          "logIndex": "0x16",
          "removed": false
        }
      ],
      "logsBloom": "0x00000000000000000000000000000000000000000000000000000000004000000000000000000000000000000000000000008000000000000000000000000000000000000000000000000000000000800000000000000000000100000000000000000000000000000400000000000000000000000000000080000000000000000000000000000000020000000400000000000000000000000000000000000000200000000000000000000000000000000000000000000000000000000000004000000000000000000001000000000000000000400000000000100000004000000000000000000000000000000000000000000000000000000000000000100000",
      "type": "0x2",
      "transactionHash": "0x3425e42ffca6c03e2a55839f3e9992fd6384af4e42528842eccc4ebc2f039683",
      "transactionIndex": "0x3",
      "blockHash": "0x7c891f7eeee4dc559604dce8043e94cd8c7ba9a5c9e07207076e4e6f50062130",
      "blockNumber": "0x21c3fc6",
      "gasUsed": "0xb4b2",
      "effectiveGasPrice": "0x11cdef8992",
      "from": "0x8de56f797ff4aa43224ac277f04d595a30f782d6",
      "to": "0xe4b69fe41761050b662c56bb75e045fd9621f22f",
      "contractAddress": null
    },
    {
      "status": "0x1",
      "cumulativeGasUsed": "0x6056a3",
      "logs": [
        {
          "address": "0x0000000000000000000000000000000000001010",
          "topics": [
            "0x4dfe1bbbcf077ddc3e01291eea2d5c70c2b422b415d95645b9adcfd678cb1d63",
            "0x0000000000000000000000000000000000000000000000000000000000001010",
            "0x0000000000000000000000008de56f797ff4aa43224ac277f04d595a30f782d6",
            "0x0000000000000000000000007ee41d8a25641000661b1ef5e6ae8a00400466b0"
          ],
          "data": "0x0000000000000000000000000000000000000000000000000007f3216a22cd4a00000000000000000000000000000000000000000000000452f4c913ae566eef000000000000000000000000000000000000000000002f52c54ff672a3bc6f9700000000000000000000000000000000000000000000000452ecd5f24433a1a5000000000000000000000000000000000000000000002f52c557e9940ddf3ce1",
          "blockHash": "0x7c891f7eeee4dc559604dce8043e94cd8c7ba9a5c9e07207076e4e6f50062130",
          "blockNumber": "0x21c3fc6",
          "blockTimestamp": "0x69bc2979",
          "transactionHash": "0x60ba3291ed02cdca417b70fb2af4a9c4e99294253ab3cbc42d3d70bcb7a9f1cb",
          "transactionIndex": "0x4",
          "logIndex": "0x17",
          "removed": false
        }
      ],
      "logsBloom": "0x00000000000000000000000000000000000000000000000000000000004000000000000000000000000000000000000000008000000000000000000000000000000000000000000000000000000000800000000000000000000100000000000000000000000000000400000000000000000000000000000080000000000000000000000000000000020000000400000000000000000000000000000000000000200000000000000000000000000000000000000000000000000000000000004000000000000000000001000000000000000000400000000000100000004000000000000000000000000000000000000000000000000000000000000000100000",
      "type": "0x2",
      "transactionHash": "0x60ba3291ed02cdca417b70fb2af4a9c4e99294253ab3cbc42d3d70bcb7a9f1cb",
      "transactionIndex": "0x4",
      "blockHash": "0x7c891f7eeee4dc559604dce8043e94cd8c7ba9a5c9e07207076e4e6f50062130",
      "blockNumber": "0x21c3fc6",
      "gasUsed": "0x724e",
      "effectiveGasPrice": "0x11cdef8992",
      "from": "0x8de56f797ff4aa43224ac277f04d595a30f782d6",
      "to": "0x3c3d2552bbdfeea59c85b619a24afe2472c69945",
      "contractAddress": null
    },
    {
      "status": "0x1",
      "cumulativeGasUsed": "0x60c82b",
      "logs": [
        {
          "address": "0x0000000000000000000000000000000000001010",
          "topics": [
            "0x4dfe1bbbcf077ddc3e01291eea2d5c70c2b422b415d95645b9adcfd678cb1d63",
            "0x0000000000000000000000000000000000000000000000000000000000001010",
            "0x0000000000000000000000008de56f797ff4aa43224ac277f04d595a30f782d6",
            "0x0000000000000000000000007ee41d8a25641000661b1ef5e6ae8a00400466b0"
          ],
          "data": "0x0000000000000000000000000000000000000000000000000007e55c22de971800000000000000000000000000000000000000000000000452ecd5f244178073000000000000000000000000000000000000000000002f52c557e9940ddf3ce100000000000000000000000000000000000000000000000452e4f0962138e95b000000000000000000000000000000000000000000002f52c55fcef030bdd3f9",
          "blockHash": "0x7c891f7eeee4dc559604dce8043e94cd8c7ba9a5c9e07207076e4e6f50062130",
          "blockNumber": "0x21c3fc6",
          "blockTimestamp": "0x69bc2979",
          "transactionHash": "0xff62edfe4ad916a40a970776235e5e677f10ffa23c71b7e1450759dfab68e8b3",
          "transactionIndex": "0x5",
          "logIndex": "0x18",
          "removed": false
        }
      ],
      "logsBloom": "0x00000000000000000000000000000000000000000000000000000000004000000000000000000000000000000000000000008000000000000000000000000000000000000000000000000000000000800000000000000000000100000000000000000000000000000400000000000000000000000000000080000000000000000000000000000000020000000400000000000000000000000000000000000000200000000000000000000000000000000000000000000000000000000000004000000000000000000001000000000000000000400000000000100000004000000000000000000000000000000000000000000000000000000000000000100000",
      "type": "0x2",
      "transactionHash": "0xff62edfe4ad916a40a970776235e5e677f10ffa23c71b7e1450759dfab68e8b3",
      "transactionIndex": "0x5",
      "blockHash": "0x7c891f7eeee4dc559604dce8043e94cd8c7ba9a5c9e07207076e4e6f50062130",
      "blockNumber": "0x21c3fc6",
      "gasUsed": "0x7188",
      "effectiveGasPrice": "0x11cdef8992",
      "from": "0x8de56f797ff4aa43224ac277f04d595a30f782d6",
      "to": "0x3c3d2552bbdfeea59c85b619a24afe2472c69945",
      "contractAddress": null
    }
  ],
  "libraries": [],
  "pending": [],
  "returns": {},
  "timestamp": 1773939066807,
  "chain": 80002,
  "commit": "d9c2b41"
}