{
  "transactions": [
    {
      "hash": "0xfa29b711acae51ec3ad1c35b7f356d91ebe8c456c263f629753c6d644d514563",
      "transactionType": "CREATE",
      "contractName": "ClawArena",
      "contractAddress": "0x64c467feafed4592537ce33ae52228b936c5d84a",
      "function": null,
      "arguments": [
        "0x72eEA00e0b9652Db2D8d2Eb4b72eadEBA76440Bd",
        "0x429862F1fBd621D15C48f1E16E6301f322e7CCAe"
      ],
      "transaction": {
        "from": "0x8de56f797ff4aa43224ac277f04d595a30f782d6",
        "gas": "0x3f6cde",
        "value": "0x0",
        "input": "0x6080346100fd57601f61383d38819003918201601f19168301916001600160401b038311848410176101015780849260409485528339810103126100fd57610052602061004b83610115565b9201610115565b33156100ea575f8054336001600160a01b0319821681178355604051946001949390926001600160a01b0316907f8be0079c531659141344cd1fd0a4f28419497f9722a3daafe3b4186f6b6457e09080a382805560025491838060a01b0316838060a01b03196003541617600355620100008360b01b039060101b169061ff018360b01b0319161717600255613713908161012a8239f35b631e4fbdf760e01b5f525f60045260245ffd5b5f80fd5b634e487b7160e01b5f52604160045260245ffd5b51906001600160a01b03821682036100fd5756fe6101e0806040526004361015610013575f80fd5b5f3560e01c9081630251838414612c2c5750806303398873146129a5578063072ea61c146129835780630800e3a21461293f5780632752398d146128a3578063334d8de31461287b57806334cb68c8146128405780633a7fb595146127fc5780633e04bf15146127d85780633f4ba83a146127b35780634b34d1b4146126a85780635a5c69d61461265e5780635c12cd4b146124635780635c975abb1461243e5780636d763a6e1461213b578063715018a6146120f757806379c4264b146120d45780637eef78fc1461209a578063809d38201461205757806383bc8d75146120145780638456cb5914611feb5780638da5cb5b14611fc4578063978d4e7e14611f0e5780639943c3a514611ed05780639ce67bdd14611e95578063a5951aa014611d69578063aa3491b714611d41578063af137ca814611d0b578063ba3823a614610902578063bcb39621146108e2578063be5957d71461084d578063bebd607a14610821578063c5886fbd14610775578063ccd793821461061b578063d73f3b39146104b9578063d8fa273814610491578063e18d38ce1461044d578063e2eb41ff14610362578063f2fde38b146102f0578063f4381364146102015763f60cdcf6146101e0575f80fd5b346101fd575f3660031901126101fd576020600654604051908152f35b5f80fd5b346101fd5760403660031901126101fd5761021a612c55565b610222612c96565b6004546001600160a01b0316331415806102d5575b806102c1575b6102b35760ff811661027257506001600160a01b03165f90815260056020526040902060090180546001600160f81b03169055005b6001600160a01b039091165f908152600560205260409020600901805460f89290921b6001600160f81b0319166001600160f81b0392909216919091179055005b6282b42960e81b5f5260045ffd5b505f546001600160a01b031633141561023d565b506002543360109190911c6001600160a01b03161415610237565b346101fd5760203660031901126101fd57610309612c55565b610311613084565b6001600160a01b0316801561034f575f80546001600160a01b03198116831782556001600160a01b0316905f5160206136be5f395f51905f529080a3005b631e4fbdf760e01b5f525f60045260245ffd5b346101fd5760203660031901126101fd576001600160a01b03610383612c55565b165f5260056020526101c060405f20805460801b906001810154906002810154600382015463ffffffff60ff600485015416600585015460068601545f0b600787015491600888015493600989015496600a8a01549866ffffffffffffff600c600b8d01549c0154169b60206040519e8f9060018060801b0319168152015260408d015260608c015260808b015260a08a015260c089015260e088015281811661010088015260201c166101208601526101408501526101608401526101808301526101a0820152f35b346101fd5760203660031901126101fd576001600160a01b0361046e612c55565b165f526005602052602060405f205460801b6040519060018060801b0319168152f35b346101fd575f3660031901126101fd57604b546040516001600160a01b039091168152602090f35b346101fd5760603660031901126101fd576104d2612c55565b6024359063ffffffff8216908183036101fd576104ed612ca6565b9291156105f6575b505f9063ffffffff815b1691821515806105e7575b156105345761051890612e18565b915f52600860205263ffffffff8060405f205460201c166104ff565b60ff1661054081612e5f565b9061054a81612e91565b92905f915b60ff8316828110156105d4578063ffffffff61056e6105b19388612eec565b9316809352825f52600860205260405f2063ffffffff6040519161059183612d73565b54818116835260201c1660208201526105aa8289612eec565b5286612eec565b505f52600860205260ff600163ffffffff60405f205460201c169301169161054f565b604051806105e3888883612cb6565b0390f35b5060ff841660ff82161061050a565b6001600160a01b03165f9081526009602052604090205463ffffffff169050826104f5565b346101fd5760203660031901126101fd5760043560ff811681036101fd5760ff6106448261305b565b90549060031b1c1690600781101590816107045760081b604c019160ff9161066d60ff85613074565b905460039190911b1c6001600160a01b03161561076c5761ffff6101005b169361069685612e48565b916106a46040519384612da9565b8583526106b086612e48565b602084019490601f19013686375f5b61ffff811688811015610718578361070457816001916106fc6106e78b61ffff961689613074565b858060a01b0391549060031b1c169189612eec565b5201166106bf565b634e487b7160e01b5f52603260045260245ffd5b858388604051916040830193604084525180945260608301915f945b80861061074957505082935060208301520390f35b81516001600160a01b031684526001959095019460209384019390910190610734565b61ffff8261068b565b346101fd5760403660031901126101fd5761078e612c55565b602435906001600160801b0319821682036101fd576004546001600160a01b031633141580610806575b806107f2575b6102b3576001600160a01b03165f90815260056020526040902080546001600160801b03191660809290921c919091179055005b505f546001600160a01b03163314156107be565b506002543360109190911c6001600160a01b031614156107b8565b346101fd575f3660031901126101fd5760025460405160109190911c6001600160a01b03168152602090f35b346101fd5760403660031901126101fd57610866612c55565b61086e612c96565b9060018060a01b0360045416331415806108c7575b806108b3575b6102b35760018060a01b03165f526005602052600160ff600560405f200192161b81541790555f80f35b505f546001600160a01b0316331415610889565b506002543360109190911c6001600160a01b03161415610883565b346101fd575f3660031901126101fd57602060ff60025416604051908152f35b60603660031901126101fd57610916612ca6565b600260015414611cfc57600260015560025460ff8160081c16611ced57335f52600560205260405f209060018060a01b038160101c166040516331a9108f60e11b81526004356004820152602081602481855afa908115610f5f575f91611cce575b506001600160a01b0316908114159081611cc3575b50611cb45760018060a01b03600354166040516331a9108f60e11b81526024356004820152602081602481855afa908115610f5f575f91611c85575b506001600160a01b0316908114159081611c7a575b50611c6c57600482019060ff80835416911611611c49575b506001821615158080611c35575b80611c2d575b611be857600283161515928380611c1b575b611be857600481161515908180611c09575b611be8576008161515918280611bf7575b611be85715611b885734611b7957600583018054600160401b191690555b63ffffffff600784015460405160208101914483524260408301523360601b6060830152607482015260748152610a95609482612da9565b519020168015611b71575b60646001850154045f608052600760805260ff610abe608051612f44565b16811015611b5c57925b60405160a052610adb60e060a051612da9565b60e03660a0513760ff5f9416955f6101c05260ff6101c0525b610afd8761305b565b6101c05191549060031b1c1660805188101561070457610b266101c0518960081b604c01613074565b905460039190911b1c6001600160a01b031615611b5757506101005b600861ffff821610611a9c5761ffff60071991160161ffff81116115735761ffff600291160161ffff81116115735761ffff811615611a8857610b9a61ffff80921663ffffffff861606607f60805160011c1661331b565b1695607f60805160011c16870361ffff8111611573575b60805161ffff60019190911c607f168901116115735761ffff607f60805160011c1689011661ffff8216111580611a73575b15610c4c576080518910156107045780610c06610c26928b60081b604c01613074565b905460039190911b1c6001600160a01b0316338103610c2b575b50613308565b610bb1565b610c45610c378a612e18565b996101c0511660a051612fc9565b528a610c20565b509550955b6101c051608051166101c051861610801590611a66575b610c7b57610c7590613335565b95610af4565b5085856101009060405160c052610c948260c051612da9565b813660c0513760405160e052610cac8260e051612da9565b813660e0513760405161014052610cc68261014051612da9565b8136610140513760405161010052610ce18261010051612da9565b813661010051376040516101a052610cfc826101a051612da9565b5f5b828110611a5457503360c0515260043560e05152602435610140515260018060a01b0360025460101c16610120526040516362e1171f60e11b81526004356004820152602081602481610120515afa908115610f5f575f91611a22575b50610100515260018060a01b036003541661016052604051631459179360e31b815260243560048201525f81602481610160515afa908115610f5f575f91611a08575b506101a051525f610180525b6101c051608051166101c05161018051161015610f9b576101c0516101805160a0516001600160a01b0392610de0921690612fc9565b511680610dff6101c051610df661018051612fda565b1660c051612f56565b52805f526005602052600a60405f200154610e2c6101c051610e2361018051612fda565b1660e051612f56565b525f526005602052600b60405f200154610e596101c051610e4f61018051612fda565b1661014051612f56565b52610e6d6101c051610e2361018051612fda565b51604051906362e1171f60e11b82526004820152602081602481610120515afa908115610f5f575f91610f6a575b50610eb96101c051610eaf61018051612fda565b1661010051612f56565b52610ecd6101c051610e4f61018051612fda565b5160405190631459179360e31b825260048201525f81602481610160515afa8015610f5f57610f27915f91610f3d575b506101c051610f0e61018051612fda565b1690610f1d826101a051612f56565b526101a051612f56565b506101c051600161018051011661018052610daa565b610f5991503d805f833e610f518183612da9565b810190612f67565b88610efd565b6040513d5f823e3d90fd5b90506020813d8211610f93575b81610f8460209383612da9565b810103126101fd575187610e9b565b3d9150610f77565b604051632ee04c5d60e21b81526101005190949085906101448201905f600484015b600882106119ee575050610140610104840152506101a0516102448301915f5b600881106119a95750505090806105009263ffffffff8a1661012483015203817389c022ccd1086ccba07e4f83b79312369b28eb485af4948515610f5f575f956118c3575b505f9660405161103181612d8e565b5f81525f60208201525f60408201525f60608201525f60808201525f5b6101c051811660088110156118b3576101c05161106b828b612f56565b51511615611082575060016101c05191011661104e565b915061109692939495969798995097612f56565b51935b6001840154945f966001975b60086101c0518a16101561111b576110dc9060018060a01b036110cf6101c0518c1660c051612f56565b51166110ec578890612de8565b9760016101c051910116976110a5565b60018060a01b036111046101c0518c1660c051612f56565b51165f526005602052600160405f20015490612de8565b8a97506111318a916101c0516080511690612f3a565b91335f52600560205260405f20946001860192835492611150826135f3565b60010b60808801978851611893575b606001966101c0518851166002811015611861575b5061118761118187612dda565b91612dda565b915f8113156117fc57606483029280840460641490151715611573576111b26111c992606494612f3a565b90609682116117f3575b601482106117ea57613344565b0580156117e2575b8099806117d9575b6117a9575b50806117a0575b611789575b5f88139283156117165750611200888554612de8565b84555b61ffff61120f8261365d565b16986116e9575b600287016112258a8254612de8565b90556101c05185511692156116bd576008870163ffffffff61124981835416613021565b825463ffffffff191691161790556003870180545f811290811590826116b25760010191600183129081151691161761157357905b555b60805187019485541561169f575b6112988654612dcc565b86556112bb6112b560088a019563ffffffff875460201c1661331b565b85613038565b6009600389019889545f81139081611689575b50611646575b01968754600181179754906064821015611639575b506103e8111561162f575b51611625575b6101c051905116600381101561161a575b60051115611610575b6101c05116958615611606575b5490600a8212156115fc575b5060328112156115f0575b606413156115e5575b5463ffffffff8160201c1660648110156115da575b6101f48110156115ce575b6103e811156115c2575b63ffffffff16600a8110156115b6575b60648110156115a9575b6103e8111561159d575b549560648704806101c0516113a5608051612f44565b1610611587575b60018101809111611573576001901b5f1981019081116115735761ffff976064946001946113e09360c81b17905533613366565b600435600a820155602435600b8201550154046101c051611402608051612f44565b1681101561155a5761141a905b6101c0511633613208565b63ffffffff60405195168552602085015260010b60408401521660608201526080810160c051905f905b6008821061153a578361145d610180820160e051612ffa565b61146e610280820161014051612ffa565b7f3052d80a3839b2c5f144988a5cc0935093ca5d2c04d48ff371f73ebd3cca81fb6103803392a26115096080515463ffffffff6114ac818316613021565b16809163ffffffff19161760805155335f52600960205263ffffffff8060405f205416604051926114dc84612d73565b8243168452602084019182525f526008602052818060405f20945116168219845416178355511690613038565b63ffffffff6080515416335f52600960205263ffffffff60405f20911663ffffffff19825416179055600180555f80f35b82516001600160a01b031681526020928301926001929092019101611444565b5061141a6101c05161156d608051612f44565b1661140f565b634e487b7160e01b5f52601160045260245ffd5b506101c051611597608051612f44565b166113ac565b9062040000179061138f565b6202000090921791611385565b9162010000179161137b565b6180009092179161136b565b61400090931792611361565b926120001792611356565b916104001791611341565b61020090931792611338565b909317928a61132d565b9360401793611321565b9360201793611314565b60109095179461130b565b94600817946112fa565b95600417956112f4565b60031797506103e86112e9565b604b80546001600160a01b031981163390811783558c546001600160b01b031990921661ffff60a01b199091161760a09190911b61ffff60a01b161790556112d4565b905061ffff80604b5460a01c169116118f6112ce565b6116aa600654612dcc565b60065561128e565b50505060019061127e565b6003870180545f81136116e0575f19810190811360011661157357905b55611280565b505f19906116da565b9760968102908082046096149015171561157357600587018054600160431b191690556064900497611216565b5f8912611724575b50611203565b600160ff1b891461157357885f0360648204916064830292808404606414901517156115735781811161175e575050505f84555b8b61171e565b826117698383612e29565b10156117785750508455611758565b6117829250612e29565b8455611758565b600587018054600160411b191690555f97506111ea565b505f88126111e5565b90985060968102908082056096149015171561157357600588018054600160421b1916905560649005978c6111de565b505f81136111d9565b5060016111d1565b60149150613344565b609691506111bc565b915f831261180c575b50506111d1565b90916064830292808404606414901517156115735761183061184792606494612f3a565b9060c88211611858575b6032821061184f57613344565b058d80611805565b60329150613344565b60c8915061183a565b9091600582029180830560051490151715611573575f828201928312911290801582169115161761157357908e611174565b90600a8101905f600a83129112908015821691151617611573579061115f565b5050949550909192969596611099565b9094506105003d81116119a2575b6118db8183612da9565b8101610500828203126101fd5780601f830112156101fd57604051916119018584612da9565b82916105008201918183116101fd57925b82841061192457505050509387611022565b60a0848303126101fd576040519061193b82612d8e565b61194485612fec565b825261195260208601612fec565b6020830152604085015161ffff811681036101fd57604083015261197860608601612fec565b606083015260808501519081151582036101fd5782602092608060a0950152815201930192611912565b503d6118d1565b9193509160208080600193610143198d82030187528188518051918291828552018484015e5f838284010152601f801991011601019501930191019088939291610fdd565b825181528994506020928301926001929092019101610fbd565b611a1c91503d805f833e610f518183612da9565b87610d9e565b90506020813d602011611a4c575b81611a3d60209383612da9565b810103126101fd575187610d5b565b3d9150611a30565b8060606020926101a051015201610cfe565b506101c051811615610c68565b506101c051608051166101c051881610610be3565b634e487b7160e01b5f52601260045260245ffd5b61ffff8198929816611aaf575b50610c51565b909690955f5b61ffff881661ffff82161080611b42575b15611b385760805189101561070457611b1061ffff91611af16101c05182168c60081b604c01613074565b905460039190911b1c6001600160a01b0316338103611b175750613308565b9050611ab5565b611b31611b238b612e18565b9a6101c0511660a051612fc9565b528b610c20565b5095509587611aa9565b506101c051608051166101c051881610611ac6565b610b42565b5060ff611b6a608051612f44565b1692610ac8565b506001610aa0565b634d0419db60e11b5f5260045ffd5b670de0b6b3a76400003403611b79575f8080803460018060a01b038254165af13d15611be3573d611bb881612f1f565b90611bc66040519283612da9565b81525f60203d92013e5b610a5d576312171d8360e31b5f5260045ffd5b611bd0565b630d5efa9960e01b5f5260045ffd5b506005840154600160431b1615610a3f565b506005840154600160421b1615610a2e565b506005830154600160411b1615610a1c565b508015610a0a565b6005830154600160401b1615159150610a04565b5f60018301555f600383015560ff80600254161660ff19825416179055826109f6565b622d261b60e31b5f5260045ffd5b9050331415846109de565b611ca7915060203d602011611cad575b611c9f8183612da9565b810190612f00565b856109c9565b503d611c95565b63164f80dd60e11b5f5260045ffd5b90503314158461098d565b611ce7915060203d602011611cad57611c9f8183612da9565b85610978565b6313d0ff5960e31b5f5260045ffd5b633ee5aeb560e01b5f5260045ffd5b346101fd5760203660031901126101fd5760043560208110156101fd57600a01546040516001600160a01b039091168152602090f35b346101fd575f3660031901126101fd576003546040516001600160a01b039091168152602090f35b346101fd5760403660031901126101fd57611d82612c6b565b611d8a612c96565b63ffffffff82168015908115611e83575b50611e73575b815f5b63ffffffff8416151580611e64575b15611dd057611dc4611dca91612e18565b93612e36565b92611da4565b60ff16611ddc81612e5f565b90611de681612e91565b92905f915b60ff831690828210156105d457611e5b600191611e5584611e0e60ff968a612eec565b63ffffffff84168091525f52600860205260405f2063ffffffff60405191611e3583612d73565b54818116835260201c166020820152611e4e828c612eec565b5289612eec565b50612e36565b93011691611deb565b5060ff831660ff821610611db3565b60075463ffffffff169150611da1565b905063ffffffff600754161083611d9b565b346101fd5760203660031901126101fd576001600160a01b03611eb6612c55565b165f5260056020526020600960405f200154604051908152f35b346101fd5760203660031901126101fd576001600160a01b03611ef1612c55565b165f526009602052602063ffffffff60405f205416604051908152f35b346101fd5760403660031901126101fd57611f27612c55565b6024359060018060a01b036004541633141580611fa9575b80611f95575b6102b3576001600160a01b03165f818152600560205260409020600201548211611f86575f526005602052611f82600260405f2001918254612e29565b9055005b6376208d7360e11b5f5260045ffd5b505f546001600160a01b0316331415611f45565b506002543360109190911c6001600160a01b03161415611f3f565b346101fd575f3660031901126101fd575f546040516001600160a01b039091168152602090f35b346101fd575f3660031901126101fd57612003613084565b6002805461ff001916610100179055005b346101fd5760203660031901126101fd5761202d612c55565b612035613084565b600380546001600160a01b0319166001600160a01b0392909216919091179055005b346101fd5760203660031901126101fd57612070612c55565b612078613084565b600480546001600160a01b0319166001600160a01b0392909216919091179055005b346101fd5760203660031901126101fd5760043560208110156101fd5760ff6120c4602092612c7e565b90549060031b1c16604051908152f35b346101fd575f3660031901126101fd57602063ffffffff60075416604051908152f35b346101fd575f3660031901126101fd5761210f613084565b5f80546001600160a01b0319811682556001600160a01b03165f5160206136be5f395f51905f528280a3005b346101fd575f3660031901126101fd576104008060405161215c8282612da9565b3690378060405161216d8282612da9565b3690378060405161217e8282612da9565b36903760405190600a5f835b6020821061241e5750505061219f8183612da9565b604051602a5f825b60208210612408575050506121bc8282612da9565b60405191604a5f82855b6020601f840110612266575090506121df915084612da9565b604051935f855b602082106122465750505083015f905b602082106122305750505061080082015f905b6020821061221757610c0084f35b60208060019260ff865116815201930191019091612209565b60208060019285518152019301910190916121f6565b82516001600160a01b0316815260209283019260019290920191016121e6565b602091600191855460ff8116825260ff8160081c168583015260ff8160101c16604083015260ff8160181c16606083015260ff81861c16608083015260ff8160281c1660a083015260ff8160301c1660c083015260ff8160381c1660e083015260ff8160401c1661010083015260ff8160481c1661012083015260ff8160501c1661014083015260ff8160581c1661016083015260ff8160601c1661018083015260ff8160681c166101a083015260ff8160701c166101c083015260ff8160781c166101e083015260ff8160801c1661020083015260ff8160881c1661022083015260ff8160901c1661024083015260ff8160981c1661026083015260ff8160a01c1661028083015260ff8160a81c166102a083015260ff8160b01c166102c083015260ff8160b81c166102e083015260ff8160c01c1661030083015260ff8160c81c1661032083015260ff8160d01c1661034083015260ff8160d81c1661036083015260ff8160e01c1661038083015260ff8160e81c166103a083015260ff8160f01c166103c083015260f81c6103e08201520193019101909183906121c6565b60016020819285548152019301910190916121a7565b82546001600160a01b03168152600192830192919091019060200161218a565b346101fd575f3660031901126101fd57602060ff60025460081c166040519015158152f35b346101fd5760203660031901126101fd5761247c612c55565b60405161248881612d43565b5f8152602081015f9052604081015f9052606081015f9052608081015f905260a081015f905260c081015f905260e081015f905261010081015f905261012081015f905261014081015f905261016081015f905261018081015f90526101a0015f9052600160a01b60019003165f52600560205260405f2060405161250c81612d43565b80600160801b6001900319835460801b16928382526001810154936020830194855260028201546040840190815260038301549060608501918252600484015460ff1660808601908152600585015460a0870190815260068601545f0b9060c0880191825260078701549260e089019384526008880154956101008a019563ffffffff881687526101208b019760201c63ffffffff16885260098a0154986101408c01998a52600a8b01549a6101608d019b8c52600b8101549c610180019c8d52600c015466ffffffffffffff169c6101a0019c8d526040519d8e9182525190602001525160408d01525160608c01525160ff1660808b01525160a08a0152515f0b60c08901525160e08801525163ffffffff166101008701525163ffffffff166101208601525161014085015251610160840152516101808301525166ffffffffffffff166101a08201526101c090f35b346101fd5760203660031901126101fd57612677612c55565b61267f613084565b6002805462010000600160b01b03191660109290921b62010000600160b01b0316919091179055005b346101fd575f3660031901126101fd576004546001600160a01b031633141580612798575b80612784575b6102b3575f5b602060ff82161061273b5760018060b01b0319604b5416604b5560025460ff61272d8183167f3bfcc3e41aa03b7575bc15e72aa39826ec3640d8d71058400d3e72cbd34ca7506020604051838152a1612e18565b60ff19909216911617600255005b602081101561070457600a810180546001600160a01b03191690555f602a82015560ff9060019061277d61276e82612c7e565b60ff82549160031b1b19169055565b01166126d9565b505f546001600160a01b03163314156126d3565b506002543360109190911c6001600160a01b031614156126cd565b346101fd575f3660031901126101fd576127cb613084565b6002805461ff0019169055005b346101fd575f3660031901126101fd57602061ffff604b5460a01c16604051908152f35b346101fd5760203660031901126101fd5763ffffffff61281a612c6b565b165f5260086020526040805f205463ffffffff825191818116835260201c166020820152f35b346101fd5760203660031901126101fd576001600160a01b03612861612c55565b165f5260056020526020600560405f200154604051908152f35b346101fd575f3660031901126101fd576004546040516001600160a01b039091168152602090f35b346101fd5760403660031901126101fd576128bc612c55565b60243590815f0b82036101fd576004546001600160a01b031633141580612924575b80612910575b6102b35760018060a01b03165f526005602052600660405f20019060ff198254169060ff161790555f80f35b505f546001600160a01b03163314156128e4565b506002543360109190911c6001600160a01b031614156128de565b346101fd5760403660031901126101fd57612958612c55565b612960613084565b60018060a01b03165f526005602052600260405f2001611f826024358254612de8565b346101fd575f3660031901126101fd576020604051670de0b6b3a76400008152f35b346101fd5760603660031901126101fd576004356001600160a01b03198116908190036101fd57602435906044356129db613084565b8115612bfa57600254604051631d5e528f60e21b8152906020908290600490829060101c6001600160a01b03165afa908115610f5f575f91612bc8575b50831015612b9257600354604051631d5e528f60e21b815290602090829060049082906001600160a01b03165afa908115610f5f575f91612b60575b50811015612b28576040516020810161414960f01b8152836022830152600e8252612a80602e83612da9565b60018060a01b03915190201691825f52600560205260405f209160078301908154612af257612af09560019360801c848060801b0319865416178555600a850155600b8401555560ff600481600254169201911660ff19825416179055612ae8600654612dcc565b6006556130d3565b005b60405162461bcd60e51b815260206004820152600e60248201526d416c72656164792065786973747360901b6044820152606490fd5b60405162461bcd60e51b815260206004820152601060248201526f14d8dc9a5c1d081b9bdd08195e1a5cdd60821b6044820152606490fd5b90506020813d602011612b8a575b81612b7b60209383612da9565b810103126101fd575184612a54565b3d9150612b6e565b60405162461bcd60e51b815260206004820152600e60248201526d12195c9bc81b9bdd08195e1a5cdd60921b6044820152606490fd5b90506020813d602011612bf2575b81612be360209383612da9565b810103126101fd575184612a18565b3d9150612bd6565b60405162461bcd60e51b815260206004820152600a602482015269456d707479206e616d6560b01b6044820152606490fd5b346101fd5760203660031901126101fd576004359060208210156101fd57602091602a01548152f35b600435906001600160a01b03821682036101fd57565b6004359063ffffffff821682036101fd57565b90602082101561070457601f8260051c604a01921690565b6024359060ff821682036101fd57565b6044359060ff821682036101fd57565b604081016040825282518091526020606083019301905f5b818110612d27575050506020818303910152602080835192838152019201905f5b818110612cfc5750505090565b8251805163ffffffff9081168652602091820151168186015260409094019390920191600101612cef565b825163ffffffff16855260209485019490920191600101612cce565b6101c081019081106001600160401b03821117612d5f57604052565b634e487b7160e01b5f52604160045260245ffd5b604081019081106001600160401b03821117612d5f57604052565b60a081019081106001600160401b03821117612d5f57604052565b601f909101601f19168101906001600160401b03821190821017612d5f57604052565b5f1981146115735760010190565b906032820180921161157357565b9190820180921161157357565b80546001600160a01b0360039390931b83811b199091169290931690921b179055565b60ff1660ff81146115735760010190565b9190820391821161157357565b63ffffffff168015611573575f190190565b6001600160401b038111612d5f5760051b60200190565b90612e6982612e48565b612e766040519182612da9565b8281528092612e87601f1991612e48565b0190602036910137565b90612e9b82612e48565b612ea86040519182612da9565b8281528092612eb9601f1991612e48565b01905f5b828110612ec957505050565b602090604051612ed881612d73565b5f81525f8382015282828501015201612ebd565b80518210156107045760209160051b010190565b908160209103126101fd57516001600160a01b03811681036101fd5790565b6001600160401b038111612d5f57601f01601f191660200190565b8115611a88570490565b60ff5f199116019060ff821161157357565b9060088110156107045760051b0190565b6020818303126101fd578051906001600160401b0382116101fd570181601f820112156101fd57805190612f9a82612f1f565b92612fa86040519485612da9565b828452602083830101116101fd57815f9260208093018386015e8301015290565b9060078110156107045760051b0190565b60ff60019116019060ff821161157357565b519060ff821682036101fd57565b905f905b6008821061300b57505050565b6020806001928551815201930191019091612ffe565b63ffffffff1663ffffffff81146115735760010190565b805463ffffffff60201b191660209290921b63ffffffff60201b16919091179055565b90600782101561070457601f8260051c61074c01921690565b6101008210156107045701905f90565b5f546001600160a01b0316330361309757565b63118cdaa760e01b5f523360045260245ffd5b60031b906107f860f883169216820361157357565b61ffff60019116019061ffff821161157357565b5f9060018060a01b03811690815f526005602052600c60405f20019160ff66ffffffffffffff845416816131065f6130aa565b161c1660ff81141591826131e4575b50506131df578260ff6131278261305b565b90549060031b1c16936131cb5750610100831015610704578260ff926131576131a6935f6131c997604c01612df5565b66ffffffffffffff848061316a5f6130aa565b161b1666ffffffffffffff8254911982161666ffffffffffffff848761318f5f6130aa565b161b16179066ffffffffffffff19161790556130bf565b166131b05f61305b565b90919060ff8084549260031b9316831b921b1916179055565b565b634e487b7160e01b81526032600452602490fd5b505050565b5f9550915061010081101561070457604c01546001600160a01b0316145f80613115565b9060018060a01b038216805f526005602052600c60405f20019060ff66ffffffffffffff83541681613239866130aa565b161c169060ff82141591826132d2575b50506131df5760ff61325a8361305b565b90549060031b1c16906007831015610704576132cb8260ff926132936131c99761328d6131b0978960081b604c01613074565b90612df5565b66ffffffffffffff84806132a6896130aa565b161b1666ffffffffffffff8254911982161666ffffffffffffff848761318f8b6130aa565b169161305b565b9091506007841015610704576132ee908460081b604c01613074565b905460039190911b1c6001600160a01b0316145f80613249565b61ffff1661ffff81146115735760010190565b9063ffffffff8091169116019063ffffffff821161157357565b60ff168015611573575f190190565b81810292915f8212600160ff1b82141661157357818405149015171561157357565b5f199291905f5b60ff811660208110156135e957602082101561070457600a8201546001600160a01b038481169116146133a6575060010160ff1661336d565b9192939450505b5f81126135bf57601f90819060ff165b8160ff82161061353e575050602081101561070457600a810180546001600160a01b03191690555f602a8201556133f79061276e90612c7e565b5f5b602060ff8216108061351f575b80613508575b1561341f5761341a90612e18565b6133f9565b9091601f5b60ff831660ff82161161346e57506020821015610704576131c99282600a019060018060a01b031660018060a01b031982541617905581602a01556131b060ff6002541691612c7e565b61347781612f44565b602081101561070457600a01546001600160a01b0316602082101561070457600a820180546001600160a01b0319166001600160a01b039092169190911790556134c081612f44565b9060208210156107045761350391602a015481602a01556134fe60ff6134ed6134e884612f44565b612c7e565b90549060031b1c166131b083612c7e565b613335565b613424565b506020811015610704578281602a0154101561340c565b50602081101561070457600a8101546001600160a01b03161515613406565b61354781612fda565b602081101561070457600a01546001600160a01b0316602082101561070457600a820180546001600160a01b0319166001600160a01b0390921691909117905561359081612fda565b60208110156107045760ff91600191602a015481602a01556135b8836134ed6134e884612fda565b01166133bd565b506029546001600160a01b03161515806135dd575b156133f7575050565b506049548211156135d4565b50509091926133ad565b60ff1680156136575760018114613651576002811461364b5760038114613645576004811461363e57600581146136375760061461363157602c1990565b601d1990565b50600e1990565b5060041990565b50600590565b50600f90565b50601e90565b50602d90565b60ff1680156136b757600181146136b157600281146136ab57600381146136a5576004811461369f57600581146136575760061461369a57601990565b602390565b50603790565b50604690565b50605590565b50606490565b5060789056fe8be0079c531659141344cd1fd0a4f28419497f9722a3daafe3b4186f6b6457e0a2646970667358221220f5aa574eafd0de1811fc2e0b72d02f2727d4eff32cc67167da589c6914b5212864736f6c634300081b003300000000000000000000000072eea00e0b9652db2d8d2eb4b72eadeba76440bd000000000000000000000000429862f1fbd621d15c48f1e16e6301f322e7ccae",
        "nonce": "0x1a4",
        "chainId": "0x13882"
      },
      "additionalContracts": [],
      "isFixedGasLimit": false
    },
    {
      "hash": "0xf41c9912773787c867f2e62bb3be060e8661999fe6a4ee5fed5c74bc3f0f553a",
      "transactionType": "CREATE",
      "contractName": "ClawUtility",
      "contractAddress": "0x357f6ee64652ba9cb8ed7e728f57e2f5c10a1384",
      "function": null,
      "arguments": [
        "0x64c467feaFed4592537Ce33Ae52228B936C5d84a"
      ],
      "transaction": {
        "from": "0x8de56f797ff4aa43224ac277f04d595a30f782d6",
        "gas": "0x162841",
        "value": "0x0",
        "input": "0x60803460cd57601f61133738819003918201601f19168301916001600160401b0383118484101760d15780849260209460405283398101031260cd57516001600160a01b0381169081900360cd57331560ba575f8054336001600160a01b0319821681178355604051939290916001600160a01b0316907f8be0079c531659141344cd1fd0a4f28419497f9722a3daafe3b4186f6b6457e09080a3600180546001600160a01b03191691909117905561125190816100e68239f35b631e4fbdf760e01b5f525f60045260245ffd5b5f80fd5b634e487b7160e01b5f52604160045260245ffdfe6080806040526004361015610012575f80fd5b5f905f3560e01c90816304c5d43014610b1d575080633dcdb672146107c05780634fd00c4314610797578063668c5c1a14610751578063715018a61461070a5780638da5cb5b146106e3578063a10f956d146106b7578063a65d7a5a14610568578063ac3edc8614610444578063ecb4da5a14610281578063efaca1931461011d5763f2fde38b146100a2575f80fd5b3461011a57602036600319011261011a576004356001600160a01b03811690819003610118576100d06111d5565b80156101045781546001600160a01b03198116821783556001600160a01b03165f5160206111fc5f395f51905f528380a380f35b631e4fbdf760e01b82526004829052602482fd5b505b80fd5b503461011a57602036600319011261011a578060043580820b8082036102365782126101a957506001546001600160a01b0316803b156101a657818091604460405180948193632752398d60e01b83523360048401528160248401525af1801561019b5761018a57505080f35b8161019491610ec7565b61011a5780f35b6040513d84823e3d90fd5b50fd5b6001546040516306996d1960e31b81523360048201526001600160a01b0390911690602081602481855afa90811561027657849161023a575b506101f690600160ff85161b161515611040565b803b1561023657604051632752398d60e01b81529183918391829084908290610223903360048401611078565b03925af1801561019b5761018a57505080f35b5050fd5b9350506020833d60201161026e575b8161025660209383610ec7565b8101031261026a576101f6849351906101e2565b5f80fd5b3d9150610249565b6040513d86823e3d90fd5b503461011a57602036600319011261011a5761029b610eb7565b6102a481611144565b908115610410576001546040516306996d1960e31b81523360048201526001600160a01b0390911690602081602481855afa9081156104055785916103d3575b50600160ff84161b1661039e578392813b15610399578391604483926040519485938492634bc6a73f60e11b845233600485015260248401525af190811561038e578391610379575b50506001546001600160a01b0316803b156102365760405163be5957d760e01b815291839183918290849082906103689033600484016110f4565b03925af1801561019b5761018a5750f35b8161038391610ec7565b6101a657815f61032d565b6040513d85823e3d90fd5b505050fd5b60405162461bcd60e51b815260206004820152600d60248201526c105b1c9958591e481bdddb9959609a1b6044820152606490fd5b90506020813d6020116103fd575b816103ee60209383610ec7565b8101031261026a57515f6102e4565b3d91506103e1565b6040513d87823e3d90fd5b60405162461bcd60e51b815260206004820152600c60248201526b496e76616c6964206974656d60a01b6044820152606490fd5b503461011a57602036600319011261011a578061045f610eb7565b60ff81166104ae57506001546001600160a01b0316803b156101a657818091604460405180948193633d0e04d960e21b83523360048401528160248401525af1801561019b5761018a57505080f35b600154604051639ce67bdd60e01b81523360048201526001600160a01b0390911690602081602481855afa908115610276578491610530575b5061050390600160ff6104f986611095565b161b1615156110bb565b803b1561023657604051633d0e04d960e21b815291839183918290849082906102239033600484016110f4565b9350506020833d602011610560575b8161054c60209383610ec7565b8101031261026a57610503849351906104e7565b3d915061053f565b50602036600319011261011a5761057d610ea0565b6001600160801b0319811615610685576001546040516370c69c6760e11b8152336004820152839291602090829060249082906001600160a01b03165afa90811561038e578391610656575b506001600160801b03191615610647576105ec678ac7230489e800003414610f5f565b61060e828080803460018060a01b038254165af1610608610fa0565b50610fde565b6001546001600160a01b0316803b156102365760405163c5886fbd60e01b8152918391839182908490829061036890336004840161101c565b6106513415610f1e565b61060e565b610678915060203d60201161067e575b6106708183610ec7565b810190610efe565b5f6105c9565b503d610666565b60405162461bcd60e51b815260206004820152600a602482015269456d707479206e616d6560b01b6044820152606490fd5b503461011a57602036600319011261011a5760206106db6106d6610eb7565b611144565b604051908152f35b503461011a578060031936011261011a57546040516001600160a01b039091168152602090f35b503461011a578060031936011261011a576107236111d5565b80546001600160a01b03198116825581906001600160a01b03165f5160206111fc5f395f51905f528280a380f35b503461011a57602036600319011261011a576004356001600160a01b03811690819003610118576107806111d5565b600180546001600160a01b03191691909117905580f35b503461011a578060031936011261011a576001546040516001600160a01b039091168152602090f35b503461011a578060031936011261011a576107d96111d5565b6001546040516336bb1d3760e11b815291906001600160a01b0316610c0083600481845afa92831561019b5782936109f7575b5060206004916040519283809263bcb3962160e01b82525afa801561019b5782906109bc575b61083c9150611095565b60021b6103fc60fc8216911681036109a8576001019160ff83116109a85760ff829316925b60ff8116602081101561099e576001600160a01b03610880828561111f565b51161561095e57806109365783905b6001546001600160a01b039081169160ff91906108ac908761111f565b5116921686019160ff831161092257813b1561091e579185916108e6938360405180968195829463be5957d760e01b8452600484016110f4565b03925af1801561027657908491610905575b505060010160ff16610861565b8161090f91610ec7565b61091a57825f6108f8565b8280fd5b8580fd5b634e487b7160e01b86526011600452602486fd5b600181036109465760019061088f565b600281036109565760029061088f565b60039061088f565b50505090505b60015481906001600160a01b0316803b156101a6578180916004604051809481936312cd346d60e21b83525af1801561019b5761018a5750f35b5050509050610964565b634e487b7160e01b82526011600452602482fd5b506020813d6020116109ef575b816109d660209383610ec7565b81010312610118576109ea61083c91611111565b610832565b3d91506109c9565b909250610c003d8111610b16575b610a0f8183610ec7565b8101610c008282031261091a5780601f8301121561091a5760405191610400610a388185610ec7565b8181019084848311610b125783905b838210610aee5750508361041f8401121561091e57604051610a698282610ec7565b610800840192858411610aea57905b838210610ada5750508361081f8401121561091e57610c0090610a9e6040519182610ec7565b9201928311610ad657905b828210610abe5750919391506020905061080c565b60208091610acb84611111565b815201910190610aa9565b8480fd5b8151815260209182019101610a78565b8780fd5b81516001600160a01b0381168103610b0e57815260209182019101610a47565b8880fd5b8680fd5b503d610a05565b82606036600319011261026a57610b32610ea0565b60243592835f0b80850361026a576044359260ff84169283850361026a576001600160801b031982169081610d80575b505050938385818097125f14610c8a5750506001546001600160a01b03169050803b1561039957838091604460405180948193632752398d60e01b83523360048401528160248401525af1908115610276578491610c75575b50505b610bc55750f35b600154604051639ce67bdd60e01b81523360048201526001600160a01b0390911690602081602481855afa908115610276578491610c3d575b50610c1090600160ff6104f986611095565b803b1561023657604051633d0e04d960e21b815291839183918290849082906103689033600484016110f4565b9350506020833d602011610c6d575b81610c5960209383610ec7565b8101031261026a57610c1084935190610bfe565b3d9150610c4c565b81610c7f91610ec7565b610236578285610bbb565b13610c96575b50610bbe565b6001546040516306996d1960e31b81523360048201526001600160a01b0390911690602081602481855afa908115610d75578691610d3d575b50610ce390600160ff85161b161515611040565b803b15610ad657604051632752398d60e01b81529185918391829084908290610d10903360048401611078565b03925af1908115610276578491610d28575b50610c90565b81610d3291610ec7565b610236578285610d22565b9550506020853d602011610d6d575b81610d5960209383610ec7565b8101031261026a57610ce386955190610ccf565b3d9150610d4c565b6040513d88823e3d90fd5b6001546370c69c6760e11b8252336004830152602090829060249082906001600160a01b03165afa908115610e67575f91610e81575b506001600160801b03191690819003610dd0575b80610b62565b15610e7257610de8678ac7230489e800003414610f5f565b610e045f8080803460018060a01b038254165af1610608610fa0565b6001546001600160a01b0316803b1561026a5760405163c5886fbd60e01b8152915f918391829084908290610e3d90336004840161101c565b03925af18015610e6757610e52575b80610dca565b610e5f9194505f90610ec7565b5f9285610e4c565b6040513d5f823e3d90fd5b610e7c3415610f1e565b610e04565b610e9a915060203d60201161067e576106708183610ec7565b88610db6565b600435906001600160801b03198216820361026a57565b6004359060ff8216820361026a57565b601f909101601f19168101906001600160401b03821190821017610eea57604052565b634e487b7160e01b5f52604160045260245ffd5b9081602091031261026a57516001600160801b03198116810361026a5790565b15610f2557565b60405162461bcd60e51b81526020600482015260126024820152714669727374206e616d65206973206672656560701b6044820152606490fd5b15610f6657565b60405162461bcd60e51b8152602060048201526012602482015271115e1858dd08199959481c995c5d5a5c995960721b6044820152606490fd5b3d15610fd9573d906001600160401b038211610eea5760405191610fce601f8201601f191660200184610ec7565b82523d5f602084013e565b606090565b15610fe557565b60405162461bcd60e51b815260206004820152600f60248201526e151c985b9cd9995c8819985a5b1959608a1b6044820152606490fd5b6001600160a01b0390911681526001600160801b0319909116602082015260400190565b1561104757565b60405162461bcd60e51b8152602060048201526009602482015268139bdd081bdddb995960ba1b6044820152606490fd5b6001600160a01b0390911681525f9190910b602082015260400190565b60ff5f199116019060ff82116110a757565b634e487b7160e01b5f52601160045260245ffd5b156110c257565b60405162461bcd60e51b815260206004820152600a602482015269139bdd0819585c9b995960b21b6044820152606490fd5b6001600160a01b03909116815260ff909116602082015260400190565b519060ff8216820361026a57565b9060208110156111305760051b0190565b634e487b7160e01b5f52603260045260245ffd5b60ff16604081146111ce57604181146111c757604281146111c057604381146111ba576021811015806111af575b61117b57505f90565b6020190160ff81116110a75760ff1661012c81029080820461012c14901517156110a7576101f401806101f4116110a75790565b50602a811115611172565b50603290565b506103e890565b5061032090565b506107d090565b5f546001600160a01b031633036111e857565b63118cdaa760e01b5f523360045260245ffdfe8be0079c531659141344cd1fd0a4f28419497f9722a3daafe3b4186f6b6457e0a26469706673582212203933afb62670a5dc98f6e2c553ff00a33a54a9ee5c07560db11531b65b394a7564736f6c634300081b003300000000000000000000000064c467feafed4592537ce33ae52228b936c5d84a",
        "nonce": "0x1a5",
        "chainId": "0x13882"
      },
      "additionalContracts": [],
      "isFixedGasLimit": false
    },
    {
      "hash": "0x0ca6492052839c21fe383dbdba42176683208ffdeb9acf038a2a673dbe0e1ff7",
      "transactionType": "CALL",
      "contractName": null,
      "contractAddress": "0x72eea00e0b9652db2d8d2eb4b72eadeba76440bd",
      "function": "setClawArena(address)",
      "arguments": [
        "0x64c467feaFed4592537Ce33Ae52228B936C5d84a"
      ],
      "transaction": {
        "from": "0x8de56f797ff4aa43224ac277f04d595a30f782d6",
        "to": "0x72eea00e0b9652db2d8d2eb4b72eadeba76440bd",
        "gas": "0xa652",
        "value": "0x0",
        "input": "0x668c5c1a00000000000000000000000064c467feafed4592537ce33ae52228b936c5d84a",
        "nonce": "0x1a6",
        "chainId": "0x13882"
      },
      "additionalContracts": [],
      "isFixedGasLimit": false
    },
    {
      "hash": "0x59febe59bd4f45859346fb4738dc5f2c942e64d29c3eeee2241330e6d970f68e",
      "transactionType": "CALL",
      "contractName": "ClawArena",
      "contractAddress": "0x64c467feafed4592537ce33ae52228b936c5d84a",
      "function": "setClawUtility(address)",
      "arguments": [
        "0x357f6eE64652ba9Cb8Ed7e728F57E2f5c10A1384"
      ],
      "transaction": {
        "from": "0x8de56f797ff4aa43224ac277f04d595a30f782d6",
        "to": "0x64c467feafed4592537ce33ae52228b936c5d84a",
        "gas": "0x108dc",
        "value": "0x0",
        "input": "0x809d3820000000000000000000000000357f6ee64652ba9cb8ed7e728f57e2f5c10a1384",
        "nonce": "0x1a7",
        "chainId": "0x13882"
      },
      "additionalContracts": [],
      "isFixedGasLimit": false
    },
    {
      "hash": "0x5b60178b175f4793e0e7b5ac8b0c3ec0da9f44d4ee5d13c658495e06b62563db",
      "transactionType": "CALL",
      "contractName": "ClawArena",
      "contractAddress": "0x64c467feafed4592537ce33ae52228b936c5d84a",
      "function": "addDefaultPlayer(bytes12,uint256,uint256)",
      "arguments": [
        "0x49726f6e20436c6177000000",
        "0",
        "0"
      ],
      "transaction": {
        "from": "0x8de56f797ff4aa43224ac277f04d595a30f782d6",
        "to": "0x64c467feafed4592537ce33ae52228b936c5d84a",
        "gas": "0x3cd3c",
        "value": "0x0",
        "input": "0x0339887349726f6e20436c6177000000000000000000000000000000000000000000000000000000000000000000000000000000000000000000000000000000000000000000000000000000000000000000000000000000000000000000000000000000",
        "nonce": "0x1a8",
        "chainId": "0x13882"
      },
      "additionalContracts": [],
      "isFixedGasLimit": false
    },
    {
      "hash": "0xe06343f451537ea1e23104f680f8d72c77102b5bada0217aeae0ff190299148b",
      "transactionType": "CALL",
      "contractName": "ClawArena",
      "contractAddress": "0x64c467feafed4592537ce33ae52228b936c5d84a",
      "function": "addDefaultPlayer(bytes12,uint256,uint256)",
      "arguments": [
        "0x526f636b204c6f6273000000",
        "1",
        "1"
      ],
      "transaction": {
        "from": "0x8de56f797ff4aa43224ac277f04d595a30f782d6",
        "to": "0x64c467feafed4592537ce33ae52228b936c5d84a",
        "gas": "0x461bf",
        "value": "0x0",
        "input": "0x03398873526f636b204c6f6273000000000000000000000000000000000000000000000000000000000000000000000000000000000000000000000000000000000000010000000000000000000000000000000000000000000000000000000000000001",
        "nonce": "0x1a9",
        "chainId": "0x13882"
      },
      "additionalContracts": [],
      "isFixedGasLimit": false
    },
    {
      "hash": "0x1020e405d3c97a2324a5c3cd24e97e56324be9088feaf1cd9ad3c959cbfcb36c",
      "transactionType": "CALL",
      "contractName": "ClawArena",
      "contractAddress": "0x64c467feafed4592537ce33ae52228b936c5d84a",
      "function": "addDefaultPlayer(bytes12,uint256,uint256)",
      "arguments": [
        "0x47686f737420536872000000",
        "2",
        "2"
      ],
      "transaction": {
        "from": "0x8de56f797ff4aa43224ac277f04d595a30f782d6",
        "to": "0x64c467feafed4592537ce33ae52228b936c5d84a",
        "gas": "0x461bf",
        "value": "0x0",
        "input": "0x0339887347686f737420536872000000000000000000000000000000000000000000000000000000000000000000000000000000000000000000000000000000000000020000000000000000000000000000000000000000000000000000000000000002",
        "nonce": "0x1aa",
        "chainId": "0x13882"
      },
      "additionalContracts": [],
      "isFixedGasLimit": false
    },
    {
      "hash": "0x504f0e65b03e1bf49f7891c7cfcbb672bcca23a5fa970a899d8ef8e3eb73cc56",
      "transactionType": "CALL",
      "contractName": "ClawArena",
      "contractAddress": "0x64c467feafed4592537ce33ae52228b936c5d84a",
      "function": "addDefaultPlayer(bytes12,uint256,uint256)",
      "arguments": [
        "0x426c6f6f6420436c61000000",
        "3",
        "3"
      ],
      "transaction": {
        "from": "0x8de56f797ff4aa43224ac277f04d595a30f782d6",
        "to": "0x64c467feafed4592537ce33ae52228b936c5d84a",
        "gas": "0x461bf",
        "value": "0x0",
        "input": "0x03398873426c6f6f6420436c61000000000000000000000000000000000000000000000000000000000000000000000000000000000000000000000000000000000000030000000000000000000000000000000000000000000000000000000000000003",
        "nonce": "0x1ab",
        "chainId": "0x13882"
      },
      "additionalContracts": [],
      "isFixedGasLimit": false
    },
    {
      "hash": "0xc43606f80c53412841313f319f4436a0fdee898919d2636bfa18671b0eceb1c1",
      "transactionType": "CALL",
      "contractName": "ClawArena",
      "contractAddress": "0x64c467feafed4592537ce33ae52228b936c5d84a",
      "function": "addDefaultPlayer(bytes12,uint256,uint256)",
      "arguments": [
        "0x457865637574720000000000",
        "4",
        "4"
      ],
      "transaction": {
        "from": "0x8de56f797ff4aa43224ac277f04d595a30f782d6",
        "to": "0x64c467feafed4592537ce33ae52228b936c5d84a",
        "gas": "0x4619d",
        "value": "0x0",
        "input": "0x03398873457865637574720000000000000000000000000000000000000000000000000000000000000000000000000000000000000000000000000000000000000000040000000000000000000000000000000000000000000000000000000000000004",
        "nonce": "0x1ac",
        "chainId": "0x13882"
      },
      "additionalContracts": [],
      "isFixedGasLimit": false
    },
    {
      "hash": "0xd56cb25f387d7daf88545e973c96e3f0c9b6d603593e8fd4d13852788df8595a",
      "transactionType": "CALL",
      "contractName": "ClawArena",
      "contractAddress": "0x64c467feafed4592537ce33ae52228b936c5d84a",
      "function": "addDefaultPlayer(bytes12,uint256,uint256)",
      "arguments": [
        "0x54686f726e20536872000000",
        "5",
        "5"
      ],
      "transaction": {
        "from": "0x8de56f797ff4aa43224ac277f04d595a30f782d6",
        "to": "0x64c467feafed4592537ce33ae52228b936c5d84a",
        "gas": "0x461bf",
        "value": "0x0",
        "input": "0x0339887354686f726e20536872000000000000000000000000000000000000000000000000000000000000000000000000000000000000000000000000000000000000050000000000000000000000000000000000000000000000000000000000000005",
        "nonce": "0x1ad",
        "chainId": "0x13882"
      },
      "additionalContracts": [],
      "isFixedGasLimit": false
    },
    {
      "hash": "0xa93d4b4261b119825b084dd67910033ab252eeea0e6becbf41d7066026b8a128",
      "transactionType": "CALL",
      "contractName": "ClawArena",
      "contractAddress": "0x64c467feafed4592537ce33ae52228b936c5d84a",
      "function": "addDefaultPlayer(bytes12,uint256,uint256)",
      "arguments": [
        "0x43726974204c6f6273000000",
        "6",
        "6"
      ],
      "transaction": {
        "from": "0x8de56f797ff4aa43224ac277f04d595a30f782d6",
        "to": "0x64c467feafed4592537ce33ae52228b936c5d84a",
        "gas": "0x461bf",
        "value": "0x0",
        "input": "0x0339887343726974204c6f6273000000000000000000000000000000000000000000000000000000000000000000000000000000000000000000000000000000000000060000000000000000000000000000000000000000000000000000000000000006",
        "nonce": "0x1ae",
        "chainId": "0x13882"
      },
      "additionalContracts": [],
      "isFixedGasLimit": false
    },
    {
      "hash": "0xcfecd65dffb7b622291ca06cf00c109c8c2e654e533d7dfe06022f892322a441",
      "transactionType": "CALL",
      "contractName": "ClawArena",
      "contractAddress": "0x64c467feafed4592537ce33ae52228b936c5d84a",
      "function": "addDefaultPlayer(bytes12,uint256,uint256)",
      "arguments": [
        "0x426c756520466c616d000000",
        "7",
        "7"
      ],
      "transaction": {
        "from": "0x8de56f797ff4aa43224ac277f04d595a30f782d6",
        "to": "0x64c467feafed4592537ce33ae52228b936c5d84a",
        "gas": "0x461bf",
        "value": "0x0",
        "input": "0x03398873426c756520466c616d000000000000000000000000000000000000000000000000000000000000000000000000000000000000000000000000000000000000070000000000000000000000000000000000000000000000000000000000000007",
        "nonce": "0x1af",
        "chainId": "0x13882"
      },
      "additionalContracts": [],
      "isFixedGasLimit": false
    },
    {
      "hash": "0xaa9e0a6acc06e1d662550c3312dee1a1e96d4a5b8654b4fc42b4aaeb078b383c",
      "transactionType": "CALL",
      "contractName": "ClawArena",
      "contractAddress": "0x64c467feafed4592537ce33ae52228b936c5d84a",
      "function": "addDefaultPlayer(bytes12,uint256,uint256)",
      "arguments": [
        "0x417263746963205368000000",
        "8",
        "8"
      ],
      "transaction": {
        "from": "0x8de56f797ff4aa43224ac277f04d595a30f782d6",
        "to": "0x64c467feafed4592537ce33ae52228b936c5d84a",
        "gas": "0x461bf",
        "value": "0x0",
        "input": "0x03398873417263746963205368000000000000000000000000000000000000000000000000000000000000000000000000000000000000000000000000000000000000080000000000000000000000000000000000000000000000000000000000000008",
        "nonce": "0x1b0",
        "chainId": "0x13882"
      },
      "additionalContracts": [],
      "isFixedGasLimit": false
    },
    {
      "hash": "0x85ac889cd8080ab75bcf6c2bba1c2d55e1f8f11b3ec0bb05f766361bf2064b06",
      "transactionType": "CALL",
      "contractName": "ClawArena",
      "contractAddress": "0x64c467feafed4592537ce33ae52228b936c5d84a",
      "function": "addDefaultPlayer(bytes12,uint256,uint256)",
      "arguments": [
        "0x56656e742053687200000000",
        "9",
        "9"
      ],
      "transaction": {
        "from": "0x8de56f797ff4aa43224ac277f04d595a30f782d6",
        "to": "0x64c467feafed4592537ce33ae52228b936c5d84a",
        "gas": "0x461ae",
        "value": "0x0",
        "input": "0x0339887356656e742053687200000000000000000000000000000000000000000000000000000000000000000000000000000000000000000000000000000000000000090000000000000000000000000000000000000000000000000000000000000009",
        "nonce": "0x1b1",
        "chainId": "0x13882"
      },
      "additionalContracts": [],
      "isFixedGasLimit": false
    },
    {
      "hash": "0x4ba5982a54f8d9df3eae23d8945f8fbf6732c154d71fc76e9ad0eb3a0dc0cfc3",
      "transactionType": "CALL",
      "contractName": "ClawArena",
      "contractAddress": "0x64c467feafed4592537ce33ae52228b936c5d84a",
      "function": "addDefaultPlayer(bytes12,uint256,uint256)",
      "arguments": [
        "0x4865726d6974205368000000",
        "10",
        "10"
      ],
      "transaction": {
        "from": "0x8de56f797ff4aa43224ac277f04d595a30f782d6",
        "to": "0x64c467feafed4592537ce33ae52228b936c5d84a",
        "gas": "0x461bf",
        "value": "0x0",
        "input": "0x033988734865726d69742053680000000000000000000000000000000000000000000000000000000000000000000000000000000000000000000000000000000000000a000000000000000000000000000000000000000000000000000000000000000a",
        "nonce": "0x1b2",
        "chainId": "0x13882"
      },
      "additionalContracts": [],
      "isFixedGasLimit": false
    },
    {
      "hash": "0x577ecd27404b084fdfb1550e94f347ba4b69400bb4519792edbe61904685f986",
      "transactionType": "CALL",
      "contractName": "ClawArena",
      "contractAddress": "0x64c467feafed4592537ce33ae52228b936c5d84a",
      "function": "addDefaultPlayer(bytes12,uint256,uint256)",
      "arguments": [
        "0x4c75636b7920536872000000",
        "11",
        "11"
      ],
      "transaction": {
        "from": "0x8de56f797ff4aa43224ac277f04d595a30f782d6",
        "to": "0x64c467feafed4592537ce33ae52228b936c5d84a",
        "gas": "0x461bf",
        "value": "0x0",
        "input": "0x033988734c75636b79205368720000000000000000000000000000000000000000000000000000000000000000000000000000000000000000000000000000000000000b000000000000000000000000000000000000000000000000000000000000000b",
        "nonce": "0x1b3",
        "chainId": "0x13882"
      },
      "additionalContracts": [],
      "isFixedGasLimit": false
    }
  ],
  "receipts": [
    {
      "status": "0x1",
      "cumulativeGasUsed": "0x30c9e6",
      "logs": [
        {
          "address": "0x64c467feafed4592537ce33ae52228b936c5d84a",
          "topics": [
            "0x8be0079c531659141344cd1fd0a4f28419497f9722a3daafe3b4186f6b6457e0",
            "0x0000000000000000000000000000000000000000000000000000000000000000",
            "0x0000000000000000000000008de56f797ff4aa43224ac277f04d595a30f782d6"
          ],
          "data": "0x",
          "blockHash": "0xaac9ba7d05f509c701d6180036eff924cf6114d477fac2d34e84bada46b78b92",
          "blockNumber": "0x22001bc",
          "blockTimestamp": "0x69c3ad73",
          "transactionHash": "0xfa29b711acae51ec3ad1c35b7f356d91ebe8c456c263f629753c6d644d514563",
          "transactionIndex": "0x0",
          "logIndex": "0x0",
          "removed": false
        },
        {
          "address": "0x0000000000000000000000000000000000001010",
          "topics": [
            "0x4dfe1bbbcf077ddc3e01291eea2d5c70c2b422b415d95645b9adcfd678cb1d63",
            "0x0000000000000000000000000000000000000000000000000000000000001010",
            "0x0000000000000000000000008de56f797ff4aa43224ac277f04d595a30f782d6",
            "0x0000000000000000000000007ee41d8a25641000661b1ef5e6ae8a00400466b0"
          ],
          "data": "0x000000000000000000000000000000000000000000000000035e6dd577c3f4ca000000000000000000000000000000000000000000000004a03d553098c07bb50000000000000000000000000000000000000000000031c84372a9a68ac3e9330000000000000000000000000000000000000000000000049cdee75b20fc86eb0000000000000000000000000000000000000000000031c846d1177c0287ddfd",
          "blockHash": "0xaac9ba7d05f509c701d6180036eff924cf6114d477fac2d34e84bada46b78b92",
          "blockNumber": "0x22001bc",
          "blockTimestamp": "0x69c3ad73",
          "transactionHash": "0xfa29b711acae51ec3ad1c35b7f356d91ebe8c456c263f629753c6d644d514563",
          "transactionIndex": "0x0",
          "logIndex": "0x1",
          "removed": false
        }
      ],
      "logsBloom": "0x00000000000000000000002000000000000000000000000000800200004000000000000000000000000000000000000000008000000000000000000000000000000000000000000000000000000000800001000000000000000100000000000000000000020000000400000000000800000000000000000080000000000000400000000000000000020000000400000000000000000000000000000000000000200000000000000000000000000000000000000000000000000000000000004000000000004000000001000000000000000000400000000000100000004020000000000000000000000000000000000000000000000000000000000000100000",
      "type": "0x0",
      "transactionHash": "0xfa29b711acae51ec3ad1c35b7f356d91ebe8c456c263f629753c6d644d514563",
      "transactionIndex": "0x0",
      "blockHash": "0xaac9ba7d05f509c701d6180036eff924cf6114d477fac2d34e84bada46b78b92",
      "blockNumber": "0x22001bc",
      "gasUsed": "0x30c9e6",
      "effectiveGasPrice": "0x11ad44d986",
      "from": "0x8de56f797ff4aa43224ac277f04d595a30f782d6",
      "to": null,
      "contractAddress": "0x64c467feafed4592537ce33ae52228b936c5d84a"
    },
    {
      "status": "0x1",
      "cumulativeGasUsed": "0x41d52c",
      "logs": [
        {
          "address": "0x357f6ee64652ba9cb8ed7e728f57e2f5c10a1384",
          "topics": [
            "0x8be0079c531659141344cd1fd0a4f28419497f9722a3daafe3b4186f6b6457e0",
            "0x0000000000000000000000000000000000000000000000000000000000000000",
            "0x0000000000000000000000008de56f797ff4aa43224ac277f04d595a30f782d6"
          ],
          "data": "0x",
          "blockHash": "0xaac9ba7d05f509c701d6180036eff924cf6114d477fac2d34e84bada46b78b92",
          "blockNumber": "0x22001bc",
          "blockTimestamp": "0x69c3ad73",
          "transactionHash": "0xaa9e0a6acc06e1d662550c3312dee1a1e96d4a5b8654b4fc42b4aaeb078b383c",
          "transactionIndex": "0x1",
          "logIndex": "0x2",
          "removed": false
        },
        {
          "address": "0x0000000000000000000000000000000000001010",
          "topics": [
            "0x4dfe1bbbcf077ddc3e01291eea2d5c70c2b422b415d95645b9adcfd678cb1d63",
            "0x0000000000000000000000000000000000000000000000000000000000001010",
            "0x0000000000000000000000008de56f797ff4aa43224ac277f04d595a30f782d6",
            "0x0000000000000000000000007ee41d8a25641000661b1ef5e6ae8a00400466b0"
          ],
          "data": "0x000000000000000000000000000000000000000000000000012d48d9c3e0766a0000000000000000000000000000000000000000000000049cdee75b14fad7510000000000000000000000000000000000000000000031c846d1177c0287ddfd0000000000000000000000000000000000000000000000049bb19e81511a60e70000000000000000000000000000000000000000000031c847fe6055c6685467",
          "blockHash": "0xaac9ba7d05f509c701d6180036eff924cf6114d477fac2d34e84bada46b78b92",
          "blockNumber": "0x22001bc",
          "blockTimestamp": "0x69c3ad73",
          "transactionHash": "0xaa9e0a6acc06e1d662550c3312dee1a1e96d4a5b8654b4fc42b4aaeb078b383c",
          "transactionIndex": "0x1",
          "logIndex": "0x3",
          "removed": false
        }
      ],
      "logsBloom": "0x00000000000000000000000000000000000000000000000000800000004000000000000000004000000000000001000000008000000000000000000000000000000000000000000000000000000008800001000000000000000100000000000000000000020000000400000000000800000000000000000080000000000000400000000000000000020000000400000000000000000000000000000000000000200000000000000000000000000000000000000000000000000000000000004000000000000000000001000000000000000000400000000000100000004020000000000000000000000000000000000000000000000000000000000000100000",
      "type": "0x0",
      "transactionHash": "0xaa9e0a6acc06e1d662550c3312dee1a1e96d4a5b8654b4fc42b4aaeb078b383c",
      "transactionIndex": "0x1",
      "blockHash": "0xaac9ba7d05f509c701d6180036eff924cf6114d477fac2d34e84bada46b78b92",
      "blockNumber": "0x22001bc",
      "gasUsed": "0x110b46",
      "effectiveGasPrice": "0x11ad44d986",
      "from": "0x8de56f797ff4aa43224ac277f04d595a30f782d6",
      "to": null,
      "contractAddress": "0x357f6ee64652ba9cb8ed7e728f57e2f5c10a1384"
    },
    {
      "status": "0x1",
      "cumulativeGasUsed": "0x4246e6",
      "logs": [
        {
          "address": "0x0000000000000000000000000000000000001010",
          "topics": [
            "0x4dfe1bbbcf077ddc3e01291eea2d5c70c2b422b415d95645b9adcfd678cb1d63",
            "0x0000000000000000000000000000000000000000000000000000000000001010",
            "0x0000000000000000000000008de56f797ff4aa43224ac277f04d595a30f782d6",
            "0x0000000000000000000000007ee41d8a25641000661b1ef5e6ae8a00400466b0"
          ],
          "data": "0x0000000000000000000000000000000000000000000000000007da5347ee34960000000000000000000000000000000000000000000000049bb19e814ce89aad0000000000000000000000000000000000000000000031c847fe6055c66854670000000000000000000000000000000000000000000000049ba9c42e04fa66170000000000000000000000000000000000000000000031c848063aa90e5688fd",
          "blockHash": "0xaac9ba7d05f509c701d6180036eff924cf6114d477fac2d34e84bada46b78b92",
          "blockNumber": "0x22001bc",
          "blockTimestamp": "0x69c3ad73",
          "transactionHash": "0x0ca6492052839c21fe383dbdba42176683208ffdeb9acf038a2a673dbe0e1ff7",
          "transactionIndex": "0x2",
          "logIndex": "0x4",
          "removed": false
        }
      ],
      "logsBloom": "0x00000000000000000000000000000000000000000000000000000000004000000000000000000000000000000000000000008000000000000000000000000000000000000000000000000000000000800000000000000000000100000000000000000000000000000400000000000000000000000000000080000000000000000000000000000000020000000400000000000000000000000000000000000000200000000000000000000000000000000000000000000000000000000000004000000000000000000001000000000000000000400000000000100000004000000000000000000000000000000000000000000000000000000000000000100000",
      "type": "0x0",
      "transactionHash": "0x0ca6492052839c21fe383dbdba42176683208ffdeb9acf038a2a673dbe0e1ff7",
      "transactionIndex": "0x2",
      "blockHash": "0xaac9ba7d05f509c701d6180036eff924cf6114d477fac2d34e84bada46b78b92",
      "blockNumber": "0x22001bc",
      "gasUsed": "0x71ba",
      "effectiveGasPrice": "0x11ad44d986",
      "from": "0x8de56f797ff4aa43224ac277f04d595a30f782d6",
      "to": "0x72eea00e0b9652db2d8d2eb4b72eadeba76440bd",
      "contractAddress": null
    },
    {
      "status": "0x1",
      "cumulativeGasUsed": "0x42fc00",
      "logs": [
        {
          "address": "0x0000000000000000000000000000000000001010",
          "topics": [
            "0x4dfe1bbbcf077ddc3e01291eea2d5c70c2b422b415d95645b9adcfd678cb1d63",
            "0x0000000000000000000000000000000000000000000000000000000000001010",
            "0x0000000000000000000000008de56f797ff4aa43224ac277f04d595a30f782d6",
            "0x0000000000000000000000007ee41d8a25641000661b1ef5e6ae8a00400466b0"
          ],
          "data": "0x000000000000000000000000000000000000000000000000000c814d469d44360000000000000000000000000000000000000000000000049ba9c42e04de69510000000000000000000000000000000000000000000031c848063aa90e5688fd0000000000000000000000000000000000000000000000049b9d42e0be41251b0000000000000000000000000000000000000000000031c84812bbf654f3cd33",
          "blockHash": "0xaac9ba7d05f509c701d6180036eff924cf6114d477fac2d34e84bada46b78b92",
          "blockNumber": "0x22001bc",
          "blockTimestamp": "0x69c3ad73",
          "transactionHash": "0x5b60178b175f4793e0e7b5ac8b0c3ec0da9f44d4ee5d13c658495e06b62563db",
          "transactionIndex": "0x3",
          "logIndex": "0x5",
          "removed": false
        }
      ],
      "logsBloom": "0x00000000000000000000000000000000000000000000000000000000004000000000000000000000000000000000000000008000000000000000000000000000000000000000000000000000000000800000000000000000000100000000000000000000000000000400000000000000000000000000000080000000000000000000000000000000020000000400000000000000000000000000000000000000200000000000000000000000000000000000000000000000000000000000004000000000000000000001000000000000000000400000000000100000004000000000000000000000000000000000000000000000000000000000000000100000",
      "type": "0x0",
      "transactionHash": "0x5b60178b175f4793e0e7b5ac8b0c3ec0da9f44d4ee5d13c658495e06b62563db",
      "transactionIndex": "0x3",
      "blockHash": "0xaac9ba7d05f509c701d6180036eff924cf6114d477fac2d34e84bada46b78b92",
      "blockNumber": "0x22001bc",
      "gasUsed": "0xb51a",
      "effectiveGasPrice": "0x11ad44d986",
      "from": "0x8de56f797ff4aa43224ac277f04d595a30f782d6",
      "to": "0x64c467feafed4592537ce33ae52228b936c5d84a",
      "contractAddress": null
    },
    {
      "status": "0x1",
      "cumulativeGasUsed": "0x45bc9c",
      "logs": [
        {
          "address": "0x0000000000000000000000000000000000001010",
          "topics": [
            "0x4dfe1bbbcf077ddc3e01291eea2d5c70c2b422b415d95645b9adcfd678cb1d63",
            "0x0000000000000000000000000000000000000000000000000000000000001010",
            "0x0000000000000000000000008de56f797ff4aa43224ac277f04d595a30f782d6",
            "0x0000000000000000000000007ee41d8a25641000661b1ef5e6ae8a00400466b0"
          ],
          "data": "0x0000000000000000000000000000000000000000000000000030a742eb77a7440000000000000000000000000000000000000000000000049b9d42e0be1493b50000000000000000000000000000000000000000000031c84812bbf654f3cd330000000000000000000000000000000000000000000000049b6c9b9dd29cec710000000000000000000000000000000000000000000031c848436339406b7477",
          "blockHash": "0xaac9ba7d05f509c701d6180036eff924cf6114d477fac2d34e84bada46b78b92",
          "blockNumber": "0x22001bc",
          "blockTimestamp": "0x69c3ad73",
          "transactionHash": "0xcfecd65dffb7b622291ca06cf00c109c8c2e654e533d7dfe06022f892322a441",
          "transactionIndex": "0x4",
          "logIndex": "0x6",
          "removed": false
        }
      ],
      "logsBloom": "0x00000000000000000000000000000000000000000000000000000000004000000000000000000000000000000000000000008000000000000000000000000000000000000000000000000000000000800000000000000000000100000000000000000000000000000400000000000000000000000000000080000000000000000000000000000000020000000400000000000000000000000000000000000000200000000000000000000000000000000000000000000000000000000000004000000000000000000001000000000000000000400000000000100000004000000000000000000000000000000000000000000000000000000000000000100000",
      "type": "0x0",
      "transactionHash": "0xcfecd65dffb7b622291ca06cf00c109c8c2e654e533d7dfe06022f892322a441",
      "transactionIndex": "0x4",
      "blockHash": "0xaac9ba7d05f509c701d6180036eff924cf6114d477fac2d34e84bada46b78b92",
      "blockNumber": "0x22001bc",
      "gasUsed": "0x2c09c",
      "effectiveGasPrice": "0x11ad44d986",
      "from": "0x8de56f797ff4aa43224ac277f04d595a30f782d6",
      "to": "0x64c467feafed4592537ce33ae52228b936c5d84a",
      "contractAddress": null
    },
    {
      "status": "0x1",
      "cumulativeGasUsed": "0x48e8bc",
      "logs": [
        {
          "address": "0x0000000000000000000000000000000000001010",
          "topics": [
            "0x4dfe1bbbcf077ddc3e01291eea2d5c70c2b422b415d95645b9adcfd678cb1d63",
            "0x0000000000000000000000000000000000000000000000000000000000001010",
            "0x0000000000000000000000008de56f797ff4aa43224ac277f04d595a30f782d6",
            "0x0000000000000000000000007ee41d8a25641000661b1ef5e6ae8a00400466b0"
          ],
          "data": "0x000000000000000000000000000000000000000000000000003813cc09c85ce00000000000000000000000000000000000000000000000049b6c9b9dd1ef860d0000000000000000000000000000000000000000000031c848436339406b74770000000000000000000000000000000000000000000000049b3487d1c827292d0000000000000000000000000000000000000000000031c8487b77054a33d157",
          "blockHash": "0xaac9ba7d05f509c701d6180036eff924cf6114d477fac2d34e84bada46b78b92",
          "blockNumber": "0x22001bc",
          "blockTimestamp": "0x69c3ad73",
          "transactionHash": "0xf41c9912773787c867f2e62bb3be060e8661999fe6a4ee5fed5c74bc3f0f553a",
          "transactionIndex": "0x5",
          "logIndex": "0x7",
          "removed": false
        }
      ],
      "logsBloom": "0x00000000000000000000000000000000000000000000000000000000004000000000000000000000000000000000000000008000000000000000000000000000000000000000000000000000000000800000000000000000000100000000000000000000000000000400000000000000000000000000000080000000000000000000000000000000020000000400000000000000000000000000000000000000200000000000000000000000000000000000000000000000000000000000004000000000000000000001000000000000000000400000000000100000004000000000000000000000000000000000000000000000000000000000000000100000",
      "type": "0x0",
      "transactionHash": "0xf41c9912773787c867f2e62bb3be060e8661999fe6a4ee5fed5c74bc3f0f553a",
      "transactionIndex": "0x5",
      "blockHash": "0xaac9ba7d05f509c701d6180036eff924cf6114d477fac2d34e84bada46b78b92",
      "blockNumber": "0x22001bc",
      "gasUsed": "0x32c20",
      "effectiveGasPrice": "0x11ad44d986",
      "from": "0x8de56f797ff4aa43224ac277f04d595a30f782d6",
      "to": "0x64c467feafed4592537ce33ae52228b936c5d84a",
      "contractAddress": null
    },
    {
      "status": "0x1",
      "cumulativeGasUsed": "0x4c14dc",
      "logs": [
        {
          "address": "0x0000000000000000000000000000000000001010",
          "topics": [
            "0x4dfe1bbbcf077ddc3e01291eea2d5c70c2b422b415d95645b9adcfd678cb1d63",
            "0x0000000000000000000000000000000000000000000000000000000000001010",
            "0x0000000000000000000000008de56f797ff4aa43224ac277f04d595a30f782d6",
            "0x0000000000000000000000007ee41d8a25641000661b1ef5e6ae8a00400466b0"
          ],
          "data": "0x000000000000000000000000000000000000000000000000003813cc09c85ce00000000000000000000000000000000000000000000000049b3487d1c75f4d4d0000000000000000000000000000000000000000000031c8487b77054a33d1570000000000000000000000000000000000000000000000049afc7405bd96f06d0000000000000000000000000000000000000000000031c848b38ad153fc2e37",
          "blockHash": "0xaac9ba7d05f509c701d6180036eff924cf6114d477fac2d34e84bada46b78b92",
          "blockNumber": "0x22001bc",
          "blockTimestamp": "0x69c3ad73",
          "transactionHash": "0xa93d4b4261b119825b084dd67910033ab252eeea0e6becbf41d7066026b8a128",
          "transactionIndex": "0x6",
          "logIndex": "0x8",
          "removed": false
        }
      ],
      "logsBloom": "0x00000000000000000000000000000000000000000000000000000000004000000000000000000000000000000000000000008000000000000000000000000000000000000000000000000000000000800000000000000000000100000000000000000000000000000400000000000000000000000000000080000000000000000000000000000000020000000400000000000000000000000000000000000000200000000000000000000000000000000000000000000000000000000000004000000000000000000001000000000000000000400000000000100000004000000000000000000000000000000000000000000000000000000000000000100000",
      "type": "0x0",
      "transactionHash": "0xa93d4b4261b119825b084dd67910033ab252eeea0e6becbf41d7066026b8a128",
      "transactionIndex": "0x6",
      "blockHash": "0xaac9ba7d05f509c701d6180036eff924cf6114d477fac2d34e84bada46b78b92",
      "blockNumber": "0x22001bc",
      "gasUsed": "0x32c20",
      "effectiveGasPrice": "0x11ad44d986",
      "from": "0x8de56f797ff4aa43224ac277f04d595a30f782d6",
      "to": "0x64c467feafed4592537ce33ae52228b936c5d84a",
      "contractAddress": null
    },
    {
      "status": "0x1",
      "cumulativeGasUsed": "0x4f40fc",
      "logs": [
        {
          "address": "0x0000000000000000000000000000000000001010",
          "topics": [
            "0x4dfe1bbbcf077ddc3e01291eea2d5c70c2b422b415d95645b9adcfd678cb1d63",
            "0x0000000000000000000000000000000000000000000000000000000000001010",
            "0x0000000000000000000000008de56f797ff4aa43224ac277f04d595a30f782d6",
            "0x0000000000000000000000007ee41d8a25641000661b1ef5e6ae8a00400466b0"
          ],
          "data": "0x000000000000000000000000000000000000000000000000003813cc09c85ce00000000000000000000000000000000000000000000000049afc7405bccf148d0000000000000000000000000000000000000000000031c848b38ad153fc2e370000000000000000000000000000000000000000000000049ac46039b306b7ad0000000000000000000000000000000000000000000031c848eb9e9d5dc48b17",
          "blockHash": "0xaac9ba7d05f509c701d6180036eff924cf6114d477fac2d34e84bada46b78b92",
          "blockNumber": "0x22001bc",
          "blockTimestamp": "0x69c3ad73",
          "transactionHash": "0x59febe59bd4f45859346fb4738dc5f2c942e64d29c3eeee2241330e6d970f68e",
          "transactionIndex": "0x7",
          "logIndex": "0x9",
          "removed": false
        }
      ],
      "logsBloom": "0x00000000000000000000000000000000000000000000000000000000004000000000000000000000000000000000000000008000000000000000000000000000000000000000000000000000000000800000000000000000000100000000000000000000000000000400000000000000000000000000000080000000000000000000000000000000020000000400000000000000000000000000000000000000200000000000000000000000000000000000000000000000000000000000004000000000000000000001000000000000000000400000000000100000004000000000000000000000000000000000000000000000000000000000000000100000",
      "type": "0x0",
      "transactionHash": "0x59febe59bd4f45859346fb4738dc5f2c942e64d29c3eeee2241330e6d970f68e",
      "transactionIndex": "0x7",
      "blockHash": "0xaac9ba7d05f509c701d6180036eff924cf6114d477fac2d34e84bada46b78b92",
      "blockNumber": "0x22001bc",
      "gasUsed": "0x32c20",
      "effectiveGasPrice": "0x11ad44d986",
      "from": "0x8de56f797ff4aa43224ac277f04d595a30f782d6",
      "to": "0x64c467feafed4592537ce33ae52228b936c5d84a",
      "contractAddress": null
    },
    {
      "status": "0x1",
      "cumulativeGasUsed": "0x526d04",
      "logs": [
        {
          "address": "0x0000000000000000000000000000000000001010",
          "topics": [
            "0x4dfe1bbbcf077ddc3e01291eea2d5c70c2b422b415d95645b9adcfd678cb1d63",
            "0x0000000000000000000000000000000000000000000000000000000000001010",
            "0x0000000000000000000000008de56f797ff4aa43224ac277f04d595a30f782d6",
            "0x0000000000000000000000007ee41d8a25641000661b1ef5e6ae8a00400466b0"
          ],
          "data": "0x00000000000000000000000000000000000000000000000000381223cb53fe380000000000000000000000000000000000000000000000049ac46039b23edbcd0000000000000000000000000000000000000000000031c848eb9e9d5dc48b170000000000000000000000000000000000000000000000049a8c4e15e6eadd950000000000000000000000000000000000000000000031c84923b0c12918894f",
          "blockHash": "0xaac9ba7d05f509c701d6180036eff924cf6114d477fac2d34e84bada46b78b92",
          "blockNumber": "0x22001bc",
          "blockTimestamp": "0x69c3ad73",
          "transactionHash": "0xc43606f80c53412841313f319f4436a0fdee898919d2636bfa18671b0eceb1c1",
          "transactionIndex": "0x8",
          "logIndex": "0xa",
          "removed": false
        }
      ],
      "logsBloom": "0x00000000000000000000000000000000000000000000000000000000004000000000000000000000000000000000000000008000000000000000000000000000000000000000000000000000000000800000000000000000000100000000000000000000000000000400000000000000000000000000000080000000000000000000000000000000020000000400000000000000000000000000000000000000200000000000000000000000000000000000000000000000000000000000004000000000000000000001000000000000000000400000000000100000004000000000000000000000000000000000000000000000000000000000000000100000",
      "type": "0x0",
      "transactionHash": "0xc43606f80c53412841313f319f4436a0fdee898919d2636bfa18671b0eceb1c1",
      "transactionIndex": "0x8",
      "blockHash": "0xaac9ba7d05f509c701d6180036eff924cf6114d477fac2d34e84bada46b78b92",
      "blockNumber": "0x22001bc",
      "gasUsed": "0x32c08",
      "effectiveGasPrice": "0x11ad44d986",
      "from": "0x8de56f797ff4aa43224ac277f04d595a30f782d6",
      "to": "0x64c467feafed4592537ce33ae52228b936c5d84a",
      "contractAddress": null
    },
    {
      "status": "0x1",
      "cumulativeGasUsed": "0x559924",
      "logs": [
        {
          "address": "0x0000000000000000000000000000000000001010",
          "topics": [
            "0x4dfe1bbbcf077ddc3e01291eea2d5c70c2b422b415d95645b9adcfd678cb1d63",
            "0x0000000000000000000000000000000000000000000000000000000000001010",
            "0x0000000000000000000000008de56f797ff4aa43224ac277f04d595a30f782d6",
            "0x0000000000000000000000007ee41d8a25641000661b1ef5e6ae8a00400466b0"
          ],
          "data": "0x000000000000000000000000000000000000000000000000003813cc09c85ce00000000000000000000000000000000000000000000000049a8c4e15e623079d0000000000000000000000000000000000000000000031c84923b0c12918894f0000000000000000000000000000000000000000000000049a543a49dc5aaabd0000000000000000000000000000000000000000000031c8495bc48d32e0e62f",
          "blockHash": "0xaac9ba7d05f509c701d6180036eff924cf6114d477fac2d34e84bada46b78b92",
          "blockNumber": "0x22001bc",
          "blockTimestamp": "0x69c3ad73",
          "transactionHash": "0x1020e405d3c97a2324a5c3cd24e97e56324be9088feaf1cd9ad3c959cbfcb36c",
          "transactionIndex": "0x9",
          "logIndex": "0xb",
          "removed": false
        }
      ],
      "logsBloom": "0x00000000000000000000000000000000000000000000000000000000004000000000000000000000000000000000000000008000000000000000000000000000000000000000000000000000000000800000000000000000000100000000000000000000000000000400000000000000000000000000000080000000000000000000000000000000020000000400000000000000000000000000000000000000200000000000000000000000000000000000000000000000000000000000004000000000000000000001000000000000000000400000000000100000004000000000000000000000000000000000000000000000000000000000000000100000",
      "type": "0x0",
      "transactionHash": "0x1020e405d3c97a2324a5c3cd24e97e56324be9088feaf1cd9ad3c959cbfcb36c",
      "transactionIndex": "0x9",
      "blockHash": "0xaac9ba7d05f509c701d6180036eff924cf6114d477fac2d34e84bada46b78b92",
      "blockNumber": "0x22001bc",
      "gasUsed": "0x32c20",
      "effectiveGasPrice": "0x11ad44d986",
      "from": "0x8de56f797ff4aa43224ac277f04d595a30f782d6",
      "to": "0x64c467feafed4592537ce33ae52228b936c5d84a",
      "contractAddress": null
    },
    {
      "status": "0x1",
      "cumulativeGasUsed": "0x58c544",
      "logs": [
        {
          "address": "0x0000000000000000000000000000000000001010",
          "topics": [
            "0x4dfe1bbbcf077ddc3e01291eea2d5c70c2b422b415d95645b9adcfd678cb1d63",
            "0x0000000000000000000000000000000000000000000000000000000000001010",
            "0x0000000000000000000000008de56f797ff4aa43224ac277f04d595a30f782d6",
            "0x0000000000000000000000007ee41d8a25641000661b1ef5e6ae8a00400466b0"
          ],
          "data": "0x000000000000000000000000000000000000000000000000003813cc09c85ce00000000000000000000000000000000000000000000000049a543a49db92cedd0000000000000000000000000000000000000000000031c8495bc48d32e0e62f0000000000000000000000000000000000000000000000049a1c267dd1ca71fd0000000000000000000000000000000000000000000031c84993d8593ca9430f",
          "blockHash": "0xaac9ba7d05f509c701d6180036eff924cf6114d477fac2d34e84bada46b78b92",
          "blockNumber": "0x22001bc",
          "blockTimestamp": "0x69c3ad73",
          "transactionHash": "0xd56cb25f387d7daf88545e973c96e3f0c9b6d603593e8fd4d13852788df8595a",
          "transactionIndex": "0xa",
          "logIndex": "0xc",
          "removed": false
        }
      ],
      "logsBloom": "0x00000000000000000000000000000000000000000000000000000000004000000000000000000000000000000000000000008000000000000000000000000000000000000000000000000000000000800000000000000000000100000000000000000000000000000400000000000000000000000000000080000000000000000000000000000000020000000400000000000000000000000000000000000000200000000000000000000000000000000000000000000000000000000000004000000000000000000001000000000000000000400000000000100000004000000000000000000000000000000000000000000000000000000000000000100000",
      "type": "0x0",
      "transactionHash": "0xd56cb25f387d7daf88545e973c96e3f0c9b6d603593e8fd4d13852788df8595a",
      "transactionIndex": "0xa",
      "blockHash": "0xaac9ba7d05f509c701d6180036eff924cf6114d477fac2d34e84bada46b78b92",
      "blockNumber": "0x22001bc",
      "gasUsed": "0x32c20",
      "effectiveGasPrice": "0x11ad44d986",
      "from": "0x8de56f797ff4aa43224ac277f04d595a30f782d6",
      "to": "0x64c467feafed4592537ce33ae52228b936c5d84a",
      "contractAddress": null
    },
    {
      "status": "0x1",
      "cumulativeGasUsed": "0x5bf164",
      "logs": [
        {
          "address": "0x0000000000000000000000000000000000001010",
          "topics": [
            "0x4dfe1bbbcf077ddc3e01291eea2d5c70c2b422b415d95645b9adcfd678cb1d63",
            "0x0000000000000000000000000000000000000000000000000000000000001010",
            "0x0000000000000000000000008de56f797ff4aa43224ac277f04d595a30f782d6",
            "0x0000000000000000000000007ee41d8a25641000661b1ef5e6ae8a00400466b0"
          ],
          "data": "0x000000000000000000000000000000000000000000000000003813cc09c85ce00000000000000000000000000000000000000000000000049a1c267dd102961d0000000000000000000000000000000000000000000031c84993d8593ca9430f00000000000000000000000000000000000000000000000499e412b1c73a393d0000000000000000000000000000000000000000000031c849cbec2546719fef",
          "blockHash": "0xaac9ba7d05f509c701d6180036eff924cf6114d477fac2d34e84bada46b78b92",
          "blockNumber": "0x22001bc",
          "blockTimestamp": "0x69c3ad73",
          "transactionHash": "0xe06343f451537ea1e23104f680f8d72c77102b5bada0217aeae0ff190299148b",
          "transactionIndex": "0xb",
          "logIndex": "0xd",
          "removed": false
        }
      ],
      "logsBloom": "0x00000000000000000000000000000000000000000000000000000000004000000000000000000000000000000000000000008000000000000000000000000000000000000000000000000000000000800000000000000000000100000000000000000000000000000400000000000000000000000000000080000000000000000000000000000000020000000400000000000000000000000000000000000000200000000000000000000000000000000000000000000000000000000000004000000000000000000001000000000000000000400000000000100000004000000000000000000000000000000000000000000000000000000000000000100000",
      "type": "0x0",
      "transactionHash": "0xe06343f451537ea1e23104f680f8d72c77102b5bada0217aeae0ff190299148b",
      "transactionIndex": "0xb",
      "blockHash": "0xaac9ba7d05f509c701d6180036eff924cf6114d477fac2d34e84bada46b78b92",
      "blockNumber": "0x22001bc",
      "gasUsed": "0x32c20",
      "effectiveGasPrice": "0x11ad44d986",
      "from": "0x8de56f797ff4aa43224ac277f04d595a30f782d6",
      "to": "0x64c467feafed4592537ce33ae52228b936c5d84a",
      "contractAddress": null
    },
    {
      "status": "0x1",
      "cumulativeGasUsed": "0x5f1d84",
      "logs": [
        {
          "address": "0x0000000000000000000000000000000000001010",
          "topics": [
            "0x4dfe1bbbcf077ddc3e01291eea2d5c70c2b422b415d95645b9adcfd678cb1d63",
            "0x0000000000000000000000000000000000000000000000000000000000001010",
            "0x0000000000000000000000008de56f797ff4aa43224ac277f04d595a30f782d6",
            "0x0000000000000000000000007ee41d8a25641000661b1ef5e6ae8a00400466b0"
          ],
          "data": "0x000000000000000000000000000000000000000000000000003813cc09c85ce000000000000000000000000000000000000000000000000499e412b1c6725d5d0000000000000000000000000000000000000000000031c849cbec2546719fef00000000000000000000000000000000000000000000000499abfee5bcaa007d0000000000000000000000000000000000000000000031c84a03fff15039fccf",
          "blockHash": "0xaac9ba7d05f509c701d6180036eff924cf6114d477fac2d34e84bada46b78b92",
          "blockNumber": "0x22001bc",
          "blockTimestamp": "0x69c3ad73",
          "transactionHash": "0x504f0e65b03e1bf49f7891c7cfcbb672bcca23a5fa970a899d8ef8e3eb73cc56",
          "transactionIndex": "0xc",
          "logIndex": "0xe",
          "removed": false
        }
      ],
      "logsBloom": "0x00000000000000000000000000000000000000000000000000000000004000000000000000000000000000000000000000008000000000000000000000000000000000000000000000000000000000800000000000000000000100000000000000000000000000000400000000000000000000000000000080000000000000000000000000000000020000000400000000000000000000000000000000000000200000000000000000000000000000000000000000000000000000000000004000000000000000000001000000000000000000400000000000100000004000000000000000000000000000000000000000000000000000000000000000100000",
      "type": "0x0",
      "transactionHash": "0x504f0e65b03e1bf49f7891c7cfcbb672bcca23a5fa970a899d8ef8e3eb73cc56",
      "transactionIndex": "0xc",
      "blockHash": "0xaac9ba7d05f509c701d6180036eff924cf6114d477fac2d34e84bada46b78b92",
      "blockNumber": "0x22001bc",
      "gasUsed": "0x32c20",
      "effectiveGasPrice": "0x11ad44d986",
      "from": "0x8de56f797ff4aa43224ac277f04d595a30f782d6",
      "to": "0x64c467feafed4592537ce33ae52228b936c5d84a",
      "contractAddress": null
    },
    {
      "status": "0x1",
      "cumulativeGasUsed": "0x624998",
      "logs": [
        {
          "address": "0x0000000000000000000000000000000000001010",
          "topics": [
            "0x4dfe1bbbcf077ddc3e01291eea2d5c70c2b422b415d95645b9adcfd678cb1d63",
            "0x0000000000000000000000000000000000000000000000000000000000001010",
            "0x0000000000000000000000008de56f797ff4aa43224ac277f04d595a30f782d6",
            "0x0000000000000000000000007ee41d8a25641000661b1ef5e6ae8a00400466b0"
          ],
          "data": "0x000000000000000000000000000000000000000000000000003812f7ea8e2d8c00000000000000000000000000000000000000000000000499abfee5bbe2249d0000000000000000000000000000000000000000000031c84a03fff15039fccf0000000000000000000000000000000000000000000000049973ebedd153f7110000000000000000000000000000000000000000000031c84a3c12e93ac82a5b",
          "blockHash": "0xaac9ba7d05f509c701d6180036eff924cf6114d477fac2d34e84bada46b78b92",
          "blockNumber": "0x22001bc",
          "blockTimestamp": "0x69c3ad73",
          "transactionHash": "0x85ac889cd8080ab75bcf6c2bba1c2d55e1f8f11b3ec0bb05f766361bf2064b06",
          "transactionIndex": "0xd",
          "logIndex": "0xf",
          "removed": false
        }
      ],
      "logsBloom": "0x00000000000000000000000000000000000000000000000000000000004000000000000000000000000000000000000000008000000000000000000000000000000000000000000000000000000000800000000000000000000100000000000000000000000000000400000000000000000000000000000080000000000000000000000000000000020000000400000000000000000000000000000000000000200000000000000000000000000000000000000000000000000000000000004000000000000000000001000000000000000000400000000000100000004000000000000000000000000000000000000000000000000000000000000000100000",
      "type": "0x0",
      "transactionHash": "0x85ac889cd8080ab75bcf6c2bba1c2d55e1f8f11b3ec0bb05f766361bf2064b06",
      "transactionIndex": "0xd",
      "blockHash": "0xaac9ba7d05f509c701d6180036eff924cf6114d477fac2d34e84bada46b78b92",
      "blockNumber": "0x22001bc",
      "gasUsed": "0x32c14",
      "effectiveGasPrice": "0x11ad44d986",
      "from": "0x8de56f797ff4aa43224ac277f04d595a30f782d6",
      "to": "0x64c467feafed4592537ce33ae52228b936c5d84a",
      "contractAddress": null
    },
    {
      "status": "0x1",
      "cumulativeGasUsed": "0x6575b8",
      "logs": [
        {
          "address": "0x0000000000000000000000000000000000001010",
          "topics": [
            "0x4dfe1bbbcf077ddc3e01291eea2d5c70c2b422b415d95645b9adcfd678cb1d63",
            "0x0000000000000000000000000000000000000000000000000000000000001010",
            "0x0000000000000000000000008de56f797ff4aa43224ac277f04d595a30f782d6",
            "0x0000000000000000000000007ee41d8a25641000661b1ef5e6ae8a00400466b0"
          ],
          "data": "0x000000000000000000000000000000000000000000000000003813cc09c85ce00000000000000000000000000000000000000000000000049973ebedd08c1e250000000000000000000000000000000000000000000031c84a3c12e93ac82a5b000000000000000000000000000000000000000000000004993bd821c6c3c1450000000000000000000000000000000000000000000031c84a7426b54490873b",
          "blockHash": "0xaac9ba7d05f509c701d6180036eff924cf6114d477fac2d34e84bada46b78b92",
          "blockNumber": "0x22001bc",
          "blockTimestamp": "0x69c3ad73",
          "transactionHash": "0x4ba5982a54f8d9df3eae23d8945f8fbf6732c154d71fc76e9ad0eb3a0dc0cfc3",
          "transactionIndex": "0xe",
          "logIndex": "0x10",
          "removed": false
        }
      ],
      "logsBloom": "0x00000000000000000000000000000000000000000000000000000000004000000000000000000000000000000000000000008000000000000000000000000000000000000000000000000000000000800000000000000000000100000000000000000000000000000400000000000000000000000000000080000000000000000000000000000000020000000400000000000000000000000000000000000000200000000000000000000000000000000000000000000000000000000000004000000000000000000001000000000000000000400000000000100000004000000000000000000000000000000000000000000000000000000000000000100000",
      "type": "0x0",
      "transactionHash": "0x4ba5982a54f8d9df3eae23d8945f8fbf6732c154d71fc76e9ad0eb3a0dc0cfc3",
      "transactionIndex": "0xe",
      "blockHash": "0xaac9ba7d05f509c701d6180036eff924cf6114d477fac2d34e84bada46b78b92",
      "blockNumber": "0x22001bc",
      "gasUsed": "0x32c20",
      "effectiveGasPrice": "0x11ad44d986",
      "from": "0x8de56f797ff4aa43224ac277f04d595a30f782d6",
      "to": "0x64c467feafed4592537ce33ae52228b936c5d84a",
      "contractAddress": null
    },
    {
      "status": "0x1",
      "cumulativeGasUsed": "0x68a1d8",
      "logs": [
        {
          "address": "0x0000000000000000000000000000000000001010",
          "topics": [
            "0x4dfe1bbbcf077ddc3e01291eea2d5c70c2b422b415d95645b9adcfd678cb1d63",
            "0x0000000000000000000000000000000000000000000000000000000000001010",
            "0x0000000000000000000000008de56f797ff4aa43224ac277f04d595a30f782d6",
            "0x0000000000000000000000007ee41d8a25641000661b1ef5e6ae8a00400466b0"
          ],
          "data": "0x000000000000000000000000000000000000000000000000003813cc09c85ce0000000000000000000000000000000000000000000000004993bd821c5fbe5650000000000000000000000000000000000000000000031c84a7426b54490873b0000000000000000000000000000000000000000000000049903c455bc3388850000000000000000000000000000000000000000000031c84aac3a814e58e41b",
          "blockHash": "0xaac9ba7d05f509c701d6180036eff924cf6114d477fac2d34e84bada46b78b92",
          "blockNumber": "0x22001bc",
          "blockTimestamp": "0x69c3ad73",
          "transactionHash": "0x577ecd27404b084fdfb1550e94f347ba4b69400bb4519792edbe61904685f986",
          "transactionIndex": "0xf",
          "logIndex": "0x11",
          "removed": false
        }
      ],
      "logsBloom": "0x00000000000000000000000000000000000000000000000000000000004000000000000000000000000000000000000000008000000000000000000000000000000000000000000000000000000000800000000000000000000100000000000000000000000000000400000000000000000000000000000080000000000000000000000000000000020000000400000000000000000000000000000000000000200000000000000000000000000000000000000000000000000000000000004000000000000000000001000000000000000000400000000000100000004000000000000000000000000000000000000000000000000000000000000000100000",
      "type": "0x0",
      "transactionHash": "0x577ecd27404b084fdfb1550e94f347ba4b69400bb4519792edbe61904685f986",
      "transactionIndex": "0xf",
      "blockHash": "0xaac9ba7d05f509c701d6180036eff924cf6114d477fac2d34e84bada46b78b92",
      "blockNumber": "0x22001bc",
      "gasUsed": "0x32c20",
      "effectiveGasPrice": "0x11ad44d986",
      "from": "0x8de56f797ff4aa43224ac277f04d595a30f782d6",
      "to": "0x64c467feafed4592537ce33ae52228b936c5d84a",
      "contractAddress": null
    }
  ],
  "libraries": [
    "src/GameLib.sol:GameLib:0x89c022ccd1086ccBa07E4F83b79312369B28EB48"
  ],
  "pending": [],
  "returns": {},
  "timestamp": 1774431603489,
  "chain": 80002,
  "commit": "d8031c5"
}