{
  "transactions": [
    {
      "hash": "0xfe0320bb05cac5eabfb75ea11041d250f411bc1ed89f346fccc2dd266fd6d1bf",
      "transactionType": "CALL",
      "contractName": null,
      "contractAddress": "0x501dabac8cc2800cfe819bc3ed005b8e39d223f3",
      "function": "mintScript(bytes)",
      "arguments": [
        "0x0807000000000000000000000000000000030100000000000002000000000000000b0100000000000007000203ff0000140a01000000000000070100000000000010000200000005ff00000014010100000003ff0000000200000000000000000000000000000000000000000000010000050200000005ff0000000f050700000006000400000000000000000000000000000000000000000000000000020005060b00000004ff000000030607000000060004000000000000000000000000000000000000000000000000000200060207000000060004000000020200000003ff0000000a000200000003ff0000001e010100000003ff000000030200020307000000060004000000030200000003ff0000000a000200000003ff0000001e010100000003ff000000030200030407000000060004000000040200000003ff0000000a000200000003ff0000001e010100000003ff000000030200040507000000060004000000050200000003ff0000000a000200000003ff0000001e010100000003ff000000030200050207000000030004000000000000000000000000000000000000000000000000000000000000000000000000030002000800000005ff00000002000000000000000000000000000000000000000000000000000000000000000000030600001700000001ff00000000040700000003ff00000003000200000003ff000000320000000000000000000000040004030000000003ff00000005030700000006ff00000004000d00000005000e000000010000000003ff00000000020003040000000003ff00000005040700000006ff00000004000d00000005000e000000010000000003ff00000005020004050000000003ff00000005050700000006ff00000004000d00000005000e000000010000000003ff0000000a020005060000000003ff00000005060700000006ff00000004000d00000005000e000000010000000003ff0000000f020006070000000003ff00000005070700000006ff00000004000d00000005000e000000010000000003ff000000140200070000000000000000000000000000000000000000000000000000000000000000000000000000000000000000030600"
      ],
      "transaction": {
        "from": "0x8de56f797ff4aa43224ac277f04d595a30f782d6",
        "to": "0x501dabac8cc2800cfe819bc3ed005b8e39d223f3",
        "gas": "0xf289f",
        "value": "0x0",
        "input": "0x99809499000000000000000000000000000000000000000000000000000000000000002000000000000000000000000000000000000000000000000000000000000003320807000000000000000000000000000000030100000000000002000000000000000b0100000000000007000203ff0000140a01000000000000070100000000000010000200000005ff00000014010100000003ff0000000200000000000000000000000000000000000000000000010000050200000005ff0000000f050700000006000400000000000000000000000000000000000000000000000000020005060b00000004ff000000030607000000060004000000000000000000000000000000000000000000000000000200060207000000060004000000020200000003ff0000000a000200000003ff0000001e010100000003ff000000030200020307000000060004000000030200000003ff0000000a000200000003ff0000001e010100000003ff000000030200030407000000060004000000040200000003ff0000000a000200000003ff0000001e010100000003ff000000030200040507000000060004000000050200000003ff0000000a000200000003ff0000001e010100000003ff000000030200050207000000030004000000000000000000000000000000000000000000000000000000000000000000000000030002000800000005ff00000002000000000000000000000000000000000000000000000000000000000000000000030600001700000001ff00000000040700000003ff00000003000200000003ff000000320000000000000000000000040004030000000003ff00000005030700000006ff00000004000d00000005000e000000010000000003ff00000000020003040000000003ff00000005040700000006ff00000004000d00000005000e000000010000000003ff00000005020004050000000003ff00000005050700000006ff00000004000d00000005000e000000010000000003ff0000000a020005060000000003ff00000005060700000006ff00000004000d00000005000e000000010000000003ff0000000f020006070000000003ff00000005070700000006ff00000004000d00000005000e000000010000000003ff0000001402000700000000000000000000000000000000000000000000000000000000000000000000000000000000000000000306000000000000000000000000000000",
        "nonce": "0xb5",
        "chainId": "0x13882"
      },
      "additionalContracts": [],
      "isFixedGasLimit": false
    },
    {
      "hash": "0x4876e274cb4daab6d3869efa2084ee880972fb6ef64d6ff9fd14330a27363738",
      "transactionType": "CALL",
      "contractName": null,
      "contractAddress": "0x3c3d2552bbdfeea59c85b619a24afe2472c69945",
      "function": "joinMatch(uint256,uint256,uint8)",
      "arguments": [
        "0",
        "3",
        "0"
      ],
      "transaction": {
        "from": "0x8de56f797ff4aa43224ac277f04d595a30f782d6",
        "to": "0x3c3d2552bbdfeea59c85b619a24afe2472c69945",
        "gas": "0x3348c",
        "value": "0x6f05b59d3b200000",
        "input": "0xbff89c2a000000000000000000000000000000000000000000000000000000000000000000000000000000000000000000000000000000000000000000000000000000030000000000000000000000000000000000000000000000000000000000000000",
        "nonce": "0xb6",
        "chainId": "0x13882"
      },
      "additionalContracts": [],
      "isFixedGasLimit": false
    },
    {
      "hash": "0x4af9850145996fe1748bee5bd1da31ecbb772791afceb9b3cea81f9e3cee93ae",
      "transactionType": "CALL",
      "contractName": null,
      "contractAddress": "0x501dabac8cc2800cfe819bc3ed005b8e39d223f3",
      "function": "mintScript(bytes)",
      "arguments": [
        "0x0807000000000000000000000000000000030100000000000002000000000000000b0100000000000007000203ff0000140a01000000000000070100000000000010000200000005ff00000014010100000003ff0000000200000000000000000000000000000000000000000000010000050200000005ff0000000f050700000006000400000000000000000000000000000000000000000000000000020005060b00000004ff000000030607000000060004000000000000000000000000000000000000000000000000000200060207000000060004000000020200000003ff0000000a000200000003ff0000001e010100000003ff000000030200020307000000060004000000030200000003ff0000000a000200000003ff0000001e010100000003ff000000030200030407000000060004000000040200000003ff0000000a000200000003ff0000001e010100000003ff000000030200040507000000060004000000050200000003ff0000000a000200000003ff0000001e010100000003ff000000030200050207000000030004000000000000000000000000000000000000000000000000000000000000000000000000030002000800000005ff00000002000000000000000000000000000000000000000000000000000000000000000000030600001700000001ff00000000040700000003ff00000003000200000003ff000000320000000000000000000000040004030000000003ff00000005030700000006ff00000004000d00000005000e000000010000000003ff00000000020003040000000003ff00000005040700000006ff00000004000d00000005000e000000010000000003ff00000005020004050000000003ff00000005050700000006ff00000004000d00000005000e000000010000000003ff0000000a020005060000000003ff00000005060700000006ff00000004000d00000005000e000000010000000003ff0000000f020006070000000003ff00000005070700000006ff00000004000d00000005000e000000010000000003ff000000140200070000000000000000000000000000000000000000000000000000000000000000000000000000000000000000030600"
      ],
      "transaction": {
        "from": "0xc15bd2eae18fca607c7a0446ff646cbd1055ab67",
        "to": "0x501dabac8cc2800cfe819bc3ed005b8e39d223f3",
        "gas": "0xf289f",
        "value": "0x0",
        "input": "0x99809499000000000000000000000000000000000000000000000000000000000000002000000000000000000000000000000000000000000000000000000000000003320807000000000000000000000000000000030100000000000002000000000000000b0100000000000007000203ff0000140a01000000000000070100000000000010000200000005ff00000014010100000003ff0000000200000000000000000000000000000000000000000000010000050200000005ff0000000f050700000006000400000000000000000000000000000000000000000000000000020005060b00000004ff000000030607000000060004000000000000000000000000000000000000000000000000000200060207000000060004000000020200000003ff0000000a000200000003ff0000001e010100000003ff000000030200020307000000060004000000030200000003ff0000000a000200000003ff0000001e010100000003ff000000030200030407000000060004000000040200000003ff0000000a000200000003ff0000001e010100000003ff000000030200040507000000060004000000050200000003ff0000000a000200000003ff0000001e010100000003ff000000030200050207000000030004000000000000000000000000000000000000000000000000000000000000000000000000030002000800000005ff00000002000000000000000000000000000000000000000000000000000000000000000000030600001700000001ff00000000040700000003ff00000003000200000003ff000000320000000000000000000000040004030000000003ff00000005030700000006ff00000004000d00000005000e000000010000000003ff00000000020003040000000003ff00000005040700000006ff00000004000d00000005000e000000010000000003ff00000005020004050000000003ff00000005050700000006ff00000004000d00000005000e000000010000000003ff0000000a020005060000000003ff00000005060700000006ff00000004000d00000005000e000000010000000003ff0000000f020006070000000003ff00000005070700000006ff00000004000d00000005000e000000010000000003ff0000001402000700000000000000000000000000000000000000000000000000000000000000000000000000000000000000000306000000000000000000000000000000",
        "nonce": "0x1b",
        "chainId": "0x13882"
      },
      "additionalContracts": [],
      "isFixedGasLimit": false
    },
    {
      "hash": "0x74e5b9f160ba2a189b3216824b37c0aa077869623210799a629018a9979a5314",
      "transactionType": "CALL",
      "contractName": null,
      "contractAddress": "0x3c3d2552bbdfeea59c85b619a24afe2472c69945",
      "function": "joinMatch(uint256,uint256,uint8)",
      "arguments": [
        "1",
        "4",
        "0"
      ],
      "transaction": {
        "from": "0xc15bd2eae18fca607c7a0446ff646cbd1055ab67",
        "to": "0x3c3d2552bbdfeea59c85b619a24afe2472c69945",
        "gas": "0x363b0",
        "value": "0x6f05b59d3b200000",
        "input": "0xbff89c2a000000000000000000000000000000000000000000000000000000000000000100000000000000000000000000000000000000000000000000000000000000040000000000000000000000000000000000000000000000000000000000000000",
        "nonce": "0x1c",
        "chainId": "0x13882"
      },
      "additionalContracts": [],
      "isFixedGasLimit": false
    },
    {
      "hash": "0x83eda4d3fa2077813ab0df04e6a2997d8a464e9a094c4aa06de7562d8ab9c795",
      "transactionType": "CALL",
      "contractName": null,
      "contractAddress": "0x501dabac8cc2800cfe819bc3ed005b8e39d223f3",
      "function": "mintScript(bytes)",
      "arguments": [
        "0x0807000000000000000000000000000000030100000000000002000000000000000b0100000000000007000203ff0000140a01000000000000070100000000000010000200000005ff00000014010100000003ff0000000200000000000000000000000000000000000000000000010000050200000005ff0000000f050700000006000400000000000000000000000000000000000000000000000000020005060b00000004ff000000030607000000060004000000000000000000000000000000000000000000000000000200060207000000060004000000020200000003ff0000000a000200000003ff0000001e010100000003ff000000030200020307000000060004000000030200000003ff0000000a000200000003ff0000001e010100000003ff000000030200030407000000060004000000040200000003ff0000000a000200000003ff0000001e010100000003ff000000030200040507000000060004000000050200000003ff0000000a000200000003ff0000001e010100000003ff000000030200050207000000030004000000000000000000000000000000000000000000000000000000000000000000000000030002000800000005ff00000002000000000000000000000000000000000000000000000000000000000000000000030600001700000001ff00000000040700000003ff00000003000200000003ff000000320000000000000000000000040004030000000003ff00000005030700000006ff00000004000d00000005000e000000010000000003ff00000000020003040000000003ff00000005040700000006ff00000004000d00000005000e000000010000000003ff00000005020004050000000003ff00000005050700000006ff00000004000d00000005000e000000010000000003ff0000000a020005060000000003ff00000005060700000006ff00000004000d00000005000e000000010000000003ff0000000f020006070000000003ff00000005070700000006ff00000004000d00000005000e000000010000000003ff000000140200070000000000000000000000000000000000000000000000000000000000000000000000000000000000000000030600"
      ],
      "transaction": {
        "from": "0x0ec7f965127e4c57db223956b6b8f44ae57df704",
        "to": "0x501dabac8cc2800cfe819bc3ed005b8e39d223f3",
        "gas": "0xf289f",
        "value": "0x0",
        "input": "0x99809499000000000000000000000000000000000000000000000000000000000000002000000000000000000000000000000000000000000000000000000000000003320807000000000000000000000000000000030100000000000002000000000000000b0100000000000007000203ff0000140a01000000000000070100000000000010000200000005ff00000014010100000003ff0000000200000000000000000000000000000000000000000000010000050200000005ff0000000f050700000006000400000000000000000000000000000000000000000000000000020005060b00000004ff000000030607000000060004000000000000000000000000000000000000000000000000000200060207000000060004000000020200000003ff0000000a000200000003ff0000001e010100000003ff000000030200020307000000060004000000030200000003ff0000000a000200000003ff0000001e010100000003ff000000030200030407000000060004000000040200000003ff0000000a000200000003ff0000001e010100000003ff000000030200040507000000060004000000050200000003ff0000000a000200000003ff0000001e010100000003ff000000030200050207000000030004000000000000000000000000000000000000000000000000000000000000000000000000030002000800000005ff00000002000000000000000000000000000000000000000000000000000000000000000000030600001700000001ff00000000040700000003ff00000003000200000003ff000000320000000000000000000000040004030000000003ff00000005030700000006ff00000004000d00000005000e000000010000000003ff00000000020003040000000003ff00000005040700000006ff00000004000d00000005000e000000010000000003ff00000005020004050000000003ff00000005050700000006ff00000004000d00000005000e000000010000000003ff0000000a020005060000000003ff00000005060700000006ff00000004000d00000005000e000000010000000003ff0000000f020006070000000003ff00000005070700000006ff00000004000d00000005000e000000010000000003ff0000001402000700000000000000000000000000000000000000000000000000000000000000000000000000000000000000000306000000000000000000000000000000",
        "nonce": "0x1f",
        "chainId": "0x13882"
      },
      "additionalContracts": [],
      "isFixedGasLimit": false
    },
    {
      "hash": "0x04f58f966e4c78c236a384d08399e0b9d89b33254e6a494783e699ccfed960fd",
      "transactionType": "CALL",
      "contractName": null,
      "contractAddress": "0x3c3d2552bbdfeea59c85b619a24afe2472c69945",
      "function": "joinMatch(uint256,uint256,uint8)",
      "arguments": [
        "2",
        "5",
        "0"
      ],
      "transaction": {
        "from": "0x0ec7f965127e4c57db223956b6b8f44ae57df704",
        "to": "0x3c3d2552bbdfeea59c85b619a24afe2472c69945",
        "gas": "0x36f1d",
        "value": "0x6f05b59d3b200000",
        "input": "0xbff89c2a000000000000000000000000000000000000000000000000000000000000000200000000000000000000000000000000000000000000000000000000000000050000000000000000000000000000000000000000000000000000000000000000",
        "nonce": "0x20",
        "chainId": "0x13882"
      },
      "additionalContracts": [],
      "isFixedGasLimit": false
    },
    {
      "hash": "0x5ae0228dc78c63d3a46142a7e404afcbd36aabcde9b30f94a435d32bc25fb360",
      "transactionType": "CALL",
      "contractName": null,
      "contractAddress": "0x501dabac8cc2800cfe819bc3ed005b8e39d223f3",
      "function": "mintScript(bytes)",
      "arguments": [
        "0x0807000000000000000000000000000000030100000000000002000000000000000b0100000000000007000203ff0000140a01000000000000070100000000000010000200000005ff00000014010100000003ff0000000200000000000000000000000000000000000000000000010000050200000005ff0000000f050700000006000400000000000000000000000000000000000000000000000000020005060b00000004ff000000030607000000060004000000000000000000000000000000000000000000000000000200060207000000060004000000020200000003ff0000000a000200000003ff0000001e010100000003ff000000030200020307000000060004000000030200000003ff0000000a000200000003ff0000001e010100000003ff000000030200030407000000060004000000040200000003ff0000000a000200000003ff0000001e010100000003ff000000030200040507000000060004000000050200000003ff0000000a000200000003ff0000001e010100000003ff000000030200050207000000030004000000000000000000000000000000000000000000000000000000000000000000000000030002000800000005ff00000002000000000000000000000000000000000000000000000000000000000000000000030600001700000001ff00000000040700000003ff00000003000200000003ff000000320000000000000000000000040004030000000003ff00000005030700000006ff00000004000d00000005000e000000010000000003ff00000000020003040000000003ff00000005040700000006ff00000004000d00000005000e000000010000000003ff00000005020004050000000003ff00000005050700000006ff00000004000d00000005000e000000010000000003ff0000000a020005060000000003ff00000005060700000006ff00000004000d00000005000e000000010000000003ff0000000f020006070000000003ff00000005070700000006ff00000004000d00000005000e000000010000000003ff000000140200070000000000000000000000000000000000000000000000000000000000000000000000000000000000000000030600"
      ],
      "transaction": {
        "from": "0xd58f3f6fff4e15caa04bedafe664b1c65803183b",
        "to": "0x501dabac8cc2800cfe819bc3ed005b8e39d223f3",
        "gas": "0xf289f",
        "value": "0x0",
        "input": "0x99809499000000000000000000000000000000000000000000000000000000000000002000000000000000000000000000000000000000000000000000000000000003320807000000000000000000000000000000030100000000000002000000000000000b0100000000000007000203ff0000140a01000000000000070100000000000010000200000005ff00000014010100000003ff0000000200000000000000000000000000000000000000000000010000050200000005ff0000000f050700000006000400000000000000000000000000000000000000000000000000020005060b00000004ff000000030607000000060004000000000000000000000000000000000000000000000000000200060207000000060004000000020200000003ff0000000a000200000003ff0000001e010100000003ff000000030200020307000000060004000000030200000003ff0000000a000200000003ff0000001e010100000003ff000000030200030407000000060004000000040200000003ff0000000a000200000003ff0000001e010100000003ff000000030200040507000000060004000000050200000003ff0000000a000200000003ff0000001e010100000003ff000000030200050207000000030004000000000000000000000000000000000000000000000000000000000000000000000000030002000800000005ff00000002000000000000000000000000000000000000000000000000000000000000000000030600001700000001ff00000000040700000003ff00000003000200000003ff000000320000000000000000000000040004030000000003ff00000005030700000006ff00000004000d00000005000e000000010000000003ff00000000020003040000000003ff00000005040700000006ff00000004000d00000005000e000000010000000003ff00000005020004050000000003ff00000005050700000006ff00000004000d00000005000e000000010000000003ff0000000a020005060000000003ff00000005060700000006ff00000004000d00000005000e000000010000000003ff0000000f020006070000000003ff00000005070700000006ff00000004000d00000005000e000000010000000003ff0000001402000700000000000000000000000000000000000000000000000000000000000000000000000000000000000000000306000000000000000000000000000000",
        "nonce": "0x1e",
        "chainId": "0x13882"
      },
      "additionalContracts": [],
      "isFixedGasLimit": false
    },
    {
      "hash": "0xb53cf5ed2461e434b31ea0b628062414c554860b9d5ea0bac4ae4010d8fe47ba",
      "transactionType": "CALL",
      "contractName": null,
      "contractAddress": "0x3c3d2552bbdfeea59c85b619a24afe2472c69945",
      "function": "joinMatch(uint256,uint256,uint8)",
      "arguments": [
        "3",
        "6",
        "0"
      ],
      "transaction": {
        "from": "0xd58f3f6fff4e15caa04bedafe664b1c65803183b",
        "to": "0x3c3d2552bbdfeea59c85b619a24afe2472c69945",
        "gas": "0x36f1d",
        "value": "0x6f05b59d3b200000",
        "input": "0xbff89c2a000000000000000000000000000000000000000000000000000000000000000300000000000000000000000000000000000000000000000000000000000000060000000000000000000000000000000000000000000000000000000000000000",
        "nonce": "0x1f",
        "chainId": "0x13882"
      },
      "additionalContracts": [],
      "isFixedGasLimit": false
    },
    {
      "hash": "0x475e935119b4864ac6f4c9183fb0514cdb517f80b0d27a8adff6c0e5a7be5732",
      "transactionType": "CALL",
      "contractName": null,
      "contractAddress": "0x501dabac8cc2800cfe819bc3ed005b8e39d223f3",
      "function": "mintScript(bytes)",
      "arguments": [
        "0x0807000000000000000000000000000000030100000000000002000000000000000b0100000000000007000203ff0000140a01000000000000070100000000000010000200000005ff00000014010100000003ff0000000200000000000000000000000000000000000000000000010000050200000005ff0000000f050700000006000400000000000000000000000000000000000000000000000000020005060b00000004ff000000030607000000060004000000000000000000000000000000000000000000000000000200060207000000060004000000020200000003ff0000000a000200000003ff0000001e010100000003ff000000030200020307000000060004000000030200000003ff0000000a000200000003ff0000001e010100000003ff000000030200030407000000060004000000040200000003ff0000000a000200000003ff0000001e010100000003ff000000030200040507000000060004000000050200000003ff0000000a000200000003ff0000001e010100000003ff000000030200050207000000030004000000000000000000000000000000000000000000000000000000000000000000000000030002000800000005ff00000002000000000000000000000000000000000000000000000000000000000000000000030600001700000001ff00000000040700000003ff00000003000200000003ff000000320000000000000000000000040004030000000003ff00000005030700000006ff00000004000d00000005000e000000010000000003ff00000000020003040000000003ff00000005040700000006ff00000004000d00000005000e000000010000000003ff00000005020004050000000003ff00000005050700000006ff00000004000d00000005000e000000010000000003ff0000000a020005060000000003ff00000005060700000006ff00000004000d00000005000e000000010000000003ff0000000f020006070000000003ff00000005070700000006ff00000004000d00000005000e000000010000000003ff000000140200070000000000000000000000000000000000000000000000000000000000000000000000000000000000000000030600"
      ],
      "transaction": {
        "from": "0xc0ddfaf6c73c06f5ccc36670deb59a2ee0dfc19c",
        "to": "0x501dabac8cc2800cfe819bc3ed005b8e39d223f3",
        "gas": "0xf289f",
        "value": "0x0",
        "input": "0x99809499000000000000000000000000000000000000000000000000000000000000002000000000000000000000000000000000000000000000000000000000000003320807000000000000000000000000000000030100000000000002000000000000000b0100000000000007000203ff0000140a01000000000000070100000000000010000200000005ff00000014010100000003ff0000000200000000000000000000000000000000000000000000010000050200000005ff0000000f050700000006000400000000000000000000000000000000000000000000000000020005060b00000004ff000000030607000000060004000000000000000000000000000000000000000000000000000200060207000000060004000000020200000003ff0000000a000200000003ff0000001e010100000003ff000000030200020307000000060004000000030200000003ff0000000a000200000003ff0000001e010100000003ff000000030200030407000000060004000000040200000003ff0000000a000200000003ff0000001e010100000003ff000000030200040507000000060004000000050200000003ff0000000a000200000003ff0000001e010100000003ff000000030200050207000000030004000000000000000000000000000000000000000000000000000000000000000000000000030002000800000005ff00000002000000000000000000000000000000000000000000000000000000000000000000030600001700000001ff00000000040700000003ff00000003000200000003ff000000320000000000000000000000040004030000000003ff00000005030700000006ff00000004000d00000005000e000000010000000003ff00000000020003040000000003ff00000005040700000006ff00000004000d00000005000e000000010000000003ff00000005020004050000000003ff00000005050700000006ff00000004000d00000005000e000000010000000003ff0000000a020005060000000003ff00000005060700000006ff00000004000d00000005000e000000010000000003ff0000000f020006070000000003ff00000005070700000006ff00000004000d00000005000e000000010000000003ff0000001402000700000000000000000000000000000000000000000000000000000000000000000000000000000000000000000306000000000000000000000000000000",
        "nonce": "0x22",
        "chainId": "0x13882"
      },
      "additionalContracts": [],
      "isFixedGasLimit": false
    },
    {
      "hash": "0xa3788a1f5ed7c23c08d668e16932cd414240038f8a767da6ca7a91a4063af300",
      "transactionType": "CALL",
      "contractName": null,
      "contractAddress": "0x3c3d2552bbdfeea59c85b619a24afe2472c69945",
      "function": "joinMatch(uint256,uint256,uint8)",
      "arguments": [
        "4",
        "7",
        "0"
      ],
      "transaction": {
        "from": "0xc0ddfaf6c73c06f5ccc36670deb59a2ee0dfc19c",
        "to": "0x3c3d2552bbdfeea59c85b619a24afe2472c69945",
        "gas": "0x363b0",
        "value": "0x6f05b59d3b200000",
        "input": "0xbff89c2a000000000000000000000000000000000000000000000000000000000000000400000000000000000000000000000000000000000000000000000000000000070000000000000000000000000000000000000000000000000000000000000000",
        "nonce": "0x23",
        "chainId": "0x13882"
      },
      "additionalContracts": [],
      "isFixedGasLimit": false
    },
    {
      "hash": "0x7ced56f013831359242787357d8ef02ba256df5c7faf7d6f309b49a41fd3ef3e",
      "transactionType": "CALL",
      "contractName": null,
      "contractAddress": "0x501dabac8cc2800cfe819bc3ed005b8e39d223f3",
      "function": "mintScript(bytes)",
      "arguments": [
        "0x0807000000000000000000000000000000030100000000000002000000000000000b0100000000000007000203ff0000140a01000000000000070100000000000010000200000005ff00000014010100000003ff0000000200000000000000000000000000000000000000000000010000050200000005ff0000000f050700000006000400000000000000000000000000000000000000000000000000020005060b00000004ff000000030607000000060004000000000000000000000000000000000000000000000000000200060207000000060004000000020200000003ff0000000a000200000003ff0000001e010100000003ff000000030200020307000000060004000000030200000003ff0000000a000200000003ff0000001e010100000003ff000000030200030407000000060004000000040200000003ff0000000a000200000003ff0000001e010100000003ff000000030200040507000000060004000000050200000003ff0000000a000200000003ff0000001e010100000003ff000000030200050207000000030004000000000000000000000000000000000000000000000000000000000000000000000000030002000800000005ff00000002000000000000000000000000000000000000000000000000000000000000000000030600001700000001ff00000000040700000003ff00000003000200000003ff000000320000000000000000000000040004030000000003ff00000005030700000006ff00000004000d00000005000e000000010000000003ff00000000020003040000000003ff00000005040700000006ff00000004000d00000005000e000000010000000003ff00000005020004050000000003ff00000005050700000006ff00000004000d00000005000e000000010000000003ff0000000a020005060000000003ff00000005060700000006ff00000004000d00000005000e000000010000000003ff0000000f020006070000000003ff00000005070700000006ff00000004000d00000005000e000000010000000003ff000000140200070000000000000000000000000000000000000000000000000000000000000000000000000000000000000000030600"
      ],
      "transaction": {
        "from": "0x0cefb748b5afebc47dbe7ea934916cb14ac8e678",
        "to": "0x501dabac8cc2800cfe819bc3ed005b8e39d223f3",
        "gas": "0xf289f",
        "value": "0x0",
        "input": "0x99809499000000000000000000000000000000000000000000000000000000000000002000000000000000000000000000000000000000000000000000000000000003320807000000000000000000000000000000030100000000000002000000000000000b0100000000000007000203ff0000140a01000000000000070100000000000010000200000005ff00000014010100000003ff0000000200000000000000000000000000000000000000000000010000050200000005ff0000000f050700000006000400000000000000000000000000000000000000000000000000020005060b00000004ff000000030607000000060004000000000000000000000000000000000000000000000000000200060207000000060004000000020200000003ff0000000a000200000003ff0000001e010100000003ff000000030200020307000000060004000000030200000003ff0000000a000200000003ff0000001e010100000003ff000000030200030407000000060004000000040200000003ff0000000a000200000003ff0000001e010100000003ff000000030200040507000000060004000000050200000003ff0000000a000200000003ff0000001e010100000003ff000000030200050207000000030004000000000000000000000000000000000000000000000000000000000000000000000000030002000800000005ff00000002000000000000000000000000000000000000000000000000000000000000000000030600001700000001ff00000000040700000003ff00000003000200000003ff000000320000000000000000000000040004030000000003ff00000005030700000006ff00000004000d00000005000e000000010000000003ff00000000020003040000000003ff00000005040700000006ff00000004000d00000005000e000000010000000003ff00000005020004050000000003ff00000005050700000006ff00000004000d00000005000e000000010000000003ff0000000a020005060000000003ff00000005060700000006ff00000004000d00000005000e000000010000000003ff0000000f020006070000000003ff00000005070700000006ff00000004000d00000005000e000000010000000003ff0000001402000700000000000000000000000000000000000000000000000000000000000000000000000000000000000000000306000000000000000000000000000000",
        "nonce": "0x19",
        "chainId": "0x13882"
      },
      "additionalContracts": [],
      "isFixedGasLimit": false
    },
    {
      "hash": "0xc1be884992a38d39dd2568af82a9eca0308f13a687e41357b01d93ead7a8c009",
      "transactionType": "CALL",
      "contractName": null,
      "contractAddress": "0x3c3d2552bbdfeea59c85b619a24afe2472c69945",
      "function": "joinMatch(uint256,uint256,uint8)",
      "arguments": [
        "5",
        "8",
        "0"
      ],
      "transaction": {
        "from": "0x0cefb748b5afebc47dbe7ea934916cb14ac8e678",
        "to": "0x3c3d2552bbdfeea59c85b619a24afe2472c69945",
        "gas": "0x36f1d",
        "value": "0x6f05b59d3b200000",
        "input": "0xbff89c2a000000000000000000000000000000000000000000000000000000000000000500000000000000000000000000000000000000000000000000000000000000080000000000000000000000000000000000000000000000000000000000000000",
        "nonce": "0x1a",
        "chainId": "0x13882"
      },
      "additionalContracts": [],
      "isFixedGasLimit": false
    },
    {
      "hash": "0x1fd6bd53d21523a2adfce9336a16dc4b91cfc9b71970d9832d99e7615932434e",
      "transactionType": "CALL",
      "contractName": null,
      "contractAddress": "0x501dabac8cc2800cfe819bc3ed005b8e39d223f3",
      "function": "mintScript(bytes)",
      "arguments": [
        "0x0807000000000000000000000000000000030100000000000002000000000000000b0100000000000007000203ff0000140a01000000000000070100000000000010000200000005ff00000014010100000003ff0000000200000000000000000000000000000000000000000000010000050200000005ff0000000f050700000006000400000000000000000000000000000000000000000000000000020005060b00000004ff000000030607000000060004000000000000000000000000000000000000000000000000000200060207000000060004000000020200000003ff0000000a000200000003ff0000001e010100000003ff000000030200020307000000060004000000030200000003ff0000000a000200000003ff0000001e010100000003ff000000030200030407000000060004000000040200000003ff0000000a000200000003ff0000001e010100000003ff000000030200040507000000060004000000050200000003ff0000000a000200000003ff0000001e010100000003ff000000030200050207000000030004000000000000000000000000000000000000000000000000000000000000000000000000030002000800000005ff00000002000000000000000000000000000000000000000000000000000000000000000000030600001700000001ff00000000040700000003ff00000003000200000003ff000000320000000000000000000000040004030000000003ff00000005030700000006ff00000004000d00000005000e000000010000000003ff00000000020003040000000003ff00000005040700000006ff00000004000d00000005000e000000010000000003ff00000005020004050000000003ff00000005050700000006ff00000004000d00000005000e000000010000000003ff0000000a020005060000000003ff00000005060700000006ff00000004000d00000005000e000000010000000003ff0000000f020006070000000003ff00000005070700000006ff00000004000d00000005000e000000010000000003ff000000140200070000000000000000000000000000000000000000000000000000000000000000000000000000000000000000030600"
      ],
      "transaction": {
        "from": "0xfa0e503051f60c5e1c4a712c84d53961195eb96a",
        "to": "0x501dabac8cc2800cfe819bc3ed005b8e39d223f3",
        "gas": "0xf289f",
        "value": "0x0",
        "input": "0x99809499000000000000000000000000000000000000000000000000000000000000002000000000000000000000000000000000000000000000000000000000000003320807000000000000000000000000000000030100000000000002000000000000000b0100000000000007000203ff0000140a01000000000000070100000000000010000200000005ff00000014010100000003ff0000000200000000000000000000000000000000000000000000010000050200000005ff0000000f050700000006000400000000000000000000000000000000000000000000000000020005060b00000004ff000000030607000000060004000000000000000000000000000000000000000000000000000200060207000000060004000000020200000003ff0000000a000200000003ff0000001e010100000003ff000000030200020307000000060004000000030200000003ff0000000a000200000003ff0000001e010100000003ff000000030200030407000000060004000000040200000003ff0000000a000200000003ff0000001e010100000003ff000000030200040507000000060004000000050200000003ff0000000a000200000003ff0000001e010100000003ff000000030200050207000000030004000000000000000000000000000000000000000000000000000000000000000000000000030002000800000005ff00000002000000000000000000000000000000000000000000000000000000000000000000030600001700000001ff00000000040700000003ff00000003000200000003ff000000320000000000000000000000040004030000000003ff00000005030700000006ff00000004000d00000005000e000000010000000003ff00000000020003040000000003ff00000005040700000006ff00000004000d00000005000e000000010000000003ff00000005020004050000000003ff00000005050700000006ff00000004000d00000005000e000000010000000003ff0000000a020005060000000003ff00000005060700000006ff00000004000d00000005000e000000010000000003ff0000000f020006070000000003ff00000005070700000006ff00000004000d00000005000e000000010000000003ff0000001402000700000000000000000000000000000000000000000000000000000000000000000000000000000000000000000306000000000000000000000000000000",
        "nonce": "0x1c",
        "chainId": "0x13882"
      },
      "additionalContracts": [],
      "isFixedGasLimit": false
    },
    {
      "hash": "0xde3ee562517d57a7c8fe9875afe901bbdca055485032d49bee70c3b4fd7a3f81",
      "transactionType": "CALL",
      "contractName": null,
      "contractAddress": "0x3c3d2552bbdfeea59c85b619a24afe2472c69945",
      "function": "joinMatch(uint256,uint256,uint8)",
      "arguments": [
        "6",
        "9",
        "0"
      ],
      "transaction": {
        "from": "0xfa0e503051f60c5e1c4a712c84d53961195eb96a",
        "to": "0x3c3d2552bbdfeea59c85b619a24afe2472c69945",
        "gas": "0x36f1d",
        "value": "0x6f05b59d3b200000",
        "input": "0xbff89c2a000000000000000000000000000000000000000000000000000000000000000600000000000000000000000000000000000000000000000000000000000000090000000000000000000000000000000000000000000000000000000000000000",
        "nonce": "0x1d",
        "chainId": "0x13882"
      },
      "additionalContracts": [],
      "isFixedGasLimit": false
    },
    {
      "hash": "0x7a195724cf68c2add695280c91c4c31ae03da1268cbcecac878f1e34e2b690f8",
      "transactionType": "CALL",
      "contractName": null,
      "contractAddress": "0x501dabac8cc2800cfe819bc3ed005b8e39d223f3",
      "function": "mintScript(bytes)",
      "arguments": [
        "0x0807000000000000000000000000000000030100000000000002000000000000000b0100000000000007000203ff0000140a01000000000000070100000000000010000200000005ff00000014010100000003ff0000000200000000000000000000000000000000000000000000010000050200000005ff0000000f050700000006000400000000000000000000000000000000000000000000000000020005060b00000004ff000000030607000000060004000000000000000000000000000000000000000000000000000200060207000000060004000000020200000003ff0000000a000200000003ff0000001e010100000003ff000000030200020307000000060004000000030200000003ff0000000a000200000003ff0000001e010100000003ff000000030200030407000000060004000000040200000003ff0000000a000200000003ff0000001e010100000003ff000000030200040507000000060004000000050200000003ff0000000a000200000003ff0000001e010100000003ff000000030200050207000000030004000000000000000000000000000000000000000000000000000000000000000000000000030002000800000005ff00000002000000000000000000000000000000000000000000000000000000000000000000030600001700000001ff00000000040700000003ff00000003000200000003ff000000320000000000000000000000040004030000000003ff00000005030700000006ff00000004000d00000005000e000000010000000003ff00000000020003040000000003ff00000005040700000006ff00000004000d00000005000e000000010000000003ff00000005020004050000000003ff00000005050700000006ff00000004000d00000005000e000000010000000003ff0000000a020005060000000003ff00000005060700000006ff00000004000d00000005000e000000010000000003ff0000000f020006070000000003ff00000005070700000006ff00000004000d00000005000e000000010000000003ff000000140200070000000000000000000000000000000000000000000000000000000000000000000000000000000000000000030600"
      ],
      "transaction": {
        "from": "0x0b00144644ba73e8f83ccdcad5c838ccf9fdc581",
        "to": "0x501dabac8cc2800cfe819bc3ed005b8e39d223f3",
        "gas": "0xf289f",
        "value": "0x0",
        "input": "0x99809499000000000000000000000000000000000000000000000000000000000000002000000000000000000000000000000000000000000000000000000000000003320807000000000000000000000000000000030100000000000002000000000000000b0100000000000007000203ff0000140a01000000000000070100000000000010000200000005ff00000014010100000003ff0000000200000000000000000000000000000000000000000000010000050200000005ff0000000f050700000006000400000000000000000000000000000000000000000000000000020005060b00000004ff000000030607000000060004000000000000000000000000000000000000000000000000000200060207000000060004000000020200000003ff0000000a000200000003ff0000001e010100000003ff000000030200020307000000060004000000030200000003ff0000000a000200000003ff0000001e010100000003ff000000030200030407000000060004000000040200000003ff0000000a000200000003ff0000001e010100000003ff000000030200040507000000060004000000050200000003ff0000000a000200000003ff0000001e010100000003ff000000030200050207000000030004000000000000000000000000000000000000000000000000000000000000000000000000030002000800000005ff00000002000000000000000000000000000000000000000000000000000000000000000000030600001700000001ff00000000040700000003ff00000003000200000003ff000000320000000000000000000000040004030000000003ff00000005030700000006ff00000004000d00000005000e000000010000000003ff00000000020003040000000003ff00000005040700000006ff00000004000d00000005000e000000010000000003ff00000005020004050000000003ff00000005050700000006ff00000004000d00000005000e000000010000000003ff0000000a020005060000000003ff00000005060700000006ff00000004000d00000005000e000000010000000003ff0000000f020006070000000003ff00000005070700000006ff00000004000d00000005000e000000010000000003ff0000001402000700000000000000000000000000000000000000000000000000000000000000000000000000000000000000000306000000000000000000000000000000",
        "nonce": "0x1a",
        "chainId": "0x13882"
      },
      "additionalContracts": [],
      "isFixedGasLimit": false
    },
    {
      "hash": "0x698e61cb6ad530ca2b5ab77472fefc1564bbc994a1c9a451c378d22af995cca1",
      "transactionType": "CALL",
      "contractName": null,
      "contractAddress": "0x3c3d2552bbdfeea59c85b619a24afe2472c69945",
      "function": "joinMatch(uint256,uint256,uint8)",
      "arguments": [
        "7",
        "10",
        "0"
      ],
      "transaction": {
        "from": "0x0b00144644ba73e8f83ccdcad5c838ccf9fdc581",
        "to": "0x3c3d2552bbdfeea59c85b619a24afe2472c69945",
        "gas": "0x363b0",
        "value": "0x6f05b59d3b200000",
        "input": "0xbff89c2a0000000000000000000000000000000000000000000000000000000000000007000000000000000000000000000000000000000000000000000000000000000a0000000000000000000000000000000000000000000000000000000000000000",
        "nonce": "0x1b",
        "chainId": "0x13882"
      },
      "additionalContracts": [],
      "isFixedGasLimit": false
    },
    {
      "hash": "0x48d7693751abf984e729967cf73e7ad7020ec8e74c886dd40da79e5748f173b9",
      "transactionType": "CALL",
      "contractName": null,
      "contractAddress": "0x0cd7c44903b6d09b1e910a0c625be8fe8746d3c3",
      "function": "manualExecute(uint256)",
      "arguments": [
        "3"
      ],
      "transaction": {
        "from": "0x8de56f797ff4aa43224ac277f04d595a30f782d6",
        "to": "0x0cd7c44903b6d09b1e910a0c625be8fe8746d3c3",
        "gas": "0xec6643",
        "value": "0x0",
        "input": "0x5740f5800000000000000000000000000000000000000000000000000000000000000003",
        "nonce": "0xb7",
        "chainId": "0x13882"
      },
      "additionalContracts": [],
      "isFixedGasLimit": false
    }
  ],
  "receipts": [
    {
      "status": "0x1",
      "cumulativeGasUsed": "0xe18fa",
      "logs": [
        {
          "address": "0x501dabac8cc2800cfe819bc3ed005b8e39d223f3",
          "topics": [
            "0xddf252ad1be2c89b69c2b068fc378daa952ba7f163c4a11628f55a4df523b3ef",
            "0x0000000000000000000000000000000000000000000000000000000000000000",
            "0x0000000000000000000000008de56f797ff4aa43224ac277f04d595a30f782d6",
            "0x0000000000000000000000000000000000000000000000000000000000000003"
          ],
          "data": "0x",
          "blockHash": "0xb5fabdc1c48d2cd7e385a047d318d4f1be3d6817e23511056c91d5e41fe8a193",
          "blockNumber": "0x21bf0d9",
          "blockTimestamp": "0x69bb8b9f",
          "transactionHash": "0xfe0320bb05cac5eabfb75ea11041d250f411bc1ed89f346fccc2dd266fd6d1bf",
          "transactionIndex": "0x2",
          "logIndex": "0x6",
          "removed": false
        },
        {
          "address": "0x0000000000000000000000000000000000001010",
          "topics": [
            "0x4dfe1bbbcf077ddc3e01291eea2d5c70c2b422b415d95645b9adcfd678cb1d63",
            "0x0000000000000000000000000000000000000000000000000000000000001010",
            "0x0000000000000000000000008de56f797ff4aa43224ac277f04d595a30f782d6",
            "0x0000000000000000000000007ee41d8a25641000661b1ef5e6ae8a00400466b0"
          ],
          "data": "0x000000000000000000000000000000000000000000000000004865e91064e400000000000000000000000000000000000000000000000006c639a47f0041560a000000000000000000000000000000000000000000002f2497a8ce7afc367f2f000000000000000000000000000000000000000000000006c5f13e95efdc720a000000000000000000000000000000000000000000002f2497f134640c9b632f",
          "blockHash": "0xb5fabdc1c48d2cd7e385a047d318d4f1be3d6817e23511056c91d5e41fe8a193",
          "blockNumber": "0x21bf0d9",
          "blockTimestamp": "0x69bb8b9f",
          "transactionHash": "0xfe0320bb05cac5eabfb75ea11041d250f411bc1ed89f346fccc2dd266fd6d1bf",
          "transactionIndex": "0x2",
          "logIndex": "0x7",
          "removed": false
        }
      ],
      "logsBloom": "0x00000000000000000000000000000000000000000000000000000000004000000000000000000000000000000000000000008000020000000000000000000000000000000000000000000008000000800000000000000000000100000000000000000000020000000400000000000800000000000000000080000010000000000000000000000000020000000400000000000000000000000000000000000000280000000000000000000000000000000000100000800000000000000000604000000002000000000001000000000000000000400000000000100000004020000000000000000000000000000000000000000000000000000000000000100000",
      "type": "0x2",
      "transactionHash": "0xfe0320bb05cac5eabfb75ea11041d250f411bc1ed89f346fccc2dd266fd6d1bf",
      "transactionIndex": "0x2",
      "blockHash": "0xb5fabdc1c48d2cd7e385a047d318d4f1be3d6817e23511056c91d5e41fe8a193",
      "blockNumber": "0x21bf0d9",
      "gasUsed": "0xa5d6b",
      "effectiveGasPrice": "0x6fc23ac3f",
      "from": "0x8de56f797ff4aa43224ac277f04d595a30f782d6",
      "to": "0x501dabac8cc2800cfe819bc3ed005b8e39d223f3",
      "contractAddress": null
    },
    {
      "status": "0x1",
      "cumulativeGasUsed": "0x25210",
      "logs": [
        {
          "address": "0x0000000000000000000000000000000000001010",
          "topics": [
            "0xe6497e3ee548a3372136af2fcb0696db31fc6cf20260707645068bd3fe97f3c4",
            "0x0000000000000000000000000000000000000000000000000000000000001010",
            "0x0000000000000000000000008de56f797ff4aa43224ac277f04d595a30f782d6",
            "0x0000000000000000000000003c3d2552bbdfeea59c85b619a24afe2472c69945"
          ],
          "data": "0x0000000000000000000000000000000000000000000000006f05b59d3b200000000000000000000000000000000000000000000000000006c5dadb21c6137641000000000000000000000000000000000000000000000003782dace9d900000000000000000000000000000000000000000000000000000656d525848af37641000000000000000000000000000000000000000000000003e733628714200000",
          "blockHash": "0x284f2537ccd4eddee6a1fd712de3513970a0c764a879fc10f16e72c3f7fb3c9e",
          "blockNumber": "0x21bf0db",
          "blockTimestamp": "0x69bb8ba3",
          "transactionHash": "0x4876e274cb4daab6d3869efa2084ee880972fb6ef64d6ff9fd14330a27363738",
          "transactionIndex": "0x0",
          "logIndex": "0x0",
          "removed": false
        },
        {
          "address": "0x0000000000000000000000000000000000001010",
          "topics": [
            "0x4dfe1bbbcf077ddc3e01291eea2d5c70c2b422b415d95645b9adcfd678cb1d63",
            "0x0000000000000000000000000000000000000000000000000000000000001010",
            "0x0000000000000000000000008de56f797ff4aa43224ac277f04d595a30f782d6",
            "0x0000000000000000000000007ee41d8a25641000661b1ef5e6ae8a00400466b0"
          ],
          "data": "0x0000000000000000000000000000000000000000000000000010357a8752c000000000000000000000000000000000000000000000000006c5f13e95ed4f74b5000000000000000000000000000000000000000000002f24981e5e6e28aa228f000000000000000000000000000000000000000000000006c5e1091b65fcb4b5000000000000000000000000000000000000000000002f24982e93e8affce28f",
          "blockHash": "0x284f2537ccd4eddee6a1fd712de3513970a0c764a879fc10f16e72c3f7fb3c9e",
          "blockNumber": "0x21bf0db",
          "blockTimestamp": "0x69bb8ba3",
          "transactionHash": "0x4876e274cb4daab6d3869efa2084ee880972fb6ef64d6ff9fd14330a27363738",
          "transactionIndex": "0x0",
          "logIndex": "0x1",
          "removed": false
        }
      ],
      "logsBloom": "0x00000000000000000000000000000000000000000000000000000000004000000000000000000000000000100000000000008000000000000000000000000000000000000000000000000000000000800000000000000000000100000000000000000000000000000400000000000000000000000000000080000000000000000000000000000000020000000400000000000000000000000000000000000000200000000000000000000000000000000000200000000000000000000000004000000000000000000001000000000000000000400000800000108000004000000000000000008000000000000000000000000000000800000000000000100000",
      "type": "0x2",
      "transactionHash": "0x4876e274cb4daab6d3869efa2084ee880972fb6ef64d6ff9fd14330a27363738",
      "transactionIndex": "0x0",
      "blockHash": "0x284f2537ccd4eddee6a1fd712de3513970a0c764a879fc10f16e72c3f7fb3c9e",
      "blockNumber": "0x21bf0db",
      "gasUsed": "0x25210",
      "effectiveGasPrice": "0x6fc23ac3f",
      "from": "0x8de56f797ff4aa43224ac277f04d595a30f782d6",
      "to": "0x3c3d2552bbdfeea59c85b619a24afe2472c69945",
      "contractAddress": null
    },
    {
      "status": "0x1",
      "cumulativeGasUsed": "0xa5d6b",
      "logs": [
        {
          "address": "0x501dabac8cc2800cfe819bc3ed005b8e39d223f3",
          "topics": [
            "0xddf252ad1be2c89b69c2b068fc378daa952ba7f163c4a11628f55a4df523b3ef",
            "0x0000000000000000000000000000000000000000000000000000000000000000",
            "0x000000000000000000000000c15bd2eae18fca607c7a0446ff646cbd1055ab67",
            "0x0000000000000000000000000000000000000000000000000000000000000004"
          ],
          "data": "0x",
          "blockHash": "0x266eca16b50d0418699d4eb8785494e2fae18c7265a8941cbef98c4876dc0acd",
          "blockNumber": "0x21bf0dd",
          "blockTimestamp": "0x69bb8ba7",
          "transactionHash": "0x4af9850145996fe1748bee5bd1da31ecbb772791afceb9b3cea81f9e3cee93ae",
          "transactionIndex": "0x0",
          "logIndex": "0x0",
          "removed": false
        },
        {
          "address": "0x0000000000000000000000000000000000001010",
          "topics": [
            "0x4dfe1bbbcf077ddc3e01291eea2d5c70c2b422b415d95645b9adcfd678cb1d63",
            "0x0000000000000000000000000000000000000000000000000000000000001010",
            "0x000000000000000000000000c15bd2eae18fca607c7a0446ff646cbd1055ab67",
            "0x0000000000000000000000007ee41d8a25641000661b1ef5e6ae8a00400466b0"
          ],
          "data": "0x000000000000000000000000000000000000000000000000004865e91064e4000000000000000000000000000000000000000000000000027c214b0fd20036d1000000000000000000000000000000000000000000002f24982e93e8affce28f0000000000000000000000000000000000000000000000027bd8e526c19b52d1000000000000000000000000000000000000000000002f249876f9d1c061c68f",
          "blockHash": "0x266eca16b50d0418699d4eb8785494e2fae18c7265a8941cbef98c4876dc0acd",
          "blockNumber": "0x21bf0dd",
          "blockTimestamp": "0x69bb8ba7",
          "transactionHash": "0x4af9850145996fe1748bee5bd1da31ecbb772791afceb9b3cea81f9e3cee93ae",
          "transactionIndex": "0x0",
          "logIndex": "0x1",
          "removed": false
        }
      ],
      "logsBloom": "0x00000000000000000000000000000000000000000000000000000000000000000800000000000000000000000000000000008000000000000000000000000000000000000000000000000008000000800000000000000000000100000000000008800000020000000000000000000810000000000000000080000010000000000000000000000000020000000400000000000000000000000000000000000000280000000000000000000000000000000000100000000000002000000000204000000002000000000001000000000000000000408000000000100000000020000000000000000000000000000000000000000000000000000000000000100000",
      "type": "0x2",
      "transactionHash": "0x4af9850145996fe1748bee5bd1da31ecbb772791afceb9b3cea81f9e3cee93ae",
      "transactionIndex": "0x0",
      "blockHash": "0x266eca16b50d0418699d4eb8785494e2fae18c7265a8941cbef98c4876dc0acd",
      "blockNumber": "0x21bf0dd",
      "gasUsed": "0xa5d6b",
      "effectiveGasPrice": "0x6fc23ac3f",
      "from": "0xc15bd2eae18fca607c7a0446ff646cbd1055ab67",
      "to": "0x501dabac8cc2800cfe819bc3ed005b8e39d223f3",
      "contractAddress": null
    },
    {
      "status": "0x1",
      "cumulativeGasUsed": "0x7d593",
      "logs": [
        {
          "address": "0x0000000000000000000000000000000000001010",
          "topics": [
            "0xe6497e3ee548a3372136af2fcb0696db31fc6cf20260707645068bd3fe97f3c4",
            "0x0000000000000000000000000000000000000000000000000000000000001010",
            "0x000000000000000000000000c15bd2eae18fca607c7a0446ff646cbd1055ab67",
            "0x0000000000000000000000003c3d2552bbdfeea59c85b619a24afe2472c69945"
          ],
          "data": "0x0000000000000000000000000000000000000000000000006f05b59d3b2000000000000000000000000000000000000000000000000000027bc1386c962e8d2c000000000000000000000000000000000000000000000003e7336287142000000000000000000000000000000000000000000000000000020cbb82cf5b0e8d2c000000000000000000000000000000000000000000000004563918244f400000",
          "blockHash": "0x49d7f87b83f86a2f3c17aabbe10f0a77b413b2a889bdc0b3e8bd82b1b912f5e0",
          "blockNumber": "0x21bf0df",
          "blockTimestamp": "0x69bb8bab",
          "transactionHash": "0x74e5b9f160ba2a189b3216824b37c0aa077869623210799a629018a9979a5314",
          "transactionIndex": "0x2",
          "logIndex": "0x6",
          "removed": false
        },
        {
          "address": "0x0000000000000000000000000000000000001010",
          "topics": [
            "0x4dfe1bbbcf077ddc3e01291eea2d5c70c2b422b415d95645b9adcfd678cb1d63",
            "0x0000000000000000000000000000000000000000000000000000000000001010",
            "0x000000000000000000000000c15bd2eae18fca607c7a0446ff646cbd1055ab67",
            "0x0000000000000000000000007ee41d8a25641000661b1ef5e6ae8a00400466b0"
          ],
          "data": "0x0000000000000000000000000000000000000000000000000010301a7fdf64000000000000000000000000000000000000000000000000027bd8e526bf0e557c000000000000000000000000000000000000000000002f2498ead92feb1792e20000000000000000000000000000000000000000000000027bc8b50c3f2ef17c000000000000000000000000000000000000000000002f2498fb094a6af6f6e2",
          "blockHash": "0x49d7f87b83f86a2f3c17aabbe10f0a77b413b2a889bdc0b3e8bd82b1b912f5e0",
          "blockNumber": "0x21bf0df",
          "blockTimestamp": "0x69bb8bab",
          "transactionHash": "0x74e5b9f160ba2a189b3216824b37c0aa077869623210799a629018a9979a5314",
          "transactionIndex": "0x2",
          "logIndex": "0x7",
          "removed": false
        }
      ],
      "logsBloom": "0x00000000000000000000000000000000000000000000000000000000000000000800000000000000000000100000000000008000000000000000000000000000000000000000000000000000000000800000000000000000000100000000000000800000000000000000000000000010000000000000000080000000000000000000000000000000020000000400000000000000000000000000000000000000200000000000000000000000000000000000200000000000000000000000004000000000000000000001000000000000000000400000800000108000000000000000000000008000000000000000000000000000000800000000000000100000",
      "type": "0x2",
      "transactionHash": "0x74e5b9f160ba2a189b3216824b37c0aa077869623210799a629018a9979a5314",
      "transactionIndex": "0x2",
      "blockHash": "0x49d7f87b83f86a2f3c17aabbe10f0a77b413b2a889bdc0b3e8bd82b1b912f5e0",
      "blockNumber": "0x21bf0df",
      "gasUsed": "0x2514b",
      "effectiveGasPrice": "0x6fc23ac3f",
      "from": "0xc15bd2eae18fca607c7a0446ff646cbd1055ab67",
      "to": "0x3c3d2552bbdfeea59c85b619a24afe2472c69945",
      "contractAddress": null
    },
    {
      "status": "0x1",
      "cumulativeGasUsed": "0xa5d6b",
      "logs": [
        {
          "address": "0x501dabac8cc2800cfe819bc3ed005b8e39d223f3",
          "topics": [
            "0xddf252ad1be2c89b69c2b068fc378daa952ba7f163c4a11628f55a4df523b3ef",
            "0x0000000000000000000000000000000000000000000000000000000000000000",
            "0x0000000000000000000000000ec7f965127e4c57db223956b6b8f44ae57df704",
            "0x0000000000000000000000000000000000000000000000000000000000000005"
          ],
          "data": "0x",
          "blockHash": "0xf1728766a7195a91d0f3151ef606573820cc4dffcf32dc747290fabfa260c8eb",
          "blockNumber": "0x21bf0e1",
          "blockTimestamp": "0x69bb8baf",
          "transactionHash": "0x83eda4d3fa2077813ab0df04e6a2997d8a464e9a094c4aa06de7562d8ab9c795",
          "transactionIndex": "0x0",
          "logIndex": "0x0",
          "removed": false
        },
        {
          "address": "0x0000000000000000000000000000000000001010",
          "topics": [
            "0x4dfe1bbbcf077ddc3e01291eea2d5c70c2b422b415d95645b9adcfd678cb1d63",
            "0x0000000000000000000000000000000000000000000000000000000000001010",
            "0x0000000000000000000000000ec7f965127e4c57db223956b6b8f44ae57df704",
            "0x0000000000000000000000007ee41d8a25641000661b1ef5e6ae8a00400466b0"
          ],
          "data": "0x000000000000000000000000000000000000000000000000004865e91064e400000000000000000000000000000000000000000000000001ef3db36203216038000000000000000000000000000000000000000000002f2498fb094a6af6f6e2000000000000000000000000000000000000000000000001eef54d78f2bc7c38000000000000000000000000000000000000000000002f2499436f337b5bdae2",
          "blockHash": "0xf1728766a7195a91d0f3151ef606573820cc4dffcf32dc747290fabfa260c8eb",
          "blockNumber": "0x21bf0e1",
          "blockTimestamp": "0x69bb8baf",
          "transactionHash": "0x83eda4d3fa2077813ab0df04e6a2997d8a464e9a094c4aa06de7562d8ab9c795",
          "transactionIndex": "0x0",
          "logIndex": "0x1",
          "removed": false
        }
      ],
      "logsBloom": "0x00000000000000000000000000000000000000000000000000000000000000000000000000000000000000000000000000008000000000000000000000000000000010000000000000000008000000800000000000000000000100000000000000000000020000000000000000000800400000001000000080000010000000000000000000000000020000000400001000000800000000000000000000000000280000000000000000000000000010000000100000000000000000000000204000000002000000000001000000000000000000400000000000100000000020000000000000000000000000000000000000000000000000000000000000100000",
      "type": "0x2",
      "transactionHash": "0x83eda4d3fa2077813ab0df04e6a2997d8a464e9a094c4aa06de7562d8ab9c795",
      "transactionIndex": "0x0",
      "blockHash": "0xf1728766a7195a91d0f3151ef606573820cc4dffcf32dc747290fabfa260c8eb",
      "blockNumber": "0x21bf0e1",
      "gasUsed": "0xa5d6b",
      "effectiveGasPrice": "0x6fc23ac3f",
      "from": "0x0ec7f965127e4c57db223956b6b8f44ae57df704",
      "to": "0x501dabac8cc2800cfe819bc3ed005b8e39d223f3",
      "contractAddress": null
    },
    {
      "status": "0x1",
      "cumulativeGasUsed": "0x2591b",
      "logs": [
        {
          "address": "0x0000000000000000000000000000000000001010",
          "topics": [
            "0xe6497e3ee548a3372136af2fcb0696db31fc6cf20260707645068bd3fe97f3c4",
            "0x0000000000000000000000000000000000000000000000000000000000001010",
            "0x0000000000000000000000000ec7f965127e4c57db223956b6b8f44ae57df704",
            "0x0000000000000000000000003c3d2552bbdfeea59c85b619a24afe2472c69945"
          ],
          "data": "0x0000000000000000000000000000000000000000000000006f05b59d3b200000000000000000000000000000000000000000000000000001eedd50efe3b8aac0000000000000000000000000000000000000000000000004563918244f4000000000000000000000000000000000000000000000000000017fd79b52a898aac0000000000000000000000000000000000000000000000004c53ecdc18a600000",
          "blockHash": "0xfb883b0d896f83f2068d77bee711e8742eb371ded7a42ed1c75e0b18c6dddb33",
          "blockNumber": "0x21bf0e3",
          "blockTimestamp": "0x69bb8bb3",
          "transactionHash": "0x04f58f966e4c78c236a384d08399e0b9d89b33254e6a494783e699ccfed960fd",
          "transactionIndex": "0x0",
          "logIndex": "0x0",
          "removed": false
        },
        {
          "address": "0x0000000000000000000000000000000000001010",
          "topics": [
            "0x4dfe1bbbcf077ddc3e01291eea2d5c70c2b422b415d95645b9adcfd678cb1d63",
            "0x0000000000000000000000000000000000000000000000000000000000001010",
            "0x0000000000000000000000000ec7f965127e4c57db223956b6b8f44ae57df704",
            "0x0000000000000000000000007ee41d8a25641000661b1ef5e6ae8a00400466b0"
          ],
          "data": "0x000000000000000000000000000000000000000000000000001066ac568f2400000000000000000000000000000000000000000000000001eef54d78f02f7ee3000000000000000000000000000000000000000000002f2499436f337b5bdae2000000000000000000000000000000000000000000000001eee4e6cc99a05ae3000000000000000000000000000000000000000000002f249953d5dfd1eafee2",
          "blockHash": "0xfb883b0d896f83f2068d77bee711e8742eb371ded7a42ed1c75e0b18c6dddb33",
          "blockNumber": "0x21bf0e3",
          "blockTimestamp": "0x69bb8bb3",
          "transactionHash": "0x04f58f966e4c78c236a384d08399e0b9d89b33254e6a494783e699ccfed960fd",
          "transactionIndex": "0x0",
          "logIndex": "0x1",
          "removed": false
        }
      ],
      "logsBloom": "0x00000000000000000000000000000000000000000000000000000000000000000000000000000000000000100000000000008000000000000000000000000000000000000000000000000000000000800000000000000000000100000000000000000000000000000000000000000000400000001000000080000000000000000000000000000000020000000400000000000000000000000000000000000000200000000000000000000000000010000000200000000000000000000000004000000000000000000001000000000000000000400000800000108000000000000000000000008000000000000000000000000000000800000000000000100000",
      "type": "0x2",
      "transactionHash": "0x04f58f966e4c78c236a384d08399e0b9d89b33254e6a494783e699ccfed960fd",
      "transactionIndex": "0x0",
      "blockHash": "0xfb883b0d896f83f2068d77bee711e8742eb371ded7a42ed1c75e0b18c6dddb33",
      "blockNumber": "0x21bf0e3",
      "gasUsed": "0x2591b",
      "effectiveGasPrice": "0x6fc23ac3f",
      "from": "0x0ec7f965127e4c57db223956b6b8f44ae57df704",
      "to": "0x3c3d2552bbdfeea59c85b619a24afe2472c69945",
      "contractAddress": null
    },
    {
      "status": "0x1",
      "cumulativeGasUsed": "0xa5d6b",
      "logs": [
        {
          "address": "0x501dabac8cc2800cfe819bc3ed005b8e39d223f3",
          "topics": [
            "0xddf252ad1be2c89b69c2b068fc378daa952ba7f163c4a11628f55a4df523b3ef",
            "0x0000000000000000000000000000000000000000000000000000000000000000",
            "0x000000000000000000000000d58f3f6fff4e15caa04bedafe664b1c65803183b",
            "0x0000000000000000000000000000000000000000000000000000000000000006"
          ],
          "data": "0x",
          "blockHash": "0x87ea1b9421bf968e36ac54a9ad544be837dec172a3bb506c9a2d6f286f3ca3e6",
          "blockNumber": "0x21bf0e6",
          "blockTimestamp": "0x69bb8bb9",
          "transactionHash": "0x5ae0228dc78c63d3a46142a7e404afcbd36aabcde9b30f94a435d32bc25fb360",
          "transactionIndex": "0x0",
          "logIndex": "0x0",
          "removed": false
        },
        {
          "address": "0x0000000000000000000000000000000000001010",
          "topics": [
            "0x4dfe1bbbcf077ddc3e01291eea2d5c70c2b422b415d95645b9adcfd678cb1d63",
            "0x0000000000000000000000000000000000000000000000000000000000001010",
            "0x000000000000000000000000d58f3f6fff4e15caa04bedafe664b1c65803183b",
            "0x0000000000000000000000007ee41d8a25641000661b1ef5e6ae8a00400466b0"
          ],
          "data": "0x000000000000000000000000000000000000000000000000004865e91064e4000000000000000000000000000000000000000000000000015b0f17d3c7c2417d000000000000000000000000000000000000000000002f249ad8c8d4f4ea11000000000000000000000000000000000000000000000000015ac6b1eab75d5d7d000000000000000000000000000000000000000000002f249b212ebe054ef500",
          "blockHash": "0x87ea1b9421bf968e36ac54a9ad544be837dec172a3bb506c9a2d6f286f3ca3e6",
          "blockNumber": "0x21bf0e6",
          "blockTimestamp": "0x69bb8bb9",
          "transactionHash": "0x5ae0228dc78c63d3a46142a7e404afcbd36aabcde9b30f94a435d32bc25fb360",
          "transactionIndex": "0x0",
          "logIndex": "0x1",
          "removed": false
        }
      ],
      "logsBloom": "0x00000000000000000000000000000000000000000000000000000000000000000000000000000000000000000000000000008000000400000000000000000000000000000000000000000008000000800000000000000000000100000000000000000000020000000000000000000800000000000000000080020010000000000000000400000000020000000400000000000000000000000000000000000000280000000000000000000000000004000000100000000000000000080000204000000002000000000001000000000000000000400000000000100000000020000000000000000000000000000000000000000000000000000000000000100000",
      "type": "0x2",
      "transactionHash": "0x5ae0228dc78c63d3a46142a7e404afcbd36aabcde9b30f94a435d32bc25fb360",
      "transactionIndex": "0x0",
      "blockHash": "0x87ea1b9421bf968e36ac54a9ad544be837dec172a3bb506c9a2d6f286f3ca3e6",
      "blockNumber": "0x21bf0e6",
      "gasUsed": "0xa5d6b",
      "effectiveGasPrice": "0x6fc23ac3f",
      "from": "0xd58f3f6fff4e15caa04bedafe664b1c65803183b",
      "to": "0x501dabac8cc2800cfe819bc3ed005b8e39d223f3",
      "contractAddress": null
    },
    {
      "status": "0x1",
      "cumulativeGasUsed": "0x5dada",
      "logs": [
        {
          "address": "0x0000000000000000000000000000000000001010",
          "topics": [
            "0xe6497e3ee548a3372136af2fcb0696db31fc6cf20260707645068bd3fe97f3c4",
            "0x0000000000000000000000000000000000000000000000000000000000001010",
            "0x000000000000000000000000d58f3f6fff4e15caa04bedafe664b1c65803183b",
            "0x0000000000000000000000003c3d2552bbdfeea59c85b619a24afe2472c69945"
          ],
          "data": "0x0000000000000000000000000000000000000000000000006f05b59d3b2000000000000000000000000000000000000000000000000000015aaeb561a8598c05000000000000000000000000000000000000000000000004c53ecdc18a600000000000000000000000000000000000000000000000000000eba8ffc46d398c050000000000000000000000000000000000000000000000053444835ec5800000",
          "blockHash": "0x635fc517aaf33cc7c1d25de847b99ccf13c5aaa0fb4c6a289c83ecdeb1679c7e",
          "blockNumber": "0x21bf0e8",
          "blockTimestamp": "0x69bb8bbd",
          "transactionHash": "0xb53cf5ed2461e434b31ea0b628062414c554860b9d5ea0bac4ae4010d8fe47ba",
          "transactionIndex": "0x2",
          "logIndex": "0x7",
          "removed": false
        },
        {
          "address": "0x0000000000000000000000000000000000001010",
          "topics": [
            "0x4dfe1bbbcf077ddc3e01291eea2d5c70c2b422b415d95645b9adcfd678cb1d63",
            "0x0000000000000000000000000000000000000000000000000000000000001010",
            "0x000000000000000000000000d58f3f6fff4e15caa04bedafe664b1c65803183b",
            "0x0000000000000000000000007ee41d8a25641000661b1ef5e6ae8a00400466b0"
          ],
          "data": "0x000000000000000000000000000000000000000000000000001066ac568f24000000000000000000000000000000000000000000000000015ac6b1eab4d06028000000000000000000000000000000000000000000002f249b65ed3b785bab160000000000000000000000000000000000000000000000015ab64b3e5e413c28000000000000000000000000000000000000000000002f249b7653e7ceeacf16",
          "blockHash": "0x635fc517aaf33cc7c1d25de847b99ccf13c5aaa0fb4c6a289c83ecdeb1679c7e",
          "blockNumber": "0x21bf0e8",
          "blockTimestamp": "0x69bb8bbd",
          "transactionHash": "0xb53cf5ed2461e434b31ea0b628062414c554860b9d5ea0bac4ae4010d8fe47ba",
          "transactionIndex": "0x2",
          "logIndex": "0x8",
          "removed": false
        }
      ],
      "logsBloom": "0x00000000000000000000000000000000000000000000000000000000000000000000000000000000000000100000000000008000000000000000000000000000000000000000000000000000000000800000000000000000000100000000000000000000000000000000000000000000000000000000000080020010000000000000000000000000020000000400000000000000000000000000000000000000200000000000000000000000000004000000200000000000000000000000004000000000000000000001000000000000000000400000800000108000000000000000000000008000000000000000000000000000000800000000000000100000",
      "type": "0x2",
      "transactionHash": "0xb53cf5ed2461e434b31ea0b628062414c554860b9d5ea0bac4ae4010d8fe47ba",
      "transactionIndex": "0x2",
      "blockHash": "0x635fc517aaf33cc7c1d25de847b99ccf13c5aaa0fb4c6a289c83ecdeb1679c7e",
      "blockNumber": "0x21bf0e8",
      "gasUsed": "0x2591b",
      "effectiveGasPrice": "0x6fc23ac3f",
      "from": "0xd58f3f6fff4e15caa04bedafe664b1c65803183b",
      "to": "0x3c3d2552bbdfeea59c85b619a24afe2472c69945",
      "contractAddress": null
    },
    {
      "status": "0x1",
      "cumulativeGasUsed": "0xa5d6b",
      "logs": [
        {
          "address": "0x501dabac8cc2800cfe819bc3ed005b8e39d223f3",
          "topics": [
            "0xddf252ad1be2c89b69c2b068fc378daa952ba7f163c4a11628f55a4df523b3ef",
            "0x0000000000000000000000000000000000000000000000000000000000000000",
            "0x000000000000000000000000c0ddfaf6c73c06f5ccc36670deb59a2ee0dfc19c",
            "0x0000000000000000000000000000000000000000000000000000000000000007"
          ],
          "data": "0x",
          "blockHash": "0x8eae1bab1ecd8de35afe422cc674ca724c12894beb726a4e1d9709be80d62d7c",
          "blockNumber": "0x21bf0ea",
          "blockTimestamp": "0x69bb8bc1",
          "transactionHash": "0x475e935119b4864ac6f4c9183fb0514cdb517f80b0d27a8adff6c0e5a7be5732",
          "transactionIndex": "0x0",
          "logIndex": "0x0",
          "removed": false
        },
        {
          "address": "0x0000000000000000000000000000000000001010",
          "topics": [
            "0x4dfe1bbbcf077ddc3e01291eea2d5c70c2b422b415d95645b9adcfd678cb1d63",
            "0x0000000000000000000000000000000000000000000000000000000000001010",
            "0x000000000000000000000000c0ddfaf6c73c06f5ccc36670deb59a2ee0dfc19c",
            "0x0000000000000000000000007ee41d8a25641000661b1ef5e6ae8a00400466b0"
          ],
          "data": "0x000000000000000000000000000000000000000000000000004865e91064e400000000000000000000000000000000000000000000000001eef19c88b11d558a000000000000000000000000000000000000000000002f249b7653e7ceeacf16000000000000000000000000000000000000000000000001eea9369fa0b8718a000000000000000000000000000000000000000000002f249bbeb9d0df4fb316",
          "blockHash": "0x8eae1bab1ecd8de35afe422cc674ca724c12894beb726a4e1d9709be80d62d7c",
          "blockNumber": "0x21bf0ea",
          "blockTimestamp": "0x69bb8bc1",
          "transactionHash": "0x475e935119b4864ac6f4c9183fb0514cdb517f80b0d27a8adff6c0e5a7be5732",
          "transactionIndex": "0x0",
          "logIndex": "0x1",
          "removed": false
        }
      ],
      "logsBloom": "0x00000000000000000000000000000000000000000000000000000000000000000000000000000000000000040000000000009000000000000000000000000000000020000000000000000008000000800000000000000000000100000000000100000000020000000000000000000800000000000000000080000010000000000000000000000000020000000400000000000000001000000000000000000000280000000000000000000000000000000000100000000000000000000000204000000002000000000001000000000000000000400000000000100100000020000000000000000000000000000000000000000000000000000000000000100000",
      "type": "0x2",
      "transactionHash": "0x475e935119b4864ac6f4c9183fb0514cdb517f80b0d27a8adff6c0e5a7be5732",
      "transactionIndex": "0x0",
      "blockHash": "0x8eae1bab1ecd8de35afe422cc674ca724c12894beb726a4e1d9709be80d62d7c",
      "blockNumber": "0x21bf0ea",
      "gasUsed": "0xa5d6b",
      "effectiveGasPrice": "0x6fc23ac3f",
      "from": "0xc0ddfaf6c73c06f5ccc36670deb59a2ee0dfc19c",
      "to": "0x501dabac8cc2800cfe819bc3ed005b8e39d223f3",
      "contractAddress": null
    },
    {
      "status": "0x1",
      "cumulativeGasUsed": "0x64063",
      "logs": [
        {
          "address": "0x0000000000000000000000000000000000001010",
          "topics": [
            "0xe6497e3ee548a3372136af2fcb0696db31fc6cf20260707645068bd3fe97f3c4",
            "0x0000000000000000000000000000000000000000000000000000000000001010",
            "0x000000000000000000000000c0ddfaf6c73c06f5ccc36670deb59a2ee0dfc19c",
            "0x0000000000000000000000003c3d2552bbdfeea59c85b619a24afe2472c69945"
          ],
          "data": "0x0000000000000000000000000000000000000000000000006f05b59d3b200000000000000000000000000000000000000000000000000001ee9189e5754babe50000000000000000000000000000000000000000000000053444835ec58000000000000000000000000000000000000000000000000000017f8bd4483a2babe5000000000000000000000000000000000000000000000005a34a38fc00a00000",
          "blockHash": "0x6072f03cafeedc10a7d7310afd522b8df6b174324ef9243104a1d5a5b8edbfb1",
          "blockNumber": "0x21bf0ec",
          "blockTimestamp": "0x69bb8bc5",
          "transactionHash": "0xa3788a1f5ed7c23c08d668e16932cd414240038f8a767da6ca7a91a4063af300",
          "transactionIndex": "0x3",
          "logIndex": "0x6",
          "removed": false
        },
        {
          "address": "0x0000000000000000000000000000000000001010",
          "topics": [
            "0x4dfe1bbbcf077ddc3e01291eea2d5c70c2b422b415d95645b9adcfd678cb1d63",
            "0x0000000000000000000000000000000000000000000000000000000000001010",
            "0x000000000000000000000000c0ddfaf6c73c06f5ccc36670deb59a2ee0dfc19c",
            "0x0000000000000000000000007ee41d8a25641000661b1ef5e6ae8a00400466b0"
          ],
          "data": "0x0000000000000000000000000000000000000000000000000010301a7fdf6400000000000000000000000000000000000000000000000001eea9369f9e2b7435000000000000000000000000000000000000000000002f249c0bd7d84523fb06000000000000000000000000000000000000000000000001ee9906851e4c1035000000000000000000000000000000000000000000002f249c1c07f2c5035f06",
          "blockHash": "0x6072f03cafeedc10a7d7310afd522b8df6b174324ef9243104a1d5a5b8edbfb1",
          "blockNumber": "0x21bf0ec",
          "blockTimestamp": "0x69bb8bc5",
          "transactionHash": "0xa3788a1f5ed7c23c08d668e16932cd414240038f8a767da6ca7a91a4063af300",
          "transactionIndex": "0x3",
          "logIndex": "0x7",
          "removed": false
        }
      ],
      "logsBloom": "0x00000000000000000000000000000000000000000000000000000000000000000000000000000000000000140000000000008000000000000000000000000000000000000000000000000000000000800000000000000000000100000000000100000000000000000000000000000000000000000000000080000000000000000000000000000000020000000400000000000000001000000000000000000000200000000000000000000000000000000000200000000000000000000000004000000000000000000001000000000000000000400000800000108000000000000000000000008000000000000000000000000000000800000000000000100000",
      "type": "0x2",
      "transactionHash": "0xa3788a1f5ed7c23c08d668e16932cd414240038f8a767da6ca7a91a4063af300",
      "transactionIndex": "0x3",
      "blockHash": "0x6072f03cafeedc10a7d7310afd522b8df6b174324ef9243104a1d5a5b8edbfb1",
      "blockNumber": "0x21bf0ec",
      "gasUsed": "0x2514b",
      "effectiveGasPrice": "0x6fc23ac3f",
      "from": "0xc0ddfaf6c73c06f5ccc36670deb59a2ee0dfc19c",
      "to": "0x3c3d2552bbdfeea59c85b619a24afe2472c69945",
      "contractAddress": null
    },
    {
      "status": "0x1",
      "cumulativeGasUsed": "0x4c357c",
      "logs": [
        {
          "address": "0x501dabac8cc2800cfe819bc3ed005b8e39d223f3",
          "topics": [
            "0xddf252ad1be2c89b69c2b068fc378daa952ba7f163c4a11628f55a4df523b3ef",
            "0x0000000000000000000000000000000000000000000000000000000000000000",
            "0x0000000000000000000000000cefb748b5afebc47dbe7ea934916cb14ac8e678",
            "0x0000000000000000000000000000000000000000000000000000000000000008"
          ],
          "data": "0x",
          "blockHash": "0xe1643b40678f6137a714e644e4225a0ebf5fc7ce2c81d284c17c450e80939333",
          "blockNumber": "0x21bf0ee",
          "blockTimestamp": "0x69bb8bc9",
          "transactionHash": "0x7ced56f013831359242787357d8ef02ba256df5c7faf7d6f309b49a41fd3ef3e",
          "transactionIndex": "0x8",
          "logIndex": "0x3b",
          "removed": false
        },
        {
          "address": "0x0000000000000000000000000000000000001010",
          "topics": [
            "0x4dfe1bbbcf077ddc3e01291eea2d5c70c2b422b415d95645b9adcfd678cb1d63",
            "0x0000000000000000000000000000000000000000000000000000000000001010",
            "0x0000000000000000000000000cefb748b5afebc47dbe7ea934916cb14ac8e678",
            "0x0000000000000000000000007ee41d8a25641000661b1ef5e6ae8a00400466b0"
          ],
          "data": "0x000000000000000000000000000000000000000000000000004865e91064e4000000000000000000000000000000000000000000000000007c583a16c8972954000000000000000000000000000000000000000000002f24a079a60d3da798950000000000000000000000000000000000000000000000007c0fd42db8324554000000000000000000000000000000000000000000002f24a0c20bf64e0c7c95",
          "blockHash": "0xe1643b40678f6137a714e644e4225a0ebf5fc7ce2c81d284c17c450e80939333",
          "blockNumber": "0x21bf0ee",
          "blockTimestamp": "0x69bb8bc9",
          "transactionHash": "0x7ced56f013831359242787357d8ef02ba256df5c7faf7d6f309b49a41fd3ef3e",
          "transactionIndex": "0x8",
          "logIndex": "0x3c",
          "removed": false
        }
      ],
      "logsBloom": "0x00000000000000000000000000000000000000000000000000000000000000000000000000000000000000000000000000008000000080000000000000000000000000000000000000000008000000800000000000000000000100000000000000000000020000000000000000000800000000000000000080000010000000000080000000000000020000000400000000000000040000000000000000000000280000000000000000000000000000000000100000000000000000000000204040000002000000000001000000000000000000400000000000100000001020000000000000000000000000000000000000000000000000000040000000100000",
      "type": "0x2",
      "transactionHash": "0x7ced56f013831359242787357d8ef02ba256df5c7faf7d6f309b49a41fd3ef3e",
      "transactionIndex": "0x8",
      "blockHash": "0xe1643b40678f6137a714e644e4225a0ebf5fc7ce2c81d284c17c450e80939333",
      "blockNumber": "0x21bf0ee",
      "gasUsed": "0xa5d6b",
      "effectiveGasPrice": "0x6fc23ac3f",
      "from": "0x0cefb748b5afebc47dbe7ea934916cb14ac8e678",
      "to": "0x501dabac8cc2800cfe819bc3ed005b8e39d223f3",
      "contractAddress": null
    },
    {
      "status": "0x1",
      "cumulativeGasUsed": "0x99323",
      "logs": [
        {
          "address": "0x0000000000000000000000000000000000001010",
          "topics": [
            "0xe6497e3ee548a3372136af2fcb0696db31fc6cf20260707645068bd3fe97f3c4",
            "0x0000000000000000000000000000000000000000000000000000000000001010",
            "0x0000000000000000000000000cefb748b5afebc47dbe7ea934916cb14ac8e678",
            "0x0000000000000000000000003c3d2552bbdfeea59c85b619a24afe2472c69945"
          ],
          "data": "0x0000000000000000000000000000000000000000000000006f05b59d3b2000000000000000000000000000000000000000000000000000007bf7d7a4a92e73dc000000000000000000000000000000000000000000000005a34a38fc00a000000000000000000000000000000000000000000000000000000cf222076e0e73dc000000000000000000000000000000000000000000000006124fee993bc00000",
          "blockHash": "0x000e587fcab452c4593d25139afefcb6d2b153d15948bd62e7bfd17014f36c19",
          "blockNumber": "0x21bf0f1",
          "blockTimestamp": "0x69bb8bcf",
          "transactionHash": "0xc1be884992a38d39dd2568af82a9eca0308f13a687e41357b01d93ead7a8c009",
          "transactionIndex": "0x1",
          "logIndex": "0x8",
          "removed": false
        },
        {
          "address": "0x0000000000000000000000000000000000001010",
          "topics": [
            "0x4dfe1bbbcf077ddc3e01291eea2d5c70c2b422b415d95645b9adcfd678cb1d63",
            "0x0000000000000000000000000000000000000000000000000000000000001010",
            "0x0000000000000000000000000cefb748b5afebc47dbe7ea934916cb14ac8e678",
            "0x0000000000000000000000007ee41d8a25641000661b1ef5e6ae8a00400466b0"
          ],
          "data": "0x000000000000000000000000000000000000000000000000001066ac568f24000000000000000000000000000000000000000000000000007c0fd42db5a547ff000000000000000000000000000000000000000000002f24a16d062dc2f107310000000000000000000000000000000000000000000000007bff6d815f1623ff000000000000000000000000000000000000000000002f24a17d6cda19802b31",
          "blockHash": "0x000e587fcab452c4593d25139afefcb6d2b153d15948bd62e7bfd17014f36c19",
          "blockNumber": "0x21bf0f1",
          "blockTimestamp": "0x69bb8bcf",
          "transactionHash": "0xc1be884992a38d39dd2568af82a9eca0308f13a687e41357b01d93ead7a8c009",
          "transactionIndex": "0x1",
          "logIndex": "0x9",
          "removed": false
        }
      ],
      "logsBloom": "0x00000000000000000000000000000000000000000000000000000000000000000000000000000000000000100000000000008000000000000000000000000000000000000000000000000000000000800000000000000000000100000000000000000000000000000000000000000000000000000000000080000000000000000000000000000000020000000400000000000000040000000000000000000000200000000000000000000000000000000000200000000000000000000000004000000000000000000001000000000000000000400000800000108000001000000000000000008000000000000000000000000000000800000040000000100000",
      "type": "0x2",
      "transactionHash": "0xc1be884992a38d39dd2568af82a9eca0308f13a687e41357b01d93ead7a8c009",
      "transactionIndex": "0x1",
      "blockHash": "0x000e587fcab452c4593d25139afefcb6d2b153d15948bd62e7bfd17014f36c19",
      "blockNumber": "0x21bf0f1",
      "gasUsed": "0x2591b",
      "effectiveGasPrice": "0x6fc23ac3f",
      "from": "0x0cefb748b5afebc47dbe7ea934916cb14ac8e678",
      "to": "0x3c3d2552bbdfeea59c85b619a24afe2472c69945",
      "contractAddress": null
    },
    {
      "status": "0x1",
      "cumulativeGasUsed": "0xa5d6b",
      "logs": [
        {
          "address": "0x501dabac8cc2800cfe819bc3ed005b8e39d223f3",
          "topics": [
            "0xddf252ad1be2c89b69c2b068fc378daa952ba7f163c4a11628f55a4df523b3ef",
            "0x0000000000000000000000000000000000000000000000000000000000000000",
            "0x000000000000000000000000fa0e503051f60c5e1c4a712c84d53961195eb96a",
            "0x0000000000000000000000000000000000000000000000000000000000000009"
          ],
          "data": "0x",
          "blockHash": "0x45eeb30207a8e7c75ca1f5cbaa3d33852f1e24c80230ac1b40a90900c6602447",
          "blockNumber": "0x21bf0f3",
          "blockTimestamp": "0x69bb8bd3",
          "transactionHash": "0x1fd6bd53d21523a2adfce9336a16dc4b91cfc9b71970d9832d99e7615932434e",
          "transactionIndex": "0x0",
          "logIndex": "0x0",
          "removed": false
        },
        {
          "address": "0x0000000000000000000000000000000000001010",
          "topics": [
            "0x4dfe1bbbcf077ddc3e01291eea2d5c70c2b422b415d95645b9adcfd678cb1d63",
            "0x0000000000000000000000000000000000000000000000000000000000001010",
            "0x000000000000000000000000fa0e503051f60c5e1c4a712c84d53961195eb96a",
            "0x0000000000000000000000007ee41d8a25641000661b1ef5e6ae8a00400466b0"
          ],
          "data": "0x000000000000000000000000000000000000000000000000004865e91064e4000000000000000000000000000000000000000000000000019af9dea38b82c105000000000000000000000000000000000000000000002f24a17d6cda19802b310000000000000000000000000000000000000000000000019ab178ba7b1ddd05000000000000000000000000000000000000000000002f24a1c5d2c329e50f31",
          "blockHash": "0x45eeb30207a8e7c75ca1f5cbaa3d33852f1e24c80230ac1b40a90900c6602447",
          "blockNumber": "0x21bf0f3",
          "blockTimestamp": "0x69bb8bd3",
          "transactionHash": "0x1fd6bd53d21523a2adfce9336a16dc4b91cfc9b71970d9832d99e7615932434e",
          "transactionIndex": "0x0",
          "logIndex": "0x1",
          "removed": false
        }
      ],
      "logsBloom": "0x00000000000000000000000000000000000000000000000000000000000000000000000000000000000000000000000000008000000000000000000000200000000000000000000000000008000000800000000000000000000100000000000000000000020000000000000000000800000000000000000080000010000000000000000000100000020000000400000000001000000000000000000000000000280000000000000000000000000000000000100000000000000000000000204000000002000000000001000000000000800000400000000000100000000020000000000000000000000000000000000000001000000000000000000000900000",
      "type": "0x2",
      "transactionHash": "0x1fd6bd53d21523a2adfce9336a16dc4b91cfc9b71970d9832d99e7615932434e",
      "transactionIndex": "0x0",
      "blockHash": "0x45eeb30207a8e7c75ca1f5cbaa3d33852f1e24c80230ac1b40a90900c6602447",
      "blockNumber": "0x21bf0f3",
      "gasUsed": "0xa5d6b",
      "effectiveGasPrice": "0x6fc23ac3f",
      "from": "0xfa0e503051f60c5e1c4a712c84d53961195eb96a",
      "to": "0x501dabac8cc2800cfe819bc3ed005b8e39d223f3",
      "contractAddress": null
    },
    {
      "status": "0x1",
      "cumulativeGasUsed": "0xc9870",
      "logs": [
        {
          "address": "0x0000000000000000000000000000000000001010",
          "topics": [
            "0xe6497e3ee548a3372136af2fcb0696db31fc6cf20260707645068bd3fe97f3c4",
            "0x0000000000000000000000000000000000000000000000000000000000001010",
            "0x000000000000000000000000fa0e503051f60c5e1c4a712c84d53961195eb96a",
            "0x0000000000000000000000003c3d2552bbdfeea59c85b619a24afe2472c69945"
          ],
          "data": "0x0000000000000000000000000000000000000000000000006f05b59d3b2000000000000000000000000000000000000000000000000000019a997c316c1a0b8d000000000000000000000000000000000000000000000006124fee993bc000000000000000000000000000000000000000000000000000012b93c69430fa0b8d0000000000000000000000000000000000000000000000068155a43676e00000",
          "blockHash": "0xbbc4e6793812f7c1855b953cd5c094670b00ec148548ba8d7c9dc0b207746152",
          "blockNumber": "0x21bf0f5",
          "blockTimestamp": "0x69bb8bd7",
          "transactionHash": "0xde3ee562517d57a7c8fe9875afe901bbdca055485032d49bee70c3b4fd7a3f81",
          "transactionIndex": "0x8",
          "logIndex": "0xe",
          "removed": false
        },
        {
          "address": "0x0000000000000000000000000000000000001010",
          "topics": [
            "0x4dfe1bbbcf077ddc3e01291eea2d5c70c2b422b415d95645b9adcfd678cb1d63",
            "0x0000000000000000000000000000000000000000000000000000000000001010",
            "0x000000000000000000000000fa0e503051f60c5e1c4a712c84d53961195eb96a",
            "0x0000000000000000000000007ee41d8a25641000661b1ef5e6ae8a00400466b0"
          ],
          "data": "0x000000000000000000000000000000000000000000000000001066ac568f24000000000000000000000000000000000000000000000000019ab178ba7890dfb0000000000000000000000000000000000000000000002f24a28eb3dcc14287630000000000000000000000000000000000000000000000019aa1120e2201bbb0000000000000000000000000000000000000000000002f24a29f1a8917d1ab63",
          "blockHash": "0xbbc4e6793812f7c1855b953cd5c094670b00ec148548ba8d7c9dc0b207746152",
          "blockNumber": "0x21bf0f5",
          "blockTimestamp": "0x69bb8bd7",
          "transactionHash": "0xde3ee562517d57a7c8fe9875afe901bbdca055485032d49bee70c3b4fd7a3f81",
          "transactionIndex": "0x8",
          "logIndex": "0xf",
          "removed": false
        }
      ],
      "logsBloom": "0x00000000000000000000000000000000000000000000000000000000000000000000000000000000000000100000000000008000000000000000000000000000000000000000000000000000000000800000000000000000000100000000000000000000000000000000000000000000000000000000000080000000000000000000000000100000020000000400000000000000000000000000000000000000200000000000000000000000000000000000200000000000000000000000004000000000000000000001000000000000800000400000800000108000000000000000000000008000000000000000000000001000000800000000000000100000",
      "type": "0x2",
      "transactionHash": "0xde3ee562517d57a7c8fe9875afe901bbdca055485032d49bee70c3b4fd7a3f81",
      "transactionIndex": "0x8",
      "blockHash": "0xbbc4e6793812f7c1855b953cd5c094670b00ec148548ba8d7c9dc0b207746152",
      "blockNumber": "0x21bf0f5",
      "gasUsed": "0x2591b",
      "effectiveGasPrice": "0x6fc23ac3f",
      "from": "0xfa0e503051f60c5e1c4a712c84d53961195eb96a",
      "to": "0x3c3d2552bbdfeea59c85b619a24afe2472c69945",
      "contractAddress": null
    },
    {
      "status": "0x1",
      "cumulativeGasUsed": "0xa5d6b",
      "logs": [
        {
          "address": "0x501dabac8cc2800cfe819bc3ed005b8e39d223f3",
          "topics": [
            "0xddf252ad1be2c89b69c2b068fc378daa952ba7f163c4a11628f55a4df523b3ef",
            "0x0000000000000000000000000000000000000000000000000000000000000000",
            "0x0000000000000000000000000b00144644ba73e8f83ccdcad5c838ccf9fdc581",
            "0x000000000000000000000000000000000000000000000000000000000000000a"
          ],
          "data": "0x",
          "blockHash": "0xb8571a9addfb8aa45396451ff230b7bf70d9a4ca8c473191ae5a584b4d45dfda",
          "blockNumber": "0x21bf0f7",
          "blockTimestamp": "0x69bb8bdb",
          "transactionHash": "0x7a195724cf68c2add695280c91c4c31ae03da1268cbcecac878f1e34e2b690f8",
          "transactionIndex": "0x0",
          "logIndex": "0x0",
          "removed": false
        },
        {
          "address": "0x0000000000000000000000000000000000001010",
          "topics": [
            "0x4dfe1bbbcf077ddc3e01291eea2d5c70c2b422b415d95645b9adcfd678cb1d63",
            "0x0000000000000000000000000000000000000000000000000000000000001010",
            "0x0000000000000000000000000b00144644ba73e8f83ccdcad5c838ccf9fdc581",
            "0x0000000000000000000000007ee41d8a25641000661b1ef5e6ae8a00400466b0"
          ],
          "data": "0x000000000000000000000000000000000000000000000000004865e91064e400000000000000000000000000000000000000000000000002318134e8c8de0a9b000000000000000000000000000000000000000000002f24a29f1a8917d1ab630000000000000000000000000000000000000000000000023138ceffb879269b000000000000000000000000000000000000000000002f24a2e7807228368f63",
          "blockHash": "0xb8571a9addfb8aa45396451ff230b7bf70d9a4ca8c473191ae5a584b4d45dfda",
          "blockNumber": "0x21bf0f7",
          "blockTimestamp": "0x69bb8bdb",
          "transactionHash": "0x7a195724cf68c2add695280c91c4c31ae03da1268cbcecac878f1e34e2b690f8",
          "transactionIndex": "0x0",
          "logIndex": "0x1",
          "removed": false
        }
      ],
      "logsBloom": "0x00000000000000000000000000000000000000000000000800000000000000000000000000000000000000000000000000008000040000000020000000000000000000000000000000000008000000800000000000000000000100200000000000000000020000000000000000000800000000000000000080000010000000000000000000000000030000000400000000000000000000000000000000000000280000000000000000000000000000000000100000000000000000010000204000000002000000000001000000000000000000400000000000100000000020000000000000000000000000000000000000000000000000000000000000100000",
      "type": "0x2",
      "transactionHash": "0x7a195724cf68c2add695280c91c4c31ae03da1268cbcecac878f1e34e2b690f8",
      "transactionIndex": "0x0",
      "blockHash": "0xb8571a9addfb8aa45396451ff230b7bf70d9a4ca8c473191ae5a584b4d45dfda",
      "blockNumber": "0x21bf0f7",
      "gasUsed": "0xa5d6b",
      "effectiveGasPrice": "0x6fc23ac3f",
      "from": "0x0b00144644ba73e8f83ccdcad5c838ccf9fdc581",
      "to": "0x501dabac8cc2800cfe819bc3ed005b8e39d223f3",
      "contractAddress": null
    },
    {
      "status": "0x1",
      "cumulativeGasUsed": "0x43363",
      "logs": [
        {
          "address": "0x0000000000000000000000000000000000001010",
          "topics": [
            "0xe6497e3ee548a3372136af2fcb0696db31fc6cf20260707645068bd3fe97f3c4",
            "0x0000000000000000000000000000000000000000000000000000000000001010",
            "0x0000000000000000000000000b00144644ba73e8f83ccdcad5c838ccf9fdc581",
            "0x0000000000000000000000003c3d2552bbdfeea59c85b619a24afe2472c69945"
          ],
          "data": "0x0000000000000000000000000000000000000000000000006f05b59d3b200000000000000000000000000000000000000000000000000002312122458d0c60f60000000000000000000000000000000000000000000000068155a43676e00000000000000000000000000000000000000000000000000001c21b6ca851ec60f6000000000000000000000000000000000000000000000006f05b59d3b2000000",
          "blockHash": "0xb43f588a08e7f9362d58ed2b8b9d32a2544b623f95e378c3d17ae643baa5aad1",
          "blockNumber": "0x21bf0f9",
          "blockTimestamp": "0x69bb8bdf",
          "transactionHash": "0x698e61cb6ad530ca2b5ab77472fefc1564bbc994a1c9a451c378d22af995cca1",
          "transactionIndex": "0x2",
          "logIndex": "0x4",
          "removed": false
        },
        {
          "address": "0x0000000000000000000000000000000000001010",
          "topics": [
            "0x4dfe1bbbcf077ddc3e01291eea2d5c70c2b422b415d95645b9adcfd678cb1d63",
            "0x0000000000000000000000000000000000000000000000000000000000001010",
            "0x0000000000000000000000000b00144644ba73e8f83ccdcad5c838ccf9fdc581",
            "0x0000000000000000000000007ee41d8a25641000661b1ef5e6ae8a00400466b0"
          ],
          "data": "0x0000000000000000000000000000000000000000000000000010301a7fdf64000000000000000000000000000000000000000000000000023138ceffb5ec2946000000000000000000000000000000000000000000002f24a30c6aea57ca755300000000000000000000000000000000000000000000000231289ee5360cc546000000000000000000000000000000000000000000002f24a31c9b04d7a9d953",
          "blockHash": "0xb43f588a08e7f9362d58ed2b8b9d32a2544b623f95e378c3d17ae643baa5aad1",
          "blockNumber": "0x21bf0f9",
          "blockTimestamp": "0x69bb8bdf",
          "transactionHash": "0x698e61cb6ad530ca2b5ab77472fefc1564bbc994a1c9a451c378d22af995cca1",
          "transactionIndex": "0x2",
          "logIndex": "0x5",
          "removed": false
        }
      ],
      "logsBloom": "0x00000000000000000000000000000000000000000000000800000000000000000000000000000000000000100000000000008000000000000000000000000000000000000000000000000000000000800000000000000000000100200000000000000000000000000000000000000000000000000000000080000000000000000000000000000000020000000400000000000000000000000000000000000000200000000000000000000000000000000000200000000000000000010000004000000000000000000001000000000000000000400000800000108000000000000000000000008000000000000000000000000000000800000000000000100000",
      "type": "0x2",
      "transactionHash": "0x698e61cb6ad530ca2b5ab77472fefc1564bbc994a1c9a451c378d22af995cca1",
      "transactionIndex": "0x2",
      "blockHash": "0xb43f588a08e7f9362d58ed2b8b9d32a2544b623f95e378c3d17ae643baa5aad1",
      "blockNumber": "0x21bf0f9",
      "gasUsed": "0x2514b",
      "effectiveGasPrice": "0x6fc23ac3f",
      "from": "0x0b00144644ba73e8f83ccdcad5c838ccf9fdc581",
      "to": "0x3c3d2552bbdfeea59c85b619a24afe2472c69945",
      "contractAddress": null
    },
    {
      "status": "0x1",
      "cumulativeGasUsed": "0xc192db",
      "logs": [
        {
          "address": "0x3c3d2552bbdfeea59c85b619a24afe2472c69945",
          "topics": [
            "0x760f85c8f46eac1ffec67d69fed68b85b1370c34dff479d15afcd53437b9291f",
            "0x0000000000000000000000000000000000000000000000000000000000000003",
            "0x0000000000000000000000008de56f797ff4aa43224ac277f04d595a30f782d6"
          ],
          "data": "0x",
          "blockHash": "0xb87f053a0c645cddda6422c54ba18f0e7260f7ca43bb2e2c3a9a3cd5161db4b9",
          "blockNumber": "0x21bf0fb",
          "blockTimestamp": "0x69bb8be3",
          "transactionHash": "0x48d7693751abf984e729967cf73e7ad7020ec8e74c886dd40da79e5748f173b9",
          "transactionIndex": "0x0",
          "logIndex": "0x0",
          "removed": false
        },
        {
          "address": "0x3c3d2552bbdfeea59c85b619a24afe2472c69945",
          "topics": [
            "0x760f85c8f46eac1ffec67d69fed68b85b1370c34dff479d15afcd53437b9291f",
            "0x0000000000000000000000000000000000000000000000000000000000000003",
            "0x000000000000000000000000c15bd2eae18fca607c7a0446ff646cbd1055ab67"
          ],
          "data": "0x",
          "blockHash": "0xb87f053a0c645cddda6422c54ba18f0e7260f7ca43bb2e2c3a9a3cd5161db4b9",
          "blockNumber": "0x21bf0fb",
          "blockTimestamp": "0x69bb8be3",
          "transactionHash": "0x48d7693751abf984e729967cf73e7ad7020ec8e74c886dd40da79e5748f173b9",
          "transactionIndex": "0x0",
          "logIndex": "0x1",
          "removed": false
        },
        {
          "address": "0x3c3d2552bbdfeea59c85b619a24afe2472c69945",
          "topics": [
            "0x760f85c8f46eac1ffec67d69fed68b85b1370c34dff479d15afcd53437b9291f",
            "0x0000000000000000000000000000000000000000000000000000000000000003",
            "0x0000000000000000000000000ec7f965127e4c57db223956b6b8f44ae57df704"
          ],
          "data": "0x",
          "blockHash": "0xb87f053a0c645cddda6422c54ba18f0e7260f7ca43bb2e2c3a9a3cd5161db4b9",
          "blockNumber": "0x21bf0fb",
          "blockTimestamp": "0x69bb8be3",
          "transactionHash": "0x48d7693751abf984e729967cf73e7ad7020ec8e74c886dd40da79e5748f173b9",
          "transactionIndex": "0x0",
          "logIndex": "0x2",
          "removed": false
        },
        {
          "address": "0x3c3d2552bbdfeea59c85b619a24afe2472c69945",
          "topics": [
            "0x760f85c8f46eac1ffec67d69fed68b85b1370c34dff479d15afcd53437b9291f",
            "0x0000000000000000000000000000000000000000000000000000000000000003",
            "0x000000000000000000000000d58f3f6fff4e15caa04bedafe664b1c65803183b"
          ],
          "data": "0x",
          "blockHash": "0xb87f053a0c645cddda6422c54ba18f0e7260f7ca43bb2e2c3a9a3cd5161db4b9",
          "blockNumber": "0x21bf0fb",
          "blockTimestamp": "0x69bb8be3",
          "transactionHash": "0x48d7693751abf984e729967cf73e7ad7020ec8e74c886dd40da79e5748f173b9",
          "transactionIndex": "0x0",
          "logIndex": "0x3",
          "removed": false
        },
        {
          "address": "0x3c3d2552bbdfeea59c85b619a24afe2472c69945",
          "topics": [
            "0x760f85c8f46eac1ffec67d69fed68b85b1370c34dff479d15afcd53437b9291f",
            "0x0000000000000000000000000000000000000000000000000000000000000003",
            "0x000000000000000000000000c0ddfaf6c73c06f5ccc36670deb59a2ee0dfc19c"
          ],
          "data": "0x",
          "blockHash": "0xb87f053a0c645cddda6422c54ba18f0e7260f7ca43bb2e2c3a9a3cd5161db4b9",
          "blockNumber": "0x21bf0fb",
          "blockTimestamp": "0x69bb8be3",
          "transactionHash": "0x48d7693751abf984e729967cf73e7ad7020ec8e74c886dd40da79e5748f173b9",
          "transactionIndex": "0x0",
          "logIndex": "0x4",
          "removed": false
        },
        {
          "address": "0x3c3d2552bbdfeea59c85b619a24afe2472c69945",
          "topics": [
            "0x760f85c8f46eac1ffec67d69fed68b85b1370c34dff479d15afcd53437b9291f",
            "0x0000000000000000000000000000000000000000000000000000000000000003",
            "0x0000000000000000000000000cefb748b5afebc47dbe7ea934916cb14ac8e678"
          ],
          "data": "0x",
          "blockHash": "0xb87f053a0c645cddda6422c54ba18f0e7260f7ca43bb2e2c3a9a3cd5161db4b9",
          "blockNumber": "0x21bf0fb",
          "blockTimestamp": "0x69bb8be3",
          "transactionHash": "0x48d7693751abf984e729967cf73e7ad7020ec8e74c886dd40da79e5748f173b9",
          "transactionIndex": "0x0",
          "logIndex": "0x5",
          "removed": false
        },
        {
          "address": "0x3c3d2552bbdfeea59c85b619a24afe2472c69945",
          "topics": [
            "0x760f85c8f46eac1ffec67d69fed68b85b1370c34dff479d15afcd53437b9291f",
            "0x0000000000000000000000000000000000000000000000000000000000000003",
            "0x000000000000000000000000fa0e503051f60c5e1c4a712c84d53961195eb96a"
          ],
          "data": "0x",
          "blockHash": "0xb87f053a0c645cddda6422c54ba18f0e7260f7ca43bb2e2c3a9a3cd5161db4b9",
          "blockNumber": "0x21bf0fb",
          "blockTimestamp": "0x69bb8be3",
          "transactionHash": "0x48d7693751abf984e729967cf73e7ad7020ec8e74c886dd40da79e5748f173b9",
          "transactionIndex": "0x0",
          "logIndex": "0x6",
          "removed": false
        },
        {
          "address": "0x3c3d2552bbdfeea59c85b619a24afe2472c69945",
          "topics": [
            "0x760f85c8f46eac1ffec67d69fed68b85b1370c34dff479d15afcd53437b9291f",
            "0x0000000000000000000000000000000000000000000000000000000000000003",
            "0x0000000000000000000000000b00144644ba73e8f83ccdcad5c838ccf9fdc581"
          ],
          "data": "0x",
          "blockHash": "0xb87f053a0c645cddda6422c54ba18f0e7260f7ca43bb2e2c3a9a3cd5161db4b9",
          "blockNumber": "0x21bf0fb",
          "blockTimestamp": "0x69bb8be3",
          "transactionHash": "0x48d7693751abf984e729967cf73e7ad7020ec8e74c886dd40da79e5748f173b9",
          "transactionIndex": "0x0",
          "logIndex": "0x7",
          "removed": false
        },
        {
          "address": "0x0000000000000000000000000000000000001010",
          "topics": [
            "0x4dfe1bbbcf077ddc3e01291eea2d5c70c2b422b415d95645b9adcfd678cb1d63",
            "0x0000000000000000000000000000000000000000000000000000000000001010",
            "0x0000000000000000000000008de56f797ff4aa43224ac277f04d595a30f782d6",
            "0x0000000000000000000000007ee41d8a25641000661b1ef5e6ae8a00400466b0"
          ],
          "data": "0x000000000000000000000000000000000000000000000000054818aab69c240000000000000000000000000000000000000000000000000656db537e2a4a82c5000000000000000000000000000000000000000000002f24a31c9b04d7a9d95300000000000000000000000000000000000000000000000651933ad373ae5ec5000000000000000000000000000000000000000000002f24a864b3af8e45fd53",
          "blockHash": "0xb87f053a0c645cddda6422c54ba18f0e7260f7ca43bb2e2c3a9a3cd5161db4b9",
          "blockNumber": "0x21bf0fb",
          "blockTimestamp": "0x69bb8be3",
          "transactionHash": "0x48d7693751abf984e729967cf73e7ad7020ec8e74c886dd40da79e5748f173b9",
          "transactionIndex": "0x0",
          "logIndex": "0x8",
          "removed": false
        }
      ],
      "logsBloom": "0x00008000000000000000000000000000001000000000000800000000004000000800000000000000000000040000000000008000020000000000000000000000000000000000000400000000000000800000000000000004000100201000000100800000000000000400000000000010400000001000000080020010000000000000000000102000020000000400000000000000041000000000000000000000200000000000000000000000000014000000000000800000000000010000404000000000000000000001000000000000800000400000000000100000005000000000000000000000000000000000000000001000000000000040000000100000",
      "type": "0x2",
      "transactionHash": "0x48d7693751abf984e729967cf73e7ad7020ec8e74c886dd40da79e5748f173b9",
      "transactionIndex": "0x0",
      "blockHash": "0xb87f053a0c645cddda6422c54ba18f0e7260f7ca43bb2e2c3a9a3cd5161db4b9",
      "blockNumber": "0x21bf0fb",
      "gasUsed": "0xc192db",
      "effectiveGasPrice": "0x6fc23ac3f",
      "from": "0x8de56f797ff4aa43224ac277f04d595a30f782d6",
      "to": "0x0cd7c44903b6d09b1e910a0c625be8fe8746d3c3",
      "contractAddress": null
    }
  ],
  "libraries": [],
  "pending": [],
  "returns": {},
  "timestamp": 1773898724220,
  "chain": 80002,
  "commit": "c6af396"
}