{
  "transactions": [
    {
      "hash": "0x64f3e62e2c500772e36701cdab181908cd1a051489995ffb2709bb85078e66ac",
      "transactionType": "CREATE",
      "contractName": "ScriptHub",
      "contractAddress": "0x2efb60f99e0d4d01fcfa95c937d3e9435e681c5a",
      "function": null,
      "arguments": null,
      "transaction": {
        "from": "0xdc328af6c71df52966890a7f007179c25be4ff3b",
        "gas": "0x1c2338",
        "value": "0x0",
        "input": "0x60806040523461039057604080519081016001600160401b0381118282101761029d576040908152601182527010db185dc8105c995b984814d8dc9a5c1d607a1b602083015280519081016001600160401b0381118282101761029d57604052600681526514d0d492541560d21b602082015281516001600160401b03811161029d57600054600181811c91168015610386575b602082101461027d57601f8111610322575b50602092601f82116001146102be57928192936000926102b3575b50508160011b916000199060031b1c1916176000555b80516001600160401b03811161029d57600154600181811c91168015610293575b602082101461027d57601f8111610218575b50602091601f82116001146101b4579181926000926101a9575b50508160011b916000199060031b1c1916176001555b33156101935760068054336001600160a01b03198216811790925560405191906001600160a01b03167f8be0079c531659141344cd1fd0a4f28419497f9722a3daafe3b4186f6b6457e0600080a361172f90816103968239f35b631e4fbdf760e01b600052600060045260246000fd5b015190503880610123565b601f198216926001600052806000209160005b858110610200575083600195106101e7575b505050811b01600155610139565b015160001960f88460031b161c191690553880806101d9565b919260206001819286850151815501940192016101c7565b60016000527fb10e2d527612073b26eecdfd717e6a320cf44b4afac2b0732d9fcbe2b7fa0cf6601f830160051c81019160208410610273575b601f0160051c01905b8181106102675750610109565b6000815560010161025a565b9091508190610251565b634e487b7160e01b600052602260045260246000fd5b90607f16906100f7565b634e487b7160e01b600052604160045260246000fd5b0151905038806100c0565b601f1982169360008052806000209160005b86811061030a57508360019596106102f1575b505050811b016000556100d6565b015160001960f88460031b161c191690553880806102e3565b919260206001819286850151815501940192016102d0565b600080527f290decd9548b62a8d60345a988386fc84ba6bc95484008f6362f93160ef3e563601f830160051c8101916020841061037c575b601f0160051c01905b81811061037057506100a5565b60008155600101610363565b909150819061035a565b90607f1690610093565b600080fdfe608080604052600436101561001357600080fd5b600090813560e01c90816301ffc9a7146110485750806306fdde0314610fc0578063081812fc14610f83578063095ea7b314610e9b578063150b7a0214610e4457806318160ddd14610a0157806323b872dd14610e2c5780633533fedf14610e0e57806342842e0e14610de45780634f586b8a14610c735780636352211e14610c425780636c307bf314610abd57806370a0823114610a6a578063715018a614610a1f57806375794a3c14610a015780638da5cb5b146109d857806395d89b41146109095780639bb3a3451461071c578063a22cb4651461067e578063a2c8bc981461056a578063a959100414610534578063b88d4fde146104a4578063c87b56dd14610448578063cfa2023114610213578063e985e9c5146101b95763f2fde38b1461013f57600080fd5b346101b65760203660031901126101b6576101586110f6565b6101606115bf565b6001600160a01b031680156101a257600680546001600160a01b0319811683179091556001600160a01b03166000805160206116ba833981519152600080a380f35b631e4fbdf760e01b82526004829052602482fd5b80fd5b50346101b65760403660031901126101b65760406101d56110f6565b916101de611111565b9260018060a01b031681526005602052209060018060a01b0316600052602052602060ff604060002054166040519015158152f35b50346101b65760203660031901126101b6576004356001600160401b03811161044457366023820112156104445760048101356001600160401b038111610440573660248260051b840101116104405761026b6115bf565b600a546104055790368190036042190190835b838110156103fb576009546102928161141c565b600955600060248360051b85010135858112156103f75784016024810135906001600160401b0382116103f35781360360448201136103f35783895260076020526040892092506102e38354611226565b601f81116103ae575b508890601f831160011461033b579180610327949260019796948c9261032d575b5050600019600383901b1c191690861b1790555b306115e8565b0161027e565b01604401359050388061030d565b838a5260208a2091601f1984168b5b81811061039357509260019796949192889383610327989610610375575b505050811b019055610321565b604491010135600019600384901b60f8161c19169055388080610368565b6044848401013585556001909401936020928301920161034a565b838a5260208a20601f840160051c810191602085106103e9575b601f0160051c01905b8181106103de57506102ec565b8a81556001016103d1565b90915081906103c8565b8880fd5b8780fd5b84600954600a5580f35b60405162461bcd60e51b8152602060048201526013602482015272105b1c9958591e481a5b9a5d1a585b1a5e9959606a1b6044820152606490fd5b8280fd5b5080fd5b50346101b65760203660031901126101b657610465600435611588565b50806040516104756020826111d2565b52506104a06040516104886020826111d2565b600081526040519182916020835260208301906110b5565b0390f35b50346101b65760803660031901126101b6576104be6110f6565b6104c6611111565b90606435906001600160401b038211610530573660238301121561053057816004013592846104f48561120b565b9361050260405195866111d2565b8585523660248783010111610444578561052d96602460209301838801378501015260443591611441565b80f35b8380fd5b50346101b65760203660031901126101b6576040602091600435815260088352205460a01b6040519060018060a01b0319168152f35b50346101b65760203660031901126101b65760043560095481101561064d5781526007602052604081209060405191818154916105a683611226565b808652926001811690811561062357506001146105e2575b6104a0856105ce818703826111d2565b6040519182916020835260208301906110b5565b815260208120939250905b808210610609575090915081016020016105ce826104a06105be565b9192600181602092548385880101520191019092916105ed565b8695506104a0969350602092506105ce94915060ff191682840152151560051b82010192936105be565b60405162461bcd60e51b8152602060048201526009602482015268139bdd08195e1a5cdd60ba1b6044820152606490fd5b50346101b65760403660031901126101b6576106986110f6565b60243590811515809203610440576001600160a01b0316908115610708573383526005602052604083208284526020526040832060ff1981541660ff83161790556040519081527f17307eab39ab6107e8899845ad3d59bd9653f200f220920489ca2b5937696c3160203392a380f35b630b61174360e31b83526004829052602483fd5b50346101b65760403660031901126101b657600435906024356001600160401b03811161044457610751903690600401611127565b909261075c81611588565b336001600160a01b03909116036108d857600a5481106108a2576107818215156113e1565b8252600760205260408220906001600160401b03811161088e576107a58254611226565b601f8111610849575b5082601f82116001146107e8578394829394926107dd575b50508160011b916000199060031b1c191617905580f35b0135905038806107c6565b601f198216948385526020852091855b878110610831575083600195969710610817575b505050811b01905580f35b0135600019600384901b60f8161c1916905538808061080c565b909260206001819286860135815501940191016107f8565b82845260208420601f830160051c81019160208410610884575b601f0160051c01905b81811061087957506107ae565b84815560010161086c565b9091508190610863565b634e487b7160e01b83526041600452602483fd5b60405162461bcd60e51b815260206004820152600e60248201526d111959985d5b1d081cd8dc9a5c1d60921b6044820152606490fd5b60405162461bcd60e51b81526020600482015260096024820152682737ba1037bbb732b960b91b6044820152606490fd5b50346101b657806003193601126101b65760405190806001549061092c82611226565b80855291600181169081156109b15750600114610954575b6104a0846105ce818603826111d2565b600181527fb10e2d527612073b26eecdfd717e6a320cf44b4afac2b0732d9fcbe2b7fa0cf6939250905b808210610997575090915081016020016105ce82610944565b91926001816020925483858801015201910190929161097e565b60ff191660208087019190915292151560051b850190920192506105ce9150839050610944565b50346101b657806003193601126101b6576006546040516001600160a01b039091168152602090f35b50346101b657806003193601126101b6576020600954604051908152f35b50346101b657806003193601126101b657610a386115bf565b600680546001600160a01b0319811690915581906001600160a01b03166000805160206116ba8339815191528280a380f35b50346101b65760203660031901126101b6576001600160a01b03610a8c6110f6565b168015610aa9578160409160209352600383522054604051908152f35b6322718ad960e21b82526004829052602482fd5b50346101b657610acc3661118e565b919092610ada8315156113e1565b60095492610ae78461141c565b600955838252600760205260408220906001600160401b03811161088e57610b0f8254611226565b601f8111610bfd575b50806020968490601f8311600114610b99578592610b8e575b50508160011b916000199060031b1c19161790555b6001600160a01b03198216610b6a575b5050610b6281336115e8565b604051908152f35b80836040925260088552209060a01c60018060601b03198254161790553880610b56565b013590503880610b31565b848652888620925090601f198416865b818110610be65750908460019594939210610bcc575b505050811b019055610b46565b0135600019600384901b60f8161c19169055388080610bbf565b91938a600181928787013581550195019201610ba9565b82845260208420601f830160051c81019160208410610c38575b601f0160051c01905b818110610c2d5750610b18565b848155600101610c20565b9091508190610c17565b50346101b65760203660031901126101b6576020610c61600435611588565b6040516001600160a01b039091168152f35b50346101b657610c823661118e565b919092610c8d6115bf565b610c988315156113e1565b60095492610ca58461141c565b600955838252600760205260408220906001600160401b03811161088e57610ccd8254611226565b601f8111610d9f575b506020958390601f8311600114610d3957604094939291849183610d2e575b50508160011b916000199060031b1c19161790555b83815260088552209060a01c60018060601b0319825416179055610b6281306115e8565b013590503880610cf5565b83855287852091601f198416865b818110610d88575091600193918560409897969410610d6e575b505050811b019055610d0a565b0135600019600384901b60f8161c19169055388080610d61565b91938a600181928787013581550195019201610d47565b82845260208420601f830160051c81019160208410610dda575b601f0160051c01905b818110610dcf5750610cd6565b848155600101610dc2565b9091508190610db9565b50346101b65761052d610df636611154565b9060405192610e066020856111d2565b858452611441565b50346101b657806003193601126101b6576020600a54604051908152f35b50346101b65761052d610e3e36611154565b91611260565b50346101b65760803660031901126101b657610e5e6110f6565b50610e67611111565b506064356001600160401b03811161044457610e87903690600401611127565b5050604051630a85bd0160e11b8152602090f35b50346101b65760403660031901126101b657610eb56110f6565b602435610ec181611588565b33151580610f70575b80610f45575b610f325781906001600160a01b0384811691167f8c5be1e5ebec7d5bd14f71427d1e84f3dd0314c0f7b2291e5b200ac8c7c3b9258680a4825260046020526040822080546001600160a01b0319166001600160a01b0390921691909117905580f35b63a9fbf51f60e01b845233600452602484fd5b506001600160a01b038116845260056020908152604080862033875290915284205460ff1615610ed0565b506001600160a01b038116331415610eca565b50346101b65760203660031901126101b657602090600435610fa481611588565b50815260048252604060018060a01b0391205416604051908152f35b50346101b657806003193601126101b6576040519080805490610fe282611226565b80855291600181169081156109b15750600114611009576104a0846105ce818603826111d2565b80805260208120939250905b80821061102e575090915081016020016105ce82610944565b919260018160209254838588010152019101909291611015565b9050346104445760203660031901126104445760043563ffffffff60e01b811680910361044057602092506380ac58cd60e01b81149081156110a4575b8115611093575b5015158152f35b6301ffc9a760e01b1490503861108c565b635b5e139f60e01b81149150611085565b919082519283825260005b8481106110e1575050826000602080949584010152601f8019910116010190565b806020809284010151828286010152016110c0565b600435906001600160a01b038216820361110c57565b600080fd5b602435906001600160a01b038216820361110c57565b9181601f8401121561110c578235916001600160401b03831161110c576020838186019501011161110c57565b606090600319011261110c576004356001600160a01b038116810361110c57906024356001600160a01b038116810361110c579060443590565b90604060031983011261110c576004356001600160a01b03198116810361110c5791602435906001600160401b03821161110c576111ce91600401611127565b9091565b601f909101601f19168101906001600160401b038211908210176111f557604052565b634e487b7160e01b600052604160045260246000fd5b6001600160401b0381116111f557601f01601f191660200190565b90600182811c92168015611256575b602083101461124057565b634e487b7160e01b600052602260045260246000fd5b91607f1691611235565b6001600160a01b03909116919082156113cb576000828152600260205260408120546001600160a01b0316938391859033151580611333575b506000805160206116da8339815191529082611311575b838152600360209081526040808320805460010190558683526002909152812080546001600160a01b0319168517905580a46001600160a01b03168083036112f757505050565b6364283d7b60e01b60005260045260245260445260646000fd5b61131a8561169b565b82815260036020526040812080546000190190556112b0565b91509192508061137c575b1561134d579084849238611299565b83908561136657602491637e27328960e01b8252600452fd5b60449163177e802f60e01b825233600452602452fd5b5033851480156113aa575b8061133e5750838152600460205260408120546001600160a01b0316331461133e565b5084815260056020908152604080832033845290915281205460ff16611387565b633250574960e11b600052600060045260246000fd5b156113e857565b60405162461bcd60e51b815260206004820152600c60248201526b115b5c1d1e481cd8dc9a5c1d60a21b6044820152606490fd5b600019811461142b5760010190565b634e487b7160e01b600052601160045260246000fd5b929161144e818386611260565b813b61145b575b50505050565b604051630a85bd0160e11b81523360048201526001600160a01b03948516602482015260448101919091526080606482015292169190602090829081906114a69060848301906110b5565b03816000865af18091600091611545575b509061151057503d15611509573d6114ce8161120b565b906114dc60405192836111d2565b81523d6000602083013e5b805190816115045782633250574960e11b60005260045260246000fd5b602001fd5b60606114e7565b6001600160e01b03191663757a42ff60e11b01611531575038808080611455565b633250574960e11b60005260045260246000fd5b6020813d602011611580575b8161155e602093836111d2565b810103126104445751906001600160e01b0319821682036101b65750386114b7565b3d9150611551565b6000818152600260205260409020546001600160a01b03169081156115ab575090565b637e27328960e01b60005260045260246000fd5b6006546001600160a01b031633036115d357565b63118cdaa760e01b6000523360045260246000fd5b6001600160a01b031680156113cb57600091808352600260205260018060a01b0360408420541691826000805160206116da8339815191528115159586611679575b838152600360209081526040808320805460010190558683526002909152812080546001600160a01b0319168517905580a45061166357565b6339e3563760e11b600052600060045260246000fd5b6116828561169b565b828152600360205260408120805460001901905561162a565b600090815260046020526040902080546001600160a01b031916905556fe8be0079c531659141344cd1fd0a4f28419497f9722a3daafe3b4186f6b6457e0ddf252ad1be2c89b69c2b068fc378daa952ba7f163c4a11628f55a4df523b3efa264697066735822122003a1bf4ee4254fe98cc68dfbd93d96110327d878b678c50699f2281a70bc176064736f6c634300081b0033",
        "nonce": "0x4c",
        "chainId": "0x89"
      },
      "additionalContracts": [],
      "isFixedGasLimit": false
    },
    {
      "hash": "0xe48c6c3fc6f627e7054ac4c01a9033d93ab94275752e9564ca22e611e273bf8e",
      "transactionType": "CREATE",
      "contractName": "LobsterHub",
      "contractAddress": "0x6f9d37419bfb43dbce48fefeaa38886bfc9faf6b",
      "function": null,
      "arguments": null,
      "transaction": {
        "from": "0xdc328af6c71df52966890a7f007179c25be4ff3b",
        "gas": "0x25c805",
        "value": "0x0",
        "input": "0x60806040523461046c576100136040610490565b601281527121b630bb9020b932b730902637b139ba32b960711b602082015261003c6040610490565b60078152662627a129aa22a960c91b602082015281516001600160401b03811161038f57600054600181811c91168015610462575b602082101461036f57601f8111610414575b50602092601f82116001146103b057928192936000926103a5575b50508160011b916000199060031b1c1916176000555b80516001600160401b03811161038f57600154600181811c91168015610385575b602082101461036f57601f8111610315575b50602091601f82116001146102b1579181926000926102a6575b50508160011b916000199060031b1c1916176001555b33156102905760068054336001600160a01b0319821681179092556001600160a01b03167f8be0079c531659141344cd1fd0a4f28419497f9722a3daafe3b4186f6b6457e0600080a3610168610471565b600a815260016020820152600160408201526000606082015260036080820152600160a082015260009060005b6006811061027157826007556101a9610471565b601e8152600a6020820152600360408201526005606082015260036080820152600960a082015260009060005b6006811061025257826008556101ea610471565b600181526001602082015260036040820152600160608201526000196080820152600160a082015260009060005b600681106102335782600955604051611e9e90816104e18239f35b9091602061024960019284865160000b916104cc565b93019101610218565b909160206102686001928460ff875116916104cc565b930191016101d6565b909160206102876001928460ff875116916104cc565b93019101610195565b631e4fbdf760e01b600052600060045260246000fd5b015190503880610101565b601f198216926001600052806000209160005b8581106102fd575083600195106102e4575b505050811b01600155610117565b015160001960f88460031b161c191690553880806102d6565b919260206001819286850151815501940192016102c4565b600160005261035f907fb10e2d527612073b26eecdfd717e6a320cf44b4afac2b0732d9fcbe2b7fa0cf6601f840160051c81019160208510610365575b601f0160051c01906104b5565b386100e7565b9091508190610352565b634e487b7160e01b600052602260045260246000fd5b90607f16906100d5565b634e487b7160e01b600052604160045260246000fd5b01519050388061009e565b601f1982169360008052806000209160005b8681106103fc57508360019596106103e3575b505050811b016000556100b4565b015160001960f88460031b161c191690553880806103d5565b919260206001819286850151815501940192016103c2565b6000805261045c907f290decd9548b62a8d60345a988386fc84ba6bc95484008f6362f93160ef3e563601f840160051c8101916020851061036557601f0160051c01906104b5565b38610083565b90607f1690610071565b600080fd5b6040519060c082016001600160401b0381118382101761038f57604052565b6040519190601f01601f191682016001600160401b0381118382101761038f57604052565b8181106104c0575050565b600081556001016104b5565b9060ff809160031b9316831b921b1916179056fe608080604052600436101561001357600080fd5b600090813560e01c90816301ffc9a7146114115750806306fdde0314611373578063081812fc14611336578063095ea7b31461124e578063150b7a02146111de57806318160ddd14610fec5780631ced1de5146111a757806323b872dd1461118f57806342842e0e146111655780634fd00c431461113c5780636352211e1461110b578063668c5c1a146110c65780636dfd8072146110a857806370a0823114611055578063715018a61461100a57806375794a3c14610fec5780638da5cb5b14610fc357806395d89b4114610eb6578063a1b1037314610e2a578063a22cb46514610d88578063b82e563114610bd2578063b88d4fde14610b42578063bb3b63ed14610b0c578063c112dcdc14610ae2578063c5c22e3e14610aab578063c87b56dd1461066d578063e88851b0146102b6578063e985e9c51461025c578063f2fde38b146101e5578063f5bcb562146101bb5763f6c64dc31461017657600080fd5b346101b85760203660031901126101b857604060209160043561019c600d5482106115cc565b8152600c8352205460a01b6040519060018060a01b0319168152f35b80fd5b50346101b85760203660031901126101b85760406020916004358152600b83522054604051908152f35b50346101b85760203660031901126101b8576101ff6114c6565b610207611998565b6001600160a01b0316801561024857600680546001600160a01b0319811683179091556001600160a01b0316600080516020611e298339815191528380a380f35b631e4fbdf760e01b82526004829052602482fd5b50346101b85760403660031901126101b85760406102786114c6565b916102816114e1565b9260018060a01b031681526005602052209060018060a01b0316600052602052602060ff604060002054166040519015158152f35b50346101b85760203660031901126101b8576102d0611531565b906102e66001600160a01b031983161515611785565b600f546001600160a01b0316803b1561066957818091604460405180948193634bc6a73f60e11b8352336004840152610bb860248401525af1801561065e57829061064e575b505060001943019043821161063a5763ffffffff600d549260405160208101914483524060408201524260608201528460808201526080815261037060a082611578565b519020168061063157506103846001611e06565b9260c092836040516103968282611578565b3690378492604051946103a98187611578565b368637805b60ff811660068110156103e557816001916103dd60ff6103ce8196611dbc565b90549060031b1c16918a611950565b5201166103ae565b5050848685600c5b848160010b13610516575091839284905b601560ff8316106104cd576020878960408989898961041c876117be565b600d5560ff81511688820151868301519060608401519261ff0062ff000063ff0000008d60a060808a0151990151908c528f600a905260ff60381b9060381b1698600161ffff600d818060281b941606161b60281b16978f60ff901b9060201b169660181b169460101b169260081b1617171717171783832055848252600b865282822055838152600c8552209060a01c60018060601b03198254161790556104c581336119c1565b604051908152f35b6104d990949194611e06565b908460031b6107f860f88216911681036105025760ff91600191838516901b17950116906103fe565b634e487b7160e01b87526011600452602487fd5b9061052090611e06565b90600660ff831606855b600660ff82161061053d575b50506103ed565b600660ff61054b8385611dd4565b160660ff811660ff61055d828a611950565b511660ff61056a84611dbc565b90549060031b1c1691600684101561061d578360051c9160ff6105a384600801958260f8601f8a1698549960031b1698891c1690611dd4565b16116105b8575050505060010160ff1661052a565b91935091935060ff6105df6105d8826105d1858d611950565b5116611a74565b928a611950565b91169052600901905054901c850b9060010b03617fff8113617fff19821217610609578780610536565b634e487b7160e01b85526011600452602485fd5b634e487b7160e01b8b52603260045260248bfd5b61038490611e06565b634e487b7160e01b81526011600452602490fd5b61065791611578565b388161032c565b6040513d84823e3d90fd5b5080fd5b50346101b85760203660031901126101b85760043590610690600d5483106115cc565b818152600a6020526040812054918152600c602052604081205460a01b918180925b60ff8416600c811015610a9d5785901a60f81b6001600160f81b031916156106ea5760016106e160ff92611a74565b940116926106b2565b60ff9193509391935b16906106fe82611a85565b92805b60ff81168481101561074557600c8110156107315760ff9181610729866001941a9189611ab7565b530116610701565b634e487b7160e01b83526032600452602483fd5b868661075360ff8316611ac8565b918060081c60ff1661076490611ac8565b908060101c60ff1661077590611ac8565b8160181c60ff1661078590611ac8565b908260201c60ff1661079690611ac8565b9260381c60ff166107a690611ac8565b93604051968796683d913730b6b2911d1160b91b60208901528051908160298a0191602001916107d59261147e565b7f222c226465736372697074696f6e223a22436c6177204172656e61204c6f6273602991890191820152681d195c88139195088b60ba1b60498201526d2261747472696275746573223a5b60901b60528201527a3d913a3930b4ba2fba3cb832911d1124281116113b30b63ab2911d60291b6060820152815191610862908390607b84019060200161147e565b0160290160528101611f4b60f21b90527b3d913a3930b4ba2fba3cb832911d1120aa259116113b30b63ab2911d60211b6054820152815191826070830191602001916108ad9261147e565b01605201601e8101611f4b60f21b9052602081017f7b2274726169745f74797065223a2252616e6765222c2276616c7565223a0000905281519182603e830191602001916108fa9261147e565b01601e0160208101611f4b60f21b9052602281017f7b2274726169745f74797065223a225370656564222c2276616c7565223a00009052815191826040830191602001916109479261147e565b0160200160208101611f4b60f21b9052602281017f7b2274726169745f74797065223a224d616e61222c2276616c7565223a000000905281519182603f830191602001916109949261147e565b01602001601f8101611f4b60f21b9052602181017f7b2274726169745f74797065223a22536b696c6c20506f776572222c2276616c9052633ab2911d60e11b6041820152815191826045830191602001916109ee9261147e565b01601f0160268101607d60f81b905260278101615d7d60f01b905203602601601c1981018252600301610a219082611578565b610a2a90611b66565b6040518091602082017f646174613a6170706c69636174696f6e2f6a736f6e3b6261736536342c000000905280519081603d84019160200191610a6c9261147e565b810103603d01601f1981018252610a839082611578565b60405180916020825260208201610a99916114a1565b0390f35b5060ff9193509391936106f3565b50346101b85760203660031901126101b8576040602091600435610ad2600d5482106115cc565b8152600a83522054604051908152f35b50346101b85760203660031901126101b85760406020916004358152600a83522054604051908152f35b50346101b85760203660031901126101b85760406020916004358152600c8352205460a01b6040519060018060a01b0319168152f35b50346101b85760803660031901126101b857610b5c6114c6565b610b646114e1565b90606435906001600160401b038211610bce5736602383011215610bce5781600401359284610b92856115b1565b93610ba06040519586611578565b85855236602487830101116106695785610bcb96602460209301838801378501015260443591611809565b80f35b8380fd5b50346101b85760603660031901126101b8576004356001600160401b03811161066957610c03903690600401611548565b906024356001600160401b038111610bce57610c23903690600401611548565b9092906044356001600160401b038111610d8457610c45903690600401611548565b90610c4e611998565b600e54610d495782841480610d40575b15610d0957865b848110610c765787600d54600e5580f35b600d5490610c83826117be565b600d55610c918187896117e3565b35828a52600a60205260408a2055610caa81868a6117e3565b35828a52600b60205260408a2055610cc38185856117e3565b356001600160a01b031981168103610d055782610cff916001948c52600c60205260408c209060a01c858060601b0319825416179055306119c1565b01610c65565b8980fd5b60405162461bcd60e51b815260206004820152600f60248201526e098cadccee8d040dad2e6dac2e8c6d608b1b6044820152606490fd5b50818414610c5e565b60405162461bcd60e51b8152602060048201526013602482015272105b1c9958591e481a5b9a5d1a585b1a5e9959606a1b6044820152606490fd5b8580fd5b50346101b85760403660031901126101b857610da26114c6565b60243590811515809203610e26576001600160a01b0316908115610e12573383526005602052604083208284526020526040832060ff1981541660ff83161790556040519081527f17307eab39ab6107e8899845ad3d59bd9653f200f220920489ca2b5937696c3160203392a380f35b630b61174360e31b83526004829052602483fd5b8280fd5b50346101b85760603660031901126101b857602090610e47611531565b610e4f611998565b610e646001600160a01b031982161515611785565b6040600d5492610e73846117be565b600d55838152600a855260243582822055838152600b855260443582822055838152600c8552209060a01c60018060601b03198254161790556104c581306119c1565b50346101b857806003193601126101b8576040519080600154908160011c91600181168015610fb9575b602084108114610fa557838652908115610f7e5750600114610f21575b610a9984610f0d81860382611578565b6040519182916020835260208301906114a1565b600181527fb10e2d527612073b26eecdfd717e6a320cf44b4afac2b0732d9fcbe2b7fa0cf6939250905b808210610f6457509091508101602001610f0d82610efd565b919260018160209254838588010152019101909291610f4b565b60ff191660208087019190915292151560051b85019092019250610f0d9150839050610efd565b634e487b7160e01b83526022600452602483fd5b92607f1692610ee0565b50346101b857806003193601126101b8576006546040516001600160a01b039091168152602090f35b50346101b857806003193601126101b8576020600d54604051908152f35b50346101b857806003193601126101b857611023611998565b600680546001600160a01b0319811690915581906001600160a01b0316600080516020611e298339815191528280a380f35b50346101b85760203660031901126101b8576001600160a01b036110776114c6565b168015611094578160409160209352600383522054604051908152f35b6322718ad960e21b82526004829052602482fd5b50346101b857806003193601126101b8576020600e54604051908152f35b50346101b85760203660031901126101b8576110e06114c6565b6110e8611998565b600f80546001600160a01b0319166001600160a01b039290921691909117905580f35b50346101b85760203660031901126101b857602061112a600435611961565b6040516001600160a01b039091168152f35b50346101b857806003193601126101b857600f546040516001600160a01b039091168152602090f35b50346101b857610bcb611177366114f7565b9060405192611187602085611578565b858452611809565b50346101b857610bcb6111a1366114f7565b91611604565b50346101b85760203660031901126101b85760406020916004356111ce600d5482106115cc565b8152600b83522054604051908152f35b50346101b85760803660031901126101b8576111f86114c6565b506112016114e1565b506064356001600160401b03811161066957366023820112156106695760048101356001600160401b038111610e2657369101602401116101b857604051630a85bd0160e11b8152602090f35b50346101b85760403660031901126101b8576112686114c6565b60243561127481611961565b33151580611323575b806112f8575b6112e55781906001600160a01b0384811691167f8c5be1e5ebec7d5bd14f71427d1e84f3dd0314c0f7b2291e5b200ac8c7c3b9258680a4825260046020526040822080546001600160a01b0319166001600160a01b0390921691909117905580f35b63a9fbf51f60e01b845233600452602484fd5b506001600160a01b038116845260056020908152604080862033875290915284205460ff1615611283565b506001600160a01b03811633141561127d565b50346101b85760203660031901126101b85760209060043561135781611961565b50815260048252604060018060a01b0391205416604051908152f35b50346101b857806003193601126101b85760405190808054908160011c91600181168015611407575b602084108114610fa557838652908115610f7e57506001146113c857610a9984610f0d81860382611578565b80805260208120939250905b8082106113ed57509091508101602001610f0d82610efd565b9192600181602092548385880101520191019092916113d4565b92607f169261139c565b9050346106695760203660031901126106695760043563ffffffff60e01b8116809103610e2657602092506380ac58cd60e01b811490811561146d575b811561145c575b5015158152f35b6301ffc9a760e01b14905038611455565b635b5e139f60e01b8114915061144e565b60005b8381106114915750506000910152565b8181015183820152602001611481565b906020916114ba8151809281855285808601910161147e565b601f01601f1916010190565b600435906001600160a01b03821682036114dc57565b600080fd5b602435906001600160a01b03821682036114dc57565b60609060031901126114dc576004356001600160a01b03811681036114dc57906024356001600160a01b03811681036114dc579060443590565b600435906001600160a01b0319821682036114dc57565b9181601f840112156114dc578235916001600160401b0383116114dc576020808501948460051b0101116114dc57565b601f909101601f19168101906001600160401b0382119082101761159b57604052565b634e487b7160e01b600052604160045260246000fd5b6001600160401b03811161159b57601f01601f191660200190565b156115d357565b60405162461bcd60e51b8152602060048201526009602482015268139bdd08195e1a5cdd60ba1b6044820152606490fd5b6001600160a01b039091169190821561176f576000828152600260205260408120546001600160a01b03169383918590331515806116d7575b50600080516020611e4983398151915290826116b5575b838152600360209081526040808320805460010190558683526002909152812080546001600160a01b0319168517905580a46001600160a01b031680830361169b57505050565b6364283d7b60e01b60005260045260245260445260646000fd5b6116be85611de8565b8281526003602052604081208054600019019055611654565b915091925080611720575b156116f157908484923861163d565b83908561170a57602491637e27328960e01b8252600452fd5b60449163177e802f60e01b825233600452602452fd5b50338514801561174e575b806116e25750838152600460205260408120546001600160a01b031633146116e2565b5084815260056020908152604080832033845290915281205460ff1661172b565b633250574960e11b600052600060045260246000fd5b1561178c57565b60405162461bcd60e51b815260206004820152600a602482015269456d707479206e616d6560b01b6044820152606490fd5b60001981146117cd5760010190565b634e487b7160e01b600052601160045260246000fd5b91908110156117f35760051b0190565b634e487b7160e01b600052603260045260246000fd5b9291611816818386611604565b813b611823575b50505050565b604051630a85bd0160e11b81523360048201526001600160a01b039485166024820152604481019190915260806064820152921691906020908290819061186e9060848301906114a1565b03816000865af1809160009161190d575b50906118d857503d156118d1573d611896816115b1565b906118a46040519283611578565b81523d6000602083013e5b805190816118cc5782633250574960e11b60005260045260246000fd5b602001fd5b60606118af565b6001600160e01b03191663757a42ff60e11b016118f957503880808061181d565b633250574960e11b60005260045260246000fd5b6020813d602011611948575b8161192660209383611578565b810103126106695751906001600160e01b0319821682036101b857503861187f565b3d9150611919565b9060068110156117f35760051b0190565b6000818152600260205260409020546001600160a01b0316908115611984575090565b637e27328960e01b60005260045260246000fd5b6006546001600160a01b031633036119ac57565b63118cdaa760e01b6000523360045260246000fd5b6001600160a01b0316801561176f57600091808352600260205260018060a01b036040842054169182600080516020611e498339815191528115159586611a52575b838152600360209081526040808320805460010190558683526002909152812080546001600160a01b0319168517905580a450611a3c57565b6339e3563760e11b600052600060045260246000fd5b611a5b85611de8565b8281526003602052604081208054600019019055611a03565b60ff1660ff81146117cd5760010190565b90611a8f826115b1565b611a9c6040519182611578565b8281528092611aad601f19916115b1565b0190602036910137565b9081518110156117f3570160200190565b8015611b465780600081805b611b2e5750611ae281611a85565b925b611aed57505090565b80156117cd576000190190600a810660300190816030116117cd57600a9160f81b6001600160f81b03191660001a611b258486611ab7565b53049081611ae4565b9150611b3b600a916117be565b910480839291611ad4565b50604051611b55604082611578565b60018152600360fc1b602082015290565b604051611b74606082611578565b604081527f4142434445464748494a4b4c4d4e4f505152535455565758595a61626364656660208201527f6768696a6b6c6d6e6f707172737475767778797a303132333435363738392b2f604082015281518015611da457600281018082116117cd57600390046001600160fe1b03811681036117cd57611bf79060021b611a85565b9260009060005b838110611c0d57505050505090565b611c178183611ab7565b5160018201808311806117cd578682109060008215611d9d575050611c3e60009286611ab7565b5160f81c915b600285019182861193846117cd578984109460008615611d94575050611c6c60009489611ab7565b5160f81c955b60e81c62ff00001660089190911b61ff00161760ff861617918b611cbf6001600160f81b0319611ca9601287901c603f168f611ab7565b51169a611cb5816117be565b9b60001a92611ab7565b538b611cde6001600160f81b0319611ca9600c87901c603f168f611ab7565b536117cd5715611d88576001600160f81b031990611d029060061c603f168a611ab7565b5116955b611d1d611d12826117be565b9760001a918b611ab7565b536117cd5715611d7c576001600160f81b031990611d3e90603f1687611ab7565b5116925b611d59611d4e826117be565b9460001a9188611ab7565b536003810180911115611bfe57634e487b7160e01b600052601160045260246000fd5b50603d60f81b92611d42565b50603d60f81b95611d06565b90945095611c72565b9250611c44565b505050604051611db5602082611578565b6000815290565b9060068210156117f357601f8260051c600701921690565b9060ff8091169116019060ff82116117cd57565b600090815260046020526040902080546001600160a01b0319169055565b63ffffe00081600d1b1618617fff8160111c161863ffffffe08160051b16189056fe8be0079c531659141344cd1fd0a4f28419497f9722a3daafe3b4186f6b6457e0ddf252ad1be2c89b69c2b068fc378daa952ba7f163c4a11628f55a4df523b3efa2646970667358221220caa3fe66368c3775ff0005fc271ebe738c2c6bb2be15affa4be9cb7c4fb626b064736f6c634300081b0033",
        "nonce": "0x4d",
        "chainId": "0x89"
      },
      "additionalContracts": [],
      "isFixedGasLimit": false
    },
    {
      "hash": "0xef89b70e2c8056cdcde4f7919c4d699a6e829d046c42188540c8de9fda96f858",
      "transactionType": "CREATE",
      "contractName": "ClawArena",
      "contractAddress": "0x75d7003694edefec0c2affcc17ba870e8af2dfea",
      "function": null,
      "arguments": null,
      "transaction": {
        "from": "0xdc328af6c71df52966890a7f007179c25be4ff3b",
        "gas": "0x409ca1",
        "value": "0x0",
        "input": "0x608080604052346015576139f2908161001b8239f35b600080fdfe61018080604052600436101561001457600080fd5b60003560e01c9081630251838414612ec0575080630339887314612c28578063072ea61c14612c055780630800e3a214612bb25780632752398d14612b11578063334d8de314612ae857806334cb68c814612aab5780633a7fb59514612a655780633e04bf1514612a405780633f4ba83a14612a0d578063485cc955146128815780634b34d1b4146127725780635a5c69d61461271b5780635c12cd4b1461250e5780635c975abb146124e85780636d763a6e146121de57806379c4264b146121ba5780637eef78fc14612180578063809d38201461213057806383bc8d75146120e05780638456cb59146120a95780638da5cb5b14612080578063978d4e7e14611fc45780639943c3a514611f845780639ce67bdd14611f47578063a39fac1214611f03578063a5951aa014611dd3578063aa3491b714611daa578063af137ca814611d74578063ba3823a614610911578063bcb39621146108f0578063be5957d714610857578063bebd607a1461082a578063c5886fbd1461077c578063ccd793821461061e578063d73f3b39146104b3578063d8fa27381461048a578063e18d38ce14610444578063e2eb41ff14610356578063f2fde38b14610305578063f4381364146102115763f60cdcf6146101ee57600080fd5b3461020c57600036600319011261020c576020600654604051908152f35b600080fd5b3461020c57604036600319011261020c5761022a612ee9565b610232612f2a565b6004546001600160a01b0316331415806102ea575b806102d5575b6102c55760ff811661028357506001600160a01b0316600090815260056020526040902060090180546001600160f81b03169055005b6001600160a01b039091166000908152600560205260409020600901805460f89290921b6001600160f81b0319166001600160f81b0392909216919091179055005b6282b42960e81b60005260046000fd5b506000546001600160a01b031633141561024d565b506002543360109190911c6001600160a01b03161415610247565b3461020c57602036600319011261020c5761031e612ee9565b60005490610336336001600160a01b03841614612fd9565b6001600160a01b031690811561020c576001600160a01b03191617600055005b3461020c57602036600319011261020c576001600160a01b03610377612ee9565b1660005260056020526101c06040600020805460801b906001810154906002810154600382015463ffffffff60ff6004850154166005850154600686015460000b600787015491600888015493600989015496600a8a01549866ffffffffffffff600c600b8d01549c0154169b60206040519e8f9060018060801b0319168152015260408d015260608c015260808b015260a08a015260c089015260e088015281811661010088015260201c166101208601526101408501526101608401526101808301526101a0820152f35b3461020c57602036600319011261020c576001600160a01b03610465612ee9565b166000526005602052602060406000205460801b6040519060018060801b0319168152f35b3461020c57600036600319011261020c57604b546040516001600160a01b039091168152602090f35b3461020c57606036600319011261020c576104cc612ee9565b6024359063ffffffff82169081830361020c576104e7612f3a565b9291156105f8575b5060009063ffffffff815b1691821515806105e9575b1561053157610513906130e9565b91600052600860205263ffffffff8060406000205460201c166104fa565b60ff1661053d81613131565b9061054781613163565b92906000915b60ff8316828110156105d6578063ffffffff61056c6105b193886131c1565b9316809352826000526008602052604060002063ffffffff6040519161059183613043565b54818116835260201c1660208201526105aa82896131c1565b52866131c1565b50600052600860205260ff600163ffffffff60406000205460201c169301169161054d565b604051806105e5888883612f4a565b0390f35b5060ff841660ff821610610505565b6001600160a01b031660009081526009602052604090205463ffffffff169050826104ef565b3461020c57602036600319011261020c5760043560ff8116810361020c5760ff61064782613354565b90549060031b1c1690600781101590816107085760081b604c019160ff9161067060ff8561336d565b905460039190911b1c6001600160a01b0316156107735761ffff6101005b16936106998561311a565b916106a76040519384613079565b8583526106b38661311a565b602084019490601f190136863760005b61ffff81168881101561071e578361070857816001916107006106eb8b61ffff96168961336d565b858060a01b0391549060031b1c1691896131c1565b5201166106c3565b634e487b7160e01b600052603260045260246000fd5b858388604051916040830193604084525180945260608301916000945b80861061075057505082935060208301520390f35b81516001600160a01b03168452600195909501946020938401939091019061073b565b61ffff8261068e565b3461020c57604036600319011261020c57610795612ee9565b602435906001600160801b03198216820361020c576004546001600160a01b03163314158061080f575b806107fa575b6102c5576001600160a01b0316600090815260056020526040902080546001600160801b03191660809290921c919091179055005b506000546001600160a01b03163314156107c5565b506002543360109190911c6001600160a01b031614156107bf565b3461020c57600036600319011261020c5760025460405160109190911c6001600160a01b03168152602090f35b3461020c57604036600319011261020c57610870612ee9565b610878612f2a565b9060018060a01b0360045416331415806108d5575b806108c0575b6102c55760018060a01b03166000526005602052600160ff600560406000200192161b8154179055600080f35b506000546001600160a01b0316331415610893565b506002543360109190911c6001600160a01b0316141561088d565b3461020c57600036600319011261020c57602060ff60025416604051908152f35b606036600319011261020c57610925612f3a565b600260015414611d435760026001556002549060ff8260081c16611d325733600052600560205260406000209160018060a01b038160101c166040516331a9108f60e11b81526004356004820152602081602481855afa908115610f5f57600091611d13575b506001600160a01b0316908114159081611d08575b50611cf75760018060a01b03600354166040516331a9108f60e11b81526024356004820152602081602481855afa908115610f5f57600091611cc8575b506001600160a01b0316908114159081611cbd575b50611cad57600483019060ff80835416911611611c88575b50600181161515908180611c74575b80611c6c575b611c2557600281161515928380611c5a575b611c2557600482161515918280611c48575b611c25576008161515928380611c36575b611c255715611bc15734611bb057600581018054600160401b191690555b63ffffffff600782015460405160208101914483524260408301523360601b6060830152607482015260748152610aaa609482613079565b51902016938415611ba7575b60646001830154046000608052600760805260ff610ad5608051613219565b16811015611b9257915b6040519360e0610aef8187613079565b36863760ff600094169660006101605260ff610160525b610b0f88613354565b6101605191549060031b1c1660805189101561070857610b38610160518a60081b604c0161336d565b905460039190911b1c6001600160a01b031615611b8d57506101005b600861ffff821610611ad35761ffff60071991160161ffff81116115945761ffff600291160161ffff81116115945761ffff811615611abd57610bac61ffff80921663ffffffff841606607f60805160011c166135f3565b1696607f60805160011c16880361ffff8111611594575b60805161ffff60019190911c607f168a01116115945761ffff607f60805160011c168a011661ffff8216111580611aa8575b15610c5c576080518a10156107085780610c18610c38928c60081b604c0161336d565b905460039190911b1c6001600160a01b0316338103610c3d575b506135e0565b610bc3565b610c55610c498a6130e9565b9961016051168b6132c1565b528b610c32565b509650965b610160516080511661016051861610801590611a9b575b610c8b57610c859061360d565b96610b06565b50849087876101009560405196610ca28189613079565b8036893760405196610cb48289613079565b8136893760405160e052610cca8260e051613079565b813660e0513760405160a052610ce28260a051613079565b813660a0513760405161014052610cfc8261014051613079565b60005b828110611a895750338952600435885260243560e0515260018060a01b0360025460101c1660c0526040516362e1171f60e11b8152600435600482015260208160248160c0515afa908115610f5f57600091611a57575b5060a0515260018060a01b036003541661010052604051631459179360e31b81526024356004820152600081602481610100515afa908115610f5f57600091611a3c575b5061014051526000610120525b61016051608051166101605161012051161015610f9f5761016051610120516001600160a01b0391610dda9116896132c1565b511680610df761016051610df0610120516132d2565b168c61322c565b52806000526005602052600a60406000200154610e2461016051610e1d610120516132d2565b168b61322c565b526000526005602052600b60406000200154610e5261016051610e49610120516132d2565b1660e05161322c565b52610e6d61016051610e66610120516132d2565b168961322c565b51604051906362e1171f60e11b8252600482015260208160248160c0515afa908115610f5f57600091610f6b575b50610eb861016051610eaf610120516132d2565b1660a05161322c565b52610ecc61016051610e49610120516132d2565b5160405190631459179360e31b82526004820152600081602481610100515afa8015610f5f57610f2891600091610f3e575b5061016051610f0f610120516132d2565b1690610f1e826101405161322c565b526101405161322c565b5061016051600161012051011661012052610da7565b610f59913d8091833e610f518183613079565b810190613260565b8b610efe565b6040513d6000823e3d90fd5b906020823d8211610f97575b81610f8460209383613079565b81010312610f945750518a610e9b565b80fd5b3d9150610f77565b87899160405195632ee04c5d60e21b87526004870161014488019060a051906000905b60088210611a265750505061014061010489015287610244810191610140519060005b600881106119e257505050806105009263ffffffff8c16610124830152038173aa844db251863f4029d4d6398866439ccc5dec065af4968715610f5f576000976118f4575b5060009860006040519061103d8261305e565b808252806020830152806040830152806060830152608082015260005b61016051811660088110156118e25761016051611077828d61322c565b5151161561108e575060016101605191011661105a565b91506110a492939495969798999a9b509961322c565b51955b6001840154966000986001995b6008610160518c161015611131576110f1908b8a60018060a01b036110de6101605184168361322c565b5160009116611101575050508a906130b9565b99600161016051910116996110b4565b610160516001936040936001600160a01b039261111f92169061322c565b511681526005602052200154906130b9565b8c995061114a8c9199989961016051608051169061320f565b91336000526005602052604060002094600186019283549261116b826138d2565b60010b608088019788516118c1575b6060019661016051885116600281101561188e575b506111a261119c876130ab565b916130ab565b91600081131561182857606483029280840460641490151715611594576111ce6111e59260649461320f565b906096821161181f575b601482106118165761361d565b05801561180e575b809980611804575b6117d4575b50806117ca575b6117b2575b6000881392831561173c575061121d8885546130b9565b84555b61ffff61122c8261393c565b169861170f575b600287016112428a82546130b9565b90556101605185511692156116e0576008870163ffffffff6112668183541661331a565b825463ffffffff191691161790556003870180546000811290811590826116d55760010191600183129081151691161761159457905b555b6080518701948554156116c2575b6112b6865461309c565b86556112d96112d360088a019563ffffffff875460201c166135f3565b85613331565b6009600389019889546000811390816116ac575b50611669575b0196875460018117975490606482101561165c575b506103e81115611652575b51611648575b61016051905116600381101561163d575b60051115611633575b6101605116958615611629575b5490600a82121561161f575b506032811215611613575b60641315611608575b5463ffffffff8160201c1660648110156115fd575b6101f48110156115f1575b6103e811156115e5575b63ffffffff16600a8110156115d9575b60648110156115cc575b6103e811156115c0575b54956064870480610160516113c4608051613219565b16106115aa575b60018101809111611594576001901b60001981019081116115945761ffff976064946001946114009360c81b17905533613640565b600435600a820155602435600b82015501540461016051611422608051613219565b1681101561157b5761143a905b6101605116336134de565b63ffffffff60405197168752602087015260010b6040860152166060840152608083016000905b6008821061155b57846114786101808201866132f2565b611488610280820160e0516132f2565b7f3052d80a3839b2c5f144988a5cc0935093ca5d2c04d48ff371f73ebd3cca81fb6103803392a26115276080515463ffffffff6114c681831661331a565b16809163ffffffff1916176080515533600052600960205263ffffffff8060406000205416604051926114f884613043565b824316845260208401918252600052600860205281806040600020945116168219845416178355511690613331565b63ffffffff608051541633600052600960205263ffffffff6040600020911663ffffffff1982541617905560018055600080f35b82516001600160a01b031681526020928301926001929092019101611461565b5061143a6101605161158e608051613219565b1661142f565b634e487b7160e01b600052601160045260246000fd5b50610160516115ba608051613219565b166113cb565b906204000017906113ae565b62020000909217916113a4565b9162010000179161139a565b6180009092179161138a565b61400090931792611380565b926120001792611375565b916104001791611360565b61020090931792611357565b909317928c61134c565b9360401793611340565b9360201793611333565b60109095179461132a565b9460081794611319565b9560041795611313565b60031797506103e8611308565b604b80546001600160a01b031981163390811783558c546001600160b01b031990921661ffff60a01b199091161760a09190911b61ffff60a01b161790556112f3565b905061ffff80604b5460a01c16911611386112ed565b6116cd60065461309c565b6006556112ac565b50505060019061129c565b6003870180546000811361170557600019810190811360011661159457905b5561129e565b50600019906116ff565b9760968102908082046096149015171561159457600587018054600160431b191690556064900497611233565b6000891261174b575b50611220565b600160ff1b8914611594578860000360648204916064830292808404606414901517156115945781811161178757505050600084555b8d611745565b8261179283836130fa565b10156117a15750508455611781565b6117ab92506130fa565b8455611781565b600587018054600160411b1916905560009750611206565b5060008812611201565b90985060968102908082056096149015171561159457600588018054600160421b1916905560649005978e6111fa565b50600081136111f5565b5060016111ed565b6014915061361d565b609691506111d8565b9160008312611839575b50506111ed565b90916064830292808404606414901517156115945761185d6118749260649461320f565b9060c88211611885575b6032821061187c5761361d565b058f80611832565b6032915061361d565b60c89150611867565b9091600582029180830560051490151715611594576000828201928312911290801582169115161761159457903861118f565b90600a8101906000600a83129112908015821691151617611594579061117a565b505096975090919293949897986110a7565b6105009791973d81116119db575b61190c8183613079565b810190610500818303126119d75781601f820112156119d757604051926119338885613079565b83926105008301928184116119d757935b838510611957575050505050958961102a565b60a0858303126119d75760405161196d8161305e565b611976866132e4565b8152611984602087016132e4565b6020820152604086015161ffff811681036119d35760408201526119aa606087016132e4565b6060820152608086015180151581036119d3576080820152815260a09490940193602001611944565b8480fd5b8280fd5b503d611902565b9193602080809260019496610143199082030187528751611a0e8151809281855285808601910161323d565b601f01601f19160101958d9591019391019101610fe5565b6020806001928551815201930191019091610fc2565b611a5191503d806000833e610f518183613079565b8a610d9a565b90506020813d602011611a81575b81611a7260209383613079565b8101031261020c57518a610d56565b3d9150611a65565b80606060209261014051015201610cff565b5061016051811615610c78565b50610160516080511661016051881610610bf5565b634e487b7160e01b600052601260045260246000fd5b61ffff8199929916611ae6575b50610c61565b9660009891985b61ffff891661ffff82161080611b78575b15611b6e576080518a101561070857611b4861ffff91611b296101605182168d60081b604c0161336d565b905460039190911b1c6001600160a01b0316338103611b4f57506135e0565b9050611aed565b611b67611b5b8b6130e9565b9a61016051168c6132c1565b528c610c32565b5096509688611ae0565b50610160516080511661016051881610611afe565b610b54565b5060ff611ba0608051613219565b1691610adf565b60019450610ab6565b634d0419db60e11b60005260046000fd5b670de0b6b3a76400003403611bb05760008080803460018060a01b038254165af13d15611c20573d611bf2816131f4565b90611c006040519283613079565b8152600060203d92013e5b610a72576312171d8360e31b60005260046000fd5b611c0b565b630d5efa9960e01b60005260046000fd5b506005820154600160431b1615610a54565b506005820154600160421b1615610a43565b506005810154600160411b1615610a31565b508115610a1f565b6005840154600160401b1615159250610a19565b600060018401556000600384015560ff80600254161660ff1982541617905582610a0a565b622d261b60e31b60005260046000fd5b9050331415846109f2565b611cea915060203d602011611cf0575b611ce28183613079565b8101906131d5565b856109dd565b503d611cd8565b63164f80dd60e11b60005260046000fd5b9050331415846109a0565b611d2c915060203d602011611cf057611ce28183613079565b8561098b565b6313d0ff5960e31b60005260046000fd5b60405162461bcd60e51b81526020600482015260096024820152681499595b9d1c985b9d60ba1b6044820152606490fd5b3461020c57602036600319011261020c57600435602081101561020c57600a01546040516001600160a01b039091168152602090f35b3461020c57600036600319011261020c576003546040516001600160a01b039091168152602090f35b3461020c57604036600319011261020c57611dec612eff565b611df4612f2a565b63ffffffff82168015908115611ef1575b50611ee1575b8160005b63ffffffff8416151580611ed2575b15611e3b57611e2f611e35916130e9565b93613107565b92611e0f565b60ff16611e4781613131565b90611e5181613163565b92906000915b60ff831690828210156105d657611ec9600191611ec384611e7a60ff968a6131c1565b63ffffffff84168091526000526008602052604060002063ffffffff60405191611ea383613043565b54818116835260201c166020820152611ebc828c6131c1565b52896131c1565b50613107565b93011691611e57565b5060ff831660ff821610611e1e565b60075463ffffffff169150611e0b565b905063ffffffff600754161083611e05565b3461020c57600036600319011261020c576002546003546004546040805160109490941c6001600160a01b0390811685529283166020850152911690820152606090f35b3461020c57602036600319011261020c576001600160a01b03611f68612ee9565b1660005260056020526020600960406000200154604051908152f35b3461020c57602036600319011261020c576001600160a01b03611fa5612ee9565b166000526009602052602063ffffffff60406000205416604051908152f35b3461020c57604036600319011261020c57611fdd612ee9565b6024359060018060a01b036004541633141580612065575b80612050575b6102c5576001600160a01b0316600081815260056020526040902060020154821161203f57600052600560205261203b60026040600020019182546130fa565b9055005b6376208d7360e11b60005260046000fd5b506000546001600160a01b0316331415611ffb565b506002543360109190911c6001600160a01b03161415611ff5565b3461020c57600036600319011261020c576000546040516001600160a01b039091168152602090f35b3461020c57600036600319011261020c576120cf60018060a01b03600054163314612fd9565b6002805461ff001916610100179055005b3461020c57602036600319011261020c576120f9612ee9565b61210e60018060a01b03600054163314612fd9565b600380546001600160a01b0319166001600160a01b0392909216919091179055005b3461020c57602036600319011261020c57612149612ee9565b61215e60018060a01b03600054163314612fd9565b600480546001600160a01b0319166001600160a01b0392909216919091179055005b3461020c57602036600319011261020c57600435602081101561020c5760ff6121aa602092612f12565b90549060031b1c16604051908152f35b3461020c57600036600319011261020c57602063ffffffff60075416604051908152f35b3461020c57600036600319011261020c57610400806040516122008282613079565b369037806040516122118282613079565b369037806040516122228282613079565b36903760405190600a6000835b602082106124c8575050506122448183613079565b604051602a6000825b602082106124b2575050506122628282613079565b60405191604a600082855b6020601f84011061231057509050612286915084613079565b604051936000855b602082106122f05750505083016000905b602082106122da5750505061080082016000905b602082106122c157610c0084f35b60208060019260ff8651168152019301910190916122b3565b602080600192855181520193019101909161229f565b82516001600160a01b03168152602092830192600192909201910161228e565b602091600191855460ff8116825260ff8160081c168583015260ff8160101c16604083015260ff8160181c16606083015260ff81861c16608083015260ff8160281c1660a083015260ff8160301c1660c083015260ff8160381c1660e083015260ff8160401c1661010083015260ff8160481c1661012083015260ff8160501c1661014083015260ff8160581c1661016083015260ff8160601c1661018083015260ff8160681c166101a083015260ff8160701c166101c083015260ff8160781c166101e083015260ff8160801c1661020083015260ff8160881c1661022083015260ff8160901c1661024083015260ff8160981c1661026083015260ff8160a01c1661028083015260ff8160a81c166102a083015260ff8160b01c166102c083015260ff8160b81c166102e083015260ff8160c01c1661030083015260ff8160c81c1661032083015260ff8160d01c1661034083015260ff8160d81c1661036083015260ff8160e01c1661038083015260ff8160e81c166103a083015260ff8160f01c166103c083015260f81c6103e082015201930191019091839061226d565b600160208192855481520193019101909161224d565b82546001600160a01b03168152600192830192919091019060200161222f565b3461020c57600036600319011261020c57602060ff60025460081c166040519015158152f35b3461020c57602036600319011261020c57612527612ee9565b60405161253381613011565b60008152602081016000905260408101600090526060810160009052608081016000905260a081016000905260c081016000905260e08101600090526101008101600090526101208101600090526101408101600090526101608101600090526101808101600090526101a00160009052600160a01b6001900316600052600560205260406000206040516125c781613011565b80600160801b6001900319835460801b16928382526001810154936020830194855260028201546040840190815260038301549060608501918252600484015460ff1660808601908152600585015460a08701908152600686015460000b9060c0880191825260078701549260e089019384526008880154956101008a019563ffffffff881687526101208b019760201c63ffffffff16885260098a0154986101408c01998a52600a8b01549a6101608d019b8c52600b8101549c610180019c8d52600c015466ffffffffffffff169c6101a0019c8d526040519d8e9182525190602001525160408d01525160608c01525160ff1660808b01525160a08a01525160000b60c08901525160e08801525163ffffffff166101008701525163ffffffff166101208601525161014085015251610160840152516101808301525166ffffffffffffff166101a08201526101c090f35b3461020c57602036600319011261020c57612734612ee9565b61274960018060a01b03600054163314612fd9565b6002805462010000600160b01b03191660109290921b62010000600160b01b0316919091179055005b3461020c57600036600319011261020c576004546001600160a01b031633141580612866575b80612851575b6102c55760005b602060ff8216106128075760018060b01b0319604b5416604b5560025460ff6127f98183167f3bfcc3e41aa03b7575bc15e72aa39826ec3640d8d71058400d3e72cbd34ca7506020604051838152a16130e9565b60ff19909216911617600255005b602081101561070857600a810180546001600160a01b03191690556000602a82015560ff9060019061284a61283b82612f12565b60ff82549160031b1b19169055565b01166127a5565b506000546001600160a01b031633141561279e565b506002543360109190911c6001600160a01b03161415612798565b3461020c57604036600319011261020c5761289a612ee9565b6024356001600160a01b0381169081900361020c5760008051602061399d83398151915254604081901c60ff1615929091906001600160401b03831680159081612a05575b60011490816129fb575b1590816129f2575b506129e15760016001600160401b03198416811760008051602061399d8339815191525592846129bb575b5033838060a01b0319600054161760005582805560025491838060a01b03196003541617600355620100008360b01b039060101b169061ff018360b01b031916171760025561296757005b60ff60401b1960008051602061399d833981519152541660008051602061399d833981519152557fc7f505b2f371ae2175ee4913f4499e1f2633a7b5936321eed1cdaeb6115181d2602060405160018152a1005b838060401b0190848060481b0319161760008051602061399d833981519152558461291c565b63f92ee8a960e01b60005260046000fd5b905015856128f1565b303b1591506128e9565b8591506128df565b3461020c57600036600319011261020c57612a3360018060a01b03600054163314612fd9565b6002805461ff0019169055005b3461020c57600036600319011261020c57602061ffff604b5460a01c16604051908152f35b3461020c57602036600319011261020c5763ffffffff612a83612eff565b1660005260086020526040806000205463ffffffff825191818116835260201c166020820152f35b3461020c57602036600319011261020c576001600160a01b03612acc612ee9565b1660005260056020526020600560406000200154604051908152f35b3461020c57600036600319011261020c576004546040516001600160a01b039091168152602090f35b3461020c57604036600319011261020c57612b2a612ee9565b602435908160000b820361020c576004546001600160a01b031633141580612b97575b80612b82575b6102c55760018060a01b0316600052600560205260066040600020019060ff198254169060ff16179055600080f35b506000546001600160a01b0316331415612b53565b506002543360109190911c6001600160a01b03161415612b4d565b3461020c57604036600319011261020c57612bcb612ee9565b612be060018060a01b03600054163314612fd9565b60018060a01b03166000526005602052600260406000200161203b60243582546130b9565b3461020c57600036600319011261020c576020604051670de0b6b3a76400008152f35b3461020c57606036600319011261020c576004356001600160a01b031981169081900361020c5760243590604435612c6b60018060a01b03600054163314612fd9565b8115612e8e57600254604051631d5e528f60e21b8152906020908290600490829060101c6001600160a01b03165afa908115610f5f57600091612e5c575b50831015612e2657600354604051631d5e528f60e21b815290602090829060049082906001600160a01b03165afa908115610f5f57600091612df4575b50811015612dbc576040516020810161414960f01b8152836022830152600e8252612d12602e83613079565b60018060a01b0391519020169182600052600560205260406000209160078301908154612d8657612d849560019360801c848060801b0319865416178555600a850155600b8401555560ff600481600254169201911660ff19825416179055612d7c60065461309c565b6006556133a7565b005b60405162461bcd60e51b815260206004820152600e60248201526d416c72656164792065786973747360901b6044820152606490fd5b60405162461bcd60e51b815260206004820152601060248201526f14d8dc9a5c1d081b9bdd08195e1a5cdd60821b6044820152606490fd5b90506020813d602011612e1e575b81612e0f60209383613079565b8101031261020c575184612ce6565b3d9150612e02565b60405162461bcd60e51b815260206004820152600e60248201526d12195c9bc81b9bdd08195e1a5cdd60921b6044820152606490fd5b90506020813d602011612e86575b81612e7760209383613079565b8101031261020c575184612ca9565b3d9150612e6a565b60405162461bcd60e51b815260206004820152600a602482015269456d707479206e616d6560b01b6044820152606490fd5b3461020c57602036600319011261020c5760043590602082101561020c57602091602a01548152f35b600435906001600160a01b038216820361020c57565b6004359063ffffffff8216820361020c57565b90602082101561070857601f8260051c604a01921690565b6024359060ff8216820361020c57565b6044359060ff8216820361020c57565b6040810160408252825180915260206060830193019060005b818110612fbd5750505060208183039101526020808351928381520192019060005b818110612f925750505090565b8251805163ffffffff9081168652602091820151168186015260409094019390920191600101612f85565b825163ffffffff16855260209485019490920191600101612f63565b15612fe057565b60405162461bcd60e51b81526020600482015260096024820152682737ba1037bbb732b960b91b6044820152606490fd5b6101c081019081106001600160401b0382111761302d57604052565b634e487b7160e01b600052604160045260246000fd5b604081019081106001600160401b0382111761302d57604052565b60a081019081106001600160401b0382111761302d57604052565b601f909101601f19168101906001600160401b0382119082101761302d57604052565b60001981146115945760010190565b906032820180921161159457565b9190820180921161159457565b80546001600160a01b0360039390931b83811b199091169290931690921b179055565b60ff1660ff81146115945760010190565b9190820391821161159457565b63ffffffff168015611594576000190190565b6001600160401b03811161302d5760051b60200190565b9061313b8261311a565b6131486040519182613079565b8281528092613159601f199161311a565b0190602036910137565b9061316d8261311a565b61317a6040519182613079565b828152809261318b601f199161311a565b019060005b82811061319c57505050565b6020906040516131ab81613043565b6000815260008382015282828501015201613190565b80518210156107085760209160051b010190565b9081602091031261020c57516001600160a01b038116810361020c5790565b6001600160401b03811161302d57601f01601f191660200190565b8115611abd570490565b60ff6000199116019060ff821161159457565b9060088110156107085760051b0190565b60005b8381106132505750506000910152565b8181015183820152602001613240565b60208183031261020c578051906001600160401b03821161020c570181601f8201121561020c578051613292816131f4565b926132a06040519485613079565b8184526020828401011161020c576132be916020808501910161323d565b90565b9060078110156107085760051b0190565b60ff60019116019060ff821161159457565b519060ff8216820361020c57565b906000905b6008821061330457505050565b60208060019285518152019301910190916132f7565b63ffffffff1663ffffffff81146115945760010190565b805463ffffffff60201b191660209290921b63ffffffff60201b16919091179055565b90600782101561070857601f8260051c61074c01921690565b610100821015610708570190600090565b60031b906107f860f883169216820361159457565b61ffff60019116019061ffff821161159457565b60009060018060a01b038116908183526005602052600c60408420019160ff66ffffffffffffff845416816133db8761337e565b161c1660ff81141591826134bd575b50506134b8578260ff6133fc82613354565b90549060031b1c16936134a45750610100831015610708578260ff9261342d61347e9360006134a297604c016130c6565b66ffffffffffffff8480613441600061337e565b161b1666ffffffffffffff8254911982161666ffffffffffffff8487613467600061337e565b161b16179066ffffffffffffff1916179055613393565b166134896000613354565b90919060ff8084549260031b9316831b921b1916179055565b565b634e487b7160e01b81526032600452602490fd5b505050565b915061010081101561070857604c01546001600160a01b03161438806133ea565b9060018060a01b038216806000526005602052600c6040600020019060ff66ffffffffffffff835416816135118661337e565b161c169060ff82141591826135aa575b50506134b85760ff61353283613354565b90549060031b1c16906007831015610708576135a38260ff9261356b6134a297613565613489978960081b604c0161336d565b906130c6565b66ffffffffffffff848061357e8961337e565b161b1666ffffffffffffff8254911982161666ffffffffffffff84876134678b61337e565b1691613354565b9091506007841015610708576135c6908460081b604c0161336d565b905460039190911b1c6001600160a01b0316143880613521565b61ffff1661ffff81146115945760010190565b9063ffffffff8091169116019063ffffffff821161159457565b60ff168015611594576000190190565b818102929160008212600160ff1b82141661159457818405149015171561159457565b60001992919060005b60ff811660208110156138c857602082101561070857600a8201546001600160a01b03848116911614613682575060010160ff16613649565b9192939450505b6000811261389e57601f90819060ff165b8160ff82161061381d575050602081101561070857600a810180546001600160a01b03191690556000602a8201556136d59061283b90612f12565b60005b602060ff821610806137fe575b806137e7575b156136fe576136f9906130e9565b6136d8565b9091601f5b60ff831660ff82161161374d57506020821015610708576134a29282600a019060018060a01b031660018060a01b031982541617905581602a015561348960ff6002541691612f12565b61375681613219565b602081101561070857600a01546001600160a01b0316602082101561070857600a820180546001600160a01b0319166001600160a01b0390921691909117905561379f81613219565b906020821015610708576137e291602a015481602a01556137dd60ff6137cc6137c784613219565b612f12565b90549060031b1c1661348983612f12565b61360d565b613703565b506020811015610708578281602a015410156136eb565b50602081101561070857600a8101546001600160a01b031615156136e5565b613826816132d2565b602081101561070857600a01546001600160a01b0316602082101561070857600a820180546001600160a01b0319166001600160a01b0390921691909117905561386f816132d2565b60208110156107085760ff91600191602a015481602a0155613897836137cc6137c7846132d2565b011661369a565b506029546001600160a01b03161515806138bc575b156136d5575050565b506049548211156138b3565b5050909192613689565b60ff1680156139365760018114613930576002811461392a5760038114613924576004811461391d57600581146139165760061461391057602c1990565b601d1990565b50600e1990565b5060041990565b50600590565b50600f90565b50601e90565b50602d90565b60ff1680156139965760018114613990576002811461398a5760038114613984576004811461397e57600581146139365760061461397957601990565b602390565b50603790565b50604690565b50605590565b50606490565b5060789056fef0c57e16840df040f15088dc2f81fe391c3923bec73e23a9662efc9c229c6a00a2646970667358221220b5e959dcb4820d3fbda7fa673a1f87c4a09751cf57f68fe08e0da3fa01eab9e764736f6c634300081b0033",
        "nonce": "0x4e",
        "chainId": "0x89"
      },
      "additionalContracts": [],
      "isFixedGasLimit": false
    },
    {
      "hash": "0xaf104d03e340542ccc06982ebf8539c6ed6087eb3d01b283e7800d1cc9c16d5e",
      "transactionType": "CREATE",
      "contractName": "TransparentUpgradeableProxy",
      "contractAddress": "0xac3e81d87ac916ae4ed981e4ea3f60ce757b222a",
      "function": null,
      "arguments": [
        "0x75D7003694eDeFEc0c2affcC17BA870e8af2dfea",
        "0xdc328af6c71dF52966890A7f007179c25Be4FF3B",
        "0x485cc9550000000000000000000000006f9d37419bfb43dbce48fefeaa38886bfc9faf6b0000000000000000000000002efb60f99e0d4d01fcfa95c937d3e9435e681c5a"
      ],
      "transaction": {
        "from": "0xdc328af6c71df52966890a7f007179c25be4ff3b",
        "gas": "0xd4a7f",
        "value": "0x0",
        "input": "0x60a0604052610b1b8038038061001481610293565b928339810160608282031261028e5761002c826102b8565b610038602084016102b8565b604084015190936001600160401b03821161028e570182601f8201121561028e5780519061006d610068836102cc565b610293565b938285526020838301011161028e5760005b828110610279575050602060009184010152803b15610258577f360894a13ba1a3210667c828492db98dca3e2076cc3735a920a3ca505d382bbc80546001600160a01b0319166001600160a01b0383169081179091557fbc7cd75a20ee27fd9adebab32041f755214dbc6bffa90cc0225b39da2e5c2d3b600080a281511561023f5760008083602061013595519101845af43d15610237573d91610125610068846102cc565b9283523d6000602085013e6102e7565b505b6040519061048c8083016001600160401b0381118482101761022157602092849261066f84396001600160a01b031681520301906000f080156102155760018060a01b031680608052600080516020610afb833981519152547f7e644d79422f17c01e4894b5f4f588d331ebfa28653d42ae832dc59e38c9798f6040805160018060a01b0384168152846020820152a181156101ff576001600160a01b03191617600080516020610afb83398151915255604051610326908161034982396080518160070152f35b633173bdd160e11b600052600060045260246000fd5b6040513d6000823e3d90fd5b634e487b7160e01b600052604160045260246000fd5b6060916102e7565b505034156101375763b398979f60e01b60005260046000fd5b634c9c8ce360e01b60009081526001600160a01b0391909116600452602490fd5b8060208092840101518282880101520161007f565b600080fd5b6040519190601f01601f191682016001600160401b0381118382101761022157604052565b51906001600160a01b038216820361028e57565b6001600160401b03811161022157601f01601f191660200190565b9061030d57508051156102fc57805190602001fd5b63d6bda27560e01b60005260046000fd5b8151158061033f575b61031e575090565b639996b31560e01b60009081526001600160a01b0391909116600452602490fd5b50803b1561031656fe6080604052337f00000000000000000000000000000000000000000000000000000000000000006001600160a01b031603610069576000356001600160e01b03191663278f794360e11b1461005f576334ad5dbb60e21b60005260046000fd5b6100676100ff565b005b6000805160206102d18339815191525460009081906001600160a01b0316368280378136915af43d6000803e1561009f573d6000f35b3d6000fd5b634e487b7160e01b600052604160045260246000fd5b6040519190601f01601f191682016001600160401b038111838210176100df57604052565b6100a4565b6001600160401b0381116100df57601f01601f191660200190565b36600411610188576040366003190112610188576004356001600160a01b0381169081900361018857602435906001600160401b03821161018857366023830112156101885781600401359061015c610157836100e4565b6100ba565b9180835236602482860101116101885760208160009260246101869701838701378401015261018d565b565b600080fd5b90813b15610212576000805160206102d183398151915280546001600160a01b0319166001600160a01b0384169081179091557fbc7cd75a20ee27fd9adebab32041f755214dbc6bffa90cc0225b39da2e5c2d3b600080a28051156101f8576101f591610234565b50565b50503461020157565b63b398979f60e01b60005260046000fd5b50634c9c8ce360e01b60009081526001600160a01b0391909116600452602490fd5b60008061026893602081519101845af43d1561026b573d91610258610157846100e4565b9283523d6000602085013e61026f565b90565b6060915b90610295575080511561028457805190602001fd5b63d6bda27560e01b60005260046000fd5b815115806102c7575b6102a6575090565b639996b31560e01b60009081526001600160a01b0391909116600452602490fd5b50803b1561029e56fe360894a13ba1a3210667c828492db98dca3e2076cc3735a920a3ca505d382bbca2646970667358221220e856548078f645630d6d2b1cafa59a4f0d2848ca734466c2b095b8ecd417b0b564736f6c634300081b003360803460bc57601f61048c38819003918201601f19168301916001600160401b0383118484101760c15780849260209460405283398101031260bc57516001600160a01b0381169081900360bc57801560a657600080546001600160a01b031981168317825560405192916001600160a01b03909116907f8be0079c531659141344cd1fd0a4f28419497f9722a3daafe3b4186f6b6457e09080a36103b490816100d88239f35b631e4fbdf760e01b600052600060045260246000fd5b600080fd5b634e487b7160e01b600052604160045260246000fdfe6080604052600436101561001257600080fd5b6000803560e01c8063715018a6146102735780638da5cb5b1461024c5780639623609d1461011d578063ad3cb1cc146100d05763f2fde38b1461005457600080fd5b346100cd5760203660031901126100cd576004356001600160a01b038116908190036100cb57610082610335565b80156100b75781546001600160a01b03198116821783556001600160a01b031660008051602061035f8339815191528380a380f35b631e4fbdf760e01b82526004829052602482fd5b505b80fd5b50346100cd57806003193601126100cd57506101196040516100f36040826102bb565b60058152640352e302e360dc1b60208201526040519182916020835260208301906102f4565b0390f35b5060603660031901126100cd576004356001600160a01b038116908190036100cb576024356001600160a01b0381169081900361022c576044356001600160401b03811161024857366023820112156102485760048101356001600160401b038111610234576040518593929091906101a0601f8301601f1916602001846102bb565b81835236602483830101116102305781859260246020930183860137830101526101c8610335565b833b1561022c576101fe93839260405180968194829363278f794360e11b845260048401526040602484015260448301906102f4565b039134905af1801561021f576102115780f35b61021a916102bb565b388180f35b50604051903d90823e3d90fd5b8280fd5b8480fd5b634e487b7160e01b85526041600452602485fd5b8380fd5b50346100cd57806003193601126100cd57546040516001600160a01b039091168152602090f35b50346100cd57806003193601126100cd5761028c610335565b80546001600160a01b03198116825581906001600160a01b031660008051602061035f8339815191528280a380f35b601f909101601f19168101906001600160401b038211908210176102de57604052565b634e487b7160e01b600052604160045260246000fd5b919082519283825260005b848110610320575050826000602080949584010152601f8019910116010190565b806020809284010151828286010152016102ff565b6000546001600160a01b0316330361034957565b63118cdaa760e01b6000523360045260246000fdfe8be0079c531659141344cd1fd0a4f28419497f9722a3daafe3b4186f6b6457e0a2646970667358221220ab7643393a1349cbf008d5c66b53869dc9ea39736605ad81a7a4388b02bb229464736f6c634300081b0033b53127684a568b3173ae13b9f8a6016e243e63b6e8ee1178d6a717850b5d610300000000000000000000000075d7003694edefec0c2affcc17ba870e8af2dfea000000000000000000000000dc328af6c71df52966890a7f007179c25be4ff3b00000000000000000000000000000000000000000000000000000000000000600000000000000000000000000000000000000000000000000000000000000044485cc9550000000000000000000000006f9d37419bfb43dbce48fefeaa38886bfc9faf6b0000000000000000000000002efb60f99e0d4d01fcfa95c937d3e9435e681c5a00000000000000000000000000000000000000000000000000000000",
        "nonce": "0x4f",
        "chainId": "0x89"
      },
      "additionalContracts": [
        {
          "transactionType": "CREATE",
          "contractName": "ProxyAdmin",
          "address": "0x4cba1361f510200b18b3cfbe1480c897feec1fff",
          "initCode": "0x60803460bc57601f61048c38819003918201601f19168301916001600160401b0383118484101760c15780849260209460405283398101031260bc57516001600160a01b0381169081900360bc57801560a657600080546001600160a01b031981168317825560405192916001600160a01b03909116907f8be0079c531659141344cd1fd0a4f28419497f9722a3daafe3b4186f6b6457e09080a36103b490816100d88239f35b631e4fbdf760e01b600052600060045260246000fd5b600080fd5b634e487b7160e01b600052604160045260246000fdfe6080604052600436101561001257600080fd5b6000803560e01c8063715018a6146102735780638da5cb5b1461024c5780639623609d1461011d578063ad3cb1cc146100d05763f2fde38b1461005457600080fd5b346100cd5760203660031901126100cd576004356001600160a01b038116908190036100cb57610082610335565b80156100b75781546001600160a01b03198116821783556001600160a01b031660008051602061035f8339815191528380a380f35b631e4fbdf760e01b82526004829052602482fd5b505b80fd5b50346100cd57806003193601126100cd57506101196040516100f36040826102bb565b60058152640352e302e360dc1b60208201526040519182916020835260208301906102f4565b0390f35b5060603660031901126100cd576004356001600160a01b038116908190036100cb576024356001600160a01b0381169081900361022c576044356001600160401b03811161024857366023820112156102485760048101356001600160401b038111610234576040518593929091906101a0601f8301601f1916602001846102bb565b81835236602483830101116102305781859260246020930183860137830101526101c8610335565b833b1561022c576101fe93839260405180968194829363278f794360e11b845260048401526040602484015260448301906102f4565b039134905af1801561021f576102115780f35b61021a916102bb565b388180f35b50604051903d90823e3d90fd5b8280fd5b8480fd5b634e487b7160e01b85526041600452602485fd5b8380fd5b50346100cd57806003193601126100cd57546040516001600160a01b039091168152602090f35b50346100cd57806003193601126100cd5761028c610335565b80546001600160a01b03198116825581906001600160a01b031660008051602061035f8339815191528280a380f35b601f909101601f19168101906001600160401b038211908210176102de57604052565b634e487b7160e01b600052604160045260246000fd5b919082519283825260005b848110610320575050826000602080949584010152601f8019910116010190565b806020809284010151828286010152016102ff565b6000546001600160a01b0316330361034957565b63118cdaa760e01b6000523360045260246000fdfe8be0079c531659141344cd1fd0a4f28419497f9722a3daafe3b4186f6b6457e0a2646970667358221220ab7643393a1349cbf008d5c66b53869dc9ea39736605ad81a7a4388b02bb229464736f6c634300081b0033000000000000000000000000dc328af6c71df52966890a7f007179c25be4ff3b"
        }
      ],
      "isFixedGasLimit": false
    },
    {
      "hash": "0x49e6ac48ba4d5400aea45ef3aa4b5b82852d6dfb89d2f188e49c93c2dde86b6e",
      "transactionType": "CREATE",
      "contractName": "ClawUtility",
      "contractAddress": "0xb00f67e8ecd033cf150af4ff6866a7b06a9ea91e",
      "function": null,
      "arguments": [
        "0xAc3e81D87ac916AE4ed981e4ea3F60ce757b222a"
      ],
      "transaction": {
        "from": "0xdc328af6c71df52966890a7f007179c25be4ff3b",
        "gas": "0x18fc62",
        "value": "0x0",
        "input": "0x60803460d157601f6115d438819003918201601f19168301916001600160401b0383118484101760d65780849260209460405283398101031260d157516001600160a01b0381169081900360d157331560bb5760008054336001600160a01b0319821681178355604051939290916001600160a01b0316907f8be0079c531659141344cd1fd0a4f28419497f9722a3daafe3b4186f6b6457e09080a3600180546001600160a01b0319169190911790556114e790816100ed8239f35b631e4fbdf760e01b600052600060045260246000fd5b600080fd5b634e487b7160e01b600052604160045260246000fdfe608080604052600436101561001357600080fd5b600090813560e01c90816304c5d43014610b7d575080633dcdb672146108205780634fd00c43146107f7578063668c5c1a146107b1578063715018a6146107695780638da5cb5b14610742578063a10f956d14610716578063a65d7a5a146105c7578063ac3edc8614610494578063ecb4da5a146102d1578063efaca193146101215763f2fde38b146100a557600080fd5b3461011e57602036600319011261011e576004356001600160a01b0381169081900361011c576100d3611468565b80156101085781546001600160a01b03198116821783556001600160a01b03166000805160206114928339815191528380a380f35b631e4fbdf760e01b82526004829052602482fd5b505b80fd5b503461011e57602036600319011261011e578060043580820b808203610259578281136101af5750506001546001600160a01b0316803b156101ac57818091604460405180948193632752398d60e01b83523360048401528160248401525af180156101a15761019057505080f35b8161019a916110d4565b61011e5780f35b6040513d84823e3d90fd5b50fd5b8060216101cc92121590816102c5575b81156102a5575b506111af565b6001546040516306996d1960e31b81523360048201526001600160a01b0390911690602081602481855afa90811561029a57849161025d575b5061021990600160ff85161b1615156111ef565b803b1561025957604051632752398d60e01b815291839183918290849082906102469033600484016112e9565b03925af180156101a15761019057505080f35b5050fd5b9350506020833d602011610292575b81610279602093836110d4565b8101031261028d5761021984935190610205565b600080fd5b3d915061026c565b6040513d86823e3d90fd5b60018112159150816102b9575b50386101c6565b602091501315386102b2565b602a81131591506101bf565b503461011e57602036600319011261011e576102eb6110c4565b6102f4816113d6565b908115610460576001546040516306996d1960e31b81523360048201526001600160a01b0390911690602081602481855afa908115610455578591610423575b50600160ff84161b166103ee578392813b156103e9578391604483926040519485938492634bc6a73f60e11b845233600485015260248401525af19081156103de5783916103c9575b50506001546001600160a01b0316803b156102595760405163be5957d760e01b815291839183918290849082906103b8903360048401611307565b03925af180156101a1576101905750f35b816103d3916110d4565b6101ac57813861037d565b6040513d85823e3d90fd5b505050fd5b60405162461bcd60e51b815260206004820152600d60248201526c105b1c9958591e481bdddb9959609a1b6044820152606490fd5b90506020813d60201161044d575b8161043e602093836110d4565b8101031261028d575138610334565b3d9150610431565b6040513d87823e3d90fd5b60405162461bcd60e51b815260206004820152600c60248201526b496e76616c6964206974656d60a01b6044820152606490fd5b503461011e57602036600319011261011e57806104af6110c4565b60ff8116806105005750506001546001600160a01b0316803b156101ac57818091604460405180948193633d0e04d960e21b83523360048401528160248401525af180156101a15761019057505080f35b604061050d911115611227565b600154604051639ce67bdd60e01b81523360048201526001600160a01b0390911690602081602481855afa90811561029a57849161058f575b5061056290600160ff61055886611263565b161b16151561128c565b803b1561025957604051633d0e04d960e21b81529183918391829084908290610246903360048401611307565b9350506020833d6020116105bf575b816105ab602093836110d4565b8101031261028d5761056284935190610546565b3d915061059e565b50602036600319011261011e576105dc6110ad565b6001600160801b03198116156106e4576001546040516370c69c6760e11b8152336004820152839291602090829060249082906001600160a01b03165afa9081156103de5783916106b5575b506001600160801b031916156106a65761064b678ac7230489e80000341461116e565b61066d828080803460018060a01b038254165af1610667611324565b50611363565b6001546001600160a01b0316803b156102595760405163c5886fbd60e01b815291839183918290849082906103b89033600484016112c5565b6106b0341561112d565b61066d565b6106d7915060203d6020116106dd575b6106cf81836110d4565b81019061110d565b38610628565b503d6106c5565b60405162461bcd60e51b815260206004820152600a602482015269456d707479206e616d6560b01b6044820152606490fd5b503461011e57602036600319011261011e57602061073a6107356110c4565b6113d6565b604051908152f35b503461011e578060031936011261011e57546040516001600160a01b039091168152602090f35b503461011e578060031936011261011e57610782611468565b80546001600160a01b03198116825581906001600160a01b03166000805160206114928339815191528280a380f35b503461011e57602036600319011261011e576004356001600160a01b0381169081900361011c576107e0611468565b600180546001600160a01b03191691909117905580f35b503461011e578060031936011261011e576001546040516001600160a01b039091168152602090f35b503461011e578060031936011261011e57610839611468565b6001546040516336bb1d3760e11b815291906001600160a01b0316610c0083600481845afa9283156101a1578293610a57575b5060206004916040519283809263bcb3962160e01b82525afa80156101a1578290610a1c575b61089c9150611263565b60021b6103fc60fc821691168103610a08576001019160ff8311610a085760ff829316925b60ff811660208110156109fe576001600160a01b036108e082856113af565b5116156109be57806109965783905b6001546001600160a01b039081169160ff919061090c90876113af565b5116921686019160ff831161098257813b1561097e57918591610946938360405180968195829463be5957d760e01b845260048401611307565b03925af1801561029a57908491610965575b505060010160ff166108c1565b8161096f916110d4565b61097a578238610958565b8280fd5b8580fd5b634e487b7160e01b86526011600452602486fd5b600181036109a6576001906108ef565b600281036109b6576002906108ef565b6003906108ef565b50505090505b60015481906001600160a01b0316803b156101ac578180916004604051809481936312cd346d60e21b83525af180156101a1576101905750f35b50505090506109c4565b634e487b7160e01b82526011600452602482fd5b506020813d602011610a4f575b81610a36602093836110d4565b8101031261011c57610a4a61089c916113a1565b610892565b3d9150610a29565b909250610c003d8111610b76575b610a6f81836110d4565b8101610c008282031261097a5780601f8301121561097a5760405191610400610a9881856110d4565b8181019084848311610b725783905b838210610b4e5750508361041f8401121561097e57604051610ac982826110d4565b610800840192858411610b4a57905b838210610b3a5750508361081f8401121561097e57610c0090610afe60405191826110d4565b9201928311610b3657905b828210610b1e5750919391506020905061086c565b60208091610b2b846113a1565b815201910190610b09565b8480fd5b8151815260209182019101610ad8565b8780fd5b81516001600160a01b0381168103610b6e57815260209182019101610aa7565b8880fd5b8680fd5b503d610a65565b82606036600319011261011e57610b926110ad565b60243580830b808203610d47576044359160ff83169182840361097e576001600160801b0319851680158015929190889061106c576001546040516370c69c6760e11b8152336004820152999a508a9990602090829060249082906001600160a01b03165afa908115611061578a91611042575b506001600160801b031916828114610ffc5715610fec5750610c31678ac7230489e80000341461116e565b6001965b8883139384610f29575b8615159687610e93575b50610dbc575b50509580959612600014610d4b5750506001546001600160a01b0316803b15610d4757838091604460405180948193632752398d60e01b83523360048401528160248401525af190811561029a578491610d32575b50505b610cd5575b5050610cb55780f35b610cd28180808060018060a01b0381541634905af1610667611324565b80f35b6001546001600160a01b0316803b1561097a57604051633d0e04d960e21b81529183918391829084908290610d0e903360048401611307565b03925af180156101a15715610cac5781610d27916110d4565b61011c578183610cac565b81610d3c916110d4565b61097a578286610ca4565b8380fd5b610d56575b50610ca7565b6001546001600160a01b0316803b15610b3657604051632752398d60e01b81529185918391829084908290610d8f9033600484016112e9565b03925af190811561029a578491610da7575b50610d50565b81610db1916110d4565b61097a578286610da1565b6001546040516370c69c6760e11b81523360048201526001600160a01b039091169290602081602481875afa908115610e88578b91610e69575b506001600160801b03191614610c4f57813b15610b6e578891610e30916040519b8c8094819363c5886fbd60e01b835233600484016112c5565b03925af18015610e5e57610e47575b878798610c4f565b9495909681610e55916110d4565b94938690610e3f565b6040513d89823e3d90fd5b610e82915060203d6020116106dd576106cf81836110d4565b8c610df6565b6040513d8d823e3d90fd5b6040610ea0911115611227565b600154604051639ce67bdd60e01b815233600482015290602090829060249082906001600160a01b03165afa8015610e88578b90610ef1575b610eeb9150600160ff6105588c611263565b8b610c49565b506020813d602011610f21575b81610f0b602093836110d4565b81010312610f1d57610eeb9051610ed9565b8a80fd5b3d9150610efe565b602184121580610fe1575b8015610fca575b610f44906111af565b6001546040516306996d1960e31b815233600482015290602090829060249082906001600160a01b03165afa8015610e88578b90610f96575b610f919150600160ff89161b1615156111ef565b610c3f565b506020813d602011610fc2575b81610fb0602093836110d4565b81010312610f1d57610f919051610f7d565b3d9150610fa3565b5060018412158015610f3b57506020841315610f3b565b50602a841315610f34565b96610ff7341561112d565b610c35565b509697503461100c578897610c35565b60405162461bcd60e51b815260206004820152600e60248201526d13985b59481d5b98da185b99d95960921b6044820152606490fd5b61105b915060203d6020116106dd576106cf81836110d4565b8b610c06565b6040513d8c823e3d90fd5b963461107a57889950610c35565b62461bcd60e51b8a52602060048b0152600e60248b01526d4e6f206e616d65206368616e676560901b60448b015260648afd5b600435906001600160801b03198216820361028d57565b6004359060ff8216820361028d57565b601f909101601f19168101906001600160401b038211908210176110f757604052565b634e487b7160e01b600052604160045260246000fd5b9081602091031261028d57516001600160801b03198116810361028d5790565b1561113457565b60405162461bcd60e51b81526020600482015260126024820152714669727374206e616d65206973206672656560701b6044820152606490fd5b1561117557565b60405162461bcd60e51b8152602060048201526012602482015271115e1858dd08199959481c995c5d5a5c995960721b6044820152606490fd5b156111b657565b60405162461bcd60e51b8152602060048201526011602482015270496e76616c6964206e616d65706c61746560781b6044820152606490fd5b156111f657565b60405162461bcd60e51b8152602060048201526009602482015268139bdd081bdddb995960ba1b6044820152606490fd5b1561122e57565b60405162461bcd60e51b815260206004820152600d60248201526c496e76616c696420626164676560981b6044820152606490fd5b60ff6000199116019060ff821161127657565b634e487b7160e01b600052601160045260246000fd5b1561129357565b60405162461bcd60e51b815260206004820152600a602482015269139bdd0819585c9b995960b21b6044820152606490fd5b6001600160a01b0390911681526001600160801b0319909116602082015260400190565b6001600160a01b03909116815260009190910b602082015260400190565b6001600160a01b03909116815260ff909116602082015260400190565b3d1561135e573d906001600160401b0382116110f75760405191611352601f8201601f1916602001846110d4565b82523d6000602084013e565b606090565b1561136a57565b60405162461bcd60e51b815260206004820152600f60248201526e151c985b9cd9995c8819985a5b1959608a1b6044820152606490fd5b519060ff8216820361028d57565b9060208110156113c05760051b0190565b634e487b7160e01b600052603260045260246000fd5b60ff1660408114611461576041811461145a5760428114611453576043811461144d57602181101580611442575b61140e5750600090565b6020190160ff81116112765760ff1661012c81029080820461012c1490151715611276576101f401806101f4116112765790565b50602a811115611404565b50603290565b506103e890565b5061032090565b506107d090565b6000546001600160a01b0316330361147c57565b63118cdaa760e01b6000523360045260246000fdfe8be0079c531659141344cd1fd0a4f28419497f9722a3daafe3b4186f6b6457e0a2646970667358221220534acf01002e35a01020f8d9f3970d8e85720a6de2d80289c19777034313914164736f6c634300081b0033000000000000000000000000ac3e81d87ac916ae4ed981e4ea3f60ce757b222a",
        "nonce": "0x50",
        "chainId": "0x89"
      },
      "additionalContracts": [],
      "isFixedGasLimit": false
    },
    {
      "hash": "0x7e19e5bab74131dc368402a5eccf51f00961c7d4509d9c9ee39a15d4af6a2cc2",
      "transactionType": "CALL",
      "contractName": "LobsterHub",
      "contractAddress": "0x6f9d37419bfb43dbce48fefeaa38886bfc9faf6b",
      "function": "setClawArena(address)",
      "arguments": [
        "0xAc3e81D87ac916AE4ed981e4ea3F60ce757b222a"
      ],
      "transaction": {
        "from": "0xdc328af6c71df52966890a7f007179c25be4ff3b",
        "to": "0x6f9d37419bfb43dbce48fefeaa38886bfc9faf6b",
        "gas": "0xf961",
        "value": "0x0",
        "input": "0x668c5c1a000000000000000000000000ac3e81d87ac916ae4ed981e4ea3f60ce757b222a",
        "nonce": "0x51",
        "chainId": "0x89"
      },
      "additionalContracts": [],
      "isFixedGasLimit": false
    },
    {
      "hash": "0x5b243202703b31df0699db67075773806cd17824d52d046873bf7e4b46035fdc",
      "transactionType": "CALL",
      "contractName": "TransparentUpgradeableProxy",
      "contractAddress": "0xac3e81d87ac916ae4ed981e4ea3f60ce757b222a",
      "function": null,
      "arguments": null,
      "transaction": {
        "from": "0xdc328af6c71df52966890a7f007179c25be4ff3b",
        "to": "0xac3e81d87ac916ae4ed981e4ea3f60ce757b222a",
        "gas": "0x124c8",
        "value": "0x0",
        "input": "0x809d3820000000000000000000000000b00f67e8ecd033cf150af4ff6866a7b06a9ea91e",
        "nonce": "0x52",
        "chainId": "0x89"
      },
      "additionalContracts": [],
      "isFixedGasLimit": false
    },
    {
      "hash": "0xe15b63995310dff19ddce25d1b5e5865a962681a8dcf6a5cf06c0e6652f40da5",
      "transactionType": "CALL",
      "contractName": "LobsterHub",
      "contractAddress": "0x6f9d37419bfb43dbce48fefeaa38886bfc9faf6b",
      "function": "initDefaultHeroes(uint256[],uint256[],bytes12[])",
      "arguments": [
        "[144116300489294862, 72059810241118741, 144396675987932427, 288247985534534922, 288300757814478090, 216735744968950545, 217298694955992585, 216313536799048202, 288234787100164872, 288239189424800523, 146367000808063506, 292733988697670667]",
        "[198655067491466862436933318370387072980229314047, 212806209585870565245141964569255050443598643761548, 51239213124321301690891424087437130525607514606160, 29232268061825575082690118148935538943481140352220, 117148512899075367595778726141703016068363242083860, 14901143713571181182906251417983235912381468538965, 43903492803940533730290700227684317641039429645040, 87804411820402843492520159358781220395876720332830, 366721504605047302163009909866317639705484522342540, 102334460149542141921176169777849296495897257582170, 44275458780277762311351929157020828228758686627995, 73992987583100774503691456724739438605841582045670]",
        "[0x49726f6e20436c6177000000, 0x526f636b204c6f6273000000, 0x47686f737420536872000000, 0x426c6f6f6420436c61000000, 0x457865637574720000000000, 0x54686f726e20536872000000, 0x43726974204c6f6273000000, 0x426c756520466c616d000000, 0x417263746963205368000000, 0x56656e742053687200000000, 0x4865726d6974205368000000, 0x4c75636b7920536872000000]"
      ],
      "transaction": {
        "from": "0xdc328af6c71df52966890a7f007179c25be4ff3b",
        "to": "0x6f9d37419bfb43dbce48fefeaa38886bfc9faf6b",
        "gas": "0x1ad89f",
        "value": "0x0",
        "input": "0xb82e56310000000000000000000000000000000000000000000000000000000000000060000000000000000000000000000000000000000000000000000000000000020000000000000000000000000000000000000000000000000000000000000003a0000000000000000000000000000000000000000000000000000000000000000c000000000000000000000000000000000000000000000000020001030102040e0000000000000000000000000000000000000000000000000100020400010215000000000000000000000000000000000000000000000000020100030302050b000000000000000000000000000000000000000000000000040010040102050a000000000000000000000000000000000000000000000000040040030202050a00000000000000000000000000000000000000000000000003020003010103110000000000000000000000000000000000000000000000000304000303020609000000000000000000000000000000000000000000000000030080040104020a0000000000000000000000000000000000000000000000000400040301040308000000000000000000000000000000000000000000000000040008040003030b0000000000000000000000000000000000000000000000000208000302010212000000000000000000000000000000000000000000000000041000030202040b000000000000000000000000000000000000000000000000000000000000000c00000000000000000000000022cc0055ff0055fffff30000aaff0033ff0055ff0000000000000000000000919ba0785a3c878078b4ff005f55507d6e6496918c0000000000000000000000230f2dc8008c1900323214ff0f001e1e053c140a5000000000000000000000001400643c28ff320fc8003cff19008c280ab41e14dc0000000000000000000000502800ffc83cc8781effff00823c00be640ae6961400000000000000000000000a321e64c83c23694b3cffb40f4632328c6e28785500000000000000000000001e0a3cb496ff6428d23cf0ff3c14aa461edc5a32f000000000000000000000003c1405ff8c64a04619ffdcc864280a963c14b4501e0000000000000000000000faebc8ffe6b4dcbe82fff5dcbe965af0dcaae6c88c0000000000000000000000460523e63c96961950ff78dc640a32c83278aa1e5a00000000000000000000001e4b643c96b432698c50d2e623506e418caf37789b000000000000000000000032a0c850dcff1ec3ebb4faff0a96be28d2fa14b9e6000000000000000000000000000000000000000000000000000000000000000c49726f6e20436c61770000000000000000000000000000000000000000000000526f636b204c6f6273000000000000000000000000000000000000000000000047686f7374205368720000000000000000000000000000000000000000000000426c6f6f6420436c610000000000000000000000000000000000000000000000457865637574720000000000000000000000000000000000000000000000000054686f726e20536872000000000000000000000000000000000000000000000043726974204c6f62730000000000000000000000000000000000000000000000426c756520466c616d0000000000000000000000000000000000000000000000417263746963205368000000000000000000000000000000000000000000000056656e74205368720000000000000000000000000000000000000000000000004865726d697420536800000000000000000000000000000000000000000000004c75636b79205368720000000000000000000000000000000000000000000000",
        "nonce": "0x53",
        "chainId": "0x89"
      },
      "additionalContracts": [],
      "isFixedGasLimit": false
    },
    {
      "hash": "0x7f488b293d96522b70daed49da9d088fbc39e114a751d80d9852a0bab36c3ad1",
      "transactionType": "CALL",
      "contractName": "ScriptHub",
      "contractAddress": "0x2efb60f99e0d4d01fcfa95c937d3e9435e681c5a",
      "function": "initDefaultScripts(bytes[])",
      "arguments": [
        "[0x0307000000ff00000012000000ff00000000000000ff00000009000800000006ff00000001000000000000000000000000000000000000000000000000000000000000000000030600000f00000006ff00000001001700000001ff00000000040700000003000400000000000000000000000000000400040c0700000006000400000000000000000000000000000000000000000000000000000000000000000000000002000c000b00000004ff00000002000000000000000000000000000000000000000000000000000000000000000000010002031200000006ff000000010307000000060004000000000000000000000000000000000000000000000000000200030207000000060004000000000000000000000000000000000000000000000000000000000000000000000000020002001300000006ff00000002001700000001ff00000000001900000004ff000000010000000000000000000000040102020700000006ff000000050000000000000000000000000000000000000000000000000000000000000000000300020000000000000000000000000000000000000000000000000000000000000000000000000000000000000000030600, 0x0207000000ff00000012000000ff00000009000800000006ff00000001000000000000000000000000000000000000000000000000000000000000000000030600000200000006ff00000019001900000004ff0000000100000000000000000000000000000000000000000000030102010000000005ff0000000a0000000000000000000000000000000000000000000000000000000000000000000100020c0700000006000400000000000000000000000000000000000000000000000000000000000000000000000002000c031200000006ff00000001030700000006000400000000000000000000000000000000000000000000000000020003001900000004ff000000020000000000000000000000000000000000000000000000000000000000000000000100020207000000060004000000000000000000000000000000000000000000000000000000000000000000000000020002020700000006ff000000030000000000000000000000000000000000000000000000000000000000000000000300020000000000000000000000000000000000000000000000000000000000000000000000000000000000000000030600, 0x0307000000ff00000012001206ff00000112001206ff0000020a000800000006ff00000001000000000000000000000000000000000000000000000000000000000000000000030600001300000006ff00000002001700000001ff00000000001900000004ff000000010000000000000000000000040102000200000006ff00000028001900000004ff000000010000000000000000000000000000000000000000000003010203070000000600040000000000000000000000000000000000000000000000000000000000000000000000000200030407000000060004000000000000000000000000000000000000000000000000000000000000000000000000020004001700000001ff00000000030700000006ff00000005000000000000000000000000000000000000000000000400030207000000060004000000000000000000000000000000000000000000000000000000000000000000000000020002001900000004ff00000002000000000000000000000000000000000000000000000000000000000000000000030102040700000006ff000000040000000000000000000000000000000000000000000000000000000000000000000300040000000000000000000000000000000000000000000000000000000000000000000000000000000000000000030600, 0x0307000000ff00000012000000ff00000002000000ff0000000a000800000006ff00000001000000000000000000000000000000000000000000000000000000000000000000030600001300000006ff00000001001700000001ff0000000002070000000300040000000000000000000000000000040102000f00000006ff00000001040700000006000400000000000000000000000000000000000000000000000000020004031200000006ff000000010307000000060004000000000000000000000000000000000000000000000000000200030c0700000006000400000000000000000000000000000000000000000000000000000000000000000000000002000c0207000000060004000000000000000000000000000000000000000000000000000000000000000000000000020002001700000001ff00000000030700000006ff0000000500000000000000000000000000000000000000000000040003030700000006ff00000005000000000000000000000000000000000000000000000000000000000000000000030003020700000006ff000000050000000000000000000000000000000000000000000000000000000000000000000300020000000000000000000000000000000000000000000000000000000000000000000000000000000000000000030600, 0x0307000000ff00000012001206ff00000102000000ff00000009000800000006ff00000001000000000000000000000000000000000000000000000000000000000000000000030600001300000006ff00000002001700000001ff00000000001900000004ff000000010000000000000000000000040102001700000001ff00000000040200000006ff00000028040700000003000400000000000000000000000000000400040307000000060004000000000000000000000000000000000000000000000000000000000000000000000000020003040200000006ff000000320407000000060004000000000000000000000000000000000000000000000000000200040207000000060004000000000000000000000000000000000000000000000000000000000000000000000000020002001700000001ff00000000030700000006ff0000000500000000000000000000000000000000000000000000040003040700000006ff000000060000000000000000000000000000000000000000000000000000000000000000000300040000000000000000000000000000000000000000000000000000000000000000000000000000000000000000030600, 0x0207000000ff00000012000000ff00000009000800000006ff00000001000000000000000000000000000000000000000000000000000000000000000000030600000200000006ff00000014000000000000000000000000000000000000000000000000000000000000000000010002031200000006ff000000010307000000060004000000000000000000000000000000000000000000000000000200030c0700000006000400000000000000000000000000000000000000000000000000000000000000000000000002000c0207000000060004000000000000000000000000000000000000000000000000000000000000000000000000020002001700000001ff00000000020700000006ff0000000400000000000000000000000000000000000000000000040002020700000006ff00000005000000000000000000000000000000000000000000000000000000000000000000030002030700000006ff000000060000000000000000000000000000000000000000000000000000000000000000000300030000000000000000000000000000000000000000000000000000000000000000000000000000000000000000030600, 0x0307000000ff00000010010000ff00000012000000ff00000009000800000006ff00000001000000000000000000000000000000000000000000000000000000000000000000030600001300000006ff00000002001700000001ff00000000001900000004ff000000010000000000000000000000040102000f00000006ff00000001001700000001ff0000000003070000000300040000000000000000000000000000040003041200000006ff00000001040700000006000400000000000000000000000000000000000000000000000000020004000f00000006ff000000010307000000060004000000000000000000000000000000000000000000000000000200030207000000060004000000000000000000000000000000000000000000000000000000000000000000000000020002001700000001ff00000000030700000006ff0000000500000000000000000000000000000000000000000000040003030700000006ff000000060000000000000000000000000000000000000000000000000000000000000000000300030000000000000000000000000000000000000000000000000000000000000000000000000000000000000000030600, 0x0307000000ff00000012000000ff00000010010000ff00000009000800000006ff00000001000000000000000000000000000000000000000000000000000000000000000000030600020700000006ff00000001001700000001ff0000000000000000000000000000000000000000000000000000040102020700000006ff00000002000000000000000000000000000000000000000000000000000000000000000000030102031200000006ff00000001030700000006000400000000000000000000000000000000000000000000000000020003000f00000006ff000000010407000000060004000000000000000000000000000000000000000000000000000200040207000000060004000000000000000000000000000000000000000000000000000000000000000000000000020002000b00000004ff00000002000000000000000000000000000000000000000000000000000000000000000000010002030700000006ff000000070000000000000000000000000000000000000000000000000000000000000000000300030000000000000000000000000000000000000000000000000000000000000000000000000000000000000000030600, 0x0307000000ff00000003010000ff00000012001206ff00000109000800000006ff00000001000000000000000000000000000000000000000000000000000000000000000000030600010000000006ff00000000001700000001ff0000000000000000000000000000000000000000000000000000040600020700000006ff00000001001700000001ff0000000000000000000000000000000000000000000000000000040102020700000006ff000000020000000000000000000000000000000000000000000000000000000000000000000301020407000000060004000000000000000000000000000000000000000000000000000000000000000000000000020004000f00000006ff000000010307000000060004000000000000000000000000000000000000000000000000000200030207000000060004000000000000000000000000000000000000000000000000000000000000000000000000020002020700000006ff000000070000000000000000000000000000000000000000000000000000000000000000000300020000000000000000000000000000000000000000000000000000000000000000000000000000000000000000030600, 0x0307000000ff0000001a010000ff00000014010000ff00000009000800000006ff00000001000000000000000000000000000000000000000000000000000000000000000000030600001300000006ff00000002001700000001ff00000000001900000004ff000000010000000000000000000000040102000f00000006ff00000001030700000006000400000000000000000000000000000000000000000000000000020003021200000006ff000000010207000000060004000000000000000000000000000000000000000000000000000200020407000000060004000000000000000000000000000000000000000000000000000000000000000000000000020004000b00000004ff000000020000000000000000000000000000000000000000000000000000000000000000000100020207000000060004000000000000000000000000000000000000000000000000000000000000000000000000020002020700000006ff000000060000000000000000000000000000000000000000000000000000000000000000000300020000000000000000000000000000000000000000000000000000000000000000000000000000000000000000030600, 0x0207000000ff00000012000000ff0000000a000800000006ff00000001000000000000000000000000000000000000000000000000000000000000000000030600001300000006ff00000002001700000001ff00000000001900000004ff000000010000000000000000000000040102010000000005ff0000000a020700000006ff00000002001700000001ff000000000000000000000000000000040102010000000005ff0000000a000000000000000000000000000000000000000000000000000000000000000000010002001900000004ff00000002000000000000000000000000000000000000000000000000000000000000000000030102031200000006ff00000001030700000006000400000000000000000000000000000000000000000000000000020003001900000006ff00000001020700000006000400000000000000000000000000000000000000000000000000020002001900000004ff00000001000000000000000000000000000000000000000000000000000000000000000000010002030700000006ff000000040000000000000000000000000000000000000000000000000000000000000000000300030000000000000000000000000000000000000000000000000000000000000000000000000000000000000000030600, 0x0307000000ff00000012001206ff00000110010000ff00000009000800000006ff00000001000000000000000000000000000000000000000000000000000000000000000000030600010000000005ff00000005001700000001ff00000000030700000006ff0000000700000000000000000000000400030307000000060004000000000000000000000000000000000000000000000000000000000000000000000000020003000f00000006ff00000001040700000006000400000000000000000000000000000000000000000000000000020004001700000001ff000000000307000000030004000000030700000006ff0000000500000000000000000000000400030207000000060004000000000000000000000000000000000000000000000000000000000000000000000000020002001700000001ff00000000020700000003ff0000000300000000000000000000000000000000000000000000040002020700000006ff000000060000000000000000000000000000000000000000000000000000000000000000000300020000000000000000000000000000000000000000000000000000000000000000000000000000000000000000030600]"
      ],
      "transaction": {
        "from": "0xdc328af6c71df52966890a7f007179c25be4ff3b",
        "to": "0x2efb60f99e0d4d01fcfa95c937d3e9435e681c5a",
        "gas": "0x5bdd9d",
        "value": "0x0",
        "input": "0xcfa202310000000000000000000000000000000000000000000000000000000000000020000000000000000000000000000000000000000000000000000000000000000c000000000000000000000000000000000000000000000000000000000000018000000000000000000000000000000000000000000000000000000000000003800000000000000000000000000000000000000000000000000000000000000560000000000000000000000000000000000000000000000000000000000000078000000000000000000000000000000000000000000000000000000000000009a00000000000000000000000000000000000000000000000000000000000000ba00000000000000000000000000000000000000000000000000000000000000d800000000000000000000000000000000000000000000000000000000000000f8000000000000000000000000000000000000000000000000000000000000011800000000000000000000000000000000000000000000000000000000000001380000000000000000000000000000000000000000000000000000000000000158000000000000000000000000000000000000000000000000000000000000017a000000000000000000000000000000000000000000000000000000000000001c10307000000ff00000012000000ff00000000000000ff00000009000800000006ff00000001000000000000000000000000000000000000000000000000000000000000000000030600000f00000006ff00000001001700000001ff00000000040700000003000400000000000000000000000000000400040c0700000006000400000000000000000000000000000000000000000000000000000000000000000000000002000c000b00000004ff00000002000000000000000000000000000000000000000000000000000000000000000000010002031200000006ff000000010307000000060004000000000000000000000000000000000000000000000000000200030207000000060004000000000000000000000000000000000000000000000000000000000000000000000000020002001300000006ff00000002001700000001ff00000000001900000004ff000000010000000000000000000000040102020700000006ff0000000500000000000000000000000000000000000000000000000000000000000000000003000200000000000000000000000000000000000000000000000000000000000000000000000000000000000000000306000000000000000000000000000000000000000000000000000000000000000000000000000000000000000000000000000000000000000000000000000001b90207000000ff00000012000000ff00000009000800000006ff00000001000000000000000000000000000000000000000000000000000000000000000000030600000200000006ff00000019001900000004ff0000000100000000000000000000000000000000000000000000030102010000000005ff0000000a0000000000000000000000000000000000000000000000000000000000000000000100020c0700000006000400000000000000000000000000000000000000000000000000000000000000000000000002000c031200000006ff00000001030700000006000400000000000000000000000000000000000000000000000000020003001900000004ff000000020000000000000000000000000000000000000000000000000000000000000000000100020207000000060004000000000000000000000000000000000000000000000000000000000000000000000000020002020700000006ff0000000300000000000000000000000000000000000000000000000000000000000000000003000200000000000000000000000000000000000000000000000000000000000000000000000000000000000000000306000000000000000000000000000000000000000000000000000000000000000000000000000001f00307000000ff00000012001206ff00000112001206ff0000020a000800000006ff00000001000000000000000000000000000000000000000000000000000000000000000000030600001300000006ff00000002001700000001ff00000000001900000004ff000000010000000000000000000000040102000200000006ff00000028001900000004ff000000010000000000000000000000000000000000000000000003010203070000000600040000000000000000000000000000000000000000000000000000000000000000000000000200030407000000060004000000000000000000000000000000000000000000000000000000000000000000000000020004001700000001ff00000000030700000006ff00000005000000000000000000000000000000000000000000000400030207000000060004000000000000000000000000000000000000000000000000000000000000000000000000020002001900000004ff00000002000000000000000000000000000000000000000000000000000000000000000000030102040700000006ff0000000400000000000000000000000000000000000000000000000000000000000000000003000400000000000000000000000000000000000000000000000000000000000000000000000000000000000000000306000000000000000000000000000000000000000000000000000000000000000000000000000000000000000000000001f00307000000ff00000012000000ff00000002000000ff0000000a000800000006ff00000001000000000000000000000000000000000000000000000000000000000000000000030600001300000006ff00000001001700000001ff0000000002070000000300040000000000000000000000000000040102000f00000006ff00000001040700000006000400000000000000000000000000000000000000000000000000020004031200000006ff000000010307000000060004000000000000000000000000000000000000000000000000000200030c0700000006000400000000000000000000000000000000000000000000000000000000000000000000000002000c0207000000060004000000000000000000000000000000000000000000000000000000000000000000000000020002001700000001ff00000000030700000006ff0000000500000000000000000000000000000000000000000000040003030700000006ff00000005000000000000000000000000000000000000000000000000000000000000000000030003020700000006ff0000000500000000000000000000000000000000000000000000000000000000000000000003000200000000000000000000000000000000000000000000000000000000000000000000000000000000000000000306000000000000000000000000000000000000000000000000000000000000000000000000000000000000000000000001c10307000000ff00000012001206ff00000102000000ff00000009000800000006ff00000001000000000000000000000000000000000000000000000000000000000000000000030600001300000006ff00000002001700000001ff00000000001900000004ff000000010000000000000000000000040102001700000001ff00000000040200000006ff00000028040700000003000400000000000000000000000000000400040307000000060004000000000000000000000000000000000000000000000000000000000000000000000000020003040200000006ff000000320407000000060004000000000000000000000000000000000000000000000000000200040207000000060004000000000000000000000000000000000000000000000000000000000000000000000000020002001700000001ff00000000030700000006ff0000000500000000000000000000000000000000000000000000040003040700000006ff0000000600000000000000000000000000000000000000000000000000000000000000000003000400000000000000000000000000000000000000000000000000000000000000000000000000000000000000000306000000000000000000000000000000000000000000000000000000000000000000000000000000000000000000000000000000000000000000000000000001b90207000000ff00000012000000ff00000009000800000006ff00000001000000000000000000000000000000000000000000000000000000000000000000030600000200000006ff00000014000000000000000000000000000000000000000000000000000000000000000000010002031200000006ff000000010307000000060004000000000000000000000000000000000000000000000000000200030c0700000006000400000000000000000000000000000000000000000000000000000000000000000000000002000c0207000000060004000000000000000000000000000000000000000000000000000000000000000000000000020002001700000001ff00000000020700000006ff0000000400000000000000000000000000000000000000000000040002020700000006ff00000005000000000000000000000000000000000000000000000000000000000000000000030002030700000006ff0000000600000000000000000000000000000000000000000000000000000000000000000003000300000000000000000000000000000000000000000000000000000000000000000000000000000000000000000306000000000000000000000000000000000000000000000000000000000000000000000000000001c10307000000ff00000010010000ff00000012000000ff00000009000800000006ff00000001000000000000000000000000000000000000000000000000000000000000000000030600001300000006ff00000002001700000001ff00000000001900000004ff000000010000000000000000000000040102000f00000006ff00000001001700000001ff0000000003070000000300040000000000000000000000000000040003041200000006ff00000001040700000006000400000000000000000000000000000000000000000000000000020004000f00000006ff000000010307000000060004000000000000000000000000000000000000000000000000000200030207000000060004000000000000000000000000000000000000000000000000000000000000000000000000020002001700000001ff00000000030700000006ff0000000500000000000000000000000000000000000000000000040003030700000006ff0000000600000000000000000000000000000000000000000000000000000000000000000003000300000000000000000000000000000000000000000000000000000000000000000000000000000000000000000306000000000000000000000000000000000000000000000000000000000000000000000000000000000000000000000000000000000000000000000000000001c10307000000ff00000012000000ff00000010010000ff00000009000800000006ff00000001000000000000000000000000000000000000000000000000000000000000000000030600020700000006ff00000001001700000001ff0000000000000000000000000000000000000000000000000000040102020700000006ff00000002000000000000000000000000000000000000000000000000000000000000000000030102031200000006ff00000001030700000006000400000000000000000000000000000000000000000000000000020003000f00000006ff000000010407000000060004000000000000000000000000000000000000000000000000000200040207000000060004000000000000000000000000000000000000000000000000000000000000000000000000020002000b00000004ff00000002000000000000000000000000000000000000000000000000000000000000000000010002030700000006ff0000000700000000000000000000000000000000000000000000000000000000000000000003000300000000000000000000000000000000000000000000000000000000000000000000000000000000000000000306000000000000000000000000000000000000000000000000000000000000000000000000000000000000000000000000000000000000000000000000000001c10307000000ff00000003010000ff00000012001206ff00000109000800000006ff00000001000000000000000000000000000000000000000000000000000000000000000000030600010000000006ff00000000001700000001ff0000000000000000000000000000000000000000000000000000040600020700000006ff00000001001700000001ff0000000000000000000000000000000000000000000000000000040102020700000006ff000000020000000000000000000000000000000000000000000000000000000000000000000301020407000000060004000000000000000000000000000000000000000000000000000000000000000000000000020004000f00000006ff000000010307000000060004000000000000000000000000000000000000000000000000000200030207000000060004000000000000000000000000000000000000000000000000000000000000000000000000020002020700000006ff0000000700000000000000000000000000000000000000000000000000000000000000000003000200000000000000000000000000000000000000000000000000000000000000000000000000000000000000000306000000000000000000000000000000000000000000000000000000000000000000000000000000000000000000000000000000000000000000000000000001c10307000000ff0000001a010000ff00000014010000ff00000009000800000006ff00000001000000000000000000000000000000000000000000000000000000000000000000030600001300000006ff00000002001700000001ff00000000001900000004ff000000010000000000000000000000040102000f00000006ff00000001030700000006000400000000000000000000000000000000000000000000000000020003021200000006ff000000010207000000060004000000000000000000000000000000000000000000000000000200020407000000060004000000000000000000000000000000000000000000000000000000000000000000000000020004000b00000004ff000000020000000000000000000000000000000000000000000000000000000000000000000100020207000000060004000000000000000000000000000000000000000000000000000000000000000000000000020002020700000006ff0000000600000000000000000000000000000000000000000000000000000000000000000003000200000000000000000000000000000000000000000000000000000000000000000000000000000000000000000306000000000000000000000000000000000000000000000000000000000000000000000000000000000000000000000000000000000000000000000000000001e80207000000ff00000012000000ff0000000a000800000006ff00000001000000000000000000000000000000000000000000000000000000000000000000030600001300000006ff00000002001700000001ff00000000001900000004ff000000010000000000000000000000040102010000000005ff0000000a020700000006ff00000002001700000001ff000000000000000000000000000000040102010000000005ff0000000a000000000000000000000000000000000000000000000000000000000000000000010002001900000004ff00000002000000000000000000000000000000000000000000000000000000000000000000030102031200000006ff00000001030700000006000400000000000000000000000000000000000000000000000000020003001900000006ff00000001020700000006000400000000000000000000000000000000000000000000000000020002001900000004ff00000001000000000000000000000000000000000000000000000000000000000000000000010002030700000006ff00000004000000000000000000000000000000000000000000000000000000000000000000030003000000000000000000000000000000000000000000000000000000000000000000000000000000000000000003060000000000000000000000000000000000000000000000000000000000000000000000000000000000000000000000000000000000000001c10307000000ff00000012001206ff00000110010000ff00000009000800000006ff00000001000000000000000000000000000000000000000000000000000000000000000000030600010000000005ff00000005001700000001ff00000000030700000006ff0000000700000000000000000000000400030307000000060004000000000000000000000000000000000000000000000000000000000000000000000000020003000f00000006ff00000001040700000006000400000000000000000000000000000000000000000000000000020004001700000001ff000000000307000000030004000000030700000006ff0000000500000000000000000000000400030207000000060004000000000000000000000000000000000000000000000000000000000000000000000000020002001700000001ff00000000020700000003ff0000000300000000000000000000000000000000000000000000040002020700000006ff00000006000000000000000000000000000000000000000000000000000000000000000000030002000000000000000000000000000000000000000000000000000000000000000000000000000000000000000003060000000000000000000000000000000000000000000000000000000000000000",
        "nonce": "0x54",
        "chainId": "0x89"
      },
      "additionalContracts": [],
      "isFixedGasLimit": false
    },
    {
      "hash": "0xa773f0c468ca6aed11a2ee28477d6f1008b1ca297ffc2f723054f858299b2a3f",
      "transactionType": "CALL",
      "contractName": "TransparentUpgradeableProxy",
      "contractAddress": "0xac3e81d87ac916ae4ed981e4ea3f60ce757b222a",
      "function": null,
      "arguments": null,
      "transaction": {
        "from": "0xdc328af6c71df52966890a7f007179c25be4ff3b",
        "to": "0xac3e81d87ac916ae4ed981e4ea3f60ce757b222a",
        "gas": "0x422a1",
        "value": "0x0",
        "input": "0x0339887349726f6e20436c6177000000000000000000000000000000000000000000000000000000000000000000000000000000000000000000000000000000000000000000000000000000000000000000000000000000000000000000000000000000",
        "nonce": "0x55",
        "chainId": "0x89"
      },
      "additionalContracts": [],
      "isFixedGasLimit": false
    },
    {
      "hash": "0x3d867c16fa577b032d3a68432b724abfc95654ea6e3277bbfbfcbd7c25c7e9bf",
      "transactionType": "CALL",
      "contractName": "TransparentUpgradeableProxy",
      "contractAddress": "0xac3e81d87ac916ae4ed981e4ea3f60ce757b222a",
      "function": null,
      "arguments": null,
      "transaction": {
        "from": "0xdc328af6c71df52966890a7f007179c25be4ff3b",
        "to": "0xac3e81d87ac916ae4ed981e4ea3f60ce757b222a",
        "gas": "0x47c52",
        "value": "0x0",
        "input": "0x03398873526f636b204c6f6273000000000000000000000000000000000000000000000000000000000000000000000000000000000000000000000000000000000000010000000000000000000000000000000000000000000000000000000000000001",
        "nonce": "0x56",
        "chainId": "0x89"
      },
      "additionalContracts": [],
      "isFixedGasLimit": false
    },
    {
      "hash": "0x3b2700f822d7dc644da8ab77364b299db549c7f1a9ef4b7b2e9b15f5dda7e669",
      "transactionType": "CALL",
      "contractName": "TransparentUpgradeableProxy",
      "contractAddress": "0xac3e81d87ac916ae4ed981e4ea3f60ce757b222a",
      "function": null,
      "arguments": null,
      "transaction": {
        "from": "0xdc328af6c71df52966890a7f007179c25be4ff3b",
        "to": "0xac3e81d87ac916ae4ed981e4ea3f60ce757b222a",
        "gas": "0x47c52",
        "value": "0x0",
        "input": "0x0339887347686f737420536872000000000000000000000000000000000000000000000000000000000000000000000000000000000000000000000000000000000000020000000000000000000000000000000000000000000000000000000000000002",
        "nonce": "0x57",
        "chainId": "0x89"
      },
      "additionalContracts": [],
      "isFixedGasLimit": false
    },
    {
      "hash": "0x92c5e29ed45725d318fc658f7fd544fea9330558d9a04dd38de5dc62a0669c7e",
      "transactionType": "CALL",
      "contractName": "TransparentUpgradeableProxy",
      "contractAddress": "0xac3e81d87ac916ae4ed981e4ea3f60ce757b222a",
      "function": null,
      "arguments": null,
      "transaction": {
        "from": "0xdc328af6c71df52966890a7f007179c25be4ff3b",
        "to": "0xac3e81d87ac916ae4ed981e4ea3f60ce757b222a",
        "gas": "0x47c52",
        "value": "0x0",
        "input": "0x03398873426c6f6f6420436c61000000000000000000000000000000000000000000000000000000000000000000000000000000000000000000000000000000000000030000000000000000000000000000000000000000000000000000000000000003",
        "nonce": "0x58",
        "chainId": "0x89"
      },
      "additionalContracts": [],
      "isFixedGasLimit": false
    },
    {
      "hash": "0x93ccafc5a25d8e900dad7c02d09c489d5a0e79141597d663212663349024172c",
      "transactionType": "CALL",
      "contractName": "TransparentUpgradeableProxy",
      "contractAddress": "0xac3e81d87ac916ae4ed981e4ea3f60ce757b222a",
      "function": null,
      "arguments": null,
      "transaction": {
        "from": "0xdc328af6c71df52966890a7f007179c25be4ff3b",
        "to": "0xac3e81d87ac916ae4ed981e4ea3f60ce757b222a",
        "gas": "0x47c31",
        "value": "0x0",
        "input": "0x03398873457865637574720000000000000000000000000000000000000000000000000000000000000000000000000000000000000000000000000000000000000000040000000000000000000000000000000000000000000000000000000000000004",
        "nonce": "0x59",
        "chainId": "0x89"
      },
      "additionalContracts": [],
      "isFixedGasLimit": false
    },
    {
      "hash": "0x39bc3e84d429f7911d98e5ff1343869c974965d80a34804788b63830a8c0fafb",
      "transactionType": "CALL",
      "contractName": "TransparentUpgradeableProxy",
      "contractAddress": "0xac3e81d87ac916ae4ed981e4ea3f60ce757b222a",
      "function": null,
      "arguments": null,
      "transaction": {
        "from": "0xdc328af6c71df52966890a7f007179c25be4ff3b",
        "to": "0xac3e81d87ac916ae4ed981e4ea3f60ce757b222a",
        "gas": "0x47c52",
        "value": "0x0",
        "input": "0x0339887354686f726e20536872000000000000000000000000000000000000000000000000000000000000000000000000000000000000000000000000000000000000050000000000000000000000000000000000000000000000000000000000000005",
        "nonce": "0x5a",
        "chainId": "0x89"
      },
      "additionalContracts": [],
      "isFixedGasLimit": false
    },
    {
      "hash": "0x09e4f2149be8809df4b772cb02e6f46edbca5a1e5139c6dfe6f8bce23a2c1bfd",
      "transactionType": "CALL",
      "contractName": "TransparentUpgradeableProxy",
      "contractAddress": "0xac3e81d87ac916ae4ed981e4ea3f60ce757b222a",
      "function": null,
      "arguments": null,
      "transaction": {
        "from": "0xdc328af6c71df52966890a7f007179c25be4ff3b",
        "to": "0xac3e81d87ac916ae4ed981e4ea3f60ce757b222a",
        "gas": "0x47c52",
        "value": "0x0",
        "input": "0x0339887343726974204c6f6273000000000000000000000000000000000000000000000000000000000000000000000000000000000000000000000000000000000000060000000000000000000000000000000000000000000000000000000000000006",
        "nonce": "0x5b",
        "chainId": "0x89"
      },
      "additionalContracts": [],
      "isFixedGasLimit": false
    },
    {
      "hash": "0xc3a9e7ff341bd309bd3352ba8dc172188e31b97b1b9b59d8e416e04e29ee1ba5",
      "transactionType": "CALL",
      "contractName": "TransparentUpgradeableProxy",
      "contractAddress": "0xac3e81d87ac916ae4ed981e4ea3f60ce757b222a",
      "function": null,
      "arguments": null,
      "transaction": {
        "from": "0xdc328af6c71df52966890a7f007179c25be4ff3b",
        "to": "0xac3e81d87ac916ae4ed981e4ea3f60ce757b222a",
        "gas": "0x47c52",
        "value": "0x0",
        "input": "0x03398873426c756520466c616d000000000000000000000000000000000000000000000000000000000000000000000000000000000000000000000000000000000000070000000000000000000000000000000000000000000000000000000000000007",
        "nonce": "0x5c",
        "chainId": "0x89"
      },
      "additionalContracts": [],
      "isFixedGasLimit": false
    },
    {
      "hash": "0xf3bccd98caf829dec6a455004308f5c357130aada7e39b88c42d9bddfdc103b2",
      "transactionType": "CALL",
      "contractName": "TransparentUpgradeableProxy",
      "contractAddress": "0xac3e81d87ac916ae4ed981e4ea3f60ce757b222a",
      "function": null,
      "arguments": null,
      "transaction": {
        "from": "0xdc328af6c71df52966890a7f007179c25be4ff3b",
        "to": "0xac3e81d87ac916ae4ed981e4ea3f60ce757b222a",
        "gas": "0x47c52",
        "value": "0x0",
        "input": "0x03398873417263746963205368000000000000000000000000000000000000000000000000000000000000000000000000000000000000000000000000000000000000080000000000000000000000000000000000000000000000000000000000000008",
        "nonce": "0x5d",
        "chainId": "0x89"
      },
      "additionalContracts": [],
      "isFixedGasLimit": false
    },
    {
      "hash": "0xdbc936ac0b0e9bddb390a3518b84557df78ec312ad3964f3f8bee33dcc929fa1",
      "transactionType": "CALL",
      "contractName": "TransparentUpgradeableProxy",
      "contractAddress": "0xac3e81d87ac916ae4ed981e4ea3f60ce757b222a",
      "function": null,
      "arguments": null,
      "transaction": {
        "from": "0xdc328af6c71df52966890a7f007179c25be4ff3b",
        "to": "0xac3e81d87ac916ae4ed981e4ea3f60ce757b222a",
        "gas": "0x4bfce",
        "value": "0x0",
        "input": "0x0339887356656e742053687200000000000000000000000000000000000000000000000000000000000000000000000000000000000000000000000000000000000000090000000000000000000000000000000000000000000000000000000000000009",
        "nonce": "0x5e",
        "chainId": "0x89"
      },
      "additionalContracts": [],
      "isFixedGasLimit": false
    },
    {
      "hash": "0x28d615637bf768aeef1ade16b16799a453d44bfe655ee839238ebe38a1404ece",
      "transactionType": "CALL",
      "contractName": "TransparentUpgradeableProxy",
      "contractAddress": "0xac3e81d87ac916ae4ed981e4ea3f60ce757b222a",
      "function": null,
      "arguments": null,
      "transaction": {
        "from": "0xdc328af6c71df52966890a7f007179c25be4ff3b",
        "to": "0xac3e81d87ac916ae4ed981e4ea3f60ce757b222a",
        "gas": "0x47c52",
        "value": "0x0",
        "input": "0x033988734865726d69742053680000000000000000000000000000000000000000000000000000000000000000000000000000000000000000000000000000000000000a000000000000000000000000000000000000000000000000000000000000000a",
        "nonce": "0x5f",
        "chainId": "0x89"
      },
      "additionalContracts": [],
      "isFixedGasLimit": false
    },
    {
      "hash": "0xfe67b0d36ad9fb7f5962e6becee1ab3665b13c934f6f2eb335b4dcbc8b4aea3a",
      "transactionType": "CALL",
      "contractName": "TransparentUpgradeableProxy",
      "contractAddress": "0xac3e81d87ac916ae4ed981e4ea3f60ce757b222a",
      "function": null,
      "arguments": null,
      "transaction": {
        "from": "0xdc328af6c71df52966890a7f007179c25be4ff3b",
        "to": "0xac3e81d87ac916ae4ed981e4ea3f60ce757b222a",
        "gas": "0x47c52",
        "value": "0x0",
        "input": "0x033988734c75636b79205368720000000000000000000000000000000000000000000000000000000000000000000000000000000000000000000000000000000000000b000000000000000000000000000000000000000000000000000000000000000b",
        "nonce": "0x60",
        "chainId": "0x89"
      },
      "additionalContracts": [],
      "isFixedGasLimit": false
    }
  ],
  "receipts": [
    {
      "status": "0x1",
      "cumulativeGasUsed": "0x2927bad",
      "logs": [
        {
          "address": "0x2efb60f99e0d4d01fcfa95c937d3e9435e681c5a",
          "topics": [
            "0x8be0079c531659141344cd1fd0a4f28419497f9722a3daafe3b4186f6b6457e0",
            "0x0000000000000000000000000000000000000000000000000000000000000000",
            "0x000000000000000000000000dc328af6c71df52966890a7f007179c25be4ff3b"
          ],
          "data": "0x",
          "blockHash": "0x8b5e50c3d89b1df4285d9374c0dca9976edaa0355efede7ec7a7aa815dfc48d6",
          "blockNumber": "0x50c6cf5",
          "blockTimestamp": "0x69c50a0d",
          "transactionHash": "0x64f3e62e2c500772e36701cdab181908cd1a051489995ffb2709bb85078e66ac",
          "transactionIndex": "0xbe",
          "logIndex": "0x7b6",
          "removed": false
        },
        {
          "address": "0x0000000000000000000000000000000000001010",
          "topics": [
            "0x4dfe1bbbcf077ddc3e01291eea2d5c70c2b422b415d95645b9adcfd678cb1d63",
            "0x0000000000000000000000000000000000000000000000000000000000001010",
            "0x000000000000000000000000dc328af6c71df52966890a7f007179c25be4ff3b",
            "0x0000000000000000000000007ee41d8a25641000661b1ef5e6ae8a00400466b0"
          ],
          "data": "0x000000000000000000000000000000000000000000000000007f01871cf44aba00000000000000000000000000000000000000000000000282c4c35b07d7070400000000000000000000000000000000000000000008bfc9fdf62c216a6f427d0000000000000000000000000000000000000000000000028245c1d3eae2bc4a00000000000000000000000000000000000000000008bfc9fe752da887638d37",
          "blockHash": "0x8b5e50c3d89b1df4285d9374c0dca9976edaa0355efede7ec7a7aa815dfc48d6",
          "blockNumber": "0x50c6cf5",
          "blockTimestamp": "0x69c50a0d",
          "transactionHash": "0x64f3e62e2c500772e36701cdab181908cd1a051489995ffb2709bb85078e66ac",
          "transactionIndex": "0xbe",
          "logIndex": "0x7b7",
          "removed": false
        }
      ],
      "logsBloom": "0x00000000040000000000000000000000000000000000000000800000000000000000000000000000000000000000000000008000000000000000000000000800000000000000000000000000000020800001000000000000000100000000000000000000020000000000000000000800000000000000000080000000000000400000000000000000020000000400000000000000000000000000000000000000204000000000000000000000000000000000000000000000000000000000004000000000000000000001000000000000000000400000000000100000000020000000000000000000800000000000000000000000000000000000000000102000",
      "type": "0x0",
      "transactionHash": "0x64f3e62e2c500772e36701cdab181908cd1a051489995ffb2709bb85078e66ac",
      "transactionIndex": "0xbe",
      "blockHash": "0x8b5e50c3d89b1df4285d9374c0dca9976edaa0355efede7ec7a7aa815dfc48d6",
      "blockNumber": "0x50c6cf5",
      "gasUsed": "0x15a69e",
      "effectiveGasPrice": "0x1d253e23d7",
      "from": "0xdc328af6c71df52966890a7f007179c25be4ff3b",
      "to": null,
      "contractAddress": "0x2efb60f99e0d4d01fcfa95c937d3e9435e681c5a"
    },
    {
      "status": "0x1",
      "cumulativeGasUsed": "0x2c2e1fb",
      "logs": [
        {
          "address": "0x6f9d37419bfb43dbce48fefeaa38886bfc9faf6b",
          "topics": [
            "0x8be0079c531659141344cd1fd0a4f28419497f9722a3daafe3b4186f6b6457e0",
            "0x0000000000000000000000000000000000000000000000000000000000000000",
            "0x000000000000000000000000dc328af6c71df52966890a7f007179c25be4ff3b"
          ],
          "data": "0x",
          "blockHash": "0x17b2176c075167cebaad272c4829bba7c294f012b23c443e12f092806e68f701",
          "blockNumber": "0x50c6cf9",
          "blockTimestamp": "0x69c50a15",
          "transactionHash": "0xe48c6c3fc6f627e7054ac4c01a9033d93ab94275752e9564ca22e611e273bf8e",
          "transactionIndex": "0xe0",
          "logIndex": "0x7e5",
          "removed": false
        },
        {
          "address": "0x0000000000000000000000000000000000001010",
          "topics": [
            "0x4dfe1bbbcf077ddc3e01291eea2d5c70c2b422b415d95645b9adcfd678cb1d63",
            "0x0000000000000000000000000000000000000000000000000000000000001010",
            "0x000000000000000000000000dc328af6c71df52966890a7f007179c25be4ff3b",
            "0x0000000000000000000000007ee41d8a25641000661b1ef5e6ae8a00400466b0"
          ],
          "data": "0x00000000000000000000000000000000000000000000000000ad240c81cad2dc000000000000000000000000000000000000000000000002804dbd1ecf9c7e5200000000000000000000000000000000000000000008bfcba8a35f9361b651660000000000000000000000000000000000000000000000027fa099124dd1ab7600000000000000000000000000000000000000000008bfcba950839fe3812442",
          "blockHash": "0x17b2176c075167cebaad272c4829bba7c294f012b23c443e12f092806e68f701",
          "blockNumber": "0x50c6cf9",
          "blockTimestamp": "0x69c50a15",
          "transactionHash": "0xe48c6c3fc6f627e7054ac4c01a9033d93ab94275752e9564ca22e611e273bf8e",
          "transactionIndex": "0xe0",
          "logIndex": "0x7e6",
          "removed": false
        }
      ],
      "logsBloom": "0x00000000040000000000000000000000800000000000000000800000000000000000000000000000000000000000000000008000000000000000000000000800000000000000000000000000000000800001000000000000000100000000000000000000020000000000000000000800000000000000000080000000000000400000000000000000020000000400000000000000000000000000000000000000200000000000000000000000000000000000000000000000000000000000004000000010000000000001000000000000000000400000000000100200000020000000000000000000000000000000000000000000000000000000000000102000",
      "type": "0x0",
      "transactionHash": "0xe48c6c3fc6f627e7054ac4c01a9033d93ab94275752e9564ca22e611e273bf8e",
      "transactionIndex": "0xe0",
      "blockHash": "0x17b2176c075167cebaad272c4829bba7c294f012b23c443e12f092806e68f701",
      "blockNumber": "0x50c6cf9",
      "gasUsed": "0x1d123c",
      "effectiveGasPrice": "0x1d253e23d7",
      "from": "0xdc328af6c71df52966890a7f007179c25be4ff3b",
      "to": null,
      "contractAddress": "0x6f9d37419bfb43dbce48fefeaa38886bfc9faf6b"
    },
    {
      "status": "0x1",
      "cumulativeGasUsed": "0x2fa4b23",
      "logs": [
        {
          "address": "0x0000000000000000000000000000000000001010",
          "topics": [
            "0x4dfe1bbbcf077ddc3e01291eea2d5c70c2b422b415d95645b9adcfd678cb1d63",
            "0x0000000000000000000000000000000000000000000000000000000000001010",
            "0x000000000000000000000000dc328af6c71df52966890a7f007179c25be4ff3b",
            "0x0000000000000000000000007ee41d8a25641000661b1ef5e6ae8a00400466b0"
          ],
          "data": "0x000000000000000000000000000000000000000000000000012995519c1c28c80000000000000000000000000000000000000000000000027cfe71a1a72bf9ee00000000000000000000000000000000000000000008bfcc89835e23da07643a0000000000000000000000000000000000000000000000027bd4dc500b0fd12600000000000000000000000000000000000000000008bfcc8aacf37576238d02",
          "blockHash": "0x046f4984fe096dd84c5894d6741a332f34af6139a23320fc8947c0c7a7775496",
          "blockNumber": "0x50c6cfc",
          "blockTimestamp": "0x69c50a1b",
          "transactionHash": "0xef89b70e2c8056cdcde4f7919c4d699a6e829d046c42188540c8de9fda96f858",
          "transactionIndex": "0xd2",
          "logIndex": "0x971",
          "removed": false
        }
      ],
      "logsBloom": "0x00000000040000000000000000000000000000000000000000000000000000000000000000000000000000000000000000008000000000000000000000000800000000000000000000000000000000800000000000000000000100000000000000000000000000000000000000000000000000000000000080000000000000000000000000000000020000000400000000000000000000000000000000000000200000000000000000000000000000000000000000000000000000000000004000000000000000000001000000000000000000400000000000100000000000000000000000000000000000000000000000000000000000000000000000102000",
      "type": "0x0",
      "transactionHash": "0xef89b70e2c8056cdcde4f7919c4d699a6e829d046c42188540c8de9fda96f858",
      "transactionIndex": "0xd2",
      "blockHash": "0x046f4984fe096dd84c5894d6741a332f34af6139a23320fc8947c0c7a7775496",
      "blockNumber": "0x50c6cfc",
      "gasUsed": "0x31b732",
      "effectiveGasPrice": "0x1d253e23d7",
      "from": "0xdc328af6c71df52966890a7f007179c25be4ff3b",
      "to": null,
      "contractAddress": "0x75d7003694edefec0c2affcc17ba870e8af2dfea"
    },
    {
      "status": "0x1",
      "cumulativeGasUsed": "0x2937969",
      "logs": [
        {
          "address": "0xac3e81d87ac916ae4ed981e4ea3f60ce757b222a",
          "topics": [
            "0xbc7cd75a20ee27fd9adebab32041f755214dbc6bffa90cc0225b39da2e5c2d3b",
            "0x00000000000000000000000075d7003694edefec0c2affcc17ba870e8af2dfea"
          ],
          "data": "0x",
          "blockHash": "0x77edd2328c7411ce9a16856d5655f24dfbdd92e3c6d673b985675e34ec7adfbf",
          "blockNumber": "0x50c6cff",
          "blockTimestamp": "0x69c50a21",
          "transactionHash": "0xaf104d03e340542ccc06982ebf8539c6ed6087eb3d01b283e7800d1cc9c16d5e",
          "transactionIndex": "0xcb",
          "logIndex": "0x75f",
          "removed": false
        },
        {
          "address": "0xac3e81d87ac916ae4ed981e4ea3f60ce757b222a",
          "topics": [
            "0xc7f505b2f371ae2175ee4913f4499e1f2633a7b5936321eed1cdaeb6115181d2"
          ],
          "data": "0x0000000000000000000000000000000000000000000000000000000000000001",
          "blockHash": "0x77edd2328c7411ce9a16856d5655f24dfbdd92e3c6d673b985675e34ec7adfbf",
          "blockNumber": "0x50c6cff",
          "blockTimestamp": "0x69c50a21",
          "transactionHash": "0xaf104d03e340542ccc06982ebf8539c6ed6087eb3d01b283e7800d1cc9c16d5e",
          "transactionIndex": "0xcb",
          "logIndex": "0x760",
          "removed": false
        },
        {
          "address": "0x4cba1361f510200b18b3cfbe1480c897feec1fff",
          "topics": [
            "0x8be0079c531659141344cd1fd0a4f28419497f9722a3daafe3b4186f6b6457e0",
            "0x0000000000000000000000000000000000000000000000000000000000000000",
            "0x000000000000000000000000dc328af6c71df52966890a7f007179c25be4ff3b"
          ],
          "data": "0x",
          "blockHash": "0x77edd2328c7411ce9a16856d5655f24dfbdd92e3c6d673b985675e34ec7adfbf",
          "blockNumber": "0x50c6cff",
          "blockTimestamp": "0x69c50a21",
          "transactionHash": "0xaf104d03e340542ccc06982ebf8539c6ed6087eb3d01b283e7800d1cc9c16d5e",
          "transactionIndex": "0xcb",
          "logIndex": "0x761",
          "removed": false
        },
        {
          "address": "0xac3e81d87ac916ae4ed981e4ea3f60ce757b222a",
          "topics": [
            "0x7e644d79422f17c01e4894b5f4f588d331ebfa28653d42ae832dc59e38c9798f"
          ],
          "data": "0x00000000000000000000000000000000000000000000000000000000000000000000000000000000000000004cba1361f510200b18b3cfbe1480c897feec1fff",
          "blockHash": "0x77edd2328c7411ce9a16856d5655f24dfbdd92e3c6d673b985675e34ec7adfbf",
          "blockNumber": "0x50c6cff",
          "blockTimestamp": "0x69c50a21",
          "transactionHash": "0xaf104d03e340542ccc06982ebf8539c6ed6087eb3d01b283e7800d1cc9c16d5e",
          "transactionIndex": "0xcb",
          "logIndex": "0x762",
          "removed": false
        },
        {
          "address": "0x0000000000000000000000000000000000001010",
          "topics": [
            "0x4dfe1bbbcf077ddc3e01291eea2d5c70c2b422b415d95645b9adcfd678cb1d63",
            "0x0000000000000000000000000000000000000000000000000000000000001010",
            "0x000000000000000000000000dc328af6c71df52966890a7f007179c25be4ff3b",
            "0x0000000000000000000000007ee41d8a25641000661b1ef5e6ae8a00400466b0"
          ],
          "data": "0x000000000000000000000000000000000000000000000000003c4f5bd2e47e3a0000000000000000000000000000000000000000000000027755756c194348f000000000000000000000000000000000000000000008bfcd67c11670497850b400000000000000000000000000000000000000000000000277192610465ecab600000000000000000000000000000000000000000008bfcd67fd65cc1c5cceee",
          "blockHash": "0x77edd2328c7411ce9a16856d5655f24dfbdd92e3c6d673b985675e34ec7adfbf",
          "blockNumber": "0x50c6cff",
          "blockTimestamp": "0x69c50a21",
          "transactionHash": "0xaf104d03e340542ccc06982ebf8539c6ed6087eb3d01b283e7800d1cc9c16d5e",
          "transactionIndex": "0xcb",
          "logIndex": "0x763",
          "removed": false
        }
      ],
      "logsBloom": "0x00000000040000000000000000000000400000000000000000800000000000000000000000000000000000000000000000008000000000000000000000000801000000000000000000000000000002800001000000000000000100000000000000000000020000000000002000000800000000800000000080000000000000400000000000000000020c00000500400000000000000080000000001000800000200000000000000000000000000000000000000400000000000000000000004000800020000000000001000000000000000008400404000000100000000020000000000000000000000000000000000000000000000000000000000000102000",
      "type": "0x0",
      "transactionHash": "0xaf104d03e340542ccc06982ebf8539c6ed6087eb3d01b283e7800d1cc9c16d5e",
      "transactionIndex": "0xcb",
      "blockHash": "0x77edd2328c7411ce9a16856d5655f24dfbdd92e3c6d673b985675e34ec7adfbf",
      "blockNumber": "0x50c6cff",
      "gasUsed": "0xa3a5a",
      "effectiveGasPrice": "0x1d253e23d7",
      "from": "0xdc328af6c71df52966890a7f007179c25be4ff3b",
      "to": null,
      "contractAddress": "0xac3e81d87ac916ae4ed981e4ea3f60ce757b222a"
    },
    {
      "status": "0x1",
      "cumulativeGasUsed": "0x45914cd",
      "logs": [
        {
          "address": "0xb00f67e8ecd033cf150af4ff6866a7b06a9ea91e",
          "topics": [
            "0x8be0079c531659141344cd1fd0a4f28419497f9722a3daafe3b4186f6b6457e0",
            "0x0000000000000000000000000000000000000000000000000000000000000000",
            "0x000000000000000000000000dc328af6c71df52966890a7f007179c25be4ff3b"
          ],
          "data": "0x",
          "blockHash": "0x4365674d1cc955144f8c1570ca1295fa0b15819da9d12548f5130765e1c258f2",
          "blockNumber": "0x50c6d02",
          "blockTimestamp": "0x69c50a27",
          "transactionHash": "0x49e6ac48ba4d5400aea45ef3aa4b5b82852d6dfb89d2f188e49c93c2dde86b6e",
          "transactionIndex": "0xef",
          "logIndex": "0xc6c",
          "removed": false
        },
        {
          "address": "0x0000000000000000000000000000000000001010",
          "topics": [
            "0x4dfe1bbbcf077ddc3e01291eea2d5c70c2b422b415d95645b9adcfd678cb1d63",
            "0x0000000000000000000000000000000000000000000000000000000000001010",
            "0x000000000000000000000000dc328af6c71df52966890a7f007179c25be4ff3b",
            "0x0000000000000000000000007ee41d8a25641000661b1ef5e6ae8a00400466b0"
          ],
          "data": "0x0000000000000000000000000000000000000000000000000071eecbcf5a6670000000000000000000000000000000000000000000000002762b5c4f86e5f95a00000000000000000000000000000000000000000008bfd5c3caa043970b13b300000000000000000000000000000000000000000000000275b96d83b78b92ea00000000000000000000000000000000000000000008bfd5c43c8f0f66657a23",
          "blockHash": "0x4365674d1cc955144f8c1570ca1295fa0b15819da9d12548f5130765e1c258f2",
          "blockNumber": "0x50c6d02",
          "blockTimestamp": "0x69c50a27",
          "transactionHash": "0x49e6ac48ba4d5400aea45ef3aa4b5b82852d6dfb89d2f188e49c93c2dde86b6e",
          "transactionIndex": "0xef",
          "logIndex": "0xc6d",
          "removed": false
        }
      ],
      "logsBloom": "0x00000000040000002000000000000000000000000000000000800000800000000000000000000000000000000000000000008000000000000000000000000800000000000000000000000000000000800001000000000000000100000000000000000000020000000000000000000800000000000000000080000000000000400000000000000000020000000400000000000000000000000000000000000000200000000000800000000000000000000000000000000000000000000000004000000000000000000001000000000000000000400000000000100000000020000000000000000000000000000000000000000000000000000000000000102000",
      "type": "0x0",
      "transactionHash": "0x49e6ac48ba4d5400aea45ef3aa4b5b82852d6dfb89d2f188e49c93c2dde86b6e",
      "transactionIndex": "0xef",
      "blockHash": "0x4365674d1cc955144f8c1570ca1295fa0b15819da9d12548f5130765e1c258f2",
      "blockNumber": "0x50c6d02",
      "gasUsed": "0x1339ac",
      "effectiveGasPrice": "0x1d253e23d7",
      "from": "0xdc328af6c71df52966890a7f007179c25be4ff3b",
      "to": null,
      "contractAddress": "0xb00f67e8ecd033cf150af4ff6866a7b06a9ea91e"
    },
    {
      "status": "0x1",
      "cumulativeGasUsed": "0x2a560fb",
      "logs": [
        {
          "address": "0x0000000000000000000000000000000000001010",
          "topics": [
            "0x4dfe1bbbcf077ddc3e01291eea2d5c70c2b422b415d95645b9adcfd678cb1d63",
            "0x0000000000000000000000000000000000000000000000000000000000001010",
            "0x000000000000000000000000dc328af6c71df52966890a7f007179c25be4ff3b",
            "0x0000000000000000000000007ee41d8a25641000661b1ef5e6ae8a00400466b0"
          ],
          "data": "0x000000000000000000000000000000000000000000000000000436b0fa168f0500000000000000000000000000000000000000000000000273fb07d3023605e600000000000000000000000000000000000000000008bfd6baa562bea6969c4c00000000000000000000000000000000000000000000000273f6d122081f76e100000000000000000000000000000000000000000008bfd6baa9996fa0ad2b51",
          "blockHash": "0x64ee01e553af07e49115a7c8770824ea8ca30657bd6d2360a7cacb5ff162b3d5",
          "blockNumber": "0x50c6d05",
          "blockTimestamp": "0x69c50a2d",
          "transactionHash": "0x7e19e5bab74131dc368402a5eccf51f00961c7d4509d9c9ee39a15d4af6a2cc2",
          "transactionIndex": "0xaf",
          "logIndex": "0x94d",
          "removed": false
        }
      ],
      "logsBloom": "0x00000000040000000000000000000000000000000000000000000000000000000000000000000000000000000000000000008000000000000000000000000800000000000000000000000000000000800000000000000000000100000000000000000000000000000000000000000000000000000000000080000000000000000000000000000000020000000400000000000000000000000000000000000000200000000000000000000000000000000000000000000000000000000000004000000000000000000001000000000000000000400000000000100000000000000000000000000000000000000000000000000000000000000000000000102000",
      "type": "0x0",
      "transactionHash": "0x7e19e5bab74131dc368402a5eccf51f00961c7d4509d9c9ee39a15d4af6a2cc2",
      "transactionIndex": "0xaf",
      "blockHash": "0x64ee01e553af07e49115a7c8770824ea8ca30657bd6d2360a7cacb5ff162b3d5",
      "blockNumber": "0x50c6d05",
      "gasUsed": "0xb48d",
      "effectiveGasPrice": "0x1d253e23d7",
      "from": "0xdc328af6c71df52966890a7f007179c25be4ff3b",
      "to": "0x6f9d37419bfb43dbce48fefeaa38886bfc9faf6b",
      "contractAddress": null
    },
    {
      "status": "0x1",
      "cumulativeGasUsed": "0x2c56fab",
      "logs": [
        {
          "address": "0x0000000000000000000000000000000000001010",
          "topics": [
            "0x4dfe1bbbcf077ddc3e01291eea2d5c70c2b422b415d95645b9adcfd678cb1d63",
            "0x0000000000000000000000000000000000000000000000000000000000001010",
            "0x000000000000000000000000dc328af6c71df52966890a7f007179c25be4ff3b",
            "0x0000000000000000000000007ee41d8a25641000661b1ef5e6ae8a00400466b0"
          ],
          "data": "0x00000000000000000000000000000000000000000000000000049e41d72dba6600000000000000000000000000000000000000000000000273e67995cdc91c7b00000000000000000000000000000000000000000008bfd793b5fb7b7c678eb100000000000000000000000000000000000000000000000273e1db53f69b621500000000000000000000000000000000000000000008bfd793ba99bd53954917",
          "blockHash": "0x2c30c1e84329e5d5a94d7182b64a14523052b966ae0aabb1c6a02f99688ec209",
          "blockNumber": "0x50c6d08",
          "blockTimestamp": "0x69c50a33",
          "transactionHash": "0x5b243202703b31df0699db67075773806cd17824d52d046873bf7e4b46035fdc",
          "transactionIndex": "0xaf",
          "logIndex": "0x99c",
          "removed": false
        }
      ],
      "logsBloom": "0x00000000040000000000000000000000000000000000000000000000000000000000000000000000000000000000000000008000000000000000000000000800000000000000000000000000000000800000000000000000000100000000000000000000000000000000000000000000000000000000000080000000000000000000000000000000020000000400000000000000000000000000000000000000200000000000000000000000000000000000000000000000000000000000004000000000000000000001000000000000000000400000000000100000000000000000000000000000000000000000000000000000000000000000000000102000",
      "type": "0x0",
      "transactionHash": "0x5b243202703b31df0699db67075773806cd17824d52d046873bf7e4b46035fdc",
      "transactionIndex": "0xaf",
      "blockHash": "0x2c30c1e84329e5d5a94d7182b64a14523052b966ae0aabb1c6a02f99688ec209",
      "blockNumber": "0x50c6d08",
      "gasUsed": "0xc832",
      "effectiveGasPrice": "0x1d253e23d7",
      "from": "0xdc328af6c71df52966890a7f007179c25be4ff3b",
      "to": "0xac3e81d87ac916ae4ed981e4ea3f60ce757b222a",
      "contractAddress": null
    },
    {
      "status": "0x1",
      "cumulativeGasUsed": "0x28b4255",
      "logs": [
        {
          "address": "0x6f9d37419bfb43dbce48fefeaa38886bfc9faf6b",
          "topics": [
            "0xddf252ad1be2c89b69c2b068fc378daa952ba7f163c4a11628f55a4df523b3ef",
            "0x0000000000000000000000000000000000000000000000000000000000000000",
            "0x0000000000000000000000006f9d37419bfb43dbce48fefeaa38886bfc9faf6b",
            "0x0000000000000000000000000000000000000000000000000000000000000000"
          ],
          "data": "0x",
          "blockHash": "0xed906b3c26661cf1125b45507f2758a102ebbc9721fd68621bf5d9916772c662",
          "blockNumber": "0x50c6d0d",
          "blockTimestamp": "0x69c50a3d",
          "transactionHash": "0xe15b63995310dff19ddce25d1b5e5865a962681a8dcf6a5cf06c0e6652f40da5",
          "transactionIndex": "0xc9",
          "logIndex": "0x82f",
          "removed": false
        },
        {
          "address": "0x6f9d37419bfb43dbce48fefeaa38886bfc9faf6b",
          "topics": [
            "0xddf252ad1be2c89b69c2b068fc378daa952ba7f163c4a11628f55a4df523b3ef",
            "0x0000000000000000000000000000000000000000000000000000000000000000",
            "0x0000000000000000000000006f9d37419bfb43dbce48fefeaa38886bfc9faf6b",
            "0x0000000000000000000000000000000000000000000000000000000000000001"
          ],
          "data": "0x",
          "blockHash": "0xed906b3c26661cf1125b45507f2758a102ebbc9721fd68621bf5d9916772c662",
          "blockNumber": "0x50c6d0d",
          "blockTimestamp": "0x69c50a3d",
          "transactionHash": "0xe15b63995310dff19ddce25d1b5e5865a962681a8dcf6a5cf06c0e6652f40da5",
          "transactionIndex": "0xc9",
          "logIndex": "0x830",
          "removed": false
        },
        {
          "address": "0x6f9d37419bfb43dbce48fefeaa38886bfc9faf6b",
          "topics": [
            "0xddf252ad1be2c89b69c2b068fc378daa952ba7f163c4a11628f55a4df523b3ef",
            "0x0000000000000000000000000000000000000000000000000000000000000000",
            "0x0000000000000000000000006f9d37419bfb43dbce48fefeaa38886bfc9faf6b",
            "0x0000000000000000000000000000000000000000000000000000000000000002"
          ],
          "data": "0x",
          "blockHash": "0xed906b3c26661cf1125b45507f2758a102ebbc9721fd68621bf5d9916772c662",
          "blockNumber": "0x50c6d0d",
          "blockTimestamp": "0x69c50a3d",
          "transactionHash": "0xe15b63995310dff19ddce25d1b5e5865a962681a8dcf6a5cf06c0e6652f40da5",
          "transactionIndex": "0xc9",
          "logIndex": "0x831",
          "removed": false
        },
        {
          "address": "0x6f9d37419bfb43dbce48fefeaa38886bfc9faf6b",
          "topics": [
            "0xddf252ad1be2c89b69c2b068fc378daa952ba7f163c4a11628f55a4df523b3ef",
            "0x0000000000000000000000000000000000000000000000000000000000000000",
            "0x0000000000000000000000006f9d37419bfb43dbce48fefeaa38886bfc9faf6b",
            "0x0000000000000000000000000000000000000000000000000000000000000003"
          ],
          "data": "0x",
          "blockHash": "0xed906b3c26661cf1125b45507f2758a102ebbc9721fd68621bf5d9916772c662",
          "blockNumber": "0x50c6d0d",
          "blockTimestamp": "0x69c50a3d",
          "transactionHash": "0xe15b63995310dff19ddce25d1b5e5865a962681a8dcf6a5cf06c0e6652f40da5",
          "transactionIndex": "0xc9",
          "logIndex": "0x832",
          "removed": false
        },
        {
          "address": "0x6f9d37419bfb43dbce48fefeaa38886bfc9faf6b",
          "topics": [
            "0xddf252ad1be2c89b69c2b068fc378daa952ba7f163c4a11628f55a4df523b3ef",
            "0x0000000000000000000000000000000000000000000000000000000000000000",
            "0x0000000000000000000000006f9d37419bfb43dbce48fefeaa38886bfc9faf6b",
            "0x0000000000000000000000000000000000000000000000000000000000000004"
          ],
          "data": "0x",
          "blockHash": "0xed906b3c26661cf1125b45507f2758a102ebbc9721fd68621bf5d9916772c662",
          "blockNumber": "0x50c6d0d",
          "blockTimestamp": "0x69c50a3d",
          "transactionHash": "0xe15b63995310dff19ddce25d1b5e5865a962681a8dcf6a5cf06c0e6652f40da5",
          "transactionIndex": "0xc9",
          "logIndex": "0x833",
          "removed": false
        },
        {
          "address": "0x6f9d37419bfb43dbce48fefeaa38886bfc9faf6b",
          "topics": [
            "0xddf252ad1be2c89b69c2b068fc378daa952ba7f163c4a11628f55a4df523b3ef",
            "0x0000000000000000000000000000000000000000000000000000000000000000",
            "0x0000000000000000000000006f9d37419bfb43dbce48fefeaa38886bfc9faf6b",
            "0x0000000000000000000000000000000000000000000000000000000000000005"
          ],
          "data": "0x",
          "blockHash": "0xed906b3c26661cf1125b45507f2758a102ebbc9721fd68621bf5d9916772c662",
          "blockNumber": "0x50c6d0d",
          "blockTimestamp": "0x69c50a3d",
          "transactionHash": "0xe15b63995310dff19ddce25d1b5e5865a962681a8dcf6a5cf06c0e6652f40da5",
          "transactionIndex": "0xc9",
          "logIndex": "0x834",
          "removed": false
        },
        {
          "address": "0x6f9d37419bfb43dbce48fefeaa38886bfc9faf6b",
          "topics": [
            "0xddf252ad1be2c89b69c2b068fc378daa952ba7f163c4a11628f55a4df523b3ef",
            "0x0000000000000000000000000000000000000000000000000000000000000000",
            "0x0000000000000000000000006f9d37419bfb43dbce48fefeaa38886bfc9faf6b",
            "0x0000000000000000000000000000000000000000000000000000000000000006"
          ],
          "data": "0x",
          "blockHash": "0xed906b3c26661cf1125b45507f2758a102ebbc9721fd68621bf5d9916772c662",
          "blockNumber": "0x50c6d0d",
          "blockTimestamp": "0x69c50a3d",
          "transactionHash": "0xe15b63995310dff19ddce25d1b5e5865a962681a8dcf6a5cf06c0e6652f40da5",
          "transactionIndex": "0xc9",
          "logIndex": "0x835",
          "removed": false
        },
        {
          "address": "0x6f9d37419bfb43dbce48fefeaa38886bfc9faf6b",
          "topics": [
            "0xddf252ad1be2c89b69c2b068fc378daa952ba7f163c4a11628f55a4df523b3ef",
            "0x0000000000000000000000000000000000000000000000000000000000000000",
            "0x0000000000000000000000006f9d37419bfb43dbce48fefeaa38886bfc9faf6b",
            "0x0000000000000000000000000000000000000000000000000000000000000007"
          ],
          "data": "0x",
          "blockHash": "0xed906b3c26661cf1125b45507f2758a102ebbc9721fd68621bf5d9916772c662",
          "blockNumber": "0x50c6d0d",
          "blockTimestamp": "0x69c50a3d",
          "transactionHash": "0xe15b63995310dff19ddce25d1b5e5865a962681a8dcf6a5cf06c0e6652f40da5",
          "transactionIndex": "0xc9",
          "logIndex": "0x836",
          "removed": false
        },
        {
          "address": "0x6f9d37419bfb43dbce48fefeaa38886bfc9faf6b",
          "topics": [
            "0xddf252ad1be2c89b69c2b068fc378daa952ba7f163c4a11628f55a4df523b3ef",
            "0x0000000000000000000000000000000000000000000000000000000000000000",
            "0x0000000000000000000000006f9d37419bfb43dbce48fefeaa38886bfc9faf6b",
            "0x0000000000000000000000000000000000000000000000000000000000000008"
          ],
          "data": "0x",
          "blockHash": "0xed906b3c26661cf1125b45507f2758a102ebbc9721fd68621bf5d9916772c662",
          "blockNumber": "0x50c6d0d",
          "blockTimestamp": "0x69c50a3d",
          "transactionHash": "0xe15b63995310dff19ddce25d1b5e5865a962681a8dcf6a5cf06c0e6652f40da5",
          "transactionIndex": "0xc9",
          "logIndex": "0x837",
          "removed": false
        },
        {
          "address": "0x6f9d37419bfb43dbce48fefeaa38886bfc9faf6b",
          "topics": [
            "0xddf252ad1be2c89b69c2b068fc378daa952ba7f163c4a11628f55a4df523b3ef",
            "0x0000000000000000000000000000000000000000000000000000000000000000",
            "0x0000000000000000000000006f9d37419bfb43dbce48fefeaa38886bfc9faf6b",
            "0x0000000000000000000000000000000000000000000000000000000000000009"
          ],
          "data": "0x",
          "blockHash": "0xed906b3c26661cf1125b45507f2758a102ebbc9721fd68621bf5d9916772c662",
          "blockNumber": "0x50c6d0d",
          "blockTimestamp": "0x69c50a3d",
          "transactionHash": "0xe15b63995310dff19ddce25d1b5e5865a962681a8dcf6a5cf06c0e6652f40da5",
          "transactionIndex": "0xc9",
          "logIndex": "0x838",
          "removed": false
        },
        {
          "address": "0x6f9d37419bfb43dbce48fefeaa38886bfc9faf6b",
          "topics": [
            "0xddf252ad1be2c89b69c2b068fc378daa952ba7f163c4a11628f55a4df523b3ef",
            "0x0000000000000000000000000000000000000000000000000000000000000000",
            "0x0000000000000000000000006f9d37419bfb43dbce48fefeaa38886bfc9faf6b",
            "0x000000000000000000000000000000000000000000000000000000000000000a"
          ],
          "data": "0x",
          "blockHash": "0xed906b3c26661cf1125b45507f2758a102ebbc9721fd68621bf5d9916772c662",
          "blockNumber": "0x50c6d0d",
          "blockTimestamp": "0x69c50a3d",
          "transactionHash": "0xe15b63995310dff19ddce25d1b5e5865a962681a8dcf6a5cf06c0e6652f40da5",
          "transactionIndex": "0xc9",
          "logIndex": "0x839",
          "removed": false
        },
        {
          "address": "0x6f9d37419bfb43dbce48fefeaa38886bfc9faf6b",
          "topics": [
            "0xddf252ad1be2c89b69c2b068fc378daa952ba7f163c4a11628f55a4df523b3ef",
            "0x0000000000000000000000000000000000000000000000000000000000000000",
            "0x0000000000000000000000006f9d37419bfb43dbce48fefeaa38886bfc9faf6b",
            "0x000000000000000000000000000000000000000000000000000000000000000b"
          ],
          "data": "0x",
          "blockHash": "0xed906b3c26661cf1125b45507f2758a102ebbc9721fd68621bf5d9916772c662",
          "blockNumber": "0x50c6d0d",
          "blockTimestamp": "0x69c50a3d",
          "transactionHash": "0xe15b63995310dff19ddce25d1b5e5865a962681a8dcf6a5cf06c0e6652f40da5",
          "transactionIndex": "0xc9",
          "logIndex": "0x83a",
          "removed": false
        },
        {
          "address": "0x0000000000000000000000000000000000001010",
          "topics": [
            "0x4dfe1bbbcf077ddc3e01291eea2d5c70c2b422b415d95645b9adcfd678cb1d63",
            "0x0000000000000000000000000000000000000000000000000000000000001010",
            "0x000000000000000000000000dc328af6c71df52966890a7f007179c25be4ff3b",
            "0x0000000000000000000000007ee41d8a25641000661b1ef5e6ae8a00400466b0"
          ],
          "data": "0x000000000000000000000000000000000000000000000000006c02bb4d6f74f200000000000000000000000000000000000000000000000273cfaecbfba6247d00000000000000000000000000000000000000000008bfd939e35cf7b21d049a0000000000000000000000000000000000000000000000027363ac10ae36af8b00000000000000000000000000000000000000000008bfd93a4f5fb2ff8c798c",
          "blockHash": "0xed906b3c26661cf1125b45507f2758a102ebbc9721fd68621bf5d9916772c662",
          "blockNumber": "0x50c6d0d",
          "blockTimestamp": "0x69c50a3d",
          "transactionHash": "0xe15b63995310dff19ddce25d1b5e5865a962681a8dcf6a5cf06c0e6652f40da5",
          "transactionIndex": "0xc9",
          "logIndex": "0x83b",
          "removed": false
        }
      ],
      "logsBloom": "0x04000000040000000000004000000000800000000000000000000000000000000000000002000000000000000000000000009000060480000020000000240800000030000000000000000008000000800000000000040000000100000000000008000002020000000000000000000800000000000000000080000010000000000080000400000000030000000400001000001800000000000000000000000000200000000000000000000100000000000000000000800000002000080000404040000012000000000001000000000000002000408000000000100300000060000000000000000000000000000000000000000000008000040000000000902000",
      "type": "0x0",
      "transactionHash": "0xe15b63995310dff19ddce25d1b5e5865a962681a8dcf6a5cf06c0e6652f40da5",
      "transactionIndex": "0xc9",
      "blockHash": "0xed906b3c26661cf1125b45507f2758a102ebbc9721fd68621bf5d9916772c662",
      "blockNumber": "0x50c6d0d",
      "gasUsed": "0x125b3b",
      "effectiveGasPrice": "0x1d253e23d7",
      "from": "0xdc328af6c71df52966890a7f007179c25be4ff3b",
      "to": "0x6f9d37419bfb43dbce48fefeaa38886bfc9faf6b",
      "contractAddress": null
    },
    {
      "status": "0x1",
      "cumulativeGasUsed": "0x2e3e6da",
      "logs": [
        {
          "address": "0x2efb60f99e0d4d01fcfa95c937d3e9435e681c5a",
          "topics": [
            "0xddf252ad1be2c89b69c2b068fc378daa952ba7f163c4a11628f55a4df523b3ef",
            "0x0000000000000000000000000000000000000000000000000000000000000000",
            "0x0000000000000000000000002efb60f99e0d4d01fcfa95c937d3e9435e681c5a",
            "0x0000000000000000000000000000000000000000000000000000000000000000"
          ],
          "data": "0x",
          "blockHash": "0xd03f3eefa9dc3960cc422fa460a022d44afa2c91595b4a2b1f7f139aa694d8e0",
          "blockNumber": "0x50c6d10",
          "blockTimestamp": "0x69c50a43",
          "transactionHash": "0x7f488b293d96522b70daed49da9d088fbc39e114a751d80d9852a0bab36c3ad1",
          "transactionIndex": "0xb2",
          "logIndex": "0x8b7",
          "removed": false
        },
        {
          "address": "0x2efb60f99e0d4d01fcfa95c937d3e9435e681c5a",
          "topics": [
            "0xddf252ad1be2c89b69c2b068fc378daa952ba7f163c4a11628f55a4df523b3ef",
            "0x0000000000000000000000000000000000000000000000000000000000000000",
            "0x0000000000000000000000002efb60f99e0d4d01fcfa95c937d3e9435e681c5a",
            "0x0000000000000000000000000000000000000000000000000000000000000001"
          ],
          "data": "0x",
          "blockHash": "0xd03f3eefa9dc3960cc422fa460a022d44afa2c91595b4a2b1f7f139aa694d8e0",
          "blockNumber": "0x50c6d10",
          "blockTimestamp": "0x69c50a43",
          "transactionHash": "0x7f488b293d96522b70daed49da9d088fbc39e114a751d80d9852a0bab36c3ad1",
          "transactionIndex": "0xb2",
          "logIndex": "0x8b8",
          "removed": false
        },
        {
          "address": "0x2efb60f99e0d4d01fcfa95c937d3e9435e681c5a",
          "topics": [
            "0xddf252ad1be2c89b69c2b068fc378daa952ba7f163c4a11628f55a4df523b3ef",
            "0x0000000000000000000000000000000000000000000000000000000000000000",
            "0x0000000000000000000000002efb60f99e0d4d01fcfa95c937d3e9435e681c5a",
            "0x0000000000000000000000000000000000000000000000000000000000000002"
          ],
          "data": "0x",
          "blockHash": "0xd03f3eefa9dc3960cc422fa460a022d44afa2c91595b4a2b1f7f139aa694d8e0",
          "blockNumber": "0x50c6d10",
          "blockTimestamp": "0x69c50a43",
          "transactionHash": "0x7f488b293d96522b70daed49da9d088fbc39e114a751d80d9852a0bab36c3ad1",
          "transactionIndex": "0xb2",
          "logIndex": "0x8b9",
          "removed": false
        },
        {
          "address": "0x2efb60f99e0d4d01fcfa95c937d3e9435e681c5a",
          "topics": [
            "0xddf252ad1be2c89b69c2b068fc378daa952ba7f163c4a11628f55a4df523b3ef",
            "0x0000000000000000000000000000000000000000000000000000000000000000",
            "0x0000000000000000000000002efb60f99e0d4d01fcfa95c937d3e9435e681c5a",
            "0x0000000000000000000000000000000000000000000000000000000000000003"
          ],
          "data": "0x",
          "blockHash": "0xd03f3eefa9dc3960cc422fa460a022d44afa2c91595b4a2b1f7f139aa694d8e0",
          "blockNumber": "0x50c6d10",
          "blockTimestamp": "0x69c50a43",
          "transactionHash": "0x7f488b293d96522b70daed49da9d088fbc39e114a751d80d9852a0bab36c3ad1",
          "transactionIndex": "0xb2",
          "logIndex": "0x8ba",
          "removed": false
        },
        {
          "address": "0x2efb60f99e0d4d01fcfa95c937d3e9435e681c5a",
          "topics": [
            "0xddf252ad1be2c89b69c2b068fc378daa952ba7f163c4a11628f55a4df523b3ef",
            "0x0000000000000000000000000000000000000000000000000000000000000000",
            "0x0000000000000000000000002efb60f99e0d4d01fcfa95c937d3e9435e681c5a",
            "0x0000000000000000000000000000000000000000000000000000000000000004"
          ],
          "data": "0x",
          "blockHash": "0xd03f3eefa9dc3960cc422fa460a022d44afa2c91595b4a2b1f7f139aa694d8e0",
          "blockNumber": "0x50c6d10",
          "blockTimestamp": "0x69c50a43",
          "transactionHash": "0x7f488b293d96522b70daed49da9d088fbc39e114a751d80d9852a0bab36c3ad1",
          "transactionIndex": "0xb2",
          "logIndex": "0x8bb",
          "removed": false
        },
        {
          "address": "0x2efb60f99e0d4d01fcfa95c937d3e9435e681c5a",
          "topics": [
            "0xddf252ad1be2c89b69c2b068fc378daa952ba7f163c4a11628f55a4df523b3ef",
            "0x0000000000000000000000000000000000000000000000000000000000000000",
            "0x0000000000000000000000002efb60f99e0d4d01fcfa95c937d3e9435e681c5a",
            "0x0000000000000000000000000000000000000000000000000000000000000005"
          ],
          "data": "0x",
          "blockHash": "0xd03f3eefa9dc3960cc422fa460a022d44afa2c91595b4a2b1f7f139aa694d8e0",
          "blockNumber": "0x50c6d10",
          "blockTimestamp": "0x69c50a43",
          "transactionHash": "0x7f488b293d96522b70daed49da9d088fbc39e114a751d80d9852a0bab36c3ad1",
          "transactionIndex": "0xb2",
          "logIndex": "0x8bc",
          "removed": false
        },
        {
          "address": "0x2efb60f99e0d4d01fcfa95c937d3e9435e681c5a",
          "topics": [
            "0xddf252ad1be2c89b69c2b068fc378daa952ba7f163c4a11628f55a4df523b3ef",
            "0x0000000000000000000000000000000000000000000000000000000000000000",
            "0x0000000000000000000000002efb60f99e0d4d01fcfa95c937d3e9435e681c5a",
            "0x0000000000000000000000000000000000000000000000000000000000000006"
          ],
          "data": "0x",
          "blockHash": "0xd03f3eefa9dc3960cc422fa460a022d44afa2c91595b4a2b1f7f139aa694d8e0",
          "blockNumber": "0x50c6d10",
          "blockTimestamp": "0x69c50a43",
          "transactionHash": "0x7f488b293d96522b70daed49da9d088fbc39e114a751d80d9852a0bab36c3ad1",
          "transactionIndex": "0xb2",
          "logIndex": "0x8bd",
          "removed": false
        },
        {
          "address": "0x2efb60f99e0d4d01fcfa95c937d3e9435e681c5a",
          "topics": [
            "0xddf252ad1be2c89b69c2b068fc378daa952ba7f163c4a11628f55a4df523b3ef",
            "0x0000000000000000000000000000000000000000000000000000000000000000",
            "0x0000000000000000000000002efb60f99e0d4d01fcfa95c937d3e9435e681c5a",
            "0x0000000000000000000000000000000000000000000000000000000000000007"
          ],
          "data": "0x",
          "blockHash": "0xd03f3eefa9dc3960cc422fa460a022d44afa2c91595b4a2b1f7f139aa694d8e0",
          "blockNumber": "0x50c6d10",
          "blockTimestamp": "0x69c50a43",
          "transactionHash": "0x7f488b293d96522b70daed49da9d088fbc39e114a751d80d9852a0bab36c3ad1",
          "transactionIndex": "0xb2",
          "logIndex": "0x8be",
          "removed": false
        },
        {
          "address": "0x2efb60f99e0d4d01fcfa95c937d3e9435e681c5a",
          "topics": [
            "0xddf252ad1be2c89b69c2b068fc378daa952ba7f163c4a11628f55a4df523b3ef",
            "0x0000000000000000000000000000000000000000000000000000000000000000",
            "0x0000000000000000000000002efb60f99e0d4d01fcfa95c937d3e9435e681c5a",
            "0x0000000000000000000000000000000000000000000000000000000000000008"
          ],
          "data": "0x",
          "blockHash": "0xd03f3eefa9dc3960cc422fa460a022d44afa2c91595b4a2b1f7f139aa694d8e0",
          "blockNumber": "0x50c6d10",
          "blockTimestamp": "0x69c50a43",
          "transactionHash": "0x7f488b293d96522b70daed49da9d088fbc39e114a751d80d9852a0bab36c3ad1",
          "transactionIndex": "0xb2",
          "logIndex": "0x8bf",
          "removed": false
        },
        {
          "address": "0x2efb60f99e0d4d01fcfa95c937d3e9435e681c5a",
          "topics": [
            "0xddf252ad1be2c89b69c2b068fc378daa952ba7f163c4a11628f55a4df523b3ef",
            "0x0000000000000000000000000000000000000000000000000000000000000000",
            "0x0000000000000000000000002efb60f99e0d4d01fcfa95c937d3e9435e681c5a",
            "0x0000000000000000000000000000000000000000000000000000000000000009"
          ],
          "data": "0x",
          "blockHash": "0xd03f3eefa9dc3960cc422fa460a022d44afa2c91595b4a2b1f7f139aa694d8e0",
          "blockNumber": "0x50c6d10",
          "blockTimestamp": "0x69c50a43",
          "transactionHash": "0x7f488b293d96522b70daed49da9d088fbc39e114a751d80d9852a0bab36c3ad1",
          "transactionIndex": "0xb2",
          "logIndex": "0x8c0",
          "removed": false
        },
        {
          "address": "0x2efb60f99e0d4d01fcfa95c937d3e9435e681c5a",
          "topics": [
            "0xddf252ad1be2c89b69c2b068fc378daa952ba7f163c4a11628f55a4df523b3ef",
            "0x0000000000000000000000000000000000000000000000000000000000000000",
            "0x0000000000000000000000002efb60f99e0d4d01fcfa95c937d3e9435e681c5a",
            "0x000000000000000000000000000000000000000000000000000000000000000a"
          ],
          "data": "0x",
          "blockHash": "0xd03f3eefa9dc3960cc422fa460a022d44afa2c91595b4a2b1f7f139aa694d8e0",
          "blockNumber": "0x50c6d10",
          "blockTimestamp": "0x69c50a43",
          "transactionHash": "0x7f488b293d96522b70daed49da9d088fbc39e114a751d80d9852a0bab36c3ad1",
          "transactionIndex": "0xb2",
          "logIndex": "0x8c1",
          "removed": false
        },
        {
          "address": "0x2efb60f99e0d4d01fcfa95c937d3e9435e681c5a",
          "topics": [
            "0xddf252ad1be2c89b69c2b068fc378daa952ba7f163c4a11628f55a4df523b3ef",
            "0x0000000000000000000000000000000000000000000000000000000000000000",
            "0x0000000000000000000000002efb60f99e0d4d01fcfa95c937d3e9435e681c5a",
            "0x000000000000000000000000000000000000000000000000000000000000000b"
          ],
          "data": "0x",
          "blockHash": "0xd03f3eefa9dc3960cc422fa460a022d44afa2c91595b4a2b1f7f139aa694d8e0",
          "blockNumber": "0x50c6d10",
          "blockTimestamp": "0x69c50a43",
          "transactionHash": "0x7f488b293d96522b70daed49da9d088fbc39e114a751d80d9852a0bab36c3ad1",
          "transactionIndex": "0xb2",
          "logIndex": "0x8c2",
          "removed": false
        },
        {
          "address": "0x0000000000000000000000000000000000001010",
          "topics": [
            "0x4dfe1bbbcf077ddc3e01291eea2d5c70c2b422b415d95645b9adcfd678cb1d63",
            "0x0000000000000000000000000000000000000000000000000000000000001010",
            "0x000000000000000000000000dc328af6c71df52966890a7f007179c25be4ff3b",
            "0x0000000000000000000000007ee41d8a25641000661b1ef5e6ae8a00400466b0"
          ],
          "data": "0x000000000000000000000000000000000000000000000000018f3516842ee38800000000000000000000000000000000000000000000000271b8ad78ca7874f000000000000000000000000000000000000000000008bfda16970901d34e8573000000000000000000000000000000000000000000000002702978624649916800000000000000000000000000000000000000000008bfda18263e18577d68fb",
          "blockHash": "0xd03f3eefa9dc3960cc422fa460a022d44afa2c91595b4a2b1f7f139aa694d8e0",
          "blockNumber": "0x50c6d10",
          "blockTimestamp": "0x69c50a43",
          "transactionHash": "0x7f488b293d96522b70daed49da9d088fbc39e114a751d80d9852a0bab36c3ad1",
          "transactionIndex": "0xb2",
          "logIndex": "0x8c3",
          "removed": false
        }
      ],
      "logsBloom": "0x04000000040000000000004000000000000000000000000000000000000000000000000000000000000000000000000000009000060480000020000000240800000030000000000000000008000020800000000000040000000100400000000008000000020000000000000000000800000000000000000080000010000000000080000400008000030000000400001000001800000000000000000000000000204000000000000000000100000000000000000000800000002000080000404040000002000000000001001000000000002000408000000000100100000060000000000000000000800000000000000000000000008000040000000000902000",
      "type": "0x0",
      "transactionHash": "0x7f488b293d96522b70daed49da9d088fbc39e114a751d80d9852a0bab36c3ad1",
      "transactionIndex": "0xb2",
      "blockHash": "0xd03f3eefa9dc3960cc422fa460a022d44afa2c91595b4a2b1f7f139aa694d8e0",
      "blockNumber": "0x50c6d10",
      "gasUsed": "0x428254",
      "effectiveGasPrice": "0x1d253e23d7",
      "from": "0xdc328af6c71df52966890a7f007179c25be4ff3b",
      "to": "0x2efb60f99e0d4d01fcfa95c937d3e9435e681c5a",
      "contractAddress": null
    },
    {
      "status": "0x1",
      "cumulativeGasUsed": "0x3d15f06",
      "logs": [
        {
          "address": "0x0000000000000000000000000000000000001010",
          "topics": [
            "0x4dfe1bbbcf077ddc3e01291eea2d5c70c2b422b415d95645b9adcfd678cb1d63",
            "0x0000000000000000000000000000000000000000000000000000000000001010",
            "0x000000000000000000000000dc328af6c71df52966890a7f007179c25be4ff3b",
            "0x0000000000000000000000007ee41d8a25641000661b1ef5e6ae8a00400466b0"
          ],
          "data": "0x0000000000000000000000000000000000000000000000000010f15c6dd188120000000000000000000000000000000000000000000000026a263cf9c673846400000000000000000000000000000000000000000008bfdaa5067009b22840130000000000000000000000000000000000000000000000026a154b9d58a1fc5200000000000000000000000000000000000000000008bfdaa51761661ff9c825",
          "blockHash": "0x89737ab4dc80b94555f25351b78115d125ee6dba926cf45a2a29bfa8eba6f7ee",
          "blockNumber": "0x50c6d12",
          "blockTimestamp": "0x69c50a47",
          "transactionHash": "0xa773f0c468ca6aed11a2ee28477d6f1008b1ca297ffc2f723054f858299b2a3f",
          "transactionIndex": "0xf1",
          "logIndex": "0xb50",
          "removed": false
        }
      ],
      "logsBloom": "0x00000000040000000000000000000000000000000000000000000000000000000000000000000000000000000000000000008000000000000000000000000800000000000000000000000000000000800000000000000000000100000000000000000000000000000000000000000000000000000000000080000000000000000000000000000000020000000400000000000000000000000000000000000000200000000000000000000000000000000000000000000000000000000000004000000000000000000001000000000000000000400000000000100000000000000000000000000000000000000000000000000000000000000000000000102000",
      "type": "0x0",
      "transactionHash": "0xa773f0c468ca6aed11a2ee28477d6f1008b1ca297ffc2f723054f858299b2a3f",
      "transactionIndex": "0xf1",
      "blockHash": "0x89737ab4dc80b94555f25351b78115d125ee6dba926cf45a2a29bfa8eba6f7ee",
      "blockNumber": "0x50c6d12",
      "gasUsed": "0x2d3da",
      "effectiveGasPrice": "0x1d253e23d7",
      "from": "0xdc328af6c71df52966890a7f007179c25be4ff3b",
      "to": "0xac3e81d87ac916ae4ed981e4ea3f60ce757b222a",
      "contractAddress": null
    },
    {
      "status": "0x1",
      "cumulativeGasUsed": "0x3e9b37f",
      "logs": [
        {
          "address": "0x0000000000000000000000000000000000001010",
          "topics": [
            "0x4dfe1bbbcf077ddc3e01291eea2d5c70c2b422b415d95645b9adcfd678cb1d63",
            "0x0000000000000000000000000000000000000000000000000000000000001010",
            "0x000000000000000000000000dc328af6c71df52966890a7f007179c25be4ff3b",
            "0x0000000000000000000000007ee41d8a25641000661b1ef5e6ae8a00400466b0"
          ],
          "data": "0x0000000000000000000000000000000000000000000000000012fd01c7e3983200000000000000000000000000000000000000000000000269d3d3f99050ca4e00000000000000000000000000000000000000000008bfdbec445d7616cdd84900000000000000000000000000000000000000000000000269c0d6f7c86d321c00000000000000000000000000000000000000000008bfdbec575a77deb1707b",
          "blockHash": "0x56b6a881c805f3890c510c660a625a8b0acfdc7782d946ed314c56a17f56f423",
          "blockNumber": "0x50c6d15",
          "blockTimestamp": "0x69c50a4d",
          "transactionHash": "0x3d867c16fa577b032d3a68432b724abfc95654ea6e3277bbfbfcbd7c25c7e9bf",
          "transactionIndex": "0xf5",
          "logIndex": "0xc8d",
          "removed": false
        }
      ],
      "logsBloom": "0x00000000040000000000000000000000000000000000000000000000000000000000000000000000000000000000000000008000000000000000000000000800000000000000000000000000000000800000000000000000000100000000000000000000000000000000000000000000000000000000000080000000000000000000000000000000020000000400000000000000000000000000000000000000200000000000000000000000000000000000000000000000000000000000004000000000000000000001000000000000000000400000000000100000000000000000000000000000000000000000000000000000000000000000000000102000",
      "type": "0x0",
      "transactionHash": "0x3d867c16fa577b032d3a68432b724abfc95654ea6e3277bbfbfcbd7c25c7e9bf",
      "transactionIndex": "0xf5",
      "blockHash": "0x56b6a881c805f3890c510c660a625a8b0acfdc7782d946ed314c56a17f56f423",
      "blockNumber": "0x50c6d15",
      "gasUsed": "0x33f5e",
      "effectiveGasPrice": "0x1d253e23d7",
      "from": "0xdc328af6c71df52966890a7f007179c25be4ff3b",
      "to": "0xac3e81d87ac916ae4ed981e4ea3f60ce757b222a",
      "contractAddress": null
    },
    {
      "status": "0x1",
      "cumulativeGasUsed": "0x4a79387",
      "logs": [
        {
          "address": "0x0000000000000000000000000000000000001010",
          "topics": [
            "0x4dfe1bbbcf077ddc3e01291eea2d5c70c2b422b415d95645b9adcfd678cb1d63",
            "0x0000000000000000000000000000000000000000000000000000000000001010",
            "0x000000000000000000000000dc328af6c71df52966890a7f007179c25be4ff3b",
            "0x0000000000000000000000007ee41d8a25641000661b1ef5e6ae8a00400466b0"
          ],
          "data": "0x0000000000000000000000000000000000000000000000000012f23fefbca0d200000000000000000000000000000000000000000000000269752d612d28b85c00000000000000000000000000000000000000000008bfdfbfed0d37bc92063500000000000000000000000000000000000000000000000269623b213d6c178a00000000000000000000000000000000000000000008bfdfbfffff77ac4ea707",
          "blockHash": "0xe475a95cf95ada1eb5639b8dfbb07f8b6d673e5ae36fb902e2ead8c30b60bb5f",
          "blockNumber": "0x50c6d1f",
          "blockTimestamp": "0x69c50a61",
          "transactionHash": "0x3b2700f822d7dc644da8ab77364b299db549c7f1a9ef4b7b2e9b15f5dda7e669",
          "transactionIndex": "0x117",
          "logIndex": "0x10e1",
          "removed": false
        }
      ],
      "logsBloom": "0x00000000040000000000000000000000000000000000000000000000000000000000000000000000000000000000000000008000000000000000000000000800000000000000000000000000000000800000000000000000000100000000000000000000000000000000000000000000000000000000000080000000000000000000000000000000020000000400000000000000000000000000000000000000200000000000000000000000000000000000000000000000000000000000004000000000000000000001000000000000000000400000000000100000000000000000000000000000000000000000000000000000000000000000000000102000",
      "type": "0x0",
      "transactionHash": "0x3b2700f822d7dc644da8ab77364b299db549c7f1a9ef4b7b2e9b15f5dda7e669",
      "transactionIndex": "0x117",
      "blockHash": "0xe475a95cf95ada1eb5639b8dfbb07f8b6d673e5ae36fb902e2ead8c30b60bb5f",
      "blockNumber": "0x50c6d1f",
      "gasUsed": "0x33f5e",
      "effectiveGasPrice": "0x1d253e23d7",
      "from": "0xdc328af6c71df52966890a7f007179c25be4ff3b",
      "to": "0xac3e81d87ac916ae4ed981e4ea3f60ce757b222a",
      "contractAddress": null
    },
    {
      "status": "0x1",
      "cumulativeGasUsed": "0x3641792",
      "logs": [
        {
          "address": "0x0000000000000000000000000000000000001010",
          "topics": [
            "0x4dfe1bbbcf077ddc3e01291eea2d5c70c2b422b415d95645b9adcfd678cb1d63",
            "0x0000000000000000000000000000000000000000000000000000000000001010",
            "0x000000000000000000000000dc328af6c71df52966890a7f007179c25be4ff3b",
            "0x0000000000000000000000007ee41d8a25641000661b1ef5e6ae8a00400466b0"
          ],
          "data": "0x0000000000000000000000000000000000000000000000000012fbe775404320000000000000000000000000000000000000000000000002691686c8ca00a66a00000000000000000000000000000000000000000008bfe11663a0e806fd705b00000000000000000000000000000000000000000000000269038ae154c0634a00000000000000000000000000000000000000000008bfe116769ccf7c3db37b",
          "blockHash": "0x6e1adefd9be3272083eecbcdac61cf166abcc0577ffda4416cc0951229bf9b6d",
          "blockNumber": "0x50c6d22",
          "blockTimestamp": "0x69c50a67",
          "transactionHash": "0x92c5e29ed45725d318fc658f7fd544fea9330558d9a04dd38de5dc62a0669c7e",
          "transactionIndex": "0xe0",
          "logIndex": "0x9da",
          "removed": false
        }
      ],
      "logsBloom": "0x00000000040000000000000000000000000000000000000000000000000000000000000000000000000000000000000000008000000000000000000000000800000000000000000000000000000000800000000000000000000100000000000000000000000000000000000000000000000000000000000080000000000000000000000000000000020000000400000000000000000000000000000000000000200000000000000000000000000000000000000000000000000000000000004000000000000000000001000000000000000000400000000000100000000000000000000000000000000000000000000000000000000000000000000000102000",
      "type": "0x0",
      "transactionHash": "0x92c5e29ed45725d318fc658f7fd544fea9330558d9a04dd38de5dc62a0669c7e",
      "transactionIndex": "0xe0",
      "blockHash": "0x6e1adefd9be3272083eecbcdac61cf166abcc0577ffda4416cc0951229bf9b6d",
      "blockNumber": "0x50c6d22",
      "gasUsed": "0x33f5e",
      "effectiveGasPrice": "0x1d253e23d7",
      "from": "0xdc328af6c71df52966890a7f007179c25be4ff3b",
      "to": "0xac3e81d87ac916ae4ed981e4ea3f60ce757b222a",
      "contractAddress": null
    },
    {
      "status": "0x1",
      "cumulativeGasUsed": "0x2df83bc",
      "logs": [
        {
          "address": "0x0000000000000000000000000000000000001010",
          "topics": [
            "0x4dfe1bbbcf077ddc3e01291eea2d5c70c2b422b415d95645b9adcfd678cb1d63",
            "0x0000000000000000000000000000000000000000000000000000000000001010",
            "0x000000000000000000000000dc328af6c71df52966890a7f007179c25be4ff3b",
            "0x0000000000000000000000007ee41d8a25641000661b1ef5e6ae8a00400466b0"
          ],
          "data": "0x00000000000000000000000000000000000000000000000000131266b4aae51e00000000000000000000000000000000000000000000000268b7e03066d8947800000000000000000000000000000000000000000008bfe24dd22885cf0bc77900000000000000000000000000000000000000000000000268a4cdc9b22daf5a00000000000000000000000000000000000000000008bfe24de53aec83b6ac97",
          "blockHash": "0x7fc69fade921498407fa5303a6f4ac97a93538c09d4831fde38d5c98f7b0949a",
          "blockNumber": "0x50c6d25",
          "blockTimestamp": "0x69c50a6d",
          "transactionHash": "0x93ccafc5a25d8e900dad7c02d09c489d5a0e79141597d663212663349024172c",
          "transactionIndex": "0xbf",
          "logIndex": "0x9f1",
          "removed": false
        }
      ],
      "logsBloom": "0x00000000040000000000000000000000000000000000000000000000000000000000000000000000000000000000000000008000000000000000000000000800000000000000000000000000000000800000000000000000000100000000000000000000000000000000000000000000000000000000000080000000000000000000000000000000020000000400000000000000000000000000000000000000200000000000000000000000000000000000000000000000000000000000004000000000000000000001000000000000000000400000000000100000000000000000000000000000000000000000000000000000000000000000000000102000",
      "type": "0x0",
      "transactionHash": "0x93ccafc5a25d8e900dad7c02d09c489d5a0e79141597d663212663349024172c",
      "transactionIndex": "0xbf",
      "blockHash": "0x7fc69fade921498407fa5303a6f4ac97a93538c09d4831fde38d5c98f7b0949a",
      "blockNumber": "0x50c6d25",
      "gasUsed": "0x33f46",
      "effectiveGasPrice": "0x1d253e23d7",
      "from": "0xdc328af6c71df52966890a7f007179c25be4ff3b",
      "to": "0xac3e81d87ac916ae4ed981e4ea3f60ce757b222a",
      "contractAddress": null
    },
    {
      "status": "0x1",
      "cumulativeGasUsed": "0x387cec8",
      "logs": [
        {
          "address": "0x0000000000000000000000000000000000001010",
          "topics": [
            "0x4dfe1bbbcf077ddc3e01291eea2d5c70c2b422b415d95645b9adcfd678cb1d63",
            "0x0000000000000000000000000000000000000000000000000000000000001010",
            "0x000000000000000000000000dc328af6c71df52966890a7f007179c25be4ff3b",
            "0x0000000000000000000000007ee41d8a25641000661b1ef5e6ae8a00400466b0"
          ],
          "data": "0x00000000000000000000000000000000000000000000000000136ae097b7887e00000000000000000000000000000000000000000000000268593c538183deae00000000000000000000000000000000000000000008bfe4de0df10ba65a1b450000000000000000000000000000000000000000000000026845d172e9cc563000000000000000000000000000000000000000000008bfe4de215bec3e11a3c3",
          "blockHash": "0xc0cd7d6da1b9ae9509a2760013ba70b5520354bd50b9c322d91bc6c0368054c1",
          "blockNumber": "0x50c6d2b",
          "blockTimestamp": "0x69c50a79",
          "transactionHash": "0x39bc3e84d429f7911d98e5ff1343869c974965d80a34804788b63830a8c0fafb",
          "transactionIndex": "0xbf",
          "logIndex": "0xb53",
          "removed": false
        }
      ],
      "logsBloom": "0x00000000040000000000000000000000000000000000000000000000000000000000000000000000000000000000000000008000000000000000000000000800000000000000000000000000000000800000000000000000000100000000000000000000000000000000000000000000000000000000000080000000000000000000000000000000020000000400000000000000000000000000000000000000200000000000000000000000000000000000000000000000000000000000004000000000000000000001000000000000000000400000000000100000000000000000000000000000000000000000000000000000000000000000000000102000",
      "type": "0x0",
      "transactionHash": "0x39bc3e84d429f7911d98e5ff1343869c974965d80a34804788b63830a8c0fafb",
      "transactionIndex": "0xbf",
      "blockHash": "0xc0cd7d6da1b9ae9509a2760013ba70b5520354bd50b9c322d91bc6c0368054c1",
      "blockNumber": "0x50c6d2b",
      "gasUsed": "0x33f5e",
      "effectiveGasPrice": "0x1d253e23d7",
      "from": "0xdc328af6c71df52966890a7f007179c25be4ff3b",
      "to": "0xac3e81d87ac916ae4ed981e4ea3f60ce757b222a",
      "contractAddress": null
    },
    {
      "status": "0x1",
      "cumulativeGasUsed": "0x26f624a",
      "logs": [
        {
          "address": "0x0000000000000000000000000000000000001010",
          "topics": [
            "0x4dfe1bbbcf077ddc3e01291eea2d5c70c2b422b415d95645b9adcfd678cb1d63",
            "0x0000000000000000000000000000000000000000000000000000000000001010",
            "0x000000000000000000000000dc328af6c71df52966890a7f007179c25be4ff3b",
            "0x0000000000000000000000007ee41d8a25641000661b1ef5e6ae8a00400466b0"
          ],
          "data": "0x00000000000000000000000000000000000000000000000000137d6d5e67a1ea00000000000000000000000000000000000000000000000267fa95bb1e5bccbc00000000000000000000000000000000000000000008bfe56d444822917a840800000000000000000000000000000000000000000000000267e7184dbff42ad200000000000000000000000000000000000000000008bfe56d57c58fefe225f2",
          "blockHash": "0x4a0a971a4cf4902dfa86f569414408e2c29869f3a8f230509e89481d6b63cbb2",
          "blockNumber": "0x50c6d2d",
          "blockTimestamp": "0x69c50a7d",
          "transactionHash": "0x09e4f2149be8809df4b772cb02e6f46edbca5a1e5139c6dfe6f8bce23a2c1bfd",
          "transactionIndex": "0x9f",
          "logIndex": "0x78a",
          "removed": false
        }
      ],
      "logsBloom": "0x00000000040000000000000000000000000000000000000000000000000000000000000000000000000000000000000000008000000000000000000000000800000000000000000000000000000000800000000000000000000100000000000000000000000000000000000000000000000000000000000080000000000000000000000000000000020000000400000000000000000000000000000000000000200000000000000000000000000000000000000000000000000000000000004000000000000000000001000000000000000000400000000000100000000000000000000000000000000000000000000000000000000000000000000000102000",
      "type": "0x0",
      "transactionHash": "0x09e4f2149be8809df4b772cb02e6f46edbca5a1e5139c6dfe6f8bce23a2c1bfd",
      "transactionIndex": "0x9f",
      "blockHash": "0x4a0a971a4cf4902dfa86f569414408e2c29869f3a8f230509e89481d6b63cbb2",
      "blockNumber": "0x50c6d2d",
      "gasUsed": "0x33f5e",
      "effectiveGasPrice": "0x1d253e23d7",
      "from": "0xdc328af6c71df52966890a7f007179c25be4ff3b",
      "to": "0xac3e81d87ac916ae4ed981e4ea3f60ce757b222a",
      "contractAddress": null
    },
    {
      "status": "0x1",
      "cumulativeGasUsed": "0x35fb071",
      "logs": [
        {
          "address": "0x0000000000000000000000000000000000001010",
          "topics": [
            "0x4dfe1bbbcf077ddc3e01291eea2d5c70c2b422b415d95645b9adcfd678cb1d63",
            "0x0000000000000000000000000000000000000000000000000000000000001010",
            "0x000000000000000000000000dc328af6c71df52966890a7f007179c25be4ff3b",
            "0x0000000000000000000000007ee41d8a25641000661b1ef5e6ae8a00400466b0"
          ],
          "data": "0x0000000000000000000000000000000000000000000000000012e9dc1ba55bd8000000000000000000000000000000000000000000000002679bef22bb33baca00000000000000000000000000000000000000000008bfe7322bf87816fe7677000000000000000000000000000000000000000000000002678905469f8e5ef200000000000000000000000000000000000000000008bfe7323ee25432a3d24f",
          "blockHash": "0x57c3f5fc70ee52d910e8ae898341708e189661ccf526f3d3eef144e2368071a6",
          "blockNumber": "0x50c6d32",
          "blockTimestamp": "0x69c50a87",
          "transactionHash": "0xc3a9e7ff341bd309bd3352ba8dc172188e31b97b1b9b59d8e416e04e29ee1ba5",
          "transactionIndex": "0xd3",
          "logIndex": "0xa40",
          "removed": false
        }
      ],
      "logsBloom": "0x00000000040000000000000000000000000000000000000000000000000000000000000000000000000000000000000000008000000000000000000000000800000000000000000000000000000000800000000000000000000100000000000000000000000000000000000000000000000000000000000080000000000000000000000000000000020000000400000000000000000000000000000000000000200000000000000000000000000000000000000000000000000000000000004000000000000000000001000000000000000000400000000000100000000000000000000000000000000000000000000000000000000000000000000000102000",
      "type": "0x0",
      "transactionHash": "0xc3a9e7ff341bd309bd3352ba8dc172188e31b97b1b9b59d8e416e04e29ee1ba5",
      "transactionIndex": "0xd3",
      "blockHash": "0x57c3f5fc70ee52d910e8ae898341708e189661ccf526f3d3eef144e2368071a6",
      "blockNumber": "0x50c6d32",
      "gasUsed": "0x33f5e",
      "effectiveGasPrice": "0x1d253e23d7",
      "from": "0xdc328af6c71df52966890a7f007179c25be4ff3b",
      "to": "0xac3e81d87ac916ae4ed981e4ea3f60ce757b222a",
      "contractAddress": null
    },
    {
      "status": "0x1",
      "cumulativeGasUsed": "0x30c20d6",
      "logs": [
        {
          "address": "0x0000000000000000000000000000000000001010",
          "topics": [
            "0x4dfe1bbbcf077ddc3e01291eea2d5c70c2b422b415d95645b9adcfd678cb1d63",
            "0x0000000000000000000000000000000000000000000000000000000000001010",
            "0x000000000000000000000000dc328af6c71df52966890a7f007179c25be4ff3b",
            "0x0000000000000000000000007ee41d8a25641000661b1ef5e6ae8a00400466b0"
          ],
          "data": "0x00000000000000000000000000000000000000000000000000132e109551988e000000000000000000000000000000000000000000000002673d488a580ba8d800000000000000000000000000000000000000000008bfe82b0e8ae5ed55e453000000000000000000000000000000000000000000000002672a1a79c2ba104a00000000000000000000000000000000000000000008bfe82b21b8f682a77ce1",
          "blockHash": "0x83589090b803c94a8c3ad2e0b67bc1aa091b273fa8033e4c5814ee84c828571c",
          "blockNumber": "0x50c6d35",
          "blockTimestamp": "0x69c50a8d",
          "transactionHash": "0xf3bccd98caf829dec6a455004308f5c357130aada7e39b88c42d9bddfdc103b2",
          "transactionIndex": "0xca",
          "logIndex": "0x961",
          "removed": false
        }
      ],
      "logsBloom": "0x00000000040000000000000000000000000000000000000000000000000000000000000000000000000000000000000000008000000000000000000000000800000000000000000000000000000000800000000000000000000100000000000000000000000000000000000000000000000000000000000080000000000000000000000000000000020000000400000000000000000000000000000000000000200000000000000000000000000000000000000000000000000000000000004000000000000000000001000000000000000000400000000000100000000000000000000000000000000000000000000000000000000000000000000000102000",
      "type": "0x0",
      "transactionHash": "0xf3bccd98caf829dec6a455004308f5c357130aada7e39b88c42d9bddfdc103b2",
      "transactionIndex": "0xca",
      "blockHash": "0x83589090b803c94a8c3ad2e0b67bc1aa091b273fa8033e4c5814ee84c828571c",
      "blockNumber": "0x50c6d35",
      "gasUsed": "0x33f5e",
      "effectiveGasPrice": "0x1d253e23d7",
      "from": "0xdc328af6c71df52966890a7f007179c25be4ff3b",
      "to": "0xac3e81d87ac916ae4ed981e4ea3f60ce757b222a",
      "contractAddress": null
    },
    {
      "status": "0x1",
      "cumulativeGasUsed": "0x3d51108",
      "logs": [
        {
          "address": "0x0000000000000000000000000000000000001010",
          "topics": [
            "0x4dfe1bbbcf077ddc3e01291eea2d5c70c2b422b415d95645b9adcfd678cb1d63",
            "0x0000000000000000000000000000000000000000000000000000000000001010",
            "0x000000000000000000000000dc328af6c71df52966890a7f007179c25be4ff3b",
            "0x0000000000000000000000007ee41d8a25641000661b1ef5e6ae8a00400466b0"
          ],
          "data": "0x0000000000000000000000000000000000000000000000000013261a4fd33c6a00000000000000000000000000000000000000000000000266dea1f1f4e396e600000000000000000000000000000000000000000008bfe99bb89d9f05578f7d00000000000000000000000000000000000000000000000266cb7bd7a5105a7c00000000000000000000000000000000000000000008bfe99bcbc3b9552acbe7",
          "blockHash": "0xfb0e99819c3bdcb41e74a8ca474b9bc5b502bc84c8de15913e5f3c386feab54c",
          "blockNumber": "0x50c6d38",
          "blockTimestamp": "0x69c50a93",
          "transactionHash": "0xdbc936ac0b0e9bddb390a3518b84557df78ec312ad3964f3f8bee33dcc929fa1",
          "transactionIndex": "0xdc",
          "logIndex": "0xdaf",
          "removed": false
        }
      ],
      "logsBloom": "0x00000000040000000000000000000000000000000000000000000000000000000000000000000000000000000000000000008000000000000000000000000800000000000000000000000000000000800000000000000000000100000000000000000000000000000000000000000000000000000000000080000000000000000000000000000000020000000400000000000000000000000000000000000000200000000000000000000000000000000000000000000000000000000000004000000000000000000001000000000000000000400000000000100000000000000000000000000000000000000000000000000000000000000000000000102000",
      "type": "0x0",
      "transactionHash": "0xdbc936ac0b0e9bddb390a3518b84557df78ec312ad3964f3f8bee33dcc929fa1",
      "transactionIndex": "0xdc",
      "blockHash": "0xfb0e99819c3bdcb41e74a8ca474b9bc5b502bc84c8de15913e5f3c386feab54c",
      "blockNumber": "0x50c6d38",
      "gasUsed": "0x33f52",
      "effectiveGasPrice": "0x1d253e23d7",
      "from": "0xdc328af6c71df52966890a7f007179c25be4ff3b",
      "to": "0xac3e81d87ac916ae4ed981e4ea3f60ce757b222a",
      "contractAddress": null
    },
    {
      "status": "0x1",
      "cumulativeGasUsed": "0x35398e5",
      "logs": [
        {
          "address": "0x0000000000000000000000000000000000001010",
          "topics": [
            "0x4dfe1bbbcf077ddc3e01291eea2d5c70c2b422b415d95645b9adcfd678cb1d63",
            "0x0000000000000000000000000000000000000000000000000000000000001010",
            "0x000000000000000000000000dc328af6c71df52966890a7f007179c25be4ff3b",
            "0x0000000000000000000000007ee41d8a25641000661b1ef5e6ae8a00400466b0"
          ],
          "data": "0x00000000000000000000000000000000000000000000000000131185baf7581e000000000000000000000000000000000000000000000002667ffcb750a5330800000000000000000000000000000000000000000008bfeb5ef1c6d2212986ab000000000000000000000000000000000000000000000002666ceb3195addaea00000000000000000000000000000000000000000008bfeb5f04d857dc20dec9",
          "blockHash": "0xccb3e23d0a6791d8ab9092396806928dca03c440e9eca798b7763878c6291e08",
          "blockNumber": "0x50c6d3d",
          "blockTimestamp": "0x69c50a9d",
          "transactionHash": "0x28d615637bf768aeef1ade16b16799a453d44bfe655ee839238ebe38a1404ece",
          "transactionIndex": "0xdc",
          "logIndex": "0xb8f",
          "removed": false
        }
      ],
      "logsBloom": "0x00000000040000000000000000000000000000000000000000000000000000000000000000000000000000000000000000008000000000000000000000000800000000000000000000000000000000800000000000000000000100000000000000000000000000000000000000000000000000000000000080000000000000000000000000000000020000000400000000000000000000000000000000000000200000000000000000000000000000000000000000000000000000000000004000000000000000000001000000000000000000400000000000100000000000000000000000000000000000000000000000000000000000000000000000102000",
      "type": "0x0",
      "transactionHash": "0x28d615637bf768aeef1ade16b16799a453d44bfe655ee839238ebe38a1404ece",
      "transactionIndex": "0xdc",
      "blockHash": "0xccb3e23d0a6791d8ab9092396806928dca03c440e9eca798b7763878c6291e08",
      "blockNumber": "0x50c6d3d",
      "gasUsed": "0x33f5e",
      "effectiveGasPrice": "0x1d253e23d7",
      "from": "0xdc328af6c71df52966890a7f007179c25be4ff3b",
      "to": "0xac3e81d87ac916ae4ed981e4ea3f60ce757b222a",
      "contractAddress": null
    },
    {
      "status": "0x1",
      "cumulativeGasUsed": "0x38dc3db",
      "logs": [
        {
          "address": "0x0000000000000000000000000000000000001010",
          "topics": [
            "0x4dfe1bbbcf077ddc3e01291eea2d5c70c2b422b415d95645b9adcfd678cb1d63",
            "0x0000000000000000000000000000000000000000000000000000000000001010",
            "0x000000000000000000000000dc328af6c71df52966890a7f007179c25be4ff3b",
            "0x0000000000000000000000007ee41d8a25641000661b1ef5e6ae8a00400466b0"
          ],
          "data": "0x00000000000000000000000000000000000000000000000000132181dc29a85a0000000000000000000000000000000000000000000000026621561eed7d211600000000000000000000000000000000000000000008bfec2218520b40444120000000000000000000000000000000000000000000000002660e349d115378bc00000000000000000000000000000000000000000008bfec222b738d1c6de97a",
          "blockHash": "0x693431dcb9c4c0bc891670651ffdee439d263d3258d326befa3e8e04c478b9c9",
          "blockNumber": "0x50c6d3f",
          "blockTimestamp": "0x69c50aa1",
          "transactionHash": "0xfe67b0d36ad9fb7f5962e6becee1ab3665b13c934f6f2eb335b4dcbc8b4aea3a",
          "transactionIndex": "0xd6",
          "logIndex": "0xcf4",
          "removed": false
        }
      ],
      "logsBloom": "0x00000000040000000000000000000000000000000000000000000000000000000000000000000000000000000000000000008000000000000000000000000800000000000000000000000000000000800000000000000000000100000000000000000000000000000000000000000000000000000000000080000000000000000000000000000000020000000400000000000000000000000000000000000000200000000000000000000000000000000000000000000000000000000000004000000000000000000001000000000000000000400000000000100000000000000000000000000000000000000000000000000000000000000000000000102000",
      "type": "0x0",
      "transactionHash": "0xfe67b0d36ad9fb7f5962e6becee1ab3665b13c934f6f2eb335b4dcbc8b4aea3a",
      "transactionIndex": "0xd6",
      "blockHash": "0x693431dcb9c4c0bc891670651ffdee439d263d3258d326befa3e8e04c478b9c9",
      "blockNumber": "0x50c6d3f",
      "gasUsed": "0x33f5e",
      "effectiveGasPrice": "0x1d253e23d7",
      "from": "0xdc328af6c71df52966890a7f007179c25be4ff3b",
      "to": "0xac3e81d87ac916ae4ed981e4ea3f60ce757b222a",
      "contractAddress": null
    }
  ],
  "libraries": [
    "src/GameLib.sol:GameLib:0xaa844DB251863F4029d4d6398866439Ccc5dec06"
  ],
  "pending": [],
  "returns": {},
  "timestamp": 1774520994763,
  "chain": 137,
  "commit": "2ab215d"
}