{
  "transactions": [
    {
      "hash": "0x9f83dfffcb2c0cf1d31c7118ccdcd4b3e7df86c68202f5d93079590efb6b2249",
      "transactionType": "CREATE",
      "contractName": "ScriptHub",
      "contractAddress": "0x400ca0a825af9a54b7a116217c53b8e8ecf6334f",
      "function": null,
      "arguments": null,
      "transaction": {
        "from": "0xdc328af6c71df52966890a7f007179c25be4ff3b",
        "gas": "0x1c2338",
        "value": "0x0",
        "input": "0x60806040523461039057604080519081016001600160401b0381118282101761029d576040908152601182527010db185dc8105c995b984814d8dc9a5c1d607a1b602083015280519081016001600160401b0381118282101761029d57604052600681526514d0d492541560d21b602082015281516001600160401b03811161029d57600054600181811c91168015610386575b602082101461027d57601f8111610322575b50602092601f82116001146102be57928192936000926102b3575b50508160011b916000199060031b1c1916176000555b80516001600160401b03811161029d57600154600181811c91168015610293575b602082101461027d57601f8111610218575b50602091601f82116001146101b4579181926000926101a9575b50508160011b916000199060031b1c1916176001555b33156101935760068054336001600160a01b03198216811790925560405191906001600160a01b03167f8be0079c531659141344cd1fd0a4f28419497f9722a3daafe3b4186f6b6457e0600080a361172f90816103968239f35b631e4fbdf760e01b600052600060045260246000fd5b015190503880610123565b601f198216926001600052806000209160005b858110610200575083600195106101e7575b505050811b01600155610139565b015160001960f88460031b161c191690553880806101d9565b919260206001819286850151815501940192016101c7565b60016000527fb10e2d527612073b26eecdfd717e6a320cf44b4afac2b0732d9fcbe2b7fa0cf6601f830160051c81019160208410610273575b601f0160051c01905b8181106102675750610109565b6000815560010161025a565b9091508190610251565b634e487b7160e01b600052602260045260246000fd5b90607f16906100f7565b634e487b7160e01b600052604160045260246000fd5b0151905038806100c0565b601f1982169360008052806000209160005b86811061030a57508360019596106102f1575b505050811b016000556100d6565b015160001960f88460031b161c191690553880806102e3565b919260206001819286850151815501940192016102d0565b600080527f290decd9548b62a8d60345a988386fc84ba6bc95484008f6362f93160ef3e563601f830160051c8101916020841061037c575b601f0160051c01905b81811061037057506100a5565b60008155600101610363565b909150819061035a565b90607f1690610093565b600080fdfe608080604052600436101561001357600080fd5b600090813560e01c90816301ffc9a7146110485750806306fdde0314610fc0578063081812fc14610f83578063095ea7b314610e9b578063150b7a0214610e4457806318160ddd14610a0157806323b872dd14610e2c5780633533fedf14610e0e57806342842e0e14610de45780634f586b8a14610c735780636352211e14610c425780636c307bf314610abd57806370a0823114610a6a578063715018a614610a1f57806375794a3c14610a015780638da5cb5b146109d857806395d89b41146109095780639bb3a3451461071c578063a22cb4651461067e578063a2c8bc981461056a578063a959100414610534578063b88d4fde146104a4578063c87b56dd14610448578063cfa2023114610213578063e985e9c5146101b95763f2fde38b1461013f57600080fd5b346101b65760203660031901126101b6576101586110f6565b6101606115bf565b6001600160a01b031680156101a257600680546001600160a01b0319811683179091556001600160a01b03166000805160206116ba833981519152600080a380f35b631e4fbdf760e01b82526004829052602482fd5b80fd5b50346101b65760403660031901126101b65760406101d56110f6565b916101de611111565b9260018060a01b031681526005602052209060018060a01b0316600052602052602060ff604060002054166040519015158152f35b50346101b65760203660031901126101b6576004356001600160401b03811161044457366023820112156104445760048101356001600160401b038111610440573660248260051b840101116104405761026b6115bf565b600a546104055790368190036042190190835b838110156103fb576009546102928161141c565b600955600060248360051b85010135858112156103f75784016024810135906001600160401b0382116103f35781360360448201136103f35783895260076020526040892092506102e38354611226565b601f81116103ae575b508890601f831160011461033b579180610327949260019796948c9261032d575b5050600019600383901b1c191690861b1790555b306115e8565b0161027e565b01604401359050388061030d565b838a5260208a2091601f1984168b5b81811061039357509260019796949192889383610327989610610375575b505050811b019055610321565b604491010135600019600384901b60f8161c19169055388080610368565b6044848401013585556001909401936020928301920161034a565b838a5260208a20601f840160051c810191602085106103e9575b601f0160051c01905b8181106103de57506102ec565b8a81556001016103d1565b90915081906103c8565b8880fd5b8780fd5b84600954600a5580f35b60405162461bcd60e51b8152602060048201526013602482015272105b1c9958591e481a5b9a5d1a585b1a5e9959606a1b6044820152606490fd5b8280fd5b5080fd5b50346101b65760203660031901126101b657610465600435611588565b50806040516104756020826111d2565b52506104a06040516104886020826111d2565b600081526040519182916020835260208301906110b5565b0390f35b50346101b65760803660031901126101b6576104be6110f6565b6104c6611111565b90606435906001600160401b038211610530573660238301121561053057816004013592846104f48561120b565b9361050260405195866111d2565b8585523660248783010111610444578561052d96602460209301838801378501015260443591611441565b80f35b8380fd5b50346101b65760203660031901126101b6576040602091600435815260088352205460a01b6040519060018060a01b0319168152f35b50346101b65760203660031901126101b65760043560095481101561064d5781526007602052604081209060405191818154916105a683611226565b808652926001811690811561062357506001146105e2575b6104a0856105ce818703826111d2565b6040519182916020835260208301906110b5565b815260208120939250905b808210610609575090915081016020016105ce826104a06105be565b9192600181602092548385880101520191019092916105ed565b8695506104a0969350602092506105ce94915060ff191682840152151560051b82010192936105be565b60405162461bcd60e51b8152602060048201526009602482015268139bdd08195e1a5cdd60ba1b6044820152606490fd5b50346101b65760403660031901126101b6576106986110f6565b60243590811515809203610440576001600160a01b0316908115610708573383526005602052604083208284526020526040832060ff1981541660ff83161790556040519081527f17307eab39ab6107e8899845ad3d59bd9653f200f220920489ca2b5937696c3160203392a380f35b630b61174360e31b83526004829052602483fd5b50346101b65760403660031901126101b657600435906024356001600160401b03811161044457610751903690600401611127565b909261075c81611588565b336001600160a01b03909116036108d857600a5481106108a2576107818215156113e1565b8252600760205260408220906001600160401b03811161088e576107a58254611226565b601f8111610849575b5082601f82116001146107e8578394829394926107dd575b50508160011b916000199060031b1c191617905580f35b0135905038806107c6565b601f198216948385526020852091855b878110610831575083600195969710610817575b505050811b01905580f35b0135600019600384901b60f8161c1916905538808061080c565b909260206001819286860135815501940191016107f8565b82845260208420601f830160051c81019160208410610884575b601f0160051c01905b81811061087957506107ae565b84815560010161086c565b9091508190610863565b634e487b7160e01b83526041600452602483fd5b60405162461bcd60e51b815260206004820152600e60248201526d111959985d5b1d081cd8dc9a5c1d60921b6044820152606490fd5b60405162461bcd60e51b81526020600482015260096024820152682737ba1037bbb732b960b91b6044820152606490fd5b50346101b657806003193601126101b65760405190806001549061092c82611226565b80855291600181169081156109b15750600114610954575b6104a0846105ce818603826111d2565b600181527fb10e2d527612073b26eecdfd717e6a320cf44b4afac2b0732d9fcbe2b7fa0cf6939250905b808210610997575090915081016020016105ce82610944565b91926001816020925483858801015201910190929161097e565b60ff191660208087019190915292151560051b850190920192506105ce9150839050610944565b50346101b657806003193601126101b6576006546040516001600160a01b039091168152602090f35b50346101b657806003193601126101b6576020600954604051908152f35b50346101b657806003193601126101b657610a386115bf565b600680546001600160a01b0319811690915581906001600160a01b03166000805160206116ba8339815191528280a380f35b50346101b65760203660031901126101b6576001600160a01b03610a8c6110f6565b168015610aa9578160409160209352600383522054604051908152f35b6322718ad960e21b82526004829052602482fd5b50346101b657610acc3661118e565b919092610ada8315156113e1565b60095492610ae78461141c565b600955838252600760205260408220906001600160401b03811161088e57610b0f8254611226565b601f8111610bfd575b50806020968490601f8311600114610b99578592610b8e575b50508160011b916000199060031b1c19161790555b6001600160a01b03198216610b6a575b5050610b6281336115e8565b604051908152f35b80836040925260088552209060a01c60018060601b03198254161790553880610b56565b013590503880610b31565b848652888620925090601f198416865b818110610be65750908460019594939210610bcc575b505050811b019055610b46565b0135600019600384901b60f8161c19169055388080610bbf565b91938a600181928787013581550195019201610ba9565b82845260208420601f830160051c81019160208410610c38575b601f0160051c01905b818110610c2d5750610b18565b848155600101610c20565b9091508190610c17565b50346101b65760203660031901126101b6576020610c61600435611588565b6040516001600160a01b039091168152f35b50346101b657610c823661118e565b919092610c8d6115bf565b610c988315156113e1565b60095492610ca58461141c565b600955838252600760205260408220906001600160401b03811161088e57610ccd8254611226565b601f8111610d9f575b506020958390601f8311600114610d3957604094939291849183610d2e575b50508160011b916000199060031b1c19161790555b83815260088552209060a01c60018060601b0319825416179055610b6281306115e8565b013590503880610cf5565b83855287852091601f198416865b818110610d88575091600193918560409897969410610d6e575b505050811b019055610d0a565b0135600019600384901b60f8161c19169055388080610d61565b91938a600181928787013581550195019201610d47565b82845260208420601f830160051c81019160208410610dda575b601f0160051c01905b818110610dcf5750610cd6565b848155600101610dc2565b9091508190610db9565b50346101b65761052d610df636611154565b9060405192610e066020856111d2565b858452611441565b50346101b657806003193601126101b6576020600a54604051908152f35b50346101b65761052d610e3e36611154565b91611260565b50346101b65760803660031901126101b657610e5e6110f6565b50610e67611111565b506064356001600160401b03811161044457610e87903690600401611127565b5050604051630a85bd0160e11b8152602090f35b50346101b65760403660031901126101b657610eb56110f6565b602435610ec181611588565b33151580610f70575b80610f45575b610f325781906001600160a01b0384811691167f8c5be1e5ebec7d5bd14f71427d1e84f3dd0314c0f7b2291e5b200ac8c7c3b9258680a4825260046020526040822080546001600160a01b0319166001600160a01b0390921691909117905580f35b63a9fbf51f60e01b845233600452602484fd5b506001600160a01b038116845260056020908152604080862033875290915284205460ff1615610ed0565b506001600160a01b038116331415610eca565b50346101b65760203660031901126101b657602090600435610fa481611588565b50815260048252604060018060a01b0391205416604051908152f35b50346101b657806003193601126101b6576040519080805490610fe282611226565b80855291600181169081156109b15750600114611009576104a0846105ce818603826111d2565b80805260208120939250905b80821061102e575090915081016020016105ce82610944565b919260018160209254838588010152019101909291611015565b9050346104445760203660031901126104445760043563ffffffff60e01b811680910361044057602092506380ac58cd60e01b81149081156110a4575b8115611093575b5015158152f35b6301ffc9a760e01b1490503861108c565b635b5e139f60e01b81149150611085565b919082519283825260005b8481106110e1575050826000602080949584010152601f8019910116010190565b806020809284010151828286010152016110c0565b600435906001600160a01b038216820361110c57565b600080fd5b602435906001600160a01b038216820361110c57565b9181601f8401121561110c578235916001600160401b03831161110c576020838186019501011161110c57565b606090600319011261110c576004356001600160a01b038116810361110c57906024356001600160a01b038116810361110c579060443590565b90604060031983011261110c576004356001600160a01b03198116810361110c5791602435906001600160401b03821161110c576111ce91600401611127565b9091565b601f909101601f19168101906001600160401b038211908210176111f557604052565b634e487b7160e01b600052604160045260246000fd5b6001600160401b0381116111f557601f01601f191660200190565b90600182811c92168015611256575b602083101461124057565b634e487b7160e01b600052602260045260246000fd5b91607f1691611235565b6001600160a01b03909116919082156113cb576000828152600260205260408120546001600160a01b0316938391859033151580611333575b506000805160206116da8339815191529082611311575b838152600360209081526040808320805460010190558683526002909152812080546001600160a01b0319168517905580a46001600160a01b03168083036112f757505050565b6364283d7b60e01b60005260045260245260445260646000fd5b61131a8561169b565b82815260036020526040812080546000190190556112b0565b91509192508061137c575b1561134d579084849238611299565b83908561136657602491637e27328960e01b8252600452fd5b60449163177e802f60e01b825233600452602452fd5b5033851480156113aa575b8061133e5750838152600460205260408120546001600160a01b0316331461133e565b5084815260056020908152604080832033845290915281205460ff16611387565b633250574960e11b600052600060045260246000fd5b156113e857565b60405162461bcd60e51b815260206004820152600c60248201526b115b5c1d1e481cd8dc9a5c1d60a21b6044820152606490fd5b600019811461142b5760010190565b634e487b7160e01b600052601160045260246000fd5b929161144e818386611260565b813b61145b575b50505050565b604051630a85bd0160e11b81523360048201526001600160a01b03948516602482015260448101919091526080606482015292169190602090829081906114a69060848301906110b5565b03816000865af18091600091611545575b509061151057503d15611509573d6114ce8161120b565b906114dc60405192836111d2565b81523d6000602083013e5b805190816115045782633250574960e11b60005260045260246000fd5b602001fd5b60606114e7565b6001600160e01b03191663757a42ff60e11b01611531575038808080611455565b633250574960e11b60005260045260246000fd5b6020813d602011611580575b8161155e602093836111d2565b810103126104445751906001600160e01b0319821682036101b65750386114b7565b3d9150611551565b6000818152600260205260409020546001600160a01b03169081156115ab575090565b637e27328960e01b60005260045260246000fd5b6006546001600160a01b031633036115d357565b63118cdaa760e01b6000523360045260246000fd5b6001600160a01b031680156113cb57600091808352600260205260018060a01b0360408420541691826000805160206116da8339815191528115159586611679575b838152600360209081526040808320805460010190558683526002909152812080546001600160a01b0319168517905580a45061166357565b6339e3563760e11b600052600060045260246000fd5b6116828561169b565b828152600360205260408120805460001901905561162a565b600090815260046020526040902080546001600160a01b031916905556fe8be0079c531659141344cd1fd0a4f28419497f9722a3daafe3b4186f6b6457e0ddf252ad1be2c89b69c2b068fc378daa952ba7f163c4a11628f55a4df523b3efa264697066735822122003a1bf4ee4254fe98cc68dfbd93d96110327d878b678c50699f2281a70bc176064736f6c634300081b0033",
        "nonce": "0x34",
        "chainId": "0x89"
      },
      "additionalContracts": [],
      "isFixedGasLimit": false
    },
    {
      "hash": "0xd12fa59c71ff97c65a85202a356f8be53d1c65f162f34450694f02b84880390b",
      "transactionType": "CREATE",
      "contractName": "LobsterHub",
      "contractAddress": "0xdbab181421de02a422d1d2e18874f18255aaff11",
      "function": null,
      "arguments": null,
      "transaction": {
        "from": "0xdc328af6c71df52966890a7f007179c25be4ff3b",
        "gas": "0x25c805",
        "value": "0x0",
        "input": "0x60806040523461046c576100136040610490565b601281527121b630bb9020b932b730902637b139ba32b960711b602082015261003c6040610490565b60078152662627a129aa22a960c91b602082015281516001600160401b03811161038f57600054600181811c91168015610462575b602082101461036f57601f8111610414575b50602092601f82116001146103b057928192936000926103a5575b50508160011b916000199060031b1c1916176000555b80516001600160401b03811161038f57600154600181811c91168015610385575b602082101461036f57601f8111610315575b50602091601f82116001146102b1579181926000926102a6575b50508160011b916000199060031b1c1916176001555b33156102905760068054336001600160a01b0319821681179092556001600160a01b03167f8be0079c531659141344cd1fd0a4f28419497f9722a3daafe3b4186f6b6457e0600080a3610168610471565b600a815260016020820152600160408201526000606082015260036080820152600160a082015260009060005b6006811061027157826007556101a9610471565b601e8152600a6020820152600360408201526005606082015260036080820152600960a082015260009060005b6006811061025257826008556101ea610471565b600181526001602082015260036040820152600160608201526000196080820152600160a082015260009060005b600681106102335782600955604051611e9e90816104e18239f35b9091602061024960019284865160000b916104cc565b93019101610218565b909160206102686001928460ff875116916104cc565b930191016101d6565b909160206102876001928460ff875116916104cc565b93019101610195565b631e4fbdf760e01b600052600060045260246000fd5b015190503880610101565b601f198216926001600052806000209160005b8581106102fd575083600195106102e4575b505050811b01600155610117565b015160001960f88460031b161c191690553880806102d6565b919260206001819286850151815501940192016102c4565b600160005261035f907fb10e2d527612073b26eecdfd717e6a320cf44b4afac2b0732d9fcbe2b7fa0cf6601f840160051c81019160208510610365575b601f0160051c01906104b5565b386100e7565b9091508190610352565b634e487b7160e01b600052602260045260246000fd5b90607f16906100d5565b634e487b7160e01b600052604160045260246000fd5b01519050388061009e565b601f1982169360008052806000209160005b8681106103fc57508360019596106103e3575b505050811b016000556100b4565b015160001960f88460031b161c191690553880806103d5565b919260206001819286850151815501940192016103c2565b6000805261045c907f290decd9548b62a8d60345a988386fc84ba6bc95484008f6362f93160ef3e563601f840160051c8101916020851061036557601f0160051c01906104b5565b38610083565b90607f1690610071565b600080fd5b6040519060c082016001600160401b0381118382101761038f57604052565b6040519190601f01601f191682016001600160401b0381118382101761038f57604052565b8181106104c0575050565b600081556001016104b5565b9060ff809160031b9316831b921b1916179056fe608080604052600436101561001357600080fd5b600090813560e01c90816301ffc9a7146114115750806306fdde0314611373578063081812fc14611336578063095ea7b31461124e578063150b7a02146111de57806318160ddd14610fec5780631ced1de5146111a757806323b872dd1461118f57806342842e0e146111655780634fd00c431461113c5780636352211e1461110b578063668c5c1a146110c65780636dfd8072146110a857806370a0823114611055578063715018a61461100a57806375794a3c14610fec5780638da5cb5b14610fc357806395d89b4114610eb6578063a1b1037314610e2a578063a22cb46514610d88578063b82e563114610bd2578063b88d4fde14610b42578063bb3b63ed14610b0c578063c112dcdc14610ae2578063c5c22e3e14610aab578063c87b56dd1461066d578063e88851b0146102b6578063e985e9c51461025c578063f2fde38b146101e5578063f5bcb562146101bb5763f6c64dc31461017657600080fd5b346101b85760203660031901126101b857604060209160043561019c600d5482106115cc565b8152600c8352205460a01b6040519060018060a01b0319168152f35b80fd5b50346101b85760203660031901126101b85760406020916004358152600b83522054604051908152f35b50346101b85760203660031901126101b8576101ff6114c6565b610207611998565b6001600160a01b0316801561024857600680546001600160a01b0319811683179091556001600160a01b0316600080516020611e298339815191528380a380f35b631e4fbdf760e01b82526004829052602482fd5b50346101b85760403660031901126101b85760406102786114c6565b916102816114e1565b9260018060a01b031681526005602052209060018060a01b0316600052602052602060ff604060002054166040519015158152f35b50346101b85760203660031901126101b8576102d0611531565b906102e66001600160a01b031983161515611785565b600f546001600160a01b0316803b1561066957818091604460405180948193634bc6a73f60e11b8352336004840152610bb860248401525af1801561065e57829061064e575b505060001943019043821161063a5763ffffffff600d549260405160208101914483524060408201524260608201528460808201526080815261037060a082611578565b519020168061063157506103846001611e06565b9260c092836040516103968282611578565b3690378492604051946103a98187611578565b368637805b60ff811660068110156103e557816001916103dd60ff6103ce8196611dbc565b90549060031b1c16918a611950565b5201166103ae565b5050848685600c5b848160010b13610516575091839284905b601560ff8316106104cd576020878960408989898961041c876117be565b600d5560ff81511688820151868301519060608401519261ff0062ff000063ff0000008d60a060808a0151990151908c528f600a905260ff60381b9060381b1698600161ffff600d818060281b941606161b60281b16978f60ff901b9060201b169660181b169460101b169260081b1617171717171783832055848252600b865282822055838152600c8552209060a01c60018060601b03198254161790556104c581336119c1565b604051908152f35b6104d990949194611e06565b908460031b6107f860f88216911681036105025760ff91600191838516901b17950116906103fe565b634e487b7160e01b87526011600452602487fd5b9061052090611e06565b90600660ff831606855b600660ff82161061053d575b50506103ed565b600660ff61054b8385611dd4565b160660ff811660ff61055d828a611950565b511660ff61056a84611dbc565b90549060031b1c1691600684101561061d578360051c9160ff6105a384600801958260f8601f8a1698549960031b1698891c1690611dd4565b16116105b8575050505060010160ff1661052a565b91935091935060ff6105df6105d8826105d1858d611950565b5116611a74565b928a611950565b91169052600901905054901c850b9060010b03617fff8113617fff19821217610609578780610536565b634e487b7160e01b85526011600452602485fd5b634e487b7160e01b8b52603260045260248bfd5b61038490611e06565b634e487b7160e01b81526011600452602490fd5b61065791611578565b388161032c565b6040513d84823e3d90fd5b5080fd5b50346101b85760203660031901126101b85760043590610690600d5483106115cc565b818152600a6020526040812054918152600c602052604081205460a01b918180925b60ff8416600c811015610a9d5785901a60f81b6001600160f81b031916156106ea5760016106e160ff92611a74565b940116926106b2565b60ff9193509391935b16906106fe82611a85565b92805b60ff81168481101561074557600c8110156107315760ff9181610729866001941a9189611ab7565b530116610701565b634e487b7160e01b83526032600452602483fd5b868661075360ff8316611ac8565b918060081c60ff1661076490611ac8565b908060101c60ff1661077590611ac8565b8160181c60ff1661078590611ac8565b908260201c60ff1661079690611ac8565b9260381c60ff166107a690611ac8565b93604051968796683d913730b6b2911d1160b91b60208901528051908160298a0191602001916107d59261147e565b7f222c226465736372697074696f6e223a22436c6177204172656e61204c6f6273602991890191820152681d195c88139195088b60ba1b60498201526d2261747472696275746573223a5b60901b60528201527a3d913a3930b4ba2fba3cb832911d1124281116113b30b63ab2911d60291b6060820152815191610862908390607b84019060200161147e565b0160290160528101611f4b60f21b90527b3d913a3930b4ba2fba3cb832911d1120aa259116113b30b63ab2911d60211b6054820152815191826070830191602001916108ad9261147e565b01605201601e8101611f4b60f21b9052602081017f7b2274726169745f74797065223a2252616e6765222c2276616c7565223a0000905281519182603e830191602001916108fa9261147e565b01601e0160208101611f4b60f21b9052602281017f7b2274726169745f74797065223a225370656564222c2276616c7565223a00009052815191826040830191602001916109479261147e565b0160200160208101611f4b60f21b9052602281017f7b2274726169745f74797065223a224d616e61222c2276616c7565223a000000905281519182603f830191602001916109949261147e565b01602001601f8101611f4b60f21b9052602181017f7b2274726169745f74797065223a22536b696c6c20506f776572222c2276616c9052633ab2911d60e11b6041820152815191826045830191602001916109ee9261147e565b01601f0160268101607d60f81b905260278101615d7d60f01b905203602601601c1981018252600301610a219082611578565b610a2a90611b66565b6040518091602082017f646174613a6170706c69636174696f6e2f6a736f6e3b6261736536342c000000905280519081603d84019160200191610a6c9261147e565b810103603d01601f1981018252610a839082611578565b60405180916020825260208201610a99916114a1565b0390f35b5060ff9193509391936106f3565b50346101b85760203660031901126101b8576040602091600435610ad2600d5482106115cc565b8152600a83522054604051908152f35b50346101b85760203660031901126101b85760406020916004358152600a83522054604051908152f35b50346101b85760203660031901126101b85760406020916004358152600c8352205460a01b6040519060018060a01b0319168152f35b50346101b85760803660031901126101b857610b5c6114c6565b610b646114e1565b90606435906001600160401b038211610bce5736602383011215610bce5781600401359284610b92856115b1565b93610ba06040519586611578565b85855236602487830101116106695785610bcb96602460209301838801378501015260443591611809565b80f35b8380fd5b50346101b85760603660031901126101b8576004356001600160401b03811161066957610c03903690600401611548565b906024356001600160401b038111610bce57610c23903690600401611548565b9092906044356001600160401b038111610d8457610c45903690600401611548565b90610c4e611998565b600e54610d495782841480610d40575b15610d0957865b848110610c765787600d54600e5580f35b600d5490610c83826117be565b600d55610c918187896117e3565b35828a52600a60205260408a2055610caa81868a6117e3565b35828a52600b60205260408a2055610cc38185856117e3565b356001600160a01b031981168103610d055782610cff916001948c52600c60205260408c209060a01c858060601b0319825416179055306119c1565b01610c65565b8980fd5b60405162461bcd60e51b815260206004820152600f60248201526e098cadccee8d040dad2e6dac2e8c6d608b1b6044820152606490fd5b50818414610c5e565b60405162461bcd60e51b8152602060048201526013602482015272105b1c9958591e481a5b9a5d1a585b1a5e9959606a1b6044820152606490fd5b8580fd5b50346101b85760403660031901126101b857610da26114c6565b60243590811515809203610e26576001600160a01b0316908115610e12573383526005602052604083208284526020526040832060ff1981541660ff83161790556040519081527f17307eab39ab6107e8899845ad3d59bd9653f200f220920489ca2b5937696c3160203392a380f35b630b61174360e31b83526004829052602483fd5b8280fd5b50346101b85760603660031901126101b857602090610e47611531565b610e4f611998565b610e646001600160a01b031982161515611785565b6040600d5492610e73846117be565b600d55838152600a855260243582822055838152600b855260443582822055838152600c8552209060a01c60018060601b03198254161790556104c581306119c1565b50346101b857806003193601126101b8576040519080600154908160011c91600181168015610fb9575b602084108114610fa557838652908115610f7e5750600114610f21575b610a9984610f0d81860382611578565b6040519182916020835260208301906114a1565b600181527fb10e2d527612073b26eecdfd717e6a320cf44b4afac2b0732d9fcbe2b7fa0cf6939250905b808210610f6457509091508101602001610f0d82610efd565b919260018160209254838588010152019101909291610f4b565b60ff191660208087019190915292151560051b85019092019250610f0d9150839050610efd565b634e487b7160e01b83526022600452602483fd5b92607f1692610ee0565b50346101b857806003193601126101b8576006546040516001600160a01b039091168152602090f35b50346101b857806003193601126101b8576020600d54604051908152f35b50346101b857806003193601126101b857611023611998565b600680546001600160a01b0319811690915581906001600160a01b0316600080516020611e298339815191528280a380f35b50346101b85760203660031901126101b8576001600160a01b036110776114c6565b168015611094578160409160209352600383522054604051908152f35b6322718ad960e21b82526004829052602482fd5b50346101b857806003193601126101b8576020600e54604051908152f35b50346101b85760203660031901126101b8576110e06114c6565b6110e8611998565b600f80546001600160a01b0319166001600160a01b039290921691909117905580f35b50346101b85760203660031901126101b857602061112a600435611961565b6040516001600160a01b039091168152f35b50346101b857806003193601126101b857600f546040516001600160a01b039091168152602090f35b50346101b857610bcb611177366114f7565b9060405192611187602085611578565b858452611809565b50346101b857610bcb6111a1366114f7565b91611604565b50346101b85760203660031901126101b85760406020916004356111ce600d5482106115cc565b8152600b83522054604051908152f35b50346101b85760803660031901126101b8576111f86114c6565b506112016114e1565b506064356001600160401b03811161066957366023820112156106695760048101356001600160401b038111610e2657369101602401116101b857604051630a85bd0160e11b8152602090f35b50346101b85760403660031901126101b8576112686114c6565b60243561127481611961565b33151580611323575b806112f8575b6112e55781906001600160a01b0384811691167f8c5be1e5ebec7d5bd14f71427d1e84f3dd0314c0f7b2291e5b200ac8c7c3b9258680a4825260046020526040822080546001600160a01b0319166001600160a01b0390921691909117905580f35b63a9fbf51f60e01b845233600452602484fd5b506001600160a01b038116845260056020908152604080862033875290915284205460ff1615611283565b506001600160a01b03811633141561127d565b50346101b85760203660031901126101b85760209060043561135781611961565b50815260048252604060018060a01b0391205416604051908152f35b50346101b857806003193601126101b85760405190808054908160011c91600181168015611407575b602084108114610fa557838652908115610f7e57506001146113c857610a9984610f0d81860382611578565b80805260208120939250905b8082106113ed57509091508101602001610f0d82610efd565b9192600181602092548385880101520191019092916113d4565b92607f169261139c565b9050346106695760203660031901126106695760043563ffffffff60e01b8116809103610e2657602092506380ac58cd60e01b811490811561146d575b811561145c575b5015158152f35b6301ffc9a760e01b14905038611455565b635b5e139f60e01b8114915061144e565b60005b8381106114915750506000910152565b8181015183820152602001611481565b906020916114ba8151809281855285808601910161147e565b601f01601f1916010190565b600435906001600160a01b03821682036114dc57565b600080fd5b602435906001600160a01b03821682036114dc57565b60609060031901126114dc576004356001600160a01b03811681036114dc57906024356001600160a01b03811681036114dc579060443590565b600435906001600160a01b0319821682036114dc57565b9181601f840112156114dc578235916001600160401b0383116114dc576020808501948460051b0101116114dc57565b601f909101601f19168101906001600160401b0382119082101761159b57604052565b634e487b7160e01b600052604160045260246000fd5b6001600160401b03811161159b57601f01601f191660200190565b156115d357565b60405162461bcd60e51b8152602060048201526009602482015268139bdd08195e1a5cdd60ba1b6044820152606490fd5b6001600160a01b039091169190821561176f576000828152600260205260408120546001600160a01b03169383918590331515806116d7575b50600080516020611e4983398151915290826116b5575b838152600360209081526040808320805460010190558683526002909152812080546001600160a01b0319168517905580a46001600160a01b031680830361169b57505050565b6364283d7b60e01b60005260045260245260445260646000fd5b6116be85611de8565b8281526003602052604081208054600019019055611654565b915091925080611720575b156116f157908484923861163d565b83908561170a57602491637e27328960e01b8252600452fd5b60449163177e802f60e01b825233600452602452fd5b50338514801561174e575b806116e25750838152600460205260408120546001600160a01b031633146116e2565b5084815260056020908152604080832033845290915281205460ff1661172b565b633250574960e11b600052600060045260246000fd5b1561178c57565b60405162461bcd60e51b815260206004820152600a602482015269456d707479206e616d6560b01b6044820152606490fd5b60001981146117cd5760010190565b634e487b7160e01b600052601160045260246000fd5b91908110156117f35760051b0190565b634e487b7160e01b600052603260045260246000fd5b9291611816818386611604565b813b611823575b50505050565b604051630a85bd0160e11b81523360048201526001600160a01b039485166024820152604481019190915260806064820152921691906020908290819061186e9060848301906114a1565b03816000865af1809160009161190d575b50906118d857503d156118d1573d611896816115b1565b906118a46040519283611578565b81523d6000602083013e5b805190816118cc5782633250574960e11b60005260045260246000fd5b602001fd5b60606118af565b6001600160e01b03191663757a42ff60e11b016118f957503880808061181d565b633250574960e11b60005260045260246000fd5b6020813d602011611948575b8161192660209383611578565b810103126106695751906001600160e01b0319821682036101b857503861187f565b3d9150611919565b9060068110156117f35760051b0190565b6000818152600260205260409020546001600160a01b0316908115611984575090565b637e27328960e01b60005260045260246000fd5b6006546001600160a01b031633036119ac57565b63118cdaa760e01b6000523360045260246000fd5b6001600160a01b0316801561176f57600091808352600260205260018060a01b036040842054169182600080516020611e498339815191528115159586611a52575b838152600360209081526040808320805460010190558683526002909152812080546001600160a01b0319168517905580a450611a3c57565b6339e3563760e11b600052600060045260246000fd5b611a5b85611de8565b8281526003602052604081208054600019019055611a03565b60ff1660ff81146117cd5760010190565b90611a8f826115b1565b611a9c6040519182611578565b8281528092611aad601f19916115b1565b0190602036910137565b9081518110156117f3570160200190565b8015611b465780600081805b611b2e5750611ae281611a85565b925b611aed57505090565b80156117cd576000190190600a810660300190816030116117cd57600a9160f81b6001600160f81b03191660001a611b258486611ab7565b53049081611ae4565b9150611b3b600a916117be565b910480839291611ad4565b50604051611b55604082611578565b60018152600360fc1b602082015290565b604051611b74606082611578565b604081527f4142434445464748494a4b4c4d4e4f505152535455565758595a61626364656660208201527f6768696a6b6c6d6e6f707172737475767778797a303132333435363738392b2f604082015281518015611da457600281018082116117cd57600390046001600160fe1b03811681036117cd57611bf79060021b611a85565b9260009060005b838110611c0d57505050505090565b611c178183611ab7565b5160018201808311806117cd578682109060008215611d9d575050611c3e60009286611ab7565b5160f81c915b600285019182861193846117cd578984109460008615611d94575050611c6c60009489611ab7565b5160f81c955b60e81c62ff00001660089190911b61ff00161760ff861617918b611cbf6001600160f81b0319611ca9601287901c603f168f611ab7565b51169a611cb5816117be565b9b60001a92611ab7565b538b611cde6001600160f81b0319611ca9600c87901c603f168f611ab7565b536117cd5715611d88576001600160f81b031990611d029060061c603f168a611ab7565b5116955b611d1d611d12826117be565b9760001a918b611ab7565b536117cd5715611d7c576001600160f81b031990611d3e90603f1687611ab7565b5116925b611d59611d4e826117be565b9460001a9188611ab7565b536003810180911115611bfe57634e487b7160e01b600052601160045260246000fd5b50603d60f81b92611d42565b50603d60f81b95611d06565b90945095611c72565b9250611c44565b505050604051611db5602082611578565b6000815290565b9060068210156117f357601f8260051c600701921690565b9060ff8091169116019060ff82116117cd57565b600090815260046020526040902080546001600160a01b0319169055565b63ffffe00081600d1b1618617fff8160111c161863ffffffe08160051b16189056fe8be0079c531659141344cd1fd0a4f28419497f9722a3daafe3b4186f6b6457e0ddf252ad1be2c89b69c2b068fc378daa952ba7f163c4a11628f55a4df523b3efa2646970667358221220caa3fe66368c3775ff0005fc271ebe738c2c6bb2be15affa4be9cb7c4fb626b064736f6c634300081b0033",
        "nonce": "0x35",
        "chainId": "0x89"
      },
      "additionalContracts": [],
      "isFixedGasLimit": false
    },
    {
      "hash": "0xe780b0490ac9d42834c2253ea9a43a252684b81789efd7431999a79440ceaf1f",
      "transactionType": "CREATE",
      "contractName": "ClawArena",
      "contractAddress": "0xc92e751c6ebd0177f8aabc4dc48e12f1b18b5b24",
      "function": null,
      "arguments": null,
      "transaction": {
        "from": "0xdc328af6c71df52966890a7f007179c25be4ff3b",
        "gas": "0x404615",
        "value": "0x0",
        "input": "0x608080604052346015576139a3908161001b8239f35b600080fdfe61018080604052600436101561001457600080fd5b60003560e01c9081630251838414612e71575080630339887314612bd9578063072ea61c14612bb65780630800e3a214612b635780632752398d14612ac2578063334d8de314612a9957806334cb68c814612a5c5780633a7fb59514612a165780633e04bf15146129f15780633f4ba83a146129be578063485cc955146128325780634b34d1b4146127235780635a5c69d6146126cc5780635c12cd4b146124bf5780635c975abb146124995780636d763a6e1461218f57806379c4264b1461216b5780637eef78fc14612131578063809d3820146120e157806383bc8d75146120915780638456cb591461205a5780638da5cb5b14612031578063978d4e7e14611f755780639943c3a514611f355780639ce67bdd14611ef8578063a5951aa014611dc8578063aa3491b714611d9f578063af137ca814611d69578063ba3823a614610906578063bcb39621146108e5578063be5957d71461084c578063bebd607a1461081f578063c5886fbd14610771578063ccd7938214610613578063d73f3b39146104a8578063d8fa27381461047f578063e18d38ce14610439578063e2eb41ff1461034b578063f2fde38b146102fa578063f4381364146102065763f60cdcf6146101e357600080fd5b34610201576000366003190112610201576020600654604051908152f35b600080fd5b346102015760403660031901126102015761021f612e9a565b610227612edb565b6004546001600160a01b0316331415806102df575b806102ca575b6102ba5760ff811661027857506001600160a01b0316600090815260056020526040902060090180546001600160f81b03169055005b6001600160a01b039091166000908152600560205260409020600901805460f89290921b6001600160f81b0319166001600160f81b0392909216919091179055005b6282b42960e81b60005260046000fd5b506000546001600160a01b0316331415610242565b506002543360109190911c6001600160a01b0316141561023c565b3461020157602036600319011261020157610313612e9a565b6000549061032b336001600160a01b03841614612f8a565b6001600160a01b0316908115610201576001600160a01b03191617600055005b34610201576020366003190112610201576001600160a01b0361036c612e9a565b1660005260056020526101c06040600020805460801b906001810154906002810154600382015463ffffffff60ff6004850154166005850154600686015460000b600787015491600888015493600989015496600a8a01549866ffffffffffffff600c600b8d01549c0154169b60206040519e8f9060018060801b0319168152015260408d015260608c015260808b015260a08a015260c089015260e088015281811661010088015260201c166101208601526101408501526101608401526101808301526101a0820152f35b34610201576020366003190112610201576001600160a01b0361045a612e9a565b166000526005602052602060406000205460801b6040519060018060801b0319168152f35b3461020157600036600319011261020157604b546040516001600160a01b039091168152602090f35b34610201576060366003190112610201576104c1612e9a565b6024359063ffffffff821690818303610201576104dc612eeb565b9291156105ed575b5060009063ffffffff815b1691821515806105de575b15610526576105089061309a565b91600052600860205263ffffffff8060406000205460201c166104ef565b60ff16610532816130e2565b9061053c81613114565b92906000915b60ff8316828110156105cb578063ffffffff6105616105a69388613172565b9316809352826000526008602052604060002063ffffffff6040519161058683612ff4565b54818116835260201c16602082015261059f8289613172565b5286613172565b50600052600860205260ff600163ffffffff60406000205460201c1693011691610542565b604051806105da888883612efb565b0390f35b5060ff841660ff8216106104fa565b6001600160a01b031660009081526009602052604090205463ffffffff169050826104e4565b346102015760203660031901126102015760043560ff811681036102015760ff61063c82613305565b90549060031b1c1690600781101590816106fd5760081b604c019160ff9161066560ff8561331e565b905460039190911b1c6001600160a01b0316156107685761ffff6101005b169361068e856130cb565b9161069c604051938461302a565b8583526106a8866130cb565b602084019490601f190136863760005b61ffff81168881101561071357836106fd57816001916106f56106e08b61ffff96168961331e565b858060a01b0391549060031b1c169189613172565b5201166106b8565b634e487b7160e01b600052603260045260246000fd5b858388604051916040830193604084525180945260608301916000945b80861061074557505082935060208301520390f35b81516001600160a01b031684526001959095019460209384019390910190610730565b61ffff82610683565b346102015760403660031901126102015761078a612e9a565b602435906001600160801b031982168203610201576004546001600160a01b031633141580610804575b806107ef575b6102ba576001600160a01b0316600090815260056020526040902080546001600160801b03191660809290921c919091179055005b506000546001600160a01b03163314156107ba565b506002543360109190911c6001600160a01b031614156107b4565b346102015760003660031901126102015760025460405160109190911c6001600160a01b03168152602090f35b3461020157604036600319011261020157610865612e9a565b61086d612edb565b9060018060a01b0360045416331415806108ca575b806108b5575b6102ba5760018060a01b03166000526005602052600160ff600560406000200192161b8154179055600080f35b506000546001600160a01b0316331415610888565b506002543360109190911c6001600160a01b03161415610882565b3461020157600036600319011261020157602060ff60025416604051908152f35b60603660031901126102015761091a612eeb565b600260015414611d385760026001556002549060ff8260081c16611d275733600052600560205260406000209160018060a01b038160101c166040516331a9108f60e11b81526004356004820152602081602481855afa908115610f5457600091611d08575b506001600160a01b0316908114159081611cfd575b50611cec5760018060a01b03600354166040516331a9108f60e11b81526024356004820152602081602481855afa908115610f5457600091611cbd575b506001600160a01b0316908114159081611cb2575b50611ca257600483019060ff80835416911611611c7d575b50600181161515908180611c69575b80611c61575b611c1a57600281161515928380611c4f575b611c1a57600482161515918280611c3d575b611c1a576008161515928380611c2b575b611c1a5715611bb65734611ba557600581018054600160401b191690555b63ffffffff600782015460405160208101914483524260408301523360601b6060830152607482015260748152610a9f60948261302a565b51902016938415611b9c575b60646001830154046000608052600760805260ff610aca6080516131ca565b16811015611b8757915b6040519360e0610ae4818761302a565b36863760ff600094169660006101605260ff610160525b610b0488613305565b6101605191549060031b1c166080518910156106fd57610b2d610160518a60081b604c0161331e565b905460039190911b1c6001600160a01b031615611b8257506101005b600861ffff821610611ac85761ffff60071991160161ffff81116115895761ffff600291160161ffff81116115895761ffff811615611ab257610ba161ffff80921663ffffffff841606607f60805160011c166135a4565b1696607f60805160011c16880361ffff8111611589575b60805161ffff60019190911c607f168a01116115895761ffff607f60805160011c168a011661ffff8216111580611a9d575b15610c51576080518a10156106fd5780610c0d610c2d928c60081b604c0161331e565b905460039190911b1c6001600160a01b0316338103610c32575b50613591565b610bb8565b610c4a610c3e8a61309a565b9961016051168b613272565b528b610c27565b509650965b610160516080511661016051861610801590611a90575b610c8057610c7a906135be565b96610afb565b50849087876101009560405196610c97818961302a565b8036893760405196610ca9828961302a565b8136893760405160e052610cbf8260e05161302a565b813660e0513760405160a052610cd78260a05161302a565b813660a0513760405161014052610cf1826101405161302a565b60005b828110611a7e5750338952600435885260243560e0515260018060a01b0360025460101c1660c0526040516362e1171f60e11b8152600435600482015260208160248160c0515afa908115610f5457600091611a4c575b5060a0515260018060a01b036003541661010052604051631459179360e31b81526024356004820152600081602481610100515afa908115610f5457600091611a31575b5061014051526000610120525b61016051608051166101605161012051161015610f945761016051610120516001600160a01b0391610dcf911689613272565b511680610dec61016051610de561012051613283565b168c6131dd565b52806000526005602052600a60406000200154610e1961016051610e1261012051613283565b168b6131dd565b526000526005602052600b60406000200154610e4761016051610e3e61012051613283565b1660e0516131dd565b52610e6261016051610e5b61012051613283565b16896131dd565b51604051906362e1171f60e11b8252600482015260208160248160c0515afa908115610f5457600091610f60575b50610ead61016051610ea461012051613283565b1660a0516131dd565b52610ec161016051610e3e61012051613283565b5160405190631459179360e31b82526004820152600081602481610100515afa8015610f5457610f1d91600091610f33575b5061016051610f0461012051613283565b1690610f1382610140516131dd565b52610140516131dd565b5061016051600161012051011661012052610d9c565b610f4e913d8091833e610f46818361302a565b810190613211565b8b610ef3565b6040513d6000823e3d90fd5b906020823d8211610f8c575b81610f796020938361302a565b81010312610f895750518a610e90565b80fd5b3d9150610f6c565b87899160405195632ee04c5d60e21b87526004870161014488019060a051906000905b60088210611a1b5750505061014061010489015287610244810191610140519060005b600881106119d757505050806105009263ffffffff8c16610124830152038173aa844db251863f4029d4d6398866439ccc5dec065af4968715610f54576000976118e9575b506000986000604051906110328261300f565b808252806020830152806040830152806060830152608082015260005b61016051811660088110156118d7576101605161106c828d6131dd565b51511615611083575060016101605191011661104f565b915061109992939495969798999a9b50996131dd565b51955b6001840154966000986001995b6008610160518c161015611126576110e6908b8a60018060a01b036110d3610160518416836131dd565b51600091166110f6575050508a9061306a565b99600161016051910116996110a9565b610160516001936040936001600160a01b03926111149216906131dd565b5116815260056020522001549061306a565b8c995061113f8c919998996101605160805116906131c0565b91336000526005602052604060002094600186019283549261116082613883565b60010b608088019788516118b6575b60600196610160518851166002811015611883575b506111976111918761305c565b9161305c565b91600081131561181d57606483029280840460641490151715611589576111c36111da926064946131c0565b9060968211611814575b6014821061180b576135ce565b058015611803575b8099806117f9575b6117c9575b50806117bf575b6117a7575b60008813928315611731575061121288855461306a565b84555b61ffff611221826138ed565b1698611704575b600287016112378a825461306a565b90556101605185511692156116d5576008870163ffffffff61125b818354166132cb565b825463ffffffff191691161790556003870180546000811290811590826116ca5760010191600183129081151691161761158957905b555b6080518701948554156116b7575b6112ab865461304d565b86556112ce6112c860088a019563ffffffff875460201c166135a4565b856132e2565b6009600389019889546000811390816116a1575b5061165e575b01968754600181179754906064821015611651575b506103e81115611647575b5161163d575b610160519051166003811015611632575b60051115611628575b610160511695861561161e575b5490600a821215611614575b506032811215611608575b606413156115fd575b5463ffffffff8160201c1660648110156115f2575b6101f48110156115e6575b6103e811156115da575b63ffffffff16600a8110156115ce575b60648110156115c1575b6103e811156115b5575b54956064870480610160516113b96080516131ca565b161061159f575b60018101809111611589576001901b60001981019081116115895761ffff976064946001946113f59360c81b179055336135f1565b600435600a820155602435600b820155015404610160516114176080516131ca565b168110156115705761142f905b61016051163361348f565b63ffffffff60405197168752602087015260010b6040860152166060840152608083016000905b60088210611550578461146d6101808201866132a3565b61147d610280820160e0516132a3565b7f3052d80a3839b2c5f144988a5cc0935093ca5d2c04d48ff371f73ebd3cca81fb6103803392a261151c6080515463ffffffff6114bb8183166132cb565b16809163ffffffff1916176080515533600052600960205263ffffffff8060406000205416604051926114ed84612ff4565b8243168452602084019182526000526008602052818060406000209451161682198454161783555116906132e2565b63ffffffff608051541633600052600960205263ffffffff6040600020911663ffffffff1982541617905560018055600080f35b82516001600160a01b031681526020928301926001929092019101611456565b5061142f610160516115836080516131ca565b16611424565b634e487b7160e01b600052601160045260246000fd5b50610160516115af6080516131ca565b166113c0565b906204000017906113a3565b6202000090921791611399565b9162010000179161138f565b6180009092179161137f565b61400090931792611375565b92612000179261136a565b916104001791611355565b6102009093179261134c565b909317928c611341565b9360401793611335565b9360201793611328565b60109095179461131f565b946008179461130e565b9560041795611308565b60031797506103e86112fd565b604b80546001600160a01b031981163390811783558c546001600160b01b031990921661ffff60a01b199091161760a09190911b61ffff60a01b161790556112e8565b905061ffff80604b5460a01c16911611386112e2565b6116c260065461304d565b6006556112a1565b505050600190611291565b600387018054600081136116fa57600019810190811360011661158957905b55611293565b50600019906116f4565b9760968102908082046096149015171561158957600587018054600160431b191690556064900497611228565b60008912611740575b50611215565b600160ff1b8914611589578860000360648204916064830292808404606414901517156115895781811161177c57505050600084555b8d61173a565b8261178783836130ab565b10156117965750508455611776565b6117a092506130ab565b8455611776565b600587018054600160411b19169055600097506111fb565b50600088126111f6565b90985060968102908082056096149015171561158957600588018054600160421b1916905560649005978e6111ef565b50600081136111ea565b5060016111e2565b601491506135ce565b609691506111cd565b916000831261182e575b50506111e2565b909160648302928084046064149015171561158957611852611869926064946131c0565b9060c8821161187a575b60328210611871576135ce565b058f80611827565b603291506135ce565b60c8915061185c565b90916005820291808305600514901517156115895760008282019283129112908015821691151617611589579038611184565b90600a8101906000600a83129112908015821691151617611589579061116f565b5050969750909192939498979861109c565b6105009791973d81116119d0575b611901818361302a565b810190610500818303126119cc5781601f820112156119cc5760405192611928888561302a565b83926105008301928184116119cc57935b83851061194c575050505050958961101f565b60a0858303126119cc576040516119628161300f565b61196b86613295565b815261197960208701613295565b6020820152604086015161ffff811681036119c857604082015261199f60608701613295565b6060820152608086015180151581036119c8576080820152815260a09490940193602001611939565b8480fd5b8280fd5b503d6118f7565b9193602080809260019496610143199082030187528751611a03815180928185528580860191016131ee565b601f01601f19160101958d9591019391019101610fda565b6020806001928551815201930191019091610fb7565b611a4691503d806000833e610f46818361302a565b8a610d8f565b90506020813d602011611a76575b81611a676020938361302a565b8101031261020157518a610d4b565b3d9150611a5a565b80606060209261014051015201610cf4565b5061016051811615610c6d565b50610160516080511661016051881610610bea565b634e487b7160e01b600052601260045260246000fd5b61ffff8199929916611adb575b50610c56565b9660009891985b61ffff891661ffff82161080611b6d575b15611b63576080518a10156106fd57611b3d61ffff91611b1e6101605182168d60081b604c0161331e565b905460039190911b1c6001600160a01b0316338103611b445750613591565b9050611ae2565b611b5c611b508b61309a565b9a61016051168c613272565b528c610c27565b5096509688611ad5565b50610160516080511661016051881610611af3565b610b49565b5060ff611b956080516131ca565b1691610ad4565b60019450610aab565b634d0419db60e11b60005260046000fd5b670de0b6b3a76400003403611ba55760008080803460018060a01b038254165af13d15611c15573d611be7816131a5565b90611bf5604051928361302a565b8152600060203d92013e5b610a67576312171d8360e31b60005260046000fd5b611c00565b630d5efa9960e01b60005260046000fd5b506005820154600160431b1615610a49565b506005820154600160421b1615610a38565b506005810154600160411b1615610a26565b508115610a14565b6005840154600160401b1615159250610a0e565b600060018401556000600384015560ff80600254161660ff19825416179055826109ff565b622d261b60e31b60005260046000fd5b9050331415846109e7565b611cdf915060203d602011611ce5575b611cd7818361302a565b810190613186565b856109d2565b503d611ccd565b63164f80dd60e11b60005260046000fd5b905033141584610995565b611d21915060203d602011611ce557611cd7818361302a565b85610980565b6313d0ff5960e31b60005260046000fd5b60405162461bcd60e51b81526020600482015260096024820152681499595b9d1c985b9d60ba1b6044820152606490fd5b3461020157602036600319011261020157600435602081101561020157600a01546040516001600160a01b039091168152602090f35b34610201576000366003190112610201576003546040516001600160a01b039091168152602090f35b3461020157604036600319011261020157611de1612eb0565b611de9612edb565b63ffffffff82168015908115611ee6575b50611ed6575b8160005b63ffffffff8416151580611ec7575b15611e3057611e24611e2a9161309a565b936130b8565b92611e04565b60ff16611e3c816130e2565b90611e4681613114565b92906000915b60ff831690828210156105cb57611ebe600191611eb884611e6f60ff968a613172565b63ffffffff84168091526000526008602052604060002063ffffffff60405191611e9883612ff4565b54818116835260201c166020820152611eb1828c613172565b5289613172565b506130b8565b93011691611e4c565b5060ff831660ff821610611e13565b60075463ffffffff169150611e00565b905063ffffffff600754161083611dfa565b34610201576020366003190112610201576001600160a01b03611f19612e9a565b1660005260056020526020600960406000200154604051908152f35b34610201576020366003190112610201576001600160a01b03611f56612e9a565b166000526009602052602063ffffffff60406000205416604051908152f35b3461020157604036600319011261020157611f8e612e9a565b6024359060018060a01b036004541633141580612016575b80612001575b6102ba576001600160a01b03166000818152600560205260409020600201548211611ff0576000526005602052611fec60026040600020019182546130ab565b9055005b6376208d7360e11b60005260046000fd5b506000546001600160a01b0316331415611fac565b506002543360109190911c6001600160a01b03161415611fa6565b34610201576000366003190112610201576000546040516001600160a01b039091168152602090f35b346102015760003660031901126102015761208060018060a01b03600054163314612f8a565b6002805461ff001916610100179055005b34610201576020366003190112610201576120aa612e9a565b6120bf60018060a01b03600054163314612f8a565b600380546001600160a01b0319166001600160a01b0392909216919091179055005b34610201576020366003190112610201576120fa612e9a565b61210f60018060a01b03600054163314612f8a565b600480546001600160a01b0319166001600160a01b0392909216919091179055005b346102015760203660031901126102015760043560208110156102015760ff61215b602092612ec3565b90549060031b1c16604051908152f35b3461020157600036600319011261020157602063ffffffff60075416604051908152f35b3461020157600036600319011261020157610400806040516121b1828261302a565b369037806040516121c2828261302a565b369037806040516121d3828261302a565b36903760405190600a6000835b60208210612479575050506121f5818361302a565b604051602a6000825b6020821061246357505050612213828261302a565b60405191604a600082855b6020601f8401106122c15750905061223791508461302a565b604051936000855b602082106122a15750505083016000905b6020821061228b5750505061080082016000905b6020821061227257610c0084f35b60208060019260ff865116815201930191019091612264565b6020806001928551815201930191019091612250565b82516001600160a01b03168152602092830192600192909201910161223f565b602091600191855460ff8116825260ff8160081c168583015260ff8160101c16604083015260ff8160181c16606083015260ff81861c16608083015260ff8160281c1660a083015260ff8160301c1660c083015260ff8160381c1660e083015260ff8160401c1661010083015260ff8160481c1661012083015260ff8160501c1661014083015260ff8160581c1661016083015260ff8160601c1661018083015260ff8160681c166101a083015260ff8160701c166101c083015260ff8160781c166101e083015260ff8160801c1661020083015260ff8160881c1661022083015260ff8160901c1661024083015260ff8160981c1661026083015260ff8160a01c1661028083015260ff8160a81c166102a083015260ff8160b01c166102c083015260ff8160b81c166102e083015260ff8160c01c1661030083015260ff8160c81c1661032083015260ff8160d01c1661034083015260ff8160d81c1661036083015260ff8160e01c1661038083015260ff8160e81c166103a083015260ff8160f01c166103c083015260f81c6103e082015201930191019091839061221e565b60016020819285548152019301910190916121fe565b82546001600160a01b0316815260019283019291909101906020016121e0565b3461020157600036600319011261020157602060ff60025460081c166040519015158152f35b34610201576020366003190112610201576124d8612e9a565b6040516124e481612fc2565b60008152602081016000905260408101600090526060810160009052608081016000905260a081016000905260c081016000905260e08101600090526101008101600090526101208101600090526101408101600090526101608101600090526101808101600090526101a00160009052600160a01b60019003166000526005602052604060002060405161257881612fc2565b80600160801b6001900319835460801b16928382526001810154936020830194855260028201546040840190815260038301549060608501918252600484015460ff1660808601908152600585015460a08701908152600686015460000b9060c0880191825260078701549260e089019384526008880154956101008a019563ffffffff881687526101208b019760201c63ffffffff16885260098a0154986101408c01998a52600a8b01549a6101608d019b8c52600b8101549c610180019c8d52600c015466ffffffffffffff169c6101a0019c8d526040519d8e9182525190602001525160408d01525160608c01525160ff1660808b01525160a08a01525160000b60c08901525160e08801525163ffffffff166101008701525163ffffffff166101208601525161014085015251610160840152516101808301525166ffffffffffffff166101a08201526101c090f35b34610201576020366003190112610201576126e5612e9a565b6126fa60018060a01b03600054163314612f8a565b6002805462010000600160b01b03191660109290921b62010000600160b01b0316919091179055005b34610201576000366003190112610201576004546001600160a01b031633141580612817575b80612802575b6102ba5760005b602060ff8216106127b85760018060b01b0319604b5416604b5560025460ff6127aa8183167f3bfcc3e41aa03b7575bc15e72aa39826ec3640d8d71058400d3e72cbd34ca7506020604051838152a161309a565b60ff19909216911617600255005b60208110156106fd57600a810180546001600160a01b03191690556000602a82015560ff906001906127fb6127ec82612ec3565b60ff82549160031b1b19169055565b0116612756565b506000546001600160a01b031633141561274f565b506002543360109190911c6001600160a01b03161415612749565b346102015760403660031901126102015761284b612e9a565b6024356001600160a01b038116908190036102015760008051602061394e83398151915254604081901c60ff1615929091906001600160401b038316801590816129b6575b60011490816129ac575b1590816129a3575b506129925760016001600160401b03198416811760008051602061394e83398151915255928461296c575b5033838060a01b0319600054161760005582805560025491838060a01b03196003541617600355620100008360b01b039060101b169061ff018360b01b031916171760025561291857005b60ff60401b1960008051602061394e833981519152541660008051602061394e833981519152557fc7f505b2f371ae2175ee4913f4499e1f2633a7b5936321eed1cdaeb6115181d2602060405160018152a1005b838060401b0190848060481b0319161760008051602061394e83398151915255846128cd565b63f92ee8a960e01b60005260046000fd5b905015856128a2565b303b15915061289a565b859150612890565b34610201576000366003190112610201576129e460018060a01b03600054163314612f8a565b6002805461ff0019169055005b3461020157600036600319011261020157602061ffff604b5460a01c16604051908152f35b346102015760203660031901126102015763ffffffff612a34612eb0565b1660005260086020526040806000205463ffffffff825191818116835260201c166020820152f35b34610201576020366003190112610201576001600160a01b03612a7d612e9a565b1660005260056020526020600560406000200154604051908152f35b34610201576000366003190112610201576004546040516001600160a01b039091168152602090f35b3461020157604036600319011261020157612adb612e9a565b602435908160000b8203610201576004546001600160a01b031633141580612b48575b80612b33575b6102ba5760018060a01b0316600052600560205260066040600020019060ff198254169060ff16179055600080f35b506000546001600160a01b0316331415612b04565b506002543360109190911c6001600160a01b03161415612afe565b3461020157604036600319011261020157612b7c612e9a565b612b9160018060a01b03600054163314612f8a565b60018060a01b031660005260056020526002604060002001611fec602435825461306a565b34610201576000366003190112610201576020604051670de0b6b3a76400008152f35b34610201576060366003190112610201576004356001600160a01b03198116908190036102015760243590604435612c1c60018060a01b03600054163314612f8a565b8115612e3f57600254604051631d5e528f60e21b8152906020908290600490829060101c6001600160a01b03165afa908115610f5457600091612e0d575b50831015612dd757600354604051631d5e528f60e21b815290602090829060049082906001600160a01b03165afa908115610f5457600091612da5575b50811015612d6d576040516020810161414960f01b8152836022830152600e8252612cc3602e8361302a565b60018060a01b0391519020169182600052600560205260406000209160078301908154612d3757612d359560019360801c848060801b0319865416178555600a850155600b8401555560ff600481600254169201911660ff19825416179055612d2d60065461304d565b600655613358565b005b60405162461bcd60e51b815260206004820152600e60248201526d416c72656164792065786973747360901b6044820152606490fd5b60405162461bcd60e51b815260206004820152601060248201526f14d8dc9a5c1d081b9bdd08195e1a5cdd60821b6044820152606490fd5b90506020813d602011612dcf575b81612dc06020938361302a565b81010312610201575184612c97565b3d9150612db3565b60405162461bcd60e51b815260206004820152600e60248201526d12195c9bc81b9bdd08195e1a5cdd60921b6044820152606490fd5b90506020813d602011612e37575b81612e286020938361302a565b81010312610201575184612c5a565b3d9150612e1b565b60405162461bcd60e51b815260206004820152600a602482015269456d707479206e616d6560b01b6044820152606490fd5b346102015760203660031901126102015760043590602082101561020157602091602a01548152f35b600435906001600160a01b038216820361020157565b6004359063ffffffff8216820361020157565b9060208210156106fd57601f8260051c604a01921690565b6024359060ff8216820361020157565b6044359060ff8216820361020157565b6040810160408252825180915260206060830193019060005b818110612f6e5750505060208183039101526020808351928381520192019060005b818110612f435750505090565b8251805163ffffffff9081168652602091820151168186015260409094019390920191600101612f36565b825163ffffffff16855260209485019490920191600101612f14565b15612f9157565b60405162461bcd60e51b81526020600482015260096024820152682737ba1037bbb732b960b91b6044820152606490fd5b6101c081019081106001600160401b03821117612fde57604052565b634e487b7160e01b600052604160045260246000fd5b604081019081106001600160401b03821117612fde57604052565b60a081019081106001600160401b03821117612fde57604052565b601f909101601f19168101906001600160401b03821190821017612fde57604052565b60001981146115895760010190565b906032820180921161158957565b9190820180921161158957565b80546001600160a01b0360039390931b83811b199091169290931690921b179055565b60ff1660ff81146115895760010190565b9190820391821161158957565b63ffffffff168015611589576000190190565b6001600160401b038111612fde5760051b60200190565b906130ec826130cb565b6130f9604051918261302a565b828152809261310a601f19916130cb565b0190602036910137565b9061311e826130cb565b61312b604051918261302a565b828152809261313c601f19916130cb565b019060005b82811061314d57505050565b60209060405161315c81612ff4565b6000815260008382015282828501015201613141565b80518210156106fd5760209160051b010190565b9081602091031261020157516001600160a01b03811681036102015790565b6001600160401b038111612fde57601f01601f191660200190565b8115611ab2570490565b60ff6000199116019060ff821161158957565b9060088110156106fd5760051b0190565b60005b8381106132015750506000910152565b81810151838201526020016131f1565b602081830312610201578051906001600160401b038211610201570181601f82011215610201578051613243816131a5565b92613251604051948561302a565b818452602082840101116102015761326f91602080850191016131ee565b90565b9060078110156106fd5760051b0190565b60ff60019116019060ff821161158957565b519060ff8216820361020157565b906000905b600882106132b557505050565b60208060019285518152019301910190916132a8565b63ffffffff1663ffffffff81146115895760010190565b805463ffffffff60201b191660209290921b63ffffffff60201b16919091179055565b9060078210156106fd57601f8260051c61074c01921690565b6101008210156106fd570190600090565b60031b906107f860f883169216820361158957565b61ffff60019116019061ffff821161158957565b60009060018060a01b038116908183526005602052600c60408420019160ff66ffffffffffffff8454168161338c8761332f565b161c1660ff811415918261346e575b5050613469578260ff6133ad82613305565b90549060031b1c169361345557506101008310156106fd578260ff926133de61342f93600061345397604c01613077565b66ffffffffffffff84806133f2600061332f565b161b1666ffffffffffffff8254911982161666ffffffffffffff8487613418600061332f565b161b16179066ffffffffffffff1916179055613344565b1661343a6000613305565b90919060ff8084549260031b9316831b921b1916179055565b565b634e487b7160e01b81526032600452602490fd5b505050565b91506101008110156106fd57604c01546001600160a01b031614388061339b565b9060018060a01b038216806000526005602052600c6040600020019060ff66ffffffffffffff835416816134c28661332f565b161c169060ff821415918261355b575b50506134695760ff6134e383613305565b90549060031b1c169060078310156106fd576135548260ff9261351c6134539761351661343a978960081b604c0161331e565b90613077565b66ffffffffffffff848061352f8961332f565b161b1666ffffffffffffff8254911982161666ffffffffffffff84876134188b61332f565b1691613305565b90915060078410156106fd57613577908460081b604c0161331e565b905460039190911b1c6001600160a01b03161438806134d2565b61ffff1661ffff81146115895760010190565b9063ffffffff8091169116019063ffffffff821161158957565b60ff168015611589576000190190565b818102929160008212600160ff1b82141661158957818405149015171561158957565b60001992919060005b60ff811660208110156138795760208210156106fd57600a8201546001600160a01b03848116911614613633575060010160ff166135fa565b9192939450505b6000811261384f57601f90819060ff165b8160ff8216106137ce57505060208110156106fd57600a810180546001600160a01b03191690556000602a820155613686906127ec90612ec3565b60005b602060ff821610806137af575b80613798575b156136af576136aa9061309a565b613689565b9091601f5b60ff831660ff8216116136fe575060208210156106fd576134539282600a019060018060a01b031660018060a01b031982541617905581602a015561343a60ff6002541691612ec3565b613707816131ca565b60208110156106fd57600a01546001600160a01b031660208210156106fd57600a820180546001600160a01b0319166001600160a01b03909216919091179055613750816131ca565b9060208210156106fd5761379391602a015481602a015561378e60ff61377d613778846131ca565b612ec3565b90549060031b1c1661343a83612ec3565b6135be565b6136b4565b5060208110156106fd578281602a0154101561369c565b5060208110156106fd57600a8101546001600160a01b03161515613696565b6137d781613283565b60208110156106fd57600a01546001600160a01b031660208210156106fd57600a820180546001600160a01b0319166001600160a01b0390921691909117905561382081613283565b60208110156106fd5760ff91600191602a015481602a01556138488361377d61377884613283565b011661364b565b506029546001600160a01b031615158061386d575b15613686575050565b50604954821115613864565b505090919261363a565b60ff1680156138e757600181146138e157600281146138db57600381146138d557600481146138ce57600581146138c7576006146138c157602c1990565b601d1990565b50600e1990565b5060041990565b50600590565b50600f90565b50601e90565b50602d90565b60ff1680156139475760018114613941576002811461393b5760038114613935576004811461392f57600581146138e75760061461392a57601990565b602390565b50603790565b50604690565b50605590565b50606490565b5060789056fef0c57e16840df040f15088dc2f81fe391c3923bec73e23a9662efc9c229c6a00a2646970667358221220b850680234c0fc2d73f940dde6af898dbdb22258254cfb55a52aab1a45cd9fac64736f6c634300081b0033",
        "nonce": "0x36",
        "chainId": "0x89"
      },
      "additionalContracts": [],
      "isFixedGasLimit": false
    },
    {
      "hash": "0x50748ca6f756795d601e399e8eab11d83863d85c3c9ddbe6e5abe509fa84bd4a",
      "transactionType": "CREATE",
      "contractName": "TransparentUpgradeableProxy",
      "contractAddress": "0x7e1e59ad19385f948003fa6c28de32c7b3201dea",
      "function": null,
      "arguments": [
        "0xC92e751C6ebD0177F8aaBc4dc48E12f1b18b5B24",
        "0xdc328af6c71dF52966890A7f007179c25Be4FF3B",
        "0x485cc955000000000000000000000000dbab181421de02a422d1d2e18874f18255aaff11000000000000000000000000400ca0a825af9a54b7a116217c53b8e8ecf6334f"
      ],
      "transaction": {
        "from": "0xdc328af6c71df52966890a7f007179c25be4ff3b",
        "gas": "0xd4a8e",
        "value": "0x0",
        "input": "0x60a0604052610b1b8038038061001481610293565b928339810160608282031261028e5761002c826102b8565b610038602084016102b8565b604084015190936001600160401b03821161028e570182601f8201121561028e5780519061006d610068836102cc565b610293565b938285526020838301011161028e5760005b828110610279575050602060009184010152803b15610258577f360894a13ba1a3210667c828492db98dca3e2076cc3735a920a3ca505d382bbc80546001600160a01b0319166001600160a01b0383169081179091557fbc7cd75a20ee27fd9adebab32041f755214dbc6bffa90cc0225b39da2e5c2d3b600080a281511561023f5760008083602061013595519101845af43d15610237573d91610125610068846102cc565b9283523d6000602085013e6102e7565b505b6040519061048c8083016001600160401b0381118482101761022157602092849261066f84396001600160a01b031681520301906000f080156102155760018060a01b031680608052600080516020610afb833981519152547f7e644d79422f17c01e4894b5f4f588d331ebfa28653d42ae832dc59e38c9798f6040805160018060a01b0384168152846020820152a181156101ff576001600160a01b03191617600080516020610afb83398151915255604051610326908161034982396080518160070152f35b633173bdd160e11b600052600060045260246000fd5b6040513d6000823e3d90fd5b634e487b7160e01b600052604160045260246000fd5b6060916102e7565b505034156101375763b398979f60e01b60005260046000fd5b634c9c8ce360e01b60009081526001600160a01b0391909116600452602490fd5b8060208092840101518282880101520161007f565b600080fd5b6040519190601f01601f191682016001600160401b0381118382101761022157604052565b51906001600160a01b038216820361028e57565b6001600160401b03811161022157601f01601f191660200190565b9061030d57508051156102fc57805190602001fd5b63d6bda27560e01b60005260046000fd5b8151158061033f575b61031e575090565b639996b31560e01b60009081526001600160a01b0391909116600452602490fd5b50803b1561031656fe6080604052337f00000000000000000000000000000000000000000000000000000000000000006001600160a01b031603610069576000356001600160e01b03191663278f794360e11b1461005f576334ad5dbb60e21b60005260046000fd5b6100676100ff565b005b6000805160206102d18339815191525460009081906001600160a01b0316368280378136915af43d6000803e1561009f573d6000f35b3d6000fd5b634e487b7160e01b600052604160045260246000fd5b6040519190601f01601f191682016001600160401b038111838210176100df57604052565b6100a4565b6001600160401b0381116100df57601f01601f191660200190565b36600411610188576040366003190112610188576004356001600160a01b0381169081900361018857602435906001600160401b03821161018857366023830112156101885781600401359061015c610157836100e4565b6100ba565b9180835236602482860101116101885760208160009260246101869701838701378401015261018d565b565b600080fd5b90813b15610212576000805160206102d183398151915280546001600160a01b0319166001600160a01b0384169081179091557fbc7cd75a20ee27fd9adebab32041f755214dbc6bffa90cc0225b39da2e5c2d3b600080a28051156101f8576101f591610234565b50565b50503461020157565b63b398979f60e01b60005260046000fd5b50634c9c8ce360e01b60009081526001600160a01b0391909116600452602490fd5b60008061026893602081519101845af43d1561026b573d91610258610157846100e4565b9283523d6000602085013e61026f565b90565b6060915b90610295575080511561028457805190602001fd5b63d6bda27560e01b60005260046000fd5b815115806102c7575b6102a6575090565b639996b31560e01b60009081526001600160a01b0391909116600452602490fd5b50803b1561029e56fe360894a13ba1a3210667c828492db98dca3e2076cc3735a920a3ca505d382bbca2646970667358221220e856548078f645630d6d2b1cafa59a4f0d2848ca734466c2b095b8ecd417b0b564736f6c634300081b003360803460bc57601f61048c38819003918201601f19168301916001600160401b0383118484101760c15780849260209460405283398101031260bc57516001600160a01b0381169081900360bc57801560a657600080546001600160a01b031981168317825560405192916001600160a01b03909116907f8be0079c531659141344cd1fd0a4f28419497f9722a3daafe3b4186f6b6457e09080a36103b490816100d88239f35b631e4fbdf760e01b600052600060045260246000fd5b600080fd5b634e487b7160e01b600052604160045260246000fdfe6080604052600436101561001257600080fd5b6000803560e01c8063715018a6146102735780638da5cb5b1461024c5780639623609d1461011d578063ad3cb1cc146100d05763f2fde38b1461005457600080fd5b346100cd5760203660031901126100cd576004356001600160a01b038116908190036100cb57610082610335565b80156100b75781546001600160a01b03198116821783556001600160a01b031660008051602061035f8339815191528380a380f35b631e4fbdf760e01b82526004829052602482fd5b505b80fd5b50346100cd57806003193601126100cd57506101196040516100f36040826102bb565b60058152640352e302e360dc1b60208201526040519182916020835260208301906102f4565b0390f35b5060603660031901126100cd576004356001600160a01b038116908190036100cb576024356001600160a01b0381169081900361022c576044356001600160401b03811161024857366023820112156102485760048101356001600160401b038111610234576040518593929091906101a0601f8301601f1916602001846102bb565b81835236602483830101116102305781859260246020930183860137830101526101c8610335565b833b1561022c576101fe93839260405180968194829363278f794360e11b845260048401526040602484015260448301906102f4565b039134905af1801561021f576102115780f35b61021a916102bb565b388180f35b50604051903d90823e3d90fd5b8280fd5b8480fd5b634e487b7160e01b85526041600452602485fd5b8380fd5b50346100cd57806003193601126100cd57546040516001600160a01b039091168152602090f35b50346100cd57806003193601126100cd5761028c610335565b80546001600160a01b03198116825581906001600160a01b031660008051602061035f8339815191528280a380f35b601f909101601f19168101906001600160401b038211908210176102de57604052565b634e487b7160e01b600052604160045260246000fd5b919082519283825260005b848110610320575050826000602080949584010152601f8019910116010190565b806020809284010151828286010152016102ff565b6000546001600160a01b0316330361034957565b63118cdaa760e01b6000523360045260246000fdfe8be0079c531659141344cd1fd0a4f28419497f9722a3daafe3b4186f6b6457e0a2646970667358221220ab7643393a1349cbf008d5c66b53869dc9ea39736605ad81a7a4388b02bb229464736f6c634300081b0033b53127684a568b3173ae13b9f8a6016e243e63b6e8ee1178d6a717850b5d6103000000000000000000000000c92e751c6ebd0177f8aabc4dc48e12f1b18b5b24000000000000000000000000dc328af6c71df52966890a7f007179c25be4ff3b00000000000000000000000000000000000000000000000000000000000000600000000000000000000000000000000000000000000000000000000000000044485cc955000000000000000000000000dbab181421de02a422d1d2e18874f18255aaff11000000000000000000000000400ca0a825af9a54b7a116217c53b8e8ecf6334f00000000000000000000000000000000000000000000000000000000",
        "nonce": "0x37",
        "chainId": "0x89"
      },
      "additionalContracts": [
        {
          "transactionType": "CREATE",
          "contractName": "ProxyAdmin",
          "address": "0x08905d49cab7cadfa3594e07f5390539ff635e7a",
          "initCode": "0x60803460bc57601f61048c38819003918201601f19168301916001600160401b0383118484101760c15780849260209460405283398101031260bc57516001600160a01b0381169081900360bc57801560a657600080546001600160a01b031981168317825560405192916001600160a01b03909116907f8be0079c531659141344cd1fd0a4f28419497f9722a3daafe3b4186f6b6457e09080a36103b490816100d88239f35b631e4fbdf760e01b600052600060045260246000fd5b600080fd5b634e487b7160e01b600052604160045260246000fdfe6080604052600436101561001257600080fd5b6000803560e01c8063715018a6146102735780638da5cb5b1461024c5780639623609d1461011d578063ad3cb1cc146100d05763f2fde38b1461005457600080fd5b346100cd5760203660031901126100cd576004356001600160a01b038116908190036100cb57610082610335565b80156100b75781546001600160a01b03198116821783556001600160a01b031660008051602061035f8339815191528380a380f35b631e4fbdf760e01b82526004829052602482fd5b505b80fd5b50346100cd57806003193601126100cd57506101196040516100f36040826102bb565b60058152640352e302e360dc1b60208201526040519182916020835260208301906102f4565b0390f35b5060603660031901126100cd576004356001600160a01b038116908190036100cb576024356001600160a01b0381169081900361022c576044356001600160401b03811161024857366023820112156102485760048101356001600160401b038111610234576040518593929091906101a0601f8301601f1916602001846102bb565b81835236602483830101116102305781859260246020930183860137830101526101c8610335565b833b1561022c576101fe93839260405180968194829363278f794360e11b845260048401526040602484015260448301906102f4565b039134905af1801561021f576102115780f35b61021a916102bb565b388180f35b50604051903d90823e3d90fd5b8280fd5b8480fd5b634e487b7160e01b85526041600452602485fd5b8380fd5b50346100cd57806003193601126100cd57546040516001600160a01b039091168152602090f35b50346100cd57806003193601126100cd5761028c610335565b80546001600160a01b03198116825581906001600160a01b031660008051602061035f8339815191528280a380f35b601f909101601f19168101906001600160401b038211908210176102de57604052565b634e487b7160e01b600052604160045260246000fd5b919082519283825260005b848110610320575050826000602080949584010152601f8019910116010190565b806020809284010151828286010152016102ff565b6000546001600160a01b0316330361034957565b63118cdaa760e01b6000523360045260246000fdfe8be0079c531659141344cd1fd0a4f28419497f9722a3daafe3b4186f6b6457e0a2646970667358221220ab7643393a1349cbf008d5c66b53869dc9ea39736605ad81a7a4388b02bb229464736f6c634300081b0033000000000000000000000000dc328af6c71df52966890a7f007179c25be4ff3b"
        }
      ],
      "isFixedGasLimit": false
    },
    {
      "hash": "0xc33aea50f3936ff69c263d965eb895771a74882d1198f4469b347395441a100e",
      "transactionType": "CREATE",
      "contractName": "ClawUtility",
      "contractAddress": "0x3a2befb6e87ffa8d3ea5ad838e5ee9fe5a03a64e",
      "function": null,
      "arguments": [
        "0x7E1E59ad19385f948003Fa6C28DE32c7B3201DEa"
      ],
      "transaction": {
        "from": "0xdc328af6c71df52966890a7f007179c25be4ff3b",
        "gas": "0x18fc62",
        "value": "0x0",
        "input": "0x60803460d157601f6115d438819003918201601f19168301916001600160401b0383118484101760d65780849260209460405283398101031260d157516001600160a01b0381169081900360d157331560bb5760008054336001600160a01b0319821681178355604051939290916001600160a01b0316907f8be0079c531659141344cd1fd0a4f28419497f9722a3daafe3b4186f6b6457e09080a3600180546001600160a01b0319169190911790556114e790816100ed8239f35b631e4fbdf760e01b600052600060045260246000fd5b600080fd5b634e487b7160e01b600052604160045260246000fdfe608080604052600436101561001357600080fd5b600090813560e01c90816304c5d43014610b7d575080633dcdb672146108205780634fd00c43146107f7578063668c5c1a146107b1578063715018a6146107695780638da5cb5b14610742578063a10f956d14610716578063a65d7a5a146105c7578063ac3edc8614610494578063ecb4da5a146102d1578063efaca193146101215763f2fde38b146100a557600080fd5b3461011e57602036600319011261011e576004356001600160a01b0381169081900361011c576100d3611468565b80156101085781546001600160a01b03198116821783556001600160a01b03166000805160206114928339815191528380a380f35b631e4fbdf760e01b82526004829052602482fd5b505b80fd5b503461011e57602036600319011261011e578060043580820b808203610259578281136101af5750506001546001600160a01b0316803b156101ac57818091604460405180948193632752398d60e01b83523360048401528160248401525af180156101a15761019057505080f35b8161019a916110d4565b61011e5780f35b6040513d84823e3d90fd5b50fd5b8060216101cc92121590816102c5575b81156102a5575b506111af565b6001546040516306996d1960e31b81523360048201526001600160a01b0390911690602081602481855afa90811561029a57849161025d575b5061021990600160ff85161b1615156111ef565b803b1561025957604051632752398d60e01b815291839183918290849082906102469033600484016112e9565b03925af180156101a15761019057505080f35b5050fd5b9350506020833d602011610292575b81610279602093836110d4565b8101031261028d5761021984935190610205565b600080fd5b3d915061026c565b6040513d86823e3d90fd5b60018112159150816102b9575b50386101c6565b602091501315386102b2565b602a81131591506101bf565b503461011e57602036600319011261011e576102eb6110c4565b6102f4816113d6565b908115610460576001546040516306996d1960e31b81523360048201526001600160a01b0390911690602081602481855afa908115610455578591610423575b50600160ff84161b166103ee578392813b156103e9578391604483926040519485938492634bc6a73f60e11b845233600485015260248401525af19081156103de5783916103c9575b50506001546001600160a01b0316803b156102595760405163be5957d760e01b815291839183918290849082906103b8903360048401611307565b03925af180156101a1576101905750f35b816103d3916110d4565b6101ac57813861037d565b6040513d85823e3d90fd5b505050fd5b60405162461bcd60e51b815260206004820152600d60248201526c105b1c9958591e481bdddb9959609a1b6044820152606490fd5b90506020813d60201161044d575b8161043e602093836110d4565b8101031261028d575138610334565b3d9150610431565b6040513d87823e3d90fd5b60405162461bcd60e51b815260206004820152600c60248201526b496e76616c6964206974656d60a01b6044820152606490fd5b503461011e57602036600319011261011e57806104af6110c4565b60ff8116806105005750506001546001600160a01b0316803b156101ac57818091604460405180948193633d0e04d960e21b83523360048401528160248401525af180156101a15761019057505080f35b604061050d911115611227565b600154604051639ce67bdd60e01b81523360048201526001600160a01b0390911690602081602481855afa90811561029a57849161058f575b5061056290600160ff61055886611263565b161b16151561128c565b803b1561025957604051633d0e04d960e21b81529183918391829084908290610246903360048401611307565b9350506020833d6020116105bf575b816105ab602093836110d4565b8101031261028d5761056284935190610546565b3d915061059e565b50602036600319011261011e576105dc6110ad565b6001600160801b03198116156106e4576001546040516370c69c6760e11b8152336004820152839291602090829060249082906001600160a01b03165afa9081156103de5783916106b5575b506001600160801b031916156106a65761064b678ac7230489e80000341461116e565b61066d828080803460018060a01b038254165af1610667611324565b50611363565b6001546001600160a01b0316803b156102595760405163c5886fbd60e01b815291839183918290849082906103b89033600484016112c5565b6106b0341561112d565b61066d565b6106d7915060203d6020116106dd575b6106cf81836110d4565b81019061110d565b38610628565b503d6106c5565b60405162461bcd60e51b815260206004820152600a602482015269456d707479206e616d6560b01b6044820152606490fd5b503461011e57602036600319011261011e57602061073a6107356110c4565b6113d6565b604051908152f35b503461011e578060031936011261011e57546040516001600160a01b039091168152602090f35b503461011e578060031936011261011e57610782611468565b80546001600160a01b03198116825581906001600160a01b03166000805160206114928339815191528280a380f35b503461011e57602036600319011261011e576004356001600160a01b0381169081900361011c576107e0611468565b600180546001600160a01b03191691909117905580f35b503461011e578060031936011261011e576001546040516001600160a01b039091168152602090f35b503461011e578060031936011261011e57610839611468565b6001546040516336bb1d3760e11b815291906001600160a01b0316610c0083600481845afa9283156101a1578293610a57575b5060206004916040519283809263bcb3962160e01b82525afa80156101a1578290610a1c575b61089c9150611263565b60021b6103fc60fc821691168103610a08576001019160ff8311610a085760ff829316925b60ff811660208110156109fe576001600160a01b036108e082856113af565b5116156109be57806109965783905b6001546001600160a01b039081169160ff919061090c90876113af565b5116921686019160ff831161098257813b1561097e57918591610946938360405180968195829463be5957d760e01b845260048401611307565b03925af1801561029a57908491610965575b505060010160ff166108c1565b8161096f916110d4565b61097a578238610958565b8280fd5b8580fd5b634e487b7160e01b86526011600452602486fd5b600181036109a6576001906108ef565b600281036109b6576002906108ef565b6003906108ef565b50505090505b60015481906001600160a01b0316803b156101ac578180916004604051809481936312cd346d60e21b83525af180156101a1576101905750f35b50505090506109c4565b634e487b7160e01b82526011600452602482fd5b506020813d602011610a4f575b81610a36602093836110d4565b8101031261011c57610a4a61089c916113a1565b610892565b3d9150610a29565b909250610c003d8111610b76575b610a6f81836110d4565b8101610c008282031261097a5780601f8301121561097a5760405191610400610a9881856110d4565b8181019084848311610b725783905b838210610b4e5750508361041f8401121561097e57604051610ac982826110d4565b610800840192858411610b4a57905b838210610b3a5750508361081f8401121561097e57610c0090610afe60405191826110d4565b9201928311610b3657905b828210610b1e5750919391506020905061086c565b60208091610b2b846113a1565b815201910190610b09565b8480fd5b8151815260209182019101610ad8565b8780fd5b81516001600160a01b0381168103610b6e57815260209182019101610aa7565b8880fd5b8680fd5b503d610a65565b82606036600319011261011e57610b926110ad565b60243580830b808203610d47576044359160ff83169182840361097e576001600160801b0319851680158015929190889061106c576001546040516370c69c6760e11b8152336004820152999a508a9990602090829060249082906001600160a01b03165afa908115611061578a91611042575b506001600160801b031916828114610ffc5715610fec5750610c31678ac7230489e80000341461116e565b6001965b8883139384610f29575b8615159687610e93575b50610dbc575b50509580959612600014610d4b5750506001546001600160a01b0316803b15610d4757838091604460405180948193632752398d60e01b83523360048401528160248401525af190811561029a578491610d32575b50505b610cd5575b5050610cb55780f35b610cd28180808060018060a01b0381541634905af1610667611324565b80f35b6001546001600160a01b0316803b1561097a57604051633d0e04d960e21b81529183918391829084908290610d0e903360048401611307565b03925af180156101a15715610cac5781610d27916110d4565b61011c578183610cac565b81610d3c916110d4565b61097a578286610ca4565b8380fd5b610d56575b50610ca7565b6001546001600160a01b0316803b15610b3657604051632752398d60e01b81529185918391829084908290610d8f9033600484016112e9565b03925af190811561029a578491610da7575b50610d50565b81610db1916110d4565b61097a578286610da1565b6001546040516370c69c6760e11b81523360048201526001600160a01b039091169290602081602481875afa908115610e88578b91610e69575b506001600160801b03191614610c4f57813b15610b6e578891610e30916040519b8c8094819363c5886fbd60e01b835233600484016112c5565b03925af18015610e5e57610e47575b878798610c4f565b9495909681610e55916110d4565b94938690610e3f565b6040513d89823e3d90fd5b610e82915060203d6020116106dd576106cf81836110d4565b8c610df6565b6040513d8d823e3d90fd5b6040610ea0911115611227565b600154604051639ce67bdd60e01b815233600482015290602090829060249082906001600160a01b03165afa8015610e88578b90610ef1575b610eeb9150600160ff6105588c611263565b8b610c49565b506020813d602011610f21575b81610f0b602093836110d4565b81010312610f1d57610eeb9051610ed9565b8a80fd5b3d9150610efe565b602184121580610fe1575b8015610fca575b610f44906111af565b6001546040516306996d1960e31b815233600482015290602090829060249082906001600160a01b03165afa8015610e88578b90610f96575b610f919150600160ff89161b1615156111ef565b610c3f565b506020813d602011610fc2575b81610fb0602093836110d4565b81010312610f1d57610f919051610f7d565b3d9150610fa3565b5060018412158015610f3b57506020841315610f3b565b50602a841315610f34565b96610ff7341561112d565b610c35565b509697503461100c578897610c35565b60405162461bcd60e51b815260206004820152600e60248201526d13985b59481d5b98da185b99d95960921b6044820152606490fd5b61105b915060203d6020116106dd576106cf81836110d4565b8b610c06565b6040513d8c823e3d90fd5b963461107a57889950610c35565b62461bcd60e51b8a52602060048b0152600e60248b01526d4e6f206e616d65206368616e676560901b60448b015260648afd5b600435906001600160801b03198216820361028d57565b6004359060ff8216820361028d57565b601f909101601f19168101906001600160401b038211908210176110f757604052565b634e487b7160e01b600052604160045260246000fd5b9081602091031261028d57516001600160801b03198116810361028d5790565b1561113457565b60405162461bcd60e51b81526020600482015260126024820152714669727374206e616d65206973206672656560701b6044820152606490fd5b1561117557565b60405162461bcd60e51b8152602060048201526012602482015271115e1858dd08199959481c995c5d5a5c995960721b6044820152606490fd5b156111b657565b60405162461bcd60e51b8152602060048201526011602482015270496e76616c6964206e616d65706c61746560781b6044820152606490fd5b156111f657565b60405162461bcd60e51b8152602060048201526009602482015268139bdd081bdddb995960ba1b6044820152606490fd5b1561122e57565b60405162461bcd60e51b815260206004820152600d60248201526c496e76616c696420626164676560981b6044820152606490fd5b60ff6000199116019060ff821161127657565b634e487b7160e01b600052601160045260246000fd5b1561129357565b60405162461bcd60e51b815260206004820152600a602482015269139bdd0819585c9b995960b21b6044820152606490fd5b6001600160a01b0390911681526001600160801b0319909116602082015260400190565b6001600160a01b03909116815260009190910b602082015260400190565b6001600160a01b03909116815260ff909116602082015260400190565b3d1561135e573d906001600160401b0382116110f75760405191611352601f8201601f1916602001846110d4565b82523d6000602084013e565b606090565b1561136a57565b60405162461bcd60e51b815260206004820152600f60248201526e151c985b9cd9995c8819985a5b1959608a1b6044820152606490fd5b519060ff8216820361028d57565b9060208110156113c05760051b0190565b634e487b7160e01b600052603260045260246000fd5b60ff1660408114611461576041811461145a5760428114611453576043811461144d57602181101580611442575b61140e5750600090565b6020190160ff81116112765760ff1661012c81029080820461012c1490151715611276576101f401806101f4116112765790565b50602a811115611404565b50603290565b506103e890565b5061032090565b506107d090565b6000546001600160a01b0316330361147c57565b63118cdaa760e01b6000523360045260246000fdfe8be0079c531659141344cd1fd0a4f28419497f9722a3daafe3b4186f6b6457e0a2646970667358221220534acf01002e35a01020f8d9f3970d8e85720a6de2d80289c19777034313914164736f6c634300081b00330000000000000000000000007e1e59ad19385f948003fa6c28de32c7b3201dea",
        "nonce": "0x38",
        "chainId": "0x89"
      },
      "additionalContracts": [],
      "isFixedGasLimit": false
    },
    {
      "hash": "0x46df3d01a0cafdda33eb55b9a894a78bd404fac3df273c99ca0eacadf7dfac72",
      "transactionType": "CALL",
      "contractName": "LobsterHub",
      "contractAddress": "0xdbab181421de02a422d1d2e18874f18255aaff11",
      "function": "setClawArena(address)",
      "arguments": [
        "0x7E1E59ad19385f948003Fa6C28DE32c7B3201DEa"
      ],
      "transaction": {
        "from": "0xdc328af6c71df52966890a7f007179c25be4ff3b",
        "to": "0xdbab181421de02a422d1d2e18874f18255aaff11",
        "gas": "0xf961",
        "value": "0x0",
        "input": "0x668c5c1a0000000000000000000000007e1e59ad19385f948003fa6c28de32c7b3201dea",
        "nonce": "0x39",
        "chainId": "0x89"
      },
      "additionalContracts": [],
      "isFixedGasLimit": false
    },
    {
      "hash": "0x7200aca539725076dea77625f3371fa86f4156663ef129238adfbc4313ad2f21",
      "transactionType": "CALL",
      "contractName": "TransparentUpgradeableProxy",
      "contractAddress": "0x7e1e59ad19385f948003fa6c28de32c7b3201dea",
      "function": null,
      "arguments": null,
      "transaction": {
        "from": "0xdc328af6c71df52966890a7f007179c25be4ff3b",
        "to": "0x7e1e59ad19385f948003fa6c28de32c7b3201dea",
        "gas": "0x124c8",
        "value": "0x0",
        "input": "0x809d38200000000000000000000000003a2befb6e87ffa8d3ea5ad838e5ee9fe5a03a64e",
        "nonce": "0x3a",
        "chainId": "0x89"
      },
      "additionalContracts": [],
      "isFixedGasLimit": false
    },
    {
      "hash": "0xe78475c19ea08199cbac8555fec7f44463b4fc272e2d7c2c90a296ff6b5b7f55",
      "transactionType": "CALL",
      "contractName": "LobsterHub",
      "contractAddress": "0xdbab181421de02a422d1d2e18874f18255aaff11",
      "function": "initDefaultHeroes(uint256[],uint256[],bytes12[])",
      "arguments": [
        "[144116300489294862, 72059810241118741, 144396675987932427, 288247985534534922, 288300757814478090, 216735744968950545, 217298694955992585, 216313536799048202, 288234787100164872, 288239189424800523, 146367000808063506, 292733988697670667]",
        "[198655067491466862436933318370387072980229314047, 212806209585870565245141964569255050443598643761548, 51239213124321301690891424087437130525607514606160, 29232268061825575082690118148935538943481140352220, 117148512899075367595778726141703016068363242083860, 14901143713571181182906251417983235912381468538965, 43903492803940533730290700227684317641039429645040, 87804411820402843492520159358781220395876720332830, 366721504605047302163009909866317639705484522342540, 102334460149542141921176169777849296495897257582170, 44275458780277762311351929157020828228758686627995, 73992987583100774503691456724739438605841582045670]",
        "[0x49726f6e20436c6177000000, 0x526f636b204c6f6273000000, 0x47686f737420536872000000, 0x426c6f6f6420436c61000000, 0x457865637574720000000000, 0x54686f726e20536872000000, 0x43726974204c6f6273000000, 0x426c756520466c616d000000, 0x417263746963205368000000, 0x56656e742053687200000000, 0x4865726d6974205368000000, 0x4c75636b7920536872000000]"
      ],
      "transaction": {
        "from": "0xdc328af6c71df52966890a7f007179c25be4ff3b",
        "to": "0xdbab181421de02a422d1d2e18874f18255aaff11",
        "gas": "0x1ad89f",
        "value": "0x0",
        "input": "0xb82e56310000000000000000000000000000000000000000000000000000000000000060000000000000000000000000000000000000000000000000000000000000020000000000000000000000000000000000000000000000000000000000000003a0000000000000000000000000000000000000000000000000000000000000000c000000000000000000000000000000000000000000000000020001030102040e0000000000000000000000000000000000000000000000000100020400010215000000000000000000000000000000000000000000000000020100030302050b000000000000000000000000000000000000000000000000040010040102050a000000000000000000000000000000000000000000000000040040030202050a00000000000000000000000000000000000000000000000003020003010103110000000000000000000000000000000000000000000000000304000303020609000000000000000000000000000000000000000000000000030080040104020a0000000000000000000000000000000000000000000000000400040301040308000000000000000000000000000000000000000000000000040008040003030b0000000000000000000000000000000000000000000000000208000302010212000000000000000000000000000000000000000000000000041000030202040b000000000000000000000000000000000000000000000000000000000000000c00000000000000000000000022cc0055ff0055fffff30000aaff0033ff0055ff0000000000000000000000919ba0785a3c878078b4ff005f55507d6e6496918c0000000000000000000000230f2dc8008c1900323214ff0f001e1e053c140a5000000000000000000000001400643c28ff320fc8003cff19008c280ab41e14dc0000000000000000000000502800ffc83cc8781effff00823c00be640ae6961400000000000000000000000a321e64c83c23694b3cffb40f4632328c6e28785500000000000000000000001e0a3cb496ff6428d23cf0ff3c14aa461edc5a32f000000000000000000000003c1405ff8c64a04619ffdcc864280a963c14b4501e0000000000000000000000faebc8ffe6b4dcbe82fff5dcbe965af0dcaae6c88c0000000000000000000000460523e63c96961950ff78dc640a32c83278aa1e5a00000000000000000000001e4b643c96b432698c50d2e623506e418caf37789b000000000000000000000032a0c850dcff1ec3ebb4faff0a96be28d2fa14b9e6000000000000000000000000000000000000000000000000000000000000000c49726f6e20436c61770000000000000000000000000000000000000000000000526f636b204c6f6273000000000000000000000000000000000000000000000047686f7374205368720000000000000000000000000000000000000000000000426c6f6f6420436c610000000000000000000000000000000000000000000000457865637574720000000000000000000000000000000000000000000000000054686f726e20536872000000000000000000000000000000000000000000000043726974204c6f62730000000000000000000000000000000000000000000000426c756520466c616d0000000000000000000000000000000000000000000000417263746963205368000000000000000000000000000000000000000000000056656e74205368720000000000000000000000000000000000000000000000004865726d697420536800000000000000000000000000000000000000000000004c75636b79205368720000000000000000000000000000000000000000000000",
        "nonce": "0x3b",
        "chainId": "0x89"
      },
      "additionalContracts": [],
      "isFixedGasLimit": false
    },
    {
      "hash": "0xba62d4585d477ee3d4df59b70c0c05a0beb7970a43786f4e59d997cc12cf137c",
      "transactionType": "CALL",
      "contractName": "ScriptHub",
      "contractAddress": "0x400ca0a825af9a54b7a116217c53b8e8ecf6334f",
      "function": "initDefaultScripts(bytes[])",
      "arguments": [
        "[0x0307000000ff00000012000000ff00000000000000ff00000009000800000006ff00000001000000000000000000000000000000000000000000000000000000000000000000030600000f00000006ff00000001001700000001ff00000000040700000003000400000000000000000000000000000400040c0700000006000400000000000000000000000000000000000000000000000000000000000000000000000002000c000b00000004ff00000002000000000000000000000000000000000000000000000000000000000000000000010002031200000006ff000000010307000000060004000000000000000000000000000000000000000000000000000200030207000000060004000000000000000000000000000000000000000000000000000000000000000000000000020002001300000006ff00000002001700000001ff00000000001900000004ff000000010000000000000000000000040102020700000006ff000000050000000000000000000000000000000000000000000000000000000000000000000300020000000000000000000000000000000000000000000000000000000000000000000000000000000000000000030600, 0x0207000000ff00000012000000ff00000009000800000006ff00000001000000000000000000000000000000000000000000000000000000000000000000030600000200000006ff00000019001900000004ff0000000100000000000000000000000000000000000000000000030102010000000005ff0000000a0000000000000000000000000000000000000000000000000000000000000000000100020c0700000006000400000000000000000000000000000000000000000000000000000000000000000000000002000c031200000006ff00000001030700000006000400000000000000000000000000000000000000000000000000020003001900000004ff000000020000000000000000000000000000000000000000000000000000000000000000000100020207000000060004000000000000000000000000000000000000000000000000000000000000000000000000020002020700000006ff000000030000000000000000000000000000000000000000000000000000000000000000000300020000000000000000000000000000000000000000000000000000000000000000000000000000000000000000030600, 0x0307000000ff00000012001206ff00000112001206ff0000020a000800000006ff00000001000000000000000000000000000000000000000000000000000000000000000000030600001300000006ff00000002001700000001ff00000000001900000004ff000000010000000000000000000000040102000200000006ff00000028001900000004ff000000010000000000000000000000000000000000000000000003010203070000000600040000000000000000000000000000000000000000000000000000000000000000000000000200030407000000060004000000000000000000000000000000000000000000000000000000000000000000000000020004001700000001ff00000000030700000006ff00000005000000000000000000000000000000000000000000000400030207000000060004000000000000000000000000000000000000000000000000000000000000000000000000020002001900000004ff00000002000000000000000000000000000000000000000000000000000000000000000000030102040700000006ff000000040000000000000000000000000000000000000000000000000000000000000000000300040000000000000000000000000000000000000000000000000000000000000000000000000000000000000000030600, 0x0307000000ff00000012000000ff00000002000000ff0000000a000800000006ff00000001000000000000000000000000000000000000000000000000000000000000000000030600001300000006ff00000001001700000001ff0000000002070000000300040000000000000000000000000000040102000f00000006ff00000001040700000006000400000000000000000000000000000000000000000000000000020004031200000006ff000000010307000000060004000000000000000000000000000000000000000000000000000200030c0700000006000400000000000000000000000000000000000000000000000000000000000000000000000002000c0207000000060004000000000000000000000000000000000000000000000000000000000000000000000000020002001700000001ff00000000030700000006ff0000000500000000000000000000000000000000000000000000040003030700000006ff00000005000000000000000000000000000000000000000000000000000000000000000000030003020700000006ff000000050000000000000000000000000000000000000000000000000000000000000000000300020000000000000000000000000000000000000000000000000000000000000000000000000000000000000000030600, 0x0307000000ff00000012001206ff00000102000000ff00000009000800000006ff00000001000000000000000000000000000000000000000000000000000000000000000000030600001300000006ff00000002001700000001ff00000000001900000004ff000000010000000000000000000000040102001700000001ff00000000040200000006ff00000028040700000003000400000000000000000000000000000400040307000000060004000000000000000000000000000000000000000000000000000000000000000000000000020003040200000006ff000000320407000000060004000000000000000000000000000000000000000000000000000200040207000000060004000000000000000000000000000000000000000000000000000000000000000000000000020002001700000001ff00000000030700000006ff0000000500000000000000000000000000000000000000000000040003040700000006ff000000060000000000000000000000000000000000000000000000000000000000000000000300040000000000000000000000000000000000000000000000000000000000000000000000000000000000000000030600, 0x0207000000ff00000012000000ff00000009000800000006ff00000001000000000000000000000000000000000000000000000000000000000000000000030600000200000006ff00000014000000000000000000000000000000000000000000000000000000000000000000010002031200000006ff000000010307000000060004000000000000000000000000000000000000000000000000000200030c0700000006000400000000000000000000000000000000000000000000000000000000000000000000000002000c0207000000060004000000000000000000000000000000000000000000000000000000000000000000000000020002001700000001ff00000000020700000006ff0000000400000000000000000000000000000000000000000000040002020700000006ff00000005000000000000000000000000000000000000000000000000000000000000000000030002030700000006ff000000060000000000000000000000000000000000000000000000000000000000000000000300030000000000000000000000000000000000000000000000000000000000000000000000000000000000000000030600, 0x0307000000ff00000010010000ff00000012000000ff00000009000800000006ff00000001000000000000000000000000000000000000000000000000000000000000000000030600001300000006ff00000002001700000001ff00000000001900000004ff000000010000000000000000000000040102000f00000006ff00000001001700000001ff0000000003070000000300040000000000000000000000000000040003041200000006ff00000001040700000006000400000000000000000000000000000000000000000000000000020004000f00000006ff000000010307000000060004000000000000000000000000000000000000000000000000000200030207000000060004000000000000000000000000000000000000000000000000000000000000000000000000020002001700000001ff00000000030700000006ff0000000500000000000000000000000000000000000000000000040003030700000006ff000000060000000000000000000000000000000000000000000000000000000000000000000300030000000000000000000000000000000000000000000000000000000000000000000000000000000000000000030600, 0x0307000000ff00000012000000ff00000010010000ff00000009000800000006ff00000001000000000000000000000000000000000000000000000000000000000000000000030600020700000006ff00000001001700000001ff0000000000000000000000000000000000000000000000000000040102020700000006ff00000002000000000000000000000000000000000000000000000000000000000000000000030102031200000006ff00000001030700000006000400000000000000000000000000000000000000000000000000020003000f00000006ff000000010407000000060004000000000000000000000000000000000000000000000000000200040207000000060004000000000000000000000000000000000000000000000000000000000000000000000000020002000b00000004ff00000002000000000000000000000000000000000000000000000000000000000000000000010002030700000006ff000000070000000000000000000000000000000000000000000000000000000000000000000300030000000000000000000000000000000000000000000000000000000000000000000000000000000000000000030600, 0x0307000000ff00000003010000ff00000012001206ff00000109000800000006ff00000001000000000000000000000000000000000000000000000000000000000000000000030600010000000006ff00000000001700000001ff0000000000000000000000000000000000000000000000000000040600020700000006ff00000001001700000001ff0000000000000000000000000000000000000000000000000000040102020700000006ff000000020000000000000000000000000000000000000000000000000000000000000000000301020407000000060004000000000000000000000000000000000000000000000000000000000000000000000000020004000f00000006ff000000010307000000060004000000000000000000000000000000000000000000000000000200030207000000060004000000000000000000000000000000000000000000000000000000000000000000000000020002020700000006ff000000070000000000000000000000000000000000000000000000000000000000000000000300020000000000000000000000000000000000000000000000000000000000000000000000000000000000000000030600, 0x0307000000ff0000001a010000ff00000014010000ff00000009000800000006ff00000001000000000000000000000000000000000000000000000000000000000000000000030600001300000006ff00000002001700000001ff00000000001900000004ff000000010000000000000000000000040102000f00000006ff00000001030700000006000400000000000000000000000000000000000000000000000000020003021200000006ff000000010207000000060004000000000000000000000000000000000000000000000000000200020407000000060004000000000000000000000000000000000000000000000000000000000000000000000000020004000b00000004ff000000020000000000000000000000000000000000000000000000000000000000000000000100020207000000060004000000000000000000000000000000000000000000000000000000000000000000000000020002020700000006ff000000060000000000000000000000000000000000000000000000000000000000000000000300020000000000000000000000000000000000000000000000000000000000000000000000000000000000000000030600, 0x0207000000ff00000012000000ff0000000a000800000006ff00000001000000000000000000000000000000000000000000000000000000000000000000030600001300000006ff00000002001700000001ff00000000001900000004ff000000010000000000000000000000040102010000000005ff0000000a020700000006ff00000002001700000001ff000000000000000000000000000000040102010000000005ff0000000a000000000000000000000000000000000000000000000000000000000000000000010002001900000004ff00000002000000000000000000000000000000000000000000000000000000000000000000030102031200000006ff00000001030700000006000400000000000000000000000000000000000000000000000000020003001900000006ff00000001020700000006000400000000000000000000000000000000000000000000000000020002001900000004ff00000001000000000000000000000000000000000000000000000000000000000000000000010002030700000006ff000000040000000000000000000000000000000000000000000000000000000000000000000300030000000000000000000000000000000000000000000000000000000000000000000000000000000000000000030600, 0x0307000000ff00000012001206ff00000110010000ff00000009000800000006ff00000001000000000000000000000000000000000000000000000000000000000000000000030600010000000005ff00000005001700000001ff00000000030700000006ff0000000700000000000000000000000400030307000000060004000000000000000000000000000000000000000000000000000000000000000000000000020003000f00000006ff00000001040700000006000400000000000000000000000000000000000000000000000000020004001700000001ff000000000307000000030004000000030700000006ff0000000500000000000000000000000400030207000000060004000000000000000000000000000000000000000000000000000000000000000000000000020002001700000001ff00000000020700000003ff0000000300000000000000000000000000000000000000000000040002020700000006ff000000060000000000000000000000000000000000000000000000000000000000000000000300020000000000000000000000000000000000000000000000000000000000000000000000000000000000000000030600]"
      ],
      "transaction": {
        "from": "0xdc328af6c71df52966890a7f007179c25be4ff3b",
        "to": "0x400ca0a825af9a54b7a116217c53b8e8ecf6334f",
        "gas": "0x5bdd9d",
        "value": "0x0",
        "input": "0xcfa202310000000000000000000000000000000000000000000000000000000000000020000000000000000000000000000000000000000000000000000000000000000c000000000000000000000000000000000000000000000000000000000000018000000000000000000000000000000000000000000000000000000000000003800000000000000000000000000000000000000000000000000000000000000560000000000000000000000000000000000000000000000000000000000000078000000000000000000000000000000000000000000000000000000000000009a00000000000000000000000000000000000000000000000000000000000000ba00000000000000000000000000000000000000000000000000000000000000d800000000000000000000000000000000000000000000000000000000000000f8000000000000000000000000000000000000000000000000000000000000011800000000000000000000000000000000000000000000000000000000000001380000000000000000000000000000000000000000000000000000000000000158000000000000000000000000000000000000000000000000000000000000017a000000000000000000000000000000000000000000000000000000000000001c10307000000ff00000012000000ff00000000000000ff00000009000800000006ff00000001000000000000000000000000000000000000000000000000000000000000000000030600000f00000006ff00000001001700000001ff00000000040700000003000400000000000000000000000000000400040c0700000006000400000000000000000000000000000000000000000000000000000000000000000000000002000c000b00000004ff00000002000000000000000000000000000000000000000000000000000000000000000000010002031200000006ff000000010307000000060004000000000000000000000000000000000000000000000000000200030207000000060004000000000000000000000000000000000000000000000000000000000000000000000000020002001300000006ff00000002001700000001ff00000000001900000004ff000000010000000000000000000000040102020700000006ff0000000500000000000000000000000000000000000000000000000000000000000000000003000200000000000000000000000000000000000000000000000000000000000000000000000000000000000000000306000000000000000000000000000000000000000000000000000000000000000000000000000000000000000000000000000000000000000000000000000001b90207000000ff00000012000000ff00000009000800000006ff00000001000000000000000000000000000000000000000000000000000000000000000000030600000200000006ff00000019001900000004ff0000000100000000000000000000000000000000000000000000030102010000000005ff0000000a0000000000000000000000000000000000000000000000000000000000000000000100020c0700000006000400000000000000000000000000000000000000000000000000000000000000000000000002000c031200000006ff00000001030700000006000400000000000000000000000000000000000000000000000000020003001900000004ff000000020000000000000000000000000000000000000000000000000000000000000000000100020207000000060004000000000000000000000000000000000000000000000000000000000000000000000000020002020700000006ff0000000300000000000000000000000000000000000000000000000000000000000000000003000200000000000000000000000000000000000000000000000000000000000000000000000000000000000000000306000000000000000000000000000000000000000000000000000000000000000000000000000001f00307000000ff00000012001206ff00000112001206ff0000020a000800000006ff00000001000000000000000000000000000000000000000000000000000000000000000000030600001300000006ff00000002001700000001ff00000000001900000004ff000000010000000000000000000000040102000200000006ff00000028001900000004ff000000010000000000000000000000000000000000000000000003010203070000000600040000000000000000000000000000000000000000000000000000000000000000000000000200030407000000060004000000000000000000000000000000000000000000000000000000000000000000000000020004001700000001ff00000000030700000006ff00000005000000000000000000000000000000000000000000000400030207000000060004000000000000000000000000000000000000000000000000000000000000000000000000020002001900000004ff00000002000000000000000000000000000000000000000000000000000000000000000000030102040700000006ff0000000400000000000000000000000000000000000000000000000000000000000000000003000400000000000000000000000000000000000000000000000000000000000000000000000000000000000000000306000000000000000000000000000000000000000000000000000000000000000000000000000000000000000000000001f00307000000ff00000012000000ff00000002000000ff0000000a000800000006ff00000001000000000000000000000000000000000000000000000000000000000000000000030600001300000006ff00000001001700000001ff0000000002070000000300040000000000000000000000000000040102000f00000006ff00000001040700000006000400000000000000000000000000000000000000000000000000020004031200000006ff000000010307000000060004000000000000000000000000000000000000000000000000000200030c0700000006000400000000000000000000000000000000000000000000000000000000000000000000000002000c0207000000060004000000000000000000000000000000000000000000000000000000000000000000000000020002001700000001ff00000000030700000006ff0000000500000000000000000000000000000000000000000000040003030700000006ff00000005000000000000000000000000000000000000000000000000000000000000000000030003020700000006ff0000000500000000000000000000000000000000000000000000000000000000000000000003000200000000000000000000000000000000000000000000000000000000000000000000000000000000000000000306000000000000000000000000000000000000000000000000000000000000000000000000000000000000000000000001c10307000000ff00000012001206ff00000102000000ff00000009000800000006ff00000001000000000000000000000000000000000000000000000000000000000000000000030600001300000006ff00000002001700000001ff00000000001900000004ff000000010000000000000000000000040102001700000001ff00000000040200000006ff00000028040700000003000400000000000000000000000000000400040307000000060004000000000000000000000000000000000000000000000000000000000000000000000000020003040200000006ff000000320407000000060004000000000000000000000000000000000000000000000000000200040207000000060004000000000000000000000000000000000000000000000000000000000000000000000000020002001700000001ff00000000030700000006ff0000000500000000000000000000000000000000000000000000040003040700000006ff0000000600000000000000000000000000000000000000000000000000000000000000000003000400000000000000000000000000000000000000000000000000000000000000000000000000000000000000000306000000000000000000000000000000000000000000000000000000000000000000000000000000000000000000000000000000000000000000000000000001b90207000000ff00000012000000ff00000009000800000006ff00000001000000000000000000000000000000000000000000000000000000000000000000030600000200000006ff00000014000000000000000000000000000000000000000000000000000000000000000000010002031200000006ff000000010307000000060004000000000000000000000000000000000000000000000000000200030c0700000006000400000000000000000000000000000000000000000000000000000000000000000000000002000c0207000000060004000000000000000000000000000000000000000000000000000000000000000000000000020002001700000001ff00000000020700000006ff0000000400000000000000000000000000000000000000000000040002020700000006ff00000005000000000000000000000000000000000000000000000000000000000000000000030002030700000006ff0000000600000000000000000000000000000000000000000000000000000000000000000003000300000000000000000000000000000000000000000000000000000000000000000000000000000000000000000306000000000000000000000000000000000000000000000000000000000000000000000000000001c10307000000ff00000010010000ff00000012000000ff00000009000800000006ff00000001000000000000000000000000000000000000000000000000000000000000000000030600001300000006ff00000002001700000001ff00000000001900000004ff000000010000000000000000000000040102000f00000006ff00000001001700000001ff0000000003070000000300040000000000000000000000000000040003041200000006ff00000001040700000006000400000000000000000000000000000000000000000000000000020004000f00000006ff000000010307000000060004000000000000000000000000000000000000000000000000000200030207000000060004000000000000000000000000000000000000000000000000000000000000000000000000020002001700000001ff00000000030700000006ff0000000500000000000000000000000000000000000000000000040003030700000006ff0000000600000000000000000000000000000000000000000000000000000000000000000003000300000000000000000000000000000000000000000000000000000000000000000000000000000000000000000306000000000000000000000000000000000000000000000000000000000000000000000000000000000000000000000000000000000000000000000000000001c10307000000ff00000012000000ff00000010010000ff00000009000800000006ff00000001000000000000000000000000000000000000000000000000000000000000000000030600020700000006ff00000001001700000001ff0000000000000000000000000000000000000000000000000000040102020700000006ff00000002000000000000000000000000000000000000000000000000000000000000000000030102031200000006ff00000001030700000006000400000000000000000000000000000000000000000000000000020003000f00000006ff000000010407000000060004000000000000000000000000000000000000000000000000000200040207000000060004000000000000000000000000000000000000000000000000000000000000000000000000020002000b00000004ff00000002000000000000000000000000000000000000000000000000000000000000000000010002030700000006ff0000000700000000000000000000000000000000000000000000000000000000000000000003000300000000000000000000000000000000000000000000000000000000000000000000000000000000000000000306000000000000000000000000000000000000000000000000000000000000000000000000000000000000000000000000000000000000000000000000000001c10307000000ff00000003010000ff00000012001206ff00000109000800000006ff00000001000000000000000000000000000000000000000000000000000000000000000000030600010000000006ff00000000001700000001ff0000000000000000000000000000000000000000000000000000040600020700000006ff00000001001700000001ff0000000000000000000000000000000000000000000000000000040102020700000006ff000000020000000000000000000000000000000000000000000000000000000000000000000301020407000000060004000000000000000000000000000000000000000000000000000000000000000000000000020004000f00000006ff000000010307000000060004000000000000000000000000000000000000000000000000000200030207000000060004000000000000000000000000000000000000000000000000000000000000000000000000020002020700000006ff0000000700000000000000000000000000000000000000000000000000000000000000000003000200000000000000000000000000000000000000000000000000000000000000000000000000000000000000000306000000000000000000000000000000000000000000000000000000000000000000000000000000000000000000000000000000000000000000000000000001c10307000000ff0000001a010000ff00000014010000ff00000009000800000006ff00000001000000000000000000000000000000000000000000000000000000000000000000030600001300000006ff00000002001700000001ff00000000001900000004ff000000010000000000000000000000040102000f00000006ff00000001030700000006000400000000000000000000000000000000000000000000000000020003021200000006ff000000010207000000060004000000000000000000000000000000000000000000000000000200020407000000060004000000000000000000000000000000000000000000000000000000000000000000000000020004000b00000004ff000000020000000000000000000000000000000000000000000000000000000000000000000100020207000000060004000000000000000000000000000000000000000000000000000000000000000000000000020002020700000006ff0000000600000000000000000000000000000000000000000000000000000000000000000003000200000000000000000000000000000000000000000000000000000000000000000000000000000000000000000306000000000000000000000000000000000000000000000000000000000000000000000000000000000000000000000000000000000000000000000000000001e80207000000ff00000012000000ff0000000a000800000006ff00000001000000000000000000000000000000000000000000000000000000000000000000030600001300000006ff00000002001700000001ff00000000001900000004ff000000010000000000000000000000040102010000000005ff0000000a020700000006ff00000002001700000001ff000000000000000000000000000000040102010000000005ff0000000a000000000000000000000000000000000000000000000000000000000000000000010002001900000004ff00000002000000000000000000000000000000000000000000000000000000000000000000030102031200000006ff00000001030700000006000400000000000000000000000000000000000000000000000000020003001900000006ff00000001020700000006000400000000000000000000000000000000000000000000000000020002001900000004ff00000001000000000000000000000000000000000000000000000000000000000000000000010002030700000006ff00000004000000000000000000000000000000000000000000000000000000000000000000030003000000000000000000000000000000000000000000000000000000000000000000000000000000000000000003060000000000000000000000000000000000000000000000000000000000000000000000000000000000000000000000000000000000000001c10307000000ff00000012001206ff00000110010000ff00000009000800000006ff00000001000000000000000000000000000000000000000000000000000000000000000000030600010000000005ff00000005001700000001ff00000000030700000006ff0000000700000000000000000000000400030307000000060004000000000000000000000000000000000000000000000000000000000000000000000000020003000f00000006ff00000001040700000006000400000000000000000000000000000000000000000000000000020004001700000001ff000000000307000000030004000000030700000006ff0000000500000000000000000000000400030207000000060004000000000000000000000000000000000000000000000000000000000000000000000000020002001700000001ff00000000020700000003ff0000000300000000000000000000000000000000000000000000040002020700000006ff00000006000000000000000000000000000000000000000000000000000000000000000000030002000000000000000000000000000000000000000000000000000000000000000000000000000000000000000003060000000000000000000000000000000000000000000000000000000000000000",
        "nonce": "0x3c",
        "chainId": "0x89"
      },
      "additionalContracts": [],
      "isFixedGasLimit": false
    },
    {
      "hash": "0xeb7e783ccac7bb41c65882b6551b00e9ed83a2c7207f0f593a115b9a9feb18a4",
      "transactionType": "CALL",
      "contractName": "TransparentUpgradeableProxy",
      "contractAddress": "0x7e1e59ad19385f948003fa6c28de32c7b3201dea",
      "function": null,
      "arguments": null,
      "transaction": {
        "from": "0xdc328af6c71df52966890a7f007179c25be4ff3b",
        "to": "0x7e1e59ad19385f948003fa6c28de32c7b3201dea",
        "gas": "0x422a1",
        "value": "0x0",
        "input": "0x0339887349726f6e20436c6177000000000000000000000000000000000000000000000000000000000000000000000000000000000000000000000000000000000000000000000000000000000000000000000000000000000000000000000000000000",
        "nonce": "0x3d",
        "chainId": "0x89"
      },
      "additionalContracts": [],
      "isFixedGasLimit": false
    },
    {
      "hash": "0x4c2c373491dc8cb503d93898cb27cca96f7c2008cba50957663ca6afb60f5768",
      "transactionType": "CALL",
      "contractName": "TransparentUpgradeableProxy",
      "contractAddress": "0x7e1e59ad19385f948003fa6c28de32c7b3201dea",
      "function": null,
      "arguments": null,
      "transaction": {
        "from": "0xdc328af6c71df52966890a7f007179c25be4ff3b",
        "to": "0x7e1e59ad19385f948003fa6c28de32c7b3201dea",
        "gas": "0x47c52",
        "value": "0x0",
        "input": "0x03398873526f636b204c6f6273000000000000000000000000000000000000000000000000000000000000000000000000000000000000000000000000000000000000010000000000000000000000000000000000000000000000000000000000000001",
        "nonce": "0x3e",
        "chainId": "0x89"
      },
      "additionalContracts": [],
      "isFixedGasLimit": false
    },
    {
      "hash": "0xf777d6408348114734c036fffbd76b7553fa0ce407cd38b515844896a787e01a",
      "transactionType": "CALL",
      "contractName": "TransparentUpgradeableProxy",
      "contractAddress": "0x7e1e59ad19385f948003fa6c28de32c7b3201dea",
      "function": null,
      "arguments": null,
      "transaction": {
        "from": "0xdc328af6c71df52966890a7f007179c25be4ff3b",
        "to": "0x7e1e59ad19385f948003fa6c28de32c7b3201dea",
        "gas": "0x47c52",
        "value": "0x0",
        "input": "0x0339887347686f737420536872000000000000000000000000000000000000000000000000000000000000000000000000000000000000000000000000000000000000020000000000000000000000000000000000000000000000000000000000000002",
        "nonce": "0x3f",
        "chainId": "0x89"
      },
      "additionalContracts": [],
      "isFixedGasLimit": false
    },
    {
      "hash": "0x8f642721440064f406ad6af29cc5bd6d3bb9c53156869924deb229c071960012",
      "transactionType": "CALL",
      "contractName": "TransparentUpgradeableProxy",
      "contractAddress": "0x7e1e59ad19385f948003fa6c28de32c7b3201dea",
      "function": null,
      "arguments": null,
      "transaction": {
        "from": "0xdc328af6c71df52966890a7f007179c25be4ff3b",
        "to": "0x7e1e59ad19385f948003fa6c28de32c7b3201dea",
        "gas": "0x47c52",
        "value": "0x0",
        "input": "0x03398873426c6f6f6420436c61000000000000000000000000000000000000000000000000000000000000000000000000000000000000000000000000000000000000030000000000000000000000000000000000000000000000000000000000000003",
        "nonce": "0x40",
        "chainId": "0x89"
      },
      "additionalContracts": [],
      "isFixedGasLimit": false
    },
    {
      "hash": "0x7b74c44341eebfa171870ebb93531ba92af241bcff42efbb3fb41bbce9e4d9d6",
      "transactionType": "CALL",
      "contractName": "TransparentUpgradeableProxy",
      "contractAddress": "0x7e1e59ad19385f948003fa6c28de32c7b3201dea",
      "function": null,
      "arguments": null,
      "transaction": {
        "from": "0xdc328af6c71df52966890a7f007179c25be4ff3b",
        "to": "0x7e1e59ad19385f948003fa6c28de32c7b3201dea",
        "gas": "0x47c31",
        "value": "0x0",
        "input": "0x03398873457865637574720000000000000000000000000000000000000000000000000000000000000000000000000000000000000000000000000000000000000000040000000000000000000000000000000000000000000000000000000000000004",
        "nonce": "0x41",
        "chainId": "0x89"
      },
      "additionalContracts": [],
      "isFixedGasLimit": false
    },
    {
      "hash": "0x6aa287048c88478d337584e17f1111f67858be4ac8443ebc7ecdc6ca19e944c2",
      "transactionType": "CALL",
      "contractName": "TransparentUpgradeableProxy",
      "contractAddress": "0x7e1e59ad19385f948003fa6c28de32c7b3201dea",
      "function": null,
      "arguments": null,
      "transaction": {
        "from": "0xdc328af6c71df52966890a7f007179c25be4ff3b",
        "to": "0x7e1e59ad19385f948003fa6c28de32c7b3201dea",
        "gas": "0x47c52",
        "value": "0x0",
        "input": "0x0339887354686f726e20536872000000000000000000000000000000000000000000000000000000000000000000000000000000000000000000000000000000000000050000000000000000000000000000000000000000000000000000000000000005",
        "nonce": "0x42",
        "chainId": "0x89"
      },
      "additionalContracts": [],
      "isFixedGasLimit": false
    },
    {
      "hash": "0x875336c25bef7e30b9175d394f47b5f79a5fcdca0bf06db2f2f92aa31fedd355",
      "transactionType": "CALL",
      "contractName": "TransparentUpgradeableProxy",
      "contractAddress": "0x7e1e59ad19385f948003fa6c28de32c7b3201dea",
      "function": null,
      "arguments": null,
      "transaction": {
        "from": "0xdc328af6c71df52966890a7f007179c25be4ff3b",
        "to": "0x7e1e59ad19385f948003fa6c28de32c7b3201dea",
        "gas": "0x47c52",
        "value": "0x0",
        "input": "0x0339887343726974204c6f6273000000000000000000000000000000000000000000000000000000000000000000000000000000000000000000000000000000000000060000000000000000000000000000000000000000000000000000000000000006",
        "nonce": "0x43",
        "chainId": "0x89"
      },
      "additionalContracts": [],
      "isFixedGasLimit": false
    },
    {
      "hash": "0x4ba645862a878b5c5dc0ca3e2b9b70d9e57b79adda93b3e23072cb62634c6c45",
      "transactionType": "CALL",
      "contractName": "TransparentUpgradeableProxy",
      "contractAddress": "0x7e1e59ad19385f948003fa6c28de32c7b3201dea",
      "function": null,
      "arguments": null,
      "transaction": {
        "from": "0xdc328af6c71df52966890a7f007179c25be4ff3b",
        "to": "0x7e1e59ad19385f948003fa6c28de32c7b3201dea",
        "gas": "0x47c52",
        "value": "0x0",
        "input": "0x03398873426c756520466c616d000000000000000000000000000000000000000000000000000000000000000000000000000000000000000000000000000000000000070000000000000000000000000000000000000000000000000000000000000007",
        "nonce": "0x44",
        "chainId": "0x89"
      },
      "additionalContracts": [],
      "isFixedGasLimit": false
    },
    {
      "hash": "0x65201073d613a900223ffb4604770d592813196dbf1186efc55cbfc86fac3cdf",
      "transactionType": "CALL",
      "contractName": "TransparentUpgradeableProxy",
      "contractAddress": "0x7e1e59ad19385f948003fa6c28de32c7b3201dea",
      "function": null,
      "arguments": null,
      "transaction": {
        "from": "0xdc328af6c71df52966890a7f007179c25be4ff3b",
        "to": "0x7e1e59ad19385f948003fa6c28de32c7b3201dea",
        "gas": "0x47c52",
        "value": "0x0",
        "input": "0x03398873417263746963205368000000000000000000000000000000000000000000000000000000000000000000000000000000000000000000000000000000000000080000000000000000000000000000000000000000000000000000000000000008",
        "nonce": "0x45",
        "chainId": "0x89"
      },
      "additionalContracts": [],
      "isFixedGasLimit": false
    },
    {
      "hash": "0x9eaa45063480bfd0dee6435126e28bbd61e550b15deba0b10e6ae795edf06262",
      "transactionType": "CALL",
      "contractName": "TransparentUpgradeableProxy",
      "contractAddress": "0x7e1e59ad19385f948003fa6c28de32c7b3201dea",
      "function": null,
      "arguments": null,
      "transaction": {
        "from": "0xdc328af6c71df52966890a7f007179c25be4ff3b",
        "to": "0x7e1e59ad19385f948003fa6c28de32c7b3201dea",
        "gas": "0x4bfce",
        "value": "0x0",
        "input": "0x0339887356656e742053687200000000000000000000000000000000000000000000000000000000000000000000000000000000000000000000000000000000000000090000000000000000000000000000000000000000000000000000000000000009",
        "nonce": "0x46",
        "chainId": "0x89"
      },
      "additionalContracts": [],
      "isFixedGasLimit": false
    },
    {
      "hash": "0x8fdaee11f35e3bed465f0ca226149b30e46faa6b3ee46fc8a4c5aa014602facd",
      "transactionType": "CALL",
      "contractName": "TransparentUpgradeableProxy",
      "contractAddress": "0x7e1e59ad19385f948003fa6c28de32c7b3201dea",
      "function": null,
      "arguments": null,
      "transaction": {
        "from": "0xdc328af6c71df52966890a7f007179c25be4ff3b",
        "to": "0x7e1e59ad19385f948003fa6c28de32c7b3201dea",
        "gas": "0x47c52",
        "value": "0x0",
        "input": "0x033988734865726d69742053680000000000000000000000000000000000000000000000000000000000000000000000000000000000000000000000000000000000000a000000000000000000000000000000000000000000000000000000000000000a",
        "nonce": "0x47",
        "chainId": "0x89"
      },
      "additionalContracts": [],
      "isFixedGasLimit": false
    },
    {
      "hash": "0x5afcdade1a836f318d3b77f2e0effb2f8914a113bfc14bf1b58663146441adc5",
      "transactionType": "CALL",
      "contractName": "TransparentUpgradeableProxy",
      "contractAddress": "0x7e1e59ad19385f948003fa6c28de32c7b3201dea",
      "function": null,
      "arguments": null,
      "transaction": {
        "from": "0xdc328af6c71df52966890a7f007179c25be4ff3b",
        "to": "0x7e1e59ad19385f948003fa6c28de32c7b3201dea",
        "gas": "0x47c52",
        "value": "0x0",
        "input": "0x033988734c75636b79205368720000000000000000000000000000000000000000000000000000000000000000000000000000000000000000000000000000000000000b000000000000000000000000000000000000000000000000000000000000000b",
        "nonce": "0x48",
        "chainId": "0x89"
      },
      "additionalContracts": [],
      "isFixedGasLimit": false
    }
  ],
  "receipts": [
    {
      "status": "0x1",
      "cumulativeGasUsed": "0x39e0b4f",
      "logs": [
        {
          "address": "0x400ca0a825af9a54b7a116217c53b8e8ecf6334f",
          "topics": [
            "0x8be0079c531659141344cd1fd0a4f28419497f9722a3daafe3b4186f6b6457e0",
            "0x0000000000000000000000000000000000000000000000000000000000000000",
            "0x000000000000000000000000dc328af6c71df52966890a7f007179c25be4ff3b"
          ],
          "data": "0x",
          "blockHash": "0x1590c60bc0815a8d31c9fda2bd2b2ec37d9229abfb523062ef3827ed5fd8de80",
          "blockNumber": "0x50c691d",
          "blockTimestamp": "0x69c5025d",
          "transactionHash": "0x9f83dfffcb2c0cf1d31c7118ccdcd4b3e7df86c68202f5d93079590efb6b2249",
          "transactionIndex": "0x133",
          "logIndex": "0xa80",
          "removed": false
        },
        {
          "address": "0x0000000000000000000000000000000000001010",
          "topics": [
            "0x4dfe1bbbcf077ddc3e01291eea2d5c70c2b422b415d95645b9adcfd678cb1d63",
            "0x0000000000000000000000000000000000000000000000000000000000001010",
            "0x000000000000000000000000dc328af6c71df52966890a7f007179c25be4ff3b",
            "0x0000000000000000000000007ee41d8a25641000661b1ef5e6ae8a00400466b0"
          ],
          "data": "0x00000000000000000000000000000000000000000000000000821598c68d3e2e000000000000000000000000000000000000000000000002b0689a136375cdfd00000000000000000000000000000000000000000008bceedfd3110cf9bd9c68000000000000000000000000000000000000000000000002afe6847a9ce88fcf00000000000000000000000000000000000000000008bceee05526a5c04ada96",
          "blockHash": "0x1590c60bc0815a8d31c9fda2bd2b2ec37d9229abfb523062ef3827ed5fd8de80",
          "blockNumber": "0x50c691d",
          "blockTimestamp": "0x69c5025d",
          "transactionHash": "0x9f83dfffcb2c0cf1d31c7118ccdcd4b3e7df86c68202f5d93079590efb6b2249",
          "transactionIndex": "0x133",
          "logIndex": "0xa81",
          "removed": false
        }
      ],
      "logsBloom": "0x00000000040000000000000000000000000000000000000000800000000000000000000000000000000000000000000000008000000000000000000000000800000000000000000000000000000000800001000000000000000100000000000000000000020000000000000000000800000000000000000080000000000000400000000000000000020000000400004000000000000004000000000000080000200000000000000000000000000000000000000000000000000000000000004000000000000000000001000000000000000000400000000000100000000020000000000000000000000000000000000000000000000000000000000000102000",
      "type": "0x0",
      "transactionHash": "0x9f83dfffcb2c0cf1d31c7118ccdcd4b3e7df86c68202f5d93079590efb6b2249",
      "transactionIndex": "0x133",
      "blockHash": "0x1590c60bc0815a8d31c9fda2bd2b2ec37d9229abfb523062ef3827ed5fd8de80",
      "blockNumber": "0x50c691d",
      "gasUsed": "0x15a69e",
      "effectiveGasPrice": "0x1d0df48622",
      "from": "0xdc328af6c71df52966890a7f007179c25be4ff3b",
      "to": null,
      "contractAddress": "0x400ca0a825af9a54b7a116217c53b8e8ecf6334f"
    },
    {
      "status": "0x1",
      "cumulativeGasUsed": "0x26168b6",
      "logs": [
        {
          "address": "0xdbab181421de02a422d1d2e18874f18255aaff11",
          "topics": [
            "0x8be0079c531659141344cd1fd0a4f28419497f9722a3daafe3b4186f6b6457e0",
            "0x0000000000000000000000000000000000000000000000000000000000000000",
            "0x000000000000000000000000dc328af6c71df52966890a7f007179c25be4ff3b"
          ],
          "data": "0x",
          "blockHash": "0x23cfc20ca81323f782d74fdd6422ce2ef99235d57ef11af5bb2b4b1834aad7c2",
          "blockNumber": "0x50c6921",
          "blockTimestamp": "0x69c50265",
          "transactionHash": "0xd12fa59c71ff97c65a85202a356f8be53d1c65f162f34450694f02b84880390b",
          "transactionIndex": "0xb5",
          "logIndex": "0x711",
          "removed": false
        },
        {
          "address": "0x0000000000000000000000000000000000001010",
          "topics": [
            "0x4dfe1bbbcf077ddc3e01291eea2d5c70c2b422b415d95645b9adcfd678cb1d63",
            "0x0000000000000000000000000000000000000000000000000000000000001010",
            "0x000000000000000000000000dc328af6c71df52966890a7f007179c25be4ff3b",
            "0x0000000000000000000000007ee41d8a25641000661b1ef5e6ae8a00400466b0"
          ],
          "data": "0x00000000000000000000000000000000000000000000000000ad760e50693350000000000000000000000000000000000000000000000002adf38c0936c6f90100000000000000000000000000000000000000000008bcefd7d195c58146f69b000000000000000000000000000000000000000000000002ad4615fae65dc5b100000000000000000000000000000000000000000008bcefd87f0bd3d1b029eb",
          "blockHash": "0x23cfc20ca81323f782d74fdd6422ce2ef99235d57ef11af5bb2b4b1834aad7c2",
          "blockNumber": "0x50c6921",
          "blockTimestamp": "0x69c50265",
          "transactionHash": "0xd12fa59c71ff97c65a85202a356f8be53d1c65f162f34450694f02b84880390b",
          "transactionIndex": "0xb5",
          "logIndex": "0x712",
          "removed": false
        }
      ],
      "logsBloom": "0x00000000040000000000000000000000000000000000000000800000000000000000000000000000000000000000000000008000000000000000000000000800000000000000000000000000000000800001000000000000000100000000000000000000020000000000000000000800000000000000000080000000000000400000000000000000020000000400000000000000000000000000000000000000200000000000000000000000000000000000000000000000000000000000004000000000000000000001008000000000000000400000100000100000000020000008000000000000000000000000000000000000000000000000000000102000",
      "type": "0x0",
      "transactionHash": "0xd12fa59c71ff97c65a85202a356f8be53d1c65f162f34450694f02b84880390b",
      "transactionIndex": "0xb5",
      "blockHash": "0x23cfc20ca81323f782d74fdd6422ce2ef99235d57ef11af5bb2b4b1834aad7c2",
      "blockNumber": "0x50c6921",
      "gasUsed": "0x1d123c",
      "effectiveGasPrice": "0x1d0df48622",
      "from": "0xdc328af6c71df52966890a7f007179c25be4ff3b",
      "to": null,
      "contractAddress": "0xdbab181421de02a422d1d2e18874f18255aaff11"
    },
    {
      "status": "0x1",
      "cumulativeGasUsed": "0x2a09277",
      "logs": [
        {
          "address": "0x0000000000000000000000000000000000001010",
          "topics": [
            "0x4dfe1bbbcf077ddc3e01291eea2d5c70c2b422b415d95645b9adcfd678cb1d63",
            "0x0000000000000000000000000000000000000000000000000000000000001010",
            "0x000000000000000000000000dc328af6c71df52966890a7f007179c25be4ff3b",
            "0x0000000000000000000000007ee41d8a25641000661b1ef5e6ae8a00400466b0"
          ],
          "data": "0x000000000000000000000000000000000000000000000000012e00470916c5a4000000000000000000000000000000000000000000000002aaa6e58b8e2f250900000000000000000000000000000000000000000008bcf07d0e09c27416c116000000000000000000000000000000000000000000000002a978e54485185f6500000000000000000000000000000000000000000008bcf07e3c0a097d2d86ba",
          "blockHash": "0xc5be11fd59143ebc76de6c83de3858c19216ac9796bacd3325867d15cea749d2",
          "blockNumber": "0x50c6924",
          "blockTimestamp": "0x69c5026b",
          "transactionHash": "0xe780b0490ac9d42834c2253ea9a43a252684b81789efd7431999a79440ceaf1f",
          "transactionIndex": "0xa0",
          "logIndex": "0x7cb",
          "removed": false
        }
      ],
      "logsBloom": "0x00000000040000000000000000000000000000000000000000000000000000000000000000000000000000000000000000008000000000000000000000000800000000000000000000000000000000800000000000000000000100000000000000000000000000000000000000000000000000000000000080000000000000000000000000000000020000000400000000000000000000000000000000000000200000000000000000000000000000000000000000000000000000000000004000000000000000000001000000000000000000400000000000100000000000000000000000000000000000000000000000000000000000000000000000102000",
      "type": "0x0",
      "transactionHash": "0xe780b0490ac9d42834c2253ea9a43a252684b81789efd7431999a79440ceaf1f",
      "transactionIndex": "0xa0",
      "blockHash": "0xc5be11fd59143ebc76de6c83de3858c19216ac9796bacd3325867d15cea749d2",
      "blockNumber": "0x50c6924",
      "gasUsed": "0x317499",
      "effectiveGasPrice": "0x1d0df48622",
      "from": "0xdc328af6c71df52966890a7f007179c25be4ff3b",
      "to": null,
      "contractAddress": "0xc92e751c6ebd0177f8aabc4dc48e12f1b18b5b24"
    },
    {
      "status": "0x1",
      "cumulativeGasUsed": "0x3b9a33e",
      "logs": [
        {
          "address": "0x7e1e59ad19385f948003fa6c28de32c7b3201dea",
          "topics": [
            "0xbc7cd75a20ee27fd9adebab32041f755214dbc6bffa90cc0225b39da2e5c2d3b",
            "0x000000000000000000000000c92e751c6ebd0177f8aabc4dc48e12f1b18b5b24"
          ],
          "data": "0x",
          "blockHash": "0xac7315e7551848af948a5a9c29b50d4e6f0d143334e50f192fd6d4f05832fb07",
          "blockNumber": "0x50c6926",
          "blockTimestamp": "0x69c5026f",
          "transactionHash": "0x50748ca6f756795d601e399e8eab11d83863d85c3c9ddbe6e5abe509fa84bd4a",
          "transactionIndex": "0xa4",
          "logIndex": "0xdca",
          "removed": false
        },
        {
          "address": "0x7e1e59ad19385f948003fa6c28de32c7b3201dea",
          "topics": [
            "0xc7f505b2f371ae2175ee4913f4499e1f2633a7b5936321eed1cdaeb6115181d2"
          ],
          "data": "0x0000000000000000000000000000000000000000000000000000000000000001",
          "blockHash": "0xac7315e7551848af948a5a9c29b50d4e6f0d143334e50f192fd6d4f05832fb07",
          "blockNumber": "0x50c6926",
          "blockTimestamp": "0x69c5026f",
          "transactionHash": "0x50748ca6f756795d601e399e8eab11d83863d85c3c9ddbe6e5abe509fa84bd4a",
          "transactionIndex": "0xa4",
          "logIndex": "0xdcb",
          "removed": false
        },
        {
          "address": "0x08905d49cab7cadfa3594e07f5390539ff635e7a",
          "topics": [
            "0x8be0079c531659141344cd1fd0a4f28419497f9722a3daafe3b4186f6b6457e0",
            "0x0000000000000000000000000000000000000000000000000000000000000000",
            "0x000000000000000000000000dc328af6c71df52966890a7f007179c25be4ff3b"
          ],
          "data": "0x",
          "blockHash": "0xac7315e7551848af948a5a9c29b50d4e6f0d143334e50f192fd6d4f05832fb07",
          "blockNumber": "0x50c6926",
          "blockTimestamp": "0x69c5026f",
          "transactionHash": "0x50748ca6f756795d601e399e8eab11d83863d85c3c9ddbe6e5abe509fa84bd4a",
          "transactionIndex": "0xa4",
          "logIndex": "0xdcc",
          "removed": false
        },
        {
          "address": "0x7e1e59ad19385f948003fa6c28de32c7b3201dea",
          "topics": [
            "0x7e644d79422f17c01e4894b5f4f588d331ebfa28653d42ae832dc59e38c9798f"
          ],
          "data": "0x000000000000000000000000000000000000000000000000000000000000000000000000000000000000000008905d49cab7cadfa3594e07f5390539ff635e7a",
          "blockHash": "0xac7315e7551848af948a5a9c29b50d4e6f0d143334e50f192fd6d4f05832fb07",
          "blockNumber": "0x50c6926",
          "blockTimestamp": "0x69c5026f",
          "transactionHash": "0x50748ca6f756795d601e399e8eab11d83863d85c3c9ddbe6e5abe509fa84bd4a",
          "transactionIndex": "0xa4",
          "logIndex": "0xdcd",
          "removed": false
        },
        {
          "address": "0x0000000000000000000000000000000000001010",
          "topics": [
            "0x4dfe1bbbcf077ddc3e01291eea2d5c70c2b422b415d95645b9adcfd678cb1d63",
            "0x0000000000000000000000000000000000000000000000000000000000001010",
            "0x000000000000000000000000dc328af6c71df52966890a7f007179c25be4ff3b",
            "0x0000000000000000000000007ee41d8a25641000661b1ef5e6ae8a00400466b0"
          ],
          "data": "0x000000000000000000000000000000000000000000000000003f0ac79b6a9f9e000000000000000000000000000000000000000000000002a509fe0dbdc192b700000000000000000000000000000000000000000008bcf10445ef995a9c8354000000000000000000000000000000000000000000000002a4caf3462256f31900000000000000000000000000000000000000000008bcf10484fa60f60722f2",
          "blockHash": "0xac7315e7551848af948a5a9c29b50d4e6f0d143334e50f192fd6d4f05832fb07",
          "blockNumber": "0x50c6926",
          "blockTimestamp": "0x69c5026f",
          "transactionHash": "0x50748ca6f756795d601e399e8eab11d83863d85c3c9ddbe6e5abe509fa84bd4a",
          "transactionIndex": "0xa4",
          "logIndex": "0xdce",
          "removed": false
        }
      ],
      "logsBloom": "0x0000000004000000000000000001000040000010000000000080000000000000000000000000000000000000000000000000800000000000000000000002080002000000000000000000000000000280000100000800000000010000000000000000000002000000000000000000080000000080000000008000000000000042000000000000c000020800000400000000000000000080000000000000800000200000000000000000000000000000000000000000000000000000000000004000000020000000000001000000000000000000400404000000100000000020000000000000000000200000000000000000000000000000000000000000102000",
      "type": "0x0",
      "transactionHash": "0x50748ca6f756795d601e399e8eab11d83863d85c3c9ddbe6e5abe509fa84bd4a",
      "transactionIndex": "0xa4",
      "blockHash": "0xac7315e7551848af948a5a9c29b50d4e6f0d143334e50f192fd6d4f05832fb07",
      "blockNumber": "0x50c6926",
      "gasUsed": "0xa3a66",
      "effectiveGasPrice": "0x1d0df48622",
      "from": "0xdc328af6c71df52966890a7f007179c25be4ff3b",
      "to": null,
      "contractAddress": "0x7e1e59ad19385f948003fa6c28de32c7b3201dea"
    },
    {
      "status": "0x1",
      "cumulativeGasUsed": "0x2c237de",
      "logs": [
        {
          "address": "0x3a2befb6e87ffa8d3ea5ad838e5ee9fe5a03a64e",
          "topics": [
            "0x8be0079c531659141344cd1fd0a4f28419497f9722a3daafe3b4186f6b6457e0",
            "0x0000000000000000000000000000000000000000000000000000000000000000",
            "0x000000000000000000000000dc328af6c71df52966890a7f007179c25be4ff3b"
          ],
          "data": "0x",
          "blockHash": "0x3a42f480b6df6ba8f36208f7c8f96474fa00b0a568f75738e4b4f978a35b139b",
          "blockNumber": "0x50c6929",
          "blockTimestamp": "0x69c50275",
          "transactionHash": "0xc33aea50f3936ff69c263d965eb895771a74882d1198f4469b347395441a100e",
          "transactionIndex": "0xcb",
          "logIndex": "0x963",
          "removed": false
        },
        {
          "address": "0x0000000000000000000000000000000000001010",
          "topics": [
            "0x4dfe1bbbcf077ddc3e01291eea2d5c70c2b422b415d95645b9adcfd678cb1d63",
            "0x0000000000000000000000000000000000000000000000000000000000001010",
            "0x000000000000000000000000dc328af6c71df52966890a7f007179c25be4ff3b",
            "0x0000000000000000000000007ee41d8a25641000661b1ef5e6ae8a00400466b0"
          ],
          "data": "0x000000000000000000000000000000000000000000000000007148f455bd6144000000000000000000000000000000000000000000000002a3e0d1c38a9c6d2b00000000000000000000000000000000000000000008bcf1f23e61b6a8b32c80000000000000000000000000000000000000000000000002a36f88cf34df0be700000000000000000000000000000000000000000008bcf1f2afaaaafe708dc4",
          "blockHash": "0x3a42f480b6df6ba8f36208f7c8f96474fa00b0a568f75738e4b4f978a35b139b",
          "blockNumber": "0x50c6929",
          "blockTimestamp": "0x69c50275",
          "transactionHash": "0xc33aea50f3936ff69c263d965eb895771a74882d1198f4469b347395441a100e",
          "transactionIndex": "0xcb",
          "logIndex": "0x964",
          "removed": false
        }
      ],
      "logsBloom": "0x00000000040000000000000000000000000000000000000000880000000000000000000000000000000000000000000000008000000000000000000000000800000000000000000000000000000000800001000000000000000100000000000000000000020000000000000000000800000000000000000080000000000000400000000000000000020000000400000000000000000000000800000000000000200000000000000000000000000000000000000000000000000000000000004200000000000000000001000000000000000000400000000000100000000020000000000000000000000000000000000000000000000000000000000000102000",
      "type": "0x0",
      "transactionHash": "0xc33aea50f3936ff69c263d965eb895771a74882d1198f4469b347395441a100e",
      "transactionIndex": "0xcb",
      "blockHash": "0x3a42f480b6df6ba8f36208f7c8f96474fa00b0a568f75738e4b4f978a35b139b",
      "blockNumber": "0x50c6929",
      "gasUsed": "0x1339ac",
      "effectiveGasPrice": "0x1d0df48622",
      "from": "0xdc328af6c71df52966890a7f007179c25be4ff3b",
      "to": null,
      "contractAddress": "0x3a2befb6e87ffa8d3ea5ad838e5ee9fe5a03a64e"
    },
    {
      "status": "0x1",
      "cumulativeGasUsed": "0x44545b5",
      "logs": [
        {
          "address": "0x0000000000000000000000000000000000001010",
          "topics": [
            "0x4dfe1bbbcf077ddc3e01291eea2d5c70c2b422b415d95645b9adcfd678cb1d63",
            "0x0000000000000000000000000000000000000000000000000000000000001010",
            "0x000000000000000000000000dc328af6c71df52966890a7f007179c25be4ff3b",
            "0x0000000000000000000000007ee41d8a25641000661b1ef5e6ae8a00400466b0"
          ],
          "data": "0x00000000000000000000000000000000000000000000000000041e501b5f6a27000000000000000000000000000000000000000000000002a1b23cfcc3eebc5300000000000000000000000000000000000000000008bcf8ca98c7b10669a0e5000000000000000000000000000000000000000000000002a1ae1eaca88f522c00000000000000000000000000000000000000000008bcf8ca9ce60121c90b0c",
          "blockHash": "0x9baf3b23f82d05ff48aa89f8a718bfd639fce6706ef1b35828f42a91066ef88c",
          "blockNumber": "0x50c6938",
          "blockTimestamp": "0x69c50293",
          "transactionHash": "0x46df3d01a0cafdda33eb55b9a894a78bd404fac3df273c99ca0eacadf7dfac72",
          "transactionIndex": "0xf2",
          "logIndex": "0xed0",
          "removed": false
        }
      ],
      "logsBloom": "0x00000000040000000000000000000000000000000000000000000000000000000000000000000000000000000000000000008000000000000000000000000800000000000000000000000000000000800000000000000000000100000000000000000000000000000000000000000000000000000000000080000000000000000000000000000000020000000400000000000000000000000000000000000000200000000000000000000000000000000000000000000000000000000000004000000000000000000001000000000000000000400000000000100000000000000000000000000000000000000000000000000000000000000000000000102000",
      "type": "0x0",
      "transactionHash": "0x46df3d01a0cafdda33eb55b9a894a78bd404fac3df273c99ca0eacadf7dfac72",
      "transactionIndex": "0xf2",
      "blockHash": "0x9baf3b23f82d05ff48aa89f8a718bfd639fce6706ef1b35828f42a91066ef88c",
      "blockNumber": "0x50c6938",
      "gasUsed": "0xb48d",
      "effectiveGasPrice": "0x1d0df48622",
      "from": "0xdc328af6c71df52966890a7f007179c25be4ff3b",
      "to": "0xdbab181421de02a422d1d2e18874f18255aaff11",
      "contractAddress": null
    },
    {
      "status": "0x1",
      "cumulativeGasUsed": "0x3b31ace",
      "logs": [
        {
          "address": "0x0000000000000000000000000000000000001010",
          "topics": [
            "0x4dfe1bbbcf077ddc3e01291eea2d5c70c2b422b415d95645b9adcfd678cb1d63",
            "0x0000000000000000000000000000000000000000000000000000000000001010",
            "0x000000000000000000000000dc328af6c71df52966890a7f007179c25be4ff3b",
            "0x0000000000000000000000007ee41d8a25641000661b1ef5e6ae8a00400466b0"
          ],
          "data": "0x00000000000000000000000000000000000000000000000000048e21c3353d16000000000000000000000000000000000000000000000002a19dbf2c25f0f39900000000000000000000000000000000000000000008bcfb0db4d781a174ec5f000000000000000000000000000000000000000000000002a199310a62bbb68300000000000000000000000000000000000000000008bcfb0db965a364aa2975",
          "blockHash": "0x7be999ad5f33f9fa2c33b80506787df9f45d36deb6f54c7e4f6767aa2cf6a12d",
          "blockNumber": "0x50c693e",
          "blockTimestamp": "0x69c5029f",
          "transactionHash": "0x7200aca539725076dea77625f3371fa86f4156663ef129238adfbc4313ad2f21",
          "transactionIndex": "0x10b",
          "logIndex": "0xc34",
          "removed": false
        }
      ],
      "logsBloom": "0x00000000040000000000000000000000000000000000000000000000000000000000000000000000000000000000000000008000000000000000000000000800000000000000000000000000000000800000000000000000000100000000000000000000000000000000000000000000000000000000000080000000000000000000000000000000020000000400000000000000000000000000000000000000200000000000000000000000000000000000000000000000000000000000004000000000000000000001000000000000000000400000000000100000000000000000000000000000000000000000000000000000000000000000000000102000",
      "type": "0x0",
      "transactionHash": "0x7200aca539725076dea77625f3371fa86f4156663ef129238adfbc4313ad2f21",
      "transactionIndex": "0x10b",
      "blockHash": "0x7be999ad5f33f9fa2c33b80506787df9f45d36deb6f54c7e4f6767aa2cf6a12d",
      "blockNumber": "0x50c693e",
      "gasUsed": "0xc832",
      "effectiveGasPrice": "0x1d0df48622",
      "from": "0xdc328af6c71df52966890a7f007179c25be4ff3b",
      "to": "0x7e1e59ad19385f948003fa6c28de32c7b3201dea",
      "contractAddress": null
    },
    {
      "status": "0x1",
      "cumulativeGasUsed": "0x3297471",
      "logs": [
        {
          "address": "0xdbab181421de02a422d1d2e18874f18255aaff11",
          "topics": [
            "0xddf252ad1be2c89b69c2b068fc378daa952ba7f163c4a11628f55a4df523b3ef",
            "0x0000000000000000000000000000000000000000000000000000000000000000",
            "0x000000000000000000000000dbab181421de02a422d1d2e18874f18255aaff11",
            "0x0000000000000000000000000000000000000000000000000000000000000000"
          ],
          "data": "0x",
          "blockHash": "0x02c258094b9e77ae2312e6aeb78ed9226ac8660c6adae6885a3fcfc60adae8ad",
          "blockNumber": "0x50c6942",
          "blockTimestamp": "0x69c502a7",
          "transactionHash": "0xe78475c19ea08199cbac8555fec7f44463b4fc272e2d7c2c90a296ff6b5b7f55",
          "transactionIndex": "0xdf",
          "logIndex": "0xac3",
          "removed": false
        },
        {
          "address": "0xdbab181421de02a422d1d2e18874f18255aaff11",
          "topics": [
            "0xddf252ad1be2c89b69c2b068fc378daa952ba7f163c4a11628f55a4df523b3ef",
            "0x0000000000000000000000000000000000000000000000000000000000000000",
            "0x000000000000000000000000dbab181421de02a422d1d2e18874f18255aaff11",
            "0x0000000000000000000000000000000000000000000000000000000000000001"
          ],
          "data": "0x",
          "blockHash": "0x02c258094b9e77ae2312e6aeb78ed9226ac8660c6adae6885a3fcfc60adae8ad",
          "blockNumber": "0x50c6942",
          "blockTimestamp": "0x69c502a7",
          "transactionHash": "0xe78475c19ea08199cbac8555fec7f44463b4fc272e2d7c2c90a296ff6b5b7f55",
          "transactionIndex": "0xdf",
          "logIndex": "0xac4",
          "removed": false
        },
        {
          "address": "0xdbab181421de02a422d1d2e18874f18255aaff11",
          "topics": [
            "0xddf252ad1be2c89b69c2b068fc378daa952ba7f163c4a11628f55a4df523b3ef",
            "0x0000000000000000000000000000000000000000000000000000000000000000",
            "0x000000000000000000000000dbab181421de02a422d1d2e18874f18255aaff11",
            "0x0000000000000000000000000000000000000000000000000000000000000002"
          ],
          "data": "0x",
          "blockHash": "0x02c258094b9e77ae2312e6aeb78ed9226ac8660c6adae6885a3fcfc60adae8ad",
          "blockNumber": "0x50c6942",
          "blockTimestamp": "0x69c502a7",
          "transactionHash": "0xe78475c19ea08199cbac8555fec7f44463b4fc272e2d7c2c90a296ff6b5b7f55",
          "transactionIndex": "0xdf",
          "logIndex": "0xac5",
          "removed": false
        },
        {
          "address": "0xdbab181421de02a422d1d2e18874f18255aaff11",
          "topics": [
            "0xddf252ad1be2c89b69c2b068fc378daa952ba7f163c4a11628f55a4df523b3ef",
            "0x0000000000000000000000000000000000000000000000000000000000000000",
            "0x000000000000000000000000dbab181421de02a422d1d2e18874f18255aaff11",
            "0x0000000000000000000000000000000000000000000000000000000000000003"
          ],
          "data": "0x",
          "blockHash": "0x02c258094b9e77ae2312e6aeb78ed9226ac8660c6adae6885a3fcfc60adae8ad",
          "blockNumber": "0x50c6942",
          "blockTimestamp": "0x69c502a7",
          "transactionHash": "0xe78475c19ea08199cbac8555fec7f44463b4fc272e2d7c2c90a296ff6b5b7f55",
          "transactionIndex": "0xdf",
          "logIndex": "0xac6",
          "removed": false
        },
        {
          "address": "0xdbab181421de02a422d1d2e18874f18255aaff11",
          "topics": [
            "0xddf252ad1be2c89b69c2b068fc378daa952ba7f163c4a11628f55a4df523b3ef",
            "0x0000000000000000000000000000000000000000000000000000000000000000",
            "0x000000000000000000000000dbab181421de02a422d1d2e18874f18255aaff11",
            "0x0000000000000000000000000000000000000000000000000000000000000004"
          ],
          "data": "0x",
          "blockHash": "0x02c258094b9e77ae2312e6aeb78ed9226ac8660c6adae6885a3fcfc60adae8ad",
          "blockNumber": "0x50c6942",
          "blockTimestamp": "0x69c502a7",
          "transactionHash": "0xe78475c19ea08199cbac8555fec7f44463b4fc272e2d7c2c90a296ff6b5b7f55",
          "transactionIndex": "0xdf",
          "logIndex": "0xac7",
          "removed": false
        },
        {
          "address": "0xdbab181421de02a422d1d2e18874f18255aaff11",
          "topics": [
            "0xddf252ad1be2c89b69c2b068fc378daa952ba7f163c4a11628f55a4df523b3ef",
            "0x0000000000000000000000000000000000000000000000000000000000000000",
            "0x000000000000000000000000dbab181421de02a422d1d2e18874f18255aaff11",
            "0x0000000000000000000000000000000000000000000000000000000000000005"
          ],
          "data": "0x",
          "blockHash": "0x02c258094b9e77ae2312e6aeb78ed9226ac8660c6adae6885a3fcfc60adae8ad",
          "blockNumber": "0x50c6942",
          "blockTimestamp": "0x69c502a7",
          "transactionHash": "0xe78475c19ea08199cbac8555fec7f44463b4fc272e2d7c2c90a296ff6b5b7f55",
          "transactionIndex": "0xdf",
          "logIndex": "0xac8",
          "removed": false
        },
        {
          "address": "0xdbab181421de02a422d1d2e18874f18255aaff11",
          "topics": [
            "0xddf252ad1be2c89b69c2b068fc378daa952ba7f163c4a11628f55a4df523b3ef",
            "0x0000000000000000000000000000000000000000000000000000000000000000",
            "0x000000000000000000000000dbab181421de02a422d1d2e18874f18255aaff11",
            "0x0000000000000000000000000000000000000000000000000000000000000006"
          ],
          "data": "0x",
          "blockHash": "0x02c258094b9e77ae2312e6aeb78ed9226ac8660c6adae6885a3fcfc60adae8ad",
          "blockNumber": "0x50c6942",
          "blockTimestamp": "0x69c502a7",
          "transactionHash": "0xe78475c19ea08199cbac8555fec7f44463b4fc272e2d7c2c90a296ff6b5b7f55",
          "transactionIndex": "0xdf",
          "logIndex": "0xac9",
          "removed": false
        },
        {
          "address": "0xdbab181421de02a422d1d2e18874f18255aaff11",
          "topics": [
            "0xddf252ad1be2c89b69c2b068fc378daa952ba7f163c4a11628f55a4df523b3ef",
            "0x0000000000000000000000000000000000000000000000000000000000000000",
            "0x000000000000000000000000dbab181421de02a422d1d2e18874f18255aaff11",
            "0x0000000000000000000000000000000000000000000000000000000000000007"
          ],
          "data": "0x",
          "blockHash": "0x02c258094b9e77ae2312e6aeb78ed9226ac8660c6adae6885a3fcfc60adae8ad",
          "blockNumber": "0x50c6942",
          "blockTimestamp": "0x69c502a7",
          "transactionHash": "0xe78475c19ea08199cbac8555fec7f44463b4fc272e2d7c2c90a296ff6b5b7f55",
          "transactionIndex": "0xdf",
          "logIndex": "0xaca",
          "removed": false
        },
        {
          "address": "0xdbab181421de02a422d1d2e18874f18255aaff11",
          "topics": [
            "0xddf252ad1be2c89b69c2b068fc378daa952ba7f163c4a11628f55a4df523b3ef",
            "0x0000000000000000000000000000000000000000000000000000000000000000",
            "0x000000000000000000000000dbab181421de02a422d1d2e18874f18255aaff11",
            "0x0000000000000000000000000000000000000000000000000000000000000008"
          ],
          "data": "0x",
          "blockHash": "0x02c258094b9e77ae2312e6aeb78ed9226ac8660c6adae6885a3fcfc60adae8ad",
          "blockNumber": "0x50c6942",
          "blockTimestamp": "0x69c502a7",
          "transactionHash": "0xe78475c19ea08199cbac8555fec7f44463b4fc272e2d7c2c90a296ff6b5b7f55",
          "transactionIndex": "0xdf",
          "logIndex": "0xacb",
          "removed": false
        },
        {
          "address": "0xdbab181421de02a422d1d2e18874f18255aaff11",
          "topics": [
            "0xddf252ad1be2c89b69c2b068fc378daa952ba7f163c4a11628f55a4df523b3ef",
            "0x0000000000000000000000000000000000000000000000000000000000000000",
            "0x000000000000000000000000dbab181421de02a422d1d2e18874f18255aaff11",
            "0x0000000000000000000000000000000000000000000000000000000000000009"
          ],
          "data": "0x",
          "blockHash": "0x02c258094b9e77ae2312e6aeb78ed9226ac8660c6adae6885a3fcfc60adae8ad",
          "blockNumber": "0x50c6942",
          "blockTimestamp": "0x69c502a7",
          "transactionHash": "0xe78475c19ea08199cbac8555fec7f44463b4fc272e2d7c2c90a296ff6b5b7f55",
          "transactionIndex": "0xdf",
          "logIndex": "0xacc",
          "removed": false
        },
        {
          "address": "0xdbab181421de02a422d1d2e18874f18255aaff11",
          "topics": [
            "0xddf252ad1be2c89b69c2b068fc378daa952ba7f163c4a11628f55a4df523b3ef",
            "0x0000000000000000000000000000000000000000000000000000000000000000",
            "0x000000000000000000000000dbab181421de02a422d1d2e18874f18255aaff11",
            "0x000000000000000000000000000000000000000000000000000000000000000a"
          ],
          "data": "0x",
          "blockHash": "0x02c258094b9e77ae2312e6aeb78ed9226ac8660c6adae6885a3fcfc60adae8ad",
          "blockNumber": "0x50c6942",
          "blockTimestamp": "0x69c502a7",
          "transactionHash": "0xe78475c19ea08199cbac8555fec7f44463b4fc272e2d7c2c90a296ff6b5b7f55",
          "transactionIndex": "0xdf",
          "logIndex": "0xacd",
          "removed": false
        },
        {
          "address": "0xdbab181421de02a422d1d2e18874f18255aaff11",
          "topics": [
            "0xddf252ad1be2c89b69c2b068fc378daa952ba7f163c4a11628f55a4df523b3ef",
            "0x0000000000000000000000000000000000000000000000000000000000000000",
            "0x000000000000000000000000dbab181421de02a422d1d2e18874f18255aaff11",
            "0x000000000000000000000000000000000000000000000000000000000000000b"
          ],
          "data": "0x",
          "blockHash": "0x02c258094b9e77ae2312e6aeb78ed9226ac8660c6adae6885a3fcfc60adae8ad",
          "blockNumber": "0x50c6942",
          "blockTimestamp": "0x69c502a7",
          "transactionHash": "0xe78475c19ea08199cbac8555fec7f44463b4fc272e2d7c2c90a296ff6b5b7f55",
          "transactionIndex": "0xdf",
          "logIndex": "0xace",
          "removed": false
        },
        {
          "address": "0x0000000000000000000000000000000000001010",
          "topics": [
            "0x4dfe1bbbcf077ddc3e01291eea2d5c70c2b422b415d95645b9adcfd678cb1d63",
            "0x0000000000000000000000000000000000000000000000000000000000001010",
            "0x000000000000000000000000dc328af6c71df52966890a7f007179c25be4ff3b",
            "0x0000000000000000000000007ee41d8a25641000661b1ef5e6ae8a00400466b0"
          ],
          "data": "0x000000000000000000000000000000000000000000000000006b21bf115473fe000000000000000000000000000000000000000000000002a1870698636430f500000000000000000000000000000000000000000008bcfc838e7ffe8b1c130c000000000000000000000000000000000000000000000002a11be4d9520fbcf700000000000000000000000000000000000000000008bcfc83f9a1bd9c70870a",
          "blockHash": "0x02c258094b9e77ae2312e6aeb78ed9226ac8660c6adae6885a3fcfc60adae8ad",
          "blockNumber": "0x50c6942",
          "blockTimestamp": "0x69c502a7",
          "transactionHash": "0xe78475c19ea08199cbac8555fec7f44463b4fc272e2d7c2c90a296ff6b5b7f55",
          "transactionIndex": "0xdf",
          "logIndex": "0xacf",
          "removed": false
        }
      ],
      "logsBloom": "0x04000000040000000000004000000000000000000000000000000000000000000000000000000000000000000000000000009000060480000020000000240800000030000000000000000008000000800000000000040000000100000000000008000000020000000000000000000800000000000000000080000010000000000080000400000000030000000400001000001800000000000000000000000000200000000000000000000100000000000000000000800000002000080000404040000002000000000001008000200000002000408000100000100100000060400008000000000000000000000000000000000000008000040000000000902000",
      "type": "0x0",
      "transactionHash": "0xe78475c19ea08199cbac8555fec7f44463b4fc272e2d7c2c90a296ff6b5b7f55",
      "transactionIndex": "0xdf",
      "blockHash": "0x02c258094b9e77ae2312e6aeb78ed9226ac8660c6adae6885a3fcfc60adae8ad",
      "blockNumber": "0x50c6942",
      "gasUsed": "0x125b3b",
      "effectiveGasPrice": "0x1d0df48622",
      "from": "0xdc328af6c71df52966890a7f007179c25be4ff3b",
      "to": "0xdbab181421de02a422d1d2e18874f18255aaff11",
      "contractAddress": null
    },
    {
      "status": "0x1",
      "cumulativeGasUsed": "0x4cdd268",
      "logs": [
        {
          "address": "0x400ca0a825af9a54b7a116217c53b8e8ecf6334f",
          "topics": [
            "0xddf252ad1be2c89b69c2b068fc378daa952ba7f163c4a11628f55a4df523b3ef",
            "0x0000000000000000000000000000000000000000000000000000000000000000",
            "0x000000000000000000000000400ca0a825af9a54b7a116217c53b8e8ecf6334f",
            "0x0000000000000000000000000000000000000000000000000000000000000000"
          ],
          "data": "0x",
          "blockHash": "0x91dfc5f509d19c8a14322f21091fe7027c5c9f4bbde117618e60daf29b662e71",
          "blockNumber": "0x50c694a",
          "blockTimestamp": "0x69c502b7",
          "transactionHash": "0xba62d4585d477ee3d4df59b70c0c05a0beb7970a43786f4e59d997cc12cf137c",
          "transactionIndex": "0x112",
          "logIndex": "0x106f",
          "removed": false
        },
        {
          "address": "0x400ca0a825af9a54b7a116217c53b8e8ecf6334f",
          "topics": [
            "0xddf252ad1be2c89b69c2b068fc378daa952ba7f163c4a11628f55a4df523b3ef",
            "0x0000000000000000000000000000000000000000000000000000000000000000",
            "0x000000000000000000000000400ca0a825af9a54b7a116217c53b8e8ecf6334f",
            "0x0000000000000000000000000000000000000000000000000000000000000001"
          ],
          "data": "0x",
          "blockHash": "0x91dfc5f509d19c8a14322f21091fe7027c5c9f4bbde117618e60daf29b662e71",
          "blockNumber": "0x50c694a",
          "blockTimestamp": "0x69c502b7",
          "transactionHash": "0xba62d4585d477ee3d4df59b70c0c05a0beb7970a43786f4e59d997cc12cf137c",
          "transactionIndex": "0x112",
          "logIndex": "0x1070",
          "removed": false
        },
        {
          "address": "0x400ca0a825af9a54b7a116217c53b8e8ecf6334f",
          "topics": [
            "0xddf252ad1be2c89b69c2b068fc378daa952ba7f163c4a11628f55a4df523b3ef",
            "0x0000000000000000000000000000000000000000000000000000000000000000",
            "0x000000000000000000000000400ca0a825af9a54b7a116217c53b8e8ecf6334f",
            "0x0000000000000000000000000000000000000000000000000000000000000002"
          ],
          "data": "0x",
          "blockHash": "0x91dfc5f509d19c8a14322f21091fe7027c5c9f4bbde117618e60daf29b662e71",
          "blockNumber": "0x50c694a",
          "blockTimestamp": "0x69c502b7",
          "transactionHash": "0xba62d4585d477ee3d4df59b70c0c05a0beb7970a43786f4e59d997cc12cf137c",
          "transactionIndex": "0x112",
          "logIndex": "0x1071",
          "removed": false
        },
        {
          "address": "0x400ca0a825af9a54b7a116217c53b8e8ecf6334f",
          "topics": [
            "0xddf252ad1be2c89b69c2b068fc378daa952ba7f163c4a11628f55a4df523b3ef",
            "0x0000000000000000000000000000000000000000000000000000000000000000",
            "0x000000000000000000000000400ca0a825af9a54b7a116217c53b8e8ecf6334f",
            "0x0000000000000000000000000000000000000000000000000000000000000003"
          ],
          "data": "0x",
          "blockHash": "0x91dfc5f509d19c8a14322f21091fe7027c5c9f4bbde117618e60daf29b662e71",
          "blockNumber": "0x50c694a",
          "blockTimestamp": "0x69c502b7",
          "transactionHash": "0xba62d4585d477ee3d4df59b70c0c05a0beb7970a43786f4e59d997cc12cf137c",
          "transactionIndex": "0x112",
          "logIndex": "0x1072",
          "removed": false
        },
        {
          "address": "0x400ca0a825af9a54b7a116217c53b8e8ecf6334f",
          "topics": [
            "0xddf252ad1be2c89b69c2b068fc378daa952ba7f163c4a11628f55a4df523b3ef",
            "0x0000000000000000000000000000000000000000000000000000000000000000",
            "0x000000000000000000000000400ca0a825af9a54b7a116217c53b8e8ecf6334f",
            "0x0000000000000000000000000000000000000000000000000000000000000004"
          ],
          "data": "0x",
          "blockHash": "0x91dfc5f509d19c8a14322f21091fe7027c5c9f4bbde117618e60daf29b662e71",
          "blockNumber": "0x50c694a",
          "blockTimestamp": "0x69c502b7",
          "transactionHash": "0xba62d4585d477ee3d4df59b70c0c05a0beb7970a43786f4e59d997cc12cf137c",
          "transactionIndex": "0x112",
          "logIndex": "0x1073",
          "removed": false
        },
        {
          "address": "0x400ca0a825af9a54b7a116217c53b8e8ecf6334f",
          "topics": [
            "0xddf252ad1be2c89b69c2b068fc378daa952ba7f163c4a11628f55a4df523b3ef",
            "0x0000000000000000000000000000000000000000000000000000000000000000",
            "0x000000000000000000000000400ca0a825af9a54b7a116217c53b8e8ecf6334f",
            "0x0000000000000000000000000000000000000000000000000000000000000005"
          ],
          "data": "0x",
          "blockHash": "0x91dfc5f509d19c8a14322f21091fe7027c5c9f4bbde117618e60daf29b662e71",
          "blockNumber": "0x50c694a",
          "blockTimestamp": "0x69c502b7",
          "transactionHash": "0xba62d4585d477ee3d4df59b70c0c05a0beb7970a43786f4e59d997cc12cf137c",
          "transactionIndex": "0x112",
          "logIndex": "0x1074",
          "removed": false
        },
        {
          "address": "0x400ca0a825af9a54b7a116217c53b8e8ecf6334f",
          "topics": [
            "0xddf252ad1be2c89b69c2b068fc378daa952ba7f163c4a11628f55a4df523b3ef",
            "0x0000000000000000000000000000000000000000000000000000000000000000",
            "0x000000000000000000000000400ca0a825af9a54b7a116217c53b8e8ecf6334f",
            "0x0000000000000000000000000000000000000000000000000000000000000006"
          ],
          "data": "0x",
          "blockHash": "0x91dfc5f509d19c8a14322f21091fe7027c5c9f4bbde117618e60daf29b662e71",
          "blockNumber": "0x50c694a",
          "blockTimestamp": "0x69c502b7",
          "transactionHash": "0xba62d4585d477ee3d4df59b70c0c05a0beb7970a43786f4e59d997cc12cf137c",
          "transactionIndex": "0x112",
          "logIndex": "0x1075",
          "removed": false
        },
        {
          "address": "0x400ca0a825af9a54b7a116217c53b8e8ecf6334f",
          "topics": [
            "0xddf252ad1be2c89b69c2b068fc378daa952ba7f163c4a11628f55a4df523b3ef",
            "0x0000000000000000000000000000000000000000000000000000000000000000",
            "0x000000000000000000000000400ca0a825af9a54b7a116217c53b8e8ecf6334f",
            "0x0000000000000000000000000000000000000000000000000000000000000007"
          ],
          "data": "0x",
          "blockHash": "0x91dfc5f509d19c8a14322f21091fe7027c5c9f4bbde117618e60daf29b662e71",
          "blockNumber": "0x50c694a",
          "blockTimestamp": "0x69c502b7",
          "transactionHash": "0xba62d4585d477ee3d4df59b70c0c05a0beb7970a43786f4e59d997cc12cf137c",
          "transactionIndex": "0x112",
          "logIndex": "0x1076",
          "removed": false
        },
        {
          "address": "0x400ca0a825af9a54b7a116217c53b8e8ecf6334f",
          "topics": [
            "0xddf252ad1be2c89b69c2b068fc378daa952ba7f163c4a11628f55a4df523b3ef",
            "0x0000000000000000000000000000000000000000000000000000000000000000",
            "0x000000000000000000000000400ca0a825af9a54b7a116217c53b8e8ecf6334f",
            "0x0000000000000000000000000000000000000000000000000000000000000008"
          ],
          "data": "0x",
          "blockHash": "0x91dfc5f509d19c8a14322f21091fe7027c5c9f4bbde117618e60daf29b662e71",
          "blockNumber": "0x50c694a",
          "blockTimestamp": "0x69c502b7",
          "transactionHash": "0xba62d4585d477ee3d4df59b70c0c05a0beb7970a43786f4e59d997cc12cf137c",
          "transactionIndex": "0x112",
          "logIndex": "0x1077",
          "removed": false
        },
        {
          "address": "0x400ca0a825af9a54b7a116217c53b8e8ecf6334f",
          "topics": [
            "0xddf252ad1be2c89b69c2b068fc378daa952ba7f163c4a11628f55a4df523b3ef",
            "0x0000000000000000000000000000000000000000000000000000000000000000",
            "0x000000000000000000000000400ca0a825af9a54b7a116217c53b8e8ecf6334f",
            "0x0000000000000000000000000000000000000000000000000000000000000009"
          ],
          "data": "0x",
          "blockHash": "0x91dfc5f509d19c8a14322f21091fe7027c5c9f4bbde117618e60daf29b662e71",
          "blockNumber": "0x50c694a",
          "blockTimestamp": "0x69c502b7",
          "transactionHash": "0xba62d4585d477ee3d4df59b70c0c05a0beb7970a43786f4e59d997cc12cf137c",
          "transactionIndex": "0x112",
          "logIndex": "0x1078",
          "removed": false
        },
        {
          "address": "0x400ca0a825af9a54b7a116217c53b8e8ecf6334f",
          "topics": [
            "0xddf252ad1be2c89b69c2b068fc378daa952ba7f163c4a11628f55a4df523b3ef",
            "0x0000000000000000000000000000000000000000000000000000000000000000",
            "0x000000000000000000000000400ca0a825af9a54b7a116217c53b8e8ecf6334f",
            "0x000000000000000000000000000000000000000000000000000000000000000a"
          ],
          "data": "0x",
          "blockHash": "0x91dfc5f509d19c8a14322f21091fe7027c5c9f4bbde117618e60daf29b662e71",
          "blockNumber": "0x50c694a",
          "blockTimestamp": "0x69c502b7",
          "transactionHash": "0xba62d4585d477ee3d4df59b70c0c05a0beb7970a43786f4e59d997cc12cf137c",
          "transactionIndex": "0x112",
          "logIndex": "0x1079",
          "removed": false
        },
        {
          "address": "0x400ca0a825af9a54b7a116217c53b8e8ecf6334f",
          "topics": [
            "0xddf252ad1be2c89b69c2b068fc378daa952ba7f163c4a11628f55a4df523b3ef",
            "0x0000000000000000000000000000000000000000000000000000000000000000",
            "0x000000000000000000000000400ca0a825af9a54b7a116217c53b8e8ecf6334f",
            "0x000000000000000000000000000000000000000000000000000000000000000b"
          ],
          "data": "0x",
          "blockHash": "0x91dfc5f509d19c8a14322f21091fe7027c5c9f4bbde117618e60daf29b662e71",
          "blockNumber": "0x50c694a",
          "blockTimestamp": "0x69c502b7",
          "transactionHash": "0xba62d4585d477ee3d4df59b70c0c05a0beb7970a43786f4e59d997cc12cf137c",
          "transactionIndex": "0x112",
          "logIndex": "0x107a",
          "removed": false
        },
        {
          "address": "0x0000000000000000000000000000000000001010",
          "topics": [
            "0x4dfe1bbbcf077ddc3e01291eea2d5c70c2b422b415d95645b9adcfd678cb1d63",
            "0x0000000000000000000000000000000000000000000000000000000000001010",
            "0x000000000000000000000000dc328af6c71df52966890a7f007179c25be4ff3b",
            "0x0000000000000000000000007ee41d8a25641000661b1ef5e6ae8a00400466b0"
          ],
          "data": "0x00000000000000000000000000000000000000000000000001848d270fc26ed00000000000000000000000000000000000000000000000029f71b0bed1f7311f00000000000000000000000000000000000000000008bcff6e482ae6d8f94ffb0000000000000000000000000000000000000000000000029ded2397c234c24f00000000000000000000000000000000000000000008bcff6fccb80de8bbbecb",
          "blockHash": "0x91dfc5f509d19c8a14322f21091fe7027c5c9f4bbde117618e60daf29b662e71",
          "blockNumber": "0x50c694a",
          "blockTimestamp": "0x69c502b7",
          "transactionHash": "0xba62d4585d477ee3d4df59b70c0c05a0beb7970a43786f4e59d997cc12cf137c",
          "transactionIndex": "0x112",
          "logIndex": "0x107b",
          "removed": false
        }
      ],
      "logsBloom": "0x04000000040000000000004000000000000000000000000000000000000000000000000000000000000000000000000000009000060480000020000000240800000030000000000000000008000000800000000000040000000100000000000008000000020000000000000000000800000000000000000080000010000000000080000402000000030000000400005000001800000004000000000000080000200000000000000000000100000000000000000000800000002000080000404040000002000000000001000000000000002000408000000000100100000060000000000000080000000000000000000000000000008000050000000000902000",
      "type": "0x0",
      "transactionHash": "0xba62d4585d477ee3d4df59b70c0c05a0beb7970a43786f4e59d997cc12cf137c",
      "transactionIndex": "0x112",
      "blockHash": "0x91dfc5f509d19c8a14322f21091fe7027c5c9f4bbde117618e60daf29b662e71",
      "blockNumber": "0x50c694a",
      "gasUsed": "0x428254",
      "effectiveGasPrice": "0x1d0df48622",
      "from": "0xdc328af6c71df52966890a7f007179c25be4ff3b",
      "to": "0x400ca0a825af9a54b7a116217c53b8e8ecf6334f",
      "contractAddress": null
    },
    {
      "status": "0x1",
      "cumulativeGasUsed": "0x36b48a6",
      "logs": [
        {
          "address": "0x0000000000000000000000000000000000001010",
          "topics": [
            "0x4dfe1bbbcf077ddc3e01291eea2d5c70c2b422b415d95645b9adcfd678cb1d63",
            "0x0000000000000000000000000000000000000000000000000000000000001010",
            "0x000000000000000000000000dc328af6c71df52966890a7f007179c25be4ff3b",
            "0x0000000000000000000000007ee41d8a25641000661b1ef5e6ae8a00400466b0"
          ],
          "data": "0x000000000000000000000000000000000000000000000000001085bbb685e74200000000000000000000000000000000000000000000000297e54d157cd9e9f700000000000000000000000000000000000000000008bd0062a2dcf2f73e389f00000000000000000000000000000000000000000000000297d4c759c65402b500000000000000000000000000000000000000000008bd0062b362aeadc41fe1",
          "blockHash": "0xd70b9be0150721427d5544624d6568110d1ed99d2827a7b5af3245b2af9b00de",
          "blockNumber": "0x50c694d",
          "blockTimestamp": "0x69c502bd",
          "transactionHash": "0xeb7e783ccac7bb41c65882b6551b00e9ed83a2c7207f0f593a115b9a9feb18a4",
          "transactionIndex": "0xdf",
          "logIndex": "0xb2d",
          "removed": false
        }
      ],
      "logsBloom": "0x00000000040000000000000000000000000000000000000000000000000000000000000000000000000000000000000000008000000000000000000000000800000000000000000000000000000000800000000000000000000100000000000000000000000000000000000000000000000000000000000080000000000000000000000000000000020000000400000000000000000000000000000000000000200000000000000000000000000000000000000000000000000000000000004000000000000000000001000000000000000000400000000000100000000000000000000000000000000000000000000000000000000000000000000000102000",
      "type": "0x0",
      "transactionHash": "0xeb7e783ccac7bb41c65882b6551b00e9ed83a2c7207f0f593a115b9a9feb18a4",
      "transactionIndex": "0xdf",
      "blockHash": "0xd70b9be0150721427d5544624d6568110d1ed99d2827a7b5af3245b2af9b00de",
      "blockNumber": "0x50c694d",
      "gasUsed": "0x2d3da",
      "effectiveGasPrice": "0x1d0df48622",
      "from": "0xdc328af6c71df52966890a7f007179c25be4ff3b",
      "to": "0x7e1e59ad19385f948003fa6c28de32c7b3201dea",
      "contractAddress": null
    },
    {
      "status": "0x1",
      "cumulativeGasUsed": "0x2c4d822",
      "logs": [
        {
          "address": "0x0000000000000000000000000000000000001010",
          "topics": [
            "0x4dfe1bbbcf077ddc3e01291eea2d5c70c2b422b415d95645b9adcfd678cb1d63",
            "0x0000000000000000000000000000000000000000000000000000000000001010",
            "0x000000000000000000000000dc328af6c71df52966890a7f007179c25be4ff3b",
            "0x0000000000000000000000007ee41d8a25641000661b1ef5e6ae8a00400466b0"
          ],
          "data": "0x0000000000000000000000000000000000000000000000000012f73c35e31a68000000000000000000000000000000000000000000000002979325ee03cdab0300000000000000000000000000000000000000000008bd0354cb4dbc4b3dbcff00000000000000000000000000000000000000000000000297802eb1cdea909b00000000000000000000000000000000000000000008bd0354de44f88120d767",
          "blockHash": "0xd70ba121083eb9c53c39fb12b2ff6be9124d684f5e4b171a776e587c04292ada",
          "blockNumber": "0x50c6956",
          "blockTimestamp": "0x69c502cf",
          "transactionHash": "0x4c2c373491dc8cb503d93898cb27cca96f7c2008cba50957663ca6afb60f5768",
          "transactionIndex": "0xb8",
          "logIndex": "0x9a5",
          "removed": false
        }
      ],
      "logsBloom": "0x00000000040000000000000000000000000000000000000000000000000000000000000000000000000000000000000000008000000000000000000000000800000000000000000000000000000000800000000000000000000100000000000000000000000000000000000000000000000000000000000080000000000000000000000000000000020000000400000000000000000000000000000000000000200000000000000000000000000000000000000000000000000000000000004000000000000000000001000000000000000000400000000000100000000000000000000000000000000000000000000000000000000000000000000000102000",
      "type": "0x0",
      "transactionHash": "0x4c2c373491dc8cb503d93898cb27cca96f7c2008cba50957663ca6afb60f5768",
      "transactionIndex": "0xb8",
      "blockHash": "0xd70ba121083eb9c53c39fb12b2ff6be9124d684f5e4b171a776e587c04292ada",
      "blockNumber": "0x50c6956",
      "gasUsed": "0x33f5e",
      "effectiveGasPrice": "0x1d0df48622",
      "from": "0xdc328af6c71df52966890a7f007179c25be4ff3b",
      "to": "0x7e1e59ad19385f948003fa6c28de32c7b3201dea",
      "contractAddress": null
    },
    {
      "status": "0x1",
      "cumulativeGasUsed": "0x273778e",
      "logs": [
        {
          "address": "0x0000000000000000000000000000000000001010",
          "topics": [
            "0x4dfe1bbbcf077ddc3e01291eea2d5c70c2b422b415d95645b9adcfd678cb1d63",
            "0x0000000000000000000000000000000000000000000000000000000000001010",
            "0x000000000000000000000000dc328af6c71df52966890a7f007179c25be4ff3b",
            "0x0000000000000000000000007ee41d8a25641000661b1ef5e6ae8a00400466b0"
          ],
          "data": "0x0000000000000000000000000000000000000000000000000013194e814515c20000000000000000000000000000000000000000000000029734caf6249c0c8700000000000000000000000000000000000000000008bd0546e3a361d256cb050000000000000000000000000000000000000000000000029721b1a7a356f6c500000000000000000000000000000000000000000008bd0546f6bcb0539be0c7",
          "blockHash": "0xa67b8ffcac6653b5c0e11dad2bae382e2f5860946c025ed9b81e31be421bde3c",
          "blockNumber": "0x50c695c",
          "blockTimestamp": "0x69c502db",
          "transactionHash": "0xf777d6408348114734c036fffbd76b7553fa0ce407cd38b515844896a787e01a",
          "transactionIndex": "0xb8",
          "logIndex": "0x87e",
          "removed": false
        }
      ],
      "logsBloom": "0x00000000040000000000000000000000000000000000000000000000000000000000000000000000000000000000000000008000000000000000000000000800000000000000000000000000000000800000000000000000000100000000000000000000000000000000000000000000000000000000000080000000000000000000000000000000020000000400000000000000000000000000000000000000200000000000000000000000000000000000000000000000000000000000004000000000000000000001000000000000000000400000000000100000000000000000000000000000000000000000000000000000000000000000000000102000",
      "type": "0x0",
      "transactionHash": "0xf777d6408348114734c036fffbd76b7553fa0ce407cd38b515844896a787e01a",
      "transactionIndex": "0xb8",
      "blockHash": "0xa67b8ffcac6653b5c0e11dad2bae382e2f5860946c025ed9b81e31be421bde3c",
      "blockNumber": "0x50c695c",
      "gasUsed": "0x33f5e",
      "effectiveGasPrice": "0x1d0df48622",
      "from": "0xdc328af6c71df52966890a7f007179c25be4ff3b",
      "to": "0x7e1e59ad19385f948003fa6c28de32c7b3201dea",
      "contractAddress": null
    },
    {
      "status": "0x1",
      "cumulativeGasUsed": "0x2a07a8d",
      "logs": [
        {
          "address": "0x0000000000000000000000000000000000001010",
          "topics": [
            "0x4dfe1bbbcf077ddc3e01291eea2d5c70c2b422b415d95645b9adcfd678cb1d63",
            "0x0000000000000000000000000000000000000000000000000000000000001010",
            "0x000000000000000000000000dc328af6c71df52966890a7f007179c25be4ff3b",
            "0x0000000000000000000000007ee41d8a25641000661b1ef5e6ae8a00400466b0"
          ],
          "data": "0x0000000000000000000000000000000000000000000000000013235f31974c3200000000000000000000000000000000000000000000000296d66ffe456a6e0b00000000000000000000000000000000000000000008bd05b986bfcb87566d9a00000000000000000000000000000000000000000000000296c34c9f13d321d900000000000000000000000000000000000000000008bd05b999e32ab8edb9cc",
          "blockHash": "0x1615cac134a29eda72ab4cbfdf6629b5f75d7ea0ffef590c1af9c10bb69f3572",
          "blockNumber": "0x50c695e",
          "blockTimestamp": "0x69c502df",
          "transactionHash": "0x8f642721440064f406ad6af29cc5bd6d3bb9c53156869924deb229c071960012",
          "transactionIndex": "0xea",
          "logIndex": "0x888",
          "removed": false
        }
      ],
      "logsBloom": "0x00000000040000000000000000000000000000000000000000000000000000000000000000000000000000000000000000008000000000000000000000000800000000000000000000000000000000800000000000000000000100000000000000000000000000000000000000000000000000000000000080000000000000000000000000000000020000000400000000000000000000000000000000000000200000000000000000000000000000000000000000000000000000000000004000000000000000000001000000000000000000400000000000100000000000000000000000000000000000000000000000000000000000000000000000102000",
      "type": "0x0",
      "transactionHash": "0x8f642721440064f406ad6af29cc5bd6d3bb9c53156869924deb229c071960012",
      "transactionIndex": "0xea",
      "blockHash": "0x1615cac134a29eda72ab4cbfdf6629b5f75d7ea0ffef590c1af9c10bb69f3572",
      "blockNumber": "0x50c695e",
      "gasUsed": "0x33f5e",
      "effectiveGasPrice": "0x1d0df48622",
      "from": "0xdc328af6c71df52966890a7f007179c25be4ff3b",
      "to": "0x7e1e59ad19385f948003fa6c28de32c7b3201dea",
      "contractAddress": null
    },
    {
      "status": "0x1",
      "cumulativeGasUsed": "0x2a6237c",
      "logs": [
        {
          "address": "0x0000000000000000000000000000000000001010",
          "topics": [
            "0x4dfe1bbbcf077ddc3e01291eea2d5c70c2b422b415d95645b9adcfd678cb1d63",
            "0x0000000000000000000000000000000000000000000000000000000000001010",
            "0x000000000000000000000000dc328af6c71df52966890a7f007179c25be4ff3b",
            "0x0000000000000000000000007ee41d8a25641000661b1ef5e6ae8a00400466b0"
          ],
          "data": "0x0000000000000000000000000000000000000000000000000013047b0c94769a000000000000000000000000000000000000000000000002967815066638cf8f00000000000000000000000000000000000000000008bd06365bf7ec8f233c8f0000000000000000000000000000000000000000000000029665108b59a458f500000000000000000000000000000000000000000008bd06366efc679bb7b329",
          "blockHash": "0x700ba9cbc7086d51a201e4f477ecbd445a755008051b06b0e2ccf5f1d7287bb3",
          "blockNumber": "0x50c6960",
          "blockTimestamp": "0x69c502e3",
          "transactionHash": "0x7b74c44341eebfa171870ebb93531ba92af241bcff42efbb3fb41bbce9e4d9d6",
          "transactionIndex": "0xc2",
          "logIndex": "0x906",
          "removed": false
        }
      ],
      "logsBloom": "0x00000000040000000000000000000000000000000000000000000000000000000000000000000000000000000000000000008000000000000000000000000800000000000000000000000000000000800000000000000000000100000000000000000000000000000000000000000000000000000000000080000000000000000000000000000000020000000400000000000000000000000000000000000000200000000000000000000000000000000000000000000000000000000000004000000000000000000001000000000000000000400000000000100000000000000000000000000000000000000000000000000000000000000000000000102000",
      "type": "0x0",
      "transactionHash": "0x7b74c44341eebfa171870ebb93531ba92af241bcff42efbb3fb41bbce9e4d9d6",
      "transactionIndex": "0xc2",
      "blockHash": "0x700ba9cbc7086d51a201e4f477ecbd445a755008051b06b0e2ccf5f1d7287bb3",
      "blockNumber": "0x50c6960",
      "gasUsed": "0x33f46",
      "effectiveGasPrice": "0x1d0df48622",
      "from": "0xdc328af6c71df52966890a7f007179c25be4ff3b",
      "to": "0x7e1e59ad19385f948003fa6c28de32c7b3201dea",
      "contractAddress": null
    },
    {
      "status": "0x1",
      "cumulativeGasUsed": "0x270f1d4",
      "logs": [
        {
          "address": "0x0000000000000000000000000000000000001010",
          "topics": [
            "0x4dfe1bbbcf077ddc3e01291eea2d5c70c2b422b415d95645b9adcfd678cb1d63",
            "0x0000000000000000000000000000000000000000000000000000000000001010",
            "0x000000000000000000000000dc328af6c71df52966890a7f007179c25be4ff3b",
            "0x0000000000000000000000007ee41d8a25641000661b1ef5e6ae8a00400466b0"
          ],
          "data": "0x0000000000000000000000000000000000000000000000000012f9f2446077b20000000000000000000000000000000000000000000000029619bcc7d5f3c44300000000000000000000000000000000000000000008bd06ac0270edf8fb897a0000000000000000000000000000000000000000000000029606c2d591934c9100000000000000000000000000000000000000000008bd06ac156ae03d5c012c",
          "blockHash": "0x923d5455e513f0bcee8654eab839e95c5771b96e20a0f684c36d1f219b5dbec2",
          "blockNumber": "0x50c6962",
          "blockTimestamp": "0x69c502e7",
          "transactionHash": "0x6aa287048c88478d337584e17f1111f67858be4ac8443ebc7ecdc6ca19e944c2",
          "transactionIndex": "0xba",
          "logIndex": "0x809",
          "removed": false
        }
      ],
      "logsBloom": "0x00000000040000000000000000000000000000000000000000000000000000000000000000000000000000000000000000008000000000000000000000000800000000000000000000000000000000800000000000000000000100000000000000000000000000000000000000000000000000000000000080000000000000000000000000000000020000000400000000000000000000000000000000000000200000000000000000000000000000000000000000000000000000000000004000000000000000000001000000000000000000400000000000100000000000000000000000000000000000000000000000000000000000000000000000102000",
      "type": "0x0",
      "transactionHash": "0x6aa287048c88478d337584e17f1111f67858be4ac8443ebc7ecdc6ca19e944c2",
      "transactionIndex": "0xba",
      "blockHash": "0x923d5455e513f0bcee8654eab839e95c5771b96e20a0f684c36d1f219b5dbec2",
      "blockNumber": "0x50c6962",
      "gasUsed": "0x33f5e",
      "effectiveGasPrice": "0x1d0df48622",
      "from": "0xdc328af6c71df52966890a7f007179c25be4ff3b",
      "to": "0x7e1e59ad19385f948003fa6c28de32c7b3201dea",
      "contractAddress": null
    },
    {
      "status": "0x1",
      "cumulativeGasUsed": "0x4257fd4",
      "logs": [
        {
          "address": "0x0000000000000000000000000000000000001010",
          "topics": [
            "0x4dfe1bbbcf077ddc3e01291eea2d5c70c2b422b415d95645b9adcfd678cb1d63",
            "0x0000000000000000000000000000000000000000000000000000000000001010",
            "0x000000000000000000000000dc328af6c71df52966890a7f007179c25be4ff3b",
            "0x0000000000000000000000007ee41d8a25641000661b1ef5e6ae8a00400466b0"
          ],
          "data": "0x0000000000000000000000000000000000000000000000000012e7c3db298c9200000000000000000000000000000000000000000000000295bb61cff6c225c700000000000000000000000000000000000000000008bd0818f60c9a88496cbe00000000000000000000000000000000000000000000000295a87a0c1b98993500000000000000000000000000000000000000000008bd081908f45e6372f950",
          "blockHash": "0xeb391692c60979f197617b8c60bf76d5fbc4ff6cdc79a717d3a9e7a304dbfca5",
          "blockNumber": "0x50c6966",
          "blockTimestamp": "0x69c502ef",
          "transactionHash": "0x875336c25bef7e30b9175d394f47b5f79a5fcdca0bf06db2f2f92aa31fedd355",
          "transactionIndex": "0x104",
          "logIndex": "0xdae",
          "removed": false
        }
      ],
      "logsBloom": "0x00000000040000000000000000000000000000000000000000000000000000000000000000000000000000000000000000008000000000000000000000000800000000000000000000000000000000800000000000000000000100000000000000000000000000000000000000000000000000000000000080000000000000000000000000000000020000000400000000000000000000000000000000000000200000000000000000000000000000000000000000000000000000000000004000000000000000000001000000000000000000400000000000100000000000000000000000000000000000000000000000000000000000000000000000102000",
      "type": "0x0",
      "transactionHash": "0x875336c25bef7e30b9175d394f47b5f79a5fcdca0bf06db2f2f92aa31fedd355",
      "transactionIndex": "0x104",
      "blockHash": "0xeb391692c60979f197617b8c60bf76d5fbc4ff6cdc79a717d3a9e7a304dbfca5",
      "blockNumber": "0x50c6966",
      "gasUsed": "0x33f5e",
      "effectiveGasPrice": "0x1d0df48622",
      "from": "0xdc328af6c71df52966890a7f007179c25be4ff3b",
      "to": "0x7e1e59ad19385f948003fa6c28de32c7b3201dea",
      "contractAddress": null
    },
    {
      "status": "0x1",
      "cumulativeGasUsed": "0x2f97404",
      "logs": [
        {
          "address": "0x0000000000000000000000000000000000001010",
          "topics": [
            "0x4dfe1bbbcf077ddc3e01291eea2d5c70c2b422b415d95645b9adcfd678cb1d63",
            "0x0000000000000000000000000000000000000000000000000000000000001010",
            "0x000000000000000000000000dc328af6c71df52966890a7f007179c25be4ff3b",
            "0x0000000000000000000000007ee41d8a25641000661b1ef5e6ae8a00400466b0"
          ],
          "data": "0x0000000000000000000000000000000000000000000000000013080725ec3d02000000000000000000000000000000000000000000000002955d06d81790874b00000000000000000000000000000000000000000008bd09569b362d3a65abf80000000000000000000000000000000000000000000000029549fed0f1a44a4900000000000000000000000000000000000000000008bd0956ae3e346051e8fa",
          "blockHash": "0x86cf9641af65c2d1298d875be5ef2aa9421911fac8ab509c899166b37872344f",
          "blockNumber": "0x50c696a",
          "blockTimestamp": "0x69c502f7",
          "transactionHash": "0x4ba645862a878b5c5dc0ca3e2b9b70d9e57b79adda93b3e23072cb62634c6c45",
          "transactionIndex": "0xf6",
          "logIndex": "0xa2d",
          "removed": false
        }
      ],
      "logsBloom": "0x00000000040000000000000000000000000000000000000000000000000000000000000000000000000000000000000000008000000000000000000000000800000000000000000000000000000000800000000000000000000100000000000000000000000000000000000000000000000000000000000080000000000000000000000000000000020000000400000000000000000000000000000000000000200000000000000000000000000000000000000000000000000000000000004000000000000000000001000000000000000000400000000000100000000000000000000000000000000000000000000000000000000000000000000000102000",
      "type": "0x0",
      "transactionHash": "0x4ba645862a878b5c5dc0ca3e2b9b70d9e57b79adda93b3e23072cb62634c6c45",
      "transactionIndex": "0xf6",
      "blockHash": "0x86cf9641af65c2d1298d875be5ef2aa9421911fac8ab509c899166b37872344f",
      "blockNumber": "0x50c696a",
      "gasUsed": "0x33f5e",
      "effectiveGasPrice": "0x1d0df48622",
      "from": "0xdc328af6c71df52966890a7f007179c25be4ff3b",
      "to": "0x7e1e59ad19385f948003fa6c28de32c7b3201dea",
      "contractAddress": null
    },
    {
      "status": "0x1",
      "cumulativeGasUsed": "0x371664e",
      "logs": [
        {
          "address": "0x0000000000000000000000000000000000001010",
          "topics": [
            "0x4dfe1bbbcf077ddc3e01291eea2d5c70c2b422b415d95645b9adcfd678cb1d63",
            "0x0000000000000000000000000000000000000000000000000000000000001010",
            "0x000000000000000000000000dc328af6c71df52966890a7f007179c25be4ff3b",
            "0x0000000000000000000000007ee41d8a25641000661b1ef5e6ae8a00400466b0"
          ],
          "data": "0x00000000000000000000000000000000000000000000000000132a7ab4ed893a00000000000000000000000000000000000000000000000294feabe0385ee8cf00000000000000000000000000000000000000000008bd0ae98fc3e0b1fab96e00000000000000000000000000000000000000000000000294eb816583715f9500000000000000000000000000000000000000000008bd0ae9a2ee5b66e842a8",
          "blockHash": "0x99bc7a9d2a2e8186ac0845de7bf2d0c3ac27d333a1bdc777cce6bcb57f5b8d92",
          "blockNumber": "0x50c696f",
          "blockTimestamp": "0x69c50301",
          "transactionHash": "0x65201073d613a900223ffb4604770d592813196dbf1186efc55cbfc86fac3cdf",
          "transactionIndex": "0x108",
          "logIndex": "0xb8c",
          "removed": false
        }
      ],
      "logsBloom": "0x00000000040000000000000000000000000000000000000000000000000000000000000000000000000000000000000000008000000000000000000000000800000000000000000000000000000000800000000000000000000100000000000000000000000000000000000000000000000000000000000080000000000000000000000000000000020000000400000000000000000000000000000000000000200000000000000000000000000000000000000000000000000000000000004000000000000000000001000000000000000000400000000000100000000000000000000000000000000000000000000000000000000000000000000000102000",
      "type": "0x0",
      "transactionHash": "0x65201073d613a900223ffb4604770d592813196dbf1186efc55cbfc86fac3cdf",
      "transactionIndex": "0x108",
      "blockHash": "0x99bc7a9d2a2e8186ac0845de7bf2d0c3ac27d333a1bdc777cce6bcb57f5b8d92",
      "blockNumber": "0x50c696f",
      "gasUsed": "0x33f5e",
      "effectiveGasPrice": "0x1d0df48622",
      "from": "0xdc328af6c71df52966890a7f007179c25be4ff3b",
      "to": "0x7e1e59ad19385f948003fa6c28de32c7b3201dea",
      "contractAddress": null
    },
    {
      "status": "0x1",
      "cumulativeGasUsed": "0x38795b7",
      "logs": [
        {
          "address": "0x0000000000000000000000000000000000001010",
          "topics": [
            "0x4dfe1bbbcf077ddc3e01291eea2d5c70c2b422b415d95645b9adcfd678cb1d63",
            "0x0000000000000000000000000000000000000000000000000000000000001010",
            "0x000000000000000000000000dc328af6c71df52966890a7f007179c25be4ff3b",
            "0x0000000000000000000000007ee41d8a25641000661b1ef5e6ae8a00400466b0"
          ],
          "data": "0x0000000000000000000000000000000000000000000000000012fc58510492f600000000000000000000000000000000000000000000000294a050e8592d4a5300000000000000000000000000000000000000000008bd0b92632eb0ee90fe28000000000000000000000000000000000000000000000002948d54900828b75d00000000000000000000000000000000000000000008bd0b92762b093f95911e",
          "blockHash": "0xfe1592d56817c34d795f9fb5f4726953fa7f4385d0f4ef356f81b951f3818893",
          "blockNumber": "0x50c6971",
          "blockTimestamp": "0x69c50305",
          "transactionHash": "0x9eaa45063480bfd0dee6435126e28bbd61e550b15deba0b10e6ae795edf06262",
          "transactionIndex": "0xdc",
          "logIndex": "0xc8e",
          "removed": false
        }
      ],
      "logsBloom": "0x00000000040000000000000000000000000000000000000000000000000000000000000000000000000000000000000000008000000000000000000000000800000000000000000000000000000000800000000000000000000100000000000000000000000000000000000000000000000000000000000080000000000000000000000000000000020000000400000000000000000000000000000000000000200000000000000000000000000000000000000000000000000000000000004000000000000000000001000000000000000000400000000000100000000000000000000000000000000000000000000000000000000000000000000000102000",
      "type": "0x0",
      "transactionHash": "0x9eaa45063480bfd0dee6435126e28bbd61e550b15deba0b10e6ae795edf06262",
      "transactionIndex": "0xdc",
      "blockHash": "0xfe1592d56817c34d795f9fb5f4726953fa7f4385d0f4ef356f81b951f3818893",
      "blockNumber": "0x50c6971",
      "gasUsed": "0x33f52",
      "effectiveGasPrice": "0x1d0df48622",
      "from": "0xdc328af6c71df52966890a7f007179c25be4ff3b",
      "to": "0x7e1e59ad19385f948003fa6c28de32c7b3201dea",
      "contractAddress": null
    },
    {
      "status": "0x1",
      "cumulativeGasUsed": "0x44436b3",
      "logs": [
        {
          "address": "0x0000000000000000000000000000000000001010",
          "topics": [
            "0x4dfe1bbbcf077ddc3e01291eea2d5c70c2b422b415d95645b9adcfd678cb1d63",
            "0x0000000000000000000000000000000000000000000000000000000000001010",
            "0x000000000000000000000000dc328af6c71df52966890a7f007179c25be4ff3b",
            "0x0000000000000000000000007ee41d8a25641000661b1ef5e6ae8a00400466b0"
          ],
          "data": "0x0000000000000000000000000000000000000000000000000012fdae7d8ce1b40000000000000000000000000000000000000000000000029441f74d2171f56f00000000000000000000000000000000000000000008bd0d6c7767a767e9422a000000000000000000000000000000000000000000000002942ef99ea3e513bb00000000000000000000000000000000000000000008bd0d6c8a6555e57623de",
          "blockHash": "0xa2f9eb7c6ab5e2e543d3eefc05a781f5951a1c32cd4a0ff2a32bc2f3b8762a71",
          "blockNumber": "0x50c6976",
          "blockTimestamp": "0x69c5030f",
          "transactionHash": "0x8fdaee11f35e3bed465f0ca226149b30e46faa6b3ee46fc8a4c5aa014602facd",
          "transactionIndex": "0x120",
          "logIndex": "0xe0c",
          "removed": false
        }
      ],
      "logsBloom": "0x00000000040000000000000000000000000000000000000000000000000000000000000000000000000000000000000000008000000000000000000000000800000000000000000000000000000000800000000000000000000100000000000000000000000000000000000000000000000000000000000080000000000000000000000000000000020000000400000000000000000000000000000000000000200000000000000000000000000000000000000000000000000000000000004000000000000000000001000000000000000000400000000000100000000000000000000000000000000000000000000000000000000000000000000000102000",
      "type": "0x0",
      "transactionHash": "0x8fdaee11f35e3bed465f0ca226149b30e46faa6b3ee46fc8a4c5aa014602facd",
      "transactionIndex": "0x120",
      "blockHash": "0xa2f9eb7c6ab5e2e543d3eefc05a781f5951a1c32cd4a0ff2a32bc2f3b8762a71",
      "blockNumber": "0x50c6976",
      "gasUsed": "0x33f5e",
      "effectiveGasPrice": "0x1d0df48622",
      "from": "0xdc328af6c71df52966890a7f007179c25be4ff3b",
      "to": "0x7e1e59ad19385f948003fa6c28de32c7b3201dea",
      "contractAddress": null
    },
    {
      "status": "0x1",
      "cumulativeGasUsed": "0x2f9d2bd",
      "logs": [
        {
          "address": "0x0000000000000000000000000000000000001010",
          "topics": [
            "0x4dfe1bbbcf077ddc3e01291eea2d5c70c2b422b415d95645b9adcfd678cb1d63",
            "0x0000000000000000000000000000000000000000000000000000000000001010",
            "0x000000000000000000000000dc328af6c71df52966890a7f007179c25be4ff3b",
            "0x0000000000000000000000007ee41d8a25641000661b1ef5e6ae8a00400466b0"
          ],
          "data": "0x00000000000000000000000000000000000000000000000000131d14c07f7a7400000000000000000000000000000000000000000000000293e39c55424056f300000000000000000000000000000000000000000008bd0f010e7988260605f000000000000000000000000000000000000000000000000293d07f4081c0dc7f00000000000000000000000000000000000000000008bd0f0121969ce6858064",
          "blockHash": "0x8e19e1bfee5feac0df388dbce8ecf6c3e72869428170acdcf87fed3882143a27",
          "blockNumber": "0x50c697b",
          "blockTimestamp": "0x69c50319",
          "transactionHash": "0x5afcdade1a836f318d3b77f2e0effb2f8914a113bfc14bf1b58663146441adc5",
          "transactionIndex": "0xc9",
          "logIndex": "0xa41",
          "removed": false
        }
      ],
      "logsBloom": "0x00000000040000000000000000000000000000000000000000000000000000000000000000000000000000000000000000008000000000000000000000000800000000000000000000000000000000800000000000000000000100000000000000000000000000000000000000000000000000000000000080000000000000000000000000000000020000000400000000000000000000000000000000000000200000000000000000000000000000000000000000000000000000000000004000000000000000000001000000000000000000400000000000100000000000000000000000000000000000000000000000000000000000000000000000102000",
      "type": "0x0",
      "transactionHash": "0x5afcdade1a836f318d3b77f2e0effb2f8914a113bfc14bf1b58663146441adc5",
      "transactionIndex": "0xc9",
      "blockHash": "0x8e19e1bfee5feac0df388dbce8ecf6c3e72869428170acdcf87fed3882143a27",
      "blockNumber": "0x50c697b",
      "gasUsed": "0x33f5e",
      "effectiveGasPrice": "0x1d0df48622",
      "from": "0xdc328af6c71df52966890a7f007179c25be4ff3b",
      "to": "0x7e1e59ad19385f948003fa6c28de32c7b3201dea",
      "contractAddress": null
    }
  ],
  "libraries": [
    "src/GameLib.sol:GameLib:0xaa844DB251863F4029d4d6398866439Ccc5dec06"
  ],
  "pending": [],
  "returns": {},
  "timestamp": 1774519065933,
  "chain": 137,
  "commit": "2ab215d"
}