{
  "transactions": [
    {
      "hash": "0x6a5f6bd181ee6f1dd2024381533d9b7bdc7ca7fa4680db0250423175dbcfcd9f",
      "transactionType": "CREATE",
      "contractName": "ScriptHub",
      "contractAddress": "0x8dd39e693688f9a3ac2d1f6dd6d7c05f29888ed2",
      "function": null,
      "arguments": null,
      "transaction": {
        "from": "0xdc328af6c71df52966890a7f007179c25be4ff3b",
        "gas": "0x1c2338",
        "value": "0x0",
        "input": "0x60806040523461039057604080519081016001600160401b0381118282101761029d576040908152601182527010db185dc8105c995b984814d8dc9a5c1d607a1b602083015280519081016001600160401b0381118282101761029d57604052600681526514d0d492541560d21b602082015281516001600160401b03811161029d57600054600181811c91168015610386575b602082101461027d57601f8111610322575b50602092601f82116001146102be57928192936000926102b3575b50508160011b916000199060031b1c1916176000555b80516001600160401b03811161029d57600154600181811c91168015610293575b602082101461027d57601f8111610218575b50602091601f82116001146101b4579181926000926101a9575b50508160011b916000199060031b1c1916176001555b33156101935760068054336001600160a01b03198216811790925560405191906001600160a01b03167f8be0079c531659141344cd1fd0a4f28419497f9722a3daafe3b4186f6b6457e0600080a361172f90816103968239f35b631e4fbdf760e01b600052600060045260246000fd5b015190503880610123565b601f198216926001600052806000209160005b858110610200575083600195106101e7575b505050811b01600155610139565b015160001960f88460031b161c191690553880806101d9565b919260206001819286850151815501940192016101c7565b60016000527fb10e2d527612073b26eecdfd717e6a320cf44b4afac2b0732d9fcbe2b7fa0cf6601f830160051c81019160208410610273575b601f0160051c01905b8181106102675750610109565b6000815560010161025a565b9091508190610251565b634e487b7160e01b600052602260045260246000fd5b90607f16906100f7565b634e487b7160e01b600052604160045260246000fd5b0151905038806100c0565b601f1982169360008052806000209160005b86811061030a57508360019596106102f1575b505050811b016000556100d6565b015160001960f88460031b161c191690553880806102e3565b919260206001819286850151815501940192016102d0565b600080527f290decd9548b62a8d60345a988386fc84ba6bc95484008f6362f93160ef3e563601f830160051c8101916020841061037c575b601f0160051c01905b81811061037057506100a5565b60008155600101610363565b909150819061035a565b90607f1690610093565b600080fdfe608080604052600436101561001357600080fd5b600090813560e01c90816301ffc9a7146110485750806306fdde0314610fc0578063081812fc14610f83578063095ea7b314610e9b578063150b7a0214610e4457806318160ddd14610a0157806323b872dd14610e2c5780633533fedf14610e0e57806342842e0e14610de45780634f586b8a14610c735780636352211e14610c425780636c307bf314610abd57806370a0823114610a6a578063715018a614610a1f57806375794a3c14610a015780638da5cb5b146109d857806395d89b41146109095780639bb3a3451461071c578063a22cb4651461067e578063a2c8bc981461056a578063a959100414610534578063b88d4fde146104a4578063c87b56dd14610448578063cfa2023114610213578063e985e9c5146101b95763f2fde38b1461013f57600080fd5b346101b65760203660031901126101b6576101586110f6565b6101606115bf565b6001600160a01b031680156101a257600680546001600160a01b0319811683179091556001600160a01b03166000805160206116ba833981519152600080a380f35b631e4fbdf760e01b82526004829052602482fd5b80fd5b50346101b65760403660031901126101b65760406101d56110f6565b916101de611111565b9260018060a01b031681526005602052209060018060a01b0316600052602052602060ff604060002054166040519015158152f35b50346101b65760203660031901126101b6576004356001600160401b03811161044457366023820112156104445760048101356001600160401b038111610440573660248260051b840101116104405761026b6115bf565b600a546104055790368190036042190190835b838110156103fb576009546102928161141c565b600955600060248360051b85010135858112156103f75784016024810135906001600160401b0382116103f35781360360448201136103f35783895260076020526040892092506102e38354611226565b601f81116103ae575b508890601f831160011461033b579180610327949260019796948c9261032d575b5050600019600383901b1c191690861b1790555b306115e8565b0161027e565b01604401359050388061030d565b838a5260208a2091601f1984168b5b81811061039357509260019796949192889383610327989610610375575b505050811b019055610321565b604491010135600019600384901b60f8161c19169055388080610368565b6044848401013585556001909401936020928301920161034a565b838a5260208a20601f840160051c810191602085106103e9575b601f0160051c01905b8181106103de57506102ec565b8a81556001016103d1565b90915081906103c8565b8880fd5b8780fd5b84600954600a5580f35b60405162461bcd60e51b8152602060048201526013602482015272105b1c9958591e481a5b9a5d1a585b1a5e9959606a1b6044820152606490fd5b8280fd5b5080fd5b50346101b65760203660031901126101b657610465600435611588565b50806040516104756020826111d2565b52506104a06040516104886020826111d2565b600081526040519182916020835260208301906110b5565b0390f35b50346101b65760803660031901126101b6576104be6110f6565b6104c6611111565b90606435906001600160401b038211610530573660238301121561053057816004013592846104f48561120b565b9361050260405195866111d2565b8585523660248783010111610444578561052d96602460209301838801378501015260443591611441565b80f35b8380fd5b50346101b65760203660031901126101b6576040602091600435815260088352205460a01b6040519060018060a01b0319168152f35b50346101b65760203660031901126101b65760043560095481101561064d5781526007602052604081209060405191818154916105a683611226565b808652926001811690811561062357506001146105e2575b6104a0856105ce818703826111d2565b6040519182916020835260208301906110b5565b815260208120939250905b808210610609575090915081016020016105ce826104a06105be565b9192600181602092548385880101520191019092916105ed565b8695506104a0969350602092506105ce94915060ff191682840152151560051b82010192936105be565b60405162461bcd60e51b8152602060048201526009602482015268139bdd08195e1a5cdd60ba1b6044820152606490fd5b50346101b65760403660031901126101b6576106986110f6565b60243590811515809203610440576001600160a01b0316908115610708573383526005602052604083208284526020526040832060ff1981541660ff83161790556040519081527f17307eab39ab6107e8899845ad3d59bd9653f200f220920489ca2b5937696c3160203392a380f35b630b61174360e31b83526004829052602483fd5b50346101b65760403660031901126101b657600435906024356001600160401b03811161044457610751903690600401611127565b909261075c81611588565b336001600160a01b03909116036108d857600a5481106108a2576107818215156113e1565b8252600760205260408220906001600160401b03811161088e576107a58254611226565b601f8111610849575b5082601f82116001146107e8578394829394926107dd575b50508160011b916000199060031b1c191617905580f35b0135905038806107c6565b601f198216948385526020852091855b878110610831575083600195969710610817575b505050811b01905580f35b0135600019600384901b60f8161c1916905538808061080c565b909260206001819286860135815501940191016107f8565b82845260208420601f830160051c81019160208410610884575b601f0160051c01905b81811061087957506107ae565b84815560010161086c565b9091508190610863565b634e487b7160e01b83526041600452602483fd5b60405162461bcd60e51b815260206004820152600e60248201526d111959985d5b1d081cd8dc9a5c1d60921b6044820152606490fd5b60405162461bcd60e51b81526020600482015260096024820152682737ba1037bbb732b960b91b6044820152606490fd5b50346101b657806003193601126101b65760405190806001549061092c82611226565b80855291600181169081156109b15750600114610954575b6104a0846105ce818603826111d2565b600181527fb10e2d527612073b26eecdfd717e6a320cf44b4afac2b0732d9fcbe2b7fa0cf6939250905b808210610997575090915081016020016105ce82610944565b91926001816020925483858801015201910190929161097e565b60ff191660208087019190915292151560051b850190920192506105ce9150839050610944565b50346101b657806003193601126101b6576006546040516001600160a01b039091168152602090f35b50346101b657806003193601126101b6576020600954604051908152f35b50346101b657806003193601126101b657610a386115bf565b600680546001600160a01b0319811690915581906001600160a01b03166000805160206116ba8339815191528280a380f35b50346101b65760203660031901126101b6576001600160a01b03610a8c6110f6565b168015610aa9578160409160209352600383522054604051908152f35b6322718ad960e21b82526004829052602482fd5b50346101b657610acc3661118e565b919092610ada8315156113e1565b60095492610ae78461141c565b600955838252600760205260408220906001600160401b03811161088e57610b0f8254611226565b601f8111610bfd575b50806020968490601f8311600114610b99578592610b8e575b50508160011b916000199060031b1c19161790555b6001600160a01b03198216610b6a575b5050610b6281336115e8565b604051908152f35b80836040925260088552209060a01c60018060601b03198254161790553880610b56565b013590503880610b31565b848652888620925090601f198416865b818110610be65750908460019594939210610bcc575b505050811b019055610b46565b0135600019600384901b60f8161c19169055388080610bbf565b91938a600181928787013581550195019201610ba9565b82845260208420601f830160051c81019160208410610c38575b601f0160051c01905b818110610c2d5750610b18565b848155600101610c20565b9091508190610c17565b50346101b65760203660031901126101b6576020610c61600435611588565b6040516001600160a01b039091168152f35b50346101b657610c823661118e565b919092610c8d6115bf565b610c988315156113e1565b60095492610ca58461141c565b600955838252600760205260408220906001600160401b03811161088e57610ccd8254611226565b601f8111610d9f575b506020958390601f8311600114610d3957604094939291849183610d2e575b50508160011b916000199060031b1c19161790555b83815260088552209060a01c60018060601b0319825416179055610b6281306115e8565b013590503880610cf5565b83855287852091601f198416865b818110610d88575091600193918560409897969410610d6e575b505050811b019055610d0a565b0135600019600384901b60f8161c19169055388080610d61565b91938a600181928787013581550195019201610d47565b82845260208420601f830160051c81019160208410610dda575b601f0160051c01905b818110610dcf5750610cd6565b848155600101610dc2565b9091508190610db9565b50346101b65761052d610df636611154565b9060405192610e066020856111d2565b858452611441565b50346101b657806003193601126101b6576020600a54604051908152f35b50346101b65761052d610e3e36611154565b91611260565b50346101b65760803660031901126101b657610e5e6110f6565b50610e67611111565b506064356001600160401b03811161044457610e87903690600401611127565b5050604051630a85bd0160e11b8152602090f35b50346101b65760403660031901126101b657610eb56110f6565b602435610ec181611588565b33151580610f70575b80610f45575b610f325781906001600160a01b0384811691167f8c5be1e5ebec7d5bd14f71427d1e84f3dd0314c0f7b2291e5b200ac8c7c3b9258680a4825260046020526040822080546001600160a01b0319166001600160a01b0390921691909117905580f35b63a9fbf51f60e01b845233600452602484fd5b506001600160a01b038116845260056020908152604080862033875290915284205460ff1615610ed0565b506001600160a01b038116331415610eca565b50346101b65760203660031901126101b657602090600435610fa481611588565b50815260048252604060018060a01b0391205416604051908152f35b50346101b657806003193601126101b6576040519080805490610fe282611226565b80855291600181169081156109b15750600114611009576104a0846105ce818603826111d2565b80805260208120939250905b80821061102e575090915081016020016105ce82610944565b919260018160209254838588010152019101909291611015565b9050346104445760203660031901126104445760043563ffffffff60e01b811680910361044057602092506380ac58cd60e01b81149081156110a4575b8115611093575b5015158152f35b6301ffc9a760e01b1490503861108c565b635b5e139f60e01b81149150611085565b919082519283825260005b8481106110e1575050826000602080949584010152601f8019910116010190565b806020809284010151828286010152016110c0565b600435906001600160a01b038216820361110c57565b600080fd5b602435906001600160a01b038216820361110c57565b9181601f8401121561110c578235916001600160401b03831161110c576020838186019501011161110c57565b606090600319011261110c576004356001600160a01b038116810361110c57906024356001600160a01b038116810361110c579060443590565b90604060031983011261110c576004356001600160a01b03198116810361110c5791602435906001600160401b03821161110c576111ce91600401611127565b9091565b601f909101601f19168101906001600160401b038211908210176111f557604052565b634e487b7160e01b600052604160045260246000fd5b6001600160401b0381116111f557601f01601f191660200190565b90600182811c92168015611256575b602083101461124057565b634e487b7160e01b600052602260045260246000fd5b91607f1691611235565b6001600160a01b03909116919082156113cb576000828152600260205260408120546001600160a01b0316938391859033151580611333575b506000805160206116da8339815191529082611311575b838152600360209081526040808320805460010190558683526002909152812080546001600160a01b0319168517905580a46001600160a01b03168083036112f757505050565b6364283d7b60e01b60005260045260245260445260646000fd5b61131a8561169b565b82815260036020526040812080546000190190556112b0565b91509192508061137c575b1561134d579084849238611299565b83908561136657602491637e27328960e01b8252600452fd5b60449163177e802f60e01b825233600452602452fd5b5033851480156113aa575b8061133e5750838152600460205260408120546001600160a01b0316331461133e565b5084815260056020908152604080832033845290915281205460ff16611387565b633250574960e11b600052600060045260246000fd5b156113e857565b60405162461bcd60e51b815260206004820152600c60248201526b115b5c1d1e481cd8dc9a5c1d60a21b6044820152606490fd5b600019811461142b5760010190565b634e487b7160e01b600052601160045260246000fd5b929161144e818386611260565b813b61145b575b50505050565b604051630a85bd0160e11b81523360048201526001600160a01b03948516602482015260448101919091526080606482015292169190602090829081906114a69060848301906110b5565b03816000865af18091600091611545575b509061151057503d15611509573d6114ce8161120b565b906114dc60405192836111d2565b81523d6000602083013e5b805190816115045782633250574960e11b60005260045260246000fd5b602001fd5b60606114e7565b6001600160e01b03191663757a42ff60e11b01611531575038808080611455565b633250574960e11b60005260045260246000fd5b6020813d602011611580575b8161155e602093836111d2565b810103126104445751906001600160e01b0319821682036101b65750386114b7565b3d9150611551565b6000818152600260205260409020546001600160a01b03169081156115ab575090565b637e27328960e01b60005260045260246000fd5b6006546001600160a01b031633036115d357565b63118cdaa760e01b6000523360045260246000fd5b6001600160a01b031680156113cb57600091808352600260205260018060a01b0360408420541691826000805160206116da8339815191528115159586611679575b838152600360209081526040808320805460010190558683526002909152812080546001600160a01b0319168517905580a45061166357565b6339e3563760e11b600052600060045260246000fd5b6116828561169b565b828152600360205260408120805460001901905561162a565b600090815260046020526040902080546001600160a01b031916905556fe8be0079c531659141344cd1fd0a4f28419497f9722a3daafe3b4186f6b6457e0ddf252ad1be2c89b69c2b068fc378daa952ba7f163c4a11628f55a4df523b3efa264697066735822122003a1bf4ee4254fe98cc68dfbd93d96110327d878b678c50699f2281a70bc176064736f6c634300081b0033",
        "nonce": "0x19",
        "chainId": "0x89"
      },
      "additionalContracts": [],
      "isFixedGasLimit": false
    },
    {
      "hash": "0x02391218e916de0a819d9cb0fa06c77dcc833e624b1cead25daf79d1d1b7b28e",
      "transactionType": "CREATE",
      "contractName": "LobsterHub",
      "contractAddress": "0x9c1f5534399a58ab3300940deced432dad2d4bed",
      "function": null,
      "arguments": null,
      "transaction": {
        "from": "0xdc328af6c71df52966890a7f007179c25be4ff3b",
        "gas": "0x25c805",
        "value": "0x0",
        "input": "0x60806040523461046c576100136040610490565b601281527121b630bb9020b932b730902637b139ba32b960711b602082015261003c6040610490565b60078152662627a129aa22a960c91b602082015281516001600160401b03811161038f57600054600181811c91168015610462575b602082101461036f57601f8111610414575b50602092601f82116001146103b057928192936000926103a5575b50508160011b916000199060031b1c1916176000555b80516001600160401b03811161038f57600154600181811c91168015610385575b602082101461036f57601f8111610315575b50602091601f82116001146102b1579181926000926102a6575b50508160011b916000199060031b1c1916176001555b33156102905760068054336001600160a01b0319821681179092556001600160a01b03167f8be0079c531659141344cd1fd0a4f28419497f9722a3daafe3b4186f6b6457e0600080a3610168610471565b600a815260016020820152600160408201526000606082015260036080820152600160a082015260009060005b6006811061027157826007556101a9610471565b601e8152600a6020820152600360408201526005606082015260036080820152600960a082015260009060005b6006811061025257826008556101ea610471565b600181526001602082015260036040820152600160608201526000196080820152600160a082015260009060005b600681106102335782600955604051611e9e90816104e18239f35b9091602061024960019284865160000b916104cc565b93019101610218565b909160206102686001928460ff875116916104cc565b930191016101d6565b909160206102876001928460ff875116916104cc565b93019101610195565b631e4fbdf760e01b600052600060045260246000fd5b015190503880610101565b601f198216926001600052806000209160005b8581106102fd575083600195106102e4575b505050811b01600155610117565b015160001960f88460031b161c191690553880806102d6565b919260206001819286850151815501940192016102c4565b600160005261035f907fb10e2d527612073b26eecdfd717e6a320cf44b4afac2b0732d9fcbe2b7fa0cf6601f840160051c81019160208510610365575b601f0160051c01906104b5565b386100e7565b9091508190610352565b634e487b7160e01b600052602260045260246000fd5b90607f16906100d5565b634e487b7160e01b600052604160045260246000fd5b01519050388061009e565b601f1982169360008052806000209160005b8681106103fc57508360019596106103e3575b505050811b016000556100b4565b015160001960f88460031b161c191690553880806103d5565b919260206001819286850151815501940192016103c2565b6000805261045c907f290decd9548b62a8d60345a988386fc84ba6bc95484008f6362f93160ef3e563601f840160051c8101916020851061036557601f0160051c01906104b5565b38610083565b90607f1690610071565b600080fd5b6040519060c082016001600160401b0381118382101761038f57604052565b6040519190601f01601f191682016001600160401b0381118382101761038f57604052565b8181106104c0575050565b600081556001016104b5565b9060ff809160031b9316831b921b1916179056fe608080604052600436101561001357600080fd5b600090813560e01c90816301ffc9a7146114115750806306fdde0314611373578063081812fc14611336578063095ea7b31461124e578063150b7a02146111de57806318160ddd14610fec5780631ced1de5146111a757806323b872dd1461118f57806342842e0e146111655780634fd00c431461113c5780636352211e1461110b578063668c5c1a146110c65780636dfd8072146110a857806370a0823114611055578063715018a61461100a57806375794a3c14610fec5780638da5cb5b14610fc357806395d89b4114610eb6578063a1b1037314610e2a578063a22cb46514610d88578063b82e563114610bd2578063b88d4fde14610b42578063bb3b63ed14610b0c578063c112dcdc14610ae2578063c5c22e3e14610aab578063c87b56dd1461066d578063e88851b0146102b6578063e985e9c51461025c578063f2fde38b146101e5578063f5bcb562146101bb5763f6c64dc31461017657600080fd5b346101b85760203660031901126101b857604060209160043561019c600d5482106115cc565b8152600c8352205460a01b6040519060018060a01b0319168152f35b80fd5b50346101b85760203660031901126101b85760406020916004358152600b83522054604051908152f35b50346101b85760203660031901126101b8576101ff6114c6565b610207611998565b6001600160a01b0316801561024857600680546001600160a01b0319811683179091556001600160a01b0316600080516020611e298339815191528380a380f35b631e4fbdf760e01b82526004829052602482fd5b50346101b85760403660031901126101b85760406102786114c6565b916102816114e1565b9260018060a01b031681526005602052209060018060a01b0316600052602052602060ff604060002054166040519015158152f35b50346101b85760203660031901126101b8576102d0611531565b906102e66001600160a01b031983161515611785565b600f546001600160a01b0316803b1561066957818091604460405180948193634bc6a73f60e11b8352336004840152610bb860248401525af1801561065e57829061064e575b505060001943019043821161063a5763ffffffff600d549260405160208101914483524060408201524260608201528460808201526080815261037060a082611578565b519020168061063157506103846001611e06565b9260c092836040516103968282611578565b3690378492604051946103a98187611578565b368637805b60ff811660068110156103e557816001916103dd60ff6103ce8196611dbc565b90549060031b1c16918a611950565b5201166103ae565b5050848685600c5b848160010b13610516575091839284905b601560ff8316106104cd576020878960408989898961041c876117be565b600d5560ff81511688820151868301519060608401519261ff0062ff000063ff0000008d60a060808a0151990151908c528f600a905260ff60381b9060381b1698600161ffff600d818060281b941606161b60281b16978f60ff901b9060201b169660181b169460101b169260081b1617171717171783832055848252600b865282822055838152600c8552209060a01c60018060601b03198254161790556104c581336119c1565b604051908152f35b6104d990949194611e06565b908460031b6107f860f88216911681036105025760ff91600191838516901b17950116906103fe565b634e487b7160e01b87526011600452602487fd5b9061052090611e06565b90600660ff831606855b600660ff82161061053d575b50506103ed565b600660ff61054b8385611dd4565b160660ff811660ff61055d828a611950565b511660ff61056a84611dbc565b90549060031b1c1691600684101561061d578360051c9160ff6105a384600801958260f8601f8a1698549960031b1698891c1690611dd4565b16116105b8575050505060010160ff1661052a565b91935091935060ff6105df6105d8826105d1858d611950565b5116611a74565b928a611950565b91169052600901905054901c850b9060010b03617fff8113617fff19821217610609578780610536565b634e487b7160e01b85526011600452602485fd5b634e487b7160e01b8b52603260045260248bfd5b61038490611e06565b634e487b7160e01b81526011600452602490fd5b61065791611578565b388161032c565b6040513d84823e3d90fd5b5080fd5b50346101b85760203660031901126101b85760043590610690600d5483106115cc565b818152600a6020526040812054918152600c602052604081205460a01b918180925b60ff8416600c811015610a9d5785901a60f81b6001600160f81b031916156106ea5760016106e160ff92611a74565b940116926106b2565b60ff9193509391935b16906106fe82611a85565b92805b60ff81168481101561074557600c8110156107315760ff9181610729866001941a9189611ab7565b530116610701565b634e487b7160e01b83526032600452602483fd5b868661075360ff8316611ac8565b918060081c60ff1661076490611ac8565b908060101c60ff1661077590611ac8565b8160181c60ff1661078590611ac8565b908260201c60ff1661079690611ac8565b9260381c60ff166107a690611ac8565b93604051968796683d913730b6b2911d1160b91b60208901528051908160298a0191602001916107d59261147e565b7f222c226465736372697074696f6e223a22436c6177204172656e61204c6f6273602991890191820152681d195c88139195088b60ba1b60498201526d2261747472696275746573223a5b60901b60528201527a3d913a3930b4ba2fba3cb832911d1124281116113b30b63ab2911d60291b6060820152815191610862908390607b84019060200161147e565b0160290160528101611f4b60f21b90527b3d913a3930b4ba2fba3cb832911d1120aa259116113b30b63ab2911d60211b6054820152815191826070830191602001916108ad9261147e565b01605201601e8101611f4b60f21b9052602081017f7b2274726169745f74797065223a2252616e6765222c2276616c7565223a0000905281519182603e830191602001916108fa9261147e565b01601e0160208101611f4b60f21b9052602281017f7b2274726169745f74797065223a225370656564222c2276616c7565223a00009052815191826040830191602001916109479261147e565b0160200160208101611f4b60f21b9052602281017f7b2274726169745f74797065223a224d616e61222c2276616c7565223a000000905281519182603f830191602001916109949261147e565b01602001601f8101611f4b60f21b9052602181017f7b2274726169745f74797065223a22536b696c6c20506f776572222c2276616c9052633ab2911d60e11b6041820152815191826045830191602001916109ee9261147e565b01601f0160268101607d60f81b905260278101615d7d60f01b905203602601601c1981018252600301610a219082611578565b610a2a90611b66565b6040518091602082017f646174613a6170706c69636174696f6e2f6a736f6e3b6261736536342c000000905280519081603d84019160200191610a6c9261147e565b810103603d01601f1981018252610a839082611578565b60405180916020825260208201610a99916114a1565b0390f35b5060ff9193509391936106f3565b50346101b85760203660031901126101b8576040602091600435610ad2600d5482106115cc565b8152600a83522054604051908152f35b50346101b85760203660031901126101b85760406020916004358152600a83522054604051908152f35b50346101b85760203660031901126101b85760406020916004358152600c8352205460a01b6040519060018060a01b0319168152f35b50346101b85760803660031901126101b857610b5c6114c6565b610b646114e1565b90606435906001600160401b038211610bce5736602383011215610bce5781600401359284610b92856115b1565b93610ba06040519586611578565b85855236602487830101116106695785610bcb96602460209301838801378501015260443591611809565b80f35b8380fd5b50346101b85760603660031901126101b8576004356001600160401b03811161066957610c03903690600401611548565b906024356001600160401b038111610bce57610c23903690600401611548565b9092906044356001600160401b038111610d8457610c45903690600401611548565b90610c4e611998565b600e54610d495782841480610d40575b15610d0957865b848110610c765787600d54600e5580f35b600d5490610c83826117be565b600d55610c918187896117e3565b35828a52600a60205260408a2055610caa81868a6117e3565b35828a52600b60205260408a2055610cc38185856117e3565b356001600160a01b031981168103610d055782610cff916001948c52600c60205260408c209060a01c858060601b0319825416179055306119c1565b01610c65565b8980fd5b60405162461bcd60e51b815260206004820152600f60248201526e098cadccee8d040dad2e6dac2e8c6d608b1b6044820152606490fd5b50818414610c5e565b60405162461bcd60e51b8152602060048201526013602482015272105b1c9958591e481a5b9a5d1a585b1a5e9959606a1b6044820152606490fd5b8580fd5b50346101b85760403660031901126101b857610da26114c6565b60243590811515809203610e26576001600160a01b0316908115610e12573383526005602052604083208284526020526040832060ff1981541660ff83161790556040519081527f17307eab39ab6107e8899845ad3d59bd9653f200f220920489ca2b5937696c3160203392a380f35b630b61174360e31b83526004829052602483fd5b8280fd5b50346101b85760603660031901126101b857602090610e47611531565b610e4f611998565b610e646001600160a01b031982161515611785565b6040600d5492610e73846117be565b600d55838152600a855260243582822055838152600b855260443582822055838152600c8552209060a01c60018060601b03198254161790556104c581306119c1565b50346101b857806003193601126101b8576040519080600154908160011c91600181168015610fb9575b602084108114610fa557838652908115610f7e5750600114610f21575b610a9984610f0d81860382611578565b6040519182916020835260208301906114a1565b600181527fb10e2d527612073b26eecdfd717e6a320cf44b4afac2b0732d9fcbe2b7fa0cf6939250905b808210610f6457509091508101602001610f0d82610efd565b919260018160209254838588010152019101909291610f4b565b60ff191660208087019190915292151560051b85019092019250610f0d9150839050610efd565b634e487b7160e01b83526022600452602483fd5b92607f1692610ee0565b50346101b857806003193601126101b8576006546040516001600160a01b039091168152602090f35b50346101b857806003193601126101b8576020600d54604051908152f35b50346101b857806003193601126101b857611023611998565b600680546001600160a01b0319811690915581906001600160a01b0316600080516020611e298339815191528280a380f35b50346101b85760203660031901126101b8576001600160a01b036110776114c6565b168015611094578160409160209352600383522054604051908152f35b6322718ad960e21b82526004829052602482fd5b50346101b857806003193601126101b8576020600e54604051908152f35b50346101b85760203660031901126101b8576110e06114c6565b6110e8611998565b600f80546001600160a01b0319166001600160a01b039290921691909117905580f35b50346101b85760203660031901126101b857602061112a600435611961565b6040516001600160a01b039091168152f35b50346101b857806003193601126101b857600f546040516001600160a01b039091168152602090f35b50346101b857610bcb611177366114f7565b9060405192611187602085611578565b858452611809565b50346101b857610bcb6111a1366114f7565b91611604565b50346101b85760203660031901126101b85760406020916004356111ce600d5482106115cc565b8152600b83522054604051908152f35b50346101b85760803660031901126101b8576111f86114c6565b506112016114e1565b506064356001600160401b03811161066957366023820112156106695760048101356001600160401b038111610e2657369101602401116101b857604051630a85bd0160e11b8152602090f35b50346101b85760403660031901126101b8576112686114c6565b60243561127481611961565b33151580611323575b806112f8575b6112e55781906001600160a01b0384811691167f8c5be1e5ebec7d5bd14f71427d1e84f3dd0314c0f7b2291e5b200ac8c7c3b9258680a4825260046020526040822080546001600160a01b0319166001600160a01b0390921691909117905580f35b63a9fbf51f60e01b845233600452602484fd5b506001600160a01b038116845260056020908152604080862033875290915284205460ff1615611283565b506001600160a01b03811633141561127d565b50346101b85760203660031901126101b85760209060043561135781611961565b50815260048252604060018060a01b0391205416604051908152f35b50346101b857806003193601126101b85760405190808054908160011c91600181168015611407575b602084108114610fa557838652908115610f7e57506001146113c857610a9984610f0d81860382611578565b80805260208120939250905b8082106113ed57509091508101602001610f0d82610efd565b9192600181602092548385880101520191019092916113d4565b92607f169261139c565b9050346106695760203660031901126106695760043563ffffffff60e01b8116809103610e2657602092506380ac58cd60e01b811490811561146d575b811561145c575b5015158152f35b6301ffc9a760e01b14905038611455565b635b5e139f60e01b8114915061144e565b60005b8381106114915750506000910152565b8181015183820152602001611481565b906020916114ba8151809281855285808601910161147e565b601f01601f1916010190565b600435906001600160a01b03821682036114dc57565b600080fd5b602435906001600160a01b03821682036114dc57565b60609060031901126114dc576004356001600160a01b03811681036114dc57906024356001600160a01b03811681036114dc579060443590565b600435906001600160a01b0319821682036114dc57565b9181601f840112156114dc578235916001600160401b0383116114dc576020808501948460051b0101116114dc57565b601f909101601f19168101906001600160401b0382119082101761159b57604052565b634e487b7160e01b600052604160045260246000fd5b6001600160401b03811161159b57601f01601f191660200190565b156115d357565b60405162461bcd60e51b8152602060048201526009602482015268139bdd08195e1a5cdd60ba1b6044820152606490fd5b6001600160a01b039091169190821561176f576000828152600260205260408120546001600160a01b03169383918590331515806116d7575b50600080516020611e4983398151915290826116b5575b838152600360209081526040808320805460010190558683526002909152812080546001600160a01b0319168517905580a46001600160a01b031680830361169b57505050565b6364283d7b60e01b60005260045260245260445260646000fd5b6116be85611de8565b8281526003602052604081208054600019019055611654565b915091925080611720575b156116f157908484923861163d565b83908561170a57602491637e27328960e01b8252600452fd5b60449163177e802f60e01b825233600452602452fd5b50338514801561174e575b806116e25750838152600460205260408120546001600160a01b031633146116e2565b5084815260056020908152604080832033845290915281205460ff1661172b565b633250574960e11b600052600060045260246000fd5b1561178c57565b60405162461bcd60e51b815260206004820152600a602482015269456d707479206e616d6560b01b6044820152606490fd5b60001981146117cd5760010190565b634e487b7160e01b600052601160045260246000fd5b91908110156117f35760051b0190565b634e487b7160e01b600052603260045260246000fd5b9291611816818386611604565b813b611823575b50505050565b604051630a85bd0160e11b81523360048201526001600160a01b039485166024820152604481019190915260806064820152921691906020908290819061186e9060848301906114a1565b03816000865af1809160009161190d575b50906118d857503d156118d1573d611896816115b1565b906118a46040519283611578565b81523d6000602083013e5b805190816118cc5782633250574960e11b60005260045260246000fd5b602001fd5b60606118af565b6001600160e01b03191663757a42ff60e11b016118f957503880808061181d565b633250574960e11b60005260045260246000fd5b6020813d602011611948575b8161192660209383611578565b810103126106695751906001600160e01b0319821682036101b857503861187f565b3d9150611919565b9060068110156117f35760051b0190565b6000818152600260205260409020546001600160a01b0316908115611984575090565b637e27328960e01b60005260045260246000fd5b6006546001600160a01b031633036119ac57565b63118cdaa760e01b6000523360045260246000fd5b6001600160a01b0316801561176f57600091808352600260205260018060a01b036040842054169182600080516020611e498339815191528115159586611a52575b838152600360209081526040808320805460010190558683526002909152812080546001600160a01b0319168517905580a450611a3c57565b6339e3563760e11b600052600060045260246000fd5b611a5b85611de8565b8281526003602052604081208054600019019055611a03565b60ff1660ff81146117cd5760010190565b90611a8f826115b1565b611a9c6040519182611578565b8281528092611aad601f19916115b1565b0190602036910137565b9081518110156117f3570160200190565b8015611b465780600081805b611b2e5750611ae281611a85565b925b611aed57505090565b80156117cd576000190190600a810660300190816030116117cd57600a9160f81b6001600160f81b03191660001a611b258486611ab7565b53049081611ae4565b9150611b3b600a916117be565b910480839291611ad4565b50604051611b55604082611578565b60018152600360fc1b602082015290565b604051611b74606082611578565b604081527f4142434445464748494a4b4c4d4e4f505152535455565758595a61626364656660208201527f6768696a6b6c6d6e6f707172737475767778797a303132333435363738392b2f604082015281518015611da457600281018082116117cd57600390046001600160fe1b03811681036117cd57611bf79060021b611a85565b9260009060005b838110611c0d57505050505090565b611c178183611ab7565b5160018201808311806117cd578682109060008215611d9d575050611c3e60009286611ab7565b5160f81c915b600285019182861193846117cd578984109460008615611d94575050611c6c60009489611ab7565b5160f81c955b60e81c62ff00001660089190911b61ff00161760ff861617918b611cbf6001600160f81b0319611ca9601287901c603f168f611ab7565b51169a611cb5816117be565b9b60001a92611ab7565b538b611cde6001600160f81b0319611ca9600c87901c603f168f611ab7565b536117cd5715611d88576001600160f81b031990611d029060061c603f168a611ab7565b5116955b611d1d611d12826117be565b9760001a918b611ab7565b536117cd5715611d7c576001600160f81b031990611d3e90603f1687611ab7565b5116925b611d59611d4e826117be565b9460001a9188611ab7565b536003810180911115611bfe57634e487b7160e01b600052601160045260246000fd5b50603d60f81b92611d42565b50603d60f81b95611d06565b90945095611c72565b9250611c44565b505050604051611db5602082611578565b6000815290565b9060068210156117f357601f8260051c600701921690565b9060ff8091169116019060ff82116117cd57565b600090815260046020526040902080546001600160a01b0319169055565b63ffffe00081600d1b1618617fff8160111c161863ffffffe08160051b16189056fe8be0079c531659141344cd1fd0a4f28419497f9722a3daafe3b4186f6b6457e0ddf252ad1be2c89b69c2b068fc378daa952ba7f163c4a11628f55a4df523b3efa2646970667358221220caa3fe66368c3775ff0005fc271ebe738c2c6bb2be15affa4be9cb7c4fb626b064736f6c634300081b0033",
        "nonce": "0x1a",
        "chainId": "0x89"
      },
      "additionalContracts": [],
      "isFixedGasLimit": false
    },
    {
      "hash": "0x12d5a44faff50ccce3c5640c5cc62c4df131a0a3b64a98cc5248a3919730467e",
      "transactionType": "CREATE",
      "contractName": "ClawArena",
      "contractAddress": "0x365e7a621b7ab376b467a84c40f10532f4faa514",
      "function": null,
      "arguments": [
        "0x9C1F5534399a58ab3300940decED432Dad2d4bEd",
        "0x8dd39e693688f9a3AC2d1f6DD6D7c05f29888ed2"
      ],
      "transaction": {
        "from": "0xdc328af6c71df52966890a7f007179c25be4ff3b",
        "gas": "0x405792",
        "value": "0x0",
        "input": "0x60803461010157601f61392b38819003918201601f19168301916001600160401b0383118484101761010657808492604094855283398101031261010157610052602061004b8361011c565b920161011c565b33156100eb5760008054336001600160a01b0319821681178355604051946001949390926001600160a01b0316907f8be0079c531659141344cd1fd0a4f28419497f9722a3daafe3b4186f6b6457e09080a382805560025491838060a01b0316838060a01b03196003541617600355620100008360b01b039060101b169061ff018360b01b03191617176002556137fa90816101318239f35b631e4fbdf760e01b600052600060045260246000fd5b600080fd5b634e487b7160e01b600052604160045260246000fd5b51906001600160a01b03821682036101015756fe61018080604052600436101561001457600080fd5b60003560e01c9081630251838414612cd7575080630339887314612a4c578063072ea61c14612a295780630800e3a2146129e35780632752398d14612942578063334d8de31461291957806334cb68c8146128dc5780633a7fb595146128965780633e04bf15146128715780633f4ba83a1461284b5780634b34d1b41461273c5780635a5c69d6146126f25780635c12cd4b146124e55780635c975abb146124bf5780636d763a6e146121b5578063715018a61461216e57806379c4264b1461214a5780637eef78fc14612110578063809d3820146120cd57806383bc8d751461208a5780638456cb59146120605780638da5cb5b14612037578063978d4e7e14611f7b5780639943c3a514611f3b5780639ce67bdd14611efe578063a5951aa014611dce578063aa3491b714611da5578063af137ca814611d6f578063ba3823a61461092c578063bcb396211461090b578063be5957d714610872578063bebd607a14610845578063c5886fbd14610797578063ccd7938214610639578063d73f3b39146104ce578063d8fa2738146104a5578063e18d38ce1461045f578063e2eb41ff14610371578063f2fde38b146102fa578063f4381364146102065763f60cdcf6146101e357600080fd5b34610201576000366003190112610201576020600654604051908152f35b600080fd5b346102015760403660031901126102015761021f612d00565b610227612d41565b6004546001600160a01b0316331415806102df575b806102ca575b6102ba5760ff811661027857506001600160a01b0316600090815260056020526040902060090180546001600160f81b03169055005b6001600160a01b039091166000908152600560205260409020600901805460f89290921b6001600160f81b0319166001600160f81b0392909216919091179055005b6282b42960e81b60005260046000fd5b506000546001600160a01b0316331415610242565b506002543360109190911c6001600160a01b0316141561023c565b3461020157602036600319011261020157610313612d00565b61031b61315d565b6001600160a01b0316801561035b57600080546001600160a01b03198116831782556001600160a01b0316906000805160206137a58339815191529080a3005b631e4fbdf760e01b600052600060045260246000fd5b34610201576020366003190112610201576001600160a01b03610392612d00565b1660005260056020526101c06040600020805460801b906001810154906002810154600382015463ffffffff60ff6004850154166005850154600686015460000b600787015491600888015493600989015496600a8a01549866ffffffffffffff600c600b8d01549c0154169b60206040519e8f9060018060801b0319168152015260408d015260608c015260808b015260a08a015260c089015260e088015281811661010088015260201c166101208601526101408501526101608401526101808301526101a0820152f35b34610201576020366003190112610201576001600160a01b03610480612d00565b166000526005602052602060406000205460801b6040519060018060801b0319168152f35b3461020157600036600319011261020157604b546040516001600160a01b039091168152602090f35b34610201576060366003190112610201576104e7612d00565b6024359063ffffffff82169081830361020157610502612d51565b929115610613575b5060009063ffffffff815b169182151580610604575b1561054c5761052e90612ec8565b91600052600860205263ffffffff8060406000205460201c16610515565b60ff1661055881612f10565b9061056281612f42565b92906000915b60ff8316828110156105f1578063ffffffff6105876105cc9388612fa0565b9316809352826000526008602052604060002063ffffffff604051916105ac83612e22565b54818116835260201c1660208201526105c58289612fa0565b5286612fa0565b50600052600860205260ff600163ffffffff60406000205460201c1693011691610568565b60405180610600888883612d61565b0390f35b5060ff841660ff821610610520565b6001600160a01b031660009081526009602052604090205463ffffffff1690508261050a565b346102015760203660031901126102015760043560ff811681036102015760ff61066282613133565b90549060031b1c1690600781101590816107235760081b604c019160ff9161068b60ff8561314c565b905460039190911b1c6001600160a01b03161561078e5761ffff6101005b16936106b485612ef9565b916106c26040519384612e58565b8583526106ce86612ef9565b602084019490601f190136863760005b61ffff8116888110156107395783610723578160019161071b6107068b61ffff96168961314c565b858060a01b0391549060031b1c169189612fa0565b5201166106de565b634e487b7160e01b600052603260045260246000fd5b858388604051916040830193604084525180945260608301916000945b80861061076b57505082935060208301520390f35b81516001600160a01b031684526001959095019460209384019390910190610756565b61ffff826106a9565b34610201576040366003190112610201576107b0612d00565b602435906001600160801b031982168203610201576004546001600160a01b03163314158061082a575b80610815575b6102ba576001600160a01b0316600090815260056020526040902080546001600160801b03191660809290921c919091179055005b506000546001600160a01b03163314156107e0565b506002543360109190911c6001600160a01b031614156107da565b346102015760003660031901126102015760025460405160109190911c6001600160a01b03168152602090f35b346102015760403660031901126102015761088b612d00565b610893612d41565b9060018060a01b0360045416331415806108f0575b806108db575b6102ba5760018060a01b03166000526005602052600160ff600560406000200192161b8154179055600080f35b506000546001600160a01b03163314156108ae565b506002543360109190911c6001600160a01b031614156108a8565b3461020157600036600319011261020157602060ff60025416604051908152f35b606036600319011261020157610940612d51565b600260015414611d5e5760026001556002549060ff8260081c16611d4d5733600052600560205260406000209160018060a01b038160101c166040516331a9108f60e11b81526004356004820152602081602481855afa908115610f7a57600091611d2e575b506001600160a01b0316908114159081611d23575b50611d125760018060a01b03600354166040516331a9108f60e11b81526024356004820152602081602481855afa908115610f7a57600091611ce3575b506001600160a01b0316908114159081611cd8575b50611cc857600483019060ff80835416911611611ca3575b50600181161515908180611c8f575b80611c87575b611c4057600281161515928380611c75575b611c4057600482161515918280611c63575b611c40576008161515928380611c51575b611c405715611bdc5734611bcb57600581018054600160401b191690555b63ffffffff600782015460405160208101914483524260408301523360601b6060830152607482015260748152610ac5609482612e58565b51902016938415611bc2575b60646001830154046000608052600760805260ff610af0608051612ff8565b16811015611bad57915b6040519360e0610b0a8187612e58565b36863760ff600094169660006101605260ff610160525b610b2a88613133565b6101605191549060031b1c1660805189101561072357610b53610160518a60081b604c0161314c565b905460039190911b1c6001600160a01b031615611ba857506101005b600861ffff821610611aee5761ffff60071991160161ffff81116115af5761ffff600291160161ffff81116115af5761ffff811615611ad857610bc761ffff80921663ffffffff841606607f60805160011c166133fb565b1696607f60805160011c16880361ffff81116115af575b60805161ffff60019190911c607f168a01116115af5761ffff607f60805160011c168a011661ffff8216111580611ac3575b15610c77576080518a10156107235780610c33610c53928c60081b604c0161314c565b905460039190911b1c6001600160a01b0316338103610c58575b506133e8565b610bde565b610c70610c648a612ec8565b9961016051168b6130a0565b528b610c4d565b509650965b610160516080511661016051861610801590611ab6575b610ca657610ca090613415565b96610b21565b50849087876101009560405196610cbd8189612e58565b8036893760405196610ccf8289612e58565b8136893760405160e052610ce58260e051612e58565b813660e0513760405160a052610cfd8260a051612e58565b813660a0513760405161014052610d178261014051612e58565b60005b828110611aa45750338952600435885260243560e0515260018060a01b0360025460101c1660c0526040516362e1171f60e11b8152600435600482015260208160248160c0515afa908115610f7a57600091611a72575b5060a0515260018060a01b036003541661010052604051631459179360e31b81526024356004820152600081602481610100515afa908115610f7a57600091611a57575b5061014051526000610120525b61016051608051166101605161012051161015610fba5761016051610120516001600160a01b0391610df59116896130a0565b511680610e1261016051610e0b610120516130b1565b168c61300b565b52806000526005602052600a60406000200154610e3f61016051610e38610120516130b1565b168b61300b565b526000526005602052600b60406000200154610e6d61016051610e64610120516130b1565b1660e05161300b565b52610e8861016051610e81610120516130b1565b168961300b565b51604051906362e1171f60e11b8252600482015260208160248160c0515afa908115610f7a57600091610f86575b50610ed361016051610eca610120516130b1565b1660a05161300b565b52610ee761016051610e64610120516130b1565b5160405190631459179360e31b82526004820152600081602481610100515afa8015610f7a57610f4391600091610f59575b5061016051610f2a610120516130b1565b1690610f39826101405161300b565b526101405161300b565b5061016051600161012051011661012052610dc2565b610f74913d8091833e610f6c8183612e58565b81019061303f565b8b610f19565b6040513d6000823e3d90fd5b906020823d8211610fb2575b81610f9f60209383612e58565b81010312610faf5750518a610eb6565b80fd5b3d9150610f92565b87899160405195632ee04c5d60e21b87526004870161014488019060a051906000905b60088210611a415750505061014061010489015287610244810191610140519060005b600881106119fd57505050806105009263ffffffff8c16610124830152038173aa844db251863f4029d4d6398866439ccc5dec065af4968715610f7a5760009761190f575b5060009860006040519061105882612e3d565b808252806020830152806040830152806060830152608082015260005b61016051811660088110156118fd5761016051611092828d61300b565b515116156110a95750600161016051910116611075565b91506110bf92939495969798999a9b509961300b565b51955b6001840154966000986001995b6008610160518c16101561114c5761110c908b8a60018060a01b036110f96101605184168361300b565b516000911661111c575050508a90612e98565b99600161016051910116996110cf565b610160516001936040936001600160a01b039261113a92169061300b565b51168152600560205220015490612e98565b8c99506111658c91999899610160516080511690612fee565b913360005260056020526040600020946001860192835492611186826136da565b60010b608088019788516118dc575b606001966101605188511660028110156118a9575b506111bd6111b787612e8a565b91612e8a565b916000811315611843576064830292808404606414901517156115af576111e961120092606494612fee565b906096821161183a575b6014821061183157613425565b058015611829575b80998061181f575b6117ef575b50806117e5575b6117cd575b600088139283156117575750611238888554612e98565b84555b61ffff61124782613744565b169861172a575b6002870161125d8a8254612e98565b90556101605185511692156116fb576008870163ffffffff611281818354166130f9565b825463ffffffff191691161790556003870180546000811290811590826116f0576001019160018312908115169116176115af57905b555b6080518701948554156116dd575b6112d18654612e7b565b86556112f46112ee60088a019563ffffffff875460201c166133fb565b85613110565b6009600389019889546000811390816116c7575b50611684575b01968754600181179754906064821015611677575b506103e8111561166d575b51611663575b610160519051166003811015611658575b6005111561164e575b6101605116958615611644575b5490600a82121561163a575b50603281121561162e575b60641315611623575b5463ffffffff8160201c166064811015611618575b6101f481101561160c575b6103e81115611600575b63ffffffff16600a8110156115f4575b60648110156115e7575b6103e811156115db575b54956064870480610160516113df608051612ff8565b16106115c5575b600181018091116115af576001901b60001981019081116115af5761ffff9760649460019461141b9360c81b17905533613448565b600435600a820155602435600b8201550154046101605161143d608051612ff8565b1681101561159657611455905b6101605116336132e6565b63ffffffff60405197168752602087015260010b6040860152166060840152608083016000905b6008821061157657846114936101808201866130d1565b6114a3610280820160e0516130d1565b7f3052d80a3839b2c5f144988a5cc0935093ca5d2c04d48ff371f73ebd3cca81fb6103803392a26115426080515463ffffffff6114e18183166130f9565b16809163ffffffff1916176080515533600052600960205263ffffffff80604060002054166040519261151384612e22565b824316845260208401918252600052600860205281806040600020945116168219845416178355511690613110565b63ffffffff608051541633600052600960205263ffffffff6040600020911663ffffffff1982541617905560018055600080f35b82516001600160a01b03168152602092830192600192909201910161147c565b50611455610160516115a9608051612ff8565b1661144a565b634e487b7160e01b600052601160045260246000fd5b50610160516115d5608051612ff8565b166113e6565b906204000017906113c9565b62020000909217916113bf565b916201000017916113b5565b618000909217916113a5565b6140009093179261139b565b926120001792611390565b91610400179161137b565b61020090931792611372565b909317928c611367565b936040179361135b565b936020179361134e565b601090951794611345565b9460081794611334565b956004179561132e565b60031797506103e8611323565b604b80546001600160a01b031981163390811783558c546001600160b01b031990921661ffff60a01b199091161760a09190911b61ffff60a01b1617905561130e565b905061ffff80604b5460a01c1691161138611308565b6116e8600654612e7b565b6006556112c7565b5050506001906112b7565b600387018054600081136117205760001981019081136001166115af57905b556112b9565b506000199061171a565b976096810290808204609614901517156115af57600587018054600160431b19169055606490049761124e565b60008912611766575b5061123b565b600160ff1b89146115af578860000360648204916064830292808404606414901517156115af578181116117a257505050600084555b8d611760565b826117ad8383612ed9565b10156117bc575050845561179c565b6117c69250612ed9565b845561179c565b600587018054600160411b1916905560009750611221565b506000881261121c565b9098506096810290808205609614901517156115af57600588018054600160421b1916905560649005978e611215565b5060008113611210565b506001611208565b60149150613425565b609691506111f3565b9160008312611854575b5050611208565b90916064830292808404606414901517156115af5761187861188f92606494612fee565b9060c882116118a0575b6032821061189757613425565b058f8061184d565b60329150613425565b60c89150611882565b90916005820291808305600514901517156115af57600082820192831291129080158216911516176115af5790386111aa565b90600a8101906000600a831291129080158216911516176115af5790611195565b505096975090919293949897986110c2565b6105009791973d81116119f6575b6119278183612e58565b810190610500818303126119f25781601f820112156119f2576040519261194e8885612e58565b83926105008301928184116119f257935b8385106119725750505050509589611045565b60a0858303126119f25760405161198881612e3d565b611991866130c3565b815261199f602087016130c3565b6020820152604086015161ffff811681036119ee5760408201526119c5606087016130c3565b6060820152608086015180151581036119ee576080820152815260a0949094019360200161195f565b8480fd5b8280fd5b503d61191d565b9193602080809260019496610143199082030187528751611a298151809281855285808601910161301c565b601f01601f19160101958d9591019391019101611000565b6020806001928551815201930191019091610fdd565b611a6c91503d806000833e610f6c8183612e58565b8a610db5565b90506020813d602011611a9c575b81611a8d60209383612e58565b8101031261020157518a610d71565b3d9150611a80565b80606060209261014051015201610d1a565b5061016051811615610c93565b50610160516080511661016051881610610c10565b634e487b7160e01b600052601260045260246000fd5b61ffff8199929916611b01575b50610c7c565b9660009891985b61ffff891661ffff82161080611b93575b15611b89576080518a101561072357611b6361ffff91611b446101605182168d60081b604c0161314c565b905460039190911b1c6001600160a01b0316338103611b6a57506133e8565b9050611b08565b611b82611b768b612ec8565b9a61016051168c6130a0565b528c610c4d565b5096509688611afb565b50610160516080511661016051881610611b19565b610b6f565b5060ff611bbb608051612ff8565b1691610afa565b60019450610ad1565b634d0419db60e11b60005260046000fd5b670de0b6b3a76400003403611bcb5760008080803460018060a01b038254165af13d15611c3b573d611c0d81612fd3565b90611c1b6040519283612e58565b8152600060203d92013e5b610a8d576312171d8360e31b60005260046000fd5b611c26565b630d5efa9960e01b60005260046000fd5b506005820154600160431b1615610a6f565b506005820154600160421b1615610a5e565b506005810154600160411b1615610a4c565b508115610a3a565b6005840154600160401b1615159250610a34565b600060018401556000600384015560ff80600254161660ff1982541617905582610a25565b622d261b60e31b60005260046000fd5b905033141584610a0d565b611d05915060203d602011611d0b575b611cfd8183612e58565b810190612fb4565b856109f8565b503d611cf3565b63164f80dd60e11b60005260046000fd5b9050331415846109bb565b611d47915060203d602011611d0b57611cfd8183612e58565b856109a6565b6313d0ff5960e31b60005260046000fd5b633ee5aeb560e01b60005260046000fd5b3461020157602036600319011261020157600435602081101561020157600a01546040516001600160a01b039091168152602090f35b34610201576000366003190112610201576003546040516001600160a01b039091168152602090f35b3461020157604036600319011261020157611de7612d16565b611def612d41565b63ffffffff82168015908115611eec575b50611edc575b8160005b63ffffffff8416151580611ecd575b15611e3657611e2a611e3091612ec8565b93612ee6565b92611e0a565b60ff16611e4281612f10565b90611e4c81612f42565b92906000915b60ff831690828210156105f157611ec4600191611ebe84611e7560ff968a612fa0565b63ffffffff84168091526000526008602052604060002063ffffffff60405191611e9e83612e22565b54818116835260201c166020820152611eb7828c612fa0565b5289612fa0565b50612ee6565b93011691611e52565b5060ff831660ff821610611e19565b60075463ffffffff169150611e06565b905063ffffffff600754161083611e00565b34610201576020366003190112610201576001600160a01b03611f1f612d00565b1660005260056020526020600960406000200154604051908152f35b34610201576020366003190112610201576001600160a01b03611f5c612d00565b166000526009602052602063ffffffff60406000205416604051908152f35b3461020157604036600319011261020157611f94612d00565b6024359060018060a01b03600454163314158061201c575b80612007575b6102ba576001600160a01b03166000818152600560205260409020600201548211611ff6576000526005602052611ff26002604060002001918254612ed9565b9055005b6376208d7360e11b60005260046000fd5b506000546001600160a01b0316331415611fb2565b506002543360109190911c6001600160a01b03161415611fac565b34610201576000366003190112610201576000546040516001600160a01b039091168152602090f35b346102015760003660031901126102015761207961315d565b6002805461ff001916610100179055005b34610201576020366003190112610201576120a3612d00565b6120ab61315d565b600380546001600160a01b0319166001600160a01b0392909216919091179055005b34610201576020366003190112610201576120e6612d00565b6120ee61315d565b600480546001600160a01b0319166001600160a01b0392909216919091179055005b346102015760203660031901126102015760043560208110156102015760ff61213a602092612d29565b90549060031b1c16604051908152f35b3461020157600036600319011261020157602063ffffffff60075416604051908152f35b346102015760003660031901126102015761218761315d565b600080546001600160a01b0319811682556001600160a01b03166000805160206137a58339815191528280a3005b3461020157600036600319011261020157610400806040516121d78282612e58565b369037806040516121e88282612e58565b369037806040516121f98282612e58565b36903760405190600a6000835b6020821061249f5750505061221b8183612e58565b604051602a6000825b60208210612489575050506122398282612e58565b60405191604a600082855b6020601f8401106122e75750905061225d915084612e58565b604051936000855b602082106122c75750505083016000905b602082106122b15750505061080082016000905b6020821061229857610c0084f35b60208060019260ff86511681520193019101909161228a565b6020806001928551815201930191019091612276565b82516001600160a01b031681526020928301926001929092019101612265565b602091600191855460ff8116825260ff8160081c168583015260ff8160101c16604083015260ff8160181c16606083015260ff81861c16608083015260ff8160281c1660a083015260ff8160301c1660c083015260ff8160381c1660e083015260ff8160401c1661010083015260ff8160481c1661012083015260ff8160501c1661014083015260ff8160581c1661016083015260ff8160601c1661018083015260ff8160681c166101a083015260ff8160701c166101c083015260ff8160781c166101e083015260ff8160801c1661020083015260ff8160881c1661022083015260ff8160901c1661024083015260ff8160981c1661026083015260ff8160a01c1661028083015260ff8160a81c166102a083015260ff8160b01c166102c083015260ff8160b81c166102e083015260ff8160c01c1661030083015260ff8160c81c1661032083015260ff8160d01c1661034083015260ff8160d81c1661036083015260ff8160e01c1661038083015260ff8160e81c166103a083015260ff8160f01c166103c083015260f81c6103e0820152019301910190918390612244565b6001602081928554815201930191019091612224565b82546001600160a01b031681526001928301929190910190602001612206565b3461020157600036600319011261020157602060ff60025460081c166040519015158152f35b34610201576020366003190112610201576124fe612d00565b60405161250a81612df0565b60008152602081016000905260408101600090526060810160009052608081016000905260a081016000905260c081016000905260e08101600090526101008101600090526101208101600090526101408101600090526101608101600090526101808101600090526101a00160009052600160a01b60019003166000526005602052604060002060405161259e81612df0565b80600160801b6001900319835460801b16928382526001810154936020830194855260028201546040840190815260038301549060608501918252600484015460ff1660808601908152600585015460a08701908152600686015460000b9060c0880191825260078701549260e089019384526008880154956101008a019563ffffffff881687526101208b019760201c63ffffffff16885260098a0154986101408c01998a52600a8b01549a6101608d019b8c52600b8101549c610180019c8d52600c015466ffffffffffffff169c6101a0019c8d526040519d8e9182525190602001525160408d01525160608c01525160ff1660808b01525160a08a01525160000b60c08901525160e08801525163ffffffff166101008701525163ffffffff166101208601525161014085015251610160840152516101808301525166ffffffffffffff166101a08201526101c090f35b346102015760203660031901126102015761270b612d00565b61271361315d565b6002805462010000600160b01b03191660109290921b62010000600160b01b0316919091179055005b34610201576000366003190112610201576004546001600160a01b031633141580612830575b8061281b575b6102ba5760005b602060ff8216106127d15760018060b01b0319604b5416604b5560025460ff6127c38183167f3bfcc3e41aa03b7575bc15e72aa39826ec3640d8d71058400d3e72cbd34ca7506020604051838152a1612ec8565b60ff19909216911617600255005b602081101561072357600a810180546001600160a01b03191690556000602a82015560ff9060019061281461280582612d29565b60ff82549160031b1b19169055565b011661276f565b506000546001600160a01b0316331415612768565b506002543360109190911c6001600160a01b03161415612762565b346102015760003660031901126102015761286461315d565b6002805461ff0019169055005b3461020157600036600319011261020157602061ffff604b5460a01c16604051908152f35b346102015760203660031901126102015763ffffffff6128b4612d16565b1660005260086020526040806000205463ffffffff825191818116835260201c166020820152f35b34610201576020366003190112610201576001600160a01b036128fd612d00565b1660005260056020526020600560406000200154604051908152f35b34610201576000366003190112610201576004546040516001600160a01b039091168152602090f35b346102015760403660031901126102015761295b612d00565b602435908160000b8203610201576004546001600160a01b0316331415806129c8575b806129b3575b6102ba5760018060a01b0316600052600560205260066040600020019060ff198254169060ff16179055600080f35b506000546001600160a01b0316331415612984565b506002543360109190911c6001600160a01b0316141561297e565b34610201576040366003190112610201576129fc612d00565b612a0461315d565b60018060a01b031660005260056020526002604060002001611ff26024358254612e98565b34610201576000366003190112610201576020604051670de0b6b3a76400008152f35b34610201576060366003190112610201576004356001600160a01b03198116908190036102015760243590604435612a8261315d565b8115612ca557600254604051631d5e528f60e21b8152906020908290600490829060101c6001600160a01b03165afa908115610f7a57600091612c73575b50831015612c3d57600354604051631d5e528f60e21b815290602090829060049082906001600160a01b03165afa908115610f7a57600091612c0b575b50811015612bd3576040516020810161414960f01b8152836022830152600e8252612b29602e83612e58565b60018060a01b0391519020169182600052600560205260406000209160078301908154612b9d57612b9b9560019360801c848060801b0319865416178555600a850155600b8401555560ff600481600254169201911660ff19825416179055612b93600654612e7b565b6006556131af565b005b60405162461bcd60e51b815260206004820152600e60248201526d416c72656164792065786973747360901b6044820152606490fd5b60405162461bcd60e51b815260206004820152601060248201526f14d8dc9a5c1d081b9bdd08195e1a5cdd60821b6044820152606490fd5b90506020813d602011612c35575b81612c2660209383612e58565b81010312610201575184612afd565b3d9150612c19565b60405162461bcd60e51b815260206004820152600e60248201526d12195c9bc81b9bdd08195e1a5cdd60921b6044820152606490fd5b90506020813d602011612c9d575b81612c8e60209383612e58565b81010312610201575184612ac0565b3d9150612c81565b60405162461bcd60e51b815260206004820152600a602482015269456d707479206e616d6560b01b6044820152606490fd5b346102015760203660031901126102015760043590602082101561020157602091602a01548152f35b600435906001600160a01b038216820361020157565b6004359063ffffffff8216820361020157565b90602082101561072357601f8260051c604a01921690565b6024359060ff8216820361020157565b6044359060ff8216820361020157565b6040810160408252825180915260206060830193019060005b818110612dd45750505060208183039101526020808351928381520192019060005b818110612da95750505090565b8251805163ffffffff9081168652602091820151168186015260409094019390920191600101612d9c565b825163ffffffff16855260209485019490920191600101612d7a565b6101c081019081106001600160401b03821117612e0c57604052565b634e487b7160e01b600052604160045260246000fd5b604081019081106001600160401b03821117612e0c57604052565b60a081019081106001600160401b03821117612e0c57604052565b601f909101601f19168101906001600160401b03821190821017612e0c57604052565b60001981146115af5760010190565b90603282018092116115af57565b919082018092116115af57565b80546001600160a01b0360039390931b83811b199091169290931690921b179055565b60ff1660ff81146115af5760010190565b919082039182116115af57565b63ffffffff1680156115af576000190190565b6001600160401b038111612e0c5760051b60200190565b90612f1a82612ef9565b612f276040519182612e58565b8281528092612f38601f1991612ef9565b0190602036910137565b90612f4c82612ef9565b612f596040519182612e58565b8281528092612f6a601f1991612ef9565b019060005b828110612f7b57505050565b602090604051612f8a81612e22565b6000815260008382015282828501015201612f6f565b80518210156107235760209160051b010190565b9081602091031261020157516001600160a01b03811681036102015790565b6001600160401b038111612e0c57601f01601f191660200190565b8115611ad8570490565b60ff6000199116019060ff82116115af57565b9060088110156107235760051b0190565b60005b83811061302f5750506000910152565b818101518382015260200161301f565b602081830312610201578051906001600160401b038211610201570181601f8201121561020157805161307181612fd3565b9261307f6040519485612e58565b818452602082840101116102015761309d916020808501910161301c565b90565b9060078110156107235760051b0190565b60ff60019116019060ff82116115af57565b519060ff8216820361020157565b906000905b600882106130e357505050565b60208060019285518152019301910190916130d6565b63ffffffff1663ffffffff81146115af5760010190565b805463ffffffff60201b191660209290921b63ffffffff60201b16919091179055565b90600782101561072357601f8260051c61074c01921690565b610100821015610723570190600090565b6000546001600160a01b0316330361317157565b63118cdaa760e01b6000523360045260246000fd5b60031b906107f860f88316921682036115af57565b61ffff60019116019061ffff82116115af57565b60009060018060a01b038116908183526005602052600c60408420019160ff66ffffffffffffff845416816131e387613186565b161c1660ff81141591826132c5575b50506132c0578260ff61320482613133565b90549060031b1c16936132ac5750610100831015610723578260ff926132356132869360006132aa97604c01612ea5565b66ffffffffffffff84806132496000613186565b161b1666ffffffffffffff8254911982161666ffffffffffffff848761326f6000613186565b161b16179066ffffffffffffff191617905561319b565b166132916000613133565b90919060ff8084549260031b9316831b921b1916179055565b565b634e487b7160e01b81526032600452602490fd5b505050565b915061010081101561072357604c01546001600160a01b03161438806131f2565b9060018060a01b038216806000526005602052600c6040600020019060ff66ffffffffffffff8354168161331986613186565b161c169060ff82141591826133b2575b50506132c05760ff61333a83613133565b90549060031b1c16906007831015610723576133ab8260ff926133736132aa9761336d613291978960081b604c0161314c565b90612ea5565b66ffffffffffffff848061338689613186565b161b1666ffffffffffffff8254911982161666ffffffffffffff848761326f8b613186565b1691613133565b9091506007841015610723576133ce908460081b604c0161314c565b905460039190911b1c6001600160a01b0316143880613329565b61ffff1661ffff81146115af5760010190565b9063ffffffff8091169116019063ffffffff82116115af57565b60ff1680156115af576000190190565b818102929160008212600160ff1b8214166115af5781840514901517156115af57565b60001992919060005b60ff811660208110156136d057602082101561072357600a8201546001600160a01b0384811691161461348a575060010160ff16613451565b9192939450505b600081126136a657601f90819060ff165b8160ff821610613625575050602081101561072357600a810180546001600160a01b03191690556000602a8201556134dd9061280590612d29565b60005b602060ff82161080613606575b806135ef575b156135065761350190612ec8565b6134e0565b9091601f5b60ff831660ff82161161355557506020821015610723576132aa9282600a019060018060a01b031660018060a01b031982541617905581602a015561329160ff6002541691612d29565b61355e81612ff8565b602081101561072357600a01546001600160a01b0316602082101561072357600a820180546001600160a01b0319166001600160a01b039092169190911790556135a781612ff8565b906020821015610723576135ea91602a015481602a01556135e560ff6135d46135cf84612ff8565b612d29565b90549060031b1c1661329183612d29565b613415565b61350b565b506020811015610723578281602a015410156134f3565b50602081101561072357600a8101546001600160a01b031615156134ed565b61362e816130b1565b602081101561072357600a01546001600160a01b0316602082101561072357600a820180546001600160a01b0319166001600160a01b03909216919091179055613677816130b1565b60208110156107235760ff91600191602a015481602a015561369f836135d46135cf846130b1565b01166134a2565b506029546001600160a01b03161515806136c4575b156134dd575050565b506049548211156136bb565b5050909192613491565b60ff16801561373e57600181146137385760028114613732576003811461372c5760048114613725576005811461371e5760061461371857602c1990565b601d1990565b50600e1990565b5060041990565b50600590565b50600f90565b50601e90565b50602d90565b60ff16801561379e57600181146137985760028114613792576003811461378c5760048114613786576005811461373e5760061461378157601990565b602390565b50603790565b50604690565b50605590565b50606490565b5060789056fe8be0079c531659141344cd1fd0a4f28419497f9722a3daafe3b4186f6b6457e0a26469706673582212206b7f1e74c910cbc641437dd3e768a1c40d0283dce78e4a84bdc3fdc8182610c564736f6c634300081b00330000000000000000000000009c1f5534399a58ab3300940deced432dad2d4bed0000000000000000000000008dd39e693688f9a3ac2d1f6dd6d7c05f29888ed2",
        "nonce": "0x1b",
        "chainId": "0x89"
      },
      "additionalContracts": [],
      "isFixedGasLimit": false
    },
    {
      "hash": "0x0efd9ec7102fb76134b2ac2f109bac74cb16c240e60b2effaf595ca1329874e5",
      "transactionType": "CREATE",
      "contractName": "ClawUtility",
      "contractAddress": "0xd7729655809fe501245eea0f894940623330cc98",
      "function": null,
      "arguments": [
        "0x365e7A621b7ab376b467A84c40F10532F4Faa514"
      ],
      "transaction": {
        "from": "0xdc328af6c71df52966890a7f007179c25be4ff3b",
        "gas": "0x18fc62",
        "value": "0x0",
        "input": "0x60803460d157601f6115d438819003918201601f19168301916001600160401b0383118484101760d65780849260209460405283398101031260d157516001600160a01b0381169081900360d157331560bb5760008054336001600160a01b0319821681178355604051939290916001600160a01b0316907f8be0079c531659141344cd1fd0a4f28419497f9722a3daafe3b4186f6b6457e09080a3600180546001600160a01b0319169190911790556114e790816100ed8239f35b631e4fbdf760e01b600052600060045260246000fd5b600080fd5b634e487b7160e01b600052604160045260246000fdfe608080604052600436101561001357600080fd5b600090813560e01c90816304c5d43014610b7d575080633dcdb672146108205780634fd00c43146107f7578063668c5c1a146107b1578063715018a6146107695780638da5cb5b14610742578063a10f956d14610716578063a65d7a5a146105c7578063ac3edc8614610494578063ecb4da5a146102d1578063efaca193146101215763f2fde38b146100a557600080fd5b3461011e57602036600319011261011e576004356001600160a01b0381169081900361011c576100d3611468565b80156101085781546001600160a01b03198116821783556001600160a01b03166000805160206114928339815191528380a380f35b631e4fbdf760e01b82526004829052602482fd5b505b80fd5b503461011e57602036600319011261011e578060043580820b808203610259578281136101af5750506001546001600160a01b0316803b156101ac57818091604460405180948193632752398d60e01b83523360048401528160248401525af180156101a15761019057505080f35b8161019a916110d4565b61011e5780f35b6040513d84823e3d90fd5b50fd5b8060216101cc92121590816102c5575b81156102a5575b506111af565b6001546040516306996d1960e31b81523360048201526001600160a01b0390911690602081602481855afa90811561029a57849161025d575b5061021990600160ff85161b1615156111ef565b803b1561025957604051632752398d60e01b815291839183918290849082906102469033600484016112e9565b03925af180156101a15761019057505080f35b5050fd5b9350506020833d602011610292575b81610279602093836110d4565b8101031261028d5761021984935190610205565b600080fd5b3d915061026c565b6040513d86823e3d90fd5b60018112159150816102b9575b50386101c6565b602091501315386102b2565b602a81131591506101bf565b503461011e57602036600319011261011e576102eb6110c4565b6102f4816113d6565b908115610460576001546040516306996d1960e31b81523360048201526001600160a01b0390911690602081602481855afa908115610455578591610423575b50600160ff84161b166103ee578392813b156103e9578391604483926040519485938492634bc6a73f60e11b845233600485015260248401525af19081156103de5783916103c9575b50506001546001600160a01b0316803b156102595760405163be5957d760e01b815291839183918290849082906103b8903360048401611307565b03925af180156101a1576101905750f35b816103d3916110d4565b6101ac57813861037d565b6040513d85823e3d90fd5b505050fd5b60405162461bcd60e51b815260206004820152600d60248201526c105b1c9958591e481bdddb9959609a1b6044820152606490fd5b90506020813d60201161044d575b8161043e602093836110d4565b8101031261028d575138610334565b3d9150610431565b6040513d87823e3d90fd5b60405162461bcd60e51b815260206004820152600c60248201526b496e76616c6964206974656d60a01b6044820152606490fd5b503461011e57602036600319011261011e57806104af6110c4565b60ff8116806105005750506001546001600160a01b0316803b156101ac57818091604460405180948193633d0e04d960e21b83523360048401528160248401525af180156101a15761019057505080f35b604061050d911115611227565b600154604051639ce67bdd60e01b81523360048201526001600160a01b0390911690602081602481855afa90811561029a57849161058f575b5061056290600160ff61055886611263565b161b16151561128c565b803b1561025957604051633d0e04d960e21b81529183918391829084908290610246903360048401611307565b9350506020833d6020116105bf575b816105ab602093836110d4565b8101031261028d5761056284935190610546565b3d915061059e565b50602036600319011261011e576105dc6110ad565b6001600160801b03198116156106e4576001546040516370c69c6760e11b8152336004820152839291602090829060249082906001600160a01b03165afa9081156103de5783916106b5575b506001600160801b031916156106a65761064b678ac7230489e80000341461116e565b61066d828080803460018060a01b038254165af1610667611324565b50611363565b6001546001600160a01b0316803b156102595760405163c5886fbd60e01b815291839183918290849082906103b89033600484016112c5565b6106b0341561112d565b61066d565b6106d7915060203d6020116106dd575b6106cf81836110d4565b81019061110d565b38610628565b503d6106c5565b60405162461bcd60e51b815260206004820152600a602482015269456d707479206e616d6560b01b6044820152606490fd5b503461011e57602036600319011261011e57602061073a6107356110c4565b6113d6565b604051908152f35b503461011e578060031936011261011e57546040516001600160a01b039091168152602090f35b503461011e578060031936011261011e57610782611468565b80546001600160a01b03198116825581906001600160a01b03166000805160206114928339815191528280a380f35b503461011e57602036600319011261011e576004356001600160a01b0381169081900361011c576107e0611468565b600180546001600160a01b03191691909117905580f35b503461011e578060031936011261011e576001546040516001600160a01b039091168152602090f35b503461011e578060031936011261011e57610839611468565b6001546040516336bb1d3760e11b815291906001600160a01b0316610c0083600481845afa9283156101a1578293610a57575b5060206004916040519283809263bcb3962160e01b82525afa80156101a1578290610a1c575b61089c9150611263565b60021b6103fc60fc821691168103610a08576001019160ff8311610a085760ff829316925b60ff811660208110156109fe576001600160a01b036108e082856113af565b5116156109be57806109965783905b6001546001600160a01b039081169160ff919061090c90876113af565b5116921686019160ff831161098257813b1561097e57918591610946938360405180968195829463be5957d760e01b845260048401611307565b03925af1801561029a57908491610965575b505060010160ff166108c1565b8161096f916110d4565b61097a578238610958565b8280fd5b8580fd5b634e487b7160e01b86526011600452602486fd5b600181036109a6576001906108ef565b600281036109b6576002906108ef565b6003906108ef565b50505090505b60015481906001600160a01b0316803b156101ac578180916004604051809481936312cd346d60e21b83525af180156101a1576101905750f35b50505090506109c4565b634e487b7160e01b82526011600452602482fd5b506020813d602011610a4f575b81610a36602093836110d4565b8101031261011c57610a4a61089c916113a1565b610892565b3d9150610a29565b909250610c003d8111610b76575b610a6f81836110d4565b8101610c008282031261097a5780601f8301121561097a5760405191610400610a9881856110d4565b8181019084848311610b725783905b838210610b4e5750508361041f8401121561097e57604051610ac982826110d4565b610800840192858411610b4a57905b838210610b3a5750508361081f8401121561097e57610c0090610afe60405191826110d4565b9201928311610b3657905b828210610b1e5750919391506020905061086c565b60208091610b2b846113a1565b815201910190610b09565b8480fd5b8151815260209182019101610ad8565b8780fd5b81516001600160a01b0381168103610b6e57815260209182019101610aa7565b8880fd5b8680fd5b503d610a65565b82606036600319011261011e57610b926110ad565b60243580830b808203610d47576044359160ff83169182840361097e576001600160801b0319851680158015929190889061106c576001546040516370c69c6760e11b8152336004820152999a508a9990602090829060249082906001600160a01b03165afa908115611061578a91611042575b506001600160801b031916828114610ffc5715610fec5750610c31678ac7230489e80000341461116e565b6001965b8883139384610f29575b8615159687610e93575b50610dbc575b50509580959612600014610d4b5750506001546001600160a01b0316803b15610d4757838091604460405180948193632752398d60e01b83523360048401528160248401525af190811561029a578491610d32575b50505b610cd5575b5050610cb55780f35b610cd28180808060018060a01b0381541634905af1610667611324565b80f35b6001546001600160a01b0316803b1561097a57604051633d0e04d960e21b81529183918391829084908290610d0e903360048401611307565b03925af180156101a15715610cac5781610d27916110d4565b61011c578183610cac565b81610d3c916110d4565b61097a578286610ca4565b8380fd5b610d56575b50610ca7565b6001546001600160a01b0316803b15610b3657604051632752398d60e01b81529185918391829084908290610d8f9033600484016112e9565b03925af190811561029a578491610da7575b50610d50565b81610db1916110d4565b61097a578286610da1565b6001546040516370c69c6760e11b81523360048201526001600160a01b039091169290602081602481875afa908115610e88578b91610e69575b506001600160801b03191614610c4f57813b15610b6e578891610e30916040519b8c8094819363c5886fbd60e01b835233600484016112c5565b03925af18015610e5e57610e47575b878798610c4f565b9495909681610e55916110d4565b94938690610e3f565b6040513d89823e3d90fd5b610e82915060203d6020116106dd576106cf81836110d4565b8c610df6565b6040513d8d823e3d90fd5b6040610ea0911115611227565b600154604051639ce67bdd60e01b815233600482015290602090829060249082906001600160a01b03165afa8015610e88578b90610ef1575b610eeb9150600160ff6105588c611263565b8b610c49565b506020813d602011610f21575b81610f0b602093836110d4565b81010312610f1d57610eeb9051610ed9565b8a80fd5b3d9150610efe565b602184121580610fe1575b8015610fca575b610f44906111af565b6001546040516306996d1960e31b815233600482015290602090829060249082906001600160a01b03165afa8015610e88578b90610f96575b610f919150600160ff89161b1615156111ef565b610c3f565b506020813d602011610fc2575b81610fb0602093836110d4565b81010312610f1d57610f919051610f7d565b3d9150610fa3565b5060018412158015610f3b57506020841315610f3b565b50602a841315610f34565b96610ff7341561112d565b610c35565b509697503461100c578897610c35565b60405162461bcd60e51b815260206004820152600e60248201526d13985b59481d5b98da185b99d95960921b6044820152606490fd5b61105b915060203d6020116106dd576106cf81836110d4565b8b610c06565b6040513d8c823e3d90fd5b963461107a57889950610c35565b62461bcd60e51b8a52602060048b0152600e60248b01526d4e6f206e616d65206368616e676560901b60448b015260648afd5b600435906001600160801b03198216820361028d57565b6004359060ff8216820361028d57565b601f909101601f19168101906001600160401b038211908210176110f757604052565b634e487b7160e01b600052604160045260246000fd5b9081602091031261028d57516001600160801b03198116810361028d5790565b1561113457565b60405162461bcd60e51b81526020600482015260126024820152714669727374206e616d65206973206672656560701b6044820152606490fd5b1561117557565b60405162461bcd60e51b8152602060048201526012602482015271115e1858dd08199959481c995c5d5a5c995960721b6044820152606490fd5b156111b657565b60405162461bcd60e51b8152602060048201526011602482015270496e76616c6964206e616d65706c61746560781b6044820152606490fd5b156111f657565b60405162461bcd60e51b8152602060048201526009602482015268139bdd081bdddb995960ba1b6044820152606490fd5b1561122e57565b60405162461bcd60e51b815260206004820152600d60248201526c496e76616c696420626164676560981b6044820152606490fd5b60ff6000199116019060ff821161127657565b634e487b7160e01b600052601160045260246000fd5b1561129357565b60405162461bcd60e51b815260206004820152600a602482015269139bdd0819585c9b995960b21b6044820152606490fd5b6001600160a01b0390911681526001600160801b0319909116602082015260400190565b6001600160a01b03909116815260009190910b602082015260400190565b6001600160a01b03909116815260ff909116602082015260400190565b3d1561135e573d906001600160401b0382116110f75760405191611352601f8201601f1916602001846110d4565b82523d6000602084013e565b606090565b1561136a57565b60405162461bcd60e51b815260206004820152600f60248201526e151c985b9cd9995c8819985a5b1959608a1b6044820152606490fd5b519060ff8216820361028d57565b9060208110156113c05760051b0190565b634e487b7160e01b600052603260045260246000fd5b60ff1660408114611461576041811461145a5760428114611453576043811461144d57602181101580611442575b61140e5750600090565b6020190160ff81116112765760ff1661012c81029080820461012c1490151715611276576101f401806101f4116112765790565b50602a811115611404565b50603290565b506103e890565b5061032090565b506107d090565b6000546001600160a01b0316330361147c57565b63118cdaa760e01b6000523360045260246000fdfe8be0079c531659141344cd1fd0a4f28419497f9722a3daafe3b4186f6b6457e0a2646970667358221220534acf01002e35a01020f8d9f3970d8e85720a6de2d80289c19777034313914164736f6c634300081b0033000000000000000000000000365e7a621b7ab376b467a84c40f10532f4faa514",
        "nonce": "0x1c",
        "chainId": "0x89"
      },
      "additionalContracts": [],
      "isFixedGasLimit": false
    },
    {
      "hash": "0xc709eb8af68e00690c3edfa3e303c03d523cb59dc8aa7711a1f622e47b4d7785",
      "transactionType": "CALL",
      "contractName": "LobsterHub",
      "contractAddress": "0x9c1f5534399a58ab3300940deced432dad2d4bed",
      "function": "setClawArena(address)",
      "arguments": [
        "0x365e7A621b7ab376b467A84c40F10532F4Faa514"
      ],
      "transaction": {
        "from": "0xdc328af6c71df52966890a7f007179c25be4ff3b",
        "to": "0x9c1f5534399a58ab3300940deced432dad2d4bed",
        "gas": "0xf961",
        "value": "0x0",
        "input": "0x668c5c1a000000000000000000000000365e7a621b7ab376b467a84c40f10532f4faa514",
        "nonce": "0x1d",
        "chainId": "0x89"
      },
      "additionalContracts": [],
      "isFixedGasLimit": false
    },
    {
      "hash": "0x5e0d8434eb23bd1466fd966764ec2f50a15cecec9bc9696e5291b324a108aeed",
      "transactionType": "CALL",
      "contractName": "ClawArena",
      "contractAddress": "0x365e7a621b7ab376b467a84c40f10532f4faa514",
      "function": "setClawUtility(address)",
      "arguments": [
        "0xd7729655809Fe501245eea0F894940623330CC98"
      ],
      "transaction": {
        "from": "0xdc328af6c71df52966890a7f007179c25be4ff3b",
        "to": "0x365e7a621b7ab376b467a84c40f10532f4faa514",
        "gas": "0xfa27",
        "value": "0x0",
        "input": "0x809d3820000000000000000000000000d7729655809fe501245eea0f894940623330cc98",
        "nonce": "0x1e",
        "chainId": "0x89"
      },
      "additionalContracts": [],
      "isFixedGasLimit": false
    },
    {
      "hash": "0xd47bf69204d44b015ada8a8fec378e08426b9903670f6b1b5ea08545d064e1d3",
      "transactionType": "CALL",
      "contractName": "LobsterHub",
      "contractAddress": "0x9c1f5534399a58ab3300940deced432dad2d4bed",
      "function": "initDefaultHeroes(uint256[],uint256[],bytes12[])",
      "arguments": [
        "[144116300489294862, 72059810241118741, 144396675987932427, 288247985534534922, 288300757814478090, 216735744968950545, 217298694955992585, 216313536799048202, 288234787100164872, 288239189424800523, 146367000808063506, 292733988697670667]",
        "[198655067491466862436933318370387072980229314047, 212806209585870565245141964569255050443598643761548, 51239213124321301690891424087437130525607514606160, 29232268061825575082690118148935538943481140352220, 117148512899075367595778726141703016068363242083860, 14901143713571181182906251417983235912381468538965, 43903492803940533730290700227684317641039429645040, 87804411820402843492520159358781220395876720332830, 366721504605047302163009909866317639705484522342540, 102334460149542141921176169777849296495897257582170, 44275458780277762311351929157020828228758686627995, 73992987583100774503691456724739438605841582045670]",
        "[0x49726f6e20436c6177000000, 0x526f636b204c6f6273000000, 0x47686f737420536872000000, 0x426c6f6f6420436c61000000, 0x457865637574720000000000, 0x54686f726e20536872000000, 0x43726974204c6f6273000000, 0x426c756520466c616d000000, 0x417263746963205368000000, 0x56656e742053687200000000, 0x4865726d6974205368000000, 0x4c75636b7920536872000000]"
      ],
      "transaction": {
        "from": "0xdc328af6c71df52966890a7f007179c25be4ff3b",
        "to": "0x9c1f5534399a58ab3300940deced432dad2d4bed",
        "gas": "0x1ad89f",
        "value": "0x0",
        "input": "0xb82e56310000000000000000000000000000000000000000000000000000000000000060000000000000000000000000000000000000000000000000000000000000020000000000000000000000000000000000000000000000000000000000000003a0000000000000000000000000000000000000000000000000000000000000000c000000000000000000000000000000000000000000000000020001030102040e0000000000000000000000000000000000000000000000000100020400010215000000000000000000000000000000000000000000000000020100030302050b000000000000000000000000000000000000000000000000040010040102050a000000000000000000000000000000000000000000000000040040030202050a00000000000000000000000000000000000000000000000003020003010103110000000000000000000000000000000000000000000000000304000303020609000000000000000000000000000000000000000000000000030080040104020a0000000000000000000000000000000000000000000000000400040301040308000000000000000000000000000000000000000000000000040008040003030b0000000000000000000000000000000000000000000000000208000302010212000000000000000000000000000000000000000000000000041000030202040b000000000000000000000000000000000000000000000000000000000000000c00000000000000000000000022cc0055ff0055fffff30000aaff0033ff0055ff0000000000000000000000919ba0785a3c878078b4ff005f55507d6e6496918c0000000000000000000000230f2dc8008c1900323214ff0f001e1e053c140a5000000000000000000000001400643c28ff320fc8003cff19008c280ab41e14dc0000000000000000000000502800ffc83cc8781effff00823c00be640ae6961400000000000000000000000a321e64c83c23694b3cffb40f4632328c6e28785500000000000000000000001e0a3cb496ff6428d23cf0ff3c14aa461edc5a32f000000000000000000000003c1405ff8c64a04619ffdcc864280a963c14b4501e0000000000000000000000faebc8ffe6b4dcbe82fff5dcbe965af0dcaae6c88c0000000000000000000000460523e63c96961950ff78dc640a32c83278aa1e5a00000000000000000000001e4b643c96b432698c50d2e623506e418caf37789b000000000000000000000032a0c850dcff1ec3ebb4faff0a96be28d2fa14b9e6000000000000000000000000000000000000000000000000000000000000000c49726f6e20436c61770000000000000000000000000000000000000000000000526f636b204c6f6273000000000000000000000000000000000000000000000047686f7374205368720000000000000000000000000000000000000000000000426c6f6f6420436c610000000000000000000000000000000000000000000000457865637574720000000000000000000000000000000000000000000000000054686f726e20536872000000000000000000000000000000000000000000000043726974204c6f62730000000000000000000000000000000000000000000000426c756520466c616d0000000000000000000000000000000000000000000000417263746963205368000000000000000000000000000000000000000000000056656e74205368720000000000000000000000000000000000000000000000004865726d697420536800000000000000000000000000000000000000000000004c75636b79205368720000000000000000000000000000000000000000000000",
        "nonce": "0x1f",
        "chainId": "0x89"
      },
      "additionalContracts": [],
      "isFixedGasLimit": false
    },
    {
      "hash": "0x2b740ab6ad0dd7f0272061a85a06c04c0a7c79a115c66afb3e3da471f68ea686",
      "transactionType": "CALL",
      "contractName": "ScriptHub",
      "contractAddress": "0x8dd39e693688f9a3ac2d1f6dd6d7c05f29888ed2",
      "function": "initDefaultScripts(bytes[])",
      "arguments": [
        "[0x0307000000ff00000012000000ff00000000000000ff00000009000800000006ff00000001000000000000000000000000000000000000000000000000000000000000000000030600000f00000006ff00000001001700000001ff00000000040700000003000400000000000000000000000000000400040c0700000006000400000000000000000000000000000000000000000000000000000000000000000000000002000c000b00000004ff00000002000000000000000000000000000000000000000000000000000000000000000000010002031200000006ff000000010307000000060004000000000000000000000000000000000000000000000000000200030207000000060004000000000000000000000000000000000000000000000000000000000000000000000000020002001300000006ff00000002001700000001ff00000000001900000004ff000000010000000000000000000000040102020700000006ff000000050000000000000000000000000000000000000000000000000000000000000000000300020000000000000000000000000000000000000000000000000000000000000000000000000000000000000000030600, 0x0207000000ff00000012000000ff00000009000800000006ff00000001000000000000000000000000000000000000000000000000000000000000000000030600000200000006ff00000019001900000004ff0000000100000000000000000000000000000000000000000000030102010000000005ff0000000a0000000000000000000000000000000000000000000000000000000000000000000100020c0700000006000400000000000000000000000000000000000000000000000000000000000000000000000002000c031200000006ff00000001030700000006000400000000000000000000000000000000000000000000000000020003001900000004ff000000020000000000000000000000000000000000000000000000000000000000000000000100020207000000060004000000000000000000000000000000000000000000000000000000000000000000000000020002020700000006ff000000030000000000000000000000000000000000000000000000000000000000000000000300020000000000000000000000000000000000000000000000000000000000000000000000000000000000000000030600, 0x0307000000ff00000012001206ff00000112001206ff0000020a000800000006ff00000001000000000000000000000000000000000000000000000000000000000000000000030600001300000006ff00000002001700000001ff00000000001900000004ff000000010000000000000000000000040102000200000006ff00000028001900000004ff000000010000000000000000000000000000000000000000000003010203070000000600040000000000000000000000000000000000000000000000000000000000000000000000000200030407000000060004000000000000000000000000000000000000000000000000000000000000000000000000020004001700000001ff00000000030700000006ff00000005000000000000000000000000000000000000000000000400030207000000060004000000000000000000000000000000000000000000000000000000000000000000000000020002001900000004ff00000002000000000000000000000000000000000000000000000000000000000000000000030102040700000006ff000000040000000000000000000000000000000000000000000000000000000000000000000300040000000000000000000000000000000000000000000000000000000000000000000000000000000000000000030600, 0x0307000000ff00000012000000ff00000002000000ff0000000a000800000006ff00000001000000000000000000000000000000000000000000000000000000000000000000030600001300000006ff00000001001700000001ff0000000002070000000300040000000000000000000000000000040102000f00000006ff00000001040700000006000400000000000000000000000000000000000000000000000000020004031200000006ff000000010307000000060004000000000000000000000000000000000000000000000000000200030c0700000006000400000000000000000000000000000000000000000000000000000000000000000000000002000c0207000000060004000000000000000000000000000000000000000000000000000000000000000000000000020002001700000001ff00000000030700000006ff0000000500000000000000000000000000000000000000000000040003030700000006ff00000005000000000000000000000000000000000000000000000000000000000000000000030003020700000006ff000000050000000000000000000000000000000000000000000000000000000000000000000300020000000000000000000000000000000000000000000000000000000000000000000000000000000000000000030600, 0x0307000000ff00000012001206ff00000102000000ff00000009000800000006ff00000001000000000000000000000000000000000000000000000000000000000000000000030600001300000006ff00000002001700000001ff00000000001900000004ff000000010000000000000000000000040102001700000001ff00000000040200000006ff00000028040700000003000400000000000000000000000000000400040307000000060004000000000000000000000000000000000000000000000000000000000000000000000000020003040200000006ff000000320407000000060004000000000000000000000000000000000000000000000000000200040207000000060004000000000000000000000000000000000000000000000000000000000000000000000000020002001700000001ff00000000030700000006ff0000000500000000000000000000000000000000000000000000040003040700000006ff000000060000000000000000000000000000000000000000000000000000000000000000000300040000000000000000000000000000000000000000000000000000000000000000000000000000000000000000030600, 0x0207000000ff00000012000000ff00000009000800000006ff00000001000000000000000000000000000000000000000000000000000000000000000000030600000200000006ff00000014000000000000000000000000000000000000000000000000000000000000000000010002031200000006ff000000010307000000060004000000000000000000000000000000000000000000000000000200030c0700000006000400000000000000000000000000000000000000000000000000000000000000000000000002000c0207000000060004000000000000000000000000000000000000000000000000000000000000000000000000020002001700000001ff00000000020700000006ff0000000400000000000000000000000000000000000000000000040002020700000006ff00000005000000000000000000000000000000000000000000000000000000000000000000030002030700000006ff000000060000000000000000000000000000000000000000000000000000000000000000000300030000000000000000000000000000000000000000000000000000000000000000000000000000000000000000030600, 0x0307000000ff00000010010000ff00000012000000ff00000009000800000006ff00000001000000000000000000000000000000000000000000000000000000000000000000030600001300000006ff00000002001700000001ff00000000001900000004ff000000010000000000000000000000040102000f00000006ff00000001001700000001ff0000000003070000000300040000000000000000000000000000040003041200000006ff00000001040700000006000400000000000000000000000000000000000000000000000000020004000f00000006ff000000010307000000060004000000000000000000000000000000000000000000000000000200030207000000060004000000000000000000000000000000000000000000000000000000000000000000000000020002001700000001ff00000000030700000006ff0000000500000000000000000000000000000000000000000000040003030700000006ff000000060000000000000000000000000000000000000000000000000000000000000000000300030000000000000000000000000000000000000000000000000000000000000000000000000000000000000000030600, 0x0307000000ff00000012000000ff00000010010000ff00000009000800000006ff00000001000000000000000000000000000000000000000000000000000000000000000000030600020700000006ff00000001001700000001ff0000000000000000000000000000000000000000000000000000040102020700000006ff00000002000000000000000000000000000000000000000000000000000000000000000000030102031200000006ff00000001030700000006000400000000000000000000000000000000000000000000000000020003000f00000006ff000000010407000000060004000000000000000000000000000000000000000000000000000200040207000000060004000000000000000000000000000000000000000000000000000000000000000000000000020002000b00000004ff00000002000000000000000000000000000000000000000000000000000000000000000000010002030700000006ff000000070000000000000000000000000000000000000000000000000000000000000000000300030000000000000000000000000000000000000000000000000000000000000000000000000000000000000000030600, 0x0307000000ff00000003010000ff00000012001206ff00000109000800000006ff00000001000000000000000000000000000000000000000000000000000000000000000000030600010000000006ff00000000001700000001ff0000000000000000000000000000000000000000000000000000040600020700000006ff00000001001700000001ff0000000000000000000000000000000000000000000000000000040102020700000006ff000000020000000000000000000000000000000000000000000000000000000000000000000301020407000000060004000000000000000000000000000000000000000000000000000000000000000000000000020004000f00000006ff000000010307000000060004000000000000000000000000000000000000000000000000000200030207000000060004000000000000000000000000000000000000000000000000000000000000000000000000020002020700000006ff000000070000000000000000000000000000000000000000000000000000000000000000000300020000000000000000000000000000000000000000000000000000000000000000000000000000000000000000030600, 0x0307000000ff0000001a010000ff00000014010000ff00000009000800000006ff00000001000000000000000000000000000000000000000000000000000000000000000000030600001300000006ff00000002001700000001ff00000000001900000004ff000000010000000000000000000000040102000f00000006ff00000001030700000006000400000000000000000000000000000000000000000000000000020003021200000006ff000000010207000000060004000000000000000000000000000000000000000000000000000200020407000000060004000000000000000000000000000000000000000000000000000000000000000000000000020004000b00000004ff000000020000000000000000000000000000000000000000000000000000000000000000000100020207000000060004000000000000000000000000000000000000000000000000000000000000000000000000020002020700000006ff000000060000000000000000000000000000000000000000000000000000000000000000000300020000000000000000000000000000000000000000000000000000000000000000000000000000000000000000030600, 0x0207000000ff00000012000000ff0000000a000800000006ff00000001000000000000000000000000000000000000000000000000000000000000000000030600001300000006ff00000002001700000001ff00000000001900000004ff000000010000000000000000000000040102010000000005ff0000000a020700000006ff00000002001700000001ff000000000000000000000000000000040102010000000005ff0000000a000000000000000000000000000000000000000000000000000000000000000000010002001900000004ff00000002000000000000000000000000000000000000000000000000000000000000000000030102031200000006ff00000001030700000006000400000000000000000000000000000000000000000000000000020003001900000006ff00000001020700000006000400000000000000000000000000000000000000000000000000020002001900000004ff00000001000000000000000000000000000000000000000000000000000000000000000000010002030700000006ff000000040000000000000000000000000000000000000000000000000000000000000000000300030000000000000000000000000000000000000000000000000000000000000000000000000000000000000000030600, 0x0307000000ff00000012001206ff00000110010000ff00000009000800000006ff00000001000000000000000000000000000000000000000000000000000000000000000000030600010000000005ff00000005001700000001ff00000000030700000006ff0000000700000000000000000000000400030307000000060004000000000000000000000000000000000000000000000000000000000000000000000000020003000f00000006ff00000001040700000006000400000000000000000000000000000000000000000000000000020004001700000001ff000000000307000000030004000000030700000006ff0000000500000000000000000000000400030207000000060004000000000000000000000000000000000000000000000000000000000000000000000000020002001700000001ff00000000020700000003ff0000000300000000000000000000000000000000000000000000040002020700000006ff000000060000000000000000000000000000000000000000000000000000000000000000000300020000000000000000000000000000000000000000000000000000000000000000000000000000000000000000030600]"
      ],
      "transaction": {
        "from": "0xdc328af6c71df52966890a7f007179c25be4ff3b",
        "to": "0x8dd39e693688f9a3ac2d1f6dd6d7c05f29888ed2",
        "gas": "0x5bdd9d",
        "value": "0x0",
        "input": "0xcfa202310000000000000000000000000000000000000000000000000000000000000020000000000000000000000000000000000000000000000000000000000000000c000000000000000000000000000000000000000000000000000000000000018000000000000000000000000000000000000000000000000000000000000003800000000000000000000000000000000000000000000000000000000000000560000000000000000000000000000000000000000000000000000000000000078000000000000000000000000000000000000000000000000000000000000009a00000000000000000000000000000000000000000000000000000000000000ba00000000000000000000000000000000000000000000000000000000000000d800000000000000000000000000000000000000000000000000000000000000f8000000000000000000000000000000000000000000000000000000000000011800000000000000000000000000000000000000000000000000000000000001380000000000000000000000000000000000000000000000000000000000000158000000000000000000000000000000000000000000000000000000000000017a000000000000000000000000000000000000000000000000000000000000001c10307000000ff00000012000000ff00000000000000ff00000009000800000006ff00000001000000000000000000000000000000000000000000000000000000000000000000030600000f00000006ff00000001001700000001ff00000000040700000003000400000000000000000000000000000400040c0700000006000400000000000000000000000000000000000000000000000000000000000000000000000002000c000b00000004ff00000002000000000000000000000000000000000000000000000000000000000000000000010002031200000006ff000000010307000000060004000000000000000000000000000000000000000000000000000200030207000000060004000000000000000000000000000000000000000000000000000000000000000000000000020002001300000006ff00000002001700000001ff00000000001900000004ff000000010000000000000000000000040102020700000006ff0000000500000000000000000000000000000000000000000000000000000000000000000003000200000000000000000000000000000000000000000000000000000000000000000000000000000000000000000306000000000000000000000000000000000000000000000000000000000000000000000000000000000000000000000000000000000000000000000000000001b90207000000ff00000012000000ff00000009000800000006ff00000001000000000000000000000000000000000000000000000000000000000000000000030600000200000006ff00000019001900000004ff0000000100000000000000000000000000000000000000000000030102010000000005ff0000000a0000000000000000000000000000000000000000000000000000000000000000000100020c0700000006000400000000000000000000000000000000000000000000000000000000000000000000000002000c031200000006ff00000001030700000006000400000000000000000000000000000000000000000000000000020003001900000004ff000000020000000000000000000000000000000000000000000000000000000000000000000100020207000000060004000000000000000000000000000000000000000000000000000000000000000000000000020002020700000006ff0000000300000000000000000000000000000000000000000000000000000000000000000003000200000000000000000000000000000000000000000000000000000000000000000000000000000000000000000306000000000000000000000000000000000000000000000000000000000000000000000000000001f00307000000ff00000012001206ff00000112001206ff0000020a000800000006ff00000001000000000000000000000000000000000000000000000000000000000000000000030600001300000006ff00000002001700000001ff00000000001900000004ff000000010000000000000000000000040102000200000006ff00000028001900000004ff000000010000000000000000000000000000000000000000000003010203070000000600040000000000000000000000000000000000000000000000000000000000000000000000000200030407000000060004000000000000000000000000000000000000000000000000000000000000000000000000020004001700000001ff00000000030700000006ff00000005000000000000000000000000000000000000000000000400030207000000060004000000000000000000000000000000000000000000000000000000000000000000000000020002001900000004ff00000002000000000000000000000000000000000000000000000000000000000000000000030102040700000006ff0000000400000000000000000000000000000000000000000000000000000000000000000003000400000000000000000000000000000000000000000000000000000000000000000000000000000000000000000306000000000000000000000000000000000000000000000000000000000000000000000000000000000000000000000001f00307000000ff00000012000000ff00000002000000ff0000000a000800000006ff00000001000000000000000000000000000000000000000000000000000000000000000000030600001300000006ff00000001001700000001ff0000000002070000000300040000000000000000000000000000040102000f00000006ff00000001040700000006000400000000000000000000000000000000000000000000000000020004031200000006ff000000010307000000060004000000000000000000000000000000000000000000000000000200030c0700000006000400000000000000000000000000000000000000000000000000000000000000000000000002000c0207000000060004000000000000000000000000000000000000000000000000000000000000000000000000020002001700000001ff00000000030700000006ff0000000500000000000000000000000000000000000000000000040003030700000006ff00000005000000000000000000000000000000000000000000000000000000000000000000030003020700000006ff0000000500000000000000000000000000000000000000000000000000000000000000000003000200000000000000000000000000000000000000000000000000000000000000000000000000000000000000000306000000000000000000000000000000000000000000000000000000000000000000000000000000000000000000000001c10307000000ff00000012001206ff00000102000000ff00000009000800000006ff00000001000000000000000000000000000000000000000000000000000000000000000000030600001300000006ff00000002001700000001ff00000000001900000004ff000000010000000000000000000000040102001700000001ff00000000040200000006ff00000028040700000003000400000000000000000000000000000400040307000000060004000000000000000000000000000000000000000000000000000000000000000000000000020003040200000006ff000000320407000000060004000000000000000000000000000000000000000000000000000200040207000000060004000000000000000000000000000000000000000000000000000000000000000000000000020002001700000001ff00000000030700000006ff0000000500000000000000000000000000000000000000000000040003040700000006ff0000000600000000000000000000000000000000000000000000000000000000000000000003000400000000000000000000000000000000000000000000000000000000000000000000000000000000000000000306000000000000000000000000000000000000000000000000000000000000000000000000000000000000000000000000000000000000000000000000000001b90207000000ff00000012000000ff00000009000800000006ff00000001000000000000000000000000000000000000000000000000000000000000000000030600000200000006ff00000014000000000000000000000000000000000000000000000000000000000000000000010002031200000006ff000000010307000000060004000000000000000000000000000000000000000000000000000200030c0700000006000400000000000000000000000000000000000000000000000000000000000000000000000002000c0207000000060004000000000000000000000000000000000000000000000000000000000000000000000000020002001700000001ff00000000020700000006ff0000000400000000000000000000000000000000000000000000040002020700000006ff00000005000000000000000000000000000000000000000000000000000000000000000000030002030700000006ff0000000600000000000000000000000000000000000000000000000000000000000000000003000300000000000000000000000000000000000000000000000000000000000000000000000000000000000000000306000000000000000000000000000000000000000000000000000000000000000000000000000001c10307000000ff00000010010000ff00000012000000ff00000009000800000006ff00000001000000000000000000000000000000000000000000000000000000000000000000030600001300000006ff00000002001700000001ff00000000001900000004ff000000010000000000000000000000040102000f00000006ff00000001001700000001ff0000000003070000000300040000000000000000000000000000040003041200000006ff00000001040700000006000400000000000000000000000000000000000000000000000000020004000f00000006ff000000010307000000060004000000000000000000000000000000000000000000000000000200030207000000060004000000000000000000000000000000000000000000000000000000000000000000000000020002001700000001ff00000000030700000006ff0000000500000000000000000000000000000000000000000000040003030700000006ff0000000600000000000000000000000000000000000000000000000000000000000000000003000300000000000000000000000000000000000000000000000000000000000000000000000000000000000000000306000000000000000000000000000000000000000000000000000000000000000000000000000000000000000000000000000000000000000000000000000001c10307000000ff00000012000000ff00000010010000ff00000009000800000006ff00000001000000000000000000000000000000000000000000000000000000000000000000030600020700000006ff00000001001700000001ff0000000000000000000000000000000000000000000000000000040102020700000006ff00000002000000000000000000000000000000000000000000000000000000000000000000030102031200000006ff00000001030700000006000400000000000000000000000000000000000000000000000000020003000f00000006ff000000010407000000060004000000000000000000000000000000000000000000000000000200040207000000060004000000000000000000000000000000000000000000000000000000000000000000000000020002000b00000004ff00000002000000000000000000000000000000000000000000000000000000000000000000010002030700000006ff0000000700000000000000000000000000000000000000000000000000000000000000000003000300000000000000000000000000000000000000000000000000000000000000000000000000000000000000000306000000000000000000000000000000000000000000000000000000000000000000000000000000000000000000000000000000000000000000000000000001c10307000000ff00000003010000ff00000012001206ff00000109000800000006ff00000001000000000000000000000000000000000000000000000000000000000000000000030600010000000006ff00000000001700000001ff0000000000000000000000000000000000000000000000000000040600020700000006ff00000001001700000001ff0000000000000000000000000000000000000000000000000000040102020700000006ff000000020000000000000000000000000000000000000000000000000000000000000000000301020407000000060004000000000000000000000000000000000000000000000000000000000000000000000000020004000f00000006ff000000010307000000060004000000000000000000000000000000000000000000000000000200030207000000060004000000000000000000000000000000000000000000000000000000000000000000000000020002020700000006ff0000000700000000000000000000000000000000000000000000000000000000000000000003000200000000000000000000000000000000000000000000000000000000000000000000000000000000000000000306000000000000000000000000000000000000000000000000000000000000000000000000000000000000000000000000000000000000000000000000000001c10307000000ff0000001a010000ff00000014010000ff00000009000800000006ff00000001000000000000000000000000000000000000000000000000000000000000000000030600001300000006ff00000002001700000001ff00000000001900000004ff000000010000000000000000000000040102000f00000006ff00000001030700000006000400000000000000000000000000000000000000000000000000020003021200000006ff000000010207000000060004000000000000000000000000000000000000000000000000000200020407000000060004000000000000000000000000000000000000000000000000000000000000000000000000020004000b00000004ff000000020000000000000000000000000000000000000000000000000000000000000000000100020207000000060004000000000000000000000000000000000000000000000000000000000000000000000000020002020700000006ff0000000600000000000000000000000000000000000000000000000000000000000000000003000200000000000000000000000000000000000000000000000000000000000000000000000000000000000000000306000000000000000000000000000000000000000000000000000000000000000000000000000000000000000000000000000000000000000000000000000001e80207000000ff00000012000000ff0000000a000800000006ff00000001000000000000000000000000000000000000000000000000000000000000000000030600001300000006ff00000002001700000001ff00000000001900000004ff000000010000000000000000000000040102010000000005ff0000000a020700000006ff00000002001700000001ff000000000000000000000000000000040102010000000005ff0000000a000000000000000000000000000000000000000000000000000000000000000000010002001900000004ff00000002000000000000000000000000000000000000000000000000000000000000000000030102031200000006ff00000001030700000006000400000000000000000000000000000000000000000000000000020003001900000006ff00000001020700000006000400000000000000000000000000000000000000000000000000020002001900000004ff00000001000000000000000000000000000000000000000000000000000000000000000000010002030700000006ff00000004000000000000000000000000000000000000000000000000000000000000000000030003000000000000000000000000000000000000000000000000000000000000000000000000000000000000000003060000000000000000000000000000000000000000000000000000000000000000000000000000000000000000000000000000000000000001c10307000000ff00000012001206ff00000110010000ff00000009000800000006ff00000001000000000000000000000000000000000000000000000000000000000000000000030600010000000005ff00000005001700000001ff00000000030700000006ff0000000700000000000000000000000400030307000000060004000000000000000000000000000000000000000000000000000000000000000000000000020003000f00000006ff00000001040700000006000400000000000000000000000000000000000000000000000000020004001700000001ff000000000307000000030004000000030700000006ff0000000500000000000000000000000400030207000000060004000000000000000000000000000000000000000000000000000000000000000000000000020002001700000001ff00000000020700000003ff0000000300000000000000000000000000000000000000000000040002020700000006ff00000006000000000000000000000000000000000000000000000000000000000000000000030002000000000000000000000000000000000000000000000000000000000000000000000000000000000000000003060000000000000000000000000000000000000000000000000000000000000000",
        "nonce": "0x20",
        "chainId": "0x89"
      },
      "additionalContracts": [],
      "isFixedGasLimit": false
    },
    {
      "hash": "0xacb2e9eea4fb0206cf127c2971dc2e7a246bc19c4cc1076bc92ee304210ab5a6",
      "transactionType": "CALL",
      "contractName": "ClawArena",
      "contractAddress": "0x365e7a621b7ab376b467a84c40f10532f4faa514",
      "function": "addDefaultPlayer(bytes12,uint256,uint256)",
      "arguments": [
        "0x49726f6e20436c6177000000",
        "0",
        "0"
      ],
      "transaction": {
        "from": "0xdc328af6c71df52966890a7f007179c25be4ff3b",
        "to": "0x365e7a621b7ab376b467a84c40f10532f4faa514",
        "gas": "0x406aa",
        "value": "0x0",
        "input": "0x0339887349726f6e20436c6177000000000000000000000000000000000000000000000000000000000000000000000000000000000000000000000000000000000000000000000000000000000000000000000000000000000000000000000000000000",
        "nonce": "0x21",
        "chainId": "0x89"
      },
      "additionalContracts": [],
      "isFixedGasLimit": false
    },
    {
      "hash": "0xe9884b2fe7022b712c8692a6365aeac690b414788705773c928670285860d8c7",
      "transactionType": "CALL",
      "contractName": "ClawArena",
      "contractAddress": "0x365e7a621b7ab376b467a84c40f10532f4faa514",
      "function": "addDefaultPlayer(bytes12,uint256,uint256)",
      "arguments": [
        "0x526f636b204c6f6273000000",
        "1",
        "1"
      ],
      "transaction": {
        "from": "0xdc328af6c71df52966890a7f007179c25be4ff3b",
        "to": "0x365e7a621b7ab376b467a84c40f10532f4faa514",
        "gas": "0x461e9",
        "value": "0x0",
        "input": "0x03398873526f636b204c6f6273000000000000000000000000000000000000000000000000000000000000000000000000000000000000000000000000000000000000010000000000000000000000000000000000000000000000000000000000000001",
        "nonce": "0x22",
        "chainId": "0x89"
      },
      "additionalContracts": [],
      "isFixedGasLimit": false
    },
    {
      "hash": "0xfa0dbff8f64dce00729e68baf4479fa4299808234c91f2eafb7d9c51f1af2c6c",
      "transactionType": "CALL",
      "contractName": "ClawArena",
      "contractAddress": "0x365e7a621b7ab376b467a84c40f10532f4faa514",
      "function": "addDefaultPlayer(bytes12,uint256,uint256)",
      "arguments": [
        "0x47686f737420536872000000",
        "2",
        "2"
      ],
      "transaction": {
        "from": "0xdc328af6c71df52966890a7f007179c25be4ff3b",
        "to": "0x365e7a621b7ab376b467a84c40f10532f4faa514",
        "gas": "0x461e9",
        "value": "0x0",
        "input": "0x0339887347686f737420536872000000000000000000000000000000000000000000000000000000000000000000000000000000000000000000000000000000000000020000000000000000000000000000000000000000000000000000000000000002",
        "nonce": "0x23",
        "chainId": "0x89"
      },
      "additionalContracts": [],
      "isFixedGasLimit": false
    },
    {
      "hash": "0x69f3286d0b4986f297670186e4f018b7e9e3240e6dbc5f9a2fc8a8bff6a657fc",
      "transactionType": "CALL",
      "contractName": "ClawArena",
      "contractAddress": "0x365e7a621b7ab376b467a84c40f10532f4faa514",
      "function": "addDefaultPlayer(bytes12,uint256,uint256)",
      "arguments": [
        "0x426c6f6f6420436c61000000",
        "3",
        "3"
      ],
      "transaction": {
        "from": "0xdc328af6c71df52966890a7f007179c25be4ff3b",
        "to": "0x365e7a621b7ab376b467a84c40f10532f4faa514",
        "gas": "0x461e9",
        "value": "0x0",
        "input": "0x03398873426c6f6f6420436c61000000000000000000000000000000000000000000000000000000000000000000000000000000000000000000000000000000000000030000000000000000000000000000000000000000000000000000000000000003",
        "nonce": "0x24",
        "chainId": "0x89"
      },
      "additionalContracts": [],
      "isFixedGasLimit": false
    },
    {
      "hash": "0x1c147cec6cbd6accc6f5d7355aa19655da1d4c165b2ae90c1700a5c26389d7c8",
      "transactionType": "CALL",
      "contractName": "ClawArena",
      "contractAddress": "0x365e7a621b7ab376b467a84c40f10532f4faa514",
      "function": "addDefaultPlayer(bytes12,uint256,uint256)",
      "arguments": [
        "0x457865637574720000000000",
        "4",
        "4"
      ],
      "transaction": {
        "from": "0xdc328af6c71df52966890a7f007179c25be4ff3b",
        "to": "0x365e7a621b7ab376b467a84c40f10532f4faa514",
        "gas": "0x461c8",
        "value": "0x0",
        "input": "0x03398873457865637574720000000000000000000000000000000000000000000000000000000000000000000000000000000000000000000000000000000000000000040000000000000000000000000000000000000000000000000000000000000004",
        "nonce": "0x25",
        "chainId": "0x89"
      },
      "additionalContracts": [],
      "isFixedGasLimit": false
    },
    {
      "hash": "0x105d7fa77295bbb06c47382f9c93c4e6bbe92cffa779e50fc33072882b7b0073",
      "transactionType": "CALL",
      "contractName": "ClawArena",
      "contractAddress": "0x365e7a621b7ab376b467a84c40f10532f4faa514",
      "function": "addDefaultPlayer(bytes12,uint256,uint256)",
      "arguments": [
        "0x54686f726e20536872000000",
        "5",
        "5"
      ],
      "transaction": {
        "from": "0xdc328af6c71df52966890a7f007179c25be4ff3b",
        "to": "0x365e7a621b7ab376b467a84c40f10532f4faa514",
        "gas": "0x461e9",
        "value": "0x0",
        "input": "0x0339887354686f726e20536872000000000000000000000000000000000000000000000000000000000000000000000000000000000000000000000000000000000000050000000000000000000000000000000000000000000000000000000000000005",
        "nonce": "0x26",
        "chainId": "0x89"
      },
      "additionalContracts": [],
      "isFixedGasLimit": false
    },
    {
      "hash": "0xaffb85e10aa6930b9f998e2385d3e53f6ec4fda9abbda3f52049523e8d8a6e19",
      "transactionType": "CALL",
      "contractName": "ClawArena",
      "contractAddress": "0x365e7a621b7ab376b467a84c40f10532f4faa514",
      "function": "addDefaultPlayer(bytes12,uint256,uint256)",
      "arguments": [
        "0x43726974204c6f6273000000",
        "6",
        "6"
      ],
      "transaction": {
        "from": "0xdc328af6c71df52966890a7f007179c25be4ff3b",
        "to": "0x365e7a621b7ab376b467a84c40f10532f4faa514",
        "gas": "0x461e9",
        "value": "0x0",
        "input": "0x0339887343726974204c6f6273000000000000000000000000000000000000000000000000000000000000000000000000000000000000000000000000000000000000060000000000000000000000000000000000000000000000000000000000000006",
        "nonce": "0x27",
        "chainId": "0x89"
      },
      "additionalContracts": [],
      "isFixedGasLimit": false
    },
    {
      "hash": "0x318d7d0168dea9b5595dbf1ab251e1b7be5897c8026b46aa36db4e0cf79c215f",
      "transactionType": "CALL",
      "contractName": "ClawArena",
      "contractAddress": "0x365e7a621b7ab376b467a84c40f10532f4faa514",
      "function": "addDefaultPlayer(bytes12,uint256,uint256)",
      "arguments": [
        "0x426c756520466c616d000000",
        "7",
        "7"
      ],
      "transaction": {
        "from": "0xdc328af6c71df52966890a7f007179c25be4ff3b",
        "to": "0x365e7a621b7ab376b467a84c40f10532f4faa514",
        "gas": "0x461e9",
        "value": "0x0",
        "input": "0x03398873426c756520466c616d000000000000000000000000000000000000000000000000000000000000000000000000000000000000000000000000000000000000070000000000000000000000000000000000000000000000000000000000000007",
        "nonce": "0x28",
        "chainId": "0x89"
      },
      "additionalContracts": [],
      "isFixedGasLimit": false
    },
    {
      "hash": "0x9ea4be007fc0bda564ed21d05828c275f72cf9fc91272f749e31c16859dfb6b1",
      "transactionType": "CALL",
      "contractName": "ClawArena",
      "contractAddress": "0x365e7a621b7ab376b467a84c40f10532f4faa514",
      "function": "addDefaultPlayer(bytes12,uint256,uint256)",
      "arguments": [
        "0x417263746963205368000000",
        "8",
        "8"
      ],
      "transaction": {
        "from": "0xdc328af6c71df52966890a7f007179c25be4ff3b",
        "to": "0x365e7a621b7ab376b467a84c40f10532f4faa514",
        "gas": "0x461e9",
        "value": "0x0",
        "input": "0x03398873417263746963205368000000000000000000000000000000000000000000000000000000000000000000000000000000000000000000000000000000000000080000000000000000000000000000000000000000000000000000000000000008",
        "nonce": "0x29",
        "chainId": "0x89"
      },
      "additionalContracts": [],
      "isFixedGasLimit": false
    },
    {
      "hash": "0x36472954c516a445a7483262eeb879c044314516fc4eb970a86d640d07a92885",
      "transactionType": "CALL",
      "contractName": "ClawArena",
      "contractAddress": "0x365e7a621b7ab376b467a84c40f10532f4faa514",
      "function": "addDefaultPlayer(bytes12,uint256,uint256)",
      "arguments": [
        "0x56656e742053687200000000",
        "9",
        "9"
      ],
      "transaction": {
        "from": "0xdc328af6c71df52966890a7f007179c25be4ff3b",
        "to": "0x365e7a621b7ab376b467a84c40f10532f4faa514",
        "gas": "0x4a3d6",
        "value": "0x0",
        "input": "0x0339887356656e742053687200000000000000000000000000000000000000000000000000000000000000000000000000000000000000000000000000000000000000090000000000000000000000000000000000000000000000000000000000000009",
        "nonce": "0x2a",
        "chainId": "0x89"
      },
      "additionalContracts": [],
      "isFixedGasLimit": false
    },
    {
      "hash": "0x6d14d6da689277c6e26dcbd5b21822579d196fffd4af0bb6c337cdd7f3eb563a",
      "transactionType": "CALL",
      "contractName": "ClawArena",
      "contractAddress": "0x365e7a621b7ab376b467a84c40f10532f4faa514",
      "function": "addDefaultPlayer(bytes12,uint256,uint256)",
      "arguments": [
        "0x4865726d6974205368000000",
        "10",
        "10"
      ],
      "transaction": {
        "from": "0xdc328af6c71df52966890a7f007179c25be4ff3b",
        "to": "0x365e7a621b7ab376b467a84c40f10532f4faa514",
        "gas": "0x461e9",
        "value": "0x0",
        "input": "0x033988734865726d69742053680000000000000000000000000000000000000000000000000000000000000000000000000000000000000000000000000000000000000a000000000000000000000000000000000000000000000000000000000000000a",
        "nonce": "0x2b",
        "chainId": "0x89"
      },
      "additionalContracts": [],
      "isFixedGasLimit": false
    },
    {
      "hash": "0x85159f8c7712b0e3c29d3d8d7474548a0e553b216361dbcf44e399773281208d",
      "transactionType": "CALL",
      "contractName": "ClawArena",
      "contractAddress": "0x365e7a621b7ab376b467a84c40f10532f4faa514",
      "function": "addDefaultPlayer(bytes12,uint256,uint256)",
      "arguments": [
        "0x4c75636b7920536872000000",
        "11",
        "11"
      ],
      "transaction": {
        "from": "0xdc328af6c71df52966890a7f007179c25be4ff3b",
        "to": "0x365e7a621b7ab376b467a84c40f10532f4faa514",
        "gas": "0x461e9",
        "value": "0x0",
        "input": "0x033988734c75636b79205368720000000000000000000000000000000000000000000000000000000000000000000000000000000000000000000000000000000000000b000000000000000000000000000000000000000000000000000000000000000b",
        "nonce": "0x2c",
        "chainId": "0x89"
      },
      "additionalContracts": [],
      "isFixedGasLimit": false
    }
  ],
  "receipts": [
    {
      "status": "0x1",
      "cumulativeGasUsed": "0x3260c41",
      "logs": [
        {
          "address": "0x8dd39e693688f9a3ac2d1f6dd6d7c05f29888ed2",
          "topics": [
            "0x8be0079c531659141344cd1fd0a4f28419497f9722a3daafe3b4186f6b6457e0",
            "0x0000000000000000000000000000000000000000000000000000000000000000",
            "0x000000000000000000000000dc328af6c71df52966890a7f007179c25be4ff3b"
          ],
          "data": "0x",
          "blockHash": "0x58f9df76c59ace76eaa981d726e6c4eb3b94d7d2ce1bbb2e6c3e3557f96d7ad0",
          "blockNumber": "0x50c50b5",
          "blockTimestamp": "0x69c4d18d",
          "transactionHash": "0x6a5f6bd181ee6f1dd2024381533d9b7bdc7ca7fa4680db0250423175dbcfcd9f",
          "transactionIndex": "0xd0",
          "logIndex": "0xa0a",
          "removed": false
        },
        {
          "address": "0x0000000000000000000000000000000000001010",
          "topics": [
            "0x4dfe1bbbcf077ddc3e01291eea2d5c70c2b422b415d95645b9adcfd678cb1d63",
            "0x0000000000000000000000000000000000000000000000000000000000001010",
            "0x000000000000000000000000dc328af6c71df52966890a7f007179c25be4ff3b",
            "0x0000000000000000000000007ee41d8a25641000661b1ef5e6ae8a00400466b0"
          ],
          "data": "0x000000000000000000000000000000000000000000000000007e71ae686bbdfc0000000000000000000000000000000000000000000000030ef09d00119e770d00000000000000000000000000000000000000000008b0d7d9a7c8d0e547ea370000000000000000000000000000000000000000000000030e722b51a932b91100000000000000000000000000000000000000000008b0d7da263a7f4db3a833",
          "blockHash": "0x58f9df76c59ace76eaa981d726e6c4eb3b94d7d2ce1bbb2e6c3e3557f96d7ad0",
          "blockNumber": "0x50c50b5",
          "blockTimestamp": "0x69c4d18d",
          "transactionHash": "0x6a5f6bd181ee6f1dd2024381533d9b7bdc7ca7fa4680db0250423175dbcfcd9f",
          "transactionIndex": "0xd0",
          "logIndex": "0xa0b",
          "removed": false
        }
      ],
      "logsBloom": "0x00000000040000000000000000000000000000000000000000800000000000000000000000000000000000000000000000008000000000002000000000000800000000000000000000000000000000800001000000000000000100000000000000000000020000000000000000000800000000000000000080000000000000400000000000000000020000000400000000000000000000000000000000000100200000000000000000000000000000000000000000000000000000000000004000000000000000000001000000000000000000400000000000100000000020000000000000000000000000000000000000000000010000000000000000102000",
      "type": "0x0",
      "transactionHash": "0x6a5f6bd181ee6f1dd2024381533d9b7bdc7ca7fa4680db0250423175dbcfcd9f",
      "transactionIndex": "0xd0",
      "blockHash": "0x58f9df76c59ace76eaa981d726e6c4eb3b94d7d2ce1bbb2e6c3e3557f96d7ad0",
      "blockNumber": "0x50c50b5",
      "gasUsed": "0x15a69e",
      "effectiveGasPrice": "0x1d1f5a2429",
      "from": "0xdc328af6c71df52966890a7f007179c25be4ff3b",
      "to": null,
      "contractAddress": "0x8dd39e693688f9a3ac2d1f6dd6d7c05f29888ed2"
    },
    {
      "status": "0x1",
      "cumulativeGasUsed": "0x291117f",
      "logs": [
        {
          "address": "0x9c1f5534399a58ab3300940deced432dad2d4bed",
          "topics": [
            "0x8be0079c531659141344cd1fd0a4f28419497f9722a3daafe3b4186f6b6457e0",
            "0x0000000000000000000000000000000000000000000000000000000000000000",
            "0x000000000000000000000000dc328af6c71df52966890a7f007179c25be4ff3b"
          ],
          "data": "0x",
          "blockHash": "0x257b8a901544d525dbb52902de98458c7c235533104a6b90881d12a60a93c3c2",
          "blockNumber": "0x50c50b8",
          "blockTimestamp": "0x69c4d193",
          "transactionHash": "0x02391218e916de0a819d9cb0fa06c77dcc833e624b1cead25daf79d1d1b7b28e",
          "transactionIndex": "0xaa",
          "logIndex": "0x835",
          "removed": false
        },
        {
          "address": "0x0000000000000000000000000000000000001010",
          "topics": [
            "0x4dfe1bbbcf077ddc3e01291eea2d5c70c2b422b415d95645b9adcfd678cb1d63",
            "0x0000000000000000000000000000000000000000000000000000000000001010",
            "0x000000000000000000000000dc328af6c71df52966890a7f007179c25be4ff3b",
            "0x0000000000000000000000007ee41d8a25641000661b1ef5e6ae8a00400466b0"
          ],
          "data": "0x00000000000000000000000000000000000000000000000000ab7405323c44b40000000000000000000000000000000000000000000000030c7a164d4d2c8fbf00000000000000000000000000000000000000000008b0d8e6f8f72e149a06140000000000000000000000000000000000000000000000030bcea2481af04b0b00000000000000000000000000000000000000000008b0d8e7a46b3346d64ac8",
          "blockHash": "0x257b8a901544d525dbb52902de98458c7c235533104a6b90881d12a60a93c3c2",
          "blockNumber": "0x50c50b8",
          "blockTimestamp": "0x69c4d193",
          "transactionHash": "0x02391218e916de0a819d9cb0fa06c77dcc833e624b1cead25daf79d1d1b7b28e",
          "transactionIndex": "0xaa",
          "logIndex": "0x836",
          "removed": false
        }
      ],
      "logsBloom": "0x00000000040000000000000000000000000000000000000000800000000000000000000000000000000000000000000000008000000000000000000000000800000000000000000000000000000000800001000000000000000100000000000000000000020000000000000000000800000000000000000080000000000000400000000000000000020000000400000000000000000000000000000000000000200000000000000000000000000000000000000000000000000000000000004000000000000000004001000000000000000000400000000000100000200020000000000000000000000000000000000000000000000000000000000000122000",
      "type": "0x0",
      "transactionHash": "0x02391218e916de0a819d9cb0fa06c77dcc833e624b1cead25daf79d1d1b7b28e",
      "transactionIndex": "0xaa",
      "blockHash": "0x257b8a901544d525dbb52902de98458c7c235533104a6b90881d12a60a93c3c2",
      "blockNumber": "0x50c50b8",
      "gasUsed": "0x1d123c",
      "effectiveGasPrice": "0x1d1f5a2429",
      "from": "0xdc328af6c71df52966890a7f007179c25be4ff3b",
      "to": null,
      "contractAddress": "0x9c1f5534399a58ab3300940deced432dad2d4bed"
    },
    {
      "status": "0x1",
      "cumulativeGasUsed": "0x2db2e44",
      "logs": [
        {
          "address": "0x365e7a621b7ab376b467a84c40f10532f4faa514",
          "topics": [
            "0x8be0079c531659141344cd1fd0a4f28419497f9722a3daafe3b4186f6b6457e0",
            "0x0000000000000000000000000000000000000000000000000000000000000000",
            "0x000000000000000000000000dc328af6c71df52966890a7f007179c25be4ff3b"
          ],
          "data": "0x",
          "blockHash": "0x10e71f7e0789fc39f9b6f202925a38917331a41a71ed614b574a2c65897b0e13",
          "blockNumber": "0x50c50bb",
          "blockTimestamp": "0x69c4d199",
          "transactionHash": "0x12d5a44faff50ccce3c5640c5cc62c4df131a0a3b64a98cc5248a3919730467e",
          "transactionIndex": "0xb4",
          "logIndex": "0x912",
          "removed": false
        },
        {
          "address": "0x0000000000000000000000000000000000001010",
          "topics": [
            "0x4dfe1bbbcf077ddc3e01291eea2d5c70c2b422b415d95645b9adcfd678cb1d63",
            "0x0000000000000000000000000000000000000000000000000000000000001010",
            "0x000000000000000000000000dc328af6c71df52966890a7f007179c25be4ff3b",
            "0x0000000000000000000000007ee41d8a25641000661b1ef5e6ae8a00400466b0"
          ],
          "data": "0x0000000000000000000000000000000000000000000000000122a4b8194da8d6000000000000000000000000000000000000000000000003092b760f84dc342300000000000000000000000000000000000000000008b0d9ff35994f628a17a50000000000000000000000000000000000000000000000030808d1576b8e8b4d00000000000000000000000000000000000000000008b0da00583e077bd7c07b",
          "blockHash": "0x10e71f7e0789fc39f9b6f202925a38917331a41a71ed614b574a2c65897b0e13",
          "blockNumber": "0x50c50bb",
          "blockTimestamp": "0x69c4d199",
          "transactionHash": "0x12d5a44faff50ccce3c5640c5cc62c4df131a0a3b64a98cc5248a3919730467e",
          "transactionIndex": "0xb4",
          "logIndex": "0x913",
          "removed": false
        }
      ],
      "logsBloom": "0x00000000040000000000000000200000000000000000000000800000000000000000000000000000000000000000000000028000000000000000000000000802000000000000000000000000000000800001000000000000000100000000000000000000020000000000000000000800000000000000000080000000000000400000000000000000020000000400000000000000000000000000000000000000200000000000000000000000000000000000000000000000000000000000004000000000000000000001000000000000000000400000000000100000000020000000000000000000000000000000000000000000000000000000000000102000",
      "type": "0x0",
      "transactionHash": "0x12d5a44faff50ccce3c5640c5cc62c4df131a0a3b64a98cc5248a3919730467e",
      "transactionIndex": "0xb4",
      "blockHash": "0x10e71f7e0789fc39f9b6f202925a38917331a41a71ed614b574a2c65897b0e13",
      "blockNumber": "0x50c50bb",
      "gasUsed": "0x318209",
      "effectiveGasPrice": "0x1d1f5a2429",
      "from": "0xdc328af6c71df52966890a7f007179c25be4ff3b",
      "to": null,
      "contractAddress": "0x365e7a621b7ab376b467a84c40f10532f4faa514"
    },
    {
      "status": "0x1",
      "cumulativeGasUsed": "0x228f3da",
      "logs": [
        {
          "address": "0xd7729655809fe501245eea0f894940623330cc98",
          "topics": [
            "0x8be0079c531659141344cd1fd0a4f28419497f9722a3daafe3b4186f6b6457e0",
            "0x0000000000000000000000000000000000000000000000000000000000000000",
            "0x000000000000000000000000dc328af6c71df52966890a7f007179c25be4ff3b"
          ],
          "data": "0x",
          "blockHash": "0xecf224f5367232d8fd610f26779fa9546897458df69bea5469b403d3901b3f7d",
          "blockNumber": "0x50c50be",
          "blockTimestamp": "0x69c4d19f",
          "transactionHash": "0x0efd9ec7102fb76134b2ac2f109bac74cb16c240e60b2effaf595ca1329874e5",
          "transactionIndex": "0x9c",
          "logIndex": "0x716",
          "removed": false
        },
        {
          "address": "0x0000000000000000000000000000000000001010",
          "topics": [
            "0x4dfe1bbbcf077ddc3e01291eea2d5c70c2b422b415d95645b9adcfd678cb1d63",
            "0x0000000000000000000000000000000000000000000000000000000000001010",
            "0x000000000000000000000000dc328af6c71df52966890a7f007179c25be4ff3b",
            "0x0000000000000000000000007ee41d8a25641000661b1ef5e6ae8a00400466b0"
          ],
          "data": "0x000000000000000000000000000000000000000000000000007458f5052cf1f40000000000000000000000000000000000000000000000030389aadcb87b1cb200000000000000000000000000000000000000000008b0dae8366bffc453394a000000000000000000000000000000000000000000000003031551e7b34e2abe00000000000000000000000000000000000000000008b0dae8aac4f4c9802b3e",
          "blockHash": "0xecf224f5367232d8fd610f26779fa9546897458df69bea5469b403d3901b3f7d",
          "blockNumber": "0x50c50be",
          "blockTimestamp": "0x69c4d19f",
          "transactionHash": "0x0efd9ec7102fb76134b2ac2f109bac74cb16c240e60b2effaf595ca1329874e5",
          "transactionIndex": "0x9c",
          "logIndex": "0x717",
          "removed": false
        }
      ],
      "logsBloom": "0x00000000040000000000000000000000000000000000000000800000000000000000000000000000000000000000000000008000000000000000000000000800000000000000000000000000000000800001000000000000000100000000000000000000020000000000000000000800000000000000000080000000000000420000000000000000020000000400004000000000000000000000000000000000200000000000000000000000000000000000000000000000000000000000004000000000000000000001000000000000000000400000000000100000000020000000000000000000000000000000000000000000000000000000000000102000",
      "type": "0x0",
      "transactionHash": "0x0efd9ec7102fb76134b2ac2f109bac74cb16c240e60b2effaf595ca1329874e5",
      "transactionIndex": "0x9c",
      "blockHash": "0xecf224f5367232d8fd610f26779fa9546897458df69bea5469b403d3901b3f7d",
      "blockNumber": "0x50c50be",
      "gasUsed": "0x1339ac",
      "effectiveGasPrice": "0x1d1f5a2429",
      "from": "0xdc328af6c71df52966890a7f007179c25be4ff3b",
      "to": null,
      "contractAddress": "0xd7729655809fe501245eea0f894940623330cc98"
    },
    {
      "status": "0x1",
      "cumulativeGasUsed": "0x2ade6d8",
      "logs": [
        {
          "address": "0x0000000000000000000000000000000000001010",
          "topics": [
            "0x4dfe1bbbcf077ddc3e01291eea2d5c70c2b422b415d95645b9adcfd678cb1d63",
            "0x0000000000000000000000000000000000000000000000000000000000001010",
            "0x000000000000000000000000dc328af6c71df52966890a7f007179c25be4ff3b",
            "0x0000000000000000000000007ee41d8a25641000661b1ef5e6ae8a00400466b0"
          ],
          "data": "0x00000000000000000000000000000000000000000000000000043f474f2334290000000000000000000000000000000000000000000000030159c79fe6d2b02600000000000000000000000000000000000000000008b0db86e44f3e8a2678160000000000000000000000000000000000000000000000030155885897af7bfd00000000000000000000000000000000000000000008b0db86e88e85d949ac3f",
          "blockHash": "0xae9d580d37b4ccfc872c9f2d433a32b6c1f60926bb2ee377816ddf615cd20516",
          "blockNumber": "0x50c50c0",
          "blockTimestamp": "0x69c4d1a3",
          "transactionHash": "0xc709eb8af68e00690c3edfa3e303c03d523cb59dc8aa7711a1f622e47b4d7785",
          "transactionIndex": "0xa5",
          "logIndex": "0x848",
          "removed": false
        }
      ],
      "logsBloom": "0x00000000040000000000000000000000000000000000000000000000000000000000000000000000000000000000000000008000000000000000000000000800000000000000000000000000000000800000000000000000000100000000000000000000000000000000000000000000000000000000000080000000000000000000000000000000020000000400000000000000000000000000000000000000200000000000000000000000000000000000000000000000000000000000004000000000000000000001000000000000000000400000000000100000000000000000000000000000000000000000000000000000000000000000000000102000",
      "type": "0x0",
      "transactionHash": "0xc709eb8af68e00690c3edfa3e303c03d523cb59dc8aa7711a1f622e47b4d7785",
      "transactionIndex": "0xa5",
      "blockHash": "0xae9d580d37b4ccfc872c9f2d433a32b6c1f60926bb2ee377816ddf615cd20516",
      "blockNumber": "0x50c50c0",
      "gasUsed": "0xb48d",
      "effectiveGasPrice": "0x1d1f5a2429",
      "from": "0xdc328af6c71df52966890a7f007179c25be4ff3b",
      "to": "0x9c1f5534399a58ab3300940deced432dad2d4bed",
      "contractAddress": null
    },
    {
      "status": "0x1",
      "cumulativeGasUsed": "0x36f2048",
      "logs": [
        {
          "address": "0x0000000000000000000000000000000000001010",
          "topics": [
            "0x4dfe1bbbcf077ddc3e01291eea2d5c70c2b422b415d95645b9adcfd678cb1d63",
            "0x0000000000000000000000000000000000000000000000000000000000001010",
            "0x000000000000000000000000dc328af6c71df52966890a7f007179c25be4ff3b",
            "0x0000000000000000000000007ee41d8a25641000661b1ef5e6ae8a00400466b0"
          ],
          "data": "0x00000000000000000000000000000000000000000000000000042422f3e6d45000000000000000000000000000000000000000000000000301453d8a40bff19100000000000000000000000000000000000000000008b0dcacf49675ae37a1aa000000000000000000000000000000000000000000000003014119674cd91d4100000000000000000000000000000000000000000008b0dcacf8ba98a21e75fa",
          "blockHash": "0xfa4f2bb954ed9ac91de358754987eea61078c6d3e109d594043aed9e8e1480e5",
          "blockNumber": "0x50c50c3",
          "blockTimestamp": "0x69c4d1a9",
          "transactionHash": "0x5e0d8434eb23bd1466fd966764ec2f50a15cecec9bc9696e5291b324a108aeed",
          "transactionIndex": "0xc2",
          "logIndex": "0xa7e",
          "removed": false
        }
      ],
      "logsBloom": "0x00000000040000000000000000000000000000000000000000000000000000000000000000000000000000000000000000008000000000000000000000000800000000000000000000000000000000800000000000000000000100000000000000000000000000000000000000000000000000000000000080000000000000000000000000000000020000000400000000000000000000000000000000000000200000000000000000000000000000000000000000000000000000000000004000000000000000000001000000000000000000400000000000100000000000000000000000000000000000000000000000000000000000000000000000102000",
      "type": "0x0",
      "transactionHash": "0x5e0d8434eb23bd1466fd966764ec2f50a15cecec9bc9696e5291b324a108aeed",
      "transactionIndex": "0xc2",
      "blockHash": "0xfa4f2bb954ed9ac91de358754987eea61078c6d3e109d594043aed9e8e1480e5",
      "blockNumber": "0x50c50c3",
      "gasUsed": "0xb51c",
      "effectiveGasPrice": "0x1d1f5a2429",
      "from": "0xdc328af6c71df52966890a7f007179c25be4ff3b",
      "to": "0x365e7a621b7ab376b467a84c40f10532f4faa514",
      "contractAddress": null
    },
    {
      "status": "0x1",
      "cumulativeGasUsed": "0x2330bbd",
      "logs": [
        {
          "address": "0x9c1f5534399a58ab3300940deced432dad2d4bed",
          "topics": [
            "0xddf252ad1be2c89b69c2b068fc378daa952ba7f163c4a11628f55a4df523b3ef",
            "0x0000000000000000000000000000000000000000000000000000000000000000",
            "0x0000000000000000000000009c1f5534399a58ab3300940deced432dad2d4bed",
            "0x0000000000000000000000000000000000000000000000000000000000000000"
          ],
          "data": "0x",
          "blockHash": "0x22f0a54cc950bb81de6d37792272ae582bda756d4cd1b62575511780658dddac",
          "blockNumber": "0x50c50c6",
          "blockTimestamp": "0x69c4d1af",
          "transactionHash": "0xd47bf69204d44b015ada8a8fec378e08426b9903670f6b1b5ea08545d064e1d3",
          "transactionIndex": "0xa9",
          "logIndex": "0x69f",
          "removed": false
        },
        {
          "address": "0x9c1f5534399a58ab3300940deced432dad2d4bed",
          "topics": [
            "0xddf252ad1be2c89b69c2b068fc378daa952ba7f163c4a11628f55a4df523b3ef",
            "0x0000000000000000000000000000000000000000000000000000000000000000",
            "0x0000000000000000000000009c1f5534399a58ab3300940deced432dad2d4bed",
            "0x0000000000000000000000000000000000000000000000000000000000000001"
          ],
          "data": "0x",
          "blockHash": "0x22f0a54cc950bb81de6d37792272ae582bda756d4cd1b62575511780658dddac",
          "blockNumber": "0x50c50c6",
          "blockTimestamp": "0x69c4d1af",
          "transactionHash": "0xd47bf69204d44b015ada8a8fec378e08426b9903670f6b1b5ea08545d064e1d3",
          "transactionIndex": "0xa9",
          "logIndex": "0x6a0",
          "removed": false
        },
        {
          "address": "0x9c1f5534399a58ab3300940deced432dad2d4bed",
          "topics": [
            "0xddf252ad1be2c89b69c2b068fc378daa952ba7f163c4a11628f55a4df523b3ef",
            "0x0000000000000000000000000000000000000000000000000000000000000000",
            "0x0000000000000000000000009c1f5534399a58ab3300940deced432dad2d4bed",
            "0x0000000000000000000000000000000000000000000000000000000000000002"
          ],
          "data": "0x",
          "blockHash": "0x22f0a54cc950bb81de6d37792272ae582bda756d4cd1b62575511780658dddac",
          "blockNumber": "0x50c50c6",
          "blockTimestamp": "0x69c4d1af",
          "transactionHash": "0xd47bf69204d44b015ada8a8fec378e08426b9903670f6b1b5ea08545d064e1d3",
          "transactionIndex": "0xa9",
          "logIndex": "0x6a1",
          "removed": false
        },
        {
          "address": "0x9c1f5534399a58ab3300940deced432dad2d4bed",
          "topics": [
            "0xddf252ad1be2c89b69c2b068fc378daa952ba7f163c4a11628f55a4df523b3ef",
            "0x0000000000000000000000000000000000000000000000000000000000000000",
            "0x0000000000000000000000009c1f5534399a58ab3300940deced432dad2d4bed",
            "0x0000000000000000000000000000000000000000000000000000000000000003"
          ],
          "data": "0x",
          "blockHash": "0x22f0a54cc950bb81de6d37792272ae582bda756d4cd1b62575511780658dddac",
          "blockNumber": "0x50c50c6",
          "blockTimestamp": "0x69c4d1af",
          "transactionHash": "0xd47bf69204d44b015ada8a8fec378e08426b9903670f6b1b5ea08545d064e1d3",
          "transactionIndex": "0xa9",
          "logIndex": "0x6a2",
          "removed": false
        },
        {
          "address": "0x9c1f5534399a58ab3300940deced432dad2d4bed",
          "topics": [
            "0xddf252ad1be2c89b69c2b068fc378daa952ba7f163c4a11628f55a4df523b3ef",
            "0x0000000000000000000000000000000000000000000000000000000000000000",
            "0x0000000000000000000000009c1f5534399a58ab3300940deced432dad2d4bed",
            "0x0000000000000000000000000000000000000000000000000000000000000004"
          ],
          "data": "0x",
          "blockHash": "0x22f0a54cc950bb81de6d37792272ae582bda756d4cd1b62575511780658dddac",
          "blockNumber": "0x50c50c6",
          "blockTimestamp": "0x69c4d1af",
          "transactionHash": "0xd47bf69204d44b015ada8a8fec378e08426b9903670f6b1b5ea08545d064e1d3",
          "transactionIndex": "0xa9",
          "logIndex": "0x6a3",
          "removed": false
        },
        {
          "address": "0x9c1f5534399a58ab3300940deced432dad2d4bed",
          "topics": [
            "0xddf252ad1be2c89b69c2b068fc378daa952ba7f163c4a11628f55a4df523b3ef",
            "0x0000000000000000000000000000000000000000000000000000000000000000",
            "0x0000000000000000000000009c1f5534399a58ab3300940deced432dad2d4bed",
            "0x0000000000000000000000000000000000000000000000000000000000000005"
          ],
          "data": "0x",
          "blockHash": "0x22f0a54cc950bb81de6d37792272ae582bda756d4cd1b62575511780658dddac",
          "blockNumber": "0x50c50c6",
          "blockTimestamp": "0x69c4d1af",
          "transactionHash": "0xd47bf69204d44b015ada8a8fec378e08426b9903670f6b1b5ea08545d064e1d3",
          "transactionIndex": "0xa9",
          "logIndex": "0x6a4",
          "removed": false
        },
        {
          "address": "0x9c1f5534399a58ab3300940deced432dad2d4bed",
          "topics": [
            "0xddf252ad1be2c89b69c2b068fc378daa952ba7f163c4a11628f55a4df523b3ef",
            "0x0000000000000000000000000000000000000000000000000000000000000000",
            "0x0000000000000000000000009c1f5534399a58ab3300940deced432dad2d4bed",
            "0x0000000000000000000000000000000000000000000000000000000000000006"
          ],
          "data": "0x",
          "blockHash": "0x22f0a54cc950bb81de6d37792272ae582bda756d4cd1b62575511780658dddac",
          "blockNumber": "0x50c50c6",
          "blockTimestamp": "0x69c4d1af",
          "transactionHash": "0xd47bf69204d44b015ada8a8fec378e08426b9903670f6b1b5ea08545d064e1d3",
          "transactionIndex": "0xa9",
          "logIndex": "0x6a5",
          "removed": false
        },
        {
          "address": "0x9c1f5534399a58ab3300940deced432dad2d4bed",
          "topics": [
            "0xddf252ad1be2c89b69c2b068fc378daa952ba7f163c4a11628f55a4df523b3ef",
            "0x0000000000000000000000000000000000000000000000000000000000000000",
            "0x0000000000000000000000009c1f5534399a58ab3300940deced432dad2d4bed",
            "0x0000000000000000000000000000000000000000000000000000000000000007"
          ],
          "data": "0x",
          "blockHash": "0x22f0a54cc950bb81de6d37792272ae582bda756d4cd1b62575511780658dddac",
          "blockNumber": "0x50c50c6",
          "blockTimestamp": "0x69c4d1af",
          "transactionHash": "0xd47bf69204d44b015ada8a8fec378e08426b9903670f6b1b5ea08545d064e1d3",
          "transactionIndex": "0xa9",
          "logIndex": "0x6a6",
          "removed": false
        },
        {
          "address": "0x9c1f5534399a58ab3300940deced432dad2d4bed",
          "topics": [
            "0xddf252ad1be2c89b69c2b068fc378daa952ba7f163c4a11628f55a4df523b3ef",
            "0x0000000000000000000000000000000000000000000000000000000000000000",
            "0x0000000000000000000000009c1f5534399a58ab3300940deced432dad2d4bed",
            "0x0000000000000000000000000000000000000000000000000000000000000008"
          ],
          "data": "0x",
          "blockHash": "0x22f0a54cc950bb81de6d37792272ae582bda756d4cd1b62575511780658dddac",
          "blockNumber": "0x50c50c6",
          "blockTimestamp": "0x69c4d1af",
          "transactionHash": "0xd47bf69204d44b015ada8a8fec378e08426b9903670f6b1b5ea08545d064e1d3",
          "transactionIndex": "0xa9",
          "logIndex": "0x6a7",
          "removed": false
        },
        {
          "address": "0x9c1f5534399a58ab3300940deced432dad2d4bed",
          "topics": [
            "0xddf252ad1be2c89b69c2b068fc378daa952ba7f163c4a11628f55a4df523b3ef",
            "0x0000000000000000000000000000000000000000000000000000000000000000",
            "0x0000000000000000000000009c1f5534399a58ab3300940deced432dad2d4bed",
            "0x0000000000000000000000000000000000000000000000000000000000000009"
          ],
          "data": "0x",
          "blockHash": "0x22f0a54cc950bb81de6d37792272ae582bda756d4cd1b62575511780658dddac",
          "blockNumber": "0x50c50c6",
          "blockTimestamp": "0x69c4d1af",
          "transactionHash": "0xd47bf69204d44b015ada8a8fec378e08426b9903670f6b1b5ea08545d064e1d3",
          "transactionIndex": "0xa9",
          "logIndex": "0x6a8",
          "removed": false
        },
        {
          "address": "0x9c1f5534399a58ab3300940deced432dad2d4bed",
          "topics": [
            "0xddf252ad1be2c89b69c2b068fc378daa952ba7f163c4a11628f55a4df523b3ef",
            "0x0000000000000000000000000000000000000000000000000000000000000000",
            "0x0000000000000000000000009c1f5534399a58ab3300940deced432dad2d4bed",
            "0x000000000000000000000000000000000000000000000000000000000000000a"
          ],
          "data": "0x",
          "blockHash": "0x22f0a54cc950bb81de6d37792272ae582bda756d4cd1b62575511780658dddac",
          "blockNumber": "0x50c50c6",
          "blockTimestamp": "0x69c4d1af",
          "transactionHash": "0xd47bf69204d44b015ada8a8fec378e08426b9903670f6b1b5ea08545d064e1d3",
          "transactionIndex": "0xa9",
          "logIndex": "0x6a9",
          "removed": false
        },
        {
          "address": "0x9c1f5534399a58ab3300940deced432dad2d4bed",
          "topics": [
            "0xddf252ad1be2c89b69c2b068fc378daa952ba7f163c4a11628f55a4df523b3ef",
            "0x0000000000000000000000000000000000000000000000000000000000000000",
            "0x0000000000000000000000009c1f5534399a58ab3300940deced432dad2d4bed",
            "0x000000000000000000000000000000000000000000000000000000000000000b"
          ],
          "data": "0x",
          "blockHash": "0x22f0a54cc950bb81de6d37792272ae582bda756d4cd1b62575511780658dddac",
          "blockNumber": "0x50c50c6",
          "blockTimestamp": "0x69c4d1af",
          "transactionHash": "0xd47bf69204d44b015ada8a8fec378e08426b9903670f6b1b5ea08545d064e1d3",
          "transactionIndex": "0xa9",
          "logIndex": "0x6aa",
          "removed": false
        },
        {
          "address": "0x0000000000000000000000000000000000001010",
          "topics": [
            "0x4dfe1bbbcf077ddc3e01291eea2d5c70c2b422b415d95645b9adcfd678cb1d63",
            "0x0000000000000000000000000000000000000000000000000000000000001010",
            "0x000000000000000000000000dc328af6c71df52966890a7f007179c25be4ff3b",
            "0x0000000000000000000000007ee41d8a25641000661b1ef5e6ae8a00400466b0"
          ],
          "data": "0x000000000000000000000000000000000000000000000000006c7c225985caa50000000000000000000000000000000000000000000000030130a3301753001500000000000000000000000000000000000000000008b0dda94e09506aba892900000000000000000000000000000000000000000000000300c4270dbdcd357000000000000000000000000000000000000000000008b0dda9ba8572c44053ce",
          "blockHash": "0x22f0a54cc950bb81de6d37792272ae582bda756d4cd1b62575511780658dddac",
          "blockNumber": "0x50c50c6",
          "blockTimestamp": "0x69c4d1af",
          "transactionHash": "0xd47bf69204d44b015ada8a8fec378e08426b9903670f6b1b5ea08545d064e1d3",
          "transactionIndex": "0xa9",
          "logIndex": "0x6ab",
          "removed": false
        }
      ],
      "logsBloom": "0x04000000040000000000004000000000000000000000000000000000000000000000000000000000000000000000000000009000060480000020000000240800000030000002000000000008000000800000000000040000000100000000000008000000020000000000000000000800000000000000000080000010000000000080000400000000030000000400001000001800000000000000000000000000200000000000000000000100000000000000000000800000002000080080404040000002000000004001000000000000002000408000000000100100200060000001000000000000000000000000000000000000008000040000000000922000",
      "type": "0x0",
      "transactionHash": "0xd47bf69204d44b015ada8a8fec378e08426b9903670f6b1b5ea08545d064e1d3",
      "transactionIndex": "0xa9",
      "blockHash": "0x22f0a54cc950bb81de6d37792272ae582bda756d4cd1b62575511780658dddac",
      "blockNumber": "0x50c50c6",
      "gasUsed": "0x125b3b",
      "effectiveGasPrice": "0x1d1f5a2429",
      "from": "0xdc328af6c71df52966890a7f007179c25be4ff3b",
      "to": "0x9c1f5534399a58ab3300940deced432dad2d4bed",
      "contractAddress": null
    },
    {
      "status": "0x1",
      "cumulativeGasUsed": "0x2e05136",
      "logs": [
        {
          "address": "0x8dd39e693688f9a3ac2d1f6dd6d7c05f29888ed2",
          "topics": [
            "0xddf252ad1be2c89b69c2b068fc378daa952ba7f163c4a11628f55a4df523b3ef",
            "0x0000000000000000000000000000000000000000000000000000000000000000",
            "0x0000000000000000000000008dd39e693688f9a3ac2d1f6dd6d7c05f29888ed2",
            "0x0000000000000000000000000000000000000000000000000000000000000000"
          ],
          "data": "0x",
          "blockHash": "0x253b489baad8a4aa3750e989e48299284228f2c7270d6986917e2a243b099cf8",
          "blockNumber": "0x50c50c9",
          "blockTimestamp": "0x69c4d1b5",
          "transactionHash": "0x2b740ab6ad0dd7f0272061a85a06c04c0a7c79a115c66afb3e3da471f68ea686",
          "transactionIndex": "0xb7",
          "logIndex": "0x9a1",
          "removed": false
        },
        {
          "address": "0x8dd39e693688f9a3ac2d1f6dd6d7c05f29888ed2",
          "topics": [
            "0xddf252ad1be2c89b69c2b068fc378daa952ba7f163c4a11628f55a4df523b3ef",
            "0x0000000000000000000000000000000000000000000000000000000000000000",
            "0x0000000000000000000000008dd39e693688f9a3ac2d1f6dd6d7c05f29888ed2",
            "0x0000000000000000000000000000000000000000000000000000000000000001"
          ],
          "data": "0x",
          "blockHash": "0x253b489baad8a4aa3750e989e48299284228f2c7270d6986917e2a243b099cf8",
          "blockNumber": "0x50c50c9",
          "blockTimestamp": "0x69c4d1b5",
          "transactionHash": "0x2b740ab6ad0dd7f0272061a85a06c04c0a7c79a115c66afb3e3da471f68ea686",
          "transactionIndex": "0xb7",
          "logIndex": "0x9a2",
          "removed": false
        },
        {
          "address": "0x8dd39e693688f9a3ac2d1f6dd6d7c05f29888ed2",
          "topics": [
            "0xddf252ad1be2c89b69c2b068fc378daa952ba7f163c4a11628f55a4df523b3ef",
            "0x0000000000000000000000000000000000000000000000000000000000000000",
            "0x0000000000000000000000008dd39e693688f9a3ac2d1f6dd6d7c05f29888ed2",
            "0x0000000000000000000000000000000000000000000000000000000000000002"
          ],
          "data": "0x",
          "blockHash": "0x253b489baad8a4aa3750e989e48299284228f2c7270d6986917e2a243b099cf8",
          "blockNumber": "0x50c50c9",
          "blockTimestamp": "0x69c4d1b5",
          "transactionHash": "0x2b740ab6ad0dd7f0272061a85a06c04c0a7c79a115c66afb3e3da471f68ea686",
          "transactionIndex": "0xb7",
          "logIndex": "0x9a3",
          "removed": false
        },
        {
          "address": "0x8dd39e693688f9a3ac2d1f6dd6d7c05f29888ed2",
          "topics": [
            "0xddf252ad1be2c89b69c2b068fc378daa952ba7f163c4a11628f55a4df523b3ef",
            "0x0000000000000000000000000000000000000000000000000000000000000000",
            "0x0000000000000000000000008dd39e693688f9a3ac2d1f6dd6d7c05f29888ed2",
            "0x0000000000000000000000000000000000000000000000000000000000000003"
          ],
          "data": "0x",
          "blockHash": "0x253b489baad8a4aa3750e989e48299284228f2c7270d6986917e2a243b099cf8",
          "blockNumber": "0x50c50c9",
          "blockTimestamp": "0x69c4d1b5",
          "transactionHash": "0x2b740ab6ad0dd7f0272061a85a06c04c0a7c79a115c66afb3e3da471f68ea686",
          "transactionIndex": "0xb7",
          "logIndex": "0x9a4",
          "removed": false
        },
        {
          "address": "0x8dd39e693688f9a3ac2d1f6dd6d7c05f29888ed2",
          "topics": [
            "0xddf252ad1be2c89b69c2b068fc378daa952ba7f163c4a11628f55a4df523b3ef",
            "0x0000000000000000000000000000000000000000000000000000000000000000",
            "0x0000000000000000000000008dd39e693688f9a3ac2d1f6dd6d7c05f29888ed2",
            "0x0000000000000000000000000000000000000000000000000000000000000004"
          ],
          "data": "0x",
          "blockHash": "0x253b489baad8a4aa3750e989e48299284228f2c7270d6986917e2a243b099cf8",
          "blockNumber": "0x50c50c9",
          "blockTimestamp": "0x69c4d1b5",
          "transactionHash": "0x2b740ab6ad0dd7f0272061a85a06c04c0a7c79a115c66afb3e3da471f68ea686",
          "transactionIndex": "0xb7",
          "logIndex": "0x9a5",
          "removed": false
        },
        {
          "address": "0x8dd39e693688f9a3ac2d1f6dd6d7c05f29888ed2",
          "topics": [
            "0xddf252ad1be2c89b69c2b068fc378daa952ba7f163c4a11628f55a4df523b3ef",
            "0x0000000000000000000000000000000000000000000000000000000000000000",
            "0x0000000000000000000000008dd39e693688f9a3ac2d1f6dd6d7c05f29888ed2",
            "0x0000000000000000000000000000000000000000000000000000000000000005"
          ],
          "data": "0x",
          "blockHash": "0x253b489baad8a4aa3750e989e48299284228f2c7270d6986917e2a243b099cf8",
          "blockNumber": "0x50c50c9",
          "blockTimestamp": "0x69c4d1b5",
          "transactionHash": "0x2b740ab6ad0dd7f0272061a85a06c04c0a7c79a115c66afb3e3da471f68ea686",
          "transactionIndex": "0xb7",
          "logIndex": "0x9a6",
          "removed": false
        },
        {
          "address": "0x8dd39e693688f9a3ac2d1f6dd6d7c05f29888ed2",
          "topics": [
            "0xddf252ad1be2c89b69c2b068fc378daa952ba7f163c4a11628f55a4df523b3ef",
            "0x0000000000000000000000000000000000000000000000000000000000000000",
            "0x0000000000000000000000008dd39e693688f9a3ac2d1f6dd6d7c05f29888ed2",
            "0x0000000000000000000000000000000000000000000000000000000000000006"
          ],
          "data": "0x",
          "blockHash": "0x253b489baad8a4aa3750e989e48299284228f2c7270d6986917e2a243b099cf8",
          "blockNumber": "0x50c50c9",
          "blockTimestamp": "0x69c4d1b5",
          "transactionHash": "0x2b740ab6ad0dd7f0272061a85a06c04c0a7c79a115c66afb3e3da471f68ea686",
          "transactionIndex": "0xb7",
          "logIndex": "0x9a7",
          "removed": false
        },
        {
          "address": "0x8dd39e693688f9a3ac2d1f6dd6d7c05f29888ed2",
          "topics": [
            "0xddf252ad1be2c89b69c2b068fc378daa952ba7f163c4a11628f55a4df523b3ef",
            "0x0000000000000000000000000000000000000000000000000000000000000000",
            "0x0000000000000000000000008dd39e693688f9a3ac2d1f6dd6d7c05f29888ed2",
            "0x0000000000000000000000000000000000000000000000000000000000000007"
          ],
          "data": "0x",
          "blockHash": "0x253b489baad8a4aa3750e989e48299284228f2c7270d6986917e2a243b099cf8",
          "blockNumber": "0x50c50c9",
          "blockTimestamp": "0x69c4d1b5",
          "transactionHash": "0x2b740ab6ad0dd7f0272061a85a06c04c0a7c79a115c66afb3e3da471f68ea686",
          "transactionIndex": "0xb7",
          "logIndex": "0x9a8",
          "removed": false
        },
        {
          "address": "0x8dd39e693688f9a3ac2d1f6dd6d7c05f29888ed2",
          "topics": [
            "0xddf252ad1be2c89b69c2b068fc378daa952ba7f163c4a11628f55a4df523b3ef",
            "0x0000000000000000000000000000000000000000000000000000000000000000",
            "0x0000000000000000000000008dd39e693688f9a3ac2d1f6dd6d7c05f29888ed2",
            "0x0000000000000000000000000000000000000000000000000000000000000008"
          ],
          "data": "0x",
          "blockHash": "0x253b489baad8a4aa3750e989e48299284228f2c7270d6986917e2a243b099cf8",
          "blockNumber": "0x50c50c9",
          "blockTimestamp": "0x69c4d1b5",
          "transactionHash": "0x2b740ab6ad0dd7f0272061a85a06c04c0a7c79a115c66afb3e3da471f68ea686",
          "transactionIndex": "0xb7",
          "logIndex": "0x9a9",
          "removed": false
        },
        {
          "address": "0x8dd39e693688f9a3ac2d1f6dd6d7c05f29888ed2",
          "topics": [
            "0xddf252ad1be2c89b69c2b068fc378daa952ba7f163c4a11628f55a4df523b3ef",
            "0x0000000000000000000000000000000000000000000000000000000000000000",
            "0x0000000000000000000000008dd39e693688f9a3ac2d1f6dd6d7c05f29888ed2",
            "0x0000000000000000000000000000000000000000000000000000000000000009"
          ],
          "data": "0x",
          "blockHash": "0x253b489baad8a4aa3750e989e48299284228f2c7270d6986917e2a243b099cf8",
          "blockNumber": "0x50c50c9",
          "blockTimestamp": "0x69c4d1b5",
          "transactionHash": "0x2b740ab6ad0dd7f0272061a85a06c04c0a7c79a115c66afb3e3da471f68ea686",
          "transactionIndex": "0xb7",
          "logIndex": "0x9aa",
          "removed": false
        },
        {
          "address": "0x8dd39e693688f9a3ac2d1f6dd6d7c05f29888ed2",
          "topics": [
            "0xddf252ad1be2c89b69c2b068fc378daa952ba7f163c4a11628f55a4df523b3ef",
            "0x0000000000000000000000000000000000000000000000000000000000000000",
            "0x0000000000000000000000008dd39e693688f9a3ac2d1f6dd6d7c05f29888ed2",
            "0x000000000000000000000000000000000000000000000000000000000000000a"
          ],
          "data": "0x",
          "blockHash": "0x253b489baad8a4aa3750e989e48299284228f2c7270d6986917e2a243b099cf8",
          "blockNumber": "0x50c50c9",
          "blockTimestamp": "0x69c4d1b5",
          "transactionHash": "0x2b740ab6ad0dd7f0272061a85a06c04c0a7c79a115c66afb3e3da471f68ea686",
          "transactionIndex": "0xb7",
          "logIndex": "0x9ab",
          "removed": false
        },
        {
          "address": "0x8dd39e693688f9a3ac2d1f6dd6d7c05f29888ed2",
          "topics": [
            "0xddf252ad1be2c89b69c2b068fc378daa952ba7f163c4a11628f55a4df523b3ef",
            "0x0000000000000000000000000000000000000000000000000000000000000000",
            "0x0000000000000000000000008dd39e693688f9a3ac2d1f6dd6d7c05f29888ed2",
            "0x000000000000000000000000000000000000000000000000000000000000000b"
          ],
          "data": "0x",
          "blockHash": "0x253b489baad8a4aa3750e989e48299284228f2c7270d6986917e2a243b099cf8",
          "blockNumber": "0x50c50c9",
          "blockTimestamp": "0x69c4d1b5",
          "transactionHash": "0x2b740ab6ad0dd7f0272061a85a06c04c0a7c79a115c66afb3e3da471f68ea686",
          "transactionIndex": "0xb7",
          "logIndex": "0x9ac",
          "removed": false
        },
        {
          "address": "0x0000000000000000000000000000000000001010",
          "topics": [
            "0x4dfe1bbbcf077ddc3e01291eea2d5c70c2b422b415d95645b9adcfd678cb1d63",
            "0x0000000000000000000000000000000000000000000000000000000000001010",
            "0x000000000000000000000000dc328af6c71df52966890a7f007179c25be4ff3b",
            "0x0000000000000000000000007ee41d8a25641000661b1ef5e6ae8a00400466b0"
          ],
          "data": "0x000000000000000000000000000000000000000000000000018f511f7e609404000000000000000000000000000000000000000000000002ff1a0dfe47d017a200000000000000000000000000000000000000000008b0de4ec91fc12a8d57ff000000000000000000000000000000000000000000000002fd8abcdec96f839e00000000000000000000000000000000000000000008b0de505870e0a8edec03",
          "blockHash": "0x253b489baad8a4aa3750e989e48299284228f2c7270d6986917e2a243b099cf8",
          "blockNumber": "0x50c50c9",
          "blockTimestamp": "0x69c4d1b5",
          "transactionHash": "0x2b740ab6ad0dd7f0272061a85a06c04c0a7c79a115c66afb3e3da471f68ea686",
          "transactionIndex": "0xb7",
          "logIndex": "0x9ad",
          "removed": false
        }
      ],
      "logsBloom": "0x04000000040000000000004000000000000000000000000000000000000000000000000000000000000000000000000000109000060480002020000000240800000030000000000000000008000000800000000000040000000100000000000008000000020000000000000080000800000000000000000080000010000000000080000400000000030000000400001000001800000000000000000000000100200000000000000000000100000000000000000000800000002000080000404040000002000000000001000000000000002000408000000000100100000060000000000000000000000000000000000000000000018000440000000000902000",
      "type": "0x0",
      "transactionHash": "0x2b740ab6ad0dd7f0272061a85a06c04c0a7c79a115c66afb3e3da471f68ea686",
      "transactionIndex": "0xb7",
      "blockHash": "0x253b489baad8a4aa3750e989e48299284228f2c7270d6986917e2a243b099cf8",
      "blockNumber": "0x50c50c9",
      "gasUsed": "0x428254",
      "effectiveGasPrice": "0x1d1f5a2429",
      "from": "0xdc328af6c71df52966890a7f007179c25be4ff3b",
      "to": "0x8dd39e693688f9a3ac2d1f6dd6d7c05f29888ed2",
      "contractAddress": null
    },
    {
      "status": "0x1",
      "cumulativeGasUsed": "0x4a1e88d",
      "logs": [
        {
          "address": "0x0000000000000000000000000000000000001010",
          "topics": [
            "0x4dfe1bbbcf077ddc3e01291eea2d5c70c2b422b415d95645b9adcfd678cb1d63",
            "0x0000000000000000000000000000000000000000000000000000000000001010",
            "0x000000000000000000000000dc328af6c71df52966890a7f007179c25be4ff3b",
            "0x0000000000000000000000007ee41d8a25641000661b1ef5e6ae8a00400466b0"
          ],
          "data": "0x00000000000000000000000000000000000000000000000000102a37ffd8dc18000000000000000000000000000000000000000000000002f7892546e54d682e00000000000000000000000000000000000000000008b0dfc8d21e03815b685c000000000000000000000000000000000000000000000002f778fb0ee5748c1600000000000000000000000000000000000000000008b0dfc8e2483b81344474",
          "blockHash": "0x2acbaf0b5755ce5b2a77295cf7a594c7b658ec9d0baf3934cf9806f1f750e9fc",
          "blockNumber": "0x50c50cd",
          "blockTimestamp": "0x69c4d1bd",
          "transactionHash": "0xacb2e9eea4fb0206cf127c2971dc2e7a246bc19c4cc1076bc92ee304210ab5a6",
          "transactionIndex": "0x112",
          "logIndex": "0x1039",
          "removed": false
        }
      ],
      "logsBloom": "0x00000000040000000000000000000000000000000000000000000000000000000000000000000000000000000000000000008000000000000000000000000800000000000000000000000000000000800000000000000000000100000000000000000000000000000000000000000000000000000000000080000000000000000000000000000000020000000400000000000000000000000000000000000000200000000000000000000000000000000000000000000000000000000000004000000000000000000001000000000000000000400000000000100000000000000000000000000000000000000000000000000000000000000000000000102000",
      "type": "0x0",
      "transactionHash": "0xacb2e9eea4fb0206cf127c2971dc2e7a246bc19c4cc1076bc92ee304210ab5a6",
      "transactionIndex": "0x112",
      "blockHash": "0x2acbaf0b5755ce5b2a77295cf7a594c7b658ec9d0baf3934cf9806f1f750e9fc",
      "blockNumber": "0x50c50cd",
      "gasUsed": "0x2c0bb",
      "effectiveGasPrice": "0x1d1f5a2429",
      "from": "0xdc328af6c71df52966890a7f007179c25be4ff3b",
      "to": "0x365e7a621b7ab376b467a84c40f10532f4faa514",
      "contractAddress": null
    },
    {
      "status": "0x1",
      "cumulativeGasUsed": "0x4636a5b",
      "logs": [
        {
          "address": "0x0000000000000000000000000000000000001010",
          "topics": [
            "0x4dfe1bbbcf077ddc3e01291eea2d5c70c2b422b415d95645b9adcfd678cb1d63",
            "0x0000000000000000000000000000000000000000000000000000000000001010",
            "0x000000000000000000000000dc328af6c71df52966890a7f007179c25be4ff3b",
            "0x0000000000000000000000007ee41d8a25641000661b1ef5e6ae8a00400466b0"
          ],
          "data": "0x00000000000000000000000000000000000000000000000000127be06c3f0e7d000000000000000000000000000000000000000000000002f738f9c91b043e3b00000000000000000000000000000000000000000008b0e0c47acd84f6fdef72000000000000000000000000000000000000000000000002f7267de8aec52fbe00000000000000000000000000000000000000000008b0e0c48d4965633cfdef",
          "blockHash": "0x549d63f53844e19ccf0800e4b75e2e90d8b3b58f75b3ed4fca1b5118132ef5ab",
          "blockNumber": "0x50c50d0",
          "blockTimestamp": "0x69c4d1c3",
          "transactionHash": "0xe9884b2fe7022b712c8692a6365aeac690b414788705773c928670285860d8c7",
          "transactionIndex": "0xfd",
          "logIndex": "0xfbf",
          "removed": false
        }
      ],
      "logsBloom": "0x00000000040000000000000000000000000000000000000000000000000000000000000000000000000000000000000000008000000000000000000000000800000000000000000000000000000000800000000000000000000100000000000000000000000000000000000000000000000000000000000080000000000000000000000000000000020000000400000000000000000000000000000000000000200000000000000000000000000000000000000000000000000000000000004000000000000000000001000000000000000000400000000000100000000000000000000000000000000000000000000000000000000000000000000000102000",
      "type": "0x0",
      "transactionHash": "0xe9884b2fe7022b712c8692a6365aeac690b414788705773c928670285860d8c7",
      "transactionIndex": "0xfd",
      "blockHash": "0x549d63f53844e19ccf0800e4b75e2e90d8b3b58f75b3ed4fca1b5118132ef5ab",
      "blockNumber": "0x50c50d0",
      "gasUsed": "0x32c3f",
      "effectiveGasPrice": "0x1d1f5a2429",
      "from": "0xdc328af6c71df52966890a7f007179c25be4ff3b",
      "to": "0x365e7a621b7ab376b467a84c40f10532f4faa514",
      "contractAddress": null
    },
    {
      "status": "0x1",
      "cumulativeGasUsed": "0x523f0b1",
      "logs": [
        {
          "address": "0x0000000000000000000000000000000000001010",
          "topics": [
            "0x4dfe1bbbcf077ddc3e01291eea2d5c70c2b422b415d95645b9adcfd678cb1d63",
            "0x0000000000000000000000000000000000000000000000000000000000001010",
            "0x000000000000000000000000dc328af6c71df52966890a7f007179c25be4ff3b",
            "0x0000000000000000000000007ee41d8a25641000661b1ef5e6ae8a00400466b0"
          ],
          "data": "0x0000000000000000000000000000000000000000000000000012a4bcbda6de76000000000000000000000000000000000000000000000002f6dc932c79234c2400000000000000000000000000000000000000000008b0e501e0365875c9add5000000000000000000000000000000000000000000000002f6c9ee6fbb7c6dae00000000000000000000000000000000000000000008b0e501f2db1533708c4b",
          "blockHash": "0xf11e371a5c4485a3269d826ec1ddb9743b426c09ae463f27fb6d250c06507647",
          "blockNumber": "0x50c50d9",
          "blockTimestamp": "0x69c4d1d5",
          "transactionHash": "0xfa0dbff8f64dce00729e68baf4479fa4299808234c91f2eafb7d9c51f1af2c6c",
          "transactionIndex": "0xfb",
          "logIndex": "0x1138",
          "removed": false
        }
      ],
      "logsBloom": "0x00000000040000000000000000000000000000000000000000000000000000000000000000000000000000000000000000008000000000000000000000000800000000000000000000000000000000800000000000000000000100000000000000000000000000000000000000000000000000000000000080000000000000000000000000000000020000000400000000000000000000000000000000000000200000000000000000000000000000000000000000000000000000000000004000000000000000000001000000000000000000400000000000100000000000000000000000000000000000000000000000000000000000000000000000102000",
      "type": "0x0",
      "transactionHash": "0xfa0dbff8f64dce00729e68baf4479fa4299808234c91f2eafb7d9c51f1af2c6c",
      "transactionIndex": "0xfb",
      "blockHash": "0xf11e371a5c4485a3269d826ec1ddb9743b426c09ae463f27fb6d250c06507647",
      "blockNumber": "0x50c50d9",
      "gasUsed": "0x32c3f",
      "effectiveGasPrice": "0x1d1f5a2429",
      "from": "0xdc328af6c71df52966890a7f007179c25be4ff3b",
      "to": "0x365e7a621b7ab376b467a84c40f10532f4faa514",
      "contractAddress": null
    },
    {
      "status": "0x1",
      "cumulativeGasUsed": "0x3a33875",
      "logs": [
        {
          "address": "0x0000000000000000000000000000000000001010",
          "topics": [
            "0x4dfe1bbbcf077ddc3e01291eea2d5c70c2b422b415d95645b9adcfd678cb1d63",
            "0x0000000000000000000000000000000000000000000000000000000000001010",
            "0x000000000000000000000000dc328af6c71df52966890a7f007179c25be4ff3b",
            "0x0000000000000000000000007ee41d8a25641000661b1ef5e6ae8a00400466b0"
          ],
          "data": "0x0000000000000000000000000000000000000000000000000012a4dda5459e4b000000000000000000000000000000000000000000000002f6802c8fd7425a0d00000000000000000000000000000000000000000008b0e7c03c8d634683d12e000000000000000000000000000000000000000000000002f66d87b231fcbbc200000000000000000000000000000000000000000008b0e7c04f3240ebc96f79",
          "blockHash": "0x6622946046a51426fba4f7e3a7b6b5192d77959c8a8712f850550c6fd430e060",
          "blockNumber": "0x50c50df",
          "blockTimestamp": "0x69c4d1e1",
          "transactionHash": "0x69f3286d0b4986f297670186e4f018b7e9e3240e6dbc5f9a2fc8a8bff6a657fc",
          "transactionIndex": "0xd6",
          "logIndex": "0xd14",
          "removed": false
        }
      ],
      "logsBloom": "0x00000000040000000000000000000000000000000000000000000000000000000000000000000000000000000000000000008000000000000000000000000800000000000000000000000000000000800000000000000000000100000000000000000000000000000000000000000000000000000000000080000000000000000000000000000000020000000400000000000000000000000000000000000000200000000000000000000000000000000000000000000000000000000000004000000000000000000001000000000000000000400000000000100000000000000000000000000000000000000000000000000000000000000000000000102000",
      "type": "0x0",
      "transactionHash": "0x69f3286d0b4986f297670186e4f018b7e9e3240e6dbc5f9a2fc8a8bff6a657fc",
      "transactionIndex": "0xd6",
      "blockHash": "0x6622946046a51426fba4f7e3a7b6b5192d77959c8a8712f850550c6fd430e060",
      "blockNumber": "0x50c50df",
      "gasUsed": "0x32c3f",
      "effectiveGasPrice": "0x1d1f5a2429",
      "from": "0xdc328af6c71df52966890a7f007179c25be4ff3b",
      "to": "0x365e7a621b7ab376b467a84c40f10532f4faa514",
      "contractAddress": null
    },
    {
      "status": "0x1",
      "cumulativeGasUsed": "0x35d1b4e",
      "logs": [
        {
          "address": "0x0000000000000000000000000000000000001010",
          "topics": [
            "0x4dfe1bbbcf077ddc3e01291eea2d5c70c2b422b415d95645b9adcfd678cb1d63",
            "0x0000000000000000000000000000000000000000000000000000000000001010",
            "0x000000000000000000000000dc328af6c71df52966890a7f007179c25be4ff3b",
            "0x0000000000000000000000007ee41d8a25641000661b1ef5e6ae8a00400466b0"
          ],
          "data": "0x00000000000000000000000000000000000000000000000000129467ba485461000000000000000000000000000000000000000000000002f623c5f3356167f600000000000000000000000000000000000000000008b0e89731fab2d765a419000000000000000000000000000000000000000000000002f611318b7b19139500000000000000000000000000000000000000000008b0e897448f1a91adf87a",
          "blockHash": "0xfa05c0d9bbc0ce730c593d5954a8000f4556d1605f78b5a26d65874f3524bfc7",
          "blockNumber": "0x50c50e1",
          "blockTimestamp": "0x69c4d1e5",
          "transactionHash": "0x1c147cec6cbd6accc6f5d7355aa19655da1d4c165b2ae90c1700a5c26389d7c8",
          "transactionIndex": "0xc1",
          "logIndex": "0xba3",
          "removed": false
        }
      ],
      "logsBloom": "0x00000000040000000000000000000000000000000000000000000000000000000000000000000000000000000000000000008000000000000000000000000800000000000000000000000000000000800000000000000000000100000000000000000000000000000000000000000000000000000000000080000000000000000000000000000000020000000400000000000000000000000000000000000000200000000000000000000000000000000000000000000000000000000000004000000000000000000001000000000000000000400000000000100000000000000000000000000000000000000000000000000000000000000000000000102000",
      "type": "0x0",
      "transactionHash": "0x1c147cec6cbd6accc6f5d7355aa19655da1d4c165b2ae90c1700a5c26389d7c8",
      "transactionIndex": "0xc1",
      "blockHash": "0xfa05c0d9bbc0ce730c593d5954a8000f4556d1605f78b5a26d65874f3524bfc7",
      "blockNumber": "0x50c50e1",
      "gasUsed": "0x32c27",
      "effectiveGasPrice": "0x1d1f5a2429",
      "from": "0xdc328af6c71df52966890a7f007179c25be4ff3b",
      "to": "0x365e7a621b7ab376b467a84c40f10532f4faa514",
      "contractAddress": null
    },
    {
      "status": "0x1",
      "cumulativeGasUsed": "0x2f4a631",
      "logs": [
        {
          "address": "0x0000000000000000000000000000000000001010",
          "topics": [
            "0x4dfe1bbbcf077ddc3e01291eea2d5c70c2b422b415d95645b9adcfd678cb1d63",
            "0x0000000000000000000000000000000000000000000000000000000000001010",
            "0x000000000000000000000000dc328af6c71df52966890a7f007179c25be4ff3b",
            "0x0000000000000000000000007ee41d8a25641000661b1ef5e6ae8a00400466b0"
          ],
          "data": "0x0000000000000000000000000000000000000000000000000012af6ef8d83c08000000000000000000000000000000000000000000000002f5c7621183f3d9b700000000000000000000000000000000000000000008b0e996fae5e74d88333a000000000000000000000000000000000000000000000002f5b4b2a28b1b9daf00000000000000000000000000000000000000000008b0e9970d955646606f42",
          "blockHash": "0xfc1d034fcfedfb2add9e2902b0d3d2d39c4112b7f73a9cd38a91c13600a7e76c",
          "blockNumber": "0x50c50e3",
          "blockTimestamp": "0x69c4d1e9",
          "transactionHash": "0x105d7fa77295bbb06c47382f9c93c4e6bbe92cffa779e50fc33072882b7b0073",
          "transactionIndex": "0xc1",
          "logIndex": "0xa1d",
          "removed": false
        }
      ],
      "logsBloom": "0x00000000040000000000000000000000000000000000000000000000000000000000000000000000000000000000000000008000000000000000000000000800000000000000000000000000000000800000000000000000000100000000000000000000000000000000000000000000000000000000000080000000000000000000000000000000020000000400000000000000000000000000000000000000200000000000000000000000000000000000000000000000000000000000004000000000000000000001000000000000000000400000000000100000000000000000000000000000000000000000000000000000000000000000000000102000",
      "type": "0x0",
      "transactionHash": "0x105d7fa77295bbb06c47382f9c93c4e6bbe92cffa779e50fc33072882b7b0073",
      "transactionIndex": "0xc1",
      "blockHash": "0xfc1d034fcfedfb2add9e2902b0d3d2d39c4112b7f73a9cd38a91c13600a7e76c",
      "blockNumber": "0x50c50e3",
      "gasUsed": "0x32c3f",
      "effectiveGasPrice": "0x1d1f5a2429",
      "from": "0xdc328af6c71df52966890a7f007179c25be4ff3b",
      "to": "0x365e7a621b7ab376b467a84c40f10532f4faa514",
      "contractAddress": null
    },
    {
      "status": "0x1",
      "cumulativeGasUsed": "0x54d4fc8",
      "logs": [
        {
          "address": "0x0000000000000000000000000000000000001010",
          "topics": [
            "0x4dfe1bbbcf077ddc3e01291eea2d5c70c2b422b415d95645b9adcfd678cb1d63",
            "0x0000000000000000000000000000000000000000000000000000000000001010",
            "0x000000000000000000000000dc328af6c71df52966890a7f007179c25be4ff3b",
            "0x0000000000000000000000007ee41d8a25641000661b1ef5e6ae8a00400466b0"
          ],
          "data": "0x000000000000000000000000000000000000000000000000001279371c83aaca000000000000000000000000000000000000000000000002f56afb74e212e7a000000000000000000000000000000000000000000008b0eafa08926ea77553e2000000000000000000000000000000000000000000000002f558823dc58f3cd600000000000000000000000000000000000000000008b0eafa1b0ba5c3f8feac",
          "blockHash": "0x97744e8db0520c28424d4c110ac1c78028ef271bffa17a44c168ee8a2919f25f",
          "blockNumber": "0x50c50e6",
          "blockTimestamp": "0x69c4d1ef",
          "transactionHash": "0xaffb85e10aa6930b9f998e2385d3e53f6ec4fda9abbda3f52049523e8d8a6e19",
          "transactionIndex": "0x10d",
          "logIndex": "0x133c",
          "removed": false
        }
      ],
      "logsBloom": "0x00000000040000000000000000000000000000000000000000000000000000000000000000000000000000000000000000008000000000000000000000000800000000000000000000000000000000800000000000000000000100000000000000000000000000000000000000000000000000000000000080000000000000000000000000000000020000000400000000000000000000000000000000000000200000000000000000000000000000000000000000000000000000000000004000000000000000000001000000000000000000400000000000100000000000000000000000000000000000000000000000000000000000000000000000102000",
      "type": "0x0",
      "transactionHash": "0xaffb85e10aa6930b9f998e2385d3e53f6ec4fda9abbda3f52049523e8d8a6e19",
      "transactionIndex": "0x10d",
      "blockHash": "0x97744e8db0520c28424d4c110ac1c78028ef271bffa17a44c168ee8a2919f25f",
      "blockNumber": "0x50c50e6",
      "gasUsed": "0x32c3f",
      "effectiveGasPrice": "0x1d1f5a2429",
      "from": "0xdc328af6c71df52966890a7f007179c25be4ff3b",
      "to": "0x365e7a621b7ab376b467a84c40f10532f4faa514",
      "contractAddress": null
    },
    {
      "status": "0x1",
      "cumulativeGasUsed": "0x30de88b",
      "logs": [
        {
          "address": "0x0000000000000000000000000000000000001010",
          "topics": [
            "0x4dfe1bbbcf077ddc3e01291eea2d5c70c2b422b415d95645b9adcfd678cb1d63",
            "0x0000000000000000000000000000000000000000000000000000000000001010",
            "0x000000000000000000000000dc328af6c71df52966890a7f007179c25be4ff3b",
            "0x0000000000000000000000007ee41d8a25641000661b1ef5e6ae8a00400466b0"
          ],
          "data": "0x00000000000000000000000000000000000000000000000000128ba23c3d04b5000000000000000000000000000000000000000000000002f50e94d84031f58900000000000000000000000000000000000000000008b0efe26447136a89819b000000000000000000000000000000000000000000000002f4fc093603f4f0d400000000000000000000000000000000000000000008b0efe276d2b5a6c68650",
          "blockHash": "0x49bd3bdb5c4557f1a6b68f1f0d6d3c7c3000daab4fbe23fb67613ee536533be8",
          "blockNumber": "0x50c50f0",
          "blockTimestamp": "0x69c4d203",
          "transactionHash": "0x318d7d0168dea9b5595dbf1ab251e1b7be5897c8026b46aa36db4e0cf79c215f",
          "transactionIndex": "0xcd",
          "logIndex": "0xabd",
          "removed": false
        }
      ],
      "logsBloom": "0x00000000040000000000000000000000000000000000000000000000000000000000000000000000000000000000000000008000000000000000000000000800000000000000000000000000000000800000000000000000000100000000000000000000000000000000000000000000000000000000000080000000000000000000000000000000020000000400000000000000000000000000000000000000200000000000000000000000000000000000000000000000000000000000004000000000000000000001000000000000000000400000000000100000000000000000000000000000000000000000000000000000000000000000000000102000",
      "type": "0x0",
      "transactionHash": "0x318d7d0168dea9b5595dbf1ab251e1b7be5897c8026b46aa36db4e0cf79c215f",
      "transactionIndex": "0xcd",
      "blockHash": "0x49bd3bdb5c4557f1a6b68f1f0d6d3c7c3000daab4fbe23fb67613ee536533be8",
      "blockNumber": "0x50c50f0",
      "gasUsed": "0x32c3f",
      "effectiveGasPrice": "0x1d1f5a2429",
      "from": "0xdc328af6c71df52966890a7f007179c25be4ff3b",
      "to": "0x365e7a621b7ab376b467a84c40f10532f4faa514",
      "contractAddress": null
    },
    {
      "status": "0x1",
      "cumulativeGasUsed": "0x275ed84",
      "logs": [
        {
          "address": "0x0000000000000000000000000000000000001010",
          "topics": [
            "0x4dfe1bbbcf077ddc3e01291eea2d5c70c2b422b415d95645b9adcfd678cb1d63",
            "0x0000000000000000000000000000000000000000000000000000000000001010",
            "0x000000000000000000000000dc328af6c71df52966890a7f007179c25be4ff3b",
            "0x0000000000000000000000007ee41d8a25641000661b1ef5e6ae8a00400466b0"
          ],
          "data": "0x000000000000000000000000000000000000000000000000001297c735c296a0000000000000000000000000000000000000000000000002f4b22e3b9e51037200000000000000000000000000000000000000000008b0f13b7e633685d174c1000000000000000000000000000000000000000000000002f49f9674688e6cd200000000000000000000000000000000000000000008b0f13b90fafdbb940b61",
          "blockHash": "0xd5295b1411a6c8cc69e4e1fb4ca33ee5584afb69e85e38f91a4793517e0c1a38",
          "blockNumber": "0x50c50f3",
          "blockTimestamp": "0x69c4d209",
          "transactionHash": "0x9ea4be007fc0bda564ed21d05828c275f72cf9fc91272f749e31c16859dfb6b1",
          "transactionIndex": "0xc7",
          "logIndex": "0x815",
          "removed": false
        }
      ],
      "logsBloom": "0x00000000040000000000000000000000000000000000000000000000000000000000000000000000000000000000000000008000000000000000000000000800000000000000000000000000000000800000000000000000000100000000000000000000000000000000000000000000000000000000000080000000000000000000000000000000020000000400000000000000000000000000000000000000200000000000000000000000000000000000000000000000000000000000004000000000000000000001000000000000000000400000000000100000000000000000000000000000000000000000000000000000000000000000000000102000",
      "type": "0x0",
      "transactionHash": "0x9ea4be007fc0bda564ed21d05828c275f72cf9fc91272f749e31c16859dfb6b1",
      "transactionIndex": "0xc7",
      "blockHash": "0xd5295b1411a6c8cc69e4e1fb4ca33ee5584afb69e85e38f91a4793517e0c1a38",
      "blockNumber": "0x50c50f3",
      "gasUsed": "0x32c3f",
      "effectiveGasPrice": "0x1d1f5a2429",
      "from": "0xdc328af6c71df52966890a7f007179c25be4ff3b",
      "to": "0x365e7a621b7ab376b467a84c40f10532f4faa514",
      "contractAddress": null
    },
    {
      "status": "0x1",
      "cumulativeGasUsed": "0x4e600cf",
      "logs": [
        {
          "address": "0x0000000000000000000000000000000000001010",
          "topics": [
            "0x4dfe1bbbcf077ddc3e01291eea2d5c70c2b422b415d95645b9adcfd678cb1d63",
            "0x0000000000000000000000000000000000000000000000000000000000001010",
            "0x000000000000000000000000dc328af6c71df52966890a7f007179c25be4ff3b",
            "0x0000000000000000000000007ee41d8a25641000661b1ef5e6ae8a00400466b0"
          ],
          "data": "0x0000000000000000000000000000000000000000000000000012e331cf3d50b0000000000000000000000000000000000000000000000002f455c79efc70115b00000000000000000000000000000000000000000008b0f26c758c57908a2bf8000000000000000000000000000000000000000000000002f442e46d2d32c0ab00000000000000000000000000000000000000000008b0f26c886f895fc77ca8",
          "blockHash": "0x109094fa37bde4114571559f5b20f7074bb1de10cec03293b37c51fe50e0286a",
          "blockNumber": "0x50c50f6",
          "blockTimestamp": "0x69c4d20f",
          "transactionHash": "0x36472954c516a445a7483262eeb879c044314516fc4eb970a86d640d07a92885",
          "transactionIndex": "0x10d",
          "logIndex": "0x1241",
          "removed": false
        }
      ],
      "logsBloom": "0x00000000040000000000000000000000000000000000000000000000000000000000000000000000000000000000000000008000000000000000000000000800000000000000000000000000000000800000000000000000000100000000000000000000000000000000000000000000000000000000000080000000000000000000000000000000020000000400000000000000000000000000000000000000200000000000000000000000000000000000000000000000000000000000004000000000000000000001000000000000000000400000000000100000000000000000000000000000000000000000000000000000000000000000000000102000",
      "type": "0x0",
      "transactionHash": "0x36472954c516a445a7483262eeb879c044314516fc4eb970a86d640d07a92885",
      "transactionIndex": "0x10d",
      "blockHash": "0x109094fa37bde4114571559f5b20f7074bb1de10cec03293b37c51fe50e0286a",
      "blockNumber": "0x50c50f6",
      "gasUsed": "0x32c33",
      "effectiveGasPrice": "0x1d1f5a2429",
      "from": "0xdc328af6c71df52966890a7f007179c25be4ff3b",
      "to": "0x365e7a621b7ab376b467a84c40f10532f4faa514",
      "contractAddress": null
    },
    {
      "status": "0x1",
      "cumulativeGasUsed": "0x2e86adc",
      "logs": [
        {
          "address": "0x0000000000000000000000000000000000001010",
          "topics": [
            "0x4dfe1bbbcf077ddc3e01291eea2d5c70c2b422b415d95645b9adcfd678cb1d63",
            "0x0000000000000000000000000000000000000000000000000000000000001010",
            "0x000000000000000000000000dc328af6c71df52966890a7f007179c25be4ff3b",
            "0x0000000000000000000000007ee41d8a25641000661b1ef5e6ae8a00400466b0"
          ],
          "data": "0x00000000000000000000000000000000000000000000000000127e0a7f1b9d9b000000000000000000000000000000000000000000000002f3f9625fd2c8d13000000000000000000000000000000000000000000008b0f3a6f9b0db13322caf000000000000000000000000000000000000000000000002f3e6e45553ad339500000000000000000000000000000000000000000008b0f3a70c2ee5924dca4a",
          "blockHash": "0x0c7923566027b8df7cfafb6f525efa46d707f3bf20e0f9f776eb37fdf7abe3e5",
          "blockNumber": "0x50c50f9",
          "blockTimestamp": "0x69c4d215",
          "transactionHash": "0x6d14d6da689277c6e26dcbd5b21822579d196fffd4af0bb6c337cdd7f3eb563a",
          "transactionIndex": "0xd2",
          "logIndex": "0xa84",
          "removed": false
        }
      ],
      "logsBloom": "0x00000000040000000000000000000000000000000000000000000000000000000000000000000000000000000000000000008000000000000000000000000800000000000000000000000000000000800000000000000000000100000000000000000000000000000000000000000000000000000000000080000000000000000000000000000000020000000400000000000000000000000000000000000000200000000000000000000000000000000000000000000000000000000000004000000000000000000001000000000000000000400000000000100000000000000000000000000000000000000000000000000000000000000000000000102000",
      "type": "0x0",
      "transactionHash": "0x6d14d6da689277c6e26dcbd5b21822579d196fffd4af0bb6c337cdd7f3eb563a",
      "transactionIndex": "0xd2",
      "blockHash": "0x0c7923566027b8df7cfafb6f525efa46d707f3bf20e0f9f776eb37fdf7abe3e5",
      "blockNumber": "0x50c50f9",
      "gasUsed": "0x32c3f",
      "effectiveGasPrice": "0x1d1f5a2429",
      "from": "0xdc328af6c71df52966890a7f007179c25be4ff3b",
      "to": "0x365e7a621b7ab376b467a84c40f10532f4faa514",
      "contractAddress": null
    },
    {
      "status": "0x1",
      "cumulativeGasUsed": "0x50ab415",
      "logs": [
        {
          "address": "0x0000000000000000000000000000000000001010",
          "topics": [
            "0x4dfe1bbbcf077ddc3e01291eea2d5c70c2b422b415d95645b9adcfd678cb1d63",
            "0x0000000000000000000000000000000000000000000000000000000000001010",
            "0x000000000000000000000000dc328af6c71df52966890a7f007179c25be4ff3b",
            "0x0000000000000000000000007ee41d8a25641000661b1ef5e6ae8a00400466b0"
          ],
          "data": "0x00000000000000000000000000000000000000000000000000127f678eb886a7000000000000000000000000000000000000000000000002f39cfbc330e7df1900000000000000000000000000000000000000000008b0f548b8735188d7c752000000000000000000000000000000000000000000000002f38a7c5ba22f587200000000000000000000000000000000000000000008b0f548caf2b917904df9",
          "blockHash": "0x45a250f1ec477b9d9e7528f4e3dfedfa40fff9c71bc2ae14c55dfb90898954e7",
          "blockNumber": "0x50c50fd",
          "blockTimestamp": "0x69c4d21d",
          "transactionHash": "0x85159f8c7712b0e3c29d3d8d7474548a0e553b216361dbcf44e399773281208d",
          "transactionIndex": "0x104",
          "logIndex": "0x12ae",
          "removed": false
        }
      ],
      "logsBloom": "0x00000000040000000000000000000000000000000000000000000000000000000000000000000000000000000000000000008000000000000000000000000800000000000000000000000000000000800000000000000000000100000000000000000000000000000000000000000000000000000000000080000000000000000000000000000000020000000400000000000000000000000000000000000000200000000000000000000000000000000000000000000000000000000000004000000000000000000001000000000000000000400000000000100000000000000000000000000000000000000000000000000000000000000000000000102000",
      "type": "0x0",
      "transactionHash": "0x85159f8c7712b0e3c29d3d8d7474548a0e553b216361dbcf44e399773281208d",
      "transactionIndex": "0x104",
      "blockHash": "0x45a250f1ec477b9d9e7528f4e3dfedfa40fff9c71bc2ae14c55dfb90898954e7",
      "blockNumber": "0x50c50fd",
      "gasUsed": "0x32c3f",
      "effectiveGasPrice": "0x1d1f5a2429",
      "from": "0xdc328af6c71df52966890a7f007179c25be4ff3b",
      "to": "0x365e7a621b7ab376b467a84c40f10532f4faa514",
      "contractAddress": null
    }
  ],
  "libraries": [
    "src/GameLib.sol:GameLib:0xaa844DB251863F4029d4d6398866439Ccc5dec06"
  ],
  "pending": [],
  "returns": {},
  "timestamp": 1774506526861,
  "chain": 137,
  "commit": "954ac2a"
}